{"contracts/Auction.sol":{"Auction":{"abi":[{"inputs":[{"internalType":"contract ObscurityToken","name":"_token","type":"address"}],"stateMutability":"nonpayable","type":"constructor"},{"anonymous":false,"inputs":[{"indexed":true,"internalType":"string","name":"itemId","type":"string"},{"indexed":false,"internalType":"string","name":"itemName","type":"string"}],"name":"AuctionItemCreated","type":"event"},{"anonymous":false,"inputs":[{"indexed":true,"internalType":"address","name":"previousOwner","type":"address"},{"indexed":true,"internalType":"address","name":"newOwner","type":"address"}],"name":"OwnershipTransferred","type":"event"},{"inputs":[{"internalType":"address","name":"","type":"address"}],"name":"activeAuctionOwners","outputs":[{"internalType":"uint256","name":"stakedAmount","type":"uint256"},{"internalType":"bool","name":"isInitialized","type":"bool"}],"stateMutability":"view","type":"function"},{"inputs":[{"internalType":"string","name":"","type":"string"}],"name":"auctionItems","outputs":[{"internalType":"string","name":"itemId","type":"string"},{"internalType":"string","name":"itemName","type":"string"},{"internalType":"address payable","name":"seller","type":"address"},{"internalType":"uint256","name":"reservePrice","type":"uint256"},{"internalType":"uint256","name":"highestBid","type":"uint256"},{"internalType":"address payable","name":"highestBidder","type":"address"},{"internalType":"uint256","name":"auctionEndTime","type":"uint256"},{"internalType":"bool","name":"ended","type":"bool"},{"internalType":"string","name":"deliveryAddress","type":"string"},{"internalType":"enum Auction.EscrowState","name":"escrowState","type":"uint8"},{"internalType":"uint8","name":"yesVotes","type":"uint8"},{"internalType":"uint8","name":"noVotes","type":"uint8"}],"stateMutability":"view","type":"function"},{"inputs":[{"internalType":"string","name":"a","type":"string"},{"internalType":"string","name":"b","type":"string"}],"name":"compareStrings","outputs":[{"internalType":"bool","name":"","type":"bool"}],"stateMutability":"pure","type":"function"},{"inputs":[{"internalType":"string","name":"itemId","type":"string"},{"internalType":"string","name":"itemName","type":"string"},{"internalType":"uint256","name":"reservePrice","type":"uint256"}],"name":"createAuctionItem","outputs":[],"stateMutability":"nonpayable","type":"function"},{"inputs":[{"internalType":"string","name":"itemId","type":"string"}],"name":"endAuction","outputs":[],"stateMutability":"payable","type":"function"},{"inputs":[],"name":"getActiveAuctioneer","outputs":[{"internalType":"uint256","name":"","type":"uint256"},{"internalType":"string[]","name":"","type":"string[]"},{"internalType":"bool","name":"","type":"bool"}],"stateMutability":"view","type":"function"},{"inputs":[],"name":"getAllAuctions","outputs":[{"components":[{"internalType":"string","name":"itemId","type":"string"},{"internalType":"string","name":"itemName","type":"string"},{"internalType":"address payable","name":"seller","type":"address"},{"internalType":"uint256","name":"reservePrice","type":"uint256"},{"internalType":"uint256","name":"highestBid","type":"uint256"},{"internalType":"address payable","name":"highestBidder","type":"address"},{"internalType":"uint256","name":"auctionEndTime","type":"uint256"},{"internalType":"bool","name":"ended","type":"bool"},{"internalType":"string","name":"deliveryAddress","type":"string"},{"internalType":"string[]","name":"privateChatLogs","type":"string[]"},{"internalType":"string[]","name":"committeeChatLogs","type":"string[]"},{"internalType":"enum Auction.EscrowState","name":"escrowState","type":"uint8"},{"internalType":"uint8","name":"yesVotes","type":"uint8"},{"internalType":"uint8","name":"noVotes","type":"uint8"}],"internalType":"struct Auction.AuctionItem[]","name":"","type":"tuple[]"}],"stateMutability":"view","type":"function"},{"inputs":[],"name":"getAllDisputeAuctions","outputs":[{"components":[{"internalType":"string","name":"itemId","type":"string"},{"internalType":"string","name":"itemName","type":"string"},{"internalType":"address payable","name":"seller","type":"address"},{"internalType":"uint256","name":"reservePrice","type":"uint256"},{"internalType":"uint256","name":"highestBid","type":"uint256"},{"internalType":"address payable","name":"highestBidder","type":"address"},{"internalType":"uint256","name":"auctionEndTime","type":"uint256"},{"internalType":"bool","name":"ended","type":"bool"},{"internalType":"string","name":"deliveryAddress","type":"string"},{"internalType":"string[]","name":"privateChatLogs","type":"string[]"},{"internalType":"string[]","name":"committeeChatLogs","type":"string[]"},{"internalType":"enum Auction.EscrowState","name":"escrowState","type":"uint8"},{"internalType":"uint8","name":"yesVotes","type":"uint8"},{"internalType":"uint8","name":"noVotes","type":"uint8"}],"internalType":"struct Auction.AuctionItem[]","name":"","type":"tuple[]"}],"stateMutability":"view","type":"function"},{"inputs":[],"name":"getAuctionDuration","outputs":[{"internalType":"uint256","name":"","type":"uint256"}],"stateMutability":"view","type":"function"},{"inputs":[{"internalType":"string","name":"itemId","type":"string"}],"name":"getAuctionItem","outputs":[{"internalType":"string","name":"","type":"string"},{"internalType":"string","name":"","type":"string"},{"internalType":"address payable","name":"","type":"address"},{"internalType":"uint256","name":"","type":"uint256"},{"internalType":"uint256","name":"","type":"uint256"},{"internalType":"address payable","name":"","type":"address"},{"internalType":"uint256","name":"","type":"uint256"},{"internalType":"bool","name":"","type":"bool"}],"stateMutability":"view","type":"function"},{"inputs":[{"internalType":"string","name":"itemId","type":"string"}],"name":"getChatLogOfItem","outputs":[{"internalType":"string[]","name":"","type":"string[]"}],"stateMutability":"view","type":"function"},{"inputs":[],"name":"getConcurrentAuctionsPerUser","outputs":[{"internalType":"uint256","name":"","type":"uint256"}],"stateMutability":"view","type":"function"},{"inputs":[],"name":"getCurrentTimestamp","outputs":[{"internalType":"uint256","name":"","type":"uint256"}],"stateMutability":"view","type":"function"},{"inputs":[{"internalType":"string","name":"itemId","type":"string"}],"name":"getDeliveryAddress","outputs":[{"internalType":"string","name":"","type":"string"}],"stateMutability":"view","type":"function"},{"inputs":[{"internalType":"address","name":"adr","type":"address"}],"name":"getPubKey","outputs":[{"internalType":"string","name":"","type":"string"}],"stateMutability":"view","type":"function"},{"inputs":[],"name":"getTokensToStake","outputs":[{"internalType":"uint256","name":"","type":"uint256"}],"stateMutability":"view","type":"function"},{"inputs":[{"internalType":"address","name":"","type":"address"}],"name":"isCommitteeMember","outputs":[{"internalType":"bool","name":"","type":"bool"}],"stateMutability":"view","type":"function"},{"inputs":[],"name":"owner","outputs":[{"internalType":"address","name":"","type":"address"}],"stateMutability":"view","type":"function"},{"inputs":[{"internalType":"string","name":"itemId","type":"string"},{"internalType":"uint256","name":"bidAmount","type":"uint256"}],"name":"placeBid","outputs":[],"stateMutability":"payable","type":"function"},{"inputs":[{"internalType":"address","name":"","type":"address"}],"name":"pubKeys","outputs":[{"internalType":"string","name":"","type":"string"}],"stateMutability":"view","type":"function"},{"inputs":[{"internalType":"string","name":"itemId","type":"string"}],"name":"raiseDispute","outputs":[],"stateMutability":"nonpayable","type":"function"},{"inputs":[],"name":"relinquishTokensToOwner","outputs":[],"stateMutability":"nonpayable","type":"function"},{"inputs":[],"name":"renounceOwnership","outputs":[],"stateMutability":"nonpayable","type":"function"},{"inputs":[{"internalType":"string","name":"itemId","type":"string"}],"name":"resolveDispute","outputs":[],"stateMutability":"payable","type":"function"},{"inputs":[{"internalType":"string","name":"itemId","type":"string"},{"internalType":"string","name":"message","type":"string"}],"name":"sendChat","outputs":[],"stateMutability":"nonpayable","type":"function"},{"inputs":[{"internalType":"string","name":"itemId","type":"string"},{"internalType":"string","name":"message","type":"string"}],"name":"sendCommitteeChat","outputs":[],"stateMutability":"nonpayable","type":"function"},{"inputs":[{"internalType":"uint64","name":"duration","type":"uint64"}],"name":"setAuctionDuration","outputs":[],"stateMutability":"nonpayable","type":"function"},{"inputs":[{"internalType":"uint8","name":"auctionCount","type":"uint8"}],"name":"setConcurrentAuctionsPerUser","outputs":[],"stateMutability":"nonpayable","type":"function"},{"inputs":[{"internalType":"string","name":"itemId","type":"string"},{"internalType":"string","name":"deliveryAddress","type":"string"}],"name":"setDeliveryAddress","outputs":[],"stateMutability":"nonpayable","type":"function"},{"inputs":[{"internalType":"string","name":"pubKey","type":"string"}],"name":"setPubKey","outputs":[],"stateMutability":"nonpayable","type":"function"},{"inputs":[{"internalType":"uint256","name":"amount","type":"uint256"}],"name":"setTokensToStake","outputs":[],"stateMutability":"nonpayable","type":"function"},{"inputs":[{"internalType":"uint256","name":"amount","type":"uint256"}],"name":"stakeTokens","outputs":[],"stateMutability":"nonpayable","type":"function"},{"inputs":[{"internalType":"address","name":"newOwner","type":"address"}],"name":"transferOwnership","outputs":[],"stateMutability":"nonpayable","type":"function"},{"inputs":[{"internalType":"string","name":"itemId","type":"string"},{"internalType":"enum Auction.EscrowState","name":"nextState","type":"uint8"}],"name":"transitionEscrowState","outputs":[],"stateMutability":"nonpayable","type":"function"},{"inputs":[{"internalType":"string","name":"itemId","type":"string"},{"internalType":"uint8","name":"vote","type":"uint8"}],"name":"voteOnDispute","outputs":[],"stateMutability":"nonpayable","type":"function"}],"devdoc":{"kind":"dev","methods":{"owner()":{"details":"Returns the address of the current owner."},"renounceOwnership()":{"details":"Leaves the contract without owner. It will not be possible to call `onlyOwner` functions. Can only be called by the current owner. NOTE: Renouncing ownership will leave the contract without an owner, thereby disabling any functionality that is only available to the owner."},"transferOwnership(address)":{"details":"Transfers ownership of the contract to a new account (`newOwner`). Can only be called by the current owner."}},"version":1},"evm":{"bytecode":{"linkReferences":{},"object":"60806040526101f460075560088054600160a01b600160e81b0319167c02000000000001518000000000000000000000000000000000000000001790553480156200004957600080fd5b5060405162004d7638038062004d768339810160408190526200006c916200018f565b62000077336200013f565b600880546001600160a01b0319166001600160a01b039290921691909117905560046020527fae4c90e9fd351ce202216afa0d4df96849f86d83d3477d77c2a6f6a37e0d6987805460ff1990811660019081179092557fb30fbb72271e8cca1e43377aef853c29714e0693327e34891849a09ae7576eda8054821683179055739965507d1a55bcc2695c58ba16fb37d819b0a4dc6000527f7f9af5af1d24633f5986258fb25fed895f753652fe53b8038bd0660a24092a6080549091169091179055620001c1565b600080546001600160a01b038381166001600160a01b0319831681178455604051919092169283917f8be0079c531659141344cd1fd0a4f28419497f9722a3daafe3b4186f6b6457e09190a35050565b600060208284031215620001a257600080fd5b81516001600160a01b0381168114620001ba57600080fd5b9392505050565b614ba580620001d16000396000f3fe6080604052600436106102045760003560e01c80639211735b11610118578063d02f25f7116100a0578063e636d84b1161006f578063e636d84b146105f1578063ee54507b14610621578063f2fde38b14610636578063fb346ea014610656578063fce9512a146106a257600080fd5b8063d02f25f714610564578063d1b8b4bf14610584578063d31f371e146105a4578063d8bcd0c9146105dc57600080fd5b8063a7eaa241116100e7578063a7eaa241146104cc578063bed34bba146104df578063c1d733db1461050f578063cbd2bdfd1461052f578063ce2ba9bf1461055157600080fd5b80639211735b14610443578063955ab337146104635780639f19360d14610497578063a4bdc06e146104b757600080fd5b80637547c7a31161019b57806383c271501161016a57806383c271501461039c57806388624ab3146103c95780638aaf2761146103e85780638da5cb5b146104085780638f2238ba1461043057600080fd5b80637547c7a31461031757806378cb51af146103375780637c812b391461035c5780637f38d8651461037c57600080fd5b80634f04e79c116101d75780634f04e79c146102a15780636c9230db146102c5578063715018a6146102e2578063725a3b4b146102f757600080fd5b8063016544aa1461020957806305f3b3f71461022b57806307412e9c146102615780633098662e14610281575b600080fd5b34801561021557600080fd5b50610229610224366004613d68565b6106c2565b005b34801561023757600080fd5b5061024b610246366004613dc2565b610c3a565b6040516102589190613e53565b60405180910390f35b34801561026d57600080fd5b5061022961027c366004613dc2565b610dbe565b34801561028d57600080fd5b5061022961029c366004613e6d565b610ddd565b3480156102ad57600080fd5b506102b6610eb5565b60405161025893929190613f30565b3480156102d157600080fd5b50425b604051908152602001610258565b3480156102ee57600080fd5b50610229610fb8565b34801561030357600080fd5b50610229610312366004613dc2565b610fcc565b34801561032357600080fd5b50610229610332366004613f5b565b6110c4565b34801561034357600080fd5b50600854600160a01b90046001600160401b03166102d4565b34801561036857600080fd5b50610229610377366004613f74565b6111f1565b34801561038857600080fd5b50610229610397366004613fb3565b611226565b3480156103a857600080fd5b506103bc6103b7366004613dc2565b61124e565b6040516102589190613fce565b3480156103d557600080fd5b50600854600160e01b900460ff166102d4565b3480156103f457600080fd5b50610229610403366004613f5b565b611728565b34801561041457600080fd5b506000546040516001600160a01b039091168152602001610258565b61022961043e366004613dc2565b611735565b34801561044f57600080fd5b5061022961045e366004613fe1565b611960565b34801561046f57600080fd5b5061048361047e366004613dc2565b611ac1565b604051610258989796959493929190614034565b3480156104a357600080fd5b506102296104b2366004614143565b611c99565b3480156104c357600080fd5b50610229611dd7565b6102296104da3660046141ab565b611f6a565b3480156104eb57600080fd5b506104ff6104fa3660046141f6565b612361565b6040519015158152602001610258565b34801561051b57600080fd5b5061022961052a366004613e6d565b6123bb565b34801561053b57600080fd5b506105446124ec565b60405161025891906142d6565b61022961055f366004613dc2565b6129e0565b34801561057057600080fd5b5061022961057f36600461443c565b612d1d565b34801561059057600080fd5b5061024b61059f3660046144ac565b613258565b3480156105b057600080fd5b506105c46105bf3660046144d5565b6132f2565b6040516102589c9b9a99989796959493929190614511565b3480156105e857600080fd5b506007546102d4565b3480156105fd57600080fd5b506104ff61060c3660046144ac565b60046020526000908152604090205460ff1681565b34801561062d57600080fd5b50610544613510565b34801561064257600080fd5b506102296106513660046144ac565b6139fe565b34801561066257600080fd5b5061068d6106713660046144ac565b6002602081905260009182526040909120805491015460ff1682565b60408051928352901515602083015201610258565b3480156106ae57600080fd5b5061024b6106bd3660046144ac565b613a74565b82826107ad600183836040516106d99291906145b7565b90815260405190819003602001902080546106f3906145c7565b80601f016020809104026020016040519081016040528092919081815260200182805461071f906145c7565b801561076c5780601f106107415761010080835404028352916020019161076c565b820191906000526020600020905b81548152906001019060200180831161074f57829003601f168201915b505050505083838080601f01602080910402602001604051908101604052809392919081815260200183838082843760009201919091525061236192505050565b6107d25760405162461bcd60e51b81526004016107c9906145fb565b60405180910390fd5b6000600186866040516107e69291906145b7565b908152604051908190036020019020600781015490915060ff1661084c5760405162461bcd60e51b815260206004820152601960248201527f41756374696f6e20686173206e6f7420656e646564207965740000000000000060448201526064016107c9565b6004600b82015460ff1660068111156108675761086761429e565b036108da5760405162461bcd60e51b815260206004820152603760248201527f43616e7420726573756d6520657363726f772070726f6365737365732077697460448201527f686f75742064697370757465207265736f6c7574696f6e00000000000000000060648201526084016107c9565b60028101546001600160a01b031633148015610907575060018460068111156109055761090561429e565b145b801561094d57506000600b82015460ff1660068111156109295761092961429e565b148061094d57506005600b82015460ff16600681111561094b5761094b61429e565b145b806109c6575060028101546001600160a01b0316331480156109805750600284600681111561097e5761097e61429e565b145b80156109c657506001600b82015460ff1660068111156109a2576109a261429e565b14806109c657506005600b82015460ff1660068111156109c4576109c461429e565b145b80610a3f575060058101546001600160a01b0316331480156109f9575060038460068111156109f7576109f761429e565b145b8015610a3f57506002600b82015460ff166006811115610a1b57610a1b61429e565b1480610a3f57506005600b82015460ff166006811115610a3d57610a3d61429e565b145b80610ab8575060058101546001600160a01b031633148015610a7257506003846006811115610a7057610a7061429e565b145b8015610ab857506002600b82015460ff166006811115610a9457610a9461429e565b1480610ab857506005600b82015460ff166006811115610ab657610ab661429e565b145b610b045760405162461bcd60e51b815260206004820152601860248201527f496e76616c6964207374617465207472616e736974696f6e000000000000000060448201526064016107c9565b6000816008018054610b15906145c7565b905011610b705760405162461bcd60e51b815260206004820152602360248201527f506c656173652073657420612064656c697665727920616464726573732066696044820152621c9cdd60ea1b60648201526084016107c9565b600b8101805485919060ff19166001836006811115610b9157610b9161429e565b02179055506003846006811115610baa57610baa61429e565b03610c3257600854600282015460048084015460405163a9059cbb60e01b81526001600160a01b0393841692810192909252602482015291169063a9059cbb906044016020604051808303816000875af1158015610c0c573d6000803e3d6000fd5b505050506040513d601f19601f82011682018060405250810190610c309190614628565b505b505050505050565b60608282610c53600183836040516106d99291906145b7565b610c6f5760405162461bcd60e51b81526004016107c9906145fb565b8484336001600160a01b031660018383604051610c8d9291906145b7565b908152604051908190036020019020600201546001600160a01b031614610d065760405162461bcd60e51b815260206004820152602760248201527f4f6e6c792061756374696f6e206f776e65722063616e2063616c6c2074686973604482015266081b595d1a1bd960ca1b60648201526084016107c9565b60018787604051610d189291906145b7565b90815260200160405180910390206008018054610d34906145c7565b80601f0160208091040260200160405190810160405280929190818152602001828054610d60906145c7565b8015610dad5780601f10610d8257610100808354040283529160200191610dad565b820191906000526020600020905b815481529060010190602001808311610d9057829003601f168201915b505050505094505050505092915050565b336000908152600360205260409020610dd88284836146a5565b505050565b8383610df4600183836040516106d99291906145b7565b610e105760405162461bcd60e51b81526004016107c9906145fb565b600060018787604051610e249291906145b7565b90815260405190819003602001902060058101549091506001600160a01b0316331480610e5d575060028101546001600160a01b031633145b8015610e6d5750600781015460ff165b610e895760405162461bcd60e51b81526004016107c99061475f565b6009810180546001810182556000918252602090912001610eab8587836146a5565b5050505050505050565b336000908152600260208181526040808420805493810154600182018054845181870281018701909552808552606096889694959094929360ff169290918491889084015b82821015610fa6578382906000526020600020018054610f19906145c7565b80601f0160208091040260200160405190810160405280929190818152602001828054610f45906145c7565b8015610f925780601f10610f6757610100808354040283529160200191610f92565b820191906000526020600020905b815481529060010190602001808311610f7557829003601f168201915b505050505081526020019060010190610efa565b50505050915093509350935050909192565b610fc0613b20565b610fca6000613b7a565b565b8181610fe3600183836040516106d99291906145b7565b610fff5760405162461bcd60e51b81526004016107c9906145fb565b6000600185856040516110139291906145b7565b90815260405190819003602001902060058101549091506001600160a01b031633148061104c575060028101546001600160a01b031633145b801561105c5750600781015460ff165b6110785760405162461bcd60e51b81526004016107c99061475f565b600b8101805460ff19166004179055600680546001810182556000919091527ff652222313e28459528d920b65115c16c04f3efc82aaedc97be59f3f377c0d3f01610c328587836146a5565b6008546040516323b872dd60e01b8152336004820152306024820152604481018390526001600160a01b03909116906323b872dd906064016020604051808303816000875af115801561111b573d6000803e3d6000fd5b505050506040513d601f19601f8201168201806040525081019061113f9190614628565b50336000908152600260208190526040909120015460ff161561118657336000908152600260205260408120805483929061117b9084906147e4565b909155506111ee9050565b60408051606081810183528382526020808301828152600184860181905233600090815260028452959095208451815590518051939591936111d093928501929190910190613bca565b50604091909101516002909101805460ff1916911515919091179055505b50565b6111f9613b20565b600880546001600160401b03909216600160a01b0267ffffffffffffffff60a01b19909216919091179055565b61122e613b20565b6008805460ff909216600160e01b0260ff60e01b19909216919091179055565b60608282611267600183836040516106d99291906145b7565b6112835760405162461bcd60e51b81526004016107c9906145fb565b6000600186866040516112979291906145b7565b9081526020016040518091039020604051806101c00160405290816000820180546112c1906145c7565b80601f01602080910402602001604051908101604052809291908181526020018280546112ed906145c7565b801561133a5780601f1061130f5761010080835404028352916020019161133a565b820191906000526020600020905b81548152906001019060200180831161131d57829003601f168201915b50505050508152602001600182018054611353906145c7565b80601f016020809104026020016040519081016040528092919081815260200182805461137f906145c7565b80156113cc5780601f106113a1576101008083540402835291602001916113cc565b820191906000526020600020905b8154815290600101906020018083116113af57829003601f168201915b505050918352505060028201546001600160a01b03908116602083015260038301546040830152600483015460608301526005830154166080820152600682015460a0820152600782015460ff16151560c082015260088201805460e090920191611436906145c7565b80601f0160208091040260200160405190810160405280929190818152602001828054611462906145c7565b80156114af5780601f10611484576101008083540402835291602001916114af565b820191906000526020600020905b81548152906001019060200180831161149257829003601f168201915b5050505050815260200160098201805480602002602001604051908101604052809291908181526020016000905b828210156115895783829060005260206000200180546114fc906145c7565b80601f0160208091040260200160405190810160405280929190818152602001828054611528906145c7565b80156115755780601f1061154a57610100808354040283529160200191611575565b820191906000526020600020905b81548152906001019060200180831161155857829003601f168201915b5050505050815260200190600101906114dd565b505050508152602001600a8201805480602002602001604051908101604052809291908181526020016000905b828210156116625783829060005260206000200180546115d5906145c7565b80601f0160208091040260200160405190810160405280929190818152602001828054611601906145c7565b801561164e5780601f106116235761010080835404028352916020019161164e565b820191906000526020600020905b81548152906001019060200180831161163157829003601f168201915b5050505050815260200190600101906115b6565b50505090825250600b82015460209091019060ff1660068111156116885761168861429e565b60068111156116995761169961429e565b8152600b919091015460ff610100820481166020840152620100009091041660409091015260a08101519091506001600160a01b03163314806116f1575080604001516001600160a01b0316336001600160a01b0316145b80156116fe57508060e001515b61171a5760405162461bcd60e51b81526004016107c99061475f565b610120015195945050505050565b611730613b20565b600755565b818161174c600183836040516106d99291906145b7565b6117685760405162461bcd60e51b81526004016107c9906145fb565b838360046001838360405161177e9291906145b7565b908152604051908190036020019020600b015460ff1660068111156117a5576117a561429e565b146117c25760405162461bcd60e51b81526004016107c9906147f7565b3360009081526004602052604090205460ff166117f15760405162461bcd60e51b81526004016107c99061483a565b6000600187876040516118059291906145b7565b908152604051908190036020019020600b81015490915060ff620100008204811661010090920416106118c857600854600282015460048084015460405163a9059cbb60e01b81526001600160a01b0393841692810192909252602482015291169063a9059cbb906044016020604051808303816000875af115801561188f573d6000803e3d6000fd5b505050506040513d601f19601f820116820180604052508101906118b39190614628565b50600b8101805460ff19166005179055610c30565b600854600582015460048084015460405163a9059cbb60e01b81526001600160a01b0393841692810192909252602482015291169063a9059cbb906044016020604051808303816000875af1158015611925573d6000803e3d6000fd5b505050506040513d601f19601f820116820180604052508101906119499190614628565b50600b01805460ff19166006179055505050505050565b8282611977600183836040516106d99291906145b7565b6119935760405162461bcd60e51b81526004016107c9906145fb565b3360009081526004602052604090205460ff166119c25760405162461bcd60e51b81526004016107c99061483a565b84846004600183836040516119d89291906145b7565b908152604051908190036020019020600b015460ff1660068111156119ff576119ff61429e565b14611a1c5760405162461bcd60e51b81526004016107c9906147f7565b600060018888604051611a309291906145b7565b908152602001604051809103902090508560ff16600103611a8357600b81018054610100900460ff16906001611a6583614884565b91906101000a81548160ff021916908360ff16021790555050610eab565b600b8101805462010000900460ff16906002611a9e83614884565b91906101000a81548160ff021916908360ff160217905550505050505050505050565b6060806000806000806000808989611ae4600183836040516106d99291906145b7565b611b005760405162461bcd60e51b81526004016107c9906145fb565b600060018d8d604051611b149291906145b7565b9081526040519081900360200190206002810154600382015460048301546005840154600685015460078601548654969750879660018801966001600160a01b0390811696959416929160ff16908890611b6d906145c7565b80601f0160208091040260200160405190810160405280929190818152602001828054611b99906145c7565b8015611be65780601f10611bbb57610100808354040283529160200191611be6565b820191906000526020600020905b815481529060010190602001808311611bc957829003601f168201915b50505050509750868054611bf9906145c7565b80601f0160208091040260200160405190810160405280929190818152602001828054611c25906145c7565b8015611c725780601f10611c4757610100808354040283529160200191611c72565b820191906000526020600020905b815481529060010190602001808311611c5557829003601f168201915b505050505096509a509a509a509a509a509a509a509a505050509295985092959890939650565b8282611cb0600183836040516106d99291906145b7565b611ccc5760405162461bcd60e51b81526004016107c9906145fb565b848460018282604051611ce09291906145b7565b90815260405190819003602001902060050154336001600160a01b03909116148015611d30575060018282604051611d199291906145b7565b9081526040519081900360200190206007015460ff165b611d995760405162461bcd60e51b815260206004820152603460248201527f596f7520686176656e277420776f6e207468652061756374696f6e206f7220696044820152737473207374696c6c20696e2070726f677265737360601b60648201526084016107c9565b600060018888604051611dad9291906145b7565b908152604051908190036020019020905060088101611dcc87826148a3565b505050505050505050565b3360009081526002602052604090206001015415611e565760405162461bcd60e51b815260206004820152603660248201527f596f752063616e27742072656465656d20746f6b656e73207768696c65206f6e60448201527519dbda5b99c8185d58dd1a5bdb9cc81c195c9cda5cdd60521b60648201526084016107c9565b600854336000908152600260205260409081902054905163095ea7b360e01b815230600482015260248101919091526001600160a01b039091169063095ea7b3906044016020604051808303816000875af1158015611eb9573d6000803e3d6000fd5b505050506040513d601f19601f82011682018060405250810190611edd9190614628565b5060085433600081815260026020526040908190205490516323b872dd60e01b8152306004820152602481019290925260448201526001600160a01b03909116906323b872dd906064016020604051808303816000875af1158015611f46573d6000803e3d6000fd5b505050506040513d601f19601f820116820180604052508101906111ee9190614628565b8282611f81600183836040516106d99291906145b7565b611f9d5760405162461bcd60e51b81526004016107c9906145fb565b3360009081526003602052604090208054611fb7906145c7565b9050602c14611fd85760405162461bcd60e51b81526004016107c99061495c565b600060018686604051611fec9291906145b7565b9081526040519081900360200190206002810154909150336001600160a01b0391909116036120675760405162461bcd60e51b815260206004820152602160248201527f4f776e65722063616e277420626964206f6e2074686569722061756374696f6e6044820152607360f81b60648201526084016107c9565b838160030154106120cc5760405162461bcd60e51b815260206004820152602960248201527f426964206d75737420626520686967686572207468616e20746865207265736560448201526872766520707269636560b81b60648201526084016107c9565b600781015460ff16156121155760405162461bcd60e51b8152602060048201526011602482015270105d58dd1a5bdb881a185cc8195b991959607a1b60448201526064016107c9565b8060060154421061215e5760405162461bcd60e51b8152602060048201526013602482015272105d58dd1a5bdb881a185cc8195e1c1a5c9959606a1b60448201526064016107c9565b806004015484116121c95760405162461bcd60e51b815260206004820152602f60248201527f426964206d75737420626520686967686572207468616e20746865206375727260448201526e195b9d081a1a59da195cdd08189a59608a1b60648201526084016107c9565b6008546040516323b872dd60e01b8152336004820152306024820152604481018690526001600160a01b03909116906323b872dd906064016020604051808303816000875af1158015612220573d6000803e3d6000fd5b505050506040513d601f19601f820116820180604052508101906122449190614628565b5060058101546001600160a01b0316156122db57600854600582015460048084015460405163a9059cbb60e01b81526001600160a01b0393841692810192909252602482015291169063a9059cbb906044016020604051808303816000875af11580156122b5573d6000803e3d6000fd5b505050506040513d601f19601f820116820180604052508101906122d99190614628565b505b600481018490556005810180546001600160a01b0319163317905560068101546101f49061230a9042906149b9565b11610c3257600681015461231e42826149b9565b61232a906101f46149b9565b61233491906147e4565b600187876040516123469291906145b7565b90815260405190819003602001902060060155505050505050565b60008160405160200161237491906149cc565b604051602081830303815290604052805190602001208360405160200161239b91906149cc565b604051602081830303815290604052805190602001201490505b92915050565b83836123d2600183836040516106d99291906145b7565b6123ee5760405162461bcd60e51b81526004016107c9906145fb565b6000600187876040516124029291906145b7565b908152604051908190036020019020600781015490915060ff16801561246357503360009081526004602052604090205460ff1680612463575060058101546001600160a01b0316331480612463575060028101546001600160a01b031633145b6124ca5760405162461bcd60e51b815260206004820152603260248201527f596f7520646f206e6f7420686176652070726976696c6567657320746f206368604482015271617420696e2074686973206469737075746560701b60648201526084016107c9565b600a810180546001810182556000918252602090912001610eab8587836146a5565b6005546060906000906001600160401b0381111561250c5761250c6140a1565b60405190808252806020026020018201604052801561254557816020015b612532613c20565b81526020019060019003908161252a5790505b50905060005b6005548110156129da5760016005828154811061256a5761256a6149e8565b9060005260206000200160405161258191906149fe565b9081526020016040518091039020604051806101c00160405290816000820180546125ab906145c7565b80601f01602080910402602001604051908101604052809291908181526020018280546125d7906145c7565b80156126245780601f106125f957610100808354040283529160200191612624565b820191906000526020600020905b81548152906001019060200180831161260757829003601f168201915b5050505050815260200160018201805461263d906145c7565b80601f0160208091040260200160405190810160405280929190818152602001828054612669906145c7565b80156126b65780601f1061268b576101008083540402835291602001916126b6565b820191906000526020600020905b81548152906001019060200180831161269957829003601f168201915b505050918352505060028201546001600160a01b03908116602083015260038301546040830152600483015460608301526005830154166080820152600682015460a0820152600782015460ff16151560c082015260088201805460e090920191612720906145c7565b80601f016020809104026020016040519081016040528092919081815260200182805461274c906145c7565b80156127995780601f1061276e57610100808354040283529160200191612799565b820191906000526020600020905b81548152906001019060200180831161277c57829003601f168201915b5050505050815260200160098201805480602002602001604051908101604052809291908181526020016000905b828210156128735783829060005260206000200180546127e6906145c7565b80601f0160208091040260200160405190810160405280929190818152602001828054612812906145c7565b801561285f5780601f106128345761010080835404028352916020019161285f565b820191906000526020600020905b81548152906001019060200180831161284257829003601f168201915b5050505050815260200190600101906127c7565b505050508152602001600a8201805480602002602001604051908101604052809291908181526020016000905b8282101561294c5783829060005260206000200180546128bf906145c7565b80601f01602080910402602001604051908101604052809291908181526020018280546128eb906145c7565b80156129385780601f1061290d57610100808354040283529160200191612938565b820191906000526020600020905b81548152906001019060200180831161291b57829003601f168201915b5050505050815260200190600101906128a0565b50505090825250600b82015460209091019060ff1660068111156129725761297261429e565b60068111156129835761298361429e565b8152600b919091015460ff610100820481166020840152620100009091041660409091015282518390839081106129bc576129bc6149e8565b602002602001018190525080806129d290614a74565b91505061254b565b50919050565b81816129f7600183836040516106d99291906145b7565b612a135760405162461bcd60e51b81526004016107c9906145fb565b600060018585604051612a279291906145b7565b908152604051908190036020019020600781015490915060ff1615612a8e5760405162461bcd60e51b815260206004820152601960248201527f41756374696f6e2068617320616c726561647920656e6465640000000000000060448201526064016107c9565b8060060154421015612ae25760405162461bcd60e51b815260206004820152601960248201527f41756374696f6e20686173206e6f742079657420656e6465640000000000000060448201526064016107c9565b60028101546001600160a01b0316331480612b09575060058101546001600160a01b031633145b612b735760405162461bcd60e51b815260206004820152603560248201527f4f6e6c79207468652073656c6c6572206f722068696768657374206269646465604482015274391031b0b71032b732103a34329030bab1ba34b7b760591b60648201526084016107c9565b60078101805460ff19166001908117909155336000908152600260205260408120909101905b8154811015612d0857612c6b87878080601f016020809104026020016040519081016040528093929190818152602001838380828437600092019190915250508654879250612be891506145c7565b80601f0160208091040260200160405190810160405280929190818152602001828054612c14906145c7565b8015612c615780601f10612c3657610100808354040283529160200191612c61565b820191906000526020600020905b815481529060010190602001808311612c4457829003601f168201915b5050505050612361565b15612cf65781548290612c80906001906149b9565b81548110612c9057612c906149e8565b90600052602060002001828281548110612cac57612cac6149e8565b906000526020600020019081612cc29190614a8d565b5081805480612cd357612cd3614b59565b600190038181906000526020600020016000612cef9190613cb4565b9055612d08565b80612d0081614a74565b915050612b99565b508160040154600003610c3257505050505050565b600754336000908152600260205260409020541015612d945760405162461bcd60e51b815260206004820152602d60248201527f4e6f7420656e6f75676820746f6b656e73207374616b656420746f206372656160448201526c3a329030b71030bab1ba34b7b760991b60648201526084016107c9565b60085433600090815260026020526040902060010154600160e01b90910460ff1611612e125760405162461bcd60e51b815260206004820152602760248201527f596f752063616e2774206861766520616e79206d6f7265206163746976652061604482015266756374696f6e7360c81b60648201526084016107c9565b3360009081526003602052604090208054612e2c906145c7565b9050602c14612e4d5760405162461bcd60e51b81526004016107c99061495c565b612eb384848080601f0160208091040260200160405190810160405280939291908181526020018383808284376000920191909152505060405160019250612e999150889088906145b7565b9081526040519081900360200190208054612be8906145c7565b15612ef65760405162461bcd60e51b81526020600482015260136024820152724974656d20616c72656164792065786973747360681b60448201526064016107c9565b60008111612f565760405162461bcd60e51b815260206004820152602760248201527f52657365727665207072696365206d7573742062652067726561746572207468604482015266616e207a65726f60c81b60648201526084016107c9565b600854600090612f7690600160a01b90046001600160401b0316426147e4565b90506060604051806101c0016040528087878080601f0160208091040260200160405190810160405280939291908181526020018383808284376000920182905250938552505050602080830188905233604080850191909152606084018890526080840183905260a0840183905260c0840187905260e0840183905280519182019052818152610100830152610120820184905261014082018490526101609091019081526000602082018190526040918201525160019061303c90899089906145b7565b9081526040519081900360200190208151819061305990826148a3565b506020820151600182019061306e90826148a3565b5060408201516002820180546001600160a01b039283166001600160a01b031991821617909155606084015160038401556080840151600484015560a084015160058401805491909316911617905560c0820151600682015560e082015160078201805491151560ff1990921691909117905561010082015160088201906130f690826148a3565b506101208201518051613113916009840191602090910190613bca565b50610140820151805161313091600a840191602090910190613bca565b50610160820151600b8201805460ff191660018360068111156131555761315561429e565b0217905550610180820151600b90910180546101a09093015160ff908116620100000262ff00001991909316610100021662ffff001990931692909217179055336000908152600260209081526040822060019081018054918201815583529120016131c28688836146a5565b50600580546001810182556000919091527f036b6384b5eca791c62761152d0c79bb0604c104a5fb6f4eb0703f3154bb3db0016132008688836146a5565b5085856040516132119291906145b7565b60405180910390207f580c79f80d4cb0e438a0d03f153c3dd27d464553dcc2fb869879bc42fd524c3b856040516132489190613e53565b60405180910390a2505050505050565b60036020526000908152604090208054613271906145c7565b80601f016020809104026020016040519081016040528092919081815260200182805461329d906145c7565b80156132ea5780601f106132bf576101008083540402835291602001916132ea565b820191906000526020600020905b8154815290600101906020018083116132cd57829003601f168201915b505050505081565b8051602081830181018051600182529282019190930120915280548190613318906145c7565b80601f0160208091040260200160405190810160405280929190818152602001828054613344906145c7565b80156133915780601f1061336657610100808354040283529160200191613391565b820191906000526020600020905b81548152906001019060200180831161337457829003601f168201915b5050505050908060010180546133a6906145c7565b80601f01602080910402602001604051908101604052809291908181526020018280546133d2906145c7565b801561341f5780601f106133f45761010080835404028352916020019161341f565b820191906000526020600020905b81548152906001019060200180831161340257829003601f168201915b5050505060028301546003840154600485015460058601546006870154600788015460088901805498996001600160a01b0397881699969850949690931694919360ff909116929091613471906145c7565b80601f016020809104026020016040519081016040528092919081815260200182805461349d906145c7565b80156134ea5780601f106134bf576101008083540402835291602001916134ea565b820191906000526020600020905b8154815290600101906020018083116134cd57829003601f168201915b505050600b909301549192505060ff80821691610100810482169162010000909104168c565b6006546060906000906001600160401b03811115613530576135306140a1565b60405190808252806020026020018201604052801561356957816020015b613556613c20565b81526020019060019003908161354e5790505b50905060005b6005548110156129da5760016006828154811061358e5761358e6149e8565b906000526020600020016040516135a591906149fe565b9081526020016040518091039020604051806101c00160405290816000820180546135cf906145c7565b80601f01602080910402602001604051908101604052809291908181526020018280546135fb906145c7565b80156136485780601f1061361d57610100808354040283529160200191613648565b820191906000526020600020905b81548152906001019060200180831161362b57829003601f168201915b50505050508152602001600182018054613661906145c7565b80601f016020809104026020016040519081016040528092919081815260200182805461368d906145c7565b80156136da5780601f106136af576101008083540402835291602001916136da565b820191906000526020600020905b8154815290600101906020018083116136bd57829003601f168201915b505050918352505060028201546001600160a01b03908116602083015260038301546040830152600483015460608301526005830154166080820152600682015460a0820152600782015460ff16151560c082015260088201805460e090920191613744906145c7565b80601f0160208091040260200160405190810160405280929190818152602001828054613770906145c7565b80156137bd5780601f10613792576101008083540402835291602001916137bd565b820191906000526020600020905b8154815290600101906020018083116137a057829003601f168201915b5050505050815260200160098201805480602002602001604051908101604052809291908181526020016000905b8282101561389757838290600052602060002001805461380a906145c7565b80601f0160208091040260200160405190810160405280929190818152602001828054613836906145c7565b80156138835780601f1061385857610100808354040283529160200191613883565b820191906000526020600020905b81548152906001019060200180831161386657829003601f168201915b5050505050815260200190600101906137eb565b505050508152602001600a8201805480602002602001604051908101604052809291908181526020016000905b828210156139705783829060005260206000200180546138e3906145c7565b80601f016020809104026020016040519081016040528092919081815260200182805461390f906145c7565b801561395c5780601f106139315761010080835404028352916020019161395c565b820191906000526020600020905b81548152906001019060200180831161393f57829003601f168201915b5050505050815260200190600101906138c4565b50505090825250600b82015460209091019060ff1660068111156139965761399661429e565b60068111156139a7576139a761429e565b8152600b919091015460ff610100820481166020840152620100009091041660409091015282518390839081106139e0576139e06149e8565b602002602001018190525080806139f690614a74565b91505061356f565b613a06613b20565b6001600160a01b038116613a6b5760405162461bcd60e51b815260206004820152602660248201527f4f776e61626c653a206e6577206f776e657220697320746865207a65726f206160448201526564647265737360d01b60648201526084016107c9565b6111ee81613b7a565b6001600160a01b0381166000908152600360205260409020805460609190613a9b906145c7565b80601f0160208091040260200160405190810160405280929190818152602001828054613ac7906145c7565b8015613b145780601f10613ae957610100808354040283529160200191613b14565b820191906000526020600020905b815481529060010190602001808311613af757829003601f168201915b50505050509050919050565b6000546001600160a01b03163314610fca5760405162461bcd60e51b815260206004820181905260248201527f4f776e61626c653a2063616c6c6572206973206e6f7420746865206f776e657260448201526064016107c9565b600080546001600160a01b038381166001600160a01b0319831681178455604051919092169283917f8be0079c531659141344cd1fd0a4f28419497f9722a3daafe3b4186f6b6457e09190a35050565b828054828255906000526020600020908101928215613c10579160200282015b82811115613c105782518290613c0090826148a3565b5091602001919060010190613bea565b50613c1c929150613cee565b5090565b604051806101c00160405280606081526020016060815260200160006001600160a01b03168152602001600081526020016000815260200160006001600160a01b031681526020016000815260200160001515815260200160608152602001606081526020016060815260200160006006811115613ca057613ca061429e565b815260006020820181905260409091015290565b508054613cc0906145c7565b6000825580601f10613cd0575050565b601f0160209004906000526020600020908101906111ee9190613d0b565b80821115613c1c576000613d028282613cb4565b50600101613cee565b5b80821115613c1c5760008155600101613d0c565b60008083601f840112613d3257600080fd5b5081356001600160401b03811115613d4957600080fd5b602083019150836020828501011115613d6157600080fd5b9250929050565b600080600060408486031215613d7d57600080fd5b83356001600160401b03811115613d9357600080fd5b613d9f86828701613d20565b909450925050602084013560078110613db757600080fd5b809150509250925092565b60008060208385031215613dd557600080fd5b82356001600160401b03811115613deb57600080fd5b613df785828601613d20565b90969095509350505050565b60005b83811015613e1e578181015183820152602001613e06565b50506000910152565b60008151808452613e3f816020860160208601613e03565b601f01601f19169290920160200192915050565b602081526000613e666020830184613e27565b9392505050565b60008060008060408587031215613e8357600080fd5b84356001600160401b0380821115613e9a57600080fd5b613ea688838901613d20565b90965094506020870135915080821115613ebf57600080fd5b50613ecc87828801613d20565b95989497509550505050565b600082825180855260208086019550808260051b84010181860160005b84811015613f2357601f19868403018952613f11838351613e27565b98840198925090830190600101613ef5565b5090979650505050505050565b838152606060208201526000613f496060830185613ed8565b90508215156040830152949350505050565b600060208284031215613f6d57600080fd5b5035919050565b600060208284031215613f8657600080fd5b81356001600160401b0381168114613e6657600080fd5b803560ff81168114613fae57600080fd5b919050565b600060208284031215613fc557600080fd5b613e6682613f9d565b602081526000613e666020830184613ed8565b600080600060408486031215613ff657600080fd5b83356001600160401b0381111561400c57600080fd5b61401886828701613d20565b909450925061402b905060208501613f9d565b90509250925092565b60006101008083526140488184018c613e27565b9050828103602084015261405c818b613e27565b6001600160a01b03998a1660408501526060840198909852505060808101949094529190941660a083015260c082019390935291151560e09092019190915292915050565b634e487b7160e01b600052604160045260246000fd5b600082601f8301126140c857600080fd5b81356001600160401b03808211156140e2576140e26140a1565b604051601f8301601f19908116603f0116810190828211818310171561410a5761410a6140a1565b8160405283815286602085880101111561412357600080fd5b836020870160208301376000602085830101528094505050505092915050565b60008060006040848603121561415857600080fd5b83356001600160401b038082111561416f57600080fd5b61417b87838801613d20565b9095509350602086013591508082111561419457600080fd5b506141a1868287016140b7565b9150509250925092565b6000806000604084860312156141c057600080fd5b83356001600160401b038111156141d657600080fd5b6141e286828701613d20565b909790965060209590950135949350505050565b6000806040838503121561420957600080fd5b82356001600160401b038082111561422057600080fd5b61422c868387016140b7565b9350602085013591508082111561424257600080fd5b5061424f858286016140b7565b9150509250929050565b6000815180845260208085019450848260051b860182860160005b85811015613f2357838303895261428c838351613e27565b98850198925090840190600101614274565b634e487b7160e01b600052602160045260246000fd5b600781106142d257634e487b7160e01b600052602160045260246000fd5b9052565b60006020808301818452808551808352604092508286019150828160051b87010184880160005b8381101561442e57603f1989840301855281516101c0815181865261432482870182613e27565b915050888201518582038a87015261433c8282613e27565b91505087820151614357898701826001600160a01b03169052565b50606082810151908601526080808301519086015260a0808301516001600160a01b03169086015260c0808301519086015260e08083015115159086015261010080830151868303828801526143ad8382613e27565b9250505061012080830151868303828801526143c98382614259565b9250505061014080830151868303828801526143e58382614259565b92505050610160808301516143fc828801826142b4565b50506101808281015160ff908116918701919091526101a09283015116919094015293860193908601906001016142fd565b509098975050505050505050565b6000806000806060858703121561445257600080fd5b84356001600160401b038082111561446957600080fd5b61447588838901613d20565b9096509450602087013591508082111561448e57600080fd5b5061449b878288016140b7565b949793965093946040013593505050565b6000602082840312156144be57600080fd5b81356001600160a01b0381168114613e6657600080fd5b6000602082840312156144e757600080fd5b81356001600160401b038111156144fd57600080fd5b614509848285016140b7565b949350505050565b6101808152600061452661018083018f613e27565b8281036020840152614538818f613e27565b6001600160a01b038e81166040860152606085018e9052608085018d90528b1660a085015260c084018a905288151560e085015283810361010085015290506145818188613e27565b9150506145926101208301866142b4565b60ff841661014083015260ff83166101608301529d9c50505050505050505050505050565b8183823760009101908152919050565b600181811c908216806145db57607f821691505b6020821081036129da57634e487b7160e01b600052602260045260246000fd5b602080825260139082015272125d195b48191bd95cc81b9bdd08195e1a5cdd606a1b604082015260600190565b60006020828403121561463a57600080fd5b81518015158114613e6657600080fd5b601f821115610dd857600081815260208120601f850160051c810160208610156146715750805b601f850160051c820191505b81811015610c325782815560010161467d565b600019600383901b1c191660019190911b1790565b6001600160401b038311156146bc576146bc6140a1565b6146d0836146ca83546145c7565b8361464a565b6000601f8411600181146146fe57600085156146ec5750838201355b6146f68682614690565b845550614758565b600083815260209020601f19861690835b8281101561472f578685013582556020948501946001909201910161470f565b508682101561474c5760001960f88860031b161c19848701351681555b505060018560011b0183555b5050505050565b60208082526049908201527f41756374696f6e20686173206e6f7420656e646564207965742c206f7220796f60408201527f7520617265206e6f74207468652077696e6e6572206f72206f776e6572206f6660608201526820746865206974656d60b81b608082015260a00190565b634e487b7160e01b600052601160045260246000fd5b808201808211156123b5576123b56147ce565b60208082526023908201527f546869732061756374696f6e20646f65736e277420686176652061206469737060408201526275746560e81b606082015260800190565b6020808252602a908201527f596f7520617265206e6f7420616e20617574686f72697a656420636f6d6d69746040820152693a32b29036b2b6b132b960b11b606082015260800190565b600060ff821660ff810361489a5761489a6147ce565b60010192915050565b81516001600160401b038111156148bc576148bc6140a1565b6148d0816148ca84546145c7565b8461464a565b602080601f8311600181146148ff57600084156148ed5750858301515b6148f78582614690565b865550610c32565b600085815260208120601f198616915b8281101561492e5788860151825594840194600190910190840161490f565b508582101561494c5787850151600019600388901b60f8161c191681555b5050505050600190811b01905550565b6020808252603c908201527f506c65617365207375626d697420796f7572206574682077616c6c657420707560408201527f626b6579206265666f7265207573696e67207468652073797374656d00000000606082015260800190565b818103818111156123b5576123b56147ce565b600082516149de818460208701613e03565b9190910192915050565b634e487b7160e01b600052603260045260246000fd5b6000808354614a0c816145c7565b60018281168015614a245760018114614a3957614a68565b60ff1984168752821515830287019450614a68565b8760005260208060002060005b85811015614a5f5781548a820152908401908201614a46565b50505082870194505b50929695505050505050565b600060018201614a8657614a866147ce565b5060010190565b818103614a98575050565b614aa282546145c7565b6001600160401b03811115614ab957614ab96140a1565b614ac7816148ca84546145c7565b6000601f821160018114614af55760008315614ae35750848201545b614aed8482614690565b855550614758565b600085815260209020601f19841690600086815260209020845b83811015614b2f5782860154825560019586019590910190602001614b0f565b508583101561494c5793015460001960f8600387901b161c19169092555050600190811b01905550565b634e487b7160e01b600052603160045260246000fdfea26469706673582212206b6e4ec1a427e2840ffc24da1a575882ddbef5d17b4919248d5bfd456edebd8a64736f6c63430008130033","opcodes":"PUSH1 0x80 PUSH1 0x40 MSTORE PUSH2 0x1F4 PUSH1 0x7 SSTORE PUSH1 0x8 DUP1 SLOAD PUSH1 0x1 PUSH1 0xA0 SHL PUSH1 0x1 PUSH1 0xE8 SHL SUB NOT AND PUSH29 0x200000000000151800000000000000000000000000000000000000000 OR SWAP1 SSTORE CALLVALUE DUP1 ISZERO PUSH3 0x49 JUMPI PUSH1 0x0 DUP1 REVERT JUMPDEST POP PUSH1 0x40 MLOAD PUSH3 0x4D76 CODESIZE SUB DUP1 PUSH3 0x4D76 DUP4 CODECOPY DUP2 ADD PUSH1 0x40 DUP2 SWAP1 MSTORE PUSH3 0x6C SWAP2 PUSH3 0x18F JUMP JUMPDEST PUSH3 0x77 CALLER PUSH3 0x13F JUMP JUMPDEST PUSH1 0x8 DUP1 SLOAD PUSH1 0x1 PUSH1 0x1 PUSH1 0xA0 SHL SUB NOT AND PUSH1 0x1 PUSH1 0x1 PUSH1 0xA0 SHL SUB SWAP3 SWAP1 SWAP3 AND SWAP2 SWAP1 SWAP2 OR SWAP1 SSTORE PUSH1 0x4 PUSH1 0x20 MSTORE PUSH32 0xAE4C90E9FD351CE202216AFA0D4DF96849F86D83D3477D77C2A6F6A37E0D6987 DUP1 SLOAD PUSH1 0xFF NOT SWAP1 DUP2 AND PUSH1 0x1 SWAP1 DUP2 OR SWAP1 SWAP3 SSTORE PUSH32 0xB30FBB72271E8CCA1E43377AEF853C29714E0693327E34891849A09AE7576EDA DUP1 SLOAD DUP3 AND DUP4 OR SWAP1 SSTORE PUSH20 0x9965507D1A55BCC2695C58BA16FB37D819B0A4DC PUSH1 0x0 MSTORE PUSH32 0x7F9AF5AF1D24633F5986258FB25FED895F753652FE53B8038BD0660A24092A60 DUP1 SLOAD SWAP1 SWAP2 AND SWAP1 SWAP2 OR SWAP1 SSTORE PUSH3 0x1C1 JUMP JUMPDEST PUSH1 0x0 DUP1 SLOAD PUSH1 0x1 PUSH1 0x1 PUSH1 0xA0 SHL SUB DUP4 DUP2 AND PUSH1 0x1 PUSH1 0x1 PUSH1 0xA0 SHL SUB NOT DUP4 AND DUP2 OR DUP5 SSTORE PUSH1 0x40 MLOAD SWAP2 SWAP1 SWAP3 AND SWAP3 DUP4 SWAP2 PUSH32 0x8BE0079C531659141344CD1FD0A4F28419497F9722A3DAAFE3B4186F6B6457E0 SWAP2 SWAP1 LOG3 POP POP JUMP JUMPDEST PUSH1 0x0 PUSH1 0x20 DUP3 DUP5 SUB SLT ISZERO PUSH3 0x1A2 JUMPI PUSH1 0x0 DUP1 REVERT JUMPDEST DUP2 MLOAD PUSH1 0x1 PUSH1 0x1 PUSH1 0xA0 SHL SUB DUP2 AND DUP2 EQ PUSH3 0x1BA JUMPI PUSH1 0x0 DUP1 REVERT JUMPDEST SWAP4 SWAP3 POP POP POP JUMP JUMPDEST PUSH2 0x4BA5 DUP1 PUSH3 0x1D1 PUSH1 0x0 CODECOPY PUSH1 0x0 RETURN INVALID PUSH1 0x80 PUSH1 0x40 MSTORE PUSH1 0x4 CALLDATASIZE LT PUSH2 0x204 JUMPI PUSH1 0x0 CALLDATALOAD PUSH1 0xE0 SHR DUP1 PUSH4 0x9211735B GT PUSH2 0x118 JUMPI DUP1 PUSH4 0xD02F25F7 GT PUSH2 0xA0 JUMPI DUP1 PUSH4 0xE636D84B GT PUSH2 0x6F JUMPI DUP1 PUSH4 0xE636D84B EQ PUSH2 0x5F1 JUMPI DUP1 PUSH4 0xEE54507B EQ PUSH2 0x621 JUMPI DUP1 PUSH4 0xF2FDE38B EQ PUSH2 0x636 JUMPI DUP1 PUSH4 0xFB346EA0 EQ PUSH2 0x656 JUMPI DUP1 PUSH4 0xFCE9512A EQ PUSH2 0x6A2 JUMPI PUSH1 0x0 DUP1 REVERT JUMPDEST DUP1 PUSH4 0xD02F25F7 EQ PUSH2 0x564 JUMPI DUP1 PUSH4 0xD1B8B4BF EQ PUSH2 0x584 JUMPI DUP1 PUSH4 0xD31F371E EQ PUSH2 0x5A4 JUMPI DUP1 PUSH4 0xD8BCD0C9 EQ PUSH2 0x5DC JUMPI PUSH1 0x0 DUP1 REVERT JUMPDEST DUP1 PUSH4 0xA7EAA241 GT PUSH2 0xE7 JUMPI DUP1 PUSH4 0xA7EAA241 EQ PUSH2 0x4CC JUMPI DUP1 PUSH4 0xBED34BBA EQ PUSH2 0x4DF JUMPI DUP1 PUSH4 0xC1D733DB EQ PUSH2 0x50F JUMPI DUP1 PUSH4 0xCBD2BDFD EQ PUSH2 0x52F JUMPI DUP1 PUSH4 0xCE2BA9BF EQ PUSH2 0x551 JUMPI PUSH1 0x0 DUP1 REVERT JUMPDEST DUP1 PUSH4 0x9211735B EQ PUSH2 0x443 JUMPI DUP1 PUSH4 0x955AB337 EQ PUSH2 0x463 JUMPI DUP1 PUSH4 0x9F19360D EQ PUSH2 0x497 JUMPI DUP1 PUSH4 0xA4BDC06E EQ PUSH2 0x4B7 JUMPI PUSH1 0x0 DUP1 REVERT JUMPDEST DUP1 PUSH4 0x7547C7A3 GT PUSH2 0x19B JUMPI DUP1 PUSH4 0x83C27150 GT PUSH2 0x16A JUMPI DUP1 PUSH4 0x83C27150 EQ PUSH2 0x39C JUMPI DUP1 PUSH4 0x88624AB3 EQ PUSH2 0x3C9 JUMPI DUP1 PUSH4 0x8AAF2761 EQ PUSH2 0x3E8 JUMPI DUP1 PUSH4 0x8DA5CB5B EQ PUSH2 0x408 JUMPI DUP1 PUSH4 0x8F2238BA EQ PUSH2 0x430 JUMPI PUSH1 0x0 DUP1 REVERT JUMPDEST DUP1 PUSH4 0x7547C7A3 EQ PUSH2 0x317 JUMPI DUP1 PUSH4 0x78CB51AF EQ PUSH2 0x337 JUMPI DUP1 PUSH4 0x7C812B39 EQ PUSH2 0x35C JUMPI DUP1 PUSH4 0x7F38D865 EQ PUSH2 0x37C JUMPI PUSH1 0x0 DUP1 REVERT JUMPDEST DUP1 PUSH4 0x4F04E79C GT PUSH2 0x1D7 JUMPI DUP1 PUSH4 0x4F04E79C EQ PUSH2 0x2A1 JUMPI DUP1 PUSH4 0x6C9230DB EQ PUSH2 0x2C5 JUMPI DUP1 PUSH4 0x715018A6 EQ PUSH2 0x2E2 JUMPI DUP1 PUSH4 0x725A3B4B EQ PUSH2 0x2F7 JUMPI PUSH1 0x0 DUP1 REVERT JUMPDEST DUP1 PUSH4 0x16544AA EQ PUSH2 0x209 JUMPI DUP1 PUSH4 0x5F3B3F7 EQ PUSH2 0x22B JUMPI DUP1 PUSH4 0x7412E9C EQ PUSH2 0x261 JUMPI DUP1 PUSH4 0x3098662E EQ PUSH2 0x281 JUMPI JUMPDEST PUSH1 0x0 DUP1 REVERT JUMPDEST CALLVALUE DUP1 ISZERO PUSH2 0x215 JUMPI PUSH1 0x0 DUP1 REVERT JUMPDEST POP PUSH2 0x229 PUSH2 0x224 CALLDATASIZE PUSH1 0x4 PUSH2 0x3D68 JUMP JUMPDEST PUSH2 0x6C2 JUMP JUMPDEST STOP JUMPDEST CALLVALUE DUP1 ISZERO PUSH2 0x237 JUMPI PUSH1 0x0 DUP1 REVERT JUMPDEST POP PUSH2 0x24B PUSH2 0x246 CALLDATASIZE PUSH1 0x4 PUSH2 0x3DC2 JUMP JUMPDEST PUSH2 0xC3A JUMP JUMPDEST PUSH1 0x40 MLOAD PUSH2 0x258 SWAP2 SWAP1 PUSH2 0x3E53 JUMP JUMPDEST PUSH1 0x40 MLOAD DUP1 SWAP2 SUB SWAP1 RETURN JUMPDEST CALLVALUE DUP1 ISZERO PUSH2 0x26D JUMPI PUSH1 0x0 DUP1 REVERT JUMPDEST POP PUSH2 0x229 PUSH2 0x27C CALLDATASIZE PUSH1 0x4 PUSH2 0x3DC2 JUMP JUMPDEST PUSH2 0xDBE JUMP JUMPDEST CALLVALUE DUP1 ISZERO PUSH2 0x28D JUMPI PUSH1 0x0 DUP1 REVERT JUMPDEST POP PUSH2 0x229 PUSH2 0x29C CALLDATASIZE PUSH1 0x4 PUSH2 0x3E6D JUMP JUMPDEST PUSH2 0xDDD JUMP JUMPDEST CALLVALUE DUP1 ISZERO PUSH2 0x2AD JUMPI PUSH1 0x0 DUP1 REVERT JUMPDEST POP PUSH2 0x2B6 PUSH2 0xEB5 JUMP JUMPDEST PUSH1 0x40 MLOAD PUSH2 0x258 SWAP4 SWAP3 SWAP2 SWAP1 PUSH2 0x3F30 JUMP JUMPDEST CALLVALUE DUP1 ISZERO PUSH2 0x2D1 JUMPI PUSH1 0x0 DUP1 REVERT JUMPDEST POP TIMESTAMP JUMPDEST PUSH1 0x40 MLOAD SWAP1 DUP2 MSTORE PUSH1 0x20 ADD PUSH2 0x258 JUMP JUMPDEST CALLVALUE DUP1 ISZERO PUSH2 0x2EE JUMPI PUSH1 0x0 DUP1 REVERT JUMPDEST POP PUSH2 0x229 PUSH2 0xFB8 JUMP JUMPDEST CALLVALUE DUP1 ISZERO PUSH2 0x303 JUMPI PUSH1 0x0 DUP1 REVERT JUMPDEST POP PUSH2 0x229 PUSH2 0x312 CALLDATASIZE PUSH1 0x4 PUSH2 0x3DC2 JUMP JUMPDEST PUSH2 0xFCC JUMP JUMPDEST CALLVALUE DUP1 ISZERO PUSH2 0x323 JUMPI PUSH1 0x0 DUP1 REVERT JUMPDEST POP PUSH2 0x229 PUSH2 0x332 CALLDATASIZE PUSH1 0x4 PUSH2 0x3F5B JUMP JUMPDEST PUSH2 0x10C4 JUMP JUMPDEST CALLVALUE DUP1 ISZERO PUSH2 0x343 JUMPI PUSH1 0x0 DUP1 REVERT JUMPDEST POP PUSH1 0x8 SLOAD PUSH1 0x1 PUSH1 0xA0 SHL SWAP1 DIV PUSH1 0x1 PUSH1 0x1 PUSH1 0x40 SHL SUB AND PUSH2 0x2D4 JUMP JUMPDEST CALLVALUE DUP1 ISZERO PUSH2 0x368 JUMPI PUSH1 0x0 DUP1 REVERT JUMPDEST POP PUSH2 0x229 PUSH2 0x377 CALLDATASIZE PUSH1 0x4 PUSH2 0x3F74 JUMP JUMPDEST PUSH2 0x11F1 JUMP JUMPDEST CALLVALUE DUP1 ISZERO PUSH2 0x388 JUMPI PUSH1 0x0 DUP1 REVERT JUMPDEST POP PUSH2 0x229 PUSH2 0x397 CALLDATASIZE PUSH1 0x4 PUSH2 0x3FB3 JUMP JUMPDEST PUSH2 0x1226 JUMP JUMPDEST CALLVALUE DUP1 ISZERO PUSH2 0x3A8 JUMPI PUSH1 0x0 DUP1 REVERT JUMPDEST POP PUSH2 0x3BC PUSH2 0x3B7 CALLDATASIZE PUSH1 0x4 PUSH2 0x3DC2 JUMP JUMPDEST PUSH2 0x124E JUMP JUMPDEST PUSH1 0x40 MLOAD PUSH2 0x258 SWAP2 SWAP1 PUSH2 0x3FCE JUMP JUMPDEST CALLVALUE DUP1 ISZERO PUSH2 0x3D5 JUMPI PUSH1 0x0 DUP1 REVERT JUMPDEST POP PUSH1 0x8 SLOAD PUSH1 0x1 PUSH1 0xE0 SHL SWAP1 DIV PUSH1 0xFF AND PUSH2 0x2D4 JUMP JUMPDEST CALLVALUE DUP1 ISZERO PUSH2 0x3F4 JUMPI PUSH1 0x0 DUP1 REVERT JUMPDEST POP PUSH2 0x229 PUSH2 0x403 CALLDATASIZE PUSH1 0x4 PUSH2 0x3F5B JUMP JUMPDEST PUSH2 0x1728 JUMP JUMPDEST CALLVALUE DUP1 ISZERO PUSH2 0x414 JUMPI PUSH1 0x0 DUP1 REVERT JUMPDEST POP PUSH1 0x0 SLOAD PUSH1 0x40 MLOAD PUSH1 0x1 PUSH1 0x1 PUSH1 0xA0 SHL SUB SWAP1 SWAP2 AND DUP2 MSTORE PUSH1 0x20 ADD PUSH2 0x258 JUMP JUMPDEST PUSH2 0x229 PUSH2 0x43E CALLDATASIZE PUSH1 0x4 PUSH2 0x3DC2 JUMP JUMPDEST PUSH2 0x1735 JUMP JUMPDEST CALLVALUE DUP1 ISZERO PUSH2 0x44F JUMPI PUSH1 0x0 DUP1 REVERT JUMPDEST POP PUSH2 0x229 PUSH2 0x45E CALLDATASIZE PUSH1 0x4 PUSH2 0x3FE1 JUMP JUMPDEST PUSH2 0x1960 JUMP JUMPDEST CALLVALUE DUP1 ISZERO PUSH2 0x46F JUMPI PUSH1 0x0 DUP1 REVERT JUMPDEST POP PUSH2 0x483 PUSH2 0x47E CALLDATASIZE PUSH1 0x4 PUSH2 0x3DC2 JUMP JUMPDEST PUSH2 0x1AC1 JUMP JUMPDEST PUSH1 0x40 MLOAD PUSH2 0x258 SWAP9 SWAP8 SWAP7 SWAP6 SWAP5 SWAP4 SWAP3 SWAP2 SWAP1 PUSH2 0x4034 JUMP JUMPDEST CALLVALUE DUP1 ISZERO PUSH2 0x4A3 JUMPI PUSH1 0x0 DUP1 REVERT JUMPDEST POP PUSH2 0x229 PUSH2 0x4B2 CALLDATASIZE PUSH1 0x4 PUSH2 0x4143 JUMP JUMPDEST PUSH2 0x1C99 JUMP JUMPDEST CALLVALUE DUP1 ISZERO PUSH2 0x4C3 JUMPI PUSH1 0x0 DUP1 REVERT JUMPDEST POP PUSH2 0x229 PUSH2 0x1DD7 JUMP JUMPDEST PUSH2 0x229 PUSH2 0x4DA CALLDATASIZE PUSH1 0x4 PUSH2 0x41AB JUMP JUMPDEST PUSH2 0x1F6A JUMP JUMPDEST CALLVALUE DUP1 ISZERO PUSH2 0x4EB JUMPI PUSH1 0x0 DUP1 REVERT JUMPDEST POP PUSH2 0x4FF PUSH2 0x4FA CALLDATASIZE PUSH1 0x4 PUSH2 0x41F6 JUMP JUMPDEST PUSH2 0x2361 JUMP JUMPDEST PUSH1 0x40 MLOAD SWAP1 ISZERO ISZERO DUP2 MSTORE PUSH1 0x20 ADD PUSH2 0x258 JUMP JUMPDEST CALLVALUE DUP1 ISZERO PUSH2 0x51B JUMPI PUSH1 0x0 DUP1 REVERT JUMPDEST POP PUSH2 0x229 PUSH2 0x52A CALLDATASIZE PUSH1 0x4 PUSH2 0x3E6D JUMP JUMPDEST PUSH2 0x23BB JUMP JUMPDEST CALLVALUE DUP1 ISZERO PUSH2 0x53B JUMPI PUSH1 0x0 DUP1 REVERT JUMPDEST POP PUSH2 0x544 PUSH2 0x24EC JUMP JUMPDEST PUSH1 0x40 MLOAD PUSH2 0x258 SWAP2 SWAP1 PUSH2 0x42D6 JUMP JUMPDEST PUSH2 0x229 PUSH2 0x55F CALLDATASIZE PUSH1 0x4 PUSH2 0x3DC2 JUMP JUMPDEST PUSH2 0x29E0 JUMP JUMPDEST CALLVALUE DUP1 ISZERO PUSH2 0x570 JUMPI PUSH1 0x0 DUP1 REVERT JUMPDEST POP PUSH2 0x229 PUSH2 0x57F CALLDATASIZE PUSH1 0x4 PUSH2 0x443C JUMP JUMPDEST PUSH2 0x2D1D JUMP JUMPDEST CALLVALUE DUP1 ISZERO PUSH2 0x590 JUMPI PUSH1 0x0 DUP1 REVERT JUMPDEST POP PUSH2 0x24B PUSH2 0x59F CALLDATASIZE PUSH1 0x4 PUSH2 0x44AC JUMP JUMPDEST PUSH2 0x3258 JUMP JUMPDEST CALLVALUE DUP1 ISZERO PUSH2 0x5B0 JUMPI PUSH1 0x0 DUP1 REVERT JUMPDEST POP PUSH2 0x5C4 PUSH2 0x5BF CALLDATASIZE PUSH1 0x4 PUSH2 0x44D5 JUMP JUMPDEST PUSH2 0x32F2 JUMP JUMPDEST PUSH1 0x40 MLOAD PUSH2 0x258 SWAP13 SWAP12 SWAP11 SWAP10 SWAP9 SWAP8 SWAP7 SWAP6 SWAP5 SWAP4 SWAP3 SWAP2 SWAP1 PUSH2 0x4511 JUMP JUMPDEST CALLVALUE DUP1 ISZERO PUSH2 0x5E8 JUMPI PUSH1 0x0 DUP1 REVERT JUMPDEST POP PUSH1 0x7 SLOAD PUSH2 0x2D4 JUMP JUMPDEST CALLVALUE DUP1 ISZERO PUSH2 0x5FD JUMPI PUSH1 0x0 DUP1 REVERT JUMPDEST POP PUSH2 0x4FF PUSH2 0x60C CALLDATASIZE PUSH1 0x4 PUSH2 0x44AC JUMP JUMPDEST PUSH1 0x4 PUSH1 0x20 MSTORE PUSH1 0x0 SWAP1 DUP2 MSTORE PUSH1 0x40 SWAP1 KECCAK256 SLOAD PUSH1 0xFF AND DUP2 JUMP JUMPDEST CALLVALUE DUP1 ISZERO PUSH2 0x62D JUMPI PUSH1 0x0 DUP1 REVERT JUMPDEST POP PUSH2 0x544 PUSH2 0x3510 JUMP JUMPDEST CALLVALUE DUP1 ISZERO PUSH2 0x642 JUMPI PUSH1 0x0 DUP1 REVERT JUMPDEST POP PUSH2 0x229 PUSH2 0x651 CALLDATASIZE PUSH1 0x4 PUSH2 0x44AC JUMP JUMPDEST PUSH2 0x39FE JUMP JUMPDEST CALLVALUE DUP1 ISZERO PUSH2 0x662 JUMPI PUSH1 0x0 DUP1 REVERT JUMPDEST POP PUSH2 0x68D PUSH2 0x671 CALLDATASIZE PUSH1 0x4 PUSH2 0x44AC JUMP JUMPDEST PUSH1 0x2 PUSH1 0x20 DUP2 SWAP1 MSTORE PUSH1 0x0 SWAP2 DUP3 MSTORE PUSH1 0x40 SWAP1 SWAP2 KECCAK256 DUP1 SLOAD SWAP2 ADD SLOAD PUSH1 0xFF AND DUP3 JUMP JUMPDEST PUSH1 0x40 DUP1 MLOAD SWAP3 DUP4 MSTORE SWAP1 ISZERO ISZERO PUSH1 0x20 DUP4 ADD MSTORE ADD PUSH2 0x258 JUMP JUMPDEST CALLVALUE DUP1 ISZERO PUSH2 0x6AE JUMPI PUSH1 0x0 DUP1 REVERT JUMPDEST POP PUSH2 0x24B PUSH2 0x6BD CALLDATASIZE PUSH1 0x4 PUSH2 0x44AC JUMP JUMPDEST PUSH2 0x3A74 JUMP JUMPDEST DUP3 DUP3 PUSH2 0x7AD PUSH1 0x1 DUP4 DUP4 PUSH1 0x40 MLOAD PUSH2 0x6D9 SWAP3 SWAP2 SWAP1 PUSH2 0x45B7 JUMP JUMPDEST SWAP1 DUP2 MSTORE PUSH1 0x40 MLOAD SWAP1 DUP2 SWAP1 SUB PUSH1 0x20 ADD SWAP1 KECCAK256 DUP1 SLOAD PUSH2 0x6F3 SWAP1 PUSH2 0x45C7 JUMP JUMPDEST DUP1 PUSH1 0x1F ADD PUSH1 0x20 DUP1 SWAP2 DIV MUL PUSH1 0x20 ADD PUSH1 0x40 MLOAD SWAP1 DUP2 ADD PUSH1 0x40 MSTORE DUP1 SWAP3 SWAP2 SWAP1 DUP2 DUP2 MSTORE PUSH1 0x20 ADD DUP3 DUP1 SLOAD PUSH2 0x71F SWAP1 PUSH2 0x45C7 JUMP JUMPDEST DUP1 ISZERO PUSH2 0x76C JUMPI DUP1 PUSH1 0x1F LT PUSH2 0x741 JUMPI PUSH2 0x100 DUP1 DUP4 SLOAD DIV MUL DUP4 MSTORE SWAP2 PUSH1 0x20 ADD SWAP2 PUSH2 0x76C JUMP JUMPDEST DUP3 ADD SWAP2 SWAP1 PUSH1 0x0 MSTORE PUSH1 0x20 PUSH1 0x0 KECCAK256 SWAP1 JUMPDEST DUP2 SLOAD DUP2 MSTORE SWAP1 PUSH1 0x1 ADD SWAP1 PUSH1 0x20 ADD DUP1 DUP4 GT PUSH2 0x74F JUMPI DUP3 SWAP1 SUB PUSH1 0x1F AND DUP3 ADD SWAP2 JUMPDEST POP POP POP POP POP DUP4 DUP4 DUP1 DUP1 PUSH1 0x1F ADD PUSH1 0x20 DUP1 SWAP2 DIV MUL PUSH1 0x20 ADD PUSH1 0x40 MLOAD SWAP1 DUP2 ADD PUSH1 0x40 MSTORE DUP1 SWAP4 SWAP3 SWAP2 SWAP1 DUP2 DUP2 MSTORE PUSH1 0x20 ADD DUP4 DUP4 DUP1 DUP3 DUP5 CALLDATACOPY PUSH1 0x0 SWAP3 ADD SWAP2 SWAP1 SWAP2 MSTORE POP PUSH2 0x2361 SWAP3 POP POP POP JUMP JUMPDEST PUSH2 0x7D2 JUMPI PUSH1 0x40 MLOAD PUSH3 0x461BCD PUSH1 0xE5 SHL DUP2 MSTORE PUSH1 0x4 ADD PUSH2 0x7C9 SWAP1 PUSH2 0x45FB JUMP JUMPDEST PUSH1 0x40 MLOAD DUP1 SWAP2 SUB SWAP1 REVERT JUMPDEST PUSH1 0x0 PUSH1 0x1 DUP7 DUP7 PUSH1 0x40 MLOAD PUSH2 0x7E6 SWAP3 SWAP2 SWAP1 PUSH2 0x45B7 JUMP JUMPDEST SWAP1 DUP2 MSTORE PUSH1 0x40 MLOAD SWAP1 DUP2 SWAP1 SUB PUSH1 0x20 ADD SWAP1 KECCAK256 PUSH1 0x7 DUP2 ADD SLOAD SWAP1 SWAP2 POP PUSH1 0xFF AND PUSH2 0x84C JUMPI PUSH1 0x40 MLOAD PUSH3 0x461BCD PUSH1 0xE5 SHL DUP2 MSTORE PUSH1 0x20 PUSH1 0x4 DUP3 ADD MSTORE PUSH1 0x19 PUSH1 0x24 DUP3 ADD MSTORE PUSH32 0x41756374696F6E20686173206E6F7420656E6465642079657400000000000000 PUSH1 0x44 DUP3 ADD MSTORE PUSH1 0x64 ADD PUSH2 0x7C9 JUMP JUMPDEST PUSH1 0x4 PUSH1 0xB DUP3 ADD SLOAD PUSH1 0xFF AND PUSH1 0x6 DUP2 GT ISZERO PUSH2 0x867 JUMPI PUSH2 0x867 PUSH2 0x429E JUMP JUMPDEST SUB PUSH2 0x8DA JUMPI PUSH1 0x40 MLOAD PUSH3 0x461BCD PUSH1 0xE5 SHL DUP2 MSTORE PUSH1 0x20 PUSH1 0x4 DUP3 ADD MSTORE PUSH1 0x37 PUSH1 0x24 DUP3 ADD MSTORE PUSH32 0x43616E7420726573756D6520657363726F772070726F63657373657320776974 PUSH1 0x44 DUP3 ADD MSTORE PUSH32 0x686F75742064697370757465207265736F6C7574696F6E000000000000000000 PUSH1 0x64 DUP3 ADD MSTORE PUSH1 0x84 ADD PUSH2 0x7C9 JUMP JUMPDEST PUSH1 0x2 DUP2 ADD SLOAD PUSH1 0x1 PUSH1 0x1 PUSH1 0xA0 SHL SUB AND CALLER EQ DUP1 ISZERO PUSH2 0x907 JUMPI POP PUSH1 0x1 DUP5 PUSH1 0x6 DUP2 GT ISZERO PUSH2 0x905 JUMPI PUSH2 0x905 PUSH2 0x429E JUMP JUMPDEST EQ JUMPDEST DUP1 ISZERO PUSH2 0x94D JUMPI POP PUSH1 0x0 PUSH1 0xB DUP3 ADD SLOAD PUSH1 0xFF AND PUSH1 0x6 DUP2 GT ISZERO PUSH2 0x929 JUMPI PUSH2 0x929 PUSH2 0x429E JUMP JUMPDEST EQ DUP1 PUSH2 0x94D JUMPI POP PUSH1 0x5 PUSH1 0xB DUP3 ADD SLOAD PUSH1 0xFF AND PUSH1 0x6 DUP2 GT ISZERO PUSH2 0x94B JUMPI PUSH2 0x94B PUSH2 0x429E JUMP JUMPDEST EQ JUMPDEST DUP1 PUSH2 0x9C6 JUMPI POP PUSH1 0x2 DUP2 ADD SLOAD PUSH1 0x1 PUSH1 0x1 PUSH1 0xA0 SHL SUB AND CALLER EQ DUP1 ISZERO PUSH2 0x980 JUMPI POP PUSH1 0x2 DUP5 PUSH1 0x6 DUP2 GT ISZERO PUSH2 0x97E JUMPI PUSH2 0x97E PUSH2 0x429E JUMP JUMPDEST EQ JUMPDEST DUP1 ISZERO PUSH2 0x9C6 JUMPI POP PUSH1 0x1 PUSH1 0xB DUP3 ADD SLOAD PUSH1 0xFF AND PUSH1 0x6 DUP2 GT ISZERO PUSH2 0x9A2 JUMPI PUSH2 0x9A2 PUSH2 0x429E JUMP JUMPDEST EQ DUP1 PUSH2 0x9C6 JUMPI POP PUSH1 0x5 PUSH1 0xB DUP3 ADD SLOAD PUSH1 0xFF AND PUSH1 0x6 DUP2 GT ISZERO PUSH2 0x9C4 JUMPI PUSH2 0x9C4 PUSH2 0x429E JUMP JUMPDEST EQ JUMPDEST DUP1 PUSH2 0xA3F JUMPI POP PUSH1 0x5 DUP2 ADD SLOAD PUSH1 0x1 PUSH1 0x1 PUSH1 0xA0 SHL SUB AND CALLER EQ DUP1 ISZERO PUSH2 0x9F9 JUMPI POP PUSH1 0x3 DUP5 PUSH1 0x6 DUP2 GT ISZERO PUSH2 0x9F7 JUMPI PUSH2 0x9F7 PUSH2 0x429E JUMP JUMPDEST EQ JUMPDEST DUP1 ISZERO PUSH2 0xA3F JUMPI POP PUSH1 0x2 PUSH1 0xB DUP3 ADD SLOAD PUSH1 0xFF AND PUSH1 0x6 DUP2 GT ISZERO PUSH2 0xA1B JUMPI PUSH2 0xA1B PUSH2 0x429E JUMP JUMPDEST EQ DUP1 PUSH2 0xA3F JUMPI POP PUSH1 0x5 PUSH1 0xB DUP3 ADD SLOAD PUSH1 0xFF AND PUSH1 0x6 DUP2 GT ISZERO PUSH2 0xA3D JUMPI PUSH2 0xA3D PUSH2 0x429E JUMP JUMPDEST EQ JUMPDEST DUP1 PUSH2 0xAB8 JUMPI POP PUSH1 0x5 DUP2 ADD SLOAD PUSH1 0x1 PUSH1 0x1 PUSH1 0xA0 SHL SUB AND CALLER EQ DUP1 ISZERO PUSH2 0xA72 JUMPI POP PUSH1 0x3 DUP5 PUSH1 0x6 DUP2 GT ISZERO PUSH2 0xA70 JUMPI PUSH2 0xA70 PUSH2 0x429E JUMP JUMPDEST EQ JUMPDEST DUP1 ISZERO PUSH2 0xAB8 JUMPI POP PUSH1 0x2 PUSH1 0xB DUP3 ADD SLOAD PUSH1 0xFF AND PUSH1 0x6 DUP2 GT ISZERO PUSH2 0xA94 JUMPI PUSH2 0xA94 PUSH2 0x429E JUMP JUMPDEST EQ DUP1 PUSH2 0xAB8 JUMPI POP PUSH1 0x5 PUSH1 0xB DUP3 ADD SLOAD PUSH1 0xFF AND PUSH1 0x6 DUP2 GT ISZERO PUSH2 0xAB6 JUMPI PUSH2 0xAB6 PUSH2 0x429E JUMP JUMPDEST EQ JUMPDEST PUSH2 0xB04 JUMPI PUSH1 0x40 MLOAD PUSH3 0x461BCD PUSH1 0xE5 SHL DUP2 MSTORE PUSH1 0x20 PUSH1 0x4 DUP3 ADD MSTORE PUSH1 0x18 PUSH1 0x24 DUP3 ADD MSTORE PUSH32 0x496E76616C6964207374617465207472616E736974696F6E0000000000000000 PUSH1 0x44 DUP3 ADD MSTORE PUSH1 0x64 ADD PUSH2 0x7C9 JUMP JUMPDEST PUSH1 0x0 DUP2 PUSH1 0x8 ADD DUP1 SLOAD PUSH2 0xB15 SWAP1 PUSH2 0x45C7 JUMP JUMPDEST SWAP1 POP GT PUSH2 0xB70 JUMPI PUSH1 0x40 MLOAD PUSH3 0x461BCD PUSH1 0xE5 SHL DUP2 MSTORE PUSH1 0x20 PUSH1 0x4 DUP3 ADD MSTORE PUSH1 0x23 PUSH1 0x24 DUP3 ADD MSTORE PUSH32 0x506C656173652073657420612064656C69766572792061646472657373206669 PUSH1 0x44 DUP3 ADD MSTORE PUSH3 0x1C9CDD PUSH1 0xEA SHL PUSH1 0x64 DUP3 ADD MSTORE PUSH1 0x84 ADD PUSH2 0x7C9 JUMP JUMPDEST PUSH1 0xB DUP2 ADD DUP1 SLOAD DUP6 SWAP2 SWAP1 PUSH1 0xFF NOT AND PUSH1 0x1 DUP4 PUSH1 0x6 DUP2 GT ISZERO PUSH2 0xB91 JUMPI PUSH2 0xB91 PUSH2 0x429E JUMP JUMPDEST MUL OR SWAP1 SSTORE POP PUSH1 0x3 DUP5 PUSH1 0x6 DUP2 GT ISZERO PUSH2 0xBAA JUMPI PUSH2 0xBAA PUSH2 0x429E JUMP JUMPDEST SUB PUSH2 0xC32 JUMPI PUSH1 0x8 SLOAD PUSH1 0x2 DUP3 ADD SLOAD PUSH1 0x4 DUP1 DUP5 ADD SLOAD PUSH1 0x40 MLOAD PUSH4 0xA9059CBB PUSH1 0xE0 SHL DUP2 MSTORE PUSH1 0x1 PUSH1 0x1 PUSH1 0xA0 SHL SUB SWAP4 DUP5 AND SWAP3 DUP2 ADD SWAP3 SWAP1 SWAP3 MSTORE PUSH1 0x24 DUP3 ADD MSTORE SWAP2 AND SWAP1 PUSH4 0xA9059CBB SWAP1 PUSH1 0x44 ADD PUSH1 0x20 PUSH1 0x40 MLOAD DUP1 DUP4 SUB DUP2 PUSH1 0x0 DUP8 GAS CALL ISZERO DUP1 ISZERO PUSH2 0xC0C JUMPI RETURNDATASIZE PUSH1 0x0 DUP1 RETURNDATACOPY RETURNDATASIZE PUSH1 0x0 REVERT JUMPDEST POP POP POP POP PUSH1 0x40 MLOAD RETURNDATASIZE PUSH1 0x1F NOT PUSH1 0x1F DUP3 ADD AND DUP3 ADD DUP1 PUSH1 0x40 MSTORE POP DUP2 ADD SWAP1 PUSH2 0xC30 SWAP2 SWAP1 PUSH2 0x4628 JUMP JUMPDEST POP JUMPDEST POP POP POP POP POP POP JUMP JUMPDEST PUSH1 0x60 DUP3 DUP3 PUSH2 0xC53 PUSH1 0x1 DUP4 DUP4 PUSH1 0x40 MLOAD PUSH2 0x6D9 SWAP3 SWAP2 SWAP1 PUSH2 0x45B7 JUMP JUMPDEST PUSH2 0xC6F JUMPI PUSH1 0x40 MLOAD PUSH3 0x461BCD PUSH1 0xE5 SHL DUP2 MSTORE PUSH1 0x4 ADD PUSH2 0x7C9 SWAP1 PUSH2 0x45FB JUMP JUMPDEST DUP5 DUP5 CALLER PUSH1 0x1 PUSH1 0x1 PUSH1 0xA0 SHL SUB AND PUSH1 0x1 DUP4 DUP4 PUSH1 0x40 MLOAD PUSH2 0xC8D SWAP3 SWAP2 SWAP1 PUSH2 0x45B7 JUMP JUMPDEST SWAP1 DUP2 MSTORE PUSH1 0x40 MLOAD SWAP1 DUP2 SWAP1 SUB PUSH1 0x20 ADD SWAP1 KECCAK256 PUSH1 0x2 ADD SLOAD PUSH1 0x1 PUSH1 0x1 PUSH1 0xA0 SHL SUB AND EQ PUSH2 0xD06 JUMPI PUSH1 0x40 MLOAD PUSH3 0x461BCD PUSH1 0xE5 SHL DUP2 MSTORE PUSH1 0x20 PUSH1 0x4 DUP3 ADD MSTORE PUSH1 0x27 PUSH1 0x24 DUP3 ADD MSTORE PUSH32 0x4F6E6C792061756374696F6E206F776E65722063616E2063616C6C2074686973 PUSH1 0x44 DUP3 ADD MSTORE PUSH7 0x81B595D1A1BD9 PUSH1 0xCA SHL PUSH1 0x64 DUP3 ADD MSTORE PUSH1 0x84 ADD PUSH2 0x7C9 JUMP JUMPDEST PUSH1 0x1 DUP8 DUP8 PUSH1 0x40 MLOAD PUSH2 0xD18 SWAP3 SWAP2 SWAP1 PUSH2 0x45B7 JUMP JUMPDEST SWAP1 DUP2 MSTORE PUSH1 0x20 ADD PUSH1 0x40 MLOAD DUP1 SWAP2 SUB SWAP1 KECCAK256 PUSH1 0x8 ADD DUP1 SLOAD PUSH2 0xD34 SWAP1 PUSH2 0x45C7 JUMP JUMPDEST DUP1 PUSH1 0x1F ADD PUSH1 0x20 DUP1 SWAP2 DIV MUL PUSH1 0x20 ADD PUSH1 0x40 MLOAD SWAP1 DUP2 ADD PUSH1 0x40 MSTORE DUP1 SWAP3 SWAP2 SWAP1 DUP2 DUP2 MSTORE PUSH1 0x20 ADD DUP3 DUP1 SLOAD PUSH2 0xD60 SWAP1 PUSH2 0x45C7 JUMP JUMPDEST DUP1 ISZERO PUSH2 0xDAD JUMPI DUP1 PUSH1 0x1F LT PUSH2 0xD82 JUMPI PUSH2 0x100 DUP1 DUP4 SLOAD DIV MUL DUP4 MSTORE SWAP2 PUSH1 0x20 ADD SWAP2 PUSH2 0xDAD JUMP JUMPDEST DUP3 ADD SWAP2 SWAP1 PUSH1 0x0 MSTORE PUSH1 0x20 PUSH1 0x0 KECCAK256 SWAP1 JUMPDEST DUP2 SLOAD DUP2 MSTORE SWAP1 PUSH1 0x1 ADD SWAP1 PUSH1 0x20 ADD DUP1 DUP4 GT PUSH2 0xD90 JUMPI DUP3 SWAP1 SUB PUSH1 0x1F AND DUP3 ADD SWAP2 JUMPDEST POP POP POP POP POP SWAP5 POP POP POP POP POP SWAP3 SWAP2 POP POP JUMP JUMPDEST CALLER PUSH1 0x0 SWAP1 DUP2 MSTORE PUSH1 0x3 PUSH1 0x20 MSTORE PUSH1 0x40 SWAP1 KECCAK256 PUSH2 0xDD8 DUP3 DUP5 DUP4 PUSH2 0x46A5 JUMP JUMPDEST POP POP POP JUMP JUMPDEST DUP4 DUP4 PUSH2 0xDF4 PUSH1 0x1 DUP4 DUP4 PUSH1 0x40 MLOAD PUSH2 0x6D9 SWAP3 SWAP2 SWAP1 PUSH2 0x45B7 JUMP JUMPDEST PUSH2 0xE10 JUMPI PUSH1 0x40 MLOAD PUSH3 0x461BCD PUSH1 0xE5 SHL DUP2 MSTORE PUSH1 0x4 ADD PUSH2 0x7C9 SWAP1 PUSH2 0x45FB JUMP JUMPDEST PUSH1 0x0 PUSH1 0x1 DUP8 DUP8 PUSH1 0x40 MLOAD PUSH2 0xE24 SWAP3 SWAP2 SWAP1 PUSH2 0x45B7 JUMP JUMPDEST SWAP1 DUP2 MSTORE PUSH1 0x40 MLOAD SWAP1 DUP2 SWAP1 SUB PUSH1 0x20 ADD SWAP1 KECCAK256 PUSH1 0x5 DUP2 ADD SLOAD SWAP1 SWAP2 POP PUSH1 0x1 PUSH1 0x1 PUSH1 0xA0 SHL SUB AND CALLER EQ DUP1 PUSH2 0xE5D JUMPI POP PUSH1 0x2 DUP2 ADD SLOAD PUSH1 0x1 PUSH1 0x1 PUSH1 0xA0 SHL SUB AND CALLER EQ JUMPDEST DUP1 ISZERO PUSH2 0xE6D JUMPI POP PUSH1 0x7 DUP2 ADD SLOAD PUSH1 0xFF AND JUMPDEST PUSH2 0xE89 JUMPI PUSH1 0x40 MLOAD PUSH3 0x461BCD PUSH1 0xE5 SHL DUP2 MSTORE PUSH1 0x4 ADD PUSH2 0x7C9 SWAP1 PUSH2 0x475F JUMP JUMPDEST PUSH1 0x9 DUP2 ADD DUP1 SLOAD PUSH1 0x1 DUP2 ADD DUP3 SSTORE PUSH1 0x0 SWAP2 DUP3 MSTORE PUSH1 0x20 SWAP1 SWAP2 KECCAK256 ADD PUSH2 0xEAB DUP6 DUP8 DUP4 PUSH2 0x46A5 JUMP JUMPDEST POP POP POP POP POP POP POP POP JUMP JUMPDEST CALLER PUSH1 0x0 SWAP1 DUP2 MSTORE PUSH1 0x2 PUSH1 0x20 DUP2 DUP2 MSTORE PUSH1 0x40 DUP1 DUP5 KECCAK256 DUP1 SLOAD SWAP4 DUP2 ADD SLOAD PUSH1 0x1 DUP3 ADD DUP1 SLOAD DUP5 MLOAD DUP2 DUP8 MUL DUP2 ADD DUP8 ADD SWAP1 SWAP6 MSTORE DUP1 DUP6 MSTORE PUSH1 0x60 SWAP7 DUP9 SWAP7 SWAP5 SWAP6 SWAP1 SWAP5 SWAP3 SWAP4 PUSH1 0xFF AND SWAP3 SWAP1 SWAP2 DUP5 SWAP2 DUP9 SWAP1 DUP5 ADD JUMPDEST DUP3 DUP3 LT ISZERO PUSH2 0xFA6 JUMPI DUP4 DUP3 SWAP1 PUSH1 0x0 MSTORE PUSH1 0x20 PUSH1 0x0 KECCAK256 ADD DUP1 SLOAD PUSH2 0xF19 SWAP1 PUSH2 0x45C7 JUMP JUMPDEST DUP1 PUSH1 0x1F ADD PUSH1 0x20 DUP1 SWAP2 DIV MUL PUSH1 0x20 ADD PUSH1 0x40 MLOAD SWAP1 DUP2 ADD PUSH1 0x40 MSTORE DUP1 SWAP3 SWAP2 SWAP1 DUP2 DUP2 MSTORE PUSH1 0x20 ADD DUP3 DUP1 SLOAD PUSH2 0xF45 SWAP1 PUSH2 0x45C7 JUMP JUMPDEST DUP1 ISZERO PUSH2 0xF92 JUMPI DUP1 PUSH1 0x1F LT PUSH2 0xF67 JUMPI PUSH2 0x100 DUP1 DUP4 SLOAD DIV MUL DUP4 MSTORE SWAP2 PUSH1 0x20 ADD SWAP2 PUSH2 0xF92 JUMP JUMPDEST DUP3 ADD SWAP2 SWAP1 PUSH1 0x0 MSTORE PUSH1 0x20 PUSH1 0x0 KECCAK256 SWAP1 JUMPDEST DUP2 SLOAD DUP2 MSTORE SWAP1 PUSH1 0x1 ADD SWAP1 PUSH1 0x20 ADD DUP1 DUP4 GT PUSH2 0xF75 JUMPI DUP3 SWAP1 SUB PUSH1 0x1F AND DUP3 ADD SWAP2 JUMPDEST POP POP POP POP POP DUP2 MSTORE PUSH1 0x20 ADD SWAP1 PUSH1 0x1 ADD SWAP1 PUSH2 0xEFA JUMP JUMPDEST POP POP POP POP SWAP2 POP SWAP4 POP SWAP4 POP SWAP4 POP POP SWAP1 SWAP2 SWAP3 JUMP JUMPDEST PUSH2 0xFC0 PUSH2 0x3B20 JUMP JUMPDEST PUSH2 0xFCA PUSH1 0x0 PUSH2 0x3B7A JUMP JUMPDEST JUMP JUMPDEST DUP2 DUP2 PUSH2 0xFE3 PUSH1 0x1 DUP4 DUP4 PUSH1 0x40 MLOAD PUSH2 0x6D9 SWAP3 SWAP2 SWAP1 PUSH2 0x45B7 JUMP JUMPDEST PUSH2 0xFFF JUMPI PUSH1 0x40 MLOAD PUSH3 0x461BCD PUSH1 0xE5 SHL DUP2 MSTORE PUSH1 0x4 ADD PUSH2 0x7C9 SWAP1 PUSH2 0x45FB JUMP JUMPDEST PUSH1 0x0 PUSH1 0x1 DUP6 DUP6 PUSH1 0x40 MLOAD PUSH2 0x1013 SWAP3 SWAP2 SWAP1 PUSH2 0x45B7 JUMP JUMPDEST SWAP1 DUP2 MSTORE PUSH1 0x40 MLOAD SWAP1 DUP2 SWAP1 SUB PUSH1 0x20 ADD SWAP1 KECCAK256 PUSH1 0x5 DUP2 ADD SLOAD SWAP1 SWAP2 POP PUSH1 0x1 PUSH1 0x1 PUSH1 0xA0 SHL SUB AND CALLER EQ DUP1 PUSH2 0x104C JUMPI POP PUSH1 0x2 DUP2 ADD SLOAD PUSH1 0x1 PUSH1 0x1 PUSH1 0xA0 SHL SUB AND CALLER EQ JUMPDEST DUP1 ISZERO PUSH2 0x105C JUMPI POP PUSH1 0x7 DUP2 ADD SLOAD PUSH1 0xFF AND JUMPDEST PUSH2 0x1078 JUMPI PUSH1 0x40 MLOAD PUSH3 0x461BCD PUSH1 0xE5 SHL DUP2 MSTORE PUSH1 0x4 ADD PUSH2 0x7C9 SWAP1 PUSH2 0x475F JUMP JUMPDEST PUSH1 0xB DUP2 ADD DUP1 SLOAD PUSH1 0xFF NOT AND PUSH1 0x4 OR SWAP1 SSTORE PUSH1 0x6 DUP1 SLOAD PUSH1 0x1 DUP2 ADD DUP3 SSTORE PUSH1 0x0 SWAP2 SWAP1 SWAP2 MSTORE PUSH32 0xF652222313E28459528D920B65115C16C04F3EFC82AAEDC97BE59F3F377C0D3F ADD PUSH2 0xC32 DUP6 DUP8 DUP4 PUSH2 0x46A5 JUMP JUMPDEST PUSH1 0x8 SLOAD PUSH1 0x40 MLOAD PUSH4 0x23B872DD PUSH1 0xE0 SHL DUP2 MSTORE CALLER PUSH1 0x4 DUP3 ADD MSTORE ADDRESS PUSH1 0x24 DUP3 ADD MSTORE PUSH1 0x44 DUP2 ADD DUP4 SWAP1 MSTORE PUSH1 0x1 PUSH1 0x1 PUSH1 0xA0 SHL SUB SWAP1 SWAP2 AND SWAP1 PUSH4 0x23B872DD SWAP1 PUSH1 0x64 ADD PUSH1 0x20 PUSH1 0x40 MLOAD DUP1 DUP4 SUB DUP2 PUSH1 0x0 DUP8 GAS CALL ISZERO DUP1 ISZERO PUSH2 0x111B JUMPI RETURNDATASIZE PUSH1 0x0 DUP1 RETURNDATACOPY RETURNDATASIZE PUSH1 0x0 REVERT JUMPDEST POP POP POP POP PUSH1 0x40 MLOAD RETURNDATASIZE PUSH1 0x1F NOT PUSH1 0x1F DUP3 ADD AND DUP3 ADD DUP1 PUSH1 0x40 MSTORE POP DUP2 ADD SWAP1 PUSH2 0x113F SWAP2 SWAP1 PUSH2 0x4628 JUMP JUMPDEST POP CALLER PUSH1 0x0 SWAP1 DUP2 MSTORE PUSH1 0x2 PUSH1 0x20 DUP2 SWAP1 MSTORE PUSH1 0x40 SWAP1 SWAP2 KECCAK256 ADD SLOAD PUSH1 0xFF AND ISZERO PUSH2 0x1186 JUMPI CALLER PUSH1 0x0 SWAP1 DUP2 MSTORE PUSH1 0x2 PUSH1 0x20 MSTORE PUSH1 0x40 DUP2 KECCAK256 DUP1 SLOAD DUP4 SWAP3 SWAP1 PUSH2 0x117B SWAP1 DUP5 SWAP1 PUSH2 0x47E4 JUMP JUMPDEST SWAP1 SWAP2 SSTORE POP PUSH2 0x11EE SWAP1 POP JUMP JUMPDEST PUSH1 0x40 DUP1 MLOAD PUSH1 0x60 DUP2 DUP2 ADD DUP4 MSTORE DUP4 DUP3 MSTORE PUSH1 0x20 DUP1 DUP4 ADD DUP3 DUP2 MSTORE PUSH1 0x1 DUP5 DUP7 ADD DUP2 SWAP1 MSTORE CALLER PUSH1 0x0 SWAP1 DUP2 MSTORE PUSH1 0x2 DUP5 MSTORE SWAP6 SWAP1 SWAP6 KECCAK256 DUP5 MLOAD DUP2 SSTORE SWAP1 MLOAD DUP1 MLOAD SWAP4 SWAP6 SWAP2 SWAP4 PUSH2 0x11D0 SWAP4 SWAP3 DUP6 ADD SWAP3 SWAP2 SWAP1 SWAP2 ADD SWAP1 PUSH2 0x3BCA JUMP JUMPDEST POP PUSH1 0x40 SWAP2 SWAP1 SWAP2 ADD MLOAD PUSH1 0x2 SWAP1 SWAP2 ADD DUP1 SLOAD PUSH1 0xFF NOT AND SWAP2 ISZERO ISZERO SWAP2 SWAP1 SWAP2 OR SWAP1 SSTORE POP JUMPDEST POP JUMP JUMPDEST PUSH2 0x11F9 PUSH2 0x3B20 JUMP JUMPDEST PUSH1 0x8 DUP1 SLOAD PUSH1 0x1 PUSH1 0x1 PUSH1 0x40 SHL SUB SWAP1 SWAP3 AND PUSH1 0x1 PUSH1 0xA0 SHL MUL PUSH8 0xFFFFFFFFFFFFFFFF PUSH1 0xA0 SHL NOT SWAP1 SWAP3 AND SWAP2 SWAP1 SWAP2 OR SWAP1 SSTORE JUMP JUMPDEST PUSH2 0x122E PUSH2 0x3B20 JUMP JUMPDEST PUSH1 0x8 DUP1 SLOAD PUSH1 0xFF SWAP1 SWAP3 AND PUSH1 0x1 PUSH1 0xE0 SHL MUL PUSH1 0xFF PUSH1 0xE0 SHL NOT SWAP1 SWAP3 AND SWAP2 SWAP1 SWAP2 OR SWAP1 SSTORE JUMP JUMPDEST PUSH1 0x60 DUP3 DUP3 PUSH2 0x1267 PUSH1 0x1 DUP4 DUP4 PUSH1 0x40 MLOAD PUSH2 0x6D9 SWAP3 SWAP2 SWAP1 PUSH2 0x45B7 JUMP JUMPDEST PUSH2 0x1283 JUMPI PUSH1 0x40 MLOAD PUSH3 0x461BCD PUSH1 0xE5 SHL DUP2 MSTORE PUSH1 0x4 ADD PUSH2 0x7C9 SWAP1 PUSH2 0x45FB JUMP JUMPDEST PUSH1 0x0 PUSH1 0x1 DUP7 DUP7 PUSH1 0x40 MLOAD PUSH2 0x1297 SWAP3 SWAP2 SWAP1 PUSH2 0x45B7 JUMP JUMPDEST SWAP1 DUP2 MSTORE PUSH1 0x20 ADD PUSH1 0x40 MLOAD DUP1 SWAP2 SUB SWAP1 KECCAK256 PUSH1 0x40 MLOAD DUP1 PUSH2 0x1C0 ADD PUSH1 0x40 MSTORE SWAP1 DUP2 PUSH1 0x0 DUP3 ADD DUP1 SLOAD PUSH2 0x12C1 SWAP1 PUSH2 0x45C7 JUMP JUMPDEST DUP1 PUSH1 0x1F ADD PUSH1 0x20 DUP1 SWAP2 DIV MUL PUSH1 0x20 ADD PUSH1 0x40 MLOAD SWAP1 DUP2 ADD PUSH1 0x40 MSTORE DUP1 SWAP3 SWAP2 SWAP1 DUP2 DUP2 MSTORE PUSH1 0x20 ADD DUP3 DUP1 SLOAD PUSH2 0x12ED SWAP1 PUSH2 0x45C7 JUMP JUMPDEST DUP1 ISZERO PUSH2 0x133A JUMPI DUP1 PUSH1 0x1F LT PUSH2 0x130F JUMPI PUSH2 0x100 DUP1 DUP4 SLOAD DIV MUL DUP4 MSTORE SWAP2 PUSH1 0x20 ADD SWAP2 PUSH2 0x133A JUMP JUMPDEST DUP3 ADD SWAP2 SWAP1 PUSH1 0x0 MSTORE PUSH1 0x20 PUSH1 0x0 KECCAK256 SWAP1 JUMPDEST DUP2 SLOAD DUP2 MSTORE SWAP1 PUSH1 0x1 ADD SWAP1 PUSH1 0x20 ADD DUP1 DUP4 GT PUSH2 0x131D JUMPI DUP3 SWAP1 SUB PUSH1 0x1F AND DUP3 ADD SWAP2 JUMPDEST POP POP POP POP POP DUP2 MSTORE PUSH1 0x20 ADD PUSH1 0x1 DUP3 ADD DUP1 SLOAD PUSH2 0x1353 SWAP1 PUSH2 0x45C7 JUMP JUMPDEST DUP1 PUSH1 0x1F ADD PUSH1 0x20 DUP1 SWAP2 DIV MUL PUSH1 0x20 ADD PUSH1 0x40 MLOAD SWAP1 DUP2 ADD PUSH1 0x40 MSTORE DUP1 SWAP3 SWAP2 SWAP1 DUP2 DUP2 MSTORE PUSH1 0x20 ADD DUP3 DUP1 SLOAD PUSH2 0x137F SWAP1 PUSH2 0x45C7 JUMP JUMPDEST DUP1 ISZERO PUSH2 0x13CC JUMPI DUP1 PUSH1 0x1F LT PUSH2 0x13A1 JUMPI PUSH2 0x100 DUP1 DUP4 SLOAD DIV MUL DUP4 MSTORE SWAP2 PUSH1 0x20 ADD SWAP2 PUSH2 0x13CC JUMP JUMPDEST DUP3 ADD SWAP2 SWAP1 PUSH1 0x0 MSTORE PUSH1 0x20 PUSH1 0x0 KECCAK256 SWAP1 JUMPDEST DUP2 SLOAD DUP2 MSTORE SWAP1 PUSH1 0x1 ADD SWAP1 PUSH1 0x20 ADD DUP1 DUP4 GT PUSH2 0x13AF JUMPI DUP3 SWAP1 SUB PUSH1 0x1F AND DUP3 ADD SWAP2 JUMPDEST POP POP POP SWAP2 DUP4 MSTORE POP POP PUSH1 0x2 DUP3 ADD SLOAD PUSH1 0x1 PUSH1 0x1 PUSH1 0xA0 SHL SUB SWAP1 DUP2 AND PUSH1 0x20 DUP4 ADD MSTORE PUSH1 0x3 DUP4 ADD SLOAD PUSH1 0x40 DUP4 ADD MSTORE PUSH1 0x4 DUP4 ADD SLOAD PUSH1 0x60 DUP4 ADD MSTORE PUSH1 0x5 DUP4 ADD SLOAD AND PUSH1 0x80 DUP3 ADD MSTORE PUSH1 0x6 DUP3 ADD SLOAD PUSH1 0xA0 DUP3 ADD MSTORE PUSH1 0x7 DUP3 ADD SLOAD PUSH1 0xFF AND ISZERO ISZERO PUSH1 0xC0 DUP3 ADD MSTORE PUSH1 0x8 DUP3 ADD DUP1 SLOAD PUSH1 0xE0 SWAP1 SWAP3 ADD SWAP2 PUSH2 0x1436 SWAP1 PUSH2 0x45C7 JUMP JUMPDEST DUP1 PUSH1 0x1F ADD PUSH1 0x20 DUP1 SWAP2 DIV MUL PUSH1 0x20 ADD PUSH1 0x40 MLOAD SWAP1 DUP2 ADD PUSH1 0x40 MSTORE DUP1 SWAP3 SWAP2 SWAP1 DUP2 DUP2 MSTORE PUSH1 0x20 ADD DUP3 DUP1 SLOAD PUSH2 0x1462 SWAP1 PUSH2 0x45C7 JUMP JUMPDEST DUP1 ISZERO PUSH2 0x14AF JUMPI DUP1 PUSH1 0x1F LT PUSH2 0x1484 JUMPI PUSH2 0x100 DUP1 DUP4 SLOAD DIV MUL DUP4 MSTORE SWAP2 PUSH1 0x20 ADD SWAP2 PUSH2 0x14AF JUMP JUMPDEST DUP3 ADD SWAP2 SWAP1 PUSH1 0x0 MSTORE PUSH1 0x20 PUSH1 0x0 KECCAK256 SWAP1 JUMPDEST DUP2 SLOAD DUP2 MSTORE SWAP1 PUSH1 0x1 ADD SWAP1 PUSH1 0x20 ADD DUP1 DUP4 GT PUSH2 0x1492 JUMPI DUP3 SWAP1 SUB PUSH1 0x1F AND DUP3 ADD SWAP2 JUMPDEST POP POP POP POP POP DUP2 MSTORE PUSH1 0x20 ADD PUSH1 0x9 DUP3 ADD DUP1 SLOAD DUP1 PUSH1 0x20 MUL PUSH1 0x20 ADD PUSH1 0x40 MLOAD SWAP1 DUP2 ADD PUSH1 0x40 MSTORE DUP1 SWAP3 SWAP2 SWAP1 DUP2 DUP2 MSTORE PUSH1 0x20 ADD PUSH1 0x0 SWAP1 JUMPDEST DUP3 DUP3 LT ISZERO PUSH2 0x1589 JUMPI DUP4 DUP3 SWAP1 PUSH1 0x0 MSTORE PUSH1 0x20 PUSH1 0x0 KECCAK256 ADD DUP1 SLOAD PUSH2 0x14FC SWAP1 PUSH2 0x45C7 JUMP JUMPDEST DUP1 PUSH1 0x1F ADD PUSH1 0x20 DUP1 SWAP2 DIV MUL PUSH1 0x20 ADD PUSH1 0x40 MLOAD SWAP1 DUP2 ADD PUSH1 0x40 MSTORE DUP1 SWAP3 SWAP2 SWAP1 DUP2 DUP2 MSTORE PUSH1 0x20 ADD DUP3 DUP1 SLOAD PUSH2 0x1528 SWAP1 PUSH2 0x45C7 JUMP JUMPDEST DUP1 ISZERO PUSH2 0x1575 JUMPI DUP1 PUSH1 0x1F LT PUSH2 0x154A JUMPI PUSH2 0x100 DUP1 DUP4 SLOAD DIV MUL DUP4 MSTORE SWAP2 PUSH1 0x20 ADD SWAP2 PUSH2 0x1575 JUMP JUMPDEST DUP3 ADD SWAP2 SWAP1 PUSH1 0x0 MSTORE PUSH1 0x20 PUSH1 0x0 KECCAK256 SWAP1 JUMPDEST DUP2 SLOAD DUP2 MSTORE SWAP1 PUSH1 0x1 ADD SWAP1 PUSH1 0x20 ADD DUP1 DUP4 GT PUSH2 0x1558 JUMPI DUP3 SWAP1 SUB PUSH1 0x1F AND DUP3 ADD SWAP2 JUMPDEST POP POP POP POP POP DUP2 MSTORE PUSH1 0x20 ADD SWAP1 PUSH1 0x1 ADD SWAP1 PUSH2 0x14DD JUMP JUMPDEST POP POP POP POP DUP2 MSTORE PUSH1 0x20 ADD PUSH1 0xA DUP3 ADD DUP1 SLOAD DUP1 PUSH1 0x20 MUL PUSH1 0x20 ADD PUSH1 0x40 MLOAD SWAP1 DUP2 ADD PUSH1 0x40 MSTORE DUP1 SWAP3 SWAP2 SWAP1 DUP2 DUP2 MSTORE PUSH1 0x20 ADD PUSH1 0x0 SWAP1 JUMPDEST DUP3 DUP3 LT ISZERO PUSH2 0x1662 JUMPI DUP4 DUP3 SWAP1 PUSH1 0x0 MSTORE PUSH1 0x20 PUSH1 0x0 KECCAK256 ADD DUP1 SLOAD PUSH2 0x15D5 SWAP1 PUSH2 0x45C7 JUMP JUMPDEST DUP1 PUSH1 0x1F ADD PUSH1 0x20 DUP1 SWAP2 DIV MUL PUSH1 0x20 ADD PUSH1 0x40 MLOAD SWAP1 DUP2 ADD PUSH1 0x40 MSTORE DUP1 SWAP3 SWAP2 SWAP1 DUP2 DUP2 MSTORE PUSH1 0x20 ADD DUP3 DUP1 SLOAD PUSH2 0x1601 SWAP1 PUSH2 0x45C7 JUMP JUMPDEST DUP1 ISZERO PUSH2 0x164E JUMPI DUP1 PUSH1 0x1F LT PUSH2 0x1623 JUMPI PUSH2 0x100 DUP1 DUP4 SLOAD DIV MUL DUP4 MSTORE SWAP2 PUSH1 0x20 ADD SWAP2 PUSH2 0x164E JUMP JUMPDEST DUP3 ADD SWAP2 SWAP1 PUSH1 0x0 MSTORE PUSH1 0x20 PUSH1 0x0 KECCAK256 SWAP1 JUMPDEST DUP2 SLOAD DUP2 MSTORE SWAP1 PUSH1 0x1 ADD SWAP1 PUSH1 0x20 ADD DUP1 DUP4 GT PUSH2 0x1631 JUMPI DUP3 SWAP1 SUB PUSH1 0x1F AND DUP3 ADD SWAP2 JUMPDEST POP POP POP POP POP DUP2 MSTORE PUSH1 0x20 ADD SWAP1 PUSH1 0x1 ADD SWAP1 PUSH2 0x15B6 JUMP JUMPDEST POP POP POP SWAP1 DUP3 MSTORE POP PUSH1 0xB DUP3 ADD SLOAD PUSH1 0x20 SWAP1 SWAP2 ADD SWAP1 PUSH1 0xFF AND PUSH1 0x6 DUP2 GT ISZERO PUSH2 0x1688 JUMPI PUSH2 0x1688 PUSH2 0x429E JUMP JUMPDEST PUSH1 0x6 DUP2 GT ISZERO PUSH2 0x1699 JUMPI PUSH2 0x1699 PUSH2 0x429E JUMP JUMPDEST DUP2 MSTORE PUSH1 0xB SWAP2 SWAP1 SWAP2 ADD SLOAD PUSH1 0xFF PUSH2 0x100 DUP3 DIV DUP2 AND PUSH1 0x20 DUP5 ADD MSTORE PUSH3 0x10000 SWAP1 SWAP2 DIV AND PUSH1 0x40 SWAP1 SWAP2 ADD MSTORE PUSH1 0xA0 DUP2 ADD MLOAD SWAP1 SWAP2 POP PUSH1 0x1 PUSH1 0x1 PUSH1 0xA0 SHL SUB AND CALLER EQ DUP1 PUSH2 0x16F1 JUMPI POP DUP1 PUSH1 0x40 ADD MLOAD PUSH1 0x1 PUSH1 0x1 PUSH1 0xA0 SHL SUB AND CALLER PUSH1 0x1 PUSH1 0x1 PUSH1 0xA0 SHL SUB AND EQ JUMPDEST DUP1 ISZERO PUSH2 0x16FE JUMPI POP DUP1 PUSH1 0xE0 ADD MLOAD JUMPDEST PUSH2 0x171A JUMPI PUSH1 0x40 MLOAD PUSH3 0x461BCD PUSH1 0xE5 SHL DUP2 MSTORE PUSH1 0x4 ADD PUSH2 0x7C9 SWAP1 PUSH2 0x475F JUMP JUMPDEST PUSH2 0x120 ADD MLOAD SWAP6 SWAP5 POP POP POP POP POP JUMP JUMPDEST PUSH2 0x1730 PUSH2 0x3B20 JUMP JUMPDEST PUSH1 0x7 SSTORE JUMP JUMPDEST DUP2 DUP2 PUSH2 0x174C PUSH1 0x1 DUP4 DUP4 PUSH1 0x40 MLOAD PUSH2 0x6D9 SWAP3 SWAP2 SWAP1 PUSH2 0x45B7 JUMP JUMPDEST PUSH2 0x1768 JUMPI PUSH1 0x40 MLOAD PUSH3 0x461BCD PUSH1 0xE5 SHL DUP2 MSTORE PUSH1 0x4 ADD PUSH2 0x7C9 SWAP1 PUSH2 0x45FB JUMP JUMPDEST DUP4 DUP4 PUSH1 0x4 PUSH1 0x1 DUP4 DUP4 PUSH1 0x40 MLOAD PUSH2 0x177E SWAP3 SWAP2 SWAP1 PUSH2 0x45B7 JUMP JUMPDEST SWAP1 DUP2 MSTORE PUSH1 0x40 MLOAD SWAP1 DUP2 SWAP1 SUB PUSH1 0x20 ADD SWAP1 KECCAK256 PUSH1 0xB ADD SLOAD PUSH1 0xFF AND PUSH1 0x6 DUP2 GT ISZERO PUSH2 0x17A5 JUMPI PUSH2 0x17A5 PUSH2 0x429E JUMP JUMPDEST EQ PUSH2 0x17C2 JUMPI PUSH1 0x40 MLOAD PUSH3 0x461BCD PUSH1 0xE5 SHL DUP2 MSTORE PUSH1 0x4 ADD PUSH2 0x7C9 SWAP1 PUSH2 0x47F7 JUMP JUMPDEST CALLER PUSH1 0x0 SWAP1 DUP2 MSTORE PUSH1 0x4 PUSH1 0x20 MSTORE PUSH1 0x40 SWAP1 KECCAK256 SLOAD PUSH1 0xFF AND PUSH2 0x17F1 JUMPI PUSH1 0x40 MLOAD PUSH3 0x461BCD PUSH1 0xE5 SHL DUP2 MSTORE PUSH1 0x4 ADD PUSH2 0x7C9 SWAP1 PUSH2 0x483A JUMP JUMPDEST PUSH1 0x0 PUSH1 0x1 DUP8 DUP8 PUSH1 0x40 MLOAD PUSH2 0x1805 SWAP3 SWAP2 SWAP1 PUSH2 0x45B7 JUMP JUMPDEST SWAP1 DUP2 MSTORE PUSH1 0x40 MLOAD SWAP1 DUP2 SWAP1 SUB PUSH1 0x20 ADD SWAP1 KECCAK256 PUSH1 0xB DUP2 ADD SLOAD SWAP1 SWAP2 POP PUSH1 0xFF PUSH3 0x10000 DUP3 DIV DUP2 AND PUSH2 0x100 SWAP1 SWAP3 DIV AND LT PUSH2 0x18C8 JUMPI PUSH1 0x8 SLOAD PUSH1 0x2 DUP3 ADD SLOAD PUSH1 0x4 DUP1 DUP5 ADD SLOAD PUSH1 0x40 MLOAD PUSH4 0xA9059CBB PUSH1 0xE0 SHL DUP2 MSTORE PUSH1 0x1 PUSH1 0x1 PUSH1 0xA0 SHL SUB SWAP4 DUP5 AND SWAP3 DUP2 ADD SWAP3 SWAP1 SWAP3 MSTORE PUSH1 0x24 DUP3 ADD MSTORE SWAP2 AND SWAP1 PUSH4 0xA9059CBB SWAP1 PUSH1 0x44 ADD PUSH1 0x20 PUSH1 0x40 MLOAD DUP1 DUP4 SUB DUP2 PUSH1 0x0 DUP8 GAS CALL ISZERO DUP1 ISZERO PUSH2 0x188F JUMPI RETURNDATASIZE PUSH1 0x0 DUP1 RETURNDATACOPY RETURNDATASIZE PUSH1 0x0 REVERT JUMPDEST POP POP POP POP PUSH1 0x40 MLOAD RETURNDATASIZE PUSH1 0x1F NOT PUSH1 0x1F DUP3 ADD AND DUP3 ADD DUP1 PUSH1 0x40 MSTORE POP DUP2 ADD SWAP1 PUSH2 0x18B3 SWAP2 SWAP1 PUSH2 0x4628 JUMP JUMPDEST POP PUSH1 0xB DUP2 ADD DUP1 SLOAD PUSH1 0xFF NOT AND PUSH1 0x5 OR SWAP1 SSTORE PUSH2 0xC30 JUMP JUMPDEST PUSH1 0x8 SLOAD PUSH1 0x5 DUP3 ADD SLOAD PUSH1 0x4 DUP1 DUP5 ADD SLOAD PUSH1 0x40 MLOAD PUSH4 0xA9059CBB PUSH1 0xE0 SHL DUP2 MSTORE PUSH1 0x1 PUSH1 0x1 PUSH1 0xA0 SHL SUB SWAP4 DUP5 AND SWAP3 DUP2 ADD SWAP3 SWAP1 SWAP3 MSTORE PUSH1 0x24 DUP3 ADD MSTORE SWAP2 AND SWAP1 PUSH4 0xA9059CBB SWAP1 PUSH1 0x44 ADD PUSH1 0x20 PUSH1 0x40 MLOAD DUP1 DUP4 SUB DUP2 PUSH1 0x0 DUP8 GAS CALL ISZERO DUP1 ISZERO PUSH2 0x1925 JUMPI RETURNDATASIZE PUSH1 0x0 DUP1 RETURNDATACOPY RETURNDATASIZE PUSH1 0x0 REVERT JUMPDEST POP POP POP POP PUSH1 0x40 MLOAD RETURNDATASIZE PUSH1 0x1F NOT PUSH1 0x1F DUP3 ADD AND DUP3 ADD DUP1 PUSH1 0x40 MSTORE POP DUP2 ADD SWAP1 PUSH2 0x1949 SWAP2 SWAP1 PUSH2 0x4628 JUMP JUMPDEST POP PUSH1 0xB ADD DUP1 SLOAD PUSH1 0xFF NOT AND PUSH1 0x6 OR SWAP1 SSTORE POP POP POP POP POP POP JUMP JUMPDEST DUP3 DUP3 PUSH2 0x1977 PUSH1 0x1 DUP4 DUP4 PUSH1 0x40 MLOAD PUSH2 0x6D9 SWAP3 SWAP2 SWAP1 PUSH2 0x45B7 JUMP JUMPDEST PUSH2 0x1993 JUMPI PUSH1 0x40 MLOAD PUSH3 0x461BCD PUSH1 0xE5 SHL DUP2 MSTORE PUSH1 0x4 ADD PUSH2 0x7C9 SWAP1 PUSH2 0x45FB JUMP JUMPDEST CALLER PUSH1 0x0 SWAP1 DUP2 MSTORE PUSH1 0x4 PUSH1 0x20 MSTORE PUSH1 0x40 SWAP1 KECCAK256 SLOAD PUSH1 0xFF AND PUSH2 0x19C2 JUMPI PUSH1 0x40 MLOAD PUSH3 0x461BCD PUSH1 0xE5 SHL DUP2 MSTORE PUSH1 0x4 ADD PUSH2 0x7C9 SWAP1 PUSH2 0x483A JUMP JUMPDEST DUP5 DUP5 PUSH1 0x4 PUSH1 0x1 DUP4 DUP4 PUSH1 0x40 MLOAD PUSH2 0x19D8 SWAP3 SWAP2 SWAP1 PUSH2 0x45B7 JUMP JUMPDEST SWAP1 DUP2 MSTORE PUSH1 0x40 MLOAD SWAP1 DUP2 SWAP1 SUB PUSH1 0x20 ADD SWAP1 KECCAK256 PUSH1 0xB ADD SLOAD PUSH1 0xFF AND PUSH1 0x6 DUP2 GT ISZERO PUSH2 0x19FF JUMPI PUSH2 0x19FF PUSH2 0x429E JUMP JUMPDEST EQ PUSH2 0x1A1C JUMPI PUSH1 0x40 MLOAD PUSH3 0x461BCD PUSH1 0xE5 SHL DUP2 MSTORE PUSH1 0x4 ADD PUSH2 0x7C9 SWAP1 PUSH2 0x47F7 JUMP JUMPDEST PUSH1 0x0 PUSH1 0x1 DUP9 DUP9 PUSH1 0x40 MLOAD PUSH2 0x1A30 SWAP3 SWAP2 SWAP1 PUSH2 0x45B7 JUMP JUMPDEST SWAP1 DUP2 MSTORE PUSH1 0x20 ADD PUSH1 0x40 MLOAD DUP1 SWAP2 SUB SWAP1 KECCAK256 SWAP1 POP DUP6 PUSH1 0xFF AND PUSH1 0x1 SUB PUSH2 0x1A83 JUMPI PUSH1 0xB DUP2 ADD DUP1 SLOAD PUSH2 0x100 SWAP1 DIV PUSH1 0xFF AND SWAP1 PUSH1 0x1 PUSH2 0x1A65 DUP4 PUSH2 0x4884 JUMP JUMPDEST SWAP2 SWAP1 PUSH2 0x100 EXP DUP2 SLOAD DUP2 PUSH1 0xFF MUL NOT AND SWAP1 DUP4 PUSH1 0xFF AND MUL OR SWAP1 SSTORE POP POP PUSH2 0xEAB JUMP JUMPDEST PUSH1 0xB DUP2 ADD DUP1 SLOAD PUSH3 0x10000 SWAP1 DIV PUSH1 0xFF AND SWAP1 PUSH1 0x2 PUSH2 0x1A9E DUP4 PUSH2 0x4884 JUMP JUMPDEST SWAP2 SWAP1 PUSH2 0x100 EXP DUP2 SLOAD DUP2 PUSH1 0xFF MUL NOT AND SWAP1 DUP4 PUSH1 0xFF AND MUL OR SWAP1 SSTORE POP POP POP POP POP POP POP POP POP POP JUMP JUMPDEST PUSH1 0x60 DUP1 PUSH1 0x0 DUP1 PUSH1 0x0 DUP1 PUSH1 0x0 DUP1 DUP10 DUP10 PUSH2 0x1AE4 PUSH1 0x1 DUP4 DUP4 PUSH1 0x40 MLOAD PUSH2 0x6D9 SWAP3 SWAP2 SWAP1 PUSH2 0x45B7 JUMP JUMPDEST PUSH2 0x1B00 JUMPI PUSH1 0x40 MLOAD PUSH3 0x461BCD PUSH1 0xE5 SHL DUP2 MSTORE PUSH1 0x4 ADD PUSH2 0x7C9 SWAP1 PUSH2 0x45FB JUMP JUMPDEST PUSH1 0x0 PUSH1 0x1 DUP14 DUP14 PUSH1 0x40 MLOAD PUSH2 0x1B14 SWAP3 SWAP2 SWAP1 PUSH2 0x45B7 JUMP JUMPDEST SWAP1 DUP2 MSTORE PUSH1 0x40 MLOAD SWAP1 DUP2 SWAP1 SUB PUSH1 0x20 ADD SWAP1 KECCAK256 PUSH1 0x2 DUP2 ADD SLOAD PUSH1 0x3 DUP3 ADD SLOAD PUSH1 0x4 DUP4 ADD SLOAD PUSH1 0x5 DUP5 ADD SLOAD PUSH1 0x6 DUP6 ADD SLOAD PUSH1 0x7 DUP7 ADD SLOAD DUP7 SLOAD SWAP7 SWAP8 POP DUP8 SWAP7 PUSH1 0x1 DUP9 ADD SWAP7 PUSH1 0x1 PUSH1 0x1 PUSH1 0xA0 SHL SUB SWAP1 DUP2 AND SWAP7 SWAP6 SWAP5 AND SWAP3 SWAP2 PUSH1 0xFF AND SWAP1 DUP9 SWAP1 PUSH2 0x1B6D SWAP1 PUSH2 0x45C7 JUMP JUMPDEST DUP1 PUSH1 0x1F ADD PUSH1 0x20 DUP1 SWAP2 DIV MUL PUSH1 0x20 ADD PUSH1 0x40 MLOAD SWAP1 DUP2 ADD PUSH1 0x40 MSTORE DUP1 SWAP3 SWAP2 SWAP1 DUP2 DUP2 MSTORE PUSH1 0x20 ADD DUP3 DUP1 SLOAD PUSH2 0x1B99 SWAP1 PUSH2 0x45C7 JUMP JUMPDEST DUP1 ISZERO PUSH2 0x1BE6 JUMPI DUP1 PUSH1 0x1F LT PUSH2 0x1BBB JUMPI PUSH2 0x100 DUP1 DUP4 SLOAD DIV MUL DUP4 MSTORE SWAP2 PUSH1 0x20 ADD SWAP2 PUSH2 0x1BE6 JUMP JUMPDEST DUP3 ADD SWAP2 SWAP1 PUSH1 0x0 MSTORE PUSH1 0x20 PUSH1 0x0 KECCAK256 SWAP1 JUMPDEST DUP2 SLOAD DUP2 MSTORE SWAP1 PUSH1 0x1 ADD SWAP1 PUSH1 0x20 ADD DUP1 DUP4 GT PUSH2 0x1BC9 JUMPI DUP3 SWAP1 SUB PUSH1 0x1F AND DUP3 ADD SWAP2 JUMPDEST POP POP POP POP POP SWAP8 POP DUP7 DUP1 SLOAD PUSH2 0x1BF9 SWAP1 PUSH2 0x45C7 JUMP JUMPDEST DUP1 PUSH1 0x1F ADD PUSH1 0x20 DUP1 SWAP2 DIV MUL PUSH1 0x20 ADD PUSH1 0x40 MLOAD SWAP1 DUP2 ADD PUSH1 0x40 MSTORE DUP1 SWAP3 SWAP2 SWAP1 DUP2 DUP2 MSTORE PUSH1 0x20 ADD DUP3 DUP1 SLOAD PUSH2 0x1C25 SWAP1 PUSH2 0x45C7 JUMP JUMPDEST DUP1 ISZERO PUSH2 0x1C72 JUMPI DUP1 PUSH1 0x1F LT PUSH2 0x1C47 JUMPI PUSH2 0x100 DUP1 DUP4 SLOAD DIV MUL DUP4 MSTORE SWAP2 PUSH1 0x20 ADD SWAP2 PUSH2 0x1C72 JUMP JUMPDEST DUP3 ADD SWAP2 SWAP1 PUSH1 0x0 MSTORE PUSH1 0x20 PUSH1 0x0 KECCAK256 SWAP1 JUMPDEST DUP2 SLOAD DUP2 MSTORE SWAP1 PUSH1 0x1 ADD SWAP1 PUSH1 0x20 ADD DUP1 DUP4 GT PUSH2 0x1C55 JUMPI DUP3 SWAP1 SUB PUSH1 0x1F AND DUP3 ADD SWAP2 JUMPDEST POP POP POP POP POP SWAP7 POP SWAP11 POP SWAP11 POP SWAP11 POP SWAP11 POP SWAP11 POP SWAP11 POP SWAP11 POP SWAP11 POP POP POP POP SWAP3 SWAP6 SWAP9 POP SWAP3 SWAP6 SWAP9 SWAP1 SWAP4 SWAP7 POP JUMP JUMPDEST DUP3 DUP3 PUSH2 0x1CB0 PUSH1 0x1 DUP4 DUP4 PUSH1 0x40 MLOAD PUSH2 0x6D9 SWAP3 SWAP2 SWAP1 PUSH2 0x45B7 JUMP JUMPDEST PUSH2 0x1CCC JUMPI PUSH1 0x40 MLOAD PUSH3 0x461BCD PUSH1 0xE5 SHL DUP2 MSTORE PUSH1 0x4 ADD PUSH2 0x7C9 SWAP1 PUSH2 0x45FB JUMP JUMPDEST DUP5 DUP5 PUSH1 0x1 DUP3 DUP3 PUSH1 0x40 MLOAD PUSH2 0x1CE0 SWAP3 SWAP2 SWAP1 PUSH2 0x45B7 JUMP JUMPDEST SWAP1 DUP2 MSTORE PUSH1 0x40 MLOAD SWAP1 DUP2 SWAP1 SUB PUSH1 0x20 ADD SWAP1 KECCAK256 PUSH1 0x5 ADD SLOAD CALLER PUSH1 0x1 PUSH1 0x1 PUSH1 0xA0 SHL SUB SWAP1 SWAP2 AND EQ DUP1 ISZERO PUSH2 0x1D30 JUMPI POP PUSH1 0x1 DUP3 DUP3 PUSH1 0x40 MLOAD PUSH2 0x1D19 SWAP3 SWAP2 SWAP1 PUSH2 0x45B7 JUMP JUMPDEST SWAP1 DUP2 MSTORE PUSH1 0x40 MLOAD SWAP1 DUP2 SWAP1 SUB PUSH1 0x20 ADD SWAP1 KECCAK256 PUSH1 0x7 ADD SLOAD PUSH1 0xFF AND JUMPDEST PUSH2 0x1D99 JUMPI PUSH1 0x40 MLOAD PUSH3 0x461BCD PUSH1 0xE5 SHL DUP2 MSTORE PUSH1 0x20 PUSH1 0x4 DUP3 ADD MSTORE PUSH1 0x34 PUSH1 0x24 DUP3 ADD MSTORE PUSH32 0x596F7520686176656E277420776F6E207468652061756374696F6E206F722069 PUSH1 0x44 DUP3 ADD MSTORE PUSH20 0x7473207374696C6C20696E2070726F6772657373 PUSH1 0x60 SHL PUSH1 0x64 DUP3 ADD MSTORE PUSH1 0x84 ADD PUSH2 0x7C9 JUMP JUMPDEST PUSH1 0x0 PUSH1 0x1 DUP9 DUP9 PUSH1 0x40 MLOAD PUSH2 0x1DAD SWAP3 SWAP2 SWAP1 PUSH2 0x45B7 JUMP JUMPDEST SWAP1 DUP2 MSTORE PUSH1 0x40 MLOAD SWAP1 DUP2 SWAP1 SUB PUSH1 0x20 ADD SWAP1 KECCAK256 SWAP1 POP PUSH1 0x8 DUP2 ADD PUSH2 0x1DCC DUP8 DUP3 PUSH2 0x48A3 JUMP JUMPDEST POP POP POP POP POP POP POP POP POP JUMP JUMPDEST CALLER PUSH1 0x0 SWAP1 DUP2 MSTORE PUSH1 0x2 PUSH1 0x20 MSTORE PUSH1 0x40 SWAP1 KECCAK256 PUSH1 0x1 ADD SLOAD ISZERO PUSH2 0x1E56 JUMPI PUSH1 0x40 MLOAD PUSH3 0x461BCD PUSH1 0xE5 SHL DUP2 MSTORE PUSH1 0x20 PUSH1 0x4 DUP3 ADD MSTORE PUSH1 0x36 PUSH1 0x24 DUP3 ADD MSTORE PUSH32 0x596F752063616E27742072656465656D20746F6B656E73207768696C65206F6E PUSH1 0x44 DUP3 ADD MSTORE PUSH22 0x19DBDA5B99C8185D58DD1A5BDB9CC81C195C9CDA5CDD PUSH1 0x52 SHL PUSH1 0x64 DUP3 ADD MSTORE PUSH1 0x84 ADD PUSH2 0x7C9 JUMP JUMPDEST PUSH1 0x8 SLOAD CALLER PUSH1 0x0 SWAP1 DUP2 MSTORE PUSH1 0x2 PUSH1 0x20 MSTORE PUSH1 0x40 SWAP1 DUP2 SWAP1 KECCAK256 SLOAD SWAP1 MLOAD PUSH4 0x95EA7B3 PUSH1 0xE0 SHL DUP2 MSTORE ADDRESS PUSH1 0x4 DUP3 ADD MSTORE PUSH1 0x24 DUP2 ADD SWAP2 SWAP1 SWAP2 MSTORE PUSH1 0x1 PUSH1 0x1 PUSH1 0xA0 SHL SUB SWAP1 SWAP2 AND SWAP1 PUSH4 0x95EA7B3 SWAP1 PUSH1 0x44 ADD PUSH1 0x20 PUSH1 0x40 MLOAD DUP1 DUP4 SUB DUP2 PUSH1 0x0 DUP8 GAS CALL ISZERO DUP1 ISZERO PUSH2 0x1EB9 JUMPI RETURNDATASIZE PUSH1 0x0 DUP1 RETURNDATACOPY RETURNDATASIZE PUSH1 0x0 REVERT JUMPDEST POP POP POP POP PUSH1 0x40 MLOAD RETURNDATASIZE PUSH1 0x1F NOT PUSH1 0x1F DUP3 ADD AND DUP3 ADD DUP1 PUSH1 0x40 MSTORE POP DUP2 ADD SWAP1 PUSH2 0x1EDD SWAP2 SWAP1 PUSH2 0x4628 JUMP JUMPDEST POP PUSH1 0x8 SLOAD CALLER PUSH1 0x0 DUP2 DUP2 MSTORE PUSH1 0x2 PUSH1 0x20 MSTORE PUSH1 0x40 SWAP1 DUP2 SWAP1 KECCAK256 SLOAD SWAP1 MLOAD PUSH4 0x23B872DD PUSH1 0xE0 SHL DUP2 MSTORE ADDRESS PUSH1 0x4 DUP3 ADD MSTORE PUSH1 0x24 DUP2 ADD SWAP3 SWAP1 SWAP3 MSTORE PUSH1 0x44 DUP3 ADD MSTORE PUSH1 0x1 PUSH1 0x1 PUSH1 0xA0 SHL SUB SWAP1 SWAP2 AND SWAP1 PUSH4 0x23B872DD SWAP1 PUSH1 0x64 ADD PUSH1 0x20 PUSH1 0x40 MLOAD DUP1 DUP4 SUB DUP2 PUSH1 0x0 DUP8 GAS CALL ISZERO DUP1 ISZERO PUSH2 0x1F46 JUMPI RETURNDATASIZE PUSH1 0x0 DUP1 RETURNDATACOPY RETURNDATASIZE PUSH1 0x0 REVERT JUMPDEST POP POP POP POP PUSH1 0x40 MLOAD RETURNDATASIZE PUSH1 0x1F NOT PUSH1 0x1F DUP3 ADD AND DUP3 ADD DUP1 PUSH1 0x40 MSTORE POP DUP2 ADD SWAP1 PUSH2 0x11EE SWAP2 SWAP1 PUSH2 0x4628 JUMP JUMPDEST DUP3 DUP3 PUSH2 0x1F81 PUSH1 0x1 DUP4 DUP4 PUSH1 0x40 MLOAD PUSH2 0x6D9 SWAP3 SWAP2 SWAP1 PUSH2 0x45B7 JUMP JUMPDEST PUSH2 0x1F9D JUMPI PUSH1 0x40 MLOAD PUSH3 0x461BCD PUSH1 0xE5 SHL DUP2 MSTORE PUSH1 0x4 ADD PUSH2 0x7C9 SWAP1 PUSH2 0x45FB JUMP JUMPDEST CALLER PUSH1 0x0 SWAP1 DUP2 MSTORE PUSH1 0x3 PUSH1 0x20 MSTORE PUSH1 0x40 SWAP1 KECCAK256 DUP1 SLOAD PUSH2 0x1FB7 SWAP1 PUSH2 0x45C7 JUMP JUMPDEST SWAP1 POP PUSH1 0x2C EQ PUSH2 0x1FD8 JUMPI PUSH1 0x40 MLOAD PUSH3 0x461BCD PUSH1 0xE5 SHL DUP2 MSTORE PUSH1 0x4 ADD PUSH2 0x7C9 SWAP1 PUSH2 0x495C JUMP JUMPDEST PUSH1 0x0 PUSH1 0x1 DUP7 DUP7 PUSH1 0x40 MLOAD PUSH2 0x1FEC SWAP3 SWAP2 SWAP1 PUSH2 0x45B7 JUMP JUMPDEST SWAP1 DUP2 MSTORE PUSH1 0x40 MLOAD SWAP1 DUP2 SWAP1 SUB PUSH1 0x20 ADD SWAP1 KECCAK256 PUSH1 0x2 DUP2 ADD SLOAD SWAP1 SWAP2 POP CALLER PUSH1 0x1 PUSH1 0x1 PUSH1 0xA0 SHL SUB SWAP2 SWAP1 SWAP2 AND SUB PUSH2 0x2067 JUMPI PUSH1 0x40 MLOAD PUSH3 0x461BCD PUSH1 0xE5 SHL DUP2 MSTORE PUSH1 0x20 PUSH1 0x4 DUP3 ADD MSTORE PUSH1 0x21 PUSH1 0x24 DUP3 ADD MSTORE PUSH32 0x4F776E65722063616E277420626964206F6E2074686569722061756374696F6E PUSH1 0x44 DUP3 ADD MSTORE PUSH1 0x73 PUSH1 0xF8 SHL PUSH1 0x64 DUP3 ADD MSTORE PUSH1 0x84 ADD PUSH2 0x7C9 JUMP JUMPDEST DUP4 DUP2 PUSH1 0x3 ADD SLOAD LT PUSH2 0x20CC JUMPI PUSH1 0x40 MLOAD PUSH3 0x461BCD PUSH1 0xE5 SHL DUP2 MSTORE PUSH1 0x20 PUSH1 0x4 DUP3 ADD MSTORE PUSH1 0x29 PUSH1 0x24 DUP3 ADD MSTORE PUSH32 0x426964206D75737420626520686967686572207468616E207468652072657365 PUSH1 0x44 DUP3 ADD MSTORE PUSH9 0x727665207072696365 PUSH1 0xB8 SHL PUSH1 0x64 DUP3 ADD MSTORE PUSH1 0x84 ADD PUSH2 0x7C9 JUMP JUMPDEST PUSH1 0x7 DUP2 ADD SLOAD PUSH1 0xFF AND ISZERO PUSH2 0x2115 JUMPI PUSH1 0x40 MLOAD PUSH3 0x461BCD PUSH1 0xE5 SHL DUP2 MSTORE PUSH1 0x20 PUSH1 0x4 DUP3 ADD MSTORE PUSH1 0x11 PUSH1 0x24 DUP3 ADD MSTORE PUSH17 0x105D58DD1A5BDB881A185CC8195B991959 PUSH1 0x7A SHL PUSH1 0x44 DUP3 ADD MSTORE PUSH1 0x64 ADD PUSH2 0x7C9 JUMP JUMPDEST DUP1 PUSH1 0x6 ADD SLOAD TIMESTAMP LT PUSH2 0x215E JUMPI PUSH1 0x40 MLOAD PUSH3 0x461BCD PUSH1 0xE5 SHL DUP2 MSTORE PUSH1 0x20 PUSH1 0x4 DUP3 ADD MSTORE PUSH1 0x13 PUSH1 0x24 DUP3 ADD MSTORE PUSH19 0x105D58DD1A5BDB881A185CC8195E1C1A5C9959 PUSH1 0x6A SHL PUSH1 0x44 DUP3 ADD MSTORE PUSH1 0x64 ADD PUSH2 0x7C9 JUMP JUMPDEST DUP1 PUSH1 0x4 ADD SLOAD DUP5 GT PUSH2 0x21C9 JUMPI PUSH1 0x40 MLOAD PUSH3 0x461BCD PUSH1 0xE5 SHL DUP2 MSTORE PUSH1 0x20 PUSH1 0x4 DUP3 ADD MSTORE PUSH1 0x2F PUSH1 0x24 DUP3 ADD MSTORE PUSH32 0x426964206D75737420626520686967686572207468616E207468652063757272 PUSH1 0x44 DUP3 ADD MSTORE PUSH15 0x195B9D081A1A59DA195CDD08189A59 PUSH1 0x8A SHL PUSH1 0x64 DUP3 ADD MSTORE PUSH1 0x84 ADD PUSH2 0x7C9 JUMP JUMPDEST PUSH1 0x8 SLOAD PUSH1 0x40 MLOAD PUSH4 0x23B872DD PUSH1 0xE0 SHL DUP2 MSTORE CALLER PUSH1 0x4 DUP3 ADD MSTORE ADDRESS PUSH1 0x24 DUP3 ADD MSTORE PUSH1 0x44 DUP2 ADD DUP7 SWAP1 MSTORE PUSH1 0x1 PUSH1 0x1 PUSH1 0xA0 SHL SUB SWAP1 SWAP2 AND SWAP1 PUSH4 0x23B872DD SWAP1 PUSH1 0x64 ADD PUSH1 0x20 PUSH1 0x40 MLOAD DUP1 DUP4 SUB DUP2 PUSH1 0x0 DUP8 GAS CALL ISZERO DUP1 ISZERO PUSH2 0x2220 JUMPI RETURNDATASIZE PUSH1 0x0 DUP1 RETURNDATACOPY RETURNDATASIZE PUSH1 0x0 REVERT JUMPDEST POP POP POP POP PUSH1 0x40 MLOAD RETURNDATASIZE PUSH1 0x1F NOT PUSH1 0x1F DUP3 ADD AND DUP3 ADD DUP1 PUSH1 0x40 MSTORE POP DUP2 ADD SWAP1 PUSH2 0x2244 SWAP2 SWAP1 PUSH2 0x4628 JUMP JUMPDEST POP PUSH1 0x5 DUP2 ADD SLOAD PUSH1 0x1 PUSH1 0x1 PUSH1 0xA0 SHL SUB AND ISZERO PUSH2 0x22DB JUMPI PUSH1 0x8 SLOAD PUSH1 0x5 DUP3 ADD SLOAD PUSH1 0x4 DUP1 DUP5 ADD SLOAD PUSH1 0x40 MLOAD PUSH4 0xA9059CBB PUSH1 0xE0 SHL DUP2 MSTORE PUSH1 0x1 PUSH1 0x1 PUSH1 0xA0 SHL SUB SWAP4 DUP5 AND SWAP3 DUP2 ADD SWAP3 SWAP1 SWAP3 MSTORE PUSH1 0x24 DUP3 ADD MSTORE SWAP2 AND SWAP1 PUSH4 0xA9059CBB SWAP1 PUSH1 0x44 ADD PUSH1 0x20 PUSH1 0x40 MLOAD DUP1 DUP4 SUB DUP2 PUSH1 0x0 DUP8 GAS CALL ISZERO DUP1 ISZERO PUSH2 0x22B5 JUMPI RETURNDATASIZE PUSH1 0x0 DUP1 RETURNDATACOPY RETURNDATASIZE PUSH1 0x0 REVERT JUMPDEST POP POP POP POP PUSH1 0x40 MLOAD RETURNDATASIZE PUSH1 0x1F NOT PUSH1 0x1F DUP3 ADD AND DUP3 ADD DUP1 PUSH1 0x40 MSTORE POP DUP2 ADD SWAP1 PUSH2 0x22D9 SWAP2 SWAP1 PUSH2 0x4628 JUMP JUMPDEST POP JUMPDEST PUSH1 0x4 DUP2 ADD DUP5 SWAP1 SSTORE PUSH1 0x5 DUP2 ADD DUP1 SLOAD PUSH1 0x1 PUSH1 0x1 PUSH1 0xA0 SHL SUB NOT AND CALLER OR SWAP1 SSTORE PUSH1 0x6 DUP2 ADD SLOAD PUSH2 0x1F4 SWAP1 PUSH2 0x230A SWAP1 TIMESTAMP SWAP1 PUSH2 0x49B9 JUMP JUMPDEST GT PUSH2 0xC32 JUMPI PUSH1 0x6 DUP2 ADD SLOAD PUSH2 0x231E TIMESTAMP DUP3 PUSH2 0x49B9 JUMP JUMPDEST PUSH2 0x232A SWAP1 PUSH2 0x1F4 PUSH2 0x49B9 JUMP JUMPDEST PUSH2 0x2334 SWAP2 SWAP1 PUSH2 0x47E4 JUMP JUMPDEST PUSH1 0x1 DUP8 DUP8 PUSH1 0x40 MLOAD PUSH2 0x2346 SWAP3 SWAP2 SWAP1 PUSH2 0x45B7 JUMP JUMPDEST SWAP1 DUP2 MSTORE PUSH1 0x40 MLOAD SWAP1 DUP2 SWAP1 SUB PUSH1 0x20 ADD SWAP1 KECCAK256 PUSH1 0x6 ADD SSTORE POP POP POP POP POP POP JUMP JUMPDEST PUSH1 0x0 DUP2 PUSH1 0x40 MLOAD PUSH1 0x20 ADD PUSH2 0x2374 SWAP2 SWAP1 PUSH2 0x49CC JUMP JUMPDEST PUSH1 0x40 MLOAD PUSH1 0x20 DUP2 DUP4 SUB SUB DUP2 MSTORE SWAP1 PUSH1 0x40 MSTORE DUP1 MLOAD SWAP1 PUSH1 0x20 ADD KECCAK256 DUP4 PUSH1 0x40 MLOAD PUSH1 0x20 ADD PUSH2 0x239B SWAP2 SWAP1 PUSH2 0x49CC JUMP JUMPDEST PUSH1 0x40 MLOAD PUSH1 0x20 DUP2 DUP4 SUB SUB DUP2 MSTORE SWAP1 PUSH1 0x40 MSTORE DUP1 MLOAD SWAP1 PUSH1 0x20 ADD KECCAK256 EQ SWAP1 POP JUMPDEST SWAP3 SWAP2 POP POP JUMP JUMPDEST DUP4 DUP4 PUSH2 0x23D2 PUSH1 0x1 DUP4 DUP4 PUSH1 0x40 MLOAD PUSH2 0x6D9 SWAP3 SWAP2 SWAP1 PUSH2 0x45B7 JUMP JUMPDEST PUSH2 0x23EE JUMPI PUSH1 0x40 MLOAD PUSH3 0x461BCD PUSH1 0xE5 SHL DUP2 MSTORE PUSH1 0x4 ADD PUSH2 0x7C9 SWAP1 PUSH2 0x45FB JUMP JUMPDEST PUSH1 0x0 PUSH1 0x1 DUP8 DUP8 PUSH1 0x40 MLOAD PUSH2 0x2402 SWAP3 SWAP2 SWAP1 PUSH2 0x45B7 JUMP JUMPDEST SWAP1 DUP2 MSTORE PUSH1 0x40 MLOAD SWAP1 DUP2 SWAP1 SUB PUSH1 0x20 ADD SWAP1 KECCAK256 PUSH1 0x7 DUP2 ADD SLOAD SWAP1 SWAP2 POP PUSH1 0xFF AND DUP1 ISZERO PUSH2 0x2463 JUMPI POP CALLER PUSH1 0x0 SWAP1 DUP2 MSTORE PUSH1 0x4 PUSH1 0x20 MSTORE PUSH1 0x40 SWAP1 KECCAK256 SLOAD PUSH1 0xFF AND DUP1 PUSH2 0x2463 JUMPI POP PUSH1 0x5 DUP2 ADD SLOAD PUSH1 0x1 PUSH1 0x1 PUSH1 0xA0 SHL SUB AND CALLER EQ DUP1 PUSH2 0x2463 JUMPI POP PUSH1 0x2 DUP2 ADD SLOAD PUSH1 0x1 PUSH1 0x1 PUSH1 0xA0 SHL SUB AND CALLER EQ JUMPDEST PUSH2 0x24CA JUMPI PUSH1 0x40 MLOAD PUSH3 0x461BCD PUSH1 0xE5 SHL DUP2 MSTORE PUSH1 0x20 PUSH1 0x4 DUP3 ADD MSTORE PUSH1 0x32 PUSH1 0x24 DUP3 ADD MSTORE PUSH32 0x596F7520646F206E6F7420686176652070726976696C6567657320746F206368 PUSH1 0x44 DUP3 ADD MSTORE PUSH18 0x617420696E20746869732064697370757465 PUSH1 0x70 SHL PUSH1 0x64 DUP3 ADD MSTORE PUSH1 0x84 ADD PUSH2 0x7C9 JUMP JUMPDEST PUSH1 0xA DUP2 ADD DUP1 SLOAD PUSH1 0x1 DUP2 ADD DUP3 SSTORE PUSH1 0x0 SWAP2 DUP3 MSTORE PUSH1 0x20 SWAP1 SWAP2 KECCAK256 ADD PUSH2 0xEAB DUP6 DUP8 DUP4 PUSH2 0x46A5 JUMP JUMPDEST PUSH1 0x5 SLOAD PUSH1 0x60 SWAP1 PUSH1 0x0 SWAP1 PUSH1 0x1 PUSH1 0x1 PUSH1 0x40 SHL SUB DUP2 GT ISZERO PUSH2 0x250C JUMPI PUSH2 0x250C PUSH2 0x40A1 JUMP JUMPDEST PUSH1 0x40 MLOAD SWAP1 DUP1 DUP3 MSTORE DUP1 PUSH1 0x20 MUL PUSH1 0x20 ADD DUP3 ADD PUSH1 0x40 MSTORE DUP1 ISZERO PUSH2 0x2545 JUMPI DUP2 PUSH1 0x20 ADD JUMPDEST PUSH2 0x2532 PUSH2 0x3C20 JUMP JUMPDEST DUP2 MSTORE PUSH1 0x20 ADD SWAP1 PUSH1 0x1 SWAP1 SUB SWAP1 DUP2 PUSH2 0x252A JUMPI SWAP1 POP JUMPDEST POP SWAP1 POP PUSH1 0x0 JUMPDEST PUSH1 0x5 SLOAD DUP2 LT ISZERO PUSH2 0x29DA JUMPI PUSH1 0x1 PUSH1 0x5 DUP3 DUP2 SLOAD DUP2 LT PUSH2 0x256A JUMPI PUSH2 0x256A PUSH2 0x49E8 JUMP JUMPDEST SWAP1 PUSH1 0x0 MSTORE PUSH1 0x20 PUSH1 0x0 KECCAK256 ADD PUSH1 0x40 MLOAD PUSH2 0x2581 SWAP2 SWAP1 PUSH2 0x49FE JUMP JUMPDEST SWAP1 DUP2 MSTORE PUSH1 0x20 ADD PUSH1 0x40 MLOAD DUP1 SWAP2 SUB SWAP1 KECCAK256 PUSH1 0x40 MLOAD DUP1 PUSH2 0x1C0 ADD PUSH1 0x40 MSTORE SWAP1 DUP2 PUSH1 0x0 DUP3 ADD DUP1 SLOAD PUSH2 0x25AB SWAP1 PUSH2 0x45C7 JUMP JUMPDEST DUP1 PUSH1 0x1F ADD PUSH1 0x20 DUP1 SWAP2 DIV MUL PUSH1 0x20 ADD PUSH1 0x40 MLOAD SWAP1 DUP2 ADD PUSH1 0x40 MSTORE DUP1 SWAP3 SWAP2 SWAP1 DUP2 DUP2 MSTORE PUSH1 0x20 ADD DUP3 DUP1 SLOAD PUSH2 0x25D7 SWAP1 PUSH2 0x45C7 JUMP JUMPDEST DUP1 ISZERO PUSH2 0x2624 JUMPI DUP1 PUSH1 0x1F LT PUSH2 0x25F9 JUMPI PUSH2 0x100 DUP1 DUP4 SLOAD DIV MUL DUP4 MSTORE SWAP2 PUSH1 0x20 ADD SWAP2 PUSH2 0x2624 JUMP JUMPDEST DUP3 ADD SWAP2 SWAP1 PUSH1 0x0 MSTORE PUSH1 0x20 PUSH1 0x0 KECCAK256 SWAP1 JUMPDEST DUP2 SLOAD DUP2 MSTORE SWAP1 PUSH1 0x1 ADD SWAP1 PUSH1 0x20 ADD DUP1 DUP4 GT PUSH2 0x2607 JUMPI DUP3 SWAP1 SUB PUSH1 0x1F AND DUP3 ADD SWAP2 JUMPDEST POP POP POP POP POP DUP2 MSTORE PUSH1 0x20 ADD PUSH1 0x1 DUP3 ADD DUP1 SLOAD PUSH2 0x263D SWAP1 PUSH2 0x45C7 JUMP JUMPDEST DUP1 PUSH1 0x1F ADD PUSH1 0x20 DUP1 SWAP2 DIV MUL PUSH1 0x20 ADD PUSH1 0x40 MLOAD SWAP1 DUP2 ADD PUSH1 0x40 MSTORE DUP1 SWAP3 SWAP2 SWAP1 DUP2 DUP2 MSTORE PUSH1 0x20 ADD DUP3 DUP1 SLOAD PUSH2 0x2669 SWAP1 PUSH2 0x45C7 JUMP JUMPDEST DUP1 ISZERO PUSH2 0x26B6 JUMPI DUP1 PUSH1 0x1F LT PUSH2 0x268B JUMPI PUSH2 0x100 DUP1 DUP4 SLOAD DIV MUL DUP4 MSTORE SWAP2 PUSH1 0x20 ADD SWAP2 PUSH2 0x26B6 JUMP JUMPDEST DUP3 ADD SWAP2 SWAP1 PUSH1 0x0 MSTORE PUSH1 0x20 PUSH1 0x0 KECCAK256 SWAP1 JUMPDEST DUP2 SLOAD DUP2 MSTORE SWAP1 PUSH1 0x1 ADD SWAP1 PUSH1 0x20 ADD DUP1 DUP4 GT PUSH2 0x2699 JUMPI DUP3 SWAP1 SUB PUSH1 0x1F AND DUP3 ADD SWAP2 JUMPDEST POP POP POP SWAP2 DUP4 MSTORE POP POP PUSH1 0x2 DUP3 ADD SLOAD PUSH1 0x1 PUSH1 0x1 PUSH1 0xA0 SHL SUB SWAP1 DUP2 AND PUSH1 0x20 DUP4 ADD MSTORE PUSH1 0x3 DUP4 ADD SLOAD PUSH1 0x40 DUP4 ADD MSTORE PUSH1 0x4 DUP4 ADD SLOAD PUSH1 0x60 DUP4 ADD MSTORE PUSH1 0x5 DUP4 ADD SLOAD AND PUSH1 0x80 DUP3 ADD MSTORE PUSH1 0x6 DUP3 ADD SLOAD PUSH1 0xA0 DUP3 ADD MSTORE PUSH1 0x7 DUP3 ADD SLOAD PUSH1 0xFF AND ISZERO ISZERO PUSH1 0xC0 DUP3 ADD MSTORE PUSH1 0x8 DUP3 ADD DUP1 SLOAD PUSH1 0xE0 SWAP1 SWAP3 ADD SWAP2 PUSH2 0x2720 SWAP1 PUSH2 0x45C7 JUMP JUMPDEST DUP1 PUSH1 0x1F ADD PUSH1 0x20 DUP1 SWAP2 DIV MUL PUSH1 0x20 ADD PUSH1 0x40 MLOAD SWAP1 DUP2 ADD PUSH1 0x40 MSTORE DUP1 SWAP3 SWAP2 SWAP1 DUP2 DUP2 MSTORE PUSH1 0x20 ADD DUP3 DUP1 SLOAD PUSH2 0x274C SWAP1 PUSH2 0x45C7 JUMP JUMPDEST DUP1 ISZERO PUSH2 0x2799 JUMPI DUP1 PUSH1 0x1F LT PUSH2 0x276E JUMPI PUSH2 0x100 DUP1 DUP4 SLOAD DIV MUL DUP4 MSTORE SWAP2 PUSH1 0x20 ADD SWAP2 PUSH2 0x2799 JUMP JUMPDEST DUP3 ADD SWAP2 SWAP1 PUSH1 0x0 MSTORE PUSH1 0x20 PUSH1 0x0 KECCAK256 SWAP1 JUMPDEST DUP2 SLOAD DUP2 MSTORE SWAP1 PUSH1 0x1 ADD SWAP1 PUSH1 0x20 ADD DUP1 DUP4 GT PUSH2 0x277C JUMPI DUP3 SWAP1 SUB PUSH1 0x1F AND DUP3 ADD SWAP2 JUMPDEST POP POP POP POP POP DUP2 MSTORE PUSH1 0x20 ADD PUSH1 0x9 DUP3 ADD DUP1 SLOAD DUP1 PUSH1 0x20 MUL PUSH1 0x20 ADD PUSH1 0x40 MLOAD SWAP1 DUP2 ADD PUSH1 0x40 MSTORE DUP1 SWAP3 SWAP2 SWAP1 DUP2 DUP2 MSTORE PUSH1 0x20 ADD PUSH1 0x0 SWAP1 JUMPDEST DUP3 DUP3 LT ISZERO PUSH2 0x2873 JUMPI DUP4 DUP3 SWAP1 PUSH1 0x0 MSTORE PUSH1 0x20 PUSH1 0x0 KECCAK256 ADD DUP1 SLOAD PUSH2 0x27E6 SWAP1 PUSH2 0x45C7 JUMP JUMPDEST DUP1 PUSH1 0x1F ADD PUSH1 0x20 DUP1 SWAP2 DIV MUL PUSH1 0x20 ADD PUSH1 0x40 MLOAD SWAP1 DUP2 ADD PUSH1 0x40 MSTORE DUP1 SWAP3 SWAP2 SWAP1 DUP2 DUP2 MSTORE PUSH1 0x20 ADD DUP3 DUP1 SLOAD PUSH2 0x2812 SWAP1 PUSH2 0x45C7 JUMP JUMPDEST DUP1 ISZERO PUSH2 0x285F JUMPI DUP1 PUSH1 0x1F LT PUSH2 0x2834 JUMPI PUSH2 0x100 DUP1 DUP4 SLOAD DIV MUL DUP4 MSTORE SWAP2 PUSH1 0x20 ADD SWAP2 PUSH2 0x285F JUMP JUMPDEST DUP3 ADD SWAP2 SWAP1 PUSH1 0x0 MSTORE PUSH1 0x20 PUSH1 0x0 KECCAK256 SWAP1 JUMPDEST DUP2 SLOAD DUP2 MSTORE SWAP1 PUSH1 0x1 ADD SWAP1 PUSH1 0x20 ADD DUP1 DUP4 GT PUSH2 0x2842 JUMPI DUP3 SWAP1 SUB PUSH1 0x1F AND DUP3 ADD SWAP2 JUMPDEST POP POP POP POP POP DUP2 MSTORE PUSH1 0x20 ADD SWAP1 PUSH1 0x1 ADD SWAP1 PUSH2 0x27C7 JUMP JUMPDEST POP POP POP POP DUP2 MSTORE PUSH1 0x20 ADD PUSH1 0xA DUP3 ADD DUP1 SLOAD DUP1 PUSH1 0x20 MUL PUSH1 0x20 ADD PUSH1 0x40 MLOAD SWAP1 DUP2 ADD PUSH1 0x40 MSTORE DUP1 SWAP3 SWAP2 SWAP1 DUP2 DUP2 MSTORE PUSH1 0x20 ADD PUSH1 0x0 SWAP1 JUMPDEST DUP3 DUP3 LT ISZERO PUSH2 0x294C JUMPI DUP4 DUP3 SWAP1 PUSH1 0x0 MSTORE PUSH1 0x20 PUSH1 0x0 KECCAK256 ADD DUP1 SLOAD PUSH2 0x28BF SWAP1 PUSH2 0x45C7 JUMP JUMPDEST DUP1 PUSH1 0x1F ADD PUSH1 0x20 DUP1 SWAP2 DIV MUL PUSH1 0x20 ADD PUSH1 0x40 MLOAD SWAP1 DUP2 ADD PUSH1 0x40 MSTORE DUP1 SWAP3 SWAP2 SWAP1 DUP2 DUP2 MSTORE PUSH1 0x20 ADD DUP3 DUP1 SLOAD PUSH2 0x28EB SWAP1 PUSH2 0x45C7 JUMP JUMPDEST DUP1 ISZERO PUSH2 0x2938 JUMPI DUP1 PUSH1 0x1F LT PUSH2 0x290D JUMPI PUSH2 0x100 DUP1 DUP4 SLOAD DIV MUL DUP4 MSTORE SWAP2 PUSH1 0x20 ADD SWAP2 PUSH2 0x2938 JUMP JUMPDEST DUP3 ADD SWAP2 SWAP1 PUSH1 0x0 MSTORE PUSH1 0x20 PUSH1 0x0 KECCAK256 SWAP1 JUMPDEST DUP2 SLOAD DUP2 MSTORE SWAP1 PUSH1 0x1 ADD SWAP1 PUSH1 0x20 ADD DUP1 DUP4 GT PUSH2 0x291B JUMPI DUP3 SWAP1 SUB PUSH1 0x1F AND DUP3 ADD SWAP2 JUMPDEST POP POP POP POP POP DUP2 MSTORE PUSH1 0x20 ADD SWAP1 PUSH1 0x1 ADD SWAP1 PUSH2 0x28A0 JUMP JUMPDEST POP POP POP SWAP1 DUP3 MSTORE POP PUSH1 0xB DUP3 ADD SLOAD PUSH1 0x20 SWAP1 SWAP2 ADD SWAP1 PUSH1 0xFF AND PUSH1 0x6 DUP2 GT ISZERO PUSH2 0x2972 JUMPI PUSH2 0x2972 PUSH2 0x429E JUMP JUMPDEST PUSH1 0x6 DUP2 GT ISZERO PUSH2 0x2983 JUMPI PUSH2 0x2983 PUSH2 0x429E JUMP JUMPDEST DUP2 MSTORE PUSH1 0xB SWAP2 SWAP1 SWAP2 ADD SLOAD PUSH1 0xFF PUSH2 0x100 DUP3 DIV DUP2 AND PUSH1 0x20 DUP5 ADD MSTORE PUSH3 0x10000 SWAP1 SWAP2 DIV AND PUSH1 0x40 SWAP1 SWAP2 ADD MSTORE DUP3 MLOAD DUP4 SWAP1 DUP4 SWAP1 DUP2 LT PUSH2 0x29BC JUMPI PUSH2 0x29BC PUSH2 0x49E8 JUMP JUMPDEST PUSH1 0x20 MUL PUSH1 0x20 ADD ADD DUP2 SWAP1 MSTORE POP DUP1 DUP1 PUSH2 0x29D2 SWAP1 PUSH2 0x4A74 JUMP JUMPDEST SWAP2 POP POP PUSH2 0x254B JUMP JUMPDEST POP SWAP2 SWAP1 POP JUMP JUMPDEST DUP2 DUP2 PUSH2 0x29F7 PUSH1 0x1 DUP4 DUP4 PUSH1 0x40 MLOAD PUSH2 0x6D9 SWAP3 SWAP2 SWAP1 PUSH2 0x45B7 JUMP JUMPDEST PUSH2 0x2A13 JUMPI PUSH1 0x40 MLOAD PUSH3 0x461BCD PUSH1 0xE5 SHL DUP2 MSTORE PUSH1 0x4 ADD PUSH2 0x7C9 SWAP1 PUSH2 0x45FB JUMP JUMPDEST PUSH1 0x0 PUSH1 0x1 DUP6 DUP6 PUSH1 0x40 MLOAD PUSH2 0x2A27 SWAP3 SWAP2 SWAP1 PUSH2 0x45B7 JUMP JUMPDEST SWAP1 DUP2 MSTORE PUSH1 0x40 MLOAD SWAP1 DUP2 SWAP1 SUB PUSH1 0x20 ADD SWAP1 KECCAK256 PUSH1 0x7 DUP2 ADD SLOAD SWAP1 SWAP2 POP PUSH1 0xFF AND ISZERO PUSH2 0x2A8E JUMPI PUSH1 0x40 MLOAD PUSH3 0x461BCD PUSH1 0xE5 SHL DUP2 MSTORE PUSH1 0x20 PUSH1 0x4 DUP3 ADD MSTORE PUSH1 0x19 PUSH1 0x24 DUP3 ADD MSTORE PUSH32 0x41756374696F6E2068617320616C726561647920656E64656400000000000000 PUSH1 0x44 DUP3 ADD MSTORE PUSH1 0x64 ADD PUSH2 0x7C9 JUMP JUMPDEST DUP1 PUSH1 0x6 ADD SLOAD TIMESTAMP LT ISZERO PUSH2 0x2AE2 JUMPI PUSH1 0x40 MLOAD PUSH3 0x461BCD PUSH1 0xE5 SHL DUP2 MSTORE PUSH1 0x20 PUSH1 0x4 DUP3 ADD MSTORE PUSH1 0x19 PUSH1 0x24 DUP3 ADD MSTORE PUSH32 0x41756374696F6E20686173206E6F742079657420656E64656400000000000000 PUSH1 0x44 DUP3 ADD MSTORE PUSH1 0x64 ADD PUSH2 0x7C9 JUMP JUMPDEST PUSH1 0x2 DUP2 ADD SLOAD PUSH1 0x1 PUSH1 0x1 PUSH1 0xA0 SHL SUB AND CALLER EQ DUP1 PUSH2 0x2B09 JUMPI POP PUSH1 0x5 DUP2 ADD SLOAD PUSH1 0x1 PUSH1 0x1 PUSH1 0xA0 SHL SUB AND CALLER EQ JUMPDEST PUSH2 0x2B73 JUMPI PUSH1 0x40 MLOAD PUSH3 0x461BCD PUSH1 0xE5 SHL DUP2 MSTORE PUSH1 0x20 PUSH1 0x4 DUP3 ADD MSTORE PUSH1 0x35 PUSH1 0x24 DUP3 ADD MSTORE PUSH32 0x4F6E6C79207468652073656C6C6572206F722068696768657374206269646465 PUSH1 0x44 DUP3 ADD MSTORE PUSH21 0x391031B0B71032B732103A34329030BAB1BA34B7B7 PUSH1 0x59 SHL PUSH1 0x64 DUP3 ADD MSTORE PUSH1 0x84 ADD PUSH2 0x7C9 JUMP JUMPDEST PUSH1 0x7 DUP2 ADD DUP1 SLOAD PUSH1 0xFF NOT AND PUSH1 0x1 SWAP1 DUP2 OR SWAP1 SWAP2 SSTORE CALLER PUSH1 0x0 SWAP1 DUP2 MSTORE PUSH1 0x2 PUSH1 0x20 MSTORE PUSH1 0x40 DUP2 KECCAK256 SWAP1 SWAP2 ADD SWAP1 JUMPDEST DUP2 SLOAD DUP2 LT ISZERO PUSH2 0x2D08 JUMPI PUSH2 0x2C6B DUP8 DUP8 DUP1 DUP1 PUSH1 0x1F ADD PUSH1 0x20 DUP1 SWAP2 DIV MUL PUSH1 0x20 ADD PUSH1 0x40 MLOAD SWAP1 DUP2 ADD PUSH1 0x40 MSTORE DUP1 SWAP4 SWAP3 SWAP2 SWAP1 DUP2 DUP2 MSTORE PUSH1 0x20 ADD DUP4 DUP4 DUP1 DUP3 DUP5 CALLDATACOPY PUSH1 0x0 SWAP3 ADD SWAP2 SWAP1 SWAP2 MSTORE POP POP DUP7 SLOAD DUP8 SWAP3 POP PUSH2 0x2BE8 SWAP2 POP PUSH2 0x45C7 JUMP JUMPDEST DUP1 PUSH1 0x1F ADD PUSH1 0x20 DUP1 SWAP2 DIV MUL PUSH1 0x20 ADD PUSH1 0x40 MLOAD SWAP1 DUP2 ADD PUSH1 0x40 MSTORE DUP1 SWAP3 SWAP2 SWAP1 DUP2 DUP2 MSTORE PUSH1 0x20 ADD DUP3 DUP1 SLOAD PUSH2 0x2C14 SWAP1 PUSH2 0x45C7 JUMP JUMPDEST DUP1 ISZERO PUSH2 0x2C61 JUMPI DUP1 PUSH1 0x1F LT PUSH2 0x2C36 JUMPI PUSH2 0x100 DUP1 DUP4 SLOAD DIV MUL DUP4 MSTORE SWAP2 PUSH1 0x20 ADD SWAP2 PUSH2 0x2C61 JUMP JUMPDEST DUP3 ADD SWAP2 SWAP1 PUSH1 0x0 MSTORE PUSH1 0x20 PUSH1 0x0 KECCAK256 SWAP1 JUMPDEST DUP2 SLOAD DUP2 MSTORE SWAP1 PUSH1 0x1 ADD SWAP1 PUSH1 0x20 ADD DUP1 DUP4 GT PUSH2 0x2C44 JUMPI DUP3 SWAP1 SUB PUSH1 0x1F AND DUP3 ADD SWAP2 JUMPDEST POP POP POP POP POP PUSH2 0x2361 JUMP JUMPDEST ISZERO PUSH2 0x2CF6 JUMPI DUP2 SLOAD DUP3 SWAP1 PUSH2 0x2C80 SWAP1 PUSH1 0x1 SWAP1 PUSH2 0x49B9 JUMP JUMPDEST DUP2 SLOAD DUP2 LT PUSH2 0x2C90 JUMPI PUSH2 0x2C90 PUSH2 0x49E8 JUMP JUMPDEST SWAP1 PUSH1 0x0 MSTORE PUSH1 0x20 PUSH1 0x0 KECCAK256 ADD DUP3 DUP3 DUP2 SLOAD DUP2 LT PUSH2 0x2CAC JUMPI PUSH2 0x2CAC PUSH2 0x49E8 JUMP JUMPDEST SWAP1 PUSH1 0x0 MSTORE PUSH1 0x20 PUSH1 0x0 KECCAK256 ADD SWAP1 DUP2 PUSH2 0x2CC2 SWAP2 SWAP1 PUSH2 0x4A8D JUMP JUMPDEST POP DUP2 DUP1 SLOAD DUP1 PUSH2 0x2CD3 JUMPI PUSH2 0x2CD3 PUSH2 0x4B59 JUMP JUMPDEST PUSH1 0x1 SWAP1 SUB DUP2 DUP2 SWAP1 PUSH1 0x0 MSTORE PUSH1 0x20 PUSH1 0x0 KECCAK256 ADD PUSH1 0x0 PUSH2 0x2CEF SWAP2 SWAP1 PUSH2 0x3CB4 JUMP JUMPDEST SWAP1 SSTORE PUSH2 0x2D08 JUMP JUMPDEST DUP1 PUSH2 0x2D00 DUP2 PUSH2 0x4A74 JUMP JUMPDEST SWAP2 POP POP PUSH2 0x2B99 JUMP JUMPDEST POP DUP2 PUSH1 0x4 ADD SLOAD PUSH1 0x0 SUB PUSH2 0xC32 JUMPI POP POP POP POP POP POP JUMP JUMPDEST PUSH1 0x7 SLOAD CALLER PUSH1 0x0 SWAP1 DUP2 MSTORE PUSH1 0x2 PUSH1 0x20 MSTORE PUSH1 0x40 SWAP1 KECCAK256 SLOAD LT ISZERO PUSH2 0x2D94 JUMPI PUSH1 0x40 MLOAD PUSH3 0x461BCD PUSH1 0xE5 SHL DUP2 MSTORE PUSH1 0x20 PUSH1 0x4 DUP3 ADD MSTORE PUSH1 0x2D PUSH1 0x24 DUP3 ADD MSTORE PUSH32 0x4E6F7420656E6F75676820746F6B656E73207374616B656420746F2063726561 PUSH1 0x44 DUP3 ADD MSTORE PUSH13 0x3A329030B71030BAB1BA34B7B7 PUSH1 0x99 SHL PUSH1 0x64 DUP3 ADD MSTORE PUSH1 0x84 ADD PUSH2 0x7C9 JUMP JUMPDEST PUSH1 0x8 SLOAD CALLER PUSH1 0x0 SWAP1 DUP2 MSTORE PUSH1 0x2 PUSH1 0x20 MSTORE PUSH1 0x40 SWAP1 KECCAK256 PUSH1 0x1 ADD SLOAD PUSH1 0x1 PUSH1 0xE0 SHL SWAP1 SWAP2 DIV PUSH1 0xFF AND GT PUSH2 0x2E12 JUMPI PUSH1 0x40 MLOAD PUSH3 0x461BCD PUSH1 0xE5 SHL DUP2 MSTORE PUSH1 0x20 PUSH1 0x4 DUP3 ADD MSTORE PUSH1 0x27 PUSH1 0x24 DUP3 ADD MSTORE PUSH32 0x596F752063616E2774206861766520616E79206D6F7265206163746976652061 PUSH1 0x44 DUP3 ADD MSTORE PUSH7 0x756374696F6E73 PUSH1 0xC8 SHL PUSH1 0x64 DUP3 ADD MSTORE PUSH1 0x84 ADD PUSH2 0x7C9 JUMP JUMPDEST CALLER PUSH1 0x0 SWAP1 DUP2 MSTORE PUSH1 0x3 PUSH1 0x20 MSTORE PUSH1 0x40 SWAP1 KECCAK256 DUP1 SLOAD PUSH2 0x2E2C SWAP1 PUSH2 0x45C7 JUMP JUMPDEST SWAP1 POP PUSH1 0x2C EQ PUSH2 0x2E4D JUMPI PUSH1 0x40 MLOAD PUSH3 0x461BCD PUSH1 0xE5 SHL DUP2 MSTORE PUSH1 0x4 ADD PUSH2 0x7C9 SWAP1 PUSH2 0x495C JUMP JUMPDEST PUSH2 0x2EB3 DUP5 DUP5 DUP1 DUP1 PUSH1 0x1F ADD PUSH1 0x20 DUP1 SWAP2 DIV MUL PUSH1 0x20 ADD PUSH1 0x40 MLOAD SWAP1 DUP2 ADD PUSH1 0x40 MSTORE DUP1 SWAP4 SWAP3 SWAP2 SWAP1 DUP2 DUP2 MSTORE PUSH1 0x20 ADD DUP4 DUP4 DUP1 DUP3 DUP5 CALLDATACOPY PUSH1 0x0 SWAP3 ADD SWAP2 SWAP1 SWAP2 MSTORE POP POP PUSH1 0x40 MLOAD PUSH1 0x1 SWAP3 POP PUSH2 0x2E99 SWAP2 POP DUP9 SWAP1 DUP9 SWAP1 PUSH2 0x45B7 JUMP JUMPDEST SWAP1 DUP2 MSTORE PUSH1 0x40 MLOAD SWAP1 DUP2 SWAP1 SUB PUSH1 0x20 ADD SWAP1 KECCAK256 DUP1 SLOAD PUSH2 0x2BE8 SWAP1 PUSH2 0x45C7 JUMP JUMPDEST ISZERO PUSH2 0x2EF6 JUMPI PUSH1 0x40 MLOAD PUSH3 0x461BCD PUSH1 0xE5 SHL DUP2 MSTORE PUSH1 0x20 PUSH1 0x4 DUP3 ADD MSTORE PUSH1 0x13 PUSH1 0x24 DUP3 ADD MSTORE PUSH19 0x4974656D20616C726561647920657869737473 PUSH1 0x68 SHL PUSH1 0x44 DUP3 ADD MSTORE PUSH1 0x64 ADD PUSH2 0x7C9 JUMP JUMPDEST PUSH1 0x0 DUP2 GT PUSH2 0x2F56 JUMPI PUSH1 0x40 MLOAD PUSH3 0x461BCD PUSH1 0xE5 SHL DUP2 MSTORE PUSH1 0x20 PUSH1 0x4 DUP3 ADD MSTORE PUSH1 0x27 PUSH1 0x24 DUP3 ADD MSTORE PUSH32 0x52657365727665207072696365206D7573742062652067726561746572207468 PUSH1 0x44 DUP3 ADD MSTORE PUSH7 0x616E207A65726F PUSH1 0xC8 SHL PUSH1 0x64 DUP3 ADD MSTORE PUSH1 0x84 ADD PUSH2 0x7C9 JUMP JUMPDEST PUSH1 0x8 SLOAD PUSH1 0x0 SWAP1 PUSH2 0x2F76 SWAP1 PUSH1 0x1 PUSH1 0xA0 SHL SWAP1 DIV PUSH1 0x1 PUSH1 0x1 PUSH1 0x40 SHL SUB AND TIMESTAMP PUSH2 0x47E4 JUMP JUMPDEST SWAP1 POP PUSH1 0x60 PUSH1 0x40 MLOAD DUP1 PUSH2 0x1C0 ADD PUSH1 0x40 MSTORE DUP1 DUP8 DUP8 DUP1 DUP1 PUSH1 0x1F ADD PUSH1 0x20 DUP1 SWAP2 DIV MUL PUSH1 0x20 ADD PUSH1 0x40 MLOAD SWAP1 DUP2 ADD PUSH1 0x40 MSTORE DUP1 SWAP4 SWAP3 SWAP2 SWAP1 DUP2 DUP2 MSTORE PUSH1 0x20 ADD DUP4 DUP4 DUP1 DUP3 DUP5 CALLDATACOPY PUSH1 0x0 SWAP3 ADD DUP3 SWAP1 MSTORE POP SWAP4 DUP6 MSTORE POP POP POP PUSH1 0x20 DUP1 DUP4 ADD DUP9 SWAP1 MSTORE CALLER PUSH1 0x40 DUP1 DUP6 ADD SWAP2 SWAP1 SWAP2 MSTORE PUSH1 0x60 DUP5 ADD DUP9 SWAP1 MSTORE PUSH1 0x80 DUP5 ADD DUP4 SWAP1 MSTORE PUSH1 0xA0 DUP5 ADD DUP4 SWAP1 MSTORE PUSH1 0xC0 DUP5 ADD DUP8 SWAP1 MSTORE PUSH1 0xE0 DUP5 ADD DUP4 SWAP1 MSTORE DUP1 MLOAD SWAP2 DUP3 ADD SWAP1 MSTORE DUP2 DUP2 MSTORE PUSH2 0x100 DUP4 ADD MSTORE PUSH2 0x120 DUP3 ADD DUP5 SWAP1 MSTORE PUSH2 0x140 DUP3 ADD DUP5 SWAP1 MSTORE PUSH2 0x160 SWAP1 SWAP2 ADD SWAP1 DUP2 MSTORE PUSH1 0x0 PUSH1 0x20 DUP3 ADD DUP2 SWAP1 MSTORE PUSH1 0x40 SWAP2 DUP3 ADD MSTORE MLOAD PUSH1 0x1 SWAP1 PUSH2 0x303C SWAP1 DUP10 SWAP1 DUP10 SWAP1 PUSH2 0x45B7 JUMP JUMPDEST SWAP1 DUP2 MSTORE PUSH1 0x40 MLOAD SWAP1 DUP2 SWAP1 SUB PUSH1 0x20 ADD SWAP1 KECCAK256 DUP2 MLOAD DUP2 SWAP1 PUSH2 0x3059 SWAP1 DUP3 PUSH2 0x48A3 JUMP JUMPDEST POP PUSH1 0x20 DUP3 ADD MLOAD PUSH1 0x1 DUP3 ADD SWAP1 PUSH2 0x306E SWAP1 DUP3 PUSH2 0x48A3 JUMP JUMPDEST POP PUSH1 0x40 DUP3 ADD MLOAD PUSH1 0x2 DUP3 ADD DUP1 SLOAD PUSH1 0x1 PUSH1 0x1 PUSH1 0xA0 SHL SUB SWAP3 DUP4 AND PUSH1 0x1 PUSH1 0x1 PUSH1 0xA0 SHL SUB NOT SWAP2 DUP3 AND OR SWAP1 SWAP2 SSTORE PUSH1 0x60 DUP5 ADD MLOAD PUSH1 0x3 DUP5 ADD SSTORE PUSH1 0x80 DUP5 ADD MLOAD PUSH1 0x4 DUP5 ADD SSTORE PUSH1 0xA0 DUP5 ADD MLOAD PUSH1 0x5 DUP5 ADD DUP1 SLOAD SWAP2 SWAP1 SWAP4 AND SWAP2 AND OR SWAP1 SSTORE PUSH1 0xC0 DUP3 ADD MLOAD PUSH1 0x6 DUP3 ADD SSTORE PUSH1 0xE0 DUP3 ADD MLOAD PUSH1 0x7 DUP3 ADD DUP1 SLOAD SWAP2 ISZERO ISZERO PUSH1 0xFF NOT SWAP1 SWAP3 AND SWAP2 SWAP1 SWAP2 OR SWAP1 SSTORE PUSH2 0x100 DUP3 ADD MLOAD PUSH1 0x8 DUP3 ADD SWAP1 PUSH2 0x30F6 SWAP1 DUP3 PUSH2 0x48A3 JUMP JUMPDEST POP PUSH2 0x120 DUP3 ADD MLOAD DUP1 MLOAD PUSH2 0x3113 SWAP2 PUSH1 0x9 DUP5 ADD SWAP2 PUSH1 0x20 SWAP1 SWAP2 ADD SWAP1 PUSH2 0x3BCA JUMP JUMPDEST POP PUSH2 0x140 DUP3 ADD MLOAD DUP1 MLOAD PUSH2 0x3130 SWAP2 PUSH1 0xA DUP5 ADD SWAP2 PUSH1 0x20 SWAP1 SWAP2 ADD SWAP1 PUSH2 0x3BCA JUMP JUMPDEST POP PUSH2 0x160 DUP3 ADD MLOAD PUSH1 0xB DUP3 ADD DUP1 SLOAD PUSH1 0xFF NOT AND PUSH1 0x1 DUP4 PUSH1 0x6 DUP2 GT ISZERO PUSH2 0x3155 JUMPI PUSH2 0x3155 PUSH2 0x429E JUMP JUMPDEST MUL OR SWAP1 SSTORE POP PUSH2 0x180 DUP3 ADD MLOAD PUSH1 0xB SWAP1 SWAP2 ADD DUP1 SLOAD PUSH2 0x1A0 SWAP1 SWAP4 ADD MLOAD PUSH1 0xFF SWAP1 DUP2 AND PUSH3 0x10000 MUL PUSH3 0xFF0000 NOT SWAP2 SWAP1 SWAP4 AND PUSH2 0x100 MUL AND PUSH3 0xFFFF00 NOT SWAP1 SWAP4 AND SWAP3 SWAP1 SWAP3 OR OR SWAP1 SSTORE CALLER PUSH1 0x0 SWAP1 DUP2 MSTORE PUSH1 0x2 PUSH1 0x20 SWAP1 DUP2 MSTORE PUSH1 0x40 DUP3 KECCAK256 PUSH1 0x1 SWAP1 DUP2 ADD DUP1 SLOAD SWAP2 DUP3 ADD DUP2 SSTORE DUP4 MSTORE SWAP2 KECCAK256 ADD PUSH2 0x31C2 DUP7 DUP9 DUP4 PUSH2 0x46A5 JUMP JUMPDEST POP PUSH1 0x5 DUP1 SLOAD PUSH1 0x1 DUP2 ADD DUP3 SSTORE PUSH1 0x0 SWAP2 SWAP1 SWAP2 MSTORE PUSH32 0x36B6384B5ECA791C62761152D0C79BB0604C104A5FB6F4EB0703F3154BB3DB0 ADD PUSH2 0x3200 DUP7 DUP9 DUP4 PUSH2 0x46A5 JUMP JUMPDEST POP DUP6 DUP6 PUSH1 0x40 MLOAD PUSH2 0x3211 SWAP3 SWAP2 SWAP1 PUSH2 0x45B7 JUMP JUMPDEST PUSH1 0x40 MLOAD DUP1 SWAP2 SUB SWAP1 KECCAK256 PUSH32 0x580C79F80D4CB0E438A0D03F153C3DD27D464553DCC2FB869879BC42FD524C3B DUP6 PUSH1 0x40 MLOAD PUSH2 0x3248 SWAP2 SWAP1 PUSH2 0x3E53 JUMP JUMPDEST PUSH1 0x40 MLOAD DUP1 SWAP2 SUB SWAP1 LOG2 POP POP POP POP POP POP JUMP JUMPDEST PUSH1 0x3 PUSH1 0x20 MSTORE PUSH1 0x0 SWAP1 DUP2 MSTORE PUSH1 0x40 SWAP1 KECCAK256 DUP1 SLOAD PUSH2 0x3271 SWAP1 PUSH2 0x45C7 JUMP JUMPDEST DUP1 PUSH1 0x1F ADD PUSH1 0x20 DUP1 SWAP2 DIV MUL PUSH1 0x20 ADD PUSH1 0x40 MLOAD SWAP1 DUP2 ADD PUSH1 0x40 MSTORE DUP1 SWAP3 SWAP2 SWAP1 DUP2 DUP2 MSTORE PUSH1 0x20 ADD DUP3 DUP1 SLOAD PUSH2 0x329D SWAP1 PUSH2 0x45C7 JUMP JUMPDEST DUP1 ISZERO PUSH2 0x32EA JUMPI DUP1 PUSH1 0x1F LT PUSH2 0x32BF JUMPI PUSH2 0x100 DUP1 DUP4 SLOAD DIV MUL DUP4 MSTORE SWAP2 PUSH1 0x20 ADD SWAP2 PUSH2 0x32EA JUMP JUMPDEST DUP3 ADD SWAP2 SWAP1 PUSH1 0x0 MSTORE PUSH1 0x20 PUSH1 0x0 KECCAK256 SWAP1 JUMPDEST DUP2 SLOAD DUP2 MSTORE SWAP1 PUSH1 0x1 ADD SWAP1 PUSH1 0x20 ADD DUP1 DUP4 GT PUSH2 0x32CD JUMPI DUP3 SWAP1 SUB PUSH1 0x1F AND DUP3 ADD SWAP2 JUMPDEST POP POP POP POP POP DUP2 JUMP JUMPDEST DUP1 MLOAD PUSH1 0x20 DUP2 DUP4 ADD DUP2 ADD DUP1 MLOAD PUSH1 0x1 DUP3 MSTORE SWAP3 DUP3 ADD SWAP2 SWAP1 SWAP4 ADD KECCAK256 SWAP2 MSTORE DUP1 SLOAD DUP2 SWAP1 PUSH2 0x3318 SWAP1 PUSH2 0x45C7 JUMP JUMPDEST DUP1 PUSH1 0x1F ADD PUSH1 0x20 DUP1 SWAP2 DIV MUL PUSH1 0x20 ADD PUSH1 0x40 MLOAD SWAP1 DUP2 ADD PUSH1 0x40 MSTORE DUP1 SWAP3 SWAP2 SWAP1 DUP2 DUP2 MSTORE PUSH1 0x20 ADD DUP3 DUP1 SLOAD PUSH2 0x3344 SWAP1 PUSH2 0x45C7 JUMP JUMPDEST DUP1 ISZERO PUSH2 0x3391 JUMPI DUP1 PUSH1 0x1F LT PUSH2 0x3366 JUMPI PUSH2 0x100 DUP1 DUP4 SLOAD DIV MUL DUP4 MSTORE SWAP2 PUSH1 0x20 ADD SWAP2 PUSH2 0x3391 JUMP JUMPDEST DUP3 ADD SWAP2 SWAP1 PUSH1 0x0 MSTORE PUSH1 0x20 PUSH1 0x0 KECCAK256 SWAP1 JUMPDEST DUP2 SLOAD DUP2 MSTORE SWAP1 PUSH1 0x1 ADD SWAP1 PUSH1 0x20 ADD DUP1 DUP4 GT PUSH2 0x3374 JUMPI DUP3 SWAP1 SUB PUSH1 0x1F AND DUP3 ADD SWAP2 JUMPDEST POP POP POP POP POP SWAP1 DUP1 PUSH1 0x1 ADD DUP1 SLOAD PUSH2 0x33A6 SWAP1 PUSH2 0x45C7 JUMP JUMPDEST DUP1 PUSH1 0x1F ADD PUSH1 0x20 DUP1 SWAP2 DIV MUL PUSH1 0x20 ADD PUSH1 0x40 MLOAD SWAP1 DUP2 ADD PUSH1 0x40 MSTORE DUP1 SWAP3 SWAP2 SWAP1 DUP2 DUP2 MSTORE PUSH1 0x20 ADD DUP3 DUP1 SLOAD PUSH2 0x33D2 SWAP1 PUSH2 0x45C7 JUMP JUMPDEST DUP1 ISZERO PUSH2 0x341F JUMPI DUP1 PUSH1 0x1F LT PUSH2 0x33F4 JUMPI PUSH2 0x100 DUP1 DUP4 SLOAD DIV MUL DUP4 MSTORE SWAP2 PUSH1 0x20 ADD SWAP2 PUSH2 0x341F JUMP JUMPDEST DUP3 ADD SWAP2 SWAP1 PUSH1 0x0 MSTORE PUSH1 0x20 PUSH1 0x0 KECCAK256 SWAP1 JUMPDEST DUP2 SLOAD DUP2 MSTORE SWAP1 PUSH1 0x1 ADD SWAP1 PUSH1 0x20 ADD DUP1 DUP4 GT PUSH2 0x3402 JUMPI DUP3 SWAP1 SUB PUSH1 0x1F AND DUP3 ADD SWAP2 JUMPDEST POP POP POP POP PUSH1 0x2 DUP4 ADD SLOAD PUSH1 0x3 DUP5 ADD SLOAD PUSH1 0x4 DUP6 ADD SLOAD PUSH1 0x5 DUP7 ADD SLOAD PUSH1 0x6 DUP8 ADD SLOAD PUSH1 0x7 DUP9 ADD SLOAD PUSH1 0x8 DUP10 ADD DUP1 SLOAD SWAP9 SWAP10 PUSH1 0x1 PUSH1 0x1 PUSH1 0xA0 SHL SUB SWAP8 DUP9 AND SWAP10 SWAP7 SWAP9 POP SWAP5 SWAP7 SWAP1 SWAP4 AND SWAP5 SWAP2 SWAP4 PUSH1 0xFF SWAP1 SWAP2 AND SWAP3 SWAP1 SWAP2 PUSH2 0x3471 SWAP1 PUSH2 0x45C7 JUMP JUMPDEST DUP1 PUSH1 0x1F ADD PUSH1 0x20 DUP1 SWAP2 DIV MUL PUSH1 0x20 ADD PUSH1 0x40 MLOAD SWAP1 DUP2 ADD PUSH1 0x40 MSTORE DUP1 SWAP3 SWAP2 SWAP1 DUP2 DUP2 MSTORE PUSH1 0x20 ADD DUP3 DUP1 SLOAD PUSH2 0x349D SWAP1 PUSH2 0x45C7 JUMP JUMPDEST DUP1 ISZERO PUSH2 0x34EA JUMPI DUP1 PUSH1 0x1F LT PUSH2 0x34BF JUMPI PUSH2 0x100 DUP1 DUP4 SLOAD DIV MUL DUP4 MSTORE SWAP2 PUSH1 0x20 ADD SWAP2 PUSH2 0x34EA JUMP JUMPDEST DUP3 ADD SWAP2 SWAP1 PUSH1 0x0 MSTORE PUSH1 0x20 PUSH1 0x0 KECCAK256 SWAP1 JUMPDEST DUP2 SLOAD DUP2 MSTORE SWAP1 PUSH1 0x1 ADD SWAP1 PUSH1 0x20 ADD DUP1 DUP4 GT PUSH2 0x34CD JUMPI DUP3 SWAP1 SUB PUSH1 0x1F AND DUP3 ADD SWAP2 JUMPDEST POP POP POP PUSH1 0xB SWAP1 SWAP4 ADD SLOAD SWAP2 SWAP3 POP POP PUSH1 0xFF DUP1 DUP3 AND SWAP2 PUSH2 0x100 DUP2 DIV DUP3 AND SWAP2 PUSH3 0x10000 SWAP1 SWAP2 DIV AND DUP13 JUMP JUMPDEST PUSH1 0x6 SLOAD PUSH1 0x60 SWAP1 PUSH1 0x0 SWAP1 PUSH1 0x1 PUSH1 0x1 PUSH1 0x40 SHL SUB DUP2 GT ISZERO PUSH2 0x3530 JUMPI PUSH2 0x3530 PUSH2 0x40A1 JUMP JUMPDEST PUSH1 0x40 MLOAD SWAP1 DUP1 DUP3 MSTORE DUP1 PUSH1 0x20 MUL PUSH1 0x20 ADD DUP3 ADD PUSH1 0x40 MSTORE DUP1 ISZERO PUSH2 0x3569 JUMPI DUP2 PUSH1 0x20 ADD JUMPDEST PUSH2 0x3556 PUSH2 0x3C20 JUMP JUMPDEST DUP2 MSTORE PUSH1 0x20 ADD SWAP1 PUSH1 0x1 SWAP1 SUB SWAP1 DUP2 PUSH2 0x354E JUMPI SWAP1 POP JUMPDEST POP SWAP1 POP PUSH1 0x0 JUMPDEST PUSH1 0x5 SLOAD DUP2 LT ISZERO PUSH2 0x29DA JUMPI PUSH1 0x1 PUSH1 0x6 DUP3 DUP2 SLOAD DUP2 LT PUSH2 0x358E JUMPI PUSH2 0x358E PUSH2 0x49E8 JUMP JUMPDEST SWAP1 PUSH1 0x0 MSTORE PUSH1 0x20 PUSH1 0x0 KECCAK256 ADD PUSH1 0x40 MLOAD PUSH2 0x35A5 SWAP2 SWAP1 PUSH2 0x49FE JUMP JUMPDEST SWAP1 DUP2 MSTORE PUSH1 0x20 ADD PUSH1 0x40 MLOAD DUP1 SWAP2 SUB SWAP1 KECCAK256 PUSH1 0x40 MLOAD DUP1 PUSH2 0x1C0 ADD PUSH1 0x40 MSTORE SWAP1 DUP2 PUSH1 0x0 DUP3 ADD DUP1 SLOAD PUSH2 0x35CF SWAP1 PUSH2 0x45C7 JUMP JUMPDEST DUP1 PUSH1 0x1F ADD PUSH1 0x20 DUP1 SWAP2 DIV MUL PUSH1 0x20 ADD PUSH1 0x40 MLOAD SWAP1 DUP2 ADD PUSH1 0x40 MSTORE DUP1 SWAP3 SWAP2 SWAP1 DUP2 DUP2 MSTORE PUSH1 0x20 ADD DUP3 DUP1 SLOAD PUSH2 0x35FB SWAP1 PUSH2 0x45C7 JUMP JUMPDEST DUP1 ISZERO PUSH2 0x3648 JUMPI DUP1 PUSH1 0x1F LT PUSH2 0x361D JUMPI PUSH2 0x100 DUP1 DUP4 SLOAD DIV MUL DUP4 MSTORE SWAP2 PUSH1 0x20 ADD SWAP2 PUSH2 0x3648 JUMP JUMPDEST DUP3 ADD SWAP2 SWAP1 PUSH1 0x0 MSTORE PUSH1 0x20 PUSH1 0x0 KECCAK256 SWAP1 JUMPDEST DUP2 SLOAD DUP2 MSTORE SWAP1 PUSH1 0x1 ADD SWAP1 PUSH1 0x20 ADD DUP1 DUP4 GT PUSH2 0x362B JUMPI DUP3 SWAP1 SUB PUSH1 0x1F AND DUP3 ADD SWAP2 JUMPDEST POP POP POP POP POP DUP2 MSTORE PUSH1 0x20 ADD PUSH1 0x1 DUP3 ADD DUP1 SLOAD PUSH2 0x3661 SWAP1 PUSH2 0x45C7 JUMP JUMPDEST DUP1 PUSH1 0x1F ADD PUSH1 0x20 DUP1 SWAP2 DIV MUL PUSH1 0x20 ADD PUSH1 0x40 MLOAD SWAP1 DUP2 ADD PUSH1 0x40 MSTORE DUP1 SWAP3 SWAP2 SWAP1 DUP2 DUP2 MSTORE PUSH1 0x20 ADD DUP3 DUP1 SLOAD PUSH2 0x368D SWAP1 PUSH2 0x45C7 JUMP JUMPDEST DUP1 ISZERO PUSH2 0x36DA JUMPI DUP1 PUSH1 0x1F LT PUSH2 0x36AF JUMPI PUSH2 0x100 DUP1 DUP4 SLOAD DIV MUL DUP4 MSTORE SWAP2 PUSH1 0x20 ADD SWAP2 PUSH2 0x36DA JUMP JUMPDEST DUP3 ADD SWAP2 SWAP1 PUSH1 0x0 MSTORE PUSH1 0x20 PUSH1 0x0 KECCAK256 SWAP1 JUMPDEST DUP2 SLOAD DUP2 MSTORE SWAP1 PUSH1 0x1 ADD SWAP1 PUSH1 0x20 ADD DUP1 DUP4 GT PUSH2 0x36BD JUMPI DUP3 SWAP1 SUB PUSH1 0x1F AND DUP3 ADD SWAP2 JUMPDEST POP POP POP SWAP2 DUP4 MSTORE POP POP PUSH1 0x2 DUP3 ADD SLOAD PUSH1 0x1 PUSH1 0x1 PUSH1 0xA0 SHL SUB SWAP1 DUP2 AND PUSH1 0x20 DUP4 ADD MSTORE PUSH1 0x3 DUP4 ADD SLOAD PUSH1 0x40 DUP4 ADD MSTORE PUSH1 0x4 DUP4 ADD SLOAD PUSH1 0x60 DUP4 ADD MSTORE PUSH1 0x5 DUP4 ADD SLOAD AND PUSH1 0x80 DUP3 ADD MSTORE PUSH1 0x6 DUP3 ADD SLOAD PUSH1 0xA0 DUP3 ADD MSTORE PUSH1 0x7 DUP3 ADD SLOAD PUSH1 0xFF AND ISZERO ISZERO PUSH1 0xC0 DUP3 ADD MSTORE PUSH1 0x8 DUP3 ADD DUP1 SLOAD PUSH1 0xE0 SWAP1 SWAP3 ADD SWAP2 PUSH2 0x3744 SWAP1 PUSH2 0x45C7 JUMP JUMPDEST DUP1 PUSH1 0x1F ADD PUSH1 0x20 DUP1 SWAP2 DIV MUL PUSH1 0x20 ADD PUSH1 0x40 MLOAD SWAP1 DUP2 ADD PUSH1 0x40 MSTORE DUP1 SWAP3 SWAP2 SWAP1 DUP2 DUP2 MSTORE PUSH1 0x20 ADD DUP3 DUP1 SLOAD PUSH2 0x3770 SWAP1 PUSH2 0x45C7 JUMP JUMPDEST DUP1 ISZERO PUSH2 0x37BD JUMPI DUP1 PUSH1 0x1F LT PUSH2 0x3792 JUMPI PUSH2 0x100 DUP1 DUP4 SLOAD DIV MUL DUP4 MSTORE SWAP2 PUSH1 0x20 ADD SWAP2 PUSH2 0x37BD JUMP JUMPDEST DUP3 ADD SWAP2 SWAP1 PUSH1 0x0 MSTORE PUSH1 0x20 PUSH1 0x0 KECCAK256 SWAP1 JUMPDEST DUP2 SLOAD DUP2 MSTORE SWAP1 PUSH1 0x1 ADD SWAP1 PUSH1 0x20 ADD DUP1 DUP4 GT PUSH2 0x37A0 JUMPI DUP3 SWAP1 SUB PUSH1 0x1F AND DUP3 ADD SWAP2 JUMPDEST POP POP POP POP POP DUP2 MSTORE PUSH1 0x20 ADD PUSH1 0x9 DUP3 ADD DUP1 SLOAD DUP1 PUSH1 0x20 MUL PUSH1 0x20 ADD PUSH1 0x40 MLOAD SWAP1 DUP2 ADD PUSH1 0x40 MSTORE DUP1 SWAP3 SWAP2 SWAP1 DUP2 DUP2 MSTORE PUSH1 0x20 ADD PUSH1 0x0 SWAP1 JUMPDEST DUP3 DUP3 LT ISZERO PUSH2 0x3897 JUMPI DUP4 DUP3 SWAP1 PUSH1 0x0 MSTORE PUSH1 0x20 PUSH1 0x0 KECCAK256 ADD DUP1 SLOAD PUSH2 0x380A SWAP1 PUSH2 0x45C7 JUMP JUMPDEST DUP1 PUSH1 0x1F ADD PUSH1 0x20 DUP1 SWAP2 DIV MUL PUSH1 0x20 ADD PUSH1 0x40 MLOAD SWAP1 DUP2 ADD PUSH1 0x40 MSTORE DUP1 SWAP3 SWAP2 SWAP1 DUP2 DUP2 MSTORE PUSH1 0x20 ADD DUP3 DUP1 SLOAD PUSH2 0x3836 SWAP1 PUSH2 0x45C7 JUMP JUMPDEST DUP1 ISZERO PUSH2 0x3883 JUMPI DUP1 PUSH1 0x1F LT PUSH2 0x3858 JUMPI PUSH2 0x100 DUP1 DUP4 SLOAD DIV MUL DUP4 MSTORE SWAP2 PUSH1 0x20 ADD SWAP2 PUSH2 0x3883 JUMP JUMPDEST DUP3 ADD SWAP2 SWAP1 PUSH1 0x0 MSTORE PUSH1 0x20 PUSH1 0x0 KECCAK256 SWAP1 JUMPDEST DUP2 SLOAD DUP2 MSTORE SWAP1 PUSH1 0x1 ADD SWAP1 PUSH1 0x20 ADD DUP1 DUP4 GT PUSH2 0x3866 JUMPI DUP3 SWAP1 SUB PUSH1 0x1F AND DUP3 ADD SWAP2 JUMPDEST POP POP POP POP POP DUP2 MSTORE PUSH1 0x20 ADD SWAP1 PUSH1 0x1 ADD SWAP1 PUSH2 0x37EB JUMP JUMPDEST POP POP POP POP DUP2 MSTORE PUSH1 0x20 ADD PUSH1 0xA DUP3 ADD DUP1 SLOAD DUP1 PUSH1 0x20 MUL PUSH1 0x20 ADD PUSH1 0x40 MLOAD SWAP1 DUP2 ADD PUSH1 0x40 MSTORE DUP1 SWAP3 SWAP2 SWAP1 DUP2 DUP2 MSTORE PUSH1 0x20 ADD PUSH1 0x0 SWAP1 JUMPDEST DUP3 DUP3 LT ISZERO PUSH2 0x3970 JUMPI DUP4 DUP3 SWAP1 PUSH1 0x0 MSTORE PUSH1 0x20 PUSH1 0x0 KECCAK256 ADD DUP1 SLOAD PUSH2 0x38E3 SWAP1 PUSH2 0x45C7 JUMP JUMPDEST DUP1 PUSH1 0x1F ADD PUSH1 0x20 DUP1 SWAP2 DIV MUL PUSH1 0x20 ADD PUSH1 0x40 MLOAD SWAP1 DUP2 ADD PUSH1 0x40 MSTORE DUP1 SWAP3 SWAP2 SWAP1 DUP2 DUP2 MSTORE PUSH1 0x20 ADD DUP3 DUP1 SLOAD PUSH2 0x390F SWAP1 PUSH2 0x45C7 JUMP JUMPDEST DUP1 ISZERO PUSH2 0x395C JUMPI DUP1 PUSH1 0x1F LT PUSH2 0x3931 JUMPI PUSH2 0x100 DUP1 DUP4 SLOAD DIV MUL DUP4 MSTORE SWAP2 PUSH1 0x20 ADD SWAP2 PUSH2 0x395C JUMP JUMPDEST DUP3 ADD SWAP2 SWAP1 PUSH1 0x0 MSTORE PUSH1 0x20 PUSH1 0x0 KECCAK256 SWAP1 JUMPDEST DUP2 SLOAD DUP2 MSTORE SWAP1 PUSH1 0x1 ADD SWAP1 PUSH1 0x20 ADD DUP1 DUP4 GT PUSH2 0x393F JUMPI DUP3 SWAP1 SUB PUSH1 0x1F AND DUP3 ADD SWAP2 JUMPDEST POP POP POP POP POP DUP2 MSTORE PUSH1 0x20 ADD SWAP1 PUSH1 0x1 ADD SWAP1 PUSH2 0x38C4 JUMP JUMPDEST POP POP POP SWAP1 DUP3 MSTORE POP PUSH1 0xB DUP3 ADD SLOAD PUSH1 0x20 SWAP1 SWAP2 ADD SWAP1 PUSH1 0xFF AND PUSH1 0x6 DUP2 GT ISZERO PUSH2 0x3996 JUMPI PUSH2 0x3996 PUSH2 0x429E JUMP JUMPDEST PUSH1 0x6 DUP2 GT ISZERO PUSH2 0x39A7 JUMPI PUSH2 0x39A7 PUSH2 0x429E JUMP JUMPDEST DUP2 MSTORE PUSH1 0xB SWAP2 SWAP1 SWAP2 ADD SLOAD PUSH1 0xFF PUSH2 0x100 DUP3 DIV DUP2 AND PUSH1 0x20 DUP5 ADD MSTORE PUSH3 0x10000 SWAP1 SWAP2 DIV AND PUSH1 0x40 SWAP1 SWAP2 ADD MSTORE DUP3 MLOAD DUP4 SWAP1 DUP4 SWAP1 DUP2 LT PUSH2 0x39E0 JUMPI PUSH2 0x39E0 PUSH2 0x49E8 JUMP JUMPDEST PUSH1 0x20 MUL PUSH1 0x20 ADD ADD DUP2 SWAP1 MSTORE POP DUP1 DUP1 PUSH2 0x39F6 SWAP1 PUSH2 0x4A74 JUMP JUMPDEST SWAP2 POP POP PUSH2 0x356F JUMP JUMPDEST PUSH2 0x3A06 PUSH2 0x3B20 JUMP JUMPDEST PUSH1 0x1 PUSH1 0x1 PUSH1 0xA0 SHL SUB DUP2 AND PUSH2 0x3A6B JUMPI PUSH1 0x40 MLOAD PUSH3 0x461BCD PUSH1 0xE5 SHL DUP2 MSTORE PUSH1 0x20 PUSH1 0x4 DUP3 ADD MSTORE PUSH1 0x26 PUSH1 0x24 DUP3 ADD MSTORE PUSH32 0x4F776E61626C653A206E6577206F776E657220697320746865207A65726F2061 PUSH1 0x44 DUP3 ADD MSTORE PUSH6 0x646472657373 PUSH1 0xD0 SHL PUSH1 0x64 DUP3 ADD MSTORE PUSH1 0x84 ADD PUSH2 0x7C9 JUMP JUMPDEST PUSH2 0x11EE DUP2 PUSH2 0x3B7A JUMP JUMPDEST PUSH1 0x1 PUSH1 0x1 PUSH1 0xA0 SHL SUB DUP2 AND PUSH1 0x0 SWAP1 DUP2 MSTORE PUSH1 0x3 PUSH1 0x20 MSTORE PUSH1 0x40 SWAP1 KECCAK256 DUP1 SLOAD PUSH1 0x60 SWAP2 SWAP1 PUSH2 0x3A9B SWAP1 PUSH2 0x45C7 JUMP JUMPDEST DUP1 PUSH1 0x1F ADD PUSH1 0x20 DUP1 SWAP2 DIV MUL PUSH1 0x20 ADD PUSH1 0x40 MLOAD SWAP1 DUP2 ADD PUSH1 0x40 MSTORE DUP1 SWAP3 SWAP2 SWAP1 DUP2 DUP2 MSTORE PUSH1 0x20 ADD DUP3 DUP1 SLOAD PUSH2 0x3AC7 SWAP1 PUSH2 0x45C7 JUMP JUMPDEST DUP1 ISZERO PUSH2 0x3B14 JUMPI DUP1 PUSH1 0x1F LT PUSH2 0x3AE9 JUMPI PUSH2 0x100 DUP1 DUP4 SLOAD DIV MUL DUP4 MSTORE SWAP2 PUSH1 0x20 ADD SWAP2 PUSH2 0x3B14 JUMP JUMPDEST DUP3 ADD SWAP2 SWAP1 PUSH1 0x0 MSTORE PUSH1 0x20 PUSH1 0x0 KECCAK256 SWAP1 JUMPDEST DUP2 SLOAD DUP2 MSTORE SWAP1 PUSH1 0x1 ADD SWAP1 PUSH1 0x20 ADD DUP1 DUP4 GT PUSH2 0x3AF7 JUMPI DUP3 SWAP1 SUB PUSH1 0x1F AND DUP3 ADD SWAP2 JUMPDEST POP POP POP POP POP SWAP1 POP SWAP2 SWAP1 POP JUMP JUMPDEST PUSH1 0x0 SLOAD PUSH1 0x1 PUSH1 0x1 PUSH1 0xA0 SHL SUB AND CALLER EQ PUSH2 0xFCA JUMPI PUSH1 0x40 MLOAD PUSH3 0x461BCD PUSH1 0xE5 SHL DUP2 MSTORE PUSH1 0x20 PUSH1 0x4 DUP3 ADD DUP2 SWAP1 MSTORE PUSH1 0x24 DUP3 ADD MSTORE PUSH32 0x4F776E61626C653A2063616C6C6572206973206E6F7420746865206F776E6572 PUSH1 0x44 DUP3 ADD MSTORE PUSH1 0x64 ADD PUSH2 0x7C9 JUMP JUMPDEST PUSH1 0x0 DUP1 SLOAD PUSH1 0x1 PUSH1 0x1 PUSH1 0xA0 SHL SUB DUP4 DUP2 AND PUSH1 0x1 PUSH1 0x1 PUSH1 0xA0 SHL SUB NOT DUP4 AND DUP2 OR DUP5 SSTORE PUSH1 0x40 MLOAD SWAP2 SWAP1 SWAP3 AND SWAP3 DUP4 SWAP2 PUSH32 0x8BE0079C531659141344CD1FD0A4F28419497F9722A3DAAFE3B4186F6B6457E0 SWAP2 SWAP1 LOG3 POP POP JUMP JUMPDEST DUP3 DUP1 SLOAD DUP3 DUP3 SSTORE SWAP1 PUSH1 0x0 MSTORE PUSH1 0x20 PUSH1 0x0 KECCAK256 SWAP1 DUP2 ADD SWAP3 DUP3 ISZERO PUSH2 0x3C10 JUMPI SWAP2 PUSH1 0x20 MUL DUP3 ADD JUMPDEST DUP3 DUP2 GT ISZERO PUSH2 0x3C10 JUMPI DUP3 MLOAD DUP3 SWAP1 PUSH2 0x3C00 SWAP1 DUP3 PUSH2 0x48A3 JUMP JUMPDEST POP SWAP2 PUSH1 0x20 ADD SWAP2 SWAP1 PUSH1 0x1 ADD SWAP1 PUSH2 0x3BEA JUMP JUMPDEST POP PUSH2 0x3C1C SWAP3 SWAP2 POP PUSH2 0x3CEE JUMP JUMPDEST POP SWAP1 JUMP JUMPDEST PUSH1 0x40 MLOAD DUP1 PUSH2 0x1C0 ADD PUSH1 0x40 MSTORE DUP1 PUSH1 0x60 DUP2 MSTORE PUSH1 0x20 ADD PUSH1 0x60 DUP2 MSTORE PUSH1 0x20 ADD PUSH1 0x0 PUSH1 0x1 PUSH1 0x1 PUSH1 0xA0 SHL SUB AND DUP2 MSTORE PUSH1 0x20 ADD PUSH1 0x0 DUP2 MSTORE PUSH1 0x20 ADD PUSH1 0x0 DUP2 MSTORE PUSH1 0x20 ADD PUSH1 0x0 PUSH1 0x1 PUSH1 0x1 PUSH1 0xA0 SHL SUB AND DUP2 MSTORE PUSH1 0x20 ADD PUSH1 0x0 DUP2 MSTORE PUSH1 0x20 ADD PUSH1 0x0 ISZERO ISZERO DUP2 MSTORE PUSH1 0x20 ADD PUSH1 0x60 DUP2 MSTORE PUSH1 0x20 ADD PUSH1 0x60 DUP2 MSTORE PUSH1 0x20 ADD PUSH1 0x60 DUP2 MSTORE PUSH1 0x20 ADD PUSH1 0x0 PUSH1 0x6 DUP2 GT ISZERO PUSH2 0x3CA0 JUMPI PUSH2 0x3CA0 PUSH2 0x429E JUMP JUMPDEST DUP2 MSTORE PUSH1 0x0 PUSH1 0x20 DUP3 ADD DUP2 SWAP1 MSTORE PUSH1 0x40 SWAP1 SWAP2 ADD MSTORE SWAP1 JUMP JUMPDEST POP DUP1 SLOAD PUSH2 0x3CC0 SWAP1 PUSH2 0x45C7 JUMP JUMPDEST PUSH1 0x0 DUP3 SSTORE DUP1 PUSH1 0x1F LT PUSH2 0x3CD0 JUMPI POP POP JUMP JUMPDEST PUSH1 0x1F ADD PUSH1 0x20 SWAP1 DIV SWAP1 PUSH1 0x0 MSTORE PUSH1 0x20 PUSH1 0x0 KECCAK256 SWAP1 DUP2 ADD SWAP1 PUSH2 0x11EE SWAP2 SWAP1 PUSH2 0x3D0B JUMP JUMPDEST DUP1 DUP3 GT ISZERO PUSH2 0x3C1C JUMPI PUSH1 0x0 PUSH2 0x3D02 DUP3 DUP3 PUSH2 0x3CB4 JUMP JUMPDEST POP PUSH1 0x1 ADD PUSH2 0x3CEE JUMP JUMPDEST JUMPDEST DUP1 DUP3 GT ISZERO PUSH2 0x3C1C JUMPI PUSH1 0x0 DUP2 SSTORE PUSH1 0x1 ADD PUSH2 0x3D0C JUMP JUMPDEST PUSH1 0x0 DUP1 DUP4 PUSH1 0x1F DUP5 ADD SLT PUSH2 0x3D32 JUMPI PUSH1 0x0 DUP1 REVERT JUMPDEST POP DUP2 CALLDATALOAD PUSH1 0x1 PUSH1 0x1 PUSH1 0x40 SHL SUB DUP2 GT ISZERO PUSH2 0x3D49 JUMPI PUSH1 0x0 DUP1 REVERT JUMPDEST PUSH1 0x20 DUP4 ADD SWAP2 POP DUP4 PUSH1 0x20 DUP3 DUP6 ADD ADD GT ISZERO PUSH2 0x3D61 JUMPI PUSH1 0x0 DUP1 REVERT JUMPDEST SWAP3 POP SWAP3 SWAP1 POP JUMP JUMPDEST PUSH1 0x0 DUP1 PUSH1 0x0 PUSH1 0x40 DUP5 DUP7 SUB SLT ISZERO PUSH2 0x3D7D JUMPI PUSH1 0x0 DUP1 REVERT JUMPDEST DUP4 CALLDATALOAD PUSH1 0x1 PUSH1 0x1 PUSH1 0x40 SHL SUB DUP2 GT ISZERO PUSH2 0x3D93 JUMPI PUSH1 0x0 DUP1 REVERT JUMPDEST PUSH2 0x3D9F DUP7 DUP3 DUP8 ADD PUSH2 0x3D20 JUMP JUMPDEST SWAP1 SWAP5 POP SWAP3 POP POP PUSH1 0x20 DUP5 ADD CALLDATALOAD PUSH1 0x7 DUP2 LT PUSH2 0x3DB7 JUMPI PUSH1 0x0 DUP1 REVERT JUMPDEST DUP1 SWAP2 POP POP SWAP3 POP SWAP3 POP SWAP3 JUMP JUMPDEST PUSH1 0x0 DUP1 PUSH1 0x20 DUP4 DUP6 SUB SLT ISZERO PUSH2 0x3DD5 JUMPI PUSH1 0x0 DUP1 REVERT JUMPDEST DUP3 CALLDATALOAD PUSH1 0x1 PUSH1 0x1 PUSH1 0x40 SHL SUB DUP2 GT ISZERO PUSH2 0x3DEB JUMPI PUSH1 0x0 DUP1 REVERT JUMPDEST PUSH2 0x3DF7 DUP6 DUP3 DUP7 ADD PUSH2 0x3D20 JUMP JUMPDEST SWAP1 SWAP7 SWAP1 SWAP6 POP SWAP4 POP POP POP POP JUMP JUMPDEST PUSH1 0x0 JUMPDEST DUP4 DUP2 LT ISZERO PUSH2 0x3E1E JUMPI DUP2 DUP2 ADD MLOAD DUP4 DUP3 ADD MSTORE PUSH1 0x20 ADD PUSH2 0x3E06 JUMP JUMPDEST POP POP PUSH1 0x0 SWAP2 ADD MSTORE JUMP JUMPDEST PUSH1 0x0 DUP2 MLOAD DUP1 DUP5 MSTORE PUSH2 0x3E3F DUP2 PUSH1 0x20 DUP7 ADD PUSH1 0x20 DUP7 ADD PUSH2 0x3E03 JUMP JUMPDEST PUSH1 0x1F ADD PUSH1 0x1F NOT AND SWAP3 SWAP1 SWAP3 ADD PUSH1 0x20 ADD SWAP3 SWAP2 POP POP JUMP JUMPDEST PUSH1 0x20 DUP2 MSTORE PUSH1 0x0 PUSH2 0x3E66 PUSH1 0x20 DUP4 ADD DUP5 PUSH2 0x3E27 JUMP JUMPDEST SWAP4 SWAP3 POP POP POP JUMP JUMPDEST PUSH1 0x0 DUP1 PUSH1 0x0 DUP1 PUSH1 0x40 DUP6 DUP8 SUB SLT ISZERO PUSH2 0x3E83 JUMPI PUSH1 0x0 DUP1 REVERT JUMPDEST DUP5 CALLDATALOAD PUSH1 0x1 PUSH1 0x1 PUSH1 0x40 SHL SUB DUP1 DUP3 GT ISZERO PUSH2 0x3E9A JUMPI PUSH1 0x0 DUP1 REVERT JUMPDEST PUSH2 0x3EA6 DUP9 DUP4 DUP10 ADD PUSH2 0x3D20 JUMP JUMPDEST SWAP1 SWAP7 POP SWAP5 POP PUSH1 0x20 DUP8 ADD CALLDATALOAD SWAP2 POP DUP1 DUP3 GT ISZERO PUSH2 0x3EBF JUMPI PUSH1 0x0 DUP1 REVERT JUMPDEST POP PUSH2 0x3ECC DUP8 DUP3 DUP9 ADD PUSH2 0x3D20 JUMP JUMPDEST SWAP6 SWAP9 SWAP5 SWAP8 POP SWAP6 POP POP POP POP JUMP JUMPDEST PUSH1 0x0 DUP3 DUP3 MLOAD DUP1 DUP6 MSTORE PUSH1 0x20 DUP1 DUP7 ADD SWAP6 POP DUP1 DUP3 PUSH1 0x5 SHL DUP5 ADD ADD DUP2 DUP7 ADD PUSH1 0x0 JUMPDEST DUP5 DUP2 LT ISZERO PUSH2 0x3F23 JUMPI PUSH1 0x1F NOT DUP7 DUP5 SUB ADD DUP10 MSTORE PUSH2 0x3F11 DUP4 DUP4 MLOAD PUSH2 0x3E27 JUMP JUMPDEST SWAP9 DUP5 ADD SWAP9 SWAP3 POP SWAP1 DUP4 ADD SWAP1 PUSH1 0x1 ADD PUSH2 0x3EF5 JUMP JUMPDEST POP SWAP1 SWAP8 SWAP7 POP POP POP POP POP POP POP JUMP JUMPDEST DUP4 DUP2 MSTORE PUSH1 0x60 PUSH1 0x20 DUP3 ADD MSTORE PUSH1 0x0 PUSH2 0x3F49 PUSH1 0x60 DUP4 ADD DUP6 PUSH2 0x3ED8 JUMP JUMPDEST SWAP1 POP DUP3 ISZERO ISZERO PUSH1 0x40 DUP4 ADD MSTORE SWAP5 SWAP4 POP POP POP POP JUMP JUMPDEST PUSH1 0x0 PUSH1 0x20 DUP3 DUP5 SUB SLT ISZERO PUSH2 0x3F6D JUMPI PUSH1 0x0 DUP1 REVERT JUMPDEST POP CALLDATALOAD SWAP2 SWAP1 POP JUMP JUMPDEST PUSH1 0x0 PUSH1 0x20 DUP3 DUP5 SUB SLT ISZERO PUSH2 0x3F86 JUMPI PUSH1 0x0 DUP1 REVERT JUMPDEST DUP2 CALLDATALOAD PUSH1 0x1 PUSH1 0x1 PUSH1 0x40 SHL SUB DUP2 AND DUP2 EQ PUSH2 0x3E66 JUMPI PUSH1 0x0 DUP1 REVERT JUMPDEST DUP1 CALLDATALOAD PUSH1 0xFF DUP2 AND DUP2 EQ PUSH2 0x3FAE JUMPI PUSH1 0x0 DUP1 REVERT JUMPDEST SWAP2 SWAP1 POP JUMP JUMPDEST PUSH1 0x0 PUSH1 0x20 DUP3 DUP5 SUB SLT ISZERO PUSH2 0x3FC5 JUMPI PUSH1 0x0 DUP1 REVERT JUMPDEST PUSH2 0x3E66 DUP3 PUSH2 0x3F9D JUMP JUMPDEST PUSH1 0x20 DUP2 MSTORE PUSH1 0x0 PUSH2 0x3E66 PUSH1 0x20 DUP4 ADD DUP5 PUSH2 0x3ED8 JUMP JUMPDEST PUSH1 0x0 DUP1 PUSH1 0x0 PUSH1 0x40 DUP5 DUP7 SUB SLT ISZERO PUSH2 0x3FF6 JUMPI PUSH1 0x0 DUP1 REVERT JUMPDEST DUP4 CALLDATALOAD PUSH1 0x1 PUSH1 0x1 PUSH1 0x40 SHL SUB DUP2 GT ISZERO PUSH2 0x400C JUMPI PUSH1 0x0 DUP1 REVERT JUMPDEST PUSH2 0x4018 DUP7 DUP3 DUP8 ADD PUSH2 0x3D20 JUMP JUMPDEST SWAP1 SWAP5 POP SWAP3 POP PUSH2 0x402B SWAP1 POP PUSH1 0x20 DUP6 ADD PUSH2 0x3F9D JUMP JUMPDEST SWAP1 POP SWAP3 POP SWAP3 POP SWAP3 JUMP JUMPDEST PUSH1 0x0 PUSH2 0x100 DUP1 DUP4 MSTORE PUSH2 0x4048 DUP2 DUP5 ADD DUP13 PUSH2 0x3E27 JUMP JUMPDEST SWAP1 POP DUP3 DUP2 SUB PUSH1 0x20 DUP5 ADD MSTORE PUSH2 0x405C DUP2 DUP12 PUSH2 0x3E27 JUMP JUMPDEST PUSH1 0x1 PUSH1 0x1 PUSH1 0xA0 SHL SUB SWAP10 DUP11 AND PUSH1 0x40 DUP6 ADD MSTORE PUSH1 0x60 DUP5 ADD SWAP9 SWAP1 SWAP9 MSTORE POP POP PUSH1 0x80 DUP2 ADD SWAP5 SWAP1 SWAP5 MSTORE SWAP2 SWAP1 SWAP5 AND PUSH1 0xA0 DUP4 ADD MSTORE PUSH1 0xC0 DUP3 ADD SWAP4 SWAP1 SWAP4 MSTORE SWAP2 ISZERO ISZERO PUSH1 0xE0 SWAP1 SWAP3 ADD SWAP2 SWAP1 SWAP2 MSTORE SWAP3 SWAP2 POP POP JUMP JUMPDEST PUSH4 0x4E487B71 PUSH1 0xE0 SHL PUSH1 0x0 MSTORE PUSH1 0x41 PUSH1 0x4 MSTORE PUSH1 0x24 PUSH1 0x0 REVERT JUMPDEST PUSH1 0x0 DUP3 PUSH1 0x1F DUP4 ADD SLT PUSH2 0x40C8 JUMPI PUSH1 0x0 DUP1 REVERT JUMPDEST DUP2 CALLDATALOAD PUSH1 0x1 PUSH1 0x1 PUSH1 0x40 SHL SUB DUP1 DUP3 GT ISZERO PUSH2 0x40E2 JUMPI PUSH2 0x40E2 PUSH2 0x40A1 JUMP JUMPDEST PUSH1 0x40 MLOAD PUSH1 0x1F DUP4 ADD PUSH1 0x1F NOT SWAP1 DUP2 AND PUSH1 0x3F ADD AND DUP2 ADD SWAP1 DUP3 DUP3 GT DUP2 DUP4 LT OR ISZERO PUSH2 0x410A JUMPI PUSH2 0x410A PUSH2 0x40A1 JUMP JUMPDEST DUP2 PUSH1 0x40 MSTORE DUP4 DUP2 MSTORE DUP7 PUSH1 0x20 DUP6 DUP9 ADD ADD GT ISZERO PUSH2 0x4123 JUMPI PUSH1 0x0 DUP1 REVERT JUMPDEST DUP4 PUSH1 0x20 DUP8 ADD PUSH1 0x20 DUP4 ADD CALLDATACOPY PUSH1 0x0 PUSH1 0x20 DUP6 DUP4 ADD ADD MSTORE DUP1 SWAP5 POP POP POP POP POP SWAP3 SWAP2 POP POP JUMP JUMPDEST PUSH1 0x0 DUP1 PUSH1 0x0 PUSH1 0x40 DUP5 DUP7 SUB SLT ISZERO PUSH2 0x4158 JUMPI PUSH1 0x0 DUP1 REVERT JUMPDEST DUP4 CALLDATALOAD PUSH1 0x1 PUSH1 0x1 PUSH1 0x40 SHL SUB DUP1 DUP3 GT ISZERO PUSH2 0x416F JUMPI PUSH1 0x0 DUP1 REVERT JUMPDEST PUSH2 0x417B DUP8 DUP4 DUP9 ADD PUSH2 0x3D20 JUMP JUMPDEST SWAP1 SWAP6 POP SWAP4 POP PUSH1 0x20 DUP7 ADD CALLDATALOAD SWAP2 POP DUP1 DUP3 GT ISZERO PUSH2 0x4194 JUMPI PUSH1 0x0 DUP1 REVERT JUMPDEST POP PUSH2 0x41A1 DUP7 DUP3 DUP8 ADD PUSH2 0x40B7 JUMP JUMPDEST SWAP2 POP POP SWAP3 POP SWAP3 POP SWAP3 JUMP JUMPDEST PUSH1 0x0 DUP1 PUSH1 0x0 PUSH1 0x40 DUP5 DUP7 SUB SLT ISZERO PUSH2 0x41C0 JUMPI PUSH1 0x0 DUP1 REVERT JUMPDEST DUP4 CALLDATALOAD PUSH1 0x1 PUSH1 0x1 PUSH1 0x40 SHL SUB DUP2 GT ISZERO PUSH2 0x41D6 JUMPI PUSH1 0x0 DUP1 REVERT JUMPDEST PUSH2 0x41E2 DUP7 DUP3 DUP8 ADD PUSH2 0x3D20 JUMP JUMPDEST SWAP1 SWAP8 SWAP1 SWAP7 POP PUSH1 0x20 SWAP6 SWAP1 SWAP6 ADD CALLDATALOAD SWAP5 SWAP4 POP POP POP POP JUMP JUMPDEST PUSH1 0x0 DUP1 PUSH1 0x40 DUP4 DUP6 SUB SLT ISZERO PUSH2 0x4209 JUMPI PUSH1 0x0 DUP1 REVERT JUMPDEST DUP3 CALLDATALOAD PUSH1 0x1 PUSH1 0x1 PUSH1 0x40 SHL SUB DUP1 DUP3 GT ISZERO PUSH2 0x4220 JUMPI PUSH1 0x0 DUP1 REVERT JUMPDEST PUSH2 0x422C DUP7 DUP4 DUP8 ADD PUSH2 0x40B7 JUMP JUMPDEST SWAP4 POP PUSH1 0x20 DUP6 ADD CALLDATALOAD SWAP2 POP DUP1 DUP3 GT ISZERO PUSH2 0x4242 JUMPI PUSH1 0x0 DUP1 REVERT JUMPDEST POP PUSH2 0x424F DUP6 DUP3 DUP7 ADD PUSH2 0x40B7 JUMP JUMPDEST SWAP2 POP POP SWAP3 POP SWAP3 SWAP1 POP JUMP JUMPDEST PUSH1 0x0 DUP2 MLOAD DUP1 DUP5 MSTORE PUSH1 0x20 DUP1 DUP6 ADD SWAP5 POP DUP5 DUP3 PUSH1 0x5 SHL DUP7 ADD DUP3 DUP7 ADD PUSH1 0x0 JUMPDEST DUP6 DUP2 LT ISZERO PUSH2 0x3F23 JUMPI DUP4 DUP4 SUB DUP10 MSTORE PUSH2 0x428C DUP4 DUP4 MLOAD PUSH2 0x3E27 JUMP JUMPDEST SWAP9 DUP6 ADD SWAP9 SWAP3 POP SWAP1 DUP5 ADD SWAP1 PUSH1 0x1 ADD PUSH2 0x4274 JUMP JUMPDEST PUSH4 0x4E487B71 PUSH1 0xE0 SHL PUSH1 0x0 MSTORE PUSH1 0x21 PUSH1 0x4 MSTORE PUSH1 0x24 PUSH1 0x0 REVERT JUMPDEST PUSH1 0x7 DUP2 LT PUSH2 0x42D2 JUMPI PUSH4 0x4E487B71 PUSH1 0xE0 SHL PUSH1 0x0 MSTORE PUSH1 0x21 PUSH1 0x4 MSTORE PUSH1 0x24 PUSH1 0x0 REVERT JUMPDEST SWAP1 MSTORE JUMP JUMPDEST PUSH1 0x0 PUSH1 0x20 DUP1 DUP4 ADD DUP2 DUP5 MSTORE DUP1 DUP6 MLOAD DUP1 DUP4 MSTORE PUSH1 0x40 SWAP3 POP DUP3 DUP7 ADD SWAP2 POP DUP3 DUP2 PUSH1 0x5 SHL DUP8 ADD ADD DUP5 DUP9 ADD PUSH1 0x0 JUMPDEST DUP4 DUP2 LT ISZERO PUSH2 0x442E JUMPI PUSH1 0x3F NOT DUP10 DUP5 SUB ADD DUP6 MSTORE DUP2 MLOAD PUSH2 0x1C0 DUP2 MLOAD DUP2 DUP7 MSTORE PUSH2 0x4324 DUP3 DUP8 ADD DUP3 PUSH2 0x3E27 JUMP JUMPDEST SWAP2 POP POP DUP9 DUP3 ADD MLOAD DUP6 DUP3 SUB DUP11 DUP8 ADD MSTORE PUSH2 0x433C DUP3 DUP3 PUSH2 0x3E27 JUMP JUMPDEST SWAP2 POP POP DUP8 DUP3 ADD MLOAD PUSH2 0x4357 DUP10 DUP8 ADD DUP3 PUSH1 0x1 PUSH1 0x1 PUSH1 0xA0 SHL SUB AND SWAP1 MSTORE JUMP JUMPDEST POP PUSH1 0x60 DUP3 DUP2 ADD MLOAD SWAP1 DUP7 ADD MSTORE PUSH1 0x80 DUP1 DUP4 ADD MLOAD SWAP1 DUP7 ADD MSTORE PUSH1 0xA0 DUP1 DUP4 ADD MLOAD PUSH1 0x1 PUSH1 0x1 PUSH1 0xA0 SHL SUB AND SWAP1 DUP7 ADD MSTORE PUSH1 0xC0 DUP1 DUP4 ADD MLOAD SWAP1 DUP7 ADD MSTORE PUSH1 0xE0 DUP1 DUP4 ADD MLOAD ISZERO ISZERO SWAP1 DUP7 ADD MSTORE PUSH2 0x100 DUP1 DUP4 ADD MLOAD DUP7 DUP4 SUB DUP3 DUP9 ADD MSTORE PUSH2 0x43AD DUP4 DUP3 PUSH2 0x3E27 JUMP JUMPDEST SWAP3 POP POP POP PUSH2 0x120 DUP1 DUP4 ADD MLOAD DUP7 DUP4 SUB DUP3 DUP9 ADD MSTORE PUSH2 0x43C9 DUP4 DUP3 PUSH2 0x4259 JUMP JUMPDEST SWAP3 POP POP POP PUSH2 0x140 DUP1 DUP4 ADD MLOAD DUP7 DUP4 SUB DUP3 DUP9 ADD MSTORE PUSH2 0x43E5 DUP4 DUP3 PUSH2 0x4259 JUMP JUMPDEST SWAP3 POP POP POP PUSH2 0x160 DUP1 DUP4 ADD MLOAD PUSH2 0x43FC DUP3 DUP9 ADD DUP3 PUSH2 0x42B4 JUMP JUMPDEST POP POP PUSH2 0x180 DUP3 DUP2 ADD MLOAD PUSH1 0xFF SWAP1 DUP2 AND SWAP2 DUP8 ADD SWAP2 SWAP1 SWAP2 MSTORE PUSH2 0x1A0 SWAP3 DUP4 ADD MLOAD AND SWAP2 SWAP1 SWAP5 ADD MSTORE SWAP4 DUP7 ADD SWAP4 SWAP1 DUP7 ADD SWAP1 PUSH1 0x1 ADD PUSH2 0x42FD JUMP JUMPDEST POP SWAP1 SWAP9 SWAP8 POP POP POP POP POP POP POP POP JUMP JUMPDEST PUSH1 0x0 DUP1 PUSH1 0x0 DUP1 PUSH1 0x60 DUP6 DUP8 SUB SLT ISZERO PUSH2 0x4452 JUMPI PUSH1 0x0 DUP1 REVERT JUMPDEST DUP5 CALLDATALOAD PUSH1 0x1 PUSH1 0x1 PUSH1 0x40 SHL SUB DUP1 DUP3 GT ISZERO PUSH2 0x4469 JUMPI PUSH1 0x0 DUP1 REVERT JUMPDEST PUSH2 0x4475 DUP9 DUP4 DUP10 ADD PUSH2 0x3D20 JUMP JUMPDEST SWAP1 SWAP7 POP SWAP5 POP PUSH1 0x20 DUP8 ADD CALLDATALOAD SWAP2 POP DUP1 DUP3 GT ISZERO PUSH2 0x448E JUMPI PUSH1 0x0 DUP1 REVERT JUMPDEST POP PUSH2 0x449B DUP8 DUP3 DUP9 ADD PUSH2 0x40B7 JUMP JUMPDEST SWAP5 SWAP8 SWAP4 SWAP7 POP SWAP4 SWAP5 PUSH1 0x40 ADD CALLDATALOAD SWAP4 POP POP POP JUMP JUMPDEST PUSH1 0x0 PUSH1 0x20 DUP3 DUP5 SUB SLT ISZERO PUSH2 0x44BE JUMPI PUSH1 0x0 DUP1 REVERT JUMPDEST DUP2 CALLDATALOAD PUSH1 0x1 PUSH1 0x1 PUSH1 0xA0 SHL SUB DUP2 AND DUP2 EQ PUSH2 0x3E66 JUMPI PUSH1 0x0 DUP1 REVERT JUMPDEST PUSH1 0x0 PUSH1 0x20 DUP3 DUP5 SUB SLT ISZERO PUSH2 0x44E7 JUMPI PUSH1 0x0 DUP1 REVERT JUMPDEST DUP2 CALLDATALOAD PUSH1 0x1 PUSH1 0x1 PUSH1 0x40 SHL SUB DUP2 GT ISZERO PUSH2 0x44FD JUMPI PUSH1 0x0 DUP1 REVERT JUMPDEST PUSH2 0x4509 DUP5 DUP3 DUP6 ADD PUSH2 0x40B7 JUMP JUMPDEST SWAP5 SWAP4 POP POP POP POP JUMP JUMPDEST PUSH2 0x180 DUP2 MSTORE PUSH1 0x0 PUSH2 0x4526 PUSH2 0x180 DUP4 ADD DUP16 PUSH2 0x3E27 JUMP JUMPDEST DUP3 DUP2 SUB PUSH1 0x20 DUP5 ADD MSTORE PUSH2 0x4538 DUP2 DUP16 PUSH2 0x3E27 JUMP JUMPDEST PUSH1 0x1 PUSH1 0x1 PUSH1 0xA0 SHL SUB DUP15 DUP2 AND PUSH1 0x40 DUP7 ADD MSTORE PUSH1 0x60 DUP6 ADD DUP15 SWAP1 MSTORE PUSH1 0x80 DUP6 ADD DUP14 SWAP1 MSTORE DUP12 AND PUSH1 0xA0 DUP6 ADD MSTORE PUSH1 0xC0 DUP5 ADD DUP11 SWAP1 MSTORE DUP9 ISZERO ISZERO PUSH1 0xE0 DUP6 ADD MSTORE DUP4 DUP2 SUB PUSH2 0x100 DUP6 ADD MSTORE SWAP1 POP PUSH2 0x4581 DUP2 DUP9 PUSH2 0x3E27 JUMP JUMPDEST SWAP2 POP POP PUSH2 0x4592 PUSH2 0x120 DUP4 ADD DUP7 PUSH2 0x42B4 JUMP JUMPDEST PUSH1 0xFF DUP5 AND PUSH2 0x140 DUP4 ADD MSTORE PUSH1 0xFF DUP4 AND PUSH2 0x160 DUP4 ADD MSTORE SWAP14 SWAP13 POP POP POP POP POP POP POP POP POP POP POP POP POP JUMP JUMPDEST DUP2 DUP4 DUP3 CALLDATACOPY PUSH1 0x0 SWAP2 ADD SWAP1 DUP2 MSTORE SWAP2 SWAP1 POP JUMP JUMPDEST PUSH1 0x1 DUP2 DUP2 SHR SWAP1 DUP3 AND DUP1 PUSH2 0x45DB JUMPI PUSH1 0x7F DUP3 AND SWAP2 POP JUMPDEST PUSH1 0x20 DUP3 LT DUP2 SUB PUSH2 0x29DA JUMPI PUSH4 0x4E487B71 PUSH1 0xE0 SHL PUSH1 0x0 MSTORE PUSH1 0x22 PUSH1 0x4 MSTORE PUSH1 0x24 PUSH1 0x0 REVERT JUMPDEST PUSH1 0x20 DUP1 DUP3 MSTORE PUSH1 0x13 SWAP1 DUP3 ADD MSTORE PUSH19 0x125D195B48191BD95CC81B9BDD08195E1A5CDD PUSH1 0x6A SHL PUSH1 0x40 DUP3 ADD MSTORE PUSH1 0x60 ADD SWAP1 JUMP JUMPDEST PUSH1 0x0 PUSH1 0x20 DUP3 DUP5 SUB SLT ISZERO PUSH2 0x463A JUMPI PUSH1 0x0 DUP1 REVERT JUMPDEST DUP2 MLOAD DUP1 ISZERO ISZERO DUP2 EQ PUSH2 0x3E66 JUMPI PUSH1 0x0 DUP1 REVERT JUMPDEST PUSH1 0x1F DUP3 GT ISZERO PUSH2 0xDD8 JUMPI PUSH1 0x0 DUP2 DUP2 MSTORE PUSH1 0x20 DUP2 KECCAK256 PUSH1 0x1F DUP6 ADD PUSH1 0x5 SHR DUP2 ADD PUSH1 0x20 DUP7 LT ISZERO PUSH2 0x4671 JUMPI POP DUP1 JUMPDEST PUSH1 0x1F DUP6 ADD PUSH1 0x5 SHR DUP3 ADD SWAP2 POP JUMPDEST DUP2 DUP2 LT ISZERO PUSH2 0xC32 JUMPI DUP3 DUP2 SSTORE PUSH1 0x1 ADD PUSH2 0x467D JUMP JUMPDEST PUSH1 0x0 NOT PUSH1 0x3 DUP4 SWAP1 SHL SHR NOT AND PUSH1 0x1 SWAP2 SWAP1 SWAP2 SHL OR SWAP1 JUMP JUMPDEST PUSH1 0x1 PUSH1 0x1 PUSH1 0x40 SHL SUB DUP4 GT ISZERO PUSH2 0x46BC JUMPI PUSH2 0x46BC PUSH2 0x40A1 JUMP JUMPDEST PUSH2 0x46D0 DUP4 PUSH2 0x46CA DUP4 SLOAD PUSH2 0x45C7 JUMP JUMPDEST DUP4 PUSH2 0x464A JUMP JUMPDEST PUSH1 0x0 PUSH1 0x1F DUP5 GT PUSH1 0x1 DUP2 EQ PUSH2 0x46FE JUMPI PUSH1 0x0 DUP6 ISZERO PUSH2 0x46EC JUMPI POP DUP4 DUP3 ADD CALLDATALOAD JUMPDEST PUSH2 0x46F6 DUP7 DUP3 PUSH2 0x4690 JUMP JUMPDEST DUP5 SSTORE POP PUSH2 0x4758 JUMP JUMPDEST PUSH1 0x0 DUP4 DUP2 MSTORE PUSH1 0x20 SWAP1 KECCAK256 PUSH1 0x1F NOT DUP7 AND SWAP1 DUP4 JUMPDEST DUP3 DUP2 LT ISZERO PUSH2 0x472F JUMPI DUP7 DUP6 ADD CALLDATALOAD DUP3 SSTORE PUSH1 0x20 SWAP5 DUP6 ADD SWAP5 PUSH1 0x1 SWAP1 SWAP3 ADD SWAP2 ADD PUSH2 0x470F JUMP JUMPDEST POP DUP7 DUP3 LT ISZERO PUSH2 0x474C JUMPI PUSH1 0x0 NOT PUSH1 0xF8 DUP9 PUSH1 0x3 SHL AND SHR NOT DUP5 DUP8 ADD CALLDATALOAD AND DUP2 SSTORE JUMPDEST POP POP PUSH1 0x1 DUP6 PUSH1 0x1 SHL ADD DUP4 SSTORE JUMPDEST POP POP POP POP POP JUMP JUMPDEST PUSH1 0x20 DUP1 DUP3 MSTORE PUSH1 0x49 SWAP1 DUP3 ADD MSTORE PUSH32 0x41756374696F6E20686173206E6F7420656E646564207965742C206F7220796F PUSH1 0x40 DUP3 ADD MSTORE PUSH32 0x7520617265206E6F74207468652077696E6E6572206F72206F776E6572206F66 PUSH1 0x60 DUP3 ADD MSTORE PUSH9 0x20746865206974656D PUSH1 0xB8 SHL PUSH1 0x80 DUP3 ADD MSTORE PUSH1 0xA0 ADD SWAP1 JUMP JUMPDEST PUSH4 0x4E487B71 PUSH1 0xE0 SHL PUSH1 0x0 MSTORE PUSH1 0x11 PUSH1 0x4 MSTORE PUSH1 0x24 PUSH1 0x0 REVERT JUMPDEST DUP1 DUP3 ADD DUP1 DUP3 GT ISZERO PUSH2 0x23B5 JUMPI PUSH2 0x23B5 PUSH2 0x47CE JUMP JUMPDEST PUSH1 0x20 DUP1 DUP3 MSTORE PUSH1 0x23 SWAP1 DUP3 ADD MSTORE PUSH32 0x546869732061756374696F6E20646F65736E2774206861766520612064697370 PUSH1 0x40 DUP3 ADD MSTORE PUSH3 0x757465 PUSH1 0xE8 SHL PUSH1 0x60 DUP3 ADD MSTORE PUSH1 0x80 ADD SWAP1 JUMP JUMPDEST PUSH1 0x20 DUP1 DUP3 MSTORE PUSH1 0x2A SWAP1 DUP3 ADD MSTORE PUSH32 0x596F7520617265206E6F7420616E20617574686F72697A656420636F6D6D6974 PUSH1 0x40 DUP3 ADD MSTORE PUSH10 0x3A32B29036B2B6B132B9 PUSH1 0xB1 SHL PUSH1 0x60 DUP3 ADD MSTORE PUSH1 0x80 ADD SWAP1 JUMP JUMPDEST PUSH1 0x0 PUSH1 0xFF DUP3 AND PUSH1 0xFF DUP2 SUB PUSH2 0x489A JUMPI PUSH2 0x489A PUSH2 0x47CE JUMP JUMPDEST PUSH1 0x1 ADD SWAP3 SWAP2 POP POP JUMP JUMPDEST DUP2 MLOAD PUSH1 0x1 PUSH1 0x1 PUSH1 0x40 SHL SUB DUP2 GT ISZERO PUSH2 0x48BC JUMPI PUSH2 0x48BC PUSH2 0x40A1 JUMP JUMPDEST PUSH2 0x48D0 DUP2 PUSH2 0x48CA DUP5 SLOAD PUSH2 0x45C7 JUMP JUMPDEST DUP5 PUSH2 0x464A JUMP JUMPDEST PUSH1 0x20 DUP1 PUSH1 0x1F DUP4 GT PUSH1 0x1 DUP2 EQ PUSH2 0x48FF JUMPI PUSH1 0x0 DUP5 ISZERO PUSH2 0x48ED JUMPI POP DUP6 DUP4 ADD MLOAD JUMPDEST PUSH2 0x48F7 DUP6 DUP3 PUSH2 0x4690 JUMP JUMPDEST DUP7 SSTORE POP PUSH2 0xC32 JUMP JUMPDEST PUSH1 0x0 DUP6 DUP2 MSTORE PUSH1 0x20 DUP2 KECCAK256 PUSH1 0x1F NOT DUP7 AND SWAP2 JUMPDEST DUP3 DUP2 LT ISZERO PUSH2 0x492E JUMPI DUP9 DUP7 ADD MLOAD DUP3 SSTORE SWAP5 DUP5 ADD SWAP5 PUSH1 0x1 SWAP1 SWAP2 ADD SWAP1 DUP5 ADD PUSH2 0x490F JUMP JUMPDEST POP DUP6 DUP3 LT ISZERO PUSH2 0x494C JUMPI DUP8 DUP6 ADD MLOAD PUSH1 0x0 NOT PUSH1 0x3 DUP9 SWAP1 SHL PUSH1 0xF8 AND SHR NOT AND DUP2 SSTORE JUMPDEST POP POP POP POP POP PUSH1 0x1 SWAP1 DUP2 SHL ADD SWAP1 SSTORE POP JUMP JUMPDEST PUSH1 0x20 DUP1 DUP3 MSTORE PUSH1 0x3C SWAP1 DUP3 ADD MSTORE PUSH32 0x506C65617365207375626D697420796F7572206574682077616C6C6574207075 PUSH1 0x40 DUP3 ADD MSTORE PUSH32 0x626B6579206265666F7265207573696E67207468652073797374656D00000000 PUSH1 0x60 DUP3 ADD MSTORE PUSH1 0x80 ADD SWAP1 JUMP JUMPDEST DUP2 DUP2 SUB DUP2 DUP2 GT ISZERO PUSH2 0x23B5 JUMPI PUSH2 0x23B5 PUSH2 0x47CE JUMP JUMPDEST PUSH1 0x0 DUP3 MLOAD PUSH2 0x49DE DUP2 DUP5 PUSH1 0x20 DUP8 ADD PUSH2 0x3E03 JUMP JUMPDEST SWAP2 SWAP1 SWAP2 ADD SWAP3 SWAP2 POP POP JUMP JUMPDEST PUSH4 0x4E487B71 PUSH1 0xE0 SHL PUSH1 0x0 MSTORE PUSH1 0x32 PUSH1 0x4 MSTORE PUSH1 0x24 PUSH1 0x0 REVERT JUMPDEST PUSH1 0x0 DUP1 DUP4 SLOAD PUSH2 0x4A0C DUP2 PUSH2 0x45C7 JUMP JUMPDEST PUSH1 0x1 DUP3 DUP2 AND DUP1 ISZERO PUSH2 0x4A24 JUMPI PUSH1 0x1 DUP2 EQ PUSH2 0x4A39 JUMPI PUSH2 0x4A68 JUMP JUMPDEST PUSH1 0xFF NOT DUP5 AND DUP8 MSTORE DUP3 ISZERO ISZERO DUP4 MUL DUP8 ADD SWAP5 POP PUSH2 0x4A68 JUMP JUMPDEST DUP8 PUSH1 0x0 MSTORE PUSH1 0x20 DUP1 PUSH1 0x0 KECCAK256 PUSH1 0x0 JUMPDEST DUP6 DUP2 LT ISZERO PUSH2 0x4A5F JUMPI DUP2 SLOAD DUP11 DUP3 ADD MSTORE SWAP1 DUP5 ADD SWAP1 DUP3 ADD PUSH2 0x4A46 JUMP JUMPDEST POP POP POP DUP3 DUP8 ADD SWAP5 POP JUMPDEST POP SWAP3 SWAP7 SWAP6 POP POP POP POP POP POP JUMP JUMPDEST PUSH1 0x0 PUSH1 0x1 DUP3 ADD PUSH2 0x4A86 JUMPI PUSH2 0x4A86 PUSH2 0x47CE JUMP JUMPDEST POP PUSH1 0x1 ADD SWAP1 JUMP JUMPDEST DUP2 DUP2 SUB PUSH2 0x4A98 JUMPI POP POP JUMP JUMPDEST PUSH2 0x4AA2 DUP3 SLOAD PUSH2 0x45C7 JUMP JUMPDEST PUSH1 0x1 PUSH1 0x1 PUSH1 0x40 SHL SUB DUP2 GT ISZERO PUSH2 0x4AB9 JUMPI PUSH2 0x4AB9 PUSH2 0x40A1 JUMP JUMPDEST PUSH2 0x4AC7 DUP2 PUSH2 0x48CA DUP5 SLOAD PUSH2 0x45C7 JUMP JUMPDEST PUSH1 0x0 PUSH1 0x1F DUP3 GT PUSH1 0x1 DUP2 EQ PUSH2 0x4AF5 JUMPI PUSH1 0x0 DUP4 ISZERO PUSH2 0x4AE3 JUMPI POP DUP5 DUP3 ADD SLOAD JUMPDEST PUSH2 0x4AED DUP5 DUP3 PUSH2 0x4690 JUMP JUMPDEST DUP6 SSTORE POP PUSH2 0x4758 JUMP JUMPDEST PUSH1 0x0 DUP6 DUP2 MSTORE PUSH1 0x20 SWAP1 KECCAK256 PUSH1 0x1F NOT DUP5 AND SWAP1 PUSH1 0x0 DUP7 DUP2 MSTORE PUSH1 0x20 SWAP1 KECCAK256 DUP5 JUMPDEST DUP4 DUP2 LT ISZERO PUSH2 0x4B2F JUMPI DUP3 DUP7 ADD SLOAD DUP3 SSTORE PUSH1 0x1 SWAP6 DUP7 ADD SWAP6 SWAP1 SWAP2 ADD SWAP1 PUSH1 0x20 ADD PUSH2 0x4B0F JUMP JUMPDEST POP DUP6 DUP4 LT ISZERO PUSH2 0x494C JUMPI SWAP4 ADD SLOAD PUSH1 0x0 NOT PUSH1 0xF8 PUSH1 0x3 DUP8 SWAP1 SHL AND SHR NOT AND SWAP1 SWAP3 SSTORE POP POP PUSH1 0x1 SWAP1 DUP2 SHL ADD SWAP1 SSTORE POP JUMP JUMPDEST PUSH4 0x4E487B71 PUSH1 0xE0 SHL PUSH1 0x0 MSTORE PUSH1 0x31 PUSH1 0x4 MSTORE PUSH1 0x24 PUSH1 0x0 REVERT INVALID LOG2 PUSH5 0x6970667358 0x22 SLT KECCAK256 PUSH12 0x6E4EC1A427E2840FFC24DA1A JUMPI PC DUP3 0xDD 0xBE CREATE2 0xD1 PUSH28 0x4919248D5BFD456EDEBD8A64736F6C63430008130033000000000000 "},"gasEstimates":{"creation":{"codeDepositCost":"3873000","executionCost":"infinite","totalCost":"infinite"},"external":{"activeAuctionOwners(address)":"4742","auctionItems(string)":"infinite","compareStrings(string,string)":"infinite","createAuctionItem(string,string,uint256)":"infinite","endAuction(string)":"infinite","getActiveAuctioneer()":"infinite","getAllAuctions()":"infinite","getAllDisputeAuctions()":"infinite","getAuctionDuration()":"2395","getAuctionItem(string)":"infinite","getChatLogOfItem(string)":"infinite","getConcurrentAuctionsPerUser()":"2382","getCurrentTimestamp()":"248","getDeliveryAddress(string)":"infinite","getPubKey(address)":"infinite","getTokensToStake()":"2403","isCommitteeMember(address)":"2540","owner()":"2412","placeBid(string,uint256)":"infinite","pubKeys(address)":"infinite","raiseDispute(string)":"infinite","relinquishTokensToOwner()":"infinite","renounceOwnership()":"infinite","resolveDispute(string)":"infinite","sendChat(string,string)":"infinite","sendCommitteeChat(string,string)":"infinite","setAuctionDuration(uint64)":"26801","setConcurrentAuctionsPerUser(uint8)":"26834","setDeliveryAddress(string,string)":"infinite","setPubKey(string)":"infinite","setTokensToStake(uint256)":"24577","stakeTokens(uint256)":"infinite","transferOwnership(address)":"28386","transitionEscrowState(string,uint8)":"infinite","voteOnDispute(string,uint8)":"infinite"}},"methodIdentifiers":{"activeAuctionOwners(address)":"fb346ea0","auctionItems(string)":"d31f371e","compareStrings(string,string)":"bed34bba","createAuctionItem(string,string,uint256)":"d02f25f7","endAuction(string)":"ce2ba9bf","getActiveAuctioneer()":"4f04e79c","getAllAuctions()":"cbd2bdfd","getAllDisputeAuctions()":"ee54507b","getAuctionDuration()":"78cb51af","getAuctionItem(string)":"955ab337","getChatLogOfItem(string)":"83c27150","getConcurrentAuctionsPerUser()":"88624ab3","getCurrentTimestamp()":"6c9230db","getDeliveryAddress(string)":"05f3b3f7","getPubKey(address)":"fce9512a","getTokensToStake()":"d8bcd0c9","isCommitteeMember(address)":"e636d84b","owner()":"8da5cb5b","placeBid(string,uint256)":"a7eaa241","pubKeys(address)":"d1b8b4bf","raiseDispute(string)":"725a3b4b","relinquishTokensToOwner()":"a4bdc06e","renounceOwnership()":"715018a6","resolveDispute(string)":"8f2238ba","sendChat(string,string)":"3098662e","sendCommitteeChat(string,string)":"c1d733db","setAuctionDuration(uint64)":"7c812b39","setConcurrentAuctionsPerUser(uint8)":"7f38d865","setDeliveryAddress(string,string)":"9f19360d","setPubKey(string)":"07412e9c","setTokensToStake(uint256)":"8aaf2761","stakeTokens(uint256)":"7547c7a3","transferOwnership(address)":"f2fde38b","transitionEscrowState(string,uint8)":"016544aa","voteOnDispute(string,uint8)":"9211735b"}},"storageLayout":{"storage":[{"astId":7,"contract":"contracts/Auction.sol:Auction","label":"_owner","offset":0,"slot":"0","type":"t_address"},{"astId":5663,"contract":"contracts/Auction.sol:Auction","label":"auctionItems","offset":0,"slot":"1","type":"t_mapping(t_string_memory_ptr,t_struct(AuctionItem)5650_storage)"},{"astId":5668,"contract":"contracts/Auction.sol:Auction","label":"activeAuctionOwners","offset":0,"slot":"2","type":"t_mapping(t_address,t_struct(ActiveAuctioneer)5658_storage)"},{"astId":5672,"contract":"contracts/Auction.sol:Auction","label":"pubKeys","offset":0,"slot":"3","type":"t_mapping(t_address,t_string_storage)"},{"astId":5676,"contract":"contracts/Auction.sol:Auction","label":"isCommitteeMember","offset":0,"slot":"4","type":"t_mapping(t_address,t_bool)"},{"astId":5679,"contract":"contracts/Auction.sol:Auction","label":"auctionArr","offset":0,"slot":"5","type":"t_array(t_string_storage)dyn_storage"},{"astId":5682,"contract":"contracts/Auction.sol:Auction","label":"disputeArr","offset":0,"slot":"6","type":"t_array(t_string_storage)dyn_storage"},{"astId":5685,"contract":"contracts/Auction.sol:Auction","label":"tokensToStake","offset":0,"slot":"7","type":"t_uint256"},{"astId":5688,"contract":"contracts/Auction.sol:Auction","label":"token","offset":0,"slot":"8","type":"t_contract(ObscurityToken)7177"},{"astId":5695,"contract":"contracts/Auction.sol:Auction","label":"auctionDuration","offset":20,"slot":"8","type":"t_uint64"},{"astId":5698,"contract":"contracts/Auction.sol:Auction","label":"concurrentAuctionsPerUser","offset":28,"slot":"8","type":"t_uint8"}],"types":{"t_address":{"encoding":"inplace","label":"address","numberOfBytes":"20"},"t_address_payable":{"encoding":"inplace","label":"address payable","numberOfBytes":"20"},"t_array(t_string_storage)dyn_storage":{"base":"t_string_storage","encoding":"dynamic_array","label":"string[]","numberOfBytes":"32"},"t_bool":{"encoding":"inplace","label":"bool","numberOfBytes":"1"},"t_contract(ObscurityToken)7177":{"encoding":"inplace","label":"contract ObscurityToken","numberOfBytes":"20"},"t_enum(EscrowState)5618":{"encoding":"inplace","label":"enum Auction.EscrowState","numberOfBytes":"1"},"t_mapping(t_address,t_bool)":{"encoding":"mapping","key":"t_address","label":"mapping(address => bool)","numberOfBytes":"32","value":"t_bool"},"t_mapping(t_address,t_string_storage)":{"encoding":"mapping","key":"t_address","label":"mapping(address => string)","numberOfBytes":"32","value":"t_string_storage"},"t_mapping(t_address,t_struct(ActiveAuctioneer)5658_storage)":{"encoding":"mapping","key":"t_address","label":"mapping(address => struct Auction.ActiveAuctioneer)","numberOfBytes":"32","value":"t_struct(ActiveAuctioneer)5658_storage"},"t_mapping(t_string_memory_ptr,t_struct(AuctionItem)5650_storage)":{"encoding":"mapping","key":"t_string_memory_ptr","label":"mapping(string => struct Auction.AuctionItem)","numberOfBytes":"32","value":"t_struct(AuctionItem)5650_storage"},"t_string_memory_ptr":{"encoding":"bytes","label":"string","numberOfBytes":"32"},"t_string_storage":{"encoding":"bytes","label":"string","numberOfBytes":"32"},"t_struct(ActiveAuctioneer)5658_storage":{"encoding":"inplace","label":"struct Auction.ActiveAuctioneer","members":[{"astId":5652,"contract":"contracts/Auction.sol:Auction","label":"stakedAmount","offset":0,"slot":"0","type":"t_uint256"},{"astId":5655,"contract":"contracts/Auction.sol:Auction","label":"activeAuctions","offset":0,"slot":"1","type":"t_array(t_string_storage)dyn_storage"},{"astId":5657,"contract":"contracts/Auction.sol:Auction","label":"isInitialized","offset":0,"slot":"2","type":"t_bool"}],"numberOfBytes":"96"},"t_struct(AuctionItem)5650_storage":{"encoding":"inplace","label":"struct Auction.AuctionItem","members":[{"astId":5620,"contract":"contracts/Auction.sol:Auction","label":"itemId","offset":0,"slot":"0","type":"t_string_storage"},{"astId":5622,"contract":"contracts/Auction.sol:Auction","label":"itemName","offset":0,"slot":"1","type":"t_string_storage"},{"astId":5624,"contract":"contracts/Auction.sol:Auction","label":"seller","offset":0,"slot":"2","type":"t_address_payable"},{"astId":5626,"contract":"contracts/Auction.sol:Auction","label":"reservePrice","offset":0,"slot":"3","type":"t_uint256"},{"astId":5628,"contract":"contracts/Auction.sol:Auction","label":"highestBid","offset":0,"slot":"4","type":"t_uint256"},{"astId":5630,"contract":"contracts/Auction.sol:Auction","label":"highestBidder","offset":0,"slot":"5","type":"t_address_payable"},{"astId":5632,"contract":"contracts/Auction.sol:Auction","label":"auctionEndTime","offset":0,"slot":"6","type":"t_uint256"},{"astId":5634,"contract":"contracts/Auction.sol:Auction","label":"ended","offset":0,"slot":"7","type":"t_bool"},{"astId":5636,"contract":"contracts/Auction.sol:Auction","label":"deliveryAddress","offset":0,"slot":"8","type":"t_string_storage"},{"astId":5639,"contract":"contracts/Auction.sol:Auction","label":"privateChatLogs","offset":0,"slot":"9","type":"t_array(t_string_storage)dyn_storage"},{"astId":5642,"contract":"contracts/Auction.sol:Auction","label":"committeeChatLogs","offset":0,"slot":"10","type":"t_array(t_string_storage)dyn_storage"},{"astId":5645,"contract":"contracts/Auction.sol:Auction","label":"escrowState","offset":0,"slot":"11","type":"t_enum(EscrowState)5618"},{"astId":5647,"contract":"contracts/Auction.sol:Auction","label":"yesVotes","offset":1,"slot":"11","type":"t_uint8"},{"astId":5649,"contract":"contracts/Auction.sol:Auction","label":"noVotes","offset":2,"slot":"11","type":"t_uint8"}],"numberOfBytes":"384"},"t_uint256":{"encoding":"inplace","label":"uint256","numberOfBytes":"32"},"t_uint64":{"encoding":"inplace","label":"uint64","numberOfBytes":"8"},"t_uint8":{"encoding":"inplace","label":"uint8","numberOfBytes":"1"}}},"userdoc":{"kind":"user","methods":{},"version":1}}}}