{"contracts/ObscurityToken.sol":{"ObscurityToken":{"abi":[{"inputs":[],"stateMutability":"nonpayable","type":"constructor"},{"inputs":[],"name":"InvalidShortString","type":"error"},{"inputs":[{"internalType":"string","name":"str","type":"string"}],"name":"StringTooLong","type":"error"},{"anonymous":false,"inputs":[{"indexed":true,"internalType":"address","name":"owner","type":"address"},{"indexed":true,"internalType":"address","name":"spender","type":"address"},{"indexed":false,"internalType":"uint256","name":"value","type":"uint256"}],"name":"Approval","type":"event"},{"anonymous":false,"inputs":[{"indexed":true,"internalType":"address","name":"delegator","type":"address"},{"indexed":true,"internalType":"address","name":"fromDelegate","type":"address"},{"indexed":true,"internalType":"address","name":"toDelegate","type":"address"}],"name":"DelegateChanged","type":"event"},{"anonymous":false,"inputs":[{"indexed":true,"internalType":"address","name":"delegate","type":"address"},{"indexed":false,"internalType":"uint256","name":"previousBalance","type":"uint256"},{"indexed":false,"internalType":"uint256","name":"newBalance","type":"uint256"}],"name":"DelegateVotesChanged","type":"event"},{"anonymous":false,"inputs":[],"name":"EIP712DomainChanged","type":"event"},{"anonymous":false,"inputs":[{"indexed":true,"internalType":"address","name":"from","type":"address"},{"indexed":true,"internalType":"address","name":"to","type":"address"},{"indexed":false,"internalType":"uint256","name":"value","type":"uint256"}],"name":"Transfer","type":"event"},{"inputs":[],"name":"CLOCK_MODE","outputs":[{"internalType":"string","name":"","type":"string"}],"stateMutability":"view","type":"function"},{"inputs":[],"name":"DOMAIN_SEPARATOR","outputs":[{"internalType":"bytes32","name":"","type":"bytes32"}],"stateMutability":"view","type":"function"},{"inputs":[{"internalType":"address","name":"owner","type":"address"},{"internalType":"address","name":"spender","type":"address"}],"name":"allowance","outputs":[{"internalType":"uint256","name":"","type":"uint256"}],"stateMutability":"view","type":"function"},{"inputs":[{"internalType":"address","name":"spender","type":"address"},{"internalType":"uint256","name":"amount","type":"uint256"}],"name":"approve","outputs":[{"internalType":"bool","name":"","type":"bool"}],"stateMutability":"nonpayable","type":"function"},{"inputs":[{"internalType":"address","name":"account","type":"address"}],"name":"balanceOf","outputs":[{"internalType":"uint256","name":"","type":"uint256"}],"stateMutability":"view","type":"function"},{"inputs":[{"internalType":"address","name":"account","type":"address"},{"internalType":"uint32","name":"pos","type":"uint32"}],"name":"checkpoints","outputs":[{"components":[{"internalType":"uint32","name":"fromBlock","type":"uint32"},{"internalType":"uint224","name":"votes","type":"uint224"}],"internalType":"struct ERC20Votes.Checkpoint","name":"","type":"tuple"}],"stateMutability":"view","type":"function"},{"inputs":[],"name":"clock","outputs":[{"internalType":"uint48","name":"","type":"uint48"}],"stateMutability":"view","type":"function"},{"inputs":[],"name":"decimals","outputs":[{"internalType":"uint8","name":"","type":"uint8"}],"stateMutability":"view","type":"function"},{"inputs":[{"internalType":"address","name":"spender","type":"address"},{"internalType":"uint256","name":"subtractedValue","type":"uint256"}],"name":"decreaseAllowance","outputs":[{"internalType":"bool","name":"","type":"bool"}],"stateMutability":"nonpayable","type":"function"},{"inputs":[{"internalType":"address","name":"delegatee","type":"address"}],"name":"delegate","outputs":[],"stateMutability":"nonpayable","type":"function"},{"inputs":[{"internalType":"address","name":"delegatee","type":"address"},{"internalType":"uint256","name":"nonce","type":"uint256"},{"internalType":"uint256","name":"expiry","type":"uint256"},{"internalType":"uint8","name":"v","type":"uint8"},{"internalType":"bytes32","name":"r","type":"bytes32"},{"internalType":"bytes32","name":"s","type":"bytes32"}],"name":"delegateBySig","outputs":[],"stateMutability":"nonpayable","type":"function"},{"inputs":[{"internalType":"address","name":"account","type":"address"}],"name":"delegates","outputs":[{"internalType":"address","name":"","type":"address"}],"stateMutability":"view","type":"function"},{"inputs":[],"name":"eip712Domain","outputs":[{"internalType":"bytes1","name":"fields","type":"bytes1"},{"internalType":"string","name":"name","type":"string"},{"internalType":"string","name":"version","type":"string"},{"internalType":"uint256","name":"chainId","type":"uint256"},{"internalType":"address","name":"verifyingContract","type":"address"},{"internalType":"bytes32","name":"salt","type":"bytes32"},{"internalType":"uint256[]","name":"extensions","type":"uint256[]"}],"stateMutability":"view","type":"function"},{"inputs":[{"internalType":"uint256","name":"timepoint","type":"uint256"}],"name":"getPastTotalSupply","outputs":[{"internalType":"uint256","name":"","type":"uint256"}],"stateMutability":"view","type":"function"},{"inputs":[{"internalType":"address","name":"account","type":"address"},{"internalType":"uint256","name":"timepoint","type":"uint256"}],"name":"getPastVotes","outputs":[{"internalType":"uint256","name":"","type":"uint256"}],"stateMutability":"view","type":"function"},{"inputs":[{"internalType":"address","name":"account","type":"address"}],"name":"getVotes","outputs":[{"internalType":"uint256","name":"","type":"uint256"}],"stateMutability":"view","type":"function"},{"inputs":[{"internalType":"address","name":"spender","type":"address"},{"internalType":"uint256","name":"addedValue","type":"uint256"}],"name":"increaseAllowance","outputs":[{"internalType":"bool","name":"","type":"bool"}],"stateMutability":"nonpayable","type":"function"},{"inputs":[],"name":"name","outputs":[{"internalType":"string","name":"","type":"string"}],"stateMutability":"view","type":"function"},{"inputs":[{"internalType":"address","name":"owner","type":"address"}],"name":"nonces","outputs":[{"internalType":"uint256","name":"","type":"uint256"}],"stateMutability":"view","type":"function"},{"inputs":[{"internalType":"address","name":"account","type":"address"}],"name":"numCheckpoints","outputs":[{"internalType":"uint32","name":"","type":"uint32"}],"stateMutability":"view","type":"function"},{"inputs":[{"internalType":"address","name":"owner","type":"address"},{"internalType":"address","name":"spender","type":"address"},{"internalType":"uint256","name":"value","type":"uint256"},{"internalType":"uint256","name":"deadline","type":"uint256"},{"internalType":"uint8","name":"v","type":"uint8"},{"internalType":"bytes32","name":"r","type":"bytes32"},{"internalType":"bytes32","name":"s","type":"bytes32"}],"name":"permit","outputs":[],"stateMutability":"nonpayable","type":"function"},{"inputs":[],"name":"s_maxSupply","outputs":[{"internalType":"uint256","name":"","type":"uint256"}],"stateMutability":"view","type":"function"},{"inputs":[],"name":"symbol","outputs":[{"internalType":"string","name":"","type":"string"}],"stateMutability":"view","type":"function"},{"inputs":[],"name":"totalSupply","outputs":[{"internalType":"uint256","name":"","type":"uint256"}],"stateMutability":"view","type":"function"},{"inputs":[{"internalType":"address","name":"to","type":"address"},{"internalType":"uint256","name":"amount","type":"uint256"}],"name":"transfer","outputs":[{"internalType":"bool","name":"","type":"bool"}],"stateMutability":"nonpayable","type":"function"},{"inputs":[{"internalType":"address","name":"from","type":"address"},{"internalType":"address","name":"to","type":"address"},{"internalType":"uint256","name":"amount","type":"uint256"}],"name":"transferFrom","outputs":[{"internalType":"bool","name":"","type":"bool"}],"stateMutability":"nonpayable","type":"function"}],"devdoc":{"events":{"Approval(address,address,uint256)":{"details":"Emitted when the allowance of a `spender` for an `owner` is set by a call to {approve}. `value` is the new allowance."},"DelegateChanged(address,address,address)":{"details":"Emitted when an account changes their delegate."},"DelegateVotesChanged(address,uint256,uint256)":{"details":"Emitted when a token transfer or delegate change results in changes to a delegate's number of votes."},"EIP712DomainChanged()":{"details":"MAY be emitted to signal that the domain could have changed."},"Transfer(address,address,uint256)":{"details":"Emitted when `value` tokens are moved from one account (`from`) to another (`to`). Note that `value` may be zero."}},"kind":"dev","methods":{"CLOCK_MODE()":{"details":"Description of the clock"},"DOMAIN_SEPARATOR()":{"details":"See {IERC20Permit-DOMAIN_SEPARATOR}."},"allowance(address,address)":{"details":"See {IERC20-allowance}."},"approve(address,uint256)":{"details":"See {IERC20-approve}. NOTE: If `amount` is the maximum `uint256`, the allowance is not updated on `transferFrom`. This is semantically equivalent to an infinite approval. Requirements: - `spender` cannot be the zero address."},"balanceOf(address)":{"details":"See {IERC20-balanceOf}."},"checkpoints(address,uint32)":{"details":"Get the `pos`-th checkpoint for `account`."},"clock()":{"details":"Clock used for flagging checkpoints. Can be overridden to implement timestamp based checkpoints (and voting)."},"decimals()":{"details":"Returns the number of decimals used to get its user representation. For example, if `decimals` equals `2`, a balance of `505` tokens should be displayed to a user as `5.05` (`505 / 10 ** 2`). Tokens usually opt for a value of 18, imitating the relationship between Ether and Wei. This is the default value returned by this function, unless it's overridden. NOTE: This information is only used for _display_ purposes: it in no way affects any of the arithmetic of the contract, including {IERC20-balanceOf} and {IERC20-transfer}."},"decreaseAllowance(address,uint256)":{"details":"Atomically decreases the allowance granted to `spender` by the caller. This is an alternative to {approve} that can be used as a mitigation for problems described in {IERC20-approve}. Emits an {Approval} event indicating the updated allowance. Requirements: - `spender` cannot be the zero address. - `spender` must have allowance for the caller of at least `subtractedValue`."},"delegate(address)":{"details":"Delegate votes from the sender to `delegatee`."},"delegateBySig(address,uint256,uint256,uint8,bytes32,bytes32)":{"details":"Delegates votes from signer to `delegatee`"},"delegates(address)":{"details":"Get the address `account` is currently delegating to."},"eip712Domain()":{"details":"See {EIP-5267}. _Available since v4.9._"},"getPastTotalSupply(uint256)":{"details":"Retrieve the `totalSupply` at the end of `timepoint`. Note, this value is the sum of all balances. It is NOT the sum of all the delegated votes! Requirements: - `timepoint` must be in the past"},"getPastVotes(address,uint256)":{"details":"Retrieve the number of votes for `account` at the end of `timepoint`. Requirements: - `timepoint` must be in the past"},"getVotes(address)":{"details":"Gets the current votes balance for `account`"},"increaseAllowance(address,uint256)":{"details":"Atomically increases the allowance granted to `spender` by the caller. This is an alternative to {approve} that can be used as a mitigation for problems described in {IERC20-approve}. Emits an {Approval} event indicating the updated allowance. Requirements: - `spender` cannot be the zero address."},"name()":{"details":"Returns the name of the token."},"nonces(address)":{"details":"See {IERC20Permit-nonces}."},"numCheckpoints(address)":{"details":"Get number of checkpoints for `account`."},"permit(address,address,uint256,uint256,uint8,bytes32,bytes32)":{"details":"See {IERC20Permit-permit}."},"symbol()":{"details":"Returns the symbol of the token, usually a shorter version of the name."},"totalSupply()":{"details":"See {IERC20-totalSupply}."},"transfer(address,uint256)":{"details":"See {IERC20-transfer}. Requirements: - `to` cannot be the zero address. - the caller must have a balance of at least `amount`."},"transferFrom(address,address,uint256)":{"details":"See {IERC20-transferFrom}. Emits an {Approval} event indicating the updated allowance. This is not required by the EIP. See the note at the beginning of {ERC20}. NOTE: Does not update the allowance if the current allowance is the maximum `uint256`. Requirements: - `from` and `to` cannot be the zero address. - `from` must have a balance of at least `amount`. - the caller must have allowance for ``from``'s tokens of at least `amount`."}},"version":1},"evm":{"bytecode":{"linkReferences":{},"object":"610160604052346200020e576200001562000280565b6200001f62000280565b906200002a62000256565b916020926113d560f21b84820152620000426200026b565b603160f81b858201908152835190939192916001600160401b03821162000208576200007b8262000075600354620002ac565b620002e9565b8690601f83116001146200017857620000b5939291600091836200016c575b50508160011b916000199060031b1c1916176003556200044d565b620000c08362000540565b92610120938452620000d28262000653565b94610140958652815191012060e052519020916101009283524660a052620000f962000804565b6080523060c0526200011469d3c21bcecceda1000000600c55565b62000122600c5433620008d6565b604051916120fd93846200105f853960805184611b03015260a05184611bbe015260c05184611ad4015260e05184611b5201525183611b78015251826108430152518161086c0152f35b0151905038806200009a565b6003600052601f19831691907fc2575a0e9e593c00f959f8c92f12db2869c3395a3b0502d05e2516446f71f85b9260005b8a828210620001f1575050916001939185620000b597969410620001d7575b505050811b016003556200044d565b015160001960f88460031b161c19169055388080620001c8565b6001859682939686015181550195019301620001a9565b62000213565b600080fd5b634e487b7160e01b600052604160045260246000fd5b604081019081106001600160401b038211176200020857604052565b60405190620002548262000229565b565b60405190620002658262000229565b60028252565b604051906200027a8262000229565b60018252565b604051906200028f8262000229565b600e82526d27b139b1bab934ba3caa37b5b2b760911b6020830152565b90600182811c92168015620002de575b6020831014620002c857565b634e487b7160e01b600052602260045260246000fd5b91607f1691620002bc565b601f8111620002f6575050565b6000906003825260208220906020601f850160051c8301941062000337575b601f0160051c01915b8281106200032b57505050565b8181556001016200031e565b909250829062000315565b601f81116200034f575050565b6000906004825260208220906020601f850160051c8301941062000390575b601f0160051c01915b8281106200038457505050565b81815560010162000377565b90925082906200036e565b601f8111620003a8575050565b6000906005825260208220906020601f850160051c83019410620003e9575b601f0160051c01915b828110620003dd57505050565b818155600101620003d0565b9092508290620003c7565b601f811162000401575050565b6000906006825260208220906020601f850160051c8301941062000442575b601f0160051c01915b8281106200043657505050565b81815560010162000429565b909250829062000420565b80519091906001600160401b0381116200020857620004798162000473600454620002ac565b62000342565b602080601f8311600114620004b85750819293600092620004ac575b50508160011b916000199060031b1c191617600455565b01519050388062000495565b6004600052601f198316949091907f8a35acfbc15ff81a39ae7d344fd709f28e8600b4aa8c65c6b64bfe7fe36bd19b926000905b878210620005275750508360019596106200050d575b505050811b01600455565b015160001960f88460031b161c1916905538808062000502565b80600185968294968601518155019501930190620004ec565b908151602080821060001462000561575050906200055e9062000787565b90565b6001600160401b0382116200020857620005888262000582600554620002ac565b6200039b565b80601f8311600114620005c85750819293600092620005bc575b50508160011b916000199060031b1c19161760055560ff90565b015190503880620005a2565b6005600052601f198316949091907f036b6384b5eca791c62761152d0c79bb0604c104a5fb6f4eb0703f3154bb3db0926000905b8782106200063a57505083600195961062000620575b505050811b0160055560ff90565b015160001960f88460031b161c1916905538808062000612565b80600185968294968601518155019501930190620005fc565b908151602080821060001462000671575050906200055e9062000787565b6001600160401b0382116200020857620006988262000692600654620002ac565b620003f4565b80601f8311600114620006d85750819293600092620006cc575b50508160011b916000199060031b1c19161760065560ff90565b015190503880620006b2565b6006600052601f198316949091907ff652222313e28459528d920b65115c16c04f3efc82aaedc97be59f3f377c0d3f926000905b8782106200074a57505083600195961062000730575b505050811b0160065560ff90565b015160001960f88460031b161c1916905538808062000722565b806001859682949686015181550195019301906200070c565b60208151910151906020811062000778575090565b6000199060200360031b1b1690565b601f815111620007a2576200079c8162000763565b90511790565b6040519063305a27a960e01b82528160208060048301528251908160248401526000935b828510620007ea575050604492506000838284010152601f80199101168101030190fd5b8481018201518686016044015293810193859350620007c6565b60e051610100516040519060208201927f8b73c3c69bb8fe3d512ecc4cf759cc79239f7b179b0ffacaa9a75d522b39400f8452604083015260608201524660808201523060a082015260a0815260c0810181811060018060401b03821117620002085760405251902090565b156200087857565b60405162461bcd60e51b815260206004820152603060248201527f4552433230566f7465733a20746f74616c20737570706c79207269736b73206f60448201526f766572666c6f77696e6720766f74657360801b6064820152608490fd5b906001600160a01b038216801562000980576002548281018091116200097a57620009769362000958926200090b8593600255565b6001600160a01b038216600090815260208181526040808320805487019055518581527fddf252ad1be2c89b69c2b068fc378daa952ba7f163c4a11628f55a4df523b3ef9190a362000f34565b60025462000970906001600160e01b03101562000870565b62000ae5565b5050565b620009c5565b60405162461bcd60e51b815260206004820152601f60248201527f45524332303a206d696e7420746f20746865207a65726f2061646472657373006044820152606490fd5b634e487b7160e01b600052601160045260246000fd5b604080519192919081016001600160401b038111828210176200020857604052602081935463ffffffff81168352811c910152565b600b54906801000000000000000082101562000208576001820180600b5582101562000a7e57600b600052805160209182015190911b63ffffffff191663ffffffff91909116177f0175b7a638427703f0dbe7bb9bbf987a2551717b34e79f33b5b1008d1fa01db990910155565b634e487b7160e01b600052603260045260246000fd5b9081546801000000000000000081101562000208576001810180845581101562000a7e57600092835260209283902082519284015190931b63ffffffff191663ffffffff9290921691909117910155565b600b549091811591821562000c2d5762000afe62000245565b60008152600060208201525b602081015162000b379062000b2f906001600160e01b03165b6001600160e01b031690565b958662001042565b9315908162000c06575b501562000b9e57620002549062000b8762000b5c8562000dfc565b600b600052917f0175b7a638427703f0dbe7bb9bbf987a2551717b34e79f33b5b1008d1fa01db80190565b9063ffffffff82549181199060201b169116179055565b506200025462000bc762000bc162000bb64362000e66565b65ffffffffffff1690565b62000ece565b62000c0062000bd68562000dfc565b62000bf062000be462000245565b63ffffffff9094168452565b6001600160e01b03166020830152565b62000a10565b5163ffffffff16905063ffffffff62000c2362000bb64362000e66565b9116143862000b41565b600b60005262000c657f0175b7a638427703f0dbe7bb9bbf987a2551717b34e79f33b5b1008d1fa01db88201620009db565b620009db565b62000b0a565b90918154918215928360001462000d6f5762000c8662000245565b60008152600060208201525b602081015162000cb89062000cb0906001600160e01b031662000b23565b968762001050565b9415908162000d48575b501562000cef5762000b87620002549262000cdd8662000dfc565b92600019019060005260206000200190565b50620002549062000d0862000bc162000bb64362000e66565b9062000d4262000d188662000dfc565b62000d3262000d2662000245565b63ffffffff9095168552565b6001600160e01b03166020840152565b62000a94565b5163ffffffff16905063ffffffff62000d6562000bb64362000e66565b9116143862000cc2565b62000d8962000c5f60001983018460005260206000200190565b62000c92565b90918154918215928360001462000ddc5762000daa62000245565b60008152600060208201525b602081015162000cb89062000dd4906001600160e01b031662000b23565b968762001042565b62000df662000c5f60001983018460005260206000200190565b62000db6565b6001600160e01b039081811162000e11571690565b60405162461bcd60e51b815260206004820152602760248201527f53616665436173743a2076616c756520646f65736e27742066697420696e20326044820152663234206269747360c81b6064820152608490fd5b65ffffffffffff9081811162000e7a571690565b60405162461bcd60e51b815260206004820152602660248201527f53616665436173743a2076616c756520646f65736e27742066697420696e203460448201526538206269747360d01b6064820152608490fd5b63ffffffff9081811162000ee0571690565b60405162461bcd60e51b815260206004820152602660248201527f53616665436173743a2076616c756520646f65736e27742066697420696e203360448201526532206269747360d01b6064820152608490fd5b60096020527fec8156718a8372b1db44bb411437d0870f3e3790d4a08526d024ce1b0b668f6b546001600160a01b03918216600090815260408120548316939290911690818414158062001038575b62000f8f575b50505050565b82908262000ff7575b5050508162000faa575b808062000f89565b6001600160a01b0382166000908152600a602052604090206000805160206200315c8339815191529162000fde9162000d8f565b60408051928352602083019190915290a2388062000fa2565b6000805160206200315c83398151915291604082856200101e9452600a6020522062000c6b565b60408051928352602083019190915290a238818162000f98565b5082151562000f83565b9081018091116200097a5790565b9081039081116200097a579056fe6080604052600436101561001257600080fd5b60003560e01c806306fdde03146101b7578063095ea7b3146101b257806318160ddd146101ad57806323b872dd146101a8578063313ce567146101a35780633644e5151461019e57806339509351146101995780633a46b1a8146101945780634bf5d7e91461018f578063587cde1e1461018a5780635c19a95c146101855780635d641847146101805780636fcfff451461017b57806370a08231146101765780637ecebe001461017157806384b0196e1461016c5780638e539e8c1461016757806391ddadf41461016257806395d89b411461015d5780639ab24eb014610158578063a457c2d714610153578063a9059cbb1461014e578063c3cda52014610149578063d505accf14610144578063dd62ed3e1461013f5763f1127ed81461013a57600080fd5b610f75565b610f18565b610dd3565b610ca3565b610c5d565b610bae565b610b4c565b610aa5565b610a79565b610920565b610828565b6107ee565b6107b4565b61076c565b61074e565b61072a565b6106ef565b61063d565b6104ed565b61048e565b61046b565b61044f565b610375565b610357565b610326565b610210565b919082519283825260005b8481106101e8575050826000602080949584010152601f8019910116010190565b6020818301810151848301820152016101c7565b90602061020d9281815201906101bc565b90565b346102f5576000806003193601126102f257604051908060035461023381610ffb565b808552916001918083169081156102c8575060011461026d575b6102698561025d818703826110a4565b604051918291826101fc565b0390f35b9250600383527fc2575a0e9e593c00f959f8c92f12db2869c3395a3b0502d05e2516446f71f85b5b8284106102b057505050810160200161025d8261026961024d565b80546020858701810191909152909301928101610295565b8695506102699693506020925061025d94915060ff191682840152151560051b820101929361024d565b80fd5b600080fd5b600435906001600160a01b03821682036102f557565b602435906001600160a01b03821682036102f557565b346102f55760403660031901126102f55761034c6103426102fa565b60243590336112b6565b602060405160018152f35b346102f55760003660031901126102f5576020600254604051908152f35b346102f55760603660031901126102f55761038e6102fa565b610396610310565b604435906001600160a01b03831660005260016020526103cd336040600020906001600160a01b0316600052602052604060002090565b5492600184016103ee575b6103e2935061119d565b60405160018152602090f35b82841061040a57610405836103e2950333836112b6565b6103d8565b60405162461bcd60e51b815260206004820152601d60248201527f45524332303a20696e73756666696369656e7420616c6c6f77616e63650000006044820152606490fd5b346102f55760003660031901126102f557602060405160128152f35b346102f55760003660031901126102f5576020610486611aca565b604051908152f35b346102f55760403660031901126102f5576104a76102fa565b3360005260016020526104d1816040600020906001600160a01b0316600052602052604060002090565b5460243581018091116104e85761034c91336112b6565b6110c6565b346102f55760403660031901126102f5576105066102fa565b6001600160a01b036024359161052d65ffffffffffff61052543611fad565b168410611491565b16600052600a6020526040600020805491600083600581116105ec575b50905b83821061059b57505081610574575050602060005b6040516001600160e01b039091168152f35b61058f61059691602093600019019060005260206000200190565b5460201c90565b610562565b90926105a78185611ddd565b908263ffffffff6105cc6105c2858860005260206000200190565b5463ffffffff1690565b1611156105dc5750925b9061054d565b93506105e7906110dc565b6105d6565b806105fc61060292969396611df2565b906114dd565b908263ffffffff61061d6105c2858860005260206000200190565b16111561062d5750925b3861054a565b9350610638906110dc565b610627565b346102f55760003660031901126102f5574365ffffffffffff61065f43611fad565b16036106aa576102696040516106748161104b565b601d81527f6d6f64653d626c6f636b6e756d6265722666726f6d3d64656661756c740000006020820152604051918291826101fc565b60405162461bcd60e51b815260206004820152601d60248201527f4552433230566f7465733a2062726f6b656e20636c6f636b206d6f64650000006044820152606490fd5b346102f55760203660031901126102f55760206001600160a01b03806107136102fa565b166000526009825260406000205416604051908152f35b346102f55760203660031901126102f55761074c6107466102fa565b33611536565b005b346102f55760003660031901126102f5576020600c54604051908152f35b346102f55760203660031901126102f5576001600160a01b0361078d6102fa565b16600052600a60205260206107a6604060002054612014565b63ffffffff60405191168152f35b346102f55760203660031901126102f5576001600160a01b036107d56102fa565b1660005260006020526020604060002054604051908152f35b346102f55760203660031901126102f5576001600160a01b0361080f6102fa565b1660005260076020526020604060002054604051908152f35b346102f5576000806003193601126102f2576108d2906108677f0000000000000000000000000000000000000000000000000000000000000000611c0a565b6108907f0000000000000000000000000000000000000000000000000000000000000000611d03565b916040519161089e8361106c565b818352604051948594600f60f81b86526108c460209360e08589015260e08801906101bc565b9086820360408801526101bc565b904660608601523060808601528260a086015284820360c08601528080855193848152019401925b82811061090957505050500390f35b8351855286955093810193928101926001016108fa565b346102f55760203660031901126102f55760043561094f65ffffffffffff61094743611fad565b168210611491565b600b549060008260058111610a12575b50905b8282106109af57828061097c575060405160008152602090f35b600b600052602090610596907f0175b7a638427703f0dbe7bb9bbf987a2551717b34e79f33b5b1008d1fa01db80161058f565b90916109bb8184611ddd565b600b600052908263ffffffff6109f27f0175b7a638427703f0dbe7bb9bbf987a2551717b34e79f33b5b1008d1fa01db985016105c2565b161115610a025750915b90610962565b9250610a0d906110dc565b6109fc565b806105fc610a2292959395611df2565b600b600052908263ffffffff610a597f0175b7a638427703f0dbe7bb9bbf987a2551717b34e79f33b5b1008d1fa01db985016105c2565b161115610a695750915b3861095f565b9250610a74906110dc565b610a63565b346102f55760003660031901126102f5576020610a9543611fad565b65ffffffffffff60405191168152f35b346102f5576000806003193601126102f2576040519080600454610ac881610ffb565b808552916001918083169081156102c85750600114610af1576102698561025d818703826110a4565b9250600483527f8a35acfbc15ff81a39ae7d344fd709f28e8600b4aa8c65c6b64bfe7fe36bd19b5b828410610b3457505050810160200161025d8261026961024d565b80546020858701810191909152909301928101610b19565b346102f55760203660031901126102f5576001600160a01b03610b6d6102fa565b16600052600a602052604060002080548015600014610b9457505060405160008152602090f35b602091610ba5916000190190611441565b5054811c610562565b346102f55760403660031901126102f557610bc76102fa565b60243590336000526001602052610bf5816040600020906001600160a01b0316600052602052604060002090565b5491808310610c0a576103e2920390336112b6565b60405162461bcd60e51b815260206004820152602560248201527f45524332303a2064656372656173656420616c6c6f77616e63652062656c6f77604482015264207a65726f60d81b6064820152608490fd5b346102f55760403660031901126102f55761034c610c796102fa565b602435903361119d565b6064359060ff821682036102f557565b6084359060ff821682036102f557565b346102f55760c03660031901126102f557610cbc6102fa565b60443590602435610ccb610c83565b92804211610d8e57610d5c610d899161074c9560405190610d4482610d366020820195898b886060919493926001600160a01b0360808301967fe48329057bfd03d55e49b547132e39cffd9c1820ad7b9d4c5307691425d15adf845216602083015260408201520152565b03601f1981018452836110a4565b610d5760a4359360843593519020611be4565b6118e4565b91610d83836001600160a01b03166000526007602052604060002090815491600183019055565b146114ea565b611536565b60405162461bcd60e51b815260206004820152601d60248201527f4552433230566f7465733a207369676e617475726520657870697265640000006044820152606490fd5b346102f55760e03660031901126102f557610dec6102fa565b610df4610310565b6044359060643592610e04610c93565b93804211610ed357610ebb610ece91610d3661074c97610ea8610e43876001600160a01b03166000526007602052604060002090815491600183019055565b9360405193849160208301968c8c8c8a91959493909260a09360c08401977f6e71edae12b1b97f4d1f60370fef10105fa2faae0126114a169c64845d6126c985526001600160a01b038092166020860152166040840152606083015260808201520152565b610d5760c4359360a43593519020611be4565b6001600160a01b038084169116146113e8565b6112b6565b60405162461bcd60e51b815260206004820152601d60248201527f45524332305065726d69743a206578706972656420646561646c696e650000006044820152606490fd5b346102f55760403660031901126102f5576020610f6c610f366102fa565b6001600160a01b03610f46610310565b9116600052600183526040600020906001600160a01b0316600052602052604060002090565b54604051908152f35b346102f55760403660031901126102f557610f8e6102fa565b63ffffffff60243581811681036102f557610fd7610fdd916001600160a01b03604095600060208851610fc08161104b565b828152015216600052600a60205284600020611441565b5061146f565b8251815190921682526020908101516001600160e01b031690820152f35b90600182811c9216801561102b575b602083101461101557565b634e487b7160e01b600052602260045260246000fd5b91607f169161100a565b634e487b7160e01b600052604160045260246000fd5b6040810190811067ffffffffffffffff82111761106757604052565b611035565b6020810190811067ffffffffffffffff82111761106757604052565b60c0810190811067ffffffffffffffff82111761106757604052565b90601f8019910116810190811067ffffffffffffffff82111761106757604052565b634e487b7160e01b600052601160045260246000fd5b90600182018092116104e857565b156110f157565b60405162461bcd60e51b815260206004820152602360248201527f45524332303a207472616e7366657220746f20746865207a65726f206164647260448201526265737360e81b6064820152608490fd5b1561114957565b60405162461bcd60e51b815260206004820152602660248201527f45524332303a207472616e7366657220616d6f756e7420657863656564732062604482015265616c616e636560d01b6064820152608490fd5b91906001600160a01b0392838116801561126357611261948316906111c38215156110ea565b846111e1846001600160a01b03166000526000602052604060002090565b546111ee82821015611142565b0361120c846001600160a01b03166000526000602052604060002090565b5561122a846001600160a01b03166000526000602052604060002090565b8054860190556040518581527fddf252ad1be2c89b69c2b068fc378daa952ba7f163c4a11628f55a4df523b3ef90602090a3612079565b565b60405162461bcd60e51b815260206004820152602560248201527f45524332303a207472616e736665722066726f6d20746865207a65726f206164604482015264647265737360d81b6064820152608490fd5b906001600160a01b039182811692831561139757821693841561134757806113317f8c5be1e5ebec7d5bd14f71427d1e84f3dd0314c0f7b2291e5b200ac8c7c3b92594611319611342956001600160a01b03166000526001602052604060002090565b906001600160a01b0316600052602052604060002090565b556040519081529081906020820190565b0390a3565b60405162461bcd60e51b815260206004820152602260248201527f45524332303a20617070726f766520746f20746865207a65726f206164647265604482015261737360f01b6064820152608490fd5b60405162461bcd60e51b8152602060048201526024808201527f45524332303a20617070726f76652066726f6d20746865207a65726f206164646044820152637265737360e01b6064820152608490fd5b156113ef57565b60405162461bcd60e51b815260206004820152601e60248201527f45524332305065726d69743a20696e76616c6964207369676e617475726500006044820152606490fd5b604051906112618261104b565b80548210156114595760005260206000200190600090565b634e487b7160e01b600052603260045260246000fd5b9060405161147c8161104b565b602081935463ffffffff81168352811c910152565b1561149857565b60405162461bcd60e51b815260206004820152601960248201527f4552433230566f7465733a20667574757265206c6f6f6b7570000000000000006044820152606490fd5b919082039182116104e857565b156114f157565b60405162461bcd60e51b815260206004820152601960248201527f4552433230566f7465733a20696e76616c6964206e6f6e6365000000000000006044820152606490fd5b611261916001600160a01b038092166000928184526009602052806040852054168092856020527f3134e8a2e6d97e929a7e54011ea5485d7d196dd5f0ba4d4ef95803e8e3fc257f60408720549660096020526040812094871694856bffffffffffffffffffffffff60a01b82541617905580a45b91906001600160a01b03808216931683811415806117c3575b6115cf575b50505050565b80611642575b50826115e2575b806115c9565b7fdec2bacdd2f05b59de34da9b523dff8be42e5e38e818c82fdb0bae774387a72491611624611629926001600160a01b0316600052600a602052604060002090565b61182b565b60408051928352602083019190915290a23880806115dc565b80600052600a6020527fdec2bacdd2f05b59de34da9b523dff8be42e5e38e818c82fdb0bae774387a72460406000208054801591826000146117a057611686611434565b6000815260006020820152915b60208301516116b2906001600160e01b03165b6001600160e01b031690565b926116bd89856120ad565b9415908161177d575b501561171b576116ee611705926116dc86611f44565b92600019019060005260206000200190565b9063ffffffff82549181199060201b169116179055565b604080519182526020820192909252a2386115d5565b506117789061173f61173a61172f43611fad565b65ffffffffffff1690565b612014565b9061177361174c86611f44565b611763611757611434565b63ffffffff9095168552565b6001600160e01b03166020840152565b6117cc565b611705565b5163ffffffff16905063ffffffff61179761172f43611fad565b911614386116c6565b6117bd6117b860001984018360005260206000200190565b61146f565b91611693565b508215156115c4565b805468010000000000000000811015611067576117ee91600182018155611441565b61181557815160209283015190921b63ffffffff191663ffffffff92909216919091179055565b634e487b7160e01b600052600060045260246000fd5b9091815491821592836000146118c757611843611434565b60008152600060208201525b60208101516118719061186a906001600160e01b03166116a6565b96876120ba565b941590816118a4575b5015611890576116ee611261926116dc86611f44565b506112619061173f61173a61172f43611fad565b5163ffffffff16905063ffffffff6118be61172f43611fad565b9116143861187a565b6118df6117b860001983018460005260206000200190565b61184f565b9161020d93916118f393611a3b565b91909161191b565b6005111561190557565b634e487b7160e01b600052602160045260246000fd5b611924816118fb565b8061192c5750565b611935816118fb565b600181036119825760405162461bcd60e51b815260206004820152601860248201527f45434453413a20696e76616c6964207369676e617475726500000000000000006044820152606490fd5b61198b816118fb565b600281036119d85760405162461bcd60e51b815260206004820152601f60248201527f45434453413a20696e76616c6964207369676e6174757265206c656e677468006044820152606490fd5b806119e46003926118fb565b146119eb57565b60405162461bcd60e51b815260206004820152602260248201527f45434453413a20696e76616c6964207369676e6174757265202773272076616c604482015261756560f01b6064820152608490fd5b9291907f7fffffffffffffffffffffffffffffff5d576e7357a4501ddfe92f46681b20a08311611abe5791608094939160ff602094604051948552168484015260408301526060820152600093849182805260015afa15611ab15781516001600160a01b03811615611aab579190565b50600190565b50604051903d90823e3d90fd5b50505050600090600390565b6001600160a01b037f000000000000000000000000000000000000000000000000000000000000000016301480611bbb575b15611b25577f000000000000000000000000000000000000000000000000000000000000000090565b60405160208101907f8b73c3c69bb8fe3d512ecc4cf759cc79239f7b179b0ffacaa9a75d522b39400f82527f000000000000000000000000000000000000000000000000000000000000000060408201527f000000000000000000000000000000000000000000000000000000000000000060608201524660808201523060a082015260a08152611bb581611088565b51902090565b507f00000000000000000000000000000000000000000000000000000000000000004614611afc565b604290611bef611aca565b906040519161190160f01b8352600283015260228201522090565b60ff8114611c485760ff811690601f8211611c365760405191611c2c8361104b565b8252602082015290565b604051632cd44ac360e21b8152600490fd5b50604051600554816000611c5b83610ffb565b80835292600190818116908115611ce15750600114611c82575b5061020d925003826110a4565b6005600090815291507f036b6384b5eca791c62761152d0c79bb0604c104a5fb6f4eb0703f3154bb3db05b848310611cc6575061020d935050810160200138611c75565b81935090816020925483858901015201910190918492611cad565b90506020925061020d94915060ff191682840152151560051b82010138611c75565b60ff8114611d255760ff811690601f8211611c365760405191611c2c8361104b565b50604051600654816000611d3883610ffb565b80835292600190818116908115611ce15750600114611d5e575061020d925003826110a4565b6006600090815291507ff652222313e28459528d920b65115c16c04f3efc82aaedc97be59f3f377c0d3f5b848310611da2575061020d935050810160200138611c75565b81935090816020925483858901015201910190918492611d89565b8115611dc7570490565b634e487b7160e01b600052601260045260246000fd5b90808216911860011c81018091116104e85790565b8015611f2c5780611ec5611ebe611eb4611eaa611ea0611e96611e8c611e82600161020d9a6000908b60801c80611f20575b508060401c80611f13575b508060201c80611f06575b508060101c80611ef9575b508060081c80611eec575b508060041c80611edf575b508060021c80611ed2575b50821c611ecb575b811c1b611e7b818b611dbd565b0160011c90565b611e7b818a611dbd565b611e7b8189611dbd565b611e7b8188611dbd565b611e7b8187611dbd565b611e7b8186611dbd565b611e7b8185611dbd565b8092611dbd565b90611f32565b8101611e6e565b6002915091019038611e66565b6004915091019038611e5b565b6008915091019038611e50565b6010915091019038611e45565b6020915091019038611e3a565b6040915091019038611e2f565b91505060809038611e24565b50600090565b9080821015611f3f575090565b905090565b6001600160e01b0390818111611f58571690565b60405162461bcd60e51b815260206004820152602760248201527f53616665436173743a2076616c756520646f65736e27742066697420696e20326044820152663234206269747360c81b6064820152608490fd5b65ffffffffffff90818111611fc0571690565b60405162461bcd60e51b815260206004820152602660248201527f53616665436173743a2076616c756520646f65736e27742066697420696e203460448201526538206269747360d01b6064820152608490fd5b63ffffffff90818111612025571690565b60405162461bcd60e51b815260206004820152602660248201527f53616665436173743a2076616c756520646f65736e27742066697420696e203360448201526532206269747360d01b6064820152608490fd5b9061126192916001600160a01b038091166000526009602052808060406000205416921660005260406000205416906115ab565b9081039081116104e85790565b9081018091116104e8579056fea264697066735822122048e9388320875a05e770633727ab168f791bf1a2fcdcce2e2548e39abe02d58664736f6c63430008130033dec2bacdd2f05b59de34da9b523dff8be42e5e38e818c82fdb0bae774387a724","opcodes":"PUSH2 0x160 PUSH1 0x40 MSTORE CALLVALUE PUSH3 0x20E JUMPI PUSH3 0x15 PUSH3 0x280 JUMP JUMPDEST PUSH3 0x1F PUSH3 0x280 JUMP JUMPDEST SWAP1 PUSH3 0x2A PUSH3 0x256 JUMP JUMPDEST SWAP2 PUSH1 0x20 SWAP3 PUSH2 0x13D5 PUSH1 0xF2 SHL DUP5 DUP3 ADD MSTORE PUSH3 0x42 PUSH3 0x26B JUMP JUMPDEST PUSH1 0x31 PUSH1 0xF8 SHL DUP6 DUP3 ADD SWAP1 DUP2 MSTORE DUP4 MLOAD SWAP1 SWAP4 SWAP2 SWAP3 SWAP2 PUSH1 0x1 PUSH1 0x1 PUSH1 0x40 SHL SUB DUP3 GT PUSH3 0x208 JUMPI PUSH3 0x7B DUP3 PUSH3 0x75 PUSH1 0x3 SLOAD PUSH3 0x2AC JUMP JUMPDEST PUSH3 0x2E9 JUMP JUMPDEST DUP7 SWAP1 PUSH1 0x1F DUP4 GT PUSH1 0x1 EQ PUSH3 0x178 JUMPI PUSH3 0xB5 SWAP4 SWAP3 SWAP2 PUSH1 0x0 SWAP2 DUP4 PUSH3 0x16C JUMPI JUMPDEST POP POP DUP2 PUSH1 0x1 SHL SWAP2 PUSH1 0x0 NOT SWAP1 PUSH1 0x3 SHL SHR NOT AND OR PUSH1 0x3 SSTORE PUSH3 0x44D JUMP JUMPDEST PUSH3 0xC0 DUP4 PUSH3 0x540 JUMP JUMPDEST SWAP3 PUSH2 0x120 SWAP4 DUP5 MSTORE PUSH3 0xD2 DUP3 PUSH3 0x653 JUMP JUMPDEST SWAP5 PUSH2 0x140 SWAP6 DUP7 MSTORE DUP2 MLOAD SWAP2 ADD KECCAK256 PUSH1 0xE0 MSTORE MLOAD SWAP1 KECCAK256 SWAP2 PUSH2 0x100 SWAP3 DUP4 MSTORE CHAINID PUSH1 0xA0 MSTORE PUSH3 0xF9 PUSH3 0x804 JUMP JUMPDEST PUSH1 0x80 MSTORE ADDRESS PUSH1 0xC0 MSTORE PUSH3 0x114 PUSH10 0xD3C21BCECCEDA1000000 PUSH1 0xC SSTORE JUMP JUMPDEST PUSH3 0x122 PUSH1 0xC SLOAD CALLER PUSH3 0x8D6 JUMP JUMPDEST PUSH1 0x40 MLOAD SWAP2 PUSH2 0x20FD SWAP4 DUP5 PUSH3 0x105F DUP6 CODECOPY PUSH1 0x80 MLOAD DUP5 PUSH2 0x1B03 ADD MSTORE PUSH1 0xA0 MLOAD DUP5 PUSH2 0x1BBE ADD MSTORE PUSH1 0xC0 MLOAD DUP5 PUSH2 0x1AD4 ADD MSTORE PUSH1 0xE0 MLOAD DUP5 PUSH2 0x1B52 ADD MSTORE MLOAD DUP4 PUSH2 0x1B78 ADD MSTORE MLOAD DUP3 PUSH2 0x843 ADD MSTORE MLOAD DUP2 PUSH2 0x86C ADD MSTORE RETURN JUMPDEST ADD MLOAD SWAP1 POP CODESIZE DUP1 PUSH3 0x9A JUMP JUMPDEST PUSH1 0x3 PUSH1 0x0 MSTORE PUSH1 0x1F NOT DUP4 AND SWAP2 SWAP1 PUSH32 0xC2575A0E9E593C00F959F8C92F12DB2869C3395A3B0502D05E2516446F71F85B SWAP3 PUSH1 0x0 JUMPDEST DUP11 DUP3 DUP3 LT PUSH3 0x1F1 JUMPI POP POP SWAP2 PUSH1 0x1 SWAP4 SWAP2 DUP6 PUSH3 0xB5 SWAP8 SWAP7 SWAP5 LT PUSH3 0x1D7 JUMPI JUMPDEST POP POP POP DUP2 SHL ADD PUSH1 0x3 SSTORE PUSH3 0x44D JUMP JUMPDEST ADD MLOAD PUSH1 0x0 NOT PUSH1 0xF8 DUP5 PUSH1 0x3 SHL AND SHR NOT AND SWAP1 SSTORE CODESIZE DUP1 DUP1 PUSH3 0x1C8 JUMP JUMPDEST PUSH1 0x1 DUP6 SWAP7 DUP3 SWAP4 SWAP7 DUP7 ADD MLOAD DUP2 SSTORE ADD SWAP6 ADD SWAP4 ADD PUSH3 0x1A9 JUMP JUMPDEST PUSH3 0x213 JUMP JUMPDEST PUSH1 0x0 DUP1 REVERT JUMPDEST PUSH4 0x4E487B71 PUSH1 0xE0 SHL PUSH1 0x0 MSTORE PUSH1 0x41 PUSH1 0x4 MSTORE PUSH1 0x24 PUSH1 0x0 REVERT JUMPDEST PUSH1 0x40 DUP2 ADD SWAP1 DUP2 LT PUSH1 0x1 PUSH1 0x1 PUSH1 0x40 SHL SUB DUP3 GT OR PUSH3 0x208 JUMPI PUSH1 0x40 MSTORE JUMP JUMPDEST PUSH1 0x40 MLOAD SWAP1 PUSH3 0x254 DUP3 PUSH3 0x229 JUMP JUMPDEST JUMP JUMPDEST PUSH1 0x40 MLOAD SWAP1 PUSH3 0x265 DUP3 PUSH3 0x229 JUMP JUMPDEST PUSH1 0x2 DUP3 MSTORE JUMP JUMPDEST PUSH1 0x40 MLOAD SWAP1 PUSH3 0x27A DUP3 PUSH3 0x229 JUMP JUMPDEST PUSH1 0x1 DUP3 MSTORE JUMP JUMPDEST PUSH1 0x40 MLOAD SWAP1 PUSH3 0x28F DUP3 PUSH3 0x229 JUMP JUMPDEST PUSH1 0xE DUP3 MSTORE PUSH14 0x27B139B1BAB934BA3CAA37B5B2B7 PUSH1 0x91 SHL PUSH1 0x20 DUP4 ADD MSTORE JUMP JUMPDEST SWAP1 PUSH1 0x1 DUP3 DUP2 SHR SWAP3 AND DUP1 ISZERO PUSH3 0x2DE JUMPI JUMPDEST PUSH1 0x20 DUP4 LT EQ PUSH3 0x2C8 JUMPI JUMP JUMPDEST PUSH4 0x4E487B71 PUSH1 0xE0 SHL PUSH1 0x0 MSTORE PUSH1 0x22 PUSH1 0x4 MSTORE PUSH1 0x24 PUSH1 0x0 REVERT JUMPDEST SWAP2 PUSH1 0x7F AND SWAP2 PUSH3 0x2BC JUMP JUMPDEST PUSH1 0x1F DUP2 GT PUSH3 0x2F6 JUMPI POP POP JUMP JUMPDEST PUSH1 0x0 SWAP1 PUSH1 0x3 DUP3 MSTORE PUSH1 0x20 DUP3 KECCAK256 SWAP1 PUSH1 0x20 PUSH1 0x1F DUP6 ADD PUSH1 0x5 SHR DUP4 ADD SWAP5 LT PUSH3 0x337 JUMPI JUMPDEST PUSH1 0x1F ADD PUSH1 0x5 SHR ADD SWAP2 JUMPDEST DUP3 DUP2 LT PUSH3 0x32B JUMPI POP POP POP JUMP JUMPDEST DUP2 DUP2 SSTORE PUSH1 0x1 ADD PUSH3 0x31E JUMP JUMPDEST SWAP1 SWAP3 POP DUP3 SWAP1 PUSH3 0x315 JUMP JUMPDEST PUSH1 0x1F DUP2 GT PUSH3 0x34F JUMPI POP POP JUMP JUMPDEST PUSH1 0x0 SWAP1 PUSH1 0x4 DUP3 MSTORE PUSH1 0x20 DUP3 KECCAK256 SWAP1 PUSH1 0x20 PUSH1 0x1F DUP6 ADD PUSH1 0x5 SHR DUP4 ADD SWAP5 LT PUSH3 0x390 JUMPI JUMPDEST PUSH1 0x1F ADD PUSH1 0x5 SHR ADD SWAP2 JUMPDEST DUP3 DUP2 LT PUSH3 0x384 JUMPI POP POP POP JUMP JUMPDEST DUP2 DUP2 SSTORE PUSH1 0x1 ADD PUSH3 0x377 JUMP JUMPDEST SWAP1 SWAP3 POP DUP3 SWAP1 PUSH3 0x36E JUMP JUMPDEST PUSH1 0x1F DUP2 GT PUSH3 0x3A8 JUMPI POP POP JUMP JUMPDEST PUSH1 0x0 SWAP1 PUSH1 0x5 DUP3 MSTORE PUSH1 0x20 DUP3 KECCAK256 SWAP1 PUSH1 0x20 PUSH1 0x1F DUP6 ADD PUSH1 0x5 SHR DUP4 ADD SWAP5 LT PUSH3 0x3E9 JUMPI JUMPDEST PUSH1 0x1F ADD PUSH1 0x5 SHR ADD SWAP2 JUMPDEST DUP3 DUP2 LT PUSH3 0x3DD JUMPI POP POP POP JUMP JUMPDEST DUP2 DUP2 SSTORE PUSH1 0x1 ADD PUSH3 0x3D0 JUMP JUMPDEST SWAP1 SWAP3 POP DUP3 SWAP1 PUSH3 0x3C7 JUMP JUMPDEST PUSH1 0x1F DUP2 GT PUSH3 0x401 JUMPI POP POP JUMP JUMPDEST PUSH1 0x0 SWAP1 PUSH1 0x6 DUP3 MSTORE PUSH1 0x20 DUP3 KECCAK256 SWAP1 PUSH1 0x20 PUSH1 0x1F DUP6 ADD PUSH1 0x5 SHR DUP4 ADD SWAP5 LT PUSH3 0x442 JUMPI JUMPDEST PUSH1 0x1F ADD PUSH1 0x5 SHR ADD SWAP2 JUMPDEST DUP3 DUP2 LT PUSH3 0x436 JUMPI POP POP POP JUMP JUMPDEST DUP2 DUP2 SSTORE PUSH1 0x1 ADD PUSH3 0x429 JUMP JUMPDEST SWAP1 SWAP3 POP DUP3 SWAP1 PUSH3 0x420 JUMP JUMPDEST DUP1 MLOAD SWAP1 SWAP2 SWAP1 PUSH1 0x1 PUSH1 0x1 PUSH1 0x40 SHL SUB DUP2 GT PUSH3 0x208 JUMPI PUSH3 0x479 DUP2 PUSH3 0x473 PUSH1 0x4 SLOAD PUSH3 0x2AC JUMP JUMPDEST PUSH3 0x342 JUMP JUMPDEST PUSH1 0x20 DUP1 PUSH1 0x1F DUP4 GT PUSH1 0x1 EQ PUSH3 0x4B8 JUMPI POP DUP2 SWAP3 SWAP4 PUSH1 0x0 SWAP3 PUSH3 0x4AC JUMPI JUMPDEST POP POP DUP2 PUSH1 0x1 SHL SWAP2 PUSH1 0x0 NOT SWAP1 PUSH1 0x3 SHL SHR NOT AND OR PUSH1 0x4 SSTORE JUMP JUMPDEST ADD MLOAD SWAP1 POP CODESIZE DUP1 PUSH3 0x495 JUMP JUMPDEST PUSH1 0x4 PUSH1 0x0 MSTORE PUSH1 0x1F NOT DUP4 AND SWAP5 SWAP1 SWAP2 SWAP1 PUSH32 0x8A35ACFBC15FF81A39AE7D344FD709F28E8600B4AA8C65C6B64BFE7FE36BD19B SWAP3 PUSH1 0x0 SWAP1 JUMPDEST DUP8 DUP3 LT PUSH3 0x527 JUMPI POP POP DUP4 PUSH1 0x1 SWAP6 SWAP7 LT PUSH3 0x50D JUMPI JUMPDEST POP POP POP DUP2 SHL ADD PUSH1 0x4 SSTORE JUMP JUMPDEST ADD MLOAD PUSH1 0x0 NOT PUSH1 0xF8 DUP5 PUSH1 0x3 SHL AND SHR NOT AND SWAP1 SSTORE CODESIZE DUP1 DUP1 PUSH3 0x502 JUMP JUMPDEST DUP1 PUSH1 0x1 DUP6 SWAP7 DUP3 SWAP5 SWAP7 DUP7 ADD MLOAD DUP2 SSTORE ADD SWAP6 ADD SWAP4 ADD SWAP1 PUSH3 0x4EC JUMP JUMPDEST SWAP1 DUP2 MLOAD PUSH1 0x20 DUP1 DUP3 LT PUSH1 0x0 EQ PUSH3 0x561 JUMPI POP POP SWAP1 PUSH3 0x55E SWAP1 PUSH3 0x787 JUMP JUMPDEST SWAP1 JUMP JUMPDEST PUSH1 0x1 PUSH1 0x1 PUSH1 0x40 SHL SUB DUP3 GT PUSH3 0x208 JUMPI PUSH3 0x588 DUP3 PUSH3 0x582 PUSH1 0x5 SLOAD PUSH3 0x2AC JUMP JUMPDEST PUSH3 0x39B JUMP JUMPDEST DUP1 PUSH1 0x1F DUP4 GT PUSH1 0x1 EQ PUSH3 0x5C8 JUMPI POP DUP2 SWAP3 SWAP4 PUSH1 0x0 SWAP3 PUSH3 0x5BC JUMPI JUMPDEST POP POP DUP2 PUSH1 0x1 SHL SWAP2 PUSH1 0x0 NOT SWAP1 PUSH1 0x3 SHL SHR NOT AND OR PUSH1 0x5 SSTORE PUSH1 0xFF SWAP1 JUMP JUMPDEST ADD MLOAD SWAP1 POP CODESIZE DUP1 PUSH3 0x5A2 JUMP JUMPDEST PUSH1 0x5 PUSH1 0x0 MSTORE PUSH1 0x1F NOT DUP4 AND SWAP5 SWAP1 SWAP2 SWAP1 PUSH32 0x36B6384B5ECA791C62761152D0C79BB0604C104A5FB6F4EB0703F3154BB3DB0 SWAP3 PUSH1 0x0 SWAP1 JUMPDEST DUP8 DUP3 LT PUSH3 0x63A JUMPI POP POP DUP4 PUSH1 0x1 SWAP6 SWAP7 LT PUSH3 0x620 JUMPI JUMPDEST POP POP POP DUP2 SHL ADD PUSH1 0x5 SSTORE PUSH1 0xFF SWAP1 JUMP JUMPDEST ADD MLOAD PUSH1 0x0 NOT PUSH1 0xF8 DUP5 PUSH1 0x3 SHL AND SHR NOT AND SWAP1 SSTORE CODESIZE DUP1 DUP1 PUSH3 0x612 JUMP JUMPDEST DUP1 PUSH1 0x1 DUP6 SWAP7 DUP3 SWAP5 SWAP7 DUP7 ADD MLOAD DUP2 SSTORE ADD SWAP6 ADD SWAP4 ADD SWAP1 PUSH3 0x5FC JUMP JUMPDEST SWAP1 DUP2 MLOAD PUSH1 0x20 DUP1 DUP3 LT PUSH1 0x0 EQ PUSH3 0x671 JUMPI POP POP SWAP1 PUSH3 0x55E SWAP1 PUSH3 0x787 JUMP JUMPDEST PUSH1 0x1 PUSH1 0x1 PUSH1 0x40 SHL SUB DUP3 GT PUSH3 0x208 JUMPI PUSH3 0x698 DUP3 PUSH3 0x692 PUSH1 0x6 SLOAD PUSH3 0x2AC JUMP JUMPDEST PUSH3 0x3F4 JUMP JUMPDEST DUP1 PUSH1 0x1F DUP4 GT PUSH1 0x1 EQ PUSH3 0x6D8 JUMPI POP DUP2 SWAP3 SWAP4 PUSH1 0x0 SWAP3 PUSH3 0x6CC JUMPI JUMPDEST POP POP DUP2 PUSH1 0x1 SHL SWAP2 PUSH1 0x0 NOT SWAP1 PUSH1 0x3 SHL SHR NOT AND OR PUSH1 0x6 SSTORE PUSH1 0xFF SWAP1 JUMP JUMPDEST ADD MLOAD SWAP1 POP CODESIZE DUP1 PUSH3 0x6B2 JUMP JUMPDEST PUSH1 0x6 PUSH1 0x0 MSTORE PUSH1 0x1F NOT DUP4 AND SWAP5 SWAP1 SWAP2 SWAP1 PUSH32 0xF652222313E28459528D920B65115C16C04F3EFC82AAEDC97BE59F3F377C0D3F SWAP3 PUSH1 0x0 SWAP1 JUMPDEST DUP8 DUP3 LT PUSH3 0x74A JUMPI POP POP DUP4 PUSH1 0x1 SWAP6 SWAP7 LT PUSH3 0x730 JUMPI JUMPDEST POP POP POP DUP2 SHL ADD PUSH1 0x6 SSTORE PUSH1 0xFF SWAP1 JUMP JUMPDEST ADD MLOAD PUSH1 0x0 NOT PUSH1 0xF8 DUP5 PUSH1 0x3 SHL AND SHR NOT AND SWAP1 SSTORE CODESIZE DUP1 DUP1 PUSH3 0x722 JUMP JUMPDEST DUP1 PUSH1 0x1 DUP6 SWAP7 DUP3 SWAP5 SWAP7 DUP7 ADD MLOAD DUP2 SSTORE ADD SWAP6 ADD SWAP4 ADD SWAP1 PUSH3 0x70C JUMP JUMPDEST PUSH1 0x20 DUP2 MLOAD SWAP2 ADD MLOAD SWAP1 PUSH1 0x20 DUP2 LT PUSH3 0x778 JUMPI POP SWAP1 JUMP JUMPDEST PUSH1 0x0 NOT SWAP1 PUSH1 0x20 SUB PUSH1 0x3 SHL SHL AND SWAP1 JUMP JUMPDEST PUSH1 0x1F DUP2 MLOAD GT PUSH3 0x7A2 JUMPI PUSH3 0x79C DUP2 PUSH3 0x763 JUMP JUMPDEST SWAP1 MLOAD OR SWAP1 JUMP JUMPDEST PUSH1 0x40 MLOAD SWAP1 PUSH4 0x305A27A9 PUSH1 0xE0 SHL DUP3 MSTORE DUP2 PUSH1 0x20 DUP1 PUSH1 0x4 DUP4 ADD MSTORE DUP3 MLOAD SWAP1 DUP2 PUSH1 0x24 DUP5 ADD MSTORE PUSH1 0x0 SWAP4 JUMPDEST DUP3 DUP6 LT PUSH3 0x7EA JUMPI POP POP PUSH1 0x44 SWAP3 POP PUSH1 0x0 DUP4 DUP3 DUP5 ADD ADD MSTORE PUSH1 0x1F DUP1 NOT SWAP2 ADD AND DUP2 ADD SUB ADD SWAP1 REVERT JUMPDEST DUP5 DUP2 ADD DUP3 ADD MLOAD DUP7 DUP7 ADD PUSH1 0x44 ADD MSTORE SWAP4 DUP2 ADD SWAP4 DUP6 SWAP4 POP PUSH3 0x7C6 JUMP JUMPDEST PUSH1 0xE0 MLOAD PUSH2 0x100 MLOAD PUSH1 0x40 MLOAD SWAP1 PUSH1 0x20 DUP3 ADD SWAP3 PUSH32 0x8B73C3C69BB8FE3D512ECC4CF759CC79239F7B179B0FFACAA9A75D522B39400F DUP5 MSTORE PUSH1 0x40 DUP4 ADD MSTORE PUSH1 0x60 DUP3 ADD MSTORE CHAINID PUSH1 0x80 DUP3 ADD MSTORE ADDRESS PUSH1 0xA0 DUP3 ADD MSTORE PUSH1 0xA0 DUP2 MSTORE PUSH1 0xC0 DUP2 ADD DUP2 DUP2 LT PUSH1 0x1 DUP1 PUSH1 0x40 SHL SUB DUP3 GT OR PUSH3 0x208 JUMPI PUSH1 0x40 MSTORE MLOAD SWAP1 KECCAK256 SWAP1 JUMP JUMPDEST ISZERO PUSH3 0x878 JUMPI JUMP JUMPDEST PUSH1 0x40 MLOAD PUSH3 0x461BCD PUSH1 0xE5 SHL DUP2 MSTORE PUSH1 0x20 PUSH1 0x4 DUP3 ADD MSTORE PUSH1 0x30 PUSH1 0x24 DUP3 ADD MSTORE PUSH32 0x4552433230566F7465733A20746F74616C20737570706C79207269736B73206F PUSH1 0x44 DUP3 ADD MSTORE PUSH16 0x766572666C6F77696E6720766F746573 PUSH1 0x80 SHL PUSH1 0x64 DUP3 ADD MSTORE PUSH1 0x84 SWAP1 REVERT JUMPDEST SWAP1 PUSH1 0x1 PUSH1 0x1 PUSH1 0xA0 SHL SUB DUP3 AND DUP1 ISZERO PUSH3 0x980 JUMPI PUSH1 0x2 SLOAD DUP3 DUP2 ADD DUP1 SWAP2 GT PUSH3 0x97A JUMPI PUSH3 0x976 SWAP4 PUSH3 0x958 SWAP3 PUSH3 0x90B DUP6 SWAP4 PUSH1 0x2 SSTORE JUMP JUMPDEST PUSH1 0x1 PUSH1 0x1 PUSH1 0xA0 SHL SUB DUP3 AND PUSH1 0x0 SWAP1 DUP2 MSTORE PUSH1 0x20 DUP2 DUP2 MSTORE PUSH1 0x40 DUP1 DUP4 KECCAK256 DUP1 SLOAD DUP8 ADD SWAP1 SSTORE MLOAD DUP6 DUP2 MSTORE PUSH32 0xDDF252AD1BE2C89B69C2B068FC378DAA952BA7F163C4A11628F55A4DF523B3EF SWAP2 SWAP1 LOG3 PUSH3 0xF34 JUMP JUMPDEST PUSH1 0x2 SLOAD PUSH3 0x970 SWAP1 PUSH1 0x1 PUSH1 0x1 PUSH1 0xE0 SHL SUB LT ISZERO PUSH3 0x870 JUMP JUMPDEST PUSH3 0xAE5 JUMP JUMPDEST POP POP JUMP JUMPDEST PUSH3 0x9C5 JUMP JUMPDEST PUSH1 0x40 MLOAD PUSH3 0x461BCD PUSH1 0xE5 SHL DUP2 MSTORE PUSH1 0x20 PUSH1 0x4 DUP3 ADD MSTORE PUSH1 0x1F PUSH1 0x24 DUP3 ADD MSTORE PUSH32 0x45524332303A206D696E7420746F20746865207A65726F206164647265737300 PUSH1 0x44 DUP3 ADD MSTORE PUSH1 0x64 SWAP1 REVERT JUMPDEST PUSH4 0x4E487B71 PUSH1 0xE0 SHL PUSH1 0x0 MSTORE PUSH1 0x11 PUSH1 0x4 MSTORE PUSH1 0x24 PUSH1 0x0 REVERT JUMPDEST PUSH1 0x40 DUP1 MLOAD SWAP2 SWAP3 SWAP2 SWAP1 DUP2 ADD PUSH1 0x1 PUSH1 0x1 PUSH1 0x40 SHL SUB DUP2 GT DUP3 DUP3 LT OR PUSH3 0x208 JUMPI PUSH1 0x40 MSTORE PUSH1 0x20 DUP2 SWAP4 SLOAD PUSH4 0xFFFFFFFF DUP2 AND DUP4 MSTORE DUP2 SHR SWAP2 ADD MSTORE JUMP JUMPDEST PUSH1 0xB SLOAD SWAP1 PUSH9 0x10000000000000000 DUP3 LT ISZERO PUSH3 0x208 JUMPI PUSH1 0x1 DUP3 ADD DUP1 PUSH1 0xB SSTORE DUP3 LT ISZERO PUSH3 0xA7E JUMPI PUSH1 0xB PUSH1 0x0 MSTORE DUP1 MLOAD PUSH1 0x20 SWAP2 DUP3 ADD MLOAD SWAP1 SWAP2 SHL PUSH4 0xFFFFFFFF NOT AND PUSH4 0xFFFFFFFF SWAP2 SWAP1 SWAP2 AND OR PUSH32 0x175B7A638427703F0DBE7BB9BBF987A2551717B34E79F33B5B1008D1FA01DB9 SWAP1 SWAP2 ADD SSTORE JUMP JUMPDEST PUSH4 0x4E487B71 PUSH1 0xE0 SHL PUSH1 0x0 MSTORE PUSH1 0x32 PUSH1 0x4 MSTORE PUSH1 0x24 PUSH1 0x0 REVERT JUMPDEST SWAP1 DUP2 SLOAD PUSH9 0x10000000000000000 DUP2 LT ISZERO PUSH3 0x208 JUMPI PUSH1 0x1 DUP2 ADD DUP1 DUP5 SSTORE DUP2 LT ISZERO PUSH3 0xA7E JUMPI PUSH1 0x0 SWAP3 DUP4 MSTORE PUSH1 0x20 SWAP3 DUP4 SWAP1 KECCAK256 DUP3 MLOAD SWAP3 DUP5 ADD MLOAD SWAP1 SWAP4 SHL PUSH4 0xFFFFFFFF NOT AND PUSH4 0xFFFFFFFF SWAP3 SWAP1 SWAP3 AND SWAP2 SWAP1 SWAP2 OR SWAP2 ADD SSTORE JUMP JUMPDEST PUSH1 0xB SLOAD SWAP1 SWAP2 DUP2 ISZERO SWAP2 DUP3 ISZERO PUSH3 0xC2D JUMPI PUSH3 0xAFE PUSH3 0x245 JUMP JUMPDEST PUSH1 0x0 DUP2 MSTORE PUSH1 0x0 PUSH1 0x20 DUP3 ADD MSTORE JUMPDEST PUSH1 0x20 DUP2 ADD MLOAD PUSH3 0xB37 SWAP1 PUSH3 0xB2F SWAP1 PUSH1 0x1 PUSH1 0x1 PUSH1 0xE0 SHL SUB AND JUMPDEST PUSH1 0x1 PUSH1 0x1 PUSH1 0xE0 SHL SUB AND SWAP1 JUMP JUMPDEST SWAP6 DUP7 PUSH3 0x1042 JUMP JUMPDEST SWAP4 ISZERO SWAP1 DUP2 PUSH3 0xC06 JUMPI JUMPDEST POP ISZERO PUSH3 0xB9E JUMPI PUSH3 0x254 SWAP1 PUSH3 0xB87 PUSH3 0xB5C DUP6 PUSH3 0xDFC JUMP JUMPDEST PUSH1 0xB PUSH1 0x0 MSTORE SWAP2 PUSH32 0x175B7A638427703F0DBE7BB9BBF987A2551717B34E79F33B5B1008D1FA01DB8 ADD SWAP1 JUMP JUMPDEST SWAP1 PUSH4 0xFFFFFFFF DUP3 SLOAD SWAP2 DUP2 NOT SWAP1 PUSH1 0x20 SHL AND SWAP2 AND OR SWAP1 SSTORE JUMP JUMPDEST POP PUSH3 0x254 PUSH3 0xBC7 PUSH3 0xBC1 PUSH3 0xBB6 NUMBER PUSH3 0xE66 JUMP JUMPDEST PUSH6 0xFFFFFFFFFFFF AND SWAP1 JUMP JUMPDEST PUSH3 0xECE JUMP JUMPDEST PUSH3 0xC00 PUSH3 0xBD6 DUP6 PUSH3 0xDFC JUMP JUMPDEST PUSH3 0xBF0 PUSH3 0xBE4 PUSH3 0x245 JUMP JUMPDEST PUSH4 0xFFFFFFFF SWAP1 SWAP5 AND DUP5 MSTORE JUMP JUMPDEST PUSH1 0x1 PUSH1 0x1 PUSH1 0xE0 SHL SUB AND PUSH1 0x20 DUP4 ADD MSTORE JUMP JUMPDEST PUSH3 0xA10 JUMP JUMPDEST MLOAD PUSH4 0xFFFFFFFF AND SWAP1 POP PUSH4 0xFFFFFFFF PUSH3 0xC23 PUSH3 0xBB6 NUMBER PUSH3 0xE66 JUMP JUMPDEST SWAP2 AND EQ CODESIZE PUSH3 0xB41 JUMP JUMPDEST PUSH1 0xB PUSH1 0x0 MSTORE PUSH3 0xC65 PUSH32 0x175B7A638427703F0DBE7BB9BBF987A2551717B34E79F33B5B1008D1FA01DB8 DUP3 ADD PUSH3 0x9DB JUMP JUMPDEST PUSH3 0x9DB JUMP JUMPDEST PUSH3 0xB0A JUMP JUMPDEST SWAP1 SWAP2 DUP2 SLOAD SWAP2 DUP3 ISZERO SWAP3 DUP4 PUSH1 0x0 EQ PUSH3 0xD6F JUMPI PUSH3 0xC86 PUSH3 0x245 JUMP JUMPDEST PUSH1 0x0 DUP2 MSTORE PUSH1 0x0 PUSH1 0x20 DUP3 ADD MSTORE JUMPDEST PUSH1 0x20 DUP2 ADD MLOAD PUSH3 0xCB8 SWAP1 PUSH3 0xCB0 SWAP1 PUSH1 0x1 PUSH1 0x1 PUSH1 0xE0 SHL SUB AND PUSH3 0xB23 JUMP JUMPDEST SWAP7 DUP8 PUSH3 0x1050 JUMP JUMPDEST SWAP5 ISZERO SWAP1 DUP2 PUSH3 0xD48 JUMPI JUMPDEST POP ISZERO PUSH3 0xCEF JUMPI PUSH3 0xB87 PUSH3 0x254 SWAP3 PUSH3 0xCDD DUP7 PUSH3 0xDFC JUMP JUMPDEST SWAP3 PUSH1 0x0 NOT ADD SWAP1 PUSH1 0x0 MSTORE PUSH1 0x20 PUSH1 0x0 KECCAK256 ADD SWAP1 JUMP JUMPDEST POP PUSH3 0x254 SWAP1 PUSH3 0xD08 PUSH3 0xBC1 PUSH3 0xBB6 NUMBER PUSH3 0xE66 JUMP JUMPDEST SWAP1 PUSH3 0xD42 PUSH3 0xD18 DUP7 PUSH3 0xDFC JUMP JUMPDEST PUSH3 0xD32 PUSH3 0xD26 PUSH3 0x245 JUMP JUMPDEST PUSH4 0xFFFFFFFF SWAP1 SWAP6 AND DUP6 MSTORE JUMP JUMPDEST PUSH1 0x1 PUSH1 0x1 PUSH1 0xE0 SHL SUB AND PUSH1 0x20 DUP5 ADD MSTORE JUMP JUMPDEST PUSH3 0xA94 JUMP JUMPDEST MLOAD PUSH4 0xFFFFFFFF AND SWAP1 POP PUSH4 0xFFFFFFFF PUSH3 0xD65 PUSH3 0xBB6 NUMBER PUSH3 0xE66 JUMP JUMPDEST SWAP2 AND EQ CODESIZE PUSH3 0xCC2 JUMP JUMPDEST PUSH3 0xD89 PUSH3 0xC5F PUSH1 0x0 NOT DUP4 ADD DUP5 PUSH1 0x0 MSTORE PUSH1 0x20 PUSH1 0x0 KECCAK256 ADD SWAP1 JUMP JUMPDEST PUSH3 0xC92 JUMP JUMPDEST SWAP1 SWAP2 DUP2 SLOAD SWAP2 DUP3 ISZERO SWAP3 DUP4 PUSH1 0x0 EQ PUSH3 0xDDC JUMPI PUSH3 0xDAA PUSH3 0x245 JUMP JUMPDEST PUSH1 0x0 DUP2 MSTORE PUSH1 0x0 PUSH1 0x20 DUP3 ADD MSTORE JUMPDEST PUSH1 0x20 DUP2 ADD MLOAD PUSH3 0xCB8 SWAP1 PUSH3 0xDD4 SWAP1 PUSH1 0x1 PUSH1 0x1 PUSH1 0xE0 SHL SUB AND PUSH3 0xB23 JUMP JUMPDEST SWAP7 DUP8 PUSH3 0x1042 JUMP JUMPDEST PUSH3 0xDF6 PUSH3 0xC5F PUSH1 0x0 NOT DUP4 ADD DUP5 PUSH1 0x0 MSTORE PUSH1 0x20 PUSH1 0x0 KECCAK256 ADD SWAP1 JUMP JUMPDEST PUSH3 0xDB6 JUMP JUMPDEST PUSH1 0x1 PUSH1 0x1 PUSH1 0xE0 SHL SUB SWAP1 DUP2 DUP2 GT PUSH3 0xE11 JUMPI AND SWAP1 JUMP JUMPDEST PUSH1 0x40 MLOAD PUSH3 0x461BCD PUSH1 0xE5 SHL DUP2 MSTORE PUSH1 0x20 PUSH1 0x4 DUP3 ADD MSTORE PUSH1 0x27 PUSH1 0x24 DUP3 ADD MSTORE PUSH32 0x53616665436173743A2076616C756520646F65736E27742066697420696E2032 PUSH1 0x44 DUP3 ADD MSTORE PUSH7 0x32342062697473 PUSH1 0xC8 SHL PUSH1 0x64 DUP3 ADD MSTORE PUSH1 0x84 SWAP1 REVERT JUMPDEST PUSH6 0xFFFFFFFFFFFF SWAP1 DUP2 DUP2 GT PUSH3 0xE7A JUMPI AND SWAP1 JUMP JUMPDEST PUSH1 0x40 MLOAD PUSH3 0x461BCD PUSH1 0xE5 SHL DUP2 MSTORE PUSH1 0x20 PUSH1 0x4 DUP3 ADD MSTORE PUSH1 0x26 PUSH1 0x24 DUP3 ADD MSTORE PUSH32 0x53616665436173743A2076616C756520646F65736E27742066697420696E2034 PUSH1 0x44 DUP3 ADD MSTORE PUSH6 0x382062697473 PUSH1 0xD0 SHL PUSH1 0x64 DUP3 ADD MSTORE PUSH1 0x84 SWAP1 REVERT JUMPDEST PUSH4 0xFFFFFFFF SWAP1 DUP2 DUP2 GT PUSH3 0xEE0 JUMPI AND SWAP1 JUMP JUMPDEST PUSH1 0x40 MLOAD PUSH3 0x461BCD PUSH1 0xE5 SHL DUP2 MSTORE PUSH1 0x20 PUSH1 0x4 DUP3 ADD MSTORE PUSH1 0x26 PUSH1 0x24 DUP3 ADD MSTORE PUSH32 0x53616665436173743A2076616C756520646F65736E27742066697420696E2033 PUSH1 0x44 DUP3 ADD MSTORE PUSH6 0x322062697473 PUSH1 0xD0 SHL PUSH1 0x64 DUP3 ADD MSTORE PUSH1 0x84 SWAP1 REVERT JUMPDEST PUSH1 0x9 PUSH1 0x20 MSTORE PUSH32 0xEC8156718A8372B1DB44BB411437D0870F3E3790D4A08526D024CE1B0B668F6B SLOAD PUSH1 0x1 PUSH1 0x1 PUSH1 0xA0 SHL SUB SWAP2 DUP3 AND PUSH1 0x0 SWAP1 DUP2 MSTORE PUSH1 0x40 DUP2 KECCAK256 SLOAD DUP4 AND SWAP4 SWAP3 SWAP1 SWAP2 AND SWAP1 DUP2 DUP5 EQ ISZERO DUP1 PUSH3 0x1038 JUMPI JUMPDEST PUSH3 0xF8F JUMPI JUMPDEST POP POP POP POP JUMP JUMPDEST DUP3 SWAP1 DUP3 PUSH3 0xFF7 JUMPI JUMPDEST POP POP POP DUP2 PUSH3 0xFAA JUMPI JUMPDEST DUP1 DUP1 PUSH3 0xF89 JUMP JUMPDEST PUSH1 0x1 PUSH1 0x1 PUSH1 0xA0 SHL SUB DUP3 AND PUSH1 0x0 SWAP1 DUP2 MSTORE PUSH1 0xA PUSH1 0x20 MSTORE PUSH1 0x40 SWAP1 KECCAK256 PUSH1 0x0 DUP1 MLOAD PUSH1 0x20 PUSH3 0x315C DUP4 CODECOPY DUP2 MLOAD SWAP2 MSTORE SWAP2 PUSH3 0xFDE SWAP2 PUSH3 0xD8F JUMP JUMPDEST PUSH1 0x40 DUP1 MLOAD SWAP3 DUP4 MSTORE PUSH1 0x20 DUP4 ADD SWAP2 SWAP1 SWAP2 MSTORE SWAP1 LOG2 CODESIZE DUP1 PUSH3 0xFA2 JUMP JUMPDEST PUSH1 0x0 DUP1 MLOAD PUSH1 0x20 PUSH3 0x315C DUP4 CODECOPY DUP2 MLOAD SWAP2 MSTORE SWAP2 PUSH1 0x40 DUP3 DUP6 PUSH3 0x101E SWAP5 MSTORE PUSH1 0xA PUSH1 0x20 MSTORE KECCAK256 PUSH3 0xC6B JUMP JUMPDEST PUSH1 0x40 DUP1 MLOAD SWAP3 DUP4 MSTORE PUSH1 0x20 DUP4 ADD SWAP2 SWAP1 SWAP2 MSTORE SWAP1 LOG2 CODESIZE DUP2 DUP2 PUSH3 0xF98 JUMP JUMPDEST POP DUP3 ISZERO ISZERO PUSH3 0xF83 JUMP JUMPDEST SWAP1 DUP2 ADD DUP1 SWAP2 GT PUSH3 0x97A JUMPI SWAP1 JUMP JUMPDEST SWAP1 DUP2 SUB SWAP1 DUP2 GT PUSH3 0x97A JUMPI SWAP1 JUMP INVALID PUSH1 0x80 PUSH1 0x40 MSTORE PUSH1 0x4 CALLDATASIZE LT ISZERO PUSH2 0x12 JUMPI PUSH1 0x0 DUP1 REVERT JUMPDEST PUSH1 0x0 CALLDATALOAD PUSH1 0xE0 SHR DUP1 PUSH4 0x6FDDE03 EQ PUSH2 0x1B7 JUMPI DUP1 PUSH4 0x95EA7B3 EQ PUSH2 0x1B2 JUMPI DUP1 PUSH4 0x18160DDD EQ PUSH2 0x1AD JUMPI DUP1 PUSH4 0x23B872DD EQ PUSH2 0x1A8 JUMPI DUP1 PUSH4 0x313CE567 EQ PUSH2 0x1A3 JUMPI DUP1 PUSH4 0x3644E515 EQ PUSH2 0x19E JUMPI DUP1 PUSH4 0x39509351 EQ PUSH2 0x199 JUMPI DUP1 PUSH4 0x3A46B1A8 EQ PUSH2 0x194 JUMPI DUP1 PUSH4 0x4BF5D7E9 EQ PUSH2 0x18F JUMPI DUP1 PUSH4 0x587CDE1E EQ PUSH2 0x18A JUMPI DUP1 PUSH4 0x5C19A95C EQ PUSH2 0x185 JUMPI DUP1 PUSH4 0x5D641847 EQ PUSH2 0x180 JUMPI DUP1 PUSH4 0x6FCFFF45 EQ PUSH2 0x17B JUMPI DUP1 PUSH4 0x70A08231 EQ PUSH2 0x176 JUMPI DUP1 PUSH4 0x7ECEBE00 EQ PUSH2 0x171 JUMPI DUP1 PUSH4 0x84B0196E EQ PUSH2 0x16C JUMPI DUP1 PUSH4 0x8E539E8C EQ PUSH2 0x167 JUMPI DUP1 PUSH4 0x91DDADF4 EQ PUSH2 0x162 JUMPI DUP1 PUSH4 0x95D89B41 EQ PUSH2 0x15D JUMPI DUP1 PUSH4 0x9AB24EB0 EQ PUSH2 0x158 JUMPI DUP1 PUSH4 0xA457C2D7 EQ PUSH2 0x153 JUMPI DUP1 PUSH4 0xA9059CBB EQ PUSH2 0x14E JUMPI DUP1 PUSH4 0xC3CDA520 EQ PUSH2 0x149 JUMPI DUP1 PUSH4 0xD505ACCF EQ PUSH2 0x144 JUMPI DUP1 PUSH4 0xDD62ED3E EQ PUSH2 0x13F JUMPI PUSH4 0xF1127ED8 EQ PUSH2 0x13A JUMPI PUSH1 0x0 DUP1 REVERT JUMPDEST PUSH2 0xF75 JUMP JUMPDEST PUSH2 0xF18 JUMP JUMPDEST PUSH2 0xDD3 JUMP JUMPDEST PUSH2 0xCA3 JUMP JUMPDEST PUSH2 0xC5D JUMP JUMPDEST PUSH2 0xBAE JUMP JUMPDEST PUSH2 0xB4C JUMP JUMPDEST PUSH2 0xAA5 JUMP JUMPDEST PUSH2 0xA79 JUMP JUMPDEST PUSH2 0x920 JUMP JUMPDEST PUSH2 0x828 JUMP JUMPDEST PUSH2 0x7EE JUMP JUMPDEST PUSH2 0x7B4 JUMP JUMPDEST PUSH2 0x76C JUMP JUMPDEST PUSH2 0x74E JUMP JUMPDEST PUSH2 0x72A JUMP JUMPDEST PUSH2 0x6EF JUMP JUMPDEST PUSH2 0x63D JUMP JUMPDEST PUSH2 0x4ED JUMP JUMPDEST PUSH2 0x48E JUMP JUMPDEST PUSH2 0x46B JUMP JUMPDEST PUSH2 0x44F JUMP JUMPDEST PUSH2 0x375 JUMP JUMPDEST PUSH2 0x357 JUMP JUMPDEST PUSH2 0x326 JUMP JUMPDEST PUSH2 0x210 JUMP JUMPDEST SWAP2 SWAP1 DUP3 MLOAD SWAP3 DUP4 DUP3 MSTORE PUSH1 0x0 JUMPDEST DUP5 DUP2 LT PUSH2 0x1E8 JUMPI POP POP DUP3 PUSH1 0x0 PUSH1 0x20 DUP1 SWAP5 SWAP6 DUP5 ADD ADD MSTORE PUSH1 0x1F DUP1 NOT SWAP2 ADD AND ADD ADD SWAP1 JUMP JUMPDEST PUSH1 0x20 DUP2 DUP4 ADD DUP2 ADD MLOAD DUP5 DUP4 ADD DUP3 ADD MSTORE ADD PUSH2 0x1C7 JUMP JUMPDEST SWAP1 PUSH1 0x20 PUSH2 0x20D SWAP3 DUP2 DUP2 MSTORE ADD SWAP1 PUSH2 0x1BC JUMP JUMPDEST SWAP1 JUMP JUMPDEST CALLVALUE PUSH2 0x2F5 JUMPI PUSH1 0x0 DUP1 PUSH1 0x3 NOT CALLDATASIZE ADD SLT PUSH2 0x2F2 JUMPI PUSH1 0x40 MLOAD SWAP1 DUP1 PUSH1 0x3 SLOAD PUSH2 0x233 DUP2 PUSH2 0xFFB JUMP JUMPDEST DUP1 DUP6 MSTORE SWAP2 PUSH1 0x1 SWAP2 DUP1 DUP4 AND SWAP1 DUP2 ISZERO PUSH2 0x2C8 JUMPI POP PUSH1 0x1 EQ PUSH2 0x26D JUMPI JUMPDEST PUSH2 0x269 DUP6 PUSH2 0x25D DUP2 DUP8 SUB DUP3 PUSH2 0x10A4 JUMP JUMPDEST PUSH1 0x40 MLOAD SWAP2 DUP3 SWAP2 DUP3 PUSH2 0x1FC JUMP JUMPDEST SUB SWAP1 RETURN JUMPDEST SWAP3 POP PUSH1 0x3 DUP4 MSTORE PUSH32 0xC2575A0E9E593C00F959F8C92F12DB2869C3395A3B0502D05E2516446F71F85B JUMPDEST DUP3 DUP5 LT PUSH2 0x2B0 JUMPI POP POP POP DUP2 ADD PUSH1 0x20 ADD PUSH2 0x25D DUP3 PUSH2 0x269 PUSH2 0x24D JUMP JUMPDEST DUP1 SLOAD PUSH1 0x20 DUP6 DUP8 ADD DUP2 ADD SWAP2 SWAP1 SWAP2 MSTORE SWAP1 SWAP4 ADD SWAP3 DUP2 ADD PUSH2 0x295 JUMP JUMPDEST DUP7 SWAP6 POP PUSH2 0x269 SWAP7 SWAP4 POP PUSH1 0x20 SWAP3 POP PUSH2 0x25D SWAP5 SWAP2 POP PUSH1 0xFF NOT AND DUP3 DUP5 ADD MSTORE ISZERO ISZERO PUSH1 0x5 SHL DUP3 ADD ADD SWAP3 SWAP4 PUSH2 0x24D JUMP JUMPDEST DUP1 REVERT JUMPDEST PUSH1 0x0 DUP1 REVERT JUMPDEST PUSH1 0x4 CALLDATALOAD SWAP1 PUSH1 0x1 PUSH1 0x1 PUSH1 0xA0 SHL SUB DUP3 AND DUP3 SUB PUSH2 0x2F5 JUMPI JUMP JUMPDEST PUSH1 0x24 CALLDATALOAD SWAP1 PUSH1 0x1 PUSH1 0x1 PUSH1 0xA0 SHL SUB DUP3 AND DUP3 SUB PUSH2 0x2F5 JUMPI JUMP JUMPDEST CALLVALUE PUSH2 0x2F5 JUMPI PUSH1 0x40 CALLDATASIZE PUSH1 0x3 NOT ADD SLT PUSH2 0x2F5 JUMPI PUSH2 0x34C PUSH2 0x342 PUSH2 0x2FA JUMP JUMPDEST PUSH1 0x24 CALLDATALOAD SWAP1 CALLER PUSH2 0x12B6 JUMP JUMPDEST PUSH1 0x20 PUSH1 0x40 MLOAD PUSH1 0x1 DUP2 MSTORE RETURN JUMPDEST CALLVALUE PUSH2 0x2F5 JUMPI PUSH1 0x0 CALLDATASIZE PUSH1 0x3 NOT ADD SLT PUSH2 0x2F5 JUMPI PUSH1 0x20 PUSH1 0x2 SLOAD PUSH1 0x40 MLOAD SWAP1 DUP2 MSTORE RETURN JUMPDEST CALLVALUE PUSH2 0x2F5 JUMPI PUSH1 0x60 CALLDATASIZE PUSH1 0x3 NOT ADD SLT PUSH2 0x2F5 JUMPI PUSH2 0x38E PUSH2 0x2FA JUMP JUMPDEST PUSH2 0x396 PUSH2 0x310 JUMP JUMPDEST PUSH1 0x44 CALLDATALOAD SWAP1 PUSH1 0x1 PUSH1 0x1 PUSH1 0xA0 SHL SUB DUP4 AND PUSH1 0x0 MSTORE PUSH1 0x1 PUSH1 0x20 MSTORE PUSH2 0x3CD CALLER PUSH1 0x40 PUSH1 0x0 KECCAK256 SWAP1 PUSH1 0x1 PUSH1 0x1 PUSH1 0xA0 SHL SUB AND PUSH1 0x0 MSTORE PUSH1 0x20 MSTORE PUSH1 0x40 PUSH1 0x0 KECCAK256 SWAP1 JUMP JUMPDEST SLOAD SWAP3 PUSH1 0x1 DUP5 ADD PUSH2 0x3EE JUMPI JUMPDEST PUSH2 0x3E2 SWAP4 POP PUSH2 0x119D JUMP JUMPDEST PUSH1 0x40 MLOAD PUSH1 0x1 DUP2 MSTORE PUSH1 0x20 SWAP1 RETURN JUMPDEST DUP3 DUP5 LT PUSH2 0x40A JUMPI PUSH2 0x405 DUP4 PUSH2 0x3E2 SWAP6 SUB CALLER DUP4 PUSH2 0x12B6 JUMP JUMPDEST PUSH2 0x3D8 JUMP JUMPDEST PUSH1 0x40 MLOAD PUSH3 0x461BCD PUSH1 0xE5 SHL DUP2 MSTORE PUSH1 0x20 PUSH1 0x4 DUP3 ADD MSTORE PUSH1 0x1D PUSH1 0x24 DUP3 ADD MSTORE PUSH32 0x45524332303A20696E73756666696369656E7420616C6C6F77616E6365000000 PUSH1 0x44 DUP3 ADD MSTORE PUSH1 0x64 SWAP1 REVERT JUMPDEST CALLVALUE PUSH2 0x2F5 JUMPI PUSH1 0x0 CALLDATASIZE PUSH1 0x3 NOT ADD SLT PUSH2 0x2F5 JUMPI PUSH1 0x20 PUSH1 0x40 MLOAD PUSH1 0x12 DUP2 MSTORE RETURN JUMPDEST CALLVALUE PUSH2 0x2F5 JUMPI PUSH1 0x0 CALLDATASIZE PUSH1 0x3 NOT ADD SLT PUSH2 0x2F5 JUMPI PUSH1 0x20 PUSH2 0x486 PUSH2 0x1ACA JUMP JUMPDEST PUSH1 0x40 MLOAD SWAP1 DUP2 MSTORE RETURN JUMPDEST CALLVALUE PUSH2 0x2F5 JUMPI PUSH1 0x40 CALLDATASIZE PUSH1 0x3 NOT ADD SLT PUSH2 0x2F5 JUMPI PUSH2 0x4A7 PUSH2 0x2FA JUMP JUMPDEST CALLER PUSH1 0x0 MSTORE PUSH1 0x1 PUSH1 0x20 MSTORE PUSH2 0x4D1 DUP2 PUSH1 0x40 PUSH1 0x0 KECCAK256 SWAP1 PUSH1 0x1 PUSH1 0x1 PUSH1 0xA0 SHL SUB AND PUSH1 0x0 MSTORE PUSH1 0x20 MSTORE PUSH1 0x40 PUSH1 0x0 KECCAK256 SWAP1 JUMP JUMPDEST SLOAD PUSH1 0x24 CALLDATALOAD DUP2 ADD DUP1 SWAP2 GT PUSH2 0x4E8 JUMPI PUSH2 0x34C SWAP2 CALLER PUSH2 0x12B6 JUMP JUMPDEST PUSH2 0x10C6 JUMP JUMPDEST CALLVALUE PUSH2 0x2F5 JUMPI PUSH1 0x40 CALLDATASIZE PUSH1 0x3 NOT ADD SLT PUSH2 0x2F5 JUMPI PUSH2 0x506 PUSH2 0x2FA JUMP JUMPDEST PUSH1 0x1 PUSH1 0x1 PUSH1 0xA0 SHL SUB PUSH1 0x24 CALLDATALOAD SWAP2 PUSH2 0x52D PUSH6 0xFFFFFFFFFFFF PUSH2 0x525 NUMBER PUSH2 0x1FAD JUMP JUMPDEST AND DUP5 LT PUSH2 0x1491 JUMP JUMPDEST AND PUSH1 0x0 MSTORE PUSH1 0xA PUSH1 0x20 MSTORE PUSH1 0x40 PUSH1 0x0 KECCAK256 DUP1 SLOAD SWAP2 PUSH1 0x0 DUP4 PUSH1 0x5 DUP2 GT PUSH2 0x5EC JUMPI JUMPDEST POP SWAP1 JUMPDEST DUP4 DUP3 LT PUSH2 0x59B JUMPI POP POP DUP2 PUSH2 0x574 JUMPI POP POP PUSH1 0x20 PUSH1 0x0 JUMPDEST PUSH1 0x40 MLOAD PUSH1 0x1 PUSH1 0x1 PUSH1 0xE0 SHL SUB SWAP1 SWAP2 AND DUP2 MSTORE RETURN JUMPDEST PUSH2 0x58F PUSH2 0x596 SWAP2 PUSH1 0x20 SWAP4 PUSH1 0x0 NOT ADD SWAP1 PUSH1 0x0 MSTORE PUSH1 0x20 PUSH1 0x0 KECCAK256 ADD SWAP1 JUMP JUMPDEST SLOAD PUSH1 0x20 SHR SWAP1 JUMP JUMPDEST PUSH2 0x562 JUMP JUMPDEST SWAP1 SWAP3 PUSH2 0x5A7 DUP2 DUP6 PUSH2 0x1DDD JUMP JUMPDEST SWAP1 DUP3 PUSH4 0xFFFFFFFF PUSH2 0x5CC PUSH2 0x5C2 DUP6 DUP9 PUSH1 0x0 MSTORE PUSH1 0x20 PUSH1 0x0 KECCAK256 ADD SWAP1 JUMP JUMPDEST SLOAD PUSH4 0xFFFFFFFF AND SWAP1 JUMP JUMPDEST AND GT ISZERO PUSH2 0x5DC JUMPI POP SWAP3 JUMPDEST SWAP1 PUSH2 0x54D JUMP JUMPDEST SWAP4 POP PUSH2 0x5E7 SWAP1 PUSH2 0x10DC JUMP JUMPDEST PUSH2 0x5D6 JUMP JUMPDEST DUP1 PUSH2 0x5FC PUSH2 0x602 SWAP3 SWAP7 SWAP4 SWAP7 PUSH2 0x1DF2 JUMP JUMPDEST SWAP1 PUSH2 0x14DD JUMP JUMPDEST SWAP1 DUP3 PUSH4 0xFFFFFFFF PUSH2 0x61D PUSH2 0x5C2 DUP6 DUP9 PUSH1 0x0 MSTORE PUSH1 0x20 PUSH1 0x0 KECCAK256 ADD SWAP1 JUMP JUMPDEST AND GT ISZERO PUSH2 0x62D JUMPI POP SWAP3 JUMPDEST CODESIZE PUSH2 0x54A JUMP JUMPDEST SWAP4 POP PUSH2 0x638 SWAP1 PUSH2 0x10DC JUMP JUMPDEST PUSH2 0x627 JUMP JUMPDEST CALLVALUE PUSH2 0x2F5 JUMPI PUSH1 0x0 CALLDATASIZE PUSH1 0x3 NOT ADD SLT PUSH2 0x2F5 JUMPI NUMBER PUSH6 0xFFFFFFFFFFFF PUSH2 0x65F NUMBER PUSH2 0x1FAD JUMP JUMPDEST AND SUB PUSH2 0x6AA JUMPI PUSH2 0x269 PUSH1 0x40 MLOAD PUSH2 0x674 DUP2 PUSH2 0x104B JUMP JUMPDEST PUSH1 0x1D DUP2 MSTORE PUSH32 0x6D6F64653D626C6F636B6E756D6265722666726F6D3D64656661756C74000000 PUSH1 0x20 DUP3 ADD MSTORE PUSH1 0x40 MLOAD SWAP2 DUP3 SWAP2 DUP3 PUSH2 0x1FC JUMP JUMPDEST PUSH1 0x40 MLOAD PUSH3 0x461BCD PUSH1 0xE5 SHL DUP2 MSTORE PUSH1 0x20 PUSH1 0x4 DUP3 ADD MSTORE PUSH1 0x1D PUSH1 0x24 DUP3 ADD MSTORE PUSH32 0x4552433230566F7465733A2062726F6B656E20636C6F636B206D6F6465000000 PUSH1 0x44 DUP3 ADD MSTORE PUSH1 0x64 SWAP1 REVERT JUMPDEST CALLVALUE PUSH2 0x2F5 JUMPI PUSH1 0x20 CALLDATASIZE PUSH1 0x3 NOT ADD SLT PUSH2 0x2F5 JUMPI PUSH1 0x20 PUSH1 0x1 PUSH1 0x1 PUSH1 0xA0 SHL SUB DUP1 PUSH2 0x713 PUSH2 0x2FA JUMP JUMPDEST AND PUSH1 0x0 MSTORE PUSH1 0x9 DUP3 MSTORE PUSH1 0x40 PUSH1 0x0 KECCAK256 SLOAD AND PUSH1 0x40 MLOAD SWAP1 DUP2 MSTORE RETURN JUMPDEST CALLVALUE PUSH2 0x2F5 JUMPI PUSH1 0x20 CALLDATASIZE PUSH1 0x3 NOT ADD SLT PUSH2 0x2F5 JUMPI PUSH2 0x74C PUSH2 0x746 PUSH2 0x2FA JUMP JUMPDEST CALLER PUSH2 0x1536 JUMP JUMPDEST STOP JUMPDEST CALLVALUE PUSH2 0x2F5 JUMPI PUSH1 0x0 CALLDATASIZE PUSH1 0x3 NOT ADD SLT PUSH2 0x2F5 JUMPI PUSH1 0x20 PUSH1 0xC SLOAD PUSH1 0x40 MLOAD SWAP1 DUP2 MSTORE RETURN JUMPDEST CALLVALUE PUSH2 0x2F5 JUMPI PUSH1 0x20 CALLDATASIZE PUSH1 0x3 NOT ADD SLT PUSH2 0x2F5 JUMPI PUSH1 0x1 PUSH1 0x1 PUSH1 0xA0 SHL SUB PUSH2 0x78D PUSH2 0x2FA JUMP JUMPDEST AND PUSH1 0x0 MSTORE PUSH1 0xA PUSH1 0x20 MSTORE PUSH1 0x20 PUSH2 0x7A6 PUSH1 0x40 PUSH1 0x0 KECCAK256 SLOAD PUSH2 0x2014 JUMP JUMPDEST PUSH4 0xFFFFFFFF PUSH1 0x40 MLOAD SWAP2 AND DUP2 MSTORE RETURN JUMPDEST CALLVALUE PUSH2 0x2F5 JUMPI PUSH1 0x20 CALLDATASIZE PUSH1 0x3 NOT ADD SLT PUSH2 0x2F5 JUMPI PUSH1 0x1 PUSH1 0x1 PUSH1 0xA0 SHL SUB PUSH2 0x7D5 PUSH2 0x2FA JUMP JUMPDEST AND PUSH1 0x0 MSTORE PUSH1 0x0 PUSH1 0x20 MSTORE PUSH1 0x20 PUSH1 0x40 PUSH1 0x0 KECCAK256 SLOAD PUSH1 0x40 MLOAD SWAP1 DUP2 MSTORE RETURN JUMPDEST CALLVALUE PUSH2 0x2F5 JUMPI PUSH1 0x20 CALLDATASIZE PUSH1 0x3 NOT ADD SLT PUSH2 0x2F5 JUMPI PUSH1 0x1 PUSH1 0x1 PUSH1 0xA0 SHL SUB PUSH2 0x80F PUSH2 0x2FA JUMP JUMPDEST AND PUSH1 0x0 MSTORE PUSH1 0x7 PUSH1 0x20 MSTORE PUSH1 0x20 PUSH1 0x40 PUSH1 0x0 KECCAK256 SLOAD PUSH1 0x40 MLOAD SWAP1 DUP2 MSTORE RETURN JUMPDEST CALLVALUE PUSH2 0x2F5 JUMPI PUSH1 0x0 DUP1 PUSH1 0x3 NOT CALLDATASIZE ADD SLT PUSH2 0x2F2 JUMPI PUSH2 0x8D2 SWAP1 PUSH2 0x867 PUSH32 0x0 PUSH2 0x1C0A JUMP JUMPDEST PUSH2 0x890 PUSH32 0x0 PUSH2 0x1D03 JUMP JUMPDEST SWAP2 PUSH1 0x40 MLOAD SWAP2 PUSH2 0x89E DUP4 PUSH2 0x106C JUMP JUMPDEST DUP2 DUP4 MSTORE PUSH1 0x40 MLOAD SWAP5 DUP6 SWAP5 PUSH1 0xF PUSH1 0xF8 SHL DUP7 MSTORE PUSH2 0x8C4 PUSH1 0x20 SWAP4 PUSH1 0xE0 DUP6 DUP10 ADD MSTORE PUSH1 0xE0 DUP9 ADD SWAP1 PUSH2 0x1BC JUMP JUMPDEST SWAP1 DUP7 DUP3 SUB PUSH1 0x40 DUP9 ADD MSTORE PUSH2 0x1BC JUMP JUMPDEST SWAP1 CHAINID PUSH1 0x60 DUP7 ADD MSTORE ADDRESS PUSH1 0x80 DUP7 ADD MSTORE DUP3 PUSH1 0xA0 DUP7 ADD MSTORE DUP5 DUP3 SUB PUSH1 0xC0 DUP7 ADD MSTORE DUP1 DUP1 DUP6 MLOAD SWAP4 DUP5 DUP2 MSTORE ADD SWAP5 ADD SWAP3 JUMPDEST DUP3 DUP2 LT PUSH2 0x909 JUMPI POP POP POP POP SUB SWAP1 RETURN JUMPDEST DUP4 MLOAD DUP6 MSTORE DUP7 SWAP6 POP SWAP4 DUP2 ADD SWAP4 SWAP3 DUP2 ADD SWAP3 PUSH1 0x1 ADD PUSH2 0x8FA JUMP JUMPDEST CALLVALUE PUSH2 0x2F5 JUMPI PUSH1 0x20 CALLDATASIZE PUSH1 0x3 NOT ADD SLT PUSH2 0x2F5 JUMPI PUSH1 0x4 CALLDATALOAD PUSH2 0x94F PUSH6 0xFFFFFFFFFFFF PUSH2 0x947 NUMBER PUSH2 0x1FAD JUMP JUMPDEST AND DUP3 LT PUSH2 0x1491 JUMP JUMPDEST PUSH1 0xB SLOAD SWAP1 PUSH1 0x0 DUP3 PUSH1 0x5 DUP2 GT PUSH2 0xA12 JUMPI JUMPDEST POP SWAP1 JUMPDEST DUP3 DUP3 LT PUSH2 0x9AF JUMPI DUP3 DUP1 PUSH2 0x97C JUMPI POP PUSH1 0x40 MLOAD PUSH1 0x0 DUP2 MSTORE PUSH1 0x20 SWAP1 RETURN JUMPDEST PUSH1 0xB PUSH1 0x0 MSTORE PUSH1 0x20 SWAP1 PUSH2 0x596 SWAP1 PUSH32 0x175B7A638427703F0DBE7BB9BBF987A2551717B34E79F33B5B1008D1FA01DB8 ADD PUSH2 0x58F JUMP JUMPDEST SWAP1 SWAP2 PUSH2 0x9BB DUP2 DUP5 PUSH2 0x1DDD JUMP JUMPDEST PUSH1 0xB PUSH1 0x0 MSTORE SWAP1 DUP3 PUSH4 0xFFFFFFFF PUSH2 0x9F2 PUSH32 0x175B7A638427703F0DBE7BB9BBF987A2551717B34E79F33B5B1008D1FA01DB9 DUP6 ADD PUSH2 0x5C2 JUMP JUMPDEST AND GT ISZERO PUSH2 0xA02 JUMPI POP SWAP2 JUMPDEST SWAP1 PUSH2 0x962 JUMP JUMPDEST SWAP3 POP PUSH2 0xA0D SWAP1 PUSH2 0x10DC JUMP JUMPDEST PUSH2 0x9FC JUMP JUMPDEST DUP1 PUSH2 0x5FC PUSH2 0xA22 SWAP3 SWAP6 SWAP4 SWAP6 PUSH2 0x1DF2 JUMP JUMPDEST PUSH1 0xB PUSH1 0x0 MSTORE SWAP1 DUP3 PUSH4 0xFFFFFFFF PUSH2 0xA59 PUSH32 0x175B7A638427703F0DBE7BB9BBF987A2551717B34E79F33B5B1008D1FA01DB9 DUP6 ADD PUSH2 0x5C2 JUMP JUMPDEST AND GT ISZERO PUSH2 0xA69 JUMPI POP SWAP2 JUMPDEST CODESIZE PUSH2 0x95F JUMP JUMPDEST SWAP3 POP PUSH2 0xA74 SWAP1 PUSH2 0x10DC JUMP JUMPDEST PUSH2 0xA63 JUMP JUMPDEST CALLVALUE PUSH2 0x2F5 JUMPI PUSH1 0x0 CALLDATASIZE PUSH1 0x3 NOT ADD SLT PUSH2 0x2F5 JUMPI PUSH1 0x20 PUSH2 0xA95 NUMBER PUSH2 0x1FAD JUMP JUMPDEST PUSH6 0xFFFFFFFFFFFF PUSH1 0x40 MLOAD SWAP2 AND DUP2 MSTORE RETURN JUMPDEST CALLVALUE PUSH2 0x2F5 JUMPI PUSH1 0x0 DUP1 PUSH1 0x3 NOT CALLDATASIZE ADD SLT PUSH2 0x2F2 JUMPI PUSH1 0x40 MLOAD SWAP1 DUP1 PUSH1 0x4 SLOAD PUSH2 0xAC8 DUP2 PUSH2 0xFFB JUMP JUMPDEST DUP1 DUP6 MSTORE SWAP2 PUSH1 0x1 SWAP2 DUP1 DUP4 AND SWAP1 DUP2 ISZERO PUSH2 0x2C8 JUMPI POP PUSH1 0x1 EQ PUSH2 0xAF1 JUMPI PUSH2 0x269 DUP6 PUSH2 0x25D DUP2 DUP8 SUB DUP3 PUSH2 0x10A4 JUMP JUMPDEST SWAP3 POP PUSH1 0x4 DUP4 MSTORE PUSH32 0x8A35ACFBC15FF81A39AE7D344FD709F28E8600B4AA8C65C6B64BFE7FE36BD19B JUMPDEST DUP3 DUP5 LT PUSH2 0xB34 JUMPI POP POP POP DUP2 ADD PUSH1 0x20 ADD PUSH2 0x25D DUP3 PUSH2 0x269 PUSH2 0x24D JUMP JUMPDEST DUP1 SLOAD PUSH1 0x20 DUP6 DUP8 ADD DUP2 ADD SWAP2 SWAP1 SWAP2 MSTORE SWAP1 SWAP4 ADD SWAP3 DUP2 ADD PUSH2 0xB19 JUMP JUMPDEST CALLVALUE PUSH2 0x2F5 JUMPI PUSH1 0x20 CALLDATASIZE PUSH1 0x3 NOT ADD SLT PUSH2 0x2F5 JUMPI PUSH1 0x1 PUSH1 0x1 PUSH1 0xA0 SHL SUB PUSH2 0xB6D PUSH2 0x2FA JUMP JUMPDEST AND PUSH1 0x0 MSTORE PUSH1 0xA PUSH1 0x20 MSTORE PUSH1 0x40 PUSH1 0x0 KECCAK256 DUP1 SLOAD DUP1 ISZERO PUSH1 0x0 EQ PUSH2 0xB94 JUMPI POP POP PUSH1 0x40 MLOAD PUSH1 0x0 DUP2 MSTORE PUSH1 0x20 SWAP1 RETURN JUMPDEST PUSH1 0x20 SWAP2 PUSH2 0xBA5 SWAP2 PUSH1 0x0 NOT ADD SWAP1 PUSH2 0x1441 JUMP JUMPDEST POP SLOAD DUP2 SHR PUSH2 0x562 JUMP JUMPDEST CALLVALUE PUSH2 0x2F5 JUMPI PUSH1 0x40 CALLDATASIZE PUSH1 0x3 NOT ADD SLT PUSH2 0x2F5 JUMPI PUSH2 0xBC7 PUSH2 0x2FA JUMP JUMPDEST PUSH1 0x24 CALLDATALOAD SWAP1 CALLER PUSH1 0x0 MSTORE PUSH1 0x1 PUSH1 0x20 MSTORE PUSH2 0xBF5 DUP2 PUSH1 0x40 PUSH1 0x0 KECCAK256 SWAP1 PUSH1 0x1 PUSH1 0x1 PUSH1 0xA0 SHL SUB AND PUSH1 0x0 MSTORE PUSH1 0x20 MSTORE PUSH1 0x40 PUSH1 0x0 KECCAK256 SWAP1 JUMP JUMPDEST SLOAD SWAP2 DUP1 DUP4 LT PUSH2 0xC0A JUMPI PUSH2 0x3E2 SWAP3 SUB SWAP1 CALLER PUSH2 0x12B6 JUMP JUMPDEST PUSH1 0x40 MLOAD PUSH3 0x461BCD PUSH1 0xE5 SHL DUP2 MSTORE PUSH1 0x20 PUSH1 0x4 DUP3 ADD MSTORE PUSH1 0x25 PUSH1 0x24 DUP3 ADD MSTORE PUSH32 0x45524332303A2064656372656173656420616C6C6F77616E63652062656C6F77 PUSH1 0x44 DUP3 ADD MSTORE PUSH5 0x207A65726F PUSH1 0xD8 SHL PUSH1 0x64 DUP3 ADD MSTORE PUSH1 0x84 SWAP1 REVERT JUMPDEST CALLVALUE PUSH2 0x2F5 JUMPI PUSH1 0x40 CALLDATASIZE PUSH1 0x3 NOT ADD SLT PUSH2 0x2F5 JUMPI PUSH2 0x34C PUSH2 0xC79 PUSH2 0x2FA JUMP JUMPDEST PUSH1 0x24 CALLDATALOAD SWAP1 CALLER PUSH2 0x119D JUMP JUMPDEST PUSH1 0x64 CALLDATALOAD SWAP1 PUSH1 0xFF DUP3 AND DUP3 SUB PUSH2 0x2F5 JUMPI JUMP JUMPDEST PUSH1 0x84 CALLDATALOAD SWAP1 PUSH1 0xFF DUP3 AND DUP3 SUB PUSH2 0x2F5 JUMPI JUMP JUMPDEST CALLVALUE PUSH2 0x2F5 JUMPI PUSH1 0xC0 CALLDATASIZE PUSH1 0x3 NOT ADD SLT PUSH2 0x2F5 JUMPI PUSH2 0xCBC PUSH2 0x2FA JUMP JUMPDEST PUSH1 0x44 CALLDATALOAD SWAP1 PUSH1 0x24 CALLDATALOAD PUSH2 0xCCB PUSH2 0xC83 JUMP JUMPDEST SWAP3 DUP1 TIMESTAMP GT PUSH2 0xD8E JUMPI PUSH2 0xD5C PUSH2 0xD89 SWAP2 PUSH2 0x74C SWAP6 PUSH1 0x40 MLOAD SWAP1 PUSH2 0xD44 DUP3 PUSH2 0xD36 PUSH1 0x20 DUP3 ADD SWAP6 DUP10 DUP12 DUP9 PUSH1 0x60 SWAP2 SWAP5 SWAP4 SWAP3 PUSH1 0x1 PUSH1 0x1 PUSH1 0xA0 SHL SUB PUSH1 0x80 DUP4 ADD SWAP7 PUSH32 0xE48329057BFD03D55E49B547132E39CFFD9C1820AD7B9D4C5307691425D15ADF DUP5 MSTORE AND PUSH1 0x20 DUP4 ADD MSTORE PUSH1 0x40 DUP3 ADD MSTORE ADD MSTORE JUMP JUMPDEST SUB PUSH1 0x1F NOT DUP2 ADD DUP5 MSTORE DUP4 PUSH2 0x10A4 JUMP JUMPDEST PUSH2 0xD57 PUSH1 0xA4 CALLDATALOAD SWAP4 PUSH1 0x84 CALLDATALOAD SWAP4 MLOAD SWAP1 KECCAK256 PUSH2 0x1BE4 JUMP JUMPDEST PUSH2 0x18E4 JUMP JUMPDEST SWAP2 PUSH2 0xD83 DUP4 PUSH1 0x1 PUSH1 0x1 PUSH1 0xA0 SHL SUB AND PUSH1 0x0 MSTORE PUSH1 0x7 PUSH1 0x20 MSTORE PUSH1 0x40 PUSH1 0x0 KECCAK256 SWAP1 DUP2 SLOAD SWAP2 PUSH1 0x1 DUP4 ADD SWAP1 SSTORE JUMP JUMPDEST EQ PUSH2 0x14EA JUMP JUMPDEST PUSH2 0x1536 JUMP JUMPDEST PUSH1 0x40 MLOAD PUSH3 0x461BCD PUSH1 0xE5 SHL DUP2 MSTORE PUSH1 0x20 PUSH1 0x4 DUP3 ADD MSTORE PUSH1 0x1D PUSH1 0x24 DUP3 ADD MSTORE PUSH32 0x4552433230566F7465733A207369676E61747572652065787069726564000000 PUSH1 0x44 DUP3 ADD MSTORE PUSH1 0x64 SWAP1 REVERT JUMPDEST CALLVALUE PUSH2 0x2F5 JUMPI PUSH1 0xE0 CALLDATASIZE PUSH1 0x3 NOT ADD SLT PUSH2 0x2F5 JUMPI PUSH2 0xDEC PUSH2 0x2FA JUMP JUMPDEST PUSH2 0xDF4 PUSH2 0x310 JUMP JUMPDEST PUSH1 0x44 CALLDATALOAD SWAP1 PUSH1 0x64 CALLDATALOAD SWAP3 PUSH2 0xE04 PUSH2 0xC93 JUMP JUMPDEST SWAP4 DUP1 TIMESTAMP GT PUSH2 0xED3 JUMPI PUSH2 0xEBB PUSH2 0xECE SWAP2 PUSH2 0xD36 PUSH2 0x74C SWAP8 PUSH2 0xEA8 PUSH2 0xE43 DUP8 PUSH1 0x1 PUSH1 0x1 PUSH1 0xA0 SHL SUB AND PUSH1 0x0 MSTORE PUSH1 0x7 PUSH1 0x20 MSTORE PUSH1 0x40 PUSH1 0x0 KECCAK256 SWAP1 DUP2 SLOAD SWAP2 PUSH1 0x1 DUP4 ADD SWAP1 SSTORE JUMP JUMPDEST SWAP4 PUSH1 0x40 MLOAD SWAP4 DUP5 SWAP2 PUSH1 0x20 DUP4 ADD SWAP7 DUP13 DUP13 DUP13 DUP11 SWAP2 SWAP6 SWAP5 SWAP4 SWAP1 SWAP3 PUSH1 0xA0 SWAP4 PUSH1 0xC0 DUP5 ADD SWAP8 PUSH32 0x6E71EDAE12B1B97F4D1F60370FEF10105FA2FAAE0126114A169C64845D6126C9 DUP6 MSTORE PUSH1 0x1 PUSH1 0x1 PUSH1 0xA0 SHL SUB DUP1 SWAP3 AND PUSH1 0x20 DUP7 ADD MSTORE AND PUSH1 0x40 DUP5 ADD MSTORE PUSH1 0x60 DUP4 ADD MSTORE PUSH1 0x80 DUP3 ADD MSTORE ADD MSTORE JUMP JUMPDEST PUSH2 0xD57 PUSH1 0xC4 CALLDATALOAD SWAP4 PUSH1 0xA4 CALLDATALOAD SWAP4 MLOAD SWAP1 KECCAK256 PUSH2 0x1BE4 JUMP JUMPDEST PUSH1 0x1 PUSH1 0x1 PUSH1 0xA0 SHL SUB DUP1 DUP5 AND SWAP2 AND EQ PUSH2 0x13E8 JUMP JUMPDEST PUSH2 0x12B6 JUMP JUMPDEST PUSH1 0x40 MLOAD PUSH3 0x461BCD PUSH1 0xE5 SHL DUP2 MSTORE PUSH1 0x20 PUSH1 0x4 DUP3 ADD MSTORE PUSH1 0x1D PUSH1 0x24 DUP3 ADD MSTORE PUSH32 0x45524332305065726D69743A206578706972656420646561646C696E65000000 PUSH1 0x44 DUP3 ADD MSTORE PUSH1 0x64 SWAP1 REVERT JUMPDEST CALLVALUE PUSH2 0x2F5 JUMPI PUSH1 0x40 CALLDATASIZE PUSH1 0x3 NOT ADD SLT PUSH2 0x2F5 JUMPI PUSH1 0x20 PUSH2 0xF6C PUSH2 0xF36 PUSH2 0x2FA JUMP JUMPDEST PUSH1 0x1 PUSH1 0x1 PUSH1 0xA0 SHL SUB PUSH2 0xF46 PUSH2 0x310 JUMP JUMPDEST SWAP2 AND PUSH1 0x0 MSTORE PUSH1 0x1 DUP4 MSTORE PUSH1 0x40 PUSH1 0x0 KECCAK256 SWAP1 PUSH1 0x1 PUSH1 0x1 PUSH1 0xA0 SHL SUB AND PUSH1 0x0 MSTORE PUSH1 0x20 MSTORE PUSH1 0x40 PUSH1 0x0 KECCAK256 SWAP1 JUMP JUMPDEST SLOAD PUSH1 0x40 MLOAD SWAP1 DUP2 MSTORE RETURN JUMPDEST CALLVALUE PUSH2 0x2F5 JUMPI PUSH1 0x40 CALLDATASIZE PUSH1 0x3 NOT ADD SLT PUSH2 0x2F5 JUMPI PUSH2 0xF8E PUSH2 0x2FA JUMP JUMPDEST PUSH4 0xFFFFFFFF PUSH1 0x24 CALLDATALOAD DUP2 DUP2 AND DUP2 SUB PUSH2 0x2F5 JUMPI PUSH2 0xFD7 PUSH2 0xFDD SWAP2 PUSH1 0x1 PUSH1 0x1 PUSH1 0xA0 SHL SUB PUSH1 0x40 SWAP6 PUSH1 0x0 PUSH1 0x20 DUP9 MLOAD PUSH2 0xFC0 DUP2 PUSH2 0x104B JUMP JUMPDEST DUP3 DUP2 MSTORE ADD MSTORE AND PUSH1 0x0 MSTORE PUSH1 0xA PUSH1 0x20 MSTORE DUP5 PUSH1 0x0 KECCAK256 PUSH2 0x1441 JUMP JUMPDEST POP PUSH2 0x146F JUMP JUMPDEST DUP3 MLOAD DUP2 MLOAD SWAP1 SWAP3 AND DUP3 MSTORE PUSH1 0x20 SWAP1 DUP2 ADD MLOAD PUSH1 0x1 PUSH1 0x1 PUSH1 0xE0 SHL SUB AND SWAP1 DUP3 ADD MSTORE RETURN JUMPDEST SWAP1 PUSH1 0x1 DUP3 DUP2 SHR SWAP3 AND DUP1 ISZERO PUSH2 0x102B JUMPI JUMPDEST PUSH1 0x20 DUP4 LT EQ PUSH2 0x1015 JUMPI JUMP JUMPDEST PUSH4 0x4E487B71 PUSH1 0xE0 SHL PUSH1 0x0 MSTORE PUSH1 0x22 PUSH1 0x4 MSTORE PUSH1 0x24 PUSH1 0x0 REVERT JUMPDEST SWAP2 PUSH1 0x7F AND SWAP2 PUSH2 0x100A JUMP JUMPDEST PUSH4 0x4E487B71 PUSH1 0xE0 SHL PUSH1 0x0 MSTORE PUSH1 0x41 PUSH1 0x4 MSTORE PUSH1 0x24 PUSH1 0x0 REVERT JUMPDEST PUSH1 0x40 DUP2 ADD SWAP1 DUP2 LT PUSH8 0xFFFFFFFFFFFFFFFF DUP3 GT OR PUSH2 0x1067 JUMPI PUSH1 0x40 MSTORE JUMP JUMPDEST PUSH2 0x1035 JUMP JUMPDEST PUSH1 0x20 DUP2 ADD SWAP1 DUP2 LT PUSH8 0xFFFFFFFFFFFFFFFF DUP3 GT OR PUSH2 0x1067 JUMPI PUSH1 0x40 MSTORE JUMP JUMPDEST PUSH1 0xC0 DUP2 ADD SWAP1 DUP2 LT PUSH8 0xFFFFFFFFFFFFFFFF DUP3 GT OR PUSH2 0x1067 JUMPI PUSH1 0x40 MSTORE JUMP JUMPDEST SWAP1 PUSH1 0x1F DUP1 NOT SWAP2 ADD AND DUP2 ADD SWAP1 DUP2 LT PUSH8 0xFFFFFFFFFFFFFFFF DUP3 GT OR PUSH2 0x1067 JUMPI PUSH1 0x40 MSTORE JUMP JUMPDEST PUSH4 0x4E487B71 PUSH1 0xE0 SHL PUSH1 0x0 MSTORE PUSH1 0x11 PUSH1 0x4 MSTORE PUSH1 0x24 PUSH1 0x0 REVERT JUMPDEST SWAP1 PUSH1 0x1 DUP3 ADD DUP1 SWAP3 GT PUSH2 0x4E8 JUMPI JUMP JUMPDEST ISZERO PUSH2 0x10F1 JUMPI JUMP JUMPDEST PUSH1 0x40 MLOAD PUSH3 0x461BCD PUSH1 0xE5 SHL DUP2 MSTORE PUSH1 0x20 PUSH1 0x4 DUP3 ADD MSTORE PUSH1 0x23 PUSH1 0x24 DUP3 ADD MSTORE PUSH32 0x45524332303A207472616E7366657220746F20746865207A65726F2061646472 PUSH1 0x44 DUP3 ADD MSTORE PUSH3 0x657373 PUSH1 0xE8 SHL PUSH1 0x64 DUP3 ADD MSTORE PUSH1 0x84 SWAP1 REVERT JUMPDEST ISZERO PUSH2 0x1149 JUMPI JUMP JUMPDEST PUSH1 0x40 MLOAD PUSH3 0x461BCD PUSH1 0xE5 SHL DUP2 MSTORE PUSH1 0x20 PUSH1 0x4 DUP3 ADD MSTORE PUSH1 0x26 PUSH1 0x24 DUP3 ADD MSTORE PUSH32 0x45524332303A207472616E7366657220616D6F756E7420657863656564732062 PUSH1 0x44 DUP3 ADD MSTORE PUSH6 0x616C616E6365 PUSH1 0xD0 SHL PUSH1 0x64 DUP3 ADD MSTORE PUSH1 0x84 SWAP1 REVERT JUMPDEST SWAP2 SWAP1 PUSH1 0x1 PUSH1 0x1 PUSH1 0xA0 SHL SUB SWAP3 DUP4 DUP2 AND DUP1 ISZERO PUSH2 0x1263 JUMPI PUSH2 0x1261 SWAP5 DUP4 AND SWAP1 PUSH2 0x11C3 DUP3 ISZERO ISZERO PUSH2 0x10EA JUMP JUMPDEST DUP5 PUSH2 0x11E1 DUP5 PUSH1 0x1 PUSH1 0x1 PUSH1 0xA0 SHL SUB AND PUSH1 0x0 MSTORE PUSH1 0x0 PUSH1 0x20 MSTORE PUSH1 0x40 PUSH1 0x0 KECCAK256 SWAP1 JUMP JUMPDEST SLOAD PUSH2 0x11EE DUP3 DUP3 LT ISZERO PUSH2 0x1142 JUMP JUMPDEST SUB PUSH2 0x120C DUP5 PUSH1 0x1 PUSH1 0x1 PUSH1 0xA0 SHL SUB AND PUSH1 0x0 MSTORE PUSH1 0x0 PUSH1 0x20 MSTORE PUSH1 0x40 PUSH1 0x0 KECCAK256 SWAP1 JUMP JUMPDEST SSTORE PUSH2 0x122A DUP5 PUSH1 0x1 PUSH1 0x1 PUSH1 0xA0 SHL SUB AND PUSH1 0x0 MSTORE PUSH1 0x0 PUSH1 0x20 MSTORE PUSH1 0x40 PUSH1 0x0 KECCAK256 SWAP1 JUMP JUMPDEST DUP1 SLOAD DUP7 ADD SWAP1 SSTORE PUSH1 0x40 MLOAD DUP6 DUP2 MSTORE PUSH32 0xDDF252AD1BE2C89B69C2B068FC378DAA952BA7F163C4A11628F55A4DF523B3EF SWAP1 PUSH1 0x20 SWAP1 LOG3 PUSH2 0x2079 JUMP JUMPDEST JUMP JUMPDEST PUSH1 0x40 MLOAD PUSH3 0x461BCD PUSH1 0xE5 SHL DUP2 MSTORE PUSH1 0x20 PUSH1 0x4 DUP3 ADD MSTORE PUSH1 0x25 PUSH1 0x24 DUP3 ADD MSTORE PUSH32 0x45524332303A207472616E736665722066726F6D20746865207A65726F206164 PUSH1 0x44 DUP3 ADD MSTORE PUSH5 0x6472657373 PUSH1 0xD8 SHL PUSH1 0x64 DUP3 ADD MSTORE PUSH1 0x84 SWAP1 REVERT JUMPDEST SWAP1 PUSH1 0x1 PUSH1 0x1 PUSH1 0xA0 SHL SUB SWAP2 DUP3 DUP2 AND SWAP3 DUP4 ISZERO PUSH2 0x1397 JUMPI DUP3 AND SWAP4 DUP5 ISZERO PUSH2 0x1347 JUMPI DUP1 PUSH2 0x1331 PUSH32 0x8C5BE1E5EBEC7D5BD14F71427D1E84F3DD0314C0F7B2291E5B200AC8C7C3B925 SWAP5 PUSH2 0x1319 PUSH2 0x1342 SWAP6 PUSH1 0x1 PUSH1 0x1 PUSH1 0xA0 SHL SUB AND PUSH1 0x0 MSTORE PUSH1 0x1 PUSH1 0x20 MSTORE PUSH1 0x40 PUSH1 0x0 KECCAK256 SWAP1 JUMP JUMPDEST SWAP1 PUSH1 0x1 PUSH1 0x1 PUSH1 0xA0 SHL SUB AND PUSH1 0x0 MSTORE PUSH1 0x20 MSTORE PUSH1 0x40 PUSH1 0x0 KECCAK256 SWAP1 JUMP JUMPDEST SSTORE PUSH1 0x40 MLOAD SWAP1 DUP2 MSTORE SWAP1 DUP2 SWAP1 PUSH1 0x20 DUP3 ADD SWAP1 JUMP JUMPDEST SUB SWAP1 LOG3 JUMP JUMPDEST PUSH1 0x40 MLOAD PUSH3 0x461BCD PUSH1 0xE5 SHL DUP2 MSTORE PUSH1 0x20 PUSH1 0x4 DUP3 ADD MSTORE PUSH1 0x22 PUSH1 0x24 DUP3 ADD MSTORE PUSH32 0x45524332303A20617070726F766520746F20746865207A65726F206164647265 PUSH1 0x44 DUP3 ADD MSTORE PUSH2 0x7373 PUSH1 0xF0 SHL PUSH1 0x64 DUP3 ADD MSTORE PUSH1 0x84 SWAP1 REVERT JUMPDEST PUSH1 0x40 MLOAD PUSH3 0x461BCD PUSH1 0xE5 SHL DUP2 MSTORE PUSH1 0x20 PUSH1 0x4 DUP3 ADD MSTORE PUSH1 0x24 DUP1 DUP3 ADD MSTORE PUSH32 0x45524332303A20617070726F76652066726F6D20746865207A65726F20616464 PUSH1 0x44 DUP3 ADD MSTORE PUSH4 0x72657373 PUSH1 0xE0 SHL PUSH1 0x64 DUP3 ADD MSTORE PUSH1 0x84 SWAP1 REVERT JUMPDEST ISZERO PUSH2 0x13EF JUMPI JUMP JUMPDEST PUSH1 0x40 MLOAD PUSH3 0x461BCD PUSH1 0xE5 SHL DUP2 MSTORE PUSH1 0x20 PUSH1 0x4 DUP3 ADD MSTORE PUSH1 0x1E PUSH1 0x24 DUP3 ADD MSTORE PUSH32 0x45524332305065726D69743A20696E76616C6964207369676E61747572650000 PUSH1 0x44 DUP3 ADD MSTORE PUSH1 0x64 SWAP1 REVERT JUMPDEST PUSH1 0x40 MLOAD SWAP1 PUSH2 0x1261 DUP3 PUSH2 0x104B JUMP JUMPDEST DUP1 SLOAD DUP3 LT ISZERO PUSH2 0x1459 JUMPI PUSH1 0x0 MSTORE PUSH1 0x20 PUSH1 0x0 KECCAK256 ADD SWAP1 PUSH1 0x0 SWAP1 JUMP JUMPDEST PUSH4 0x4E487B71 PUSH1 0xE0 SHL PUSH1 0x0 MSTORE PUSH1 0x32 PUSH1 0x4 MSTORE PUSH1 0x24 PUSH1 0x0 REVERT JUMPDEST SWAP1 PUSH1 0x40 MLOAD PUSH2 0x147C DUP2 PUSH2 0x104B JUMP JUMPDEST PUSH1 0x20 DUP2 SWAP4 SLOAD PUSH4 0xFFFFFFFF DUP2 AND DUP4 MSTORE DUP2 SHR SWAP2 ADD MSTORE JUMP JUMPDEST ISZERO PUSH2 0x1498 JUMPI JUMP JUMPDEST PUSH1 0x40 MLOAD PUSH3 0x461BCD PUSH1 0xE5 SHL DUP2 MSTORE PUSH1 0x20 PUSH1 0x4 DUP3 ADD MSTORE PUSH1 0x19 PUSH1 0x24 DUP3 ADD MSTORE PUSH32 0x4552433230566F7465733A20667574757265206C6F6F6B757000000000000000 PUSH1 0x44 DUP3 ADD MSTORE PUSH1 0x64 SWAP1 REVERT JUMPDEST SWAP2 SWAP1 DUP3 SUB SWAP2 DUP3 GT PUSH2 0x4E8 JUMPI JUMP JUMPDEST ISZERO PUSH2 0x14F1 JUMPI JUMP JUMPDEST PUSH1 0x40 MLOAD PUSH3 0x461BCD PUSH1 0xE5 SHL DUP2 MSTORE PUSH1 0x20 PUSH1 0x4 DUP3 ADD MSTORE PUSH1 0x19 PUSH1 0x24 DUP3 ADD MSTORE PUSH32 0x4552433230566F7465733A20696E76616C6964206E6F6E636500000000000000 PUSH1 0x44 DUP3 ADD MSTORE PUSH1 0x64 SWAP1 REVERT JUMPDEST PUSH2 0x1261 SWAP2 PUSH1 0x1 PUSH1 0x1 PUSH1 0xA0 SHL SUB DUP1 SWAP3 AND PUSH1 0x0 SWAP3 DUP2 DUP5 MSTORE PUSH1 0x9 PUSH1 0x20 MSTORE DUP1 PUSH1 0x40 DUP6 KECCAK256 SLOAD AND DUP1 SWAP3 DUP6 PUSH1 0x20 MSTORE PUSH32 0x3134E8A2E6D97E929A7E54011EA5485D7D196DD5F0BA4D4EF95803E8E3FC257F PUSH1 0x40 DUP8 KECCAK256 SLOAD SWAP7 PUSH1 0x9 PUSH1 0x20 MSTORE PUSH1 0x40 DUP2 KECCAK256 SWAP5 DUP8 AND SWAP5 DUP6 PUSH12 0xFFFFFFFFFFFFFFFFFFFFFFFF PUSH1 0xA0 SHL DUP3 SLOAD AND OR SWAP1 SSTORE DUP1 LOG4 JUMPDEST SWAP2 SWAP1 PUSH1 0x1 PUSH1 0x1 PUSH1 0xA0 SHL SUB DUP1 DUP3 AND SWAP4 AND DUP4 DUP2 EQ ISZERO DUP1 PUSH2 0x17C3 JUMPI JUMPDEST PUSH2 0x15CF JUMPI JUMPDEST POP POP POP POP JUMP JUMPDEST DUP1 PUSH2 0x1642 JUMPI JUMPDEST POP DUP3 PUSH2 0x15E2 JUMPI JUMPDEST DUP1 PUSH2 0x15C9 JUMP JUMPDEST PUSH32 0xDEC2BACDD2F05B59DE34DA9B523DFF8BE42E5E38E818C82FDB0BAE774387A724 SWAP2 PUSH2 0x1624 PUSH2 0x1629 SWAP3 PUSH1 0x1 PUSH1 0x1 PUSH1 0xA0 SHL SUB AND PUSH1 0x0 MSTORE PUSH1 0xA PUSH1 0x20 MSTORE PUSH1 0x40 PUSH1 0x0 KECCAK256 SWAP1 JUMP JUMPDEST PUSH2 0x182B JUMP JUMPDEST PUSH1 0x40 DUP1 MLOAD SWAP3 DUP4 MSTORE PUSH1 0x20 DUP4 ADD SWAP2 SWAP1 SWAP2 MSTORE SWAP1 LOG2 CODESIZE DUP1 DUP1 PUSH2 0x15DC JUMP JUMPDEST DUP1 PUSH1 0x0 MSTORE PUSH1 0xA PUSH1 0x20 MSTORE PUSH32 0xDEC2BACDD2F05B59DE34DA9B523DFF8BE42E5E38E818C82FDB0BAE774387A724 PUSH1 0x40 PUSH1 0x0 KECCAK256 DUP1 SLOAD DUP1 ISZERO SWAP2 DUP3 PUSH1 0x0 EQ PUSH2 0x17A0 JUMPI PUSH2 0x1686 PUSH2 0x1434 JUMP JUMPDEST PUSH1 0x0 DUP2 MSTORE PUSH1 0x0 PUSH1 0x20 DUP3 ADD MSTORE SWAP2 JUMPDEST PUSH1 0x20 DUP4 ADD MLOAD PUSH2 0x16B2 SWAP1 PUSH1 0x1 PUSH1 0x1 PUSH1 0xE0 SHL SUB AND JUMPDEST PUSH1 0x1 PUSH1 0x1 PUSH1 0xE0 SHL SUB AND SWAP1 JUMP JUMPDEST SWAP3 PUSH2 0x16BD DUP10 DUP6 PUSH2 0x20AD JUMP JUMPDEST SWAP5 ISZERO SWAP1 DUP2 PUSH2 0x177D JUMPI JUMPDEST POP ISZERO PUSH2 0x171B JUMPI PUSH2 0x16EE PUSH2 0x1705 SWAP3 PUSH2 0x16DC DUP7 PUSH2 0x1F44 JUMP JUMPDEST SWAP3 PUSH1 0x0 NOT ADD SWAP1 PUSH1 0x0 MSTORE PUSH1 0x20 PUSH1 0x0 KECCAK256 ADD SWAP1 JUMP JUMPDEST SWAP1 PUSH4 0xFFFFFFFF DUP3 SLOAD SWAP2 DUP2 NOT SWAP1 PUSH1 0x20 SHL AND SWAP2 AND OR SWAP1 SSTORE JUMP JUMPDEST PUSH1 0x40 DUP1 MLOAD SWAP2 DUP3 MSTORE PUSH1 0x20 DUP3 ADD SWAP3 SWAP1 SWAP3 MSTORE LOG2 CODESIZE PUSH2 0x15D5 JUMP JUMPDEST POP PUSH2 0x1778 SWAP1 PUSH2 0x173F PUSH2 0x173A PUSH2 0x172F NUMBER PUSH2 0x1FAD JUMP JUMPDEST PUSH6 0xFFFFFFFFFFFF AND SWAP1 JUMP JUMPDEST PUSH2 0x2014 JUMP JUMPDEST SWAP1 PUSH2 0x1773 PUSH2 0x174C DUP7 PUSH2 0x1F44 JUMP JUMPDEST PUSH2 0x1763 PUSH2 0x1757 PUSH2 0x1434 JUMP JUMPDEST PUSH4 0xFFFFFFFF SWAP1 SWAP6 AND DUP6 MSTORE JUMP JUMPDEST PUSH1 0x1 PUSH1 0x1 PUSH1 0xE0 SHL SUB AND PUSH1 0x20 DUP5 ADD MSTORE JUMP JUMPDEST PUSH2 0x17CC JUMP JUMPDEST PUSH2 0x1705 JUMP JUMPDEST MLOAD PUSH4 0xFFFFFFFF AND SWAP1 POP PUSH4 0xFFFFFFFF PUSH2 0x1797 PUSH2 0x172F NUMBER PUSH2 0x1FAD JUMP JUMPDEST SWAP2 AND EQ CODESIZE PUSH2 0x16C6 JUMP JUMPDEST PUSH2 0x17BD PUSH2 0x17B8 PUSH1 0x0 NOT DUP5 ADD DUP4 PUSH1 0x0 MSTORE PUSH1 0x20 PUSH1 0x0 KECCAK256 ADD SWAP1 JUMP JUMPDEST PUSH2 0x146F JUMP JUMPDEST SWAP2 PUSH2 0x1693 JUMP JUMPDEST POP DUP3 ISZERO ISZERO PUSH2 0x15C4 JUMP JUMPDEST DUP1 SLOAD PUSH9 0x10000000000000000 DUP2 LT ISZERO PUSH2 0x1067 JUMPI PUSH2 0x17EE SWAP2 PUSH1 0x1 DUP3 ADD DUP2 SSTORE PUSH2 0x1441 JUMP JUMPDEST PUSH2 0x1815 JUMPI DUP2 MLOAD PUSH1 0x20 SWAP3 DUP4 ADD MLOAD SWAP1 SWAP3 SHL PUSH4 0xFFFFFFFF NOT AND PUSH4 0xFFFFFFFF SWAP3 SWAP1 SWAP3 AND SWAP2 SWAP1 SWAP2 OR SWAP1 SSTORE JUMP JUMPDEST PUSH4 0x4E487B71 PUSH1 0xE0 SHL PUSH1 0x0 MSTORE PUSH1 0x0 PUSH1 0x4 MSTORE PUSH1 0x24 PUSH1 0x0 REVERT JUMPDEST SWAP1 SWAP2 DUP2 SLOAD SWAP2 DUP3 ISZERO SWAP3 DUP4 PUSH1 0x0 EQ PUSH2 0x18C7 JUMPI PUSH2 0x1843 PUSH2 0x1434 JUMP JUMPDEST PUSH1 0x0 DUP2 MSTORE PUSH1 0x0 PUSH1 0x20 DUP3 ADD MSTORE JUMPDEST PUSH1 0x20 DUP2 ADD MLOAD PUSH2 0x1871 SWAP1 PUSH2 0x186A SWAP1 PUSH1 0x1 PUSH1 0x1 PUSH1 0xE0 SHL SUB AND PUSH2 0x16A6 JUMP JUMPDEST SWAP7 DUP8 PUSH2 0x20BA JUMP JUMPDEST SWAP5 ISZERO SWAP1 DUP2 PUSH2 0x18A4 JUMPI JUMPDEST POP ISZERO PUSH2 0x1890 JUMPI PUSH2 0x16EE PUSH2 0x1261 SWAP3 PUSH2 0x16DC DUP7 PUSH2 0x1F44 JUMP JUMPDEST POP PUSH2 0x1261 SWAP1 PUSH2 0x173F PUSH2 0x173A PUSH2 0x172F NUMBER PUSH2 0x1FAD JUMP JUMPDEST MLOAD PUSH4 0xFFFFFFFF AND SWAP1 POP PUSH4 0xFFFFFFFF PUSH2 0x18BE PUSH2 0x172F NUMBER PUSH2 0x1FAD JUMP JUMPDEST SWAP2 AND EQ CODESIZE PUSH2 0x187A JUMP JUMPDEST PUSH2 0x18DF PUSH2 0x17B8 PUSH1 0x0 NOT DUP4 ADD DUP5 PUSH1 0x0 MSTORE PUSH1 0x20 PUSH1 0x0 KECCAK256 ADD SWAP1 JUMP JUMPDEST PUSH2 0x184F JUMP JUMPDEST SWAP2 PUSH2 0x20D SWAP4 SWAP2 PUSH2 0x18F3 SWAP4 PUSH2 0x1A3B JUMP JUMPDEST SWAP2 SWAP1 SWAP2 PUSH2 0x191B JUMP JUMPDEST PUSH1 0x5 GT ISZERO PUSH2 0x1905 JUMPI JUMP JUMPDEST PUSH4 0x4E487B71 PUSH1 0xE0 SHL PUSH1 0x0 MSTORE PUSH1 0x21 PUSH1 0x4 MSTORE PUSH1 0x24 PUSH1 0x0 REVERT JUMPDEST PUSH2 0x1924 DUP2 PUSH2 0x18FB JUMP JUMPDEST DUP1 PUSH2 0x192C JUMPI POP JUMP JUMPDEST PUSH2 0x1935 DUP2 PUSH2 0x18FB JUMP JUMPDEST PUSH1 0x1 DUP2 SUB PUSH2 0x1982 JUMPI PUSH1 0x40 MLOAD PUSH3 0x461BCD PUSH1 0xE5 SHL DUP2 MSTORE PUSH1 0x20 PUSH1 0x4 DUP3 ADD MSTORE PUSH1 0x18 PUSH1 0x24 DUP3 ADD MSTORE PUSH32 0x45434453413A20696E76616C6964207369676E61747572650000000000000000 PUSH1 0x44 DUP3 ADD MSTORE PUSH1 0x64 SWAP1 REVERT JUMPDEST PUSH2 0x198B DUP2 PUSH2 0x18FB JUMP JUMPDEST PUSH1 0x2 DUP2 SUB PUSH2 0x19D8 JUMPI PUSH1 0x40 MLOAD PUSH3 0x461BCD PUSH1 0xE5 SHL DUP2 MSTORE PUSH1 0x20 PUSH1 0x4 DUP3 ADD MSTORE PUSH1 0x1F PUSH1 0x24 DUP3 ADD MSTORE PUSH32 0x45434453413A20696E76616C6964207369676E6174757265206C656E67746800 PUSH1 0x44 DUP3 ADD MSTORE PUSH1 0x64 SWAP1 REVERT JUMPDEST DUP1 PUSH2 0x19E4 PUSH1 0x3 SWAP3 PUSH2 0x18FB JUMP JUMPDEST EQ PUSH2 0x19EB JUMPI JUMP JUMPDEST PUSH1 0x40 MLOAD PUSH3 0x461BCD PUSH1 0xE5 SHL DUP2 MSTORE PUSH1 0x20 PUSH1 0x4 DUP3 ADD MSTORE PUSH1 0x22 PUSH1 0x24 DUP3 ADD MSTORE PUSH32 0x45434453413A20696E76616C6964207369676E6174757265202773272076616C PUSH1 0x44 DUP3 ADD MSTORE PUSH2 0x7565 PUSH1 0xF0 SHL PUSH1 0x64 DUP3 ADD MSTORE PUSH1 0x84 SWAP1 REVERT JUMPDEST SWAP3 SWAP2 SWAP1 PUSH32 0x7FFFFFFFFFFFFFFFFFFFFFFFFFFFFFFF5D576E7357A4501DDFE92F46681B20A0 DUP4 GT PUSH2 0x1ABE JUMPI SWAP2 PUSH1 0x80 SWAP5 SWAP4 SWAP2 PUSH1 0xFF PUSH1 0x20 SWAP5 PUSH1 0x40 MLOAD SWAP5 DUP6 MSTORE AND DUP5 DUP5 ADD MSTORE PUSH1 0x40 DUP4 ADD MSTORE PUSH1 0x60 DUP3 ADD MSTORE PUSH1 0x0 SWAP4 DUP5 SWAP2 DUP3 DUP1 MSTORE PUSH1 0x1 GAS STATICCALL ISZERO PUSH2 0x1AB1 JUMPI DUP2 MLOAD PUSH1 0x1 PUSH1 0x1 PUSH1 0xA0 SHL SUB DUP2 AND ISZERO PUSH2 0x1AAB JUMPI SWAP2 SWAP1 JUMP JUMPDEST POP PUSH1 0x1 SWAP1 JUMP JUMPDEST POP PUSH1 0x40 MLOAD SWAP1 RETURNDATASIZE SWAP1 DUP3 RETURNDATACOPY RETURNDATASIZE SWAP1 REVERT JUMPDEST POP POP POP POP PUSH1 0x0 SWAP1 PUSH1 0x3 SWAP1 JUMP JUMPDEST PUSH1 0x1 PUSH1 0x1 PUSH1 0xA0 SHL SUB PUSH32 0x0 AND ADDRESS EQ DUP1 PUSH2 0x1BBB JUMPI JUMPDEST ISZERO PUSH2 0x1B25 JUMPI PUSH32 0x0 SWAP1 JUMP JUMPDEST PUSH1 0x40 MLOAD PUSH1 0x20 DUP2 ADD SWAP1 PUSH32 0x8B73C3C69BB8FE3D512ECC4CF759CC79239F7B179B0FFACAA9A75D522B39400F DUP3 MSTORE PUSH32 0x0 PUSH1 0x40 DUP3 ADD MSTORE PUSH32 0x0 PUSH1 0x60 DUP3 ADD MSTORE CHAINID PUSH1 0x80 DUP3 ADD MSTORE ADDRESS PUSH1 0xA0 DUP3 ADD MSTORE PUSH1 0xA0 DUP2 MSTORE PUSH2 0x1BB5 DUP2 PUSH2 0x1088 JUMP JUMPDEST MLOAD SWAP1 KECCAK256 SWAP1 JUMP JUMPDEST POP PUSH32 0x0 CHAINID EQ PUSH2 0x1AFC JUMP JUMPDEST PUSH1 0x42 SWAP1 PUSH2 0x1BEF PUSH2 0x1ACA JUMP JUMPDEST SWAP1 PUSH1 0x40 MLOAD SWAP2 PUSH2 0x1901 PUSH1 0xF0 SHL DUP4 MSTORE PUSH1 0x2 DUP4 ADD MSTORE PUSH1 0x22 DUP3 ADD MSTORE KECCAK256 SWAP1 JUMP JUMPDEST PUSH1 0xFF DUP2 EQ PUSH2 0x1C48 JUMPI PUSH1 0xFF DUP2 AND SWAP1 PUSH1 0x1F DUP3 GT PUSH2 0x1C36 JUMPI PUSH1 0x40 MLOAD SWAP2 PUSH2 0x1C2C DUP4 PUSH2 0x104B JUMP JUMPDEST DUP3 MSTORE PUSH1 0x20 DUP3 ADD MSTORE SWAP1 JUMP JUMPDEST PUSH1 0x40 MLOAD PUSH4 0x2CD44AC3 PUSH1 0xE2 SHL DUP2 MSTORE PUSH1 0x4 SWAP1 REVERT JUMPDEST POP PUSH1 0x40 MLOAD PUSH1 0x5 SLOAD DUP2 PUSH1 0x0 PUSH2 0x1C5B DUP4 PUSH2 0xFFB JUMP JUMPDEST DUP1 DUP4 MSTORE SWAP3 PUSH1 0x1 SWAP1 DUP2 DUP2 AND SWAP1 DUP2 ISZERO PUSH2 0x1CE1 JUMPI POP PUSH1 0x1 EQ PUSH2 0x1C82 JUMPI JUMPDEST POP PUSH2 0x20D SWAP3 POP SUB DUP3 PUSH2 0x10A4 JUMP JUMPDEST PUSH1 0x5 PUSH1 0x0 SWAP1 DUP2 MSTORE SWAP2 POP PUSH32 0x36B6384B5ECA791C62761152D0C79BB0604C104A5FB6F4EB0703F3154BB3DB0 JUMPDEST DUP5 DUP4 LT PUSH2 0x1CC6 JUMPI POP PUSH2 0x20D SWAP4 POP POP DUP2 ADD PUSH1 0x20 ADD CODESIZE PUSH2 0x1C75 JUMP JUMPDEST DUP2 SWAP4 POP SWAP1 DUP2 PUSH1 0x20 SWAP3 SLOAD DUP4 DUP6 DUP10 ADD ADD MSTORE ADD SWAP2 ADD SWAP1 SWAP2 DUP5 SWAP3 PUSH2 0x1CAD JUMP JUMPDEST SWAP1 POP PUSH1 0x20 SWAP3 POP PUSH2 0x20D SWAP5 SWAP2 POP PUSH1 0xFF NOT AND DUP3 DUP5 ADD MSTORE ISZERO ISZERO PUSH1 0x5 SHL DUP3 ADD ADD CODESIZE PUSH2 0x1C75 JUMP JUMPDEST PUSH1 0xFF DUP2 EQ PUSH2 0x1D25 JUMPI PUSH1 0xFF DUP2 AND SWAP1 PUSH1 0x1F DUP3 GT PUSH2 0x1C36 JUMPI PUSH1 0x40 MLOAD SWAP2 PUSH2 0x1C2C DUP4 PUSH2 0x104B JUMP JUMPDEST POP PUSH1 0x40 MLOAD PUSH1 0x6 SLOAD DUP2 PUSH1 0x0 PUSH2 0x1D38 DUP4 PUSH2 0xFFB JUMP JUMPDEST DUP1 DUP4 MSTORE SWAP3 PUSH1 0x1 SWAP1 DUP2 DUP2 AND SWAP1 DUP2 ISZERO PUSH2 0x1CE1 JUMPI POP PUSH1 0x1 EQ PUSH2 0x1D5E JUMPI POP PUSH2 0x20D SWAP3 POP SUB DUP3 PUSH2 0x10A4 JUMP JUMPDEST PUSH1 0x6 PUSH1 0x0 SWAP1 DUP2 MSTORE SWAP2 POP PUSH32 0xF652222313E28459528D920B65115C16C04F3EFC82AAEDC97BE59F3F377C0D3F JUMPDEST DUP5 DUP4 LT PUSH2 0x1DA2 JUMPI POP PUSH2 0x20D SWAP4 POP POP DUP2 ADD PUSH1 0x20 ADD CODESIZE PUSH2 0x1C75 JUMP JUMPDEST DUP2 SWAP4 POP SWAP1 DUP2 PUSH1 0x20 SWAP3 SLOAD DUP4 DUP6 DUP10 ADD ADD MSTORE ADD SWAP2 ADD SWAP1 SWAP2 DUP5 SWAP3 PUSH2 0x1D89 JUMP JUMPDEST DUP2 ISZERO PUSH2 0x1DC7 JUMPI DIV SWAP1 JUMP JUMPDEST PUSH4 0x4E487B71 PUSH1 0xE0 SHL PUSH1 0x0 MSTORE PUSH1 0x12 PUSH1 0x4 MSTORE PUSH1 0x24 PUSH1 0x0 REVERT JUMPDEST SWAP1 DUP1 DUP3 AND SWAP2 XOR PUSH1 0x1 SHR DUP2 ADD DUP1 SWAP2 GT PUSH2 0x4E8 JUMPI SWAP1 JUMP JUMPDEST DUP1 ISZERO PUSH2 0x1F2C JUMPI DUP1 PUSH2 0x1EC5 PUSH2 0x1EBE PUSH2 0x1EB4 PUSH2 0x1EAA PUSH2 0x1EA0 PUSH2 0x1E96 PUSH2 0x1E8C PUSH2 0x1E82 PUSH1 0x1 PUSH2 0x20D SWAP11 PUSH1 0x0 SWAP1 DUP12 PUSH1 0x80 SHR DUP1 PUSH2 0x1F20 JUMPI JUMPDEST POP DUP1 PUSH1 0x40 SHR DUP1 PUSH2 0x1F13 JUMPI JUMPDEST POP DUP1 PUSH1 0x20 SHR DUP1 PUSH2 0x1F06 JUMPI JUMPDEST POP DUP1 PUSH1 0x10 SHR DUP1 PUSH2 0x1EF9 JUMPI JUMPDEST POP DUP1 PUSH1 0x8 SHR DUP1 PUSH2 0x1EEC JUMPI JUMPDEST POP DUP1 PUSH1 0x4 SHR DUP1 PUSH2 0x1EDF JUMPI JUMPDEST POP DUP1 PUSH1 0x2 SHR DUP1 PUSH2 0x1ED2 JUMPI JUMPDEST POP DUP3 SHR PUSH2 0x1ECB JUMPI JUMPDEST DUP2 SHR SHL PUSH2 0x1E7B DUP2 DUP12 PUSH2 0x1DBD JUMP JUMPDEST ADD PUSH1 0x1 SHR SWAP1 JUMP JUMPDEST PUSH2 0x1E7B DUP2 DUP11 PUSH2 0x1DBD JUMP JUMPDEST PUSH2 0x1E7B DUP2 DUP10 PUSH2 0x1DBD JUMP JUMPDEST PUSH2 0x1E7B DUP2 DUP9 PUSH2 0x1DBD JUMP JUMPDEST PUSH2 0x1E7B DUP2 DUP8 PUSH2 0x1DBD JUMP JUMPDEST PUSH2 0x1E7B DUP2 DUP7 PUSH2 0x1DBD JUMP JUMPDEST PUSH2 0x1E7B DUP2 DUP6 PUSH2 0x1DBD JUMP JUMPDEST DUP1 SWAP3 PUSH2 0x1DBD JUMP JUMPDEST SWAP1 PUSH2 0x1F32 JUMP JUMPDEST DUP2 ADD PUSH2 0x1E6E JUMP JUMPDEST PUSH1 0x2 SWAP2 POP SWAP2 ADD SWAP1 CODESIZE PUSH2 0x1E66 JUMP JUMPDEST PUSH1 0x4 SWAP2 POP SWAP2 ADD SWAP1 CODESIZE PUSH2 0x1E5B JUMP JUMPDEST PUSH1 0x8 SWAP2 POP SWAP2 ADD SWAP1 CODESIZE PUSH2 0x1E50 JUMP JUMPDEST PUSH1 0x10 SWAP2 POP SWAP2 ADD SWAP1 CODESIZE PUSH2 0x1E45 JUMP JUMPDEST PUSH1 0x20 SWAP2 POP SWAP2 ADD SWAP1 CODESIZE PUSH2 0x1E3A JUMP JUMPDEST PUSH1 0x40 SWAP2 POP SWAP2 ADD SWAP1 CODESIZE PUSH2 0x1E2F JUMP JUMPDEST SWAP2 POP POP PUSH1 0x80 SWAP1 CODESIZE PUSH2 0x1E24 JUMP JUMPDEST POP PUSH1 0x0 SWAP1 JUMP JUMPDEST SWAP1 DUP1 DUP3 LT ISZERO PUSH2 0x1F3F JUMPI POP SWAP1 JUMP JUMPDEST SWAP1 POP SWAP1 JUMP JUMPDEST PUSH1 0x1 PUSH1 0x1 PUSH1 0xE0 SHL SUB SWAP1 DUP2 DUP2 GT PUSH2 0x1F58 JUMPI AND SWAP1 JUMP JUMPDEST PUSH1 0x40 MLOAD PUSH3 0x461BCD PUSH1 0xE5 SHL DUP2 MSTORE PUSH1 0x20 PUSH1 0x4 DUP3 ADD MSTORE PUSH1 0x27 PUSH1 0x24 DUP3 ADD MSTORE PUSH32 0x53616665436173743A2076616C756520646F65736E27742066697420696E2032 PUSH1 0x44 DUP3 ADD MSTORE PUSH7 0x32342062697473 PUSH1 0xC8 SHL PUSH1 0x64 DUP3 ADD MSTORE PUSH1 0x84 SWAP1 REVERT JUMPDEST PUSH6 0xFFFFFFFFFFFF SWAP1 DUP2 DUP2 GT PUSH2 0x1FC0 JUMPI AND SWAP1 JUMP JUMPDEST PUSH1 0x40 MLOAD PUSH3 0x461BCD PUSH1 0xE5 SHL DUP2 MSTORE PUSH1 0x20 PUSH1 0x4 DUP3 ADD MSTORE PUSH1 0x26 PUSH1 0x24 DUP3 ADD MSTORE PUSH32 0x53616665436173743A2076616C756520646F65736E27742066697420696E2034 PUSH1 0x44 DUP3 ADD MSTORE PUSH6 0x382062697473 PUSH1 0xD0 SHL PUSH1 0x64 DUP3 ADD MSTORE PUSH1 0x84 SWAP1 REVERT JUMPDEST PUSH4 0xFFFFFFFF SWAP1 DUP2 DUP2 GT PUSH2 0x2025 JUMPI AND SWAP1 JUMP JUMPDEST PUSH1 0x40 MLOAD PUSH3 0x461BCD PUSH1 0xE5 SHL DUP2 MSTORE PUSH1 0x20 PUSH1 0x4 DUP3 ADD MSTORE PUSH1 0x26 PUSH1 0x24 DUP3 ADD MSTORE PUSH32 0x53616665436173743A2076616C756520646F65736E27742066697420696E2033 PUSH1 0x44 DUP3 ADD MSTORE PUSH6 0x322062697473 PUSH1 0xD0 SHL PUSH1 0x64 DUP3 ADD MSTORE PUSH1 0x84 SWAP1 REVERT JUMPDEST SWAP1 PUSH2 0x1261 SWAP3 SWAP2 PUSH1 0x1 PUSH1 0x1 PUSH1 0xA0 SHL SUB DUP1 SWAP2 AND PUSH1 0x0 MSTORE PUSH1 0x9 PUSH1 0x20 MSTORE DUP1 DUP1 PUSH1 0x40 PUSH1 0x0 KECCAK256 SLOAD AND SWAP3 AND PUSH1 0x0 MSTORE PUSH1 0x40 PUSH1 0x0 KECCAK256 SLOAD AND SWAP1 PUSH2 0x15AB JUMP JUMPDEST SWAP1 DUP2 SUB SWAP1 DUP2 GT PUSH2 0x4E8 JUMPI SWAP1 JUMP JUMPDEST SWAP1 DUP2 ADD DUP1 SWAP2 GT PUSH2 0x4E8 JUMPI SWAP1 JUMP INVALID LOG2 PUSH5 0x6970667358 0x22 SLT KECCAK256 BASEFEE 0xE9 CODESIZE DUP4 KECCAK256 DUP8 GAS SDIV 0xE7 PUSH17 0x633727AB168F791BF1A2FCDCCE2E2548E3 SWAP11 0xBE MUL 0xD5 DUP7 PUSH5 0x736F6C6343 STOP ADDMOD SGT STOP CALLER 0xDE 0xC2 0xBA 0xCD 0xD2 CREATE JUMPDEST MSIZE 0xDE CALLVALUE 0xDA SWAP12 MSTORE RETURNDATASIZE SELFDESTRUCT DUP12 0xE4 0x2E 0x5E CODESIZE 0xE8 XOR 0xC8 0x2F 0xDB SIGNEXTEND 0xAE PUSH24 0x4387A7240000000000000000000000000000000000000000 "},"gasEstimates":{"creation":{"codeDepositCost":"1689000","executionCost":"infinite","totalCost":"infinite"},"external":{"CLOCK_MODE()":"infinite","DOMAIN_SEPARATOR()":"infinite","allowance(address,address)":"3113","approve(address,uint256)":"24483","balanceOf(address)":"2699","checkpoints(address,uint32)":"infinite","clock()":"669","decimals()":"247","decreaseAllowance(address,uint256)":"27202","delegate(address)":"infinite","delegateBySig(address,uint256,uint256,uint8,bytes32,bytes32)":"infinite","delegates(address)":"2617","eip712Domain()":"infinite","getPastTotalSupply(uint256)":"infinite","getPastVotes(address,uint256)":"infinite","getVotes(address)":"7228","increaseAllowance(address,uint256)":"26885","name()":"infinite","nonces(address)":"2721","numCheckpoints(address)":"2811","permit(address,address,uint256,uint256,uint8,bytes32,bytes32)":"infinite","s_maxSupply()":"2504","symbol()":"infinite","totalSupply()":"2306","transfer(address,uint256)":"infinite","transferFrom(address,address,uint256)":"infinite"},"internal":{"_afterTokenTransfer(address,address,uint256)":"infinite","_burn(address,uint256)":"infinite","_mint(address,uint256)":"infinite"}},"methodIdentifiers":{"CLOCK_MODE()":"4bf5d7e9","DOMAIN_SEPARATOR()":"3644e515","allowance(address,address)":"dd62ed3e","approve(address,uint256)":"095ea7b3","balanceOf(address)":"70a08231","checkpoints(address,uint32)":"f1127ed8","clock()":"91ddadf4","decimals()":"313ce567","decreaseAllowance(address,uint256)":"a457c2d7","delegate(address)":"5c19a95c","delegateBySig(address,uint256,uint256,uint8,bytes32,bytes32)":"c3cda520","delegates(address)":"587cde1e","eip712Domain()":"84b0196e","getPastTotalSupply(uint256)":"8e539e8c","getPastVotes(address,uint256)":"3a46b1a8","getVotes(address)":"9ab24eb0","increaseAllowance(address,uint256)":"39509351","name()":"06fdde03","nonces(address)":"7ecebe00","numCheckpoints(address)":"6fcfff45","permit(address,address,uint256,uint256,uint8,bytes32,bytes32)":"d505accf","s_maxSupply()":"5d641847","symbol()":"95d89b41","totalSupply()":"18160ddd","transfer(address,uint256)":"a9059cbb","transferFrom(address,address,uint256)":"23b872dd"}},"storageLayout":{"storage":[{"astId":255,"contract":"contracts/ObscurityToken.sol:ObscurityToken","label":"_balances","offset":0,"slot":"0","type":"t_mapping(t_address,t_uint256)"},{"astId":261,"contract":"contracts/ObscurityToken.sol:ObscurityToken","label":"_allowances","offset":0,"slot":"1","type":"t_mapping(t_address,t_mapping(t_address,t_uint256))"},{"astId":263,"contract":"contracts/ObscurityToken.sol:ObscurityToken","label":"_totalSupply","offset":0,"slot":"2","type":"t_uint256"},{"astId":265,"contract":"contracts/ObscurityToken.sol:ObscurityToken","label":"_name","offset":0,"slot":"3","type":"t_string_storage"},{"astId":267,"contract":"contracts/ObscurityToken.sol:ObscurityToken","label":"_symbol","offset":0,"slot":"4","type":"t_string_storage"},{"astId":2921,"contract":"contracts/ObscurityToken.sol:ObscurityToken","label":"_nameFallback","offset":0,"slot":"5","type":"t_string_storage"},{"astId":2923,"contract":"contracts/ObscurityToken.sol:ObscurityToken","label":"_versionFallback","offset":0,"slot":"6","type":"t_string_storage"},{"astId":927,"contract":"contracts/ObscurityToken.sol:ObscurityToken","label":"_nonces","offset":0,"slot":"7","type":"t_mapping(t_address,t_struct(Counter)1899_storage)"},{"astId":935,"contract":"contracts/ObscurityToken.sol:ObscurityToken","label":"_PERMIT_TYPEHASH_DEPRECATED_SLOT","offset":0,"slot":"8","type":"t_bytes32"},{"astId":1102,"contract":"contracts/ObscurityToken.sol:ObscurityToken","label":"_delegates","offset":0,"slot":"9","type":"t_mapping(t_address,t_address)"},{"astId":1108,"contract":"contracts/ObscurityToken.sol:ObscurityToken","label":"_checkpoints","offset":0,"slot":"10","type":"t_mapping(t_address,t_array(t_struct(Checkpoint)1093_storage)dyn_storage)"},{"astId":1112,"contract":"contracts/ObscurityToken.sol:ObscurityToken","label":"_totalSupplyCheckpoints","offset":0,"slot":"11","type":"t_array(t_struct(Checkpoint)1093_storage)dyn_storage"},{"astId":7302,"contract":"contracts/ObscurityToken.sol:ObscurityToken","label":"s_maxSupply","offset":0,"slot":"12","type":"t_uint256"}],"types":{"t_address":{"encoding":"inplace","label":"address","numberOfBytes":"20"},"t_array(t_struct(Checkpoint)1093_storage)dyn_storage":{"base":"t_struct(Checkpoint)1093_storage","encoding":"dynamic_array","label":"struct ERC20Votes.Checkpoint[]","numberOfBytes":"32"},"t_bytes32":{"encoding":"inplace","label":"bytes32","numberOfBytes":"32"},"t_mapping(t_address,t_address)":{"encoding":"mapping","key":"t_address","label":"mapping(address => address)","numberOfBytes":"32","value":"t_address"},"t_mapping(t_address,t_array(t_struct(Checkpoint)1093_storage)dyn_storage)":{"encoding":"mapping","key":"t_address","label":"mapping(address => struct ERC20Votes.Checkpoint[])","numberOfBytes":"32","value":"t_array(t_struct(Checkpoint)1093_storage)dyn_storage"},"t_mapping(t_address,t_mapping(t_address,t_uint256))":{"encoding":"mapping","key":"t_address","label":"mapping(address => mapping(address => uint256))","numberOfBytes":"32","value":"t_mapping(t_address,t_uint256)"},"t_mapping(t_address,t_struct(Counter)1899_storage)":{"encoding":"mapping","key":"t_address","label":"mapping(address => struct Counters.Counter)","numberOfBytes":"32","value":"t_struct(Counter)1899_storage"},"t_mapping(t_address,t_uint256)":{"encoding":"mapping","key":"t_address","label":"mapping(address => uint256)","numberOfBytes":"32","value":"t_uint256"},"t_string_storage":{"encoding":"bytes","label":"string","numberOfBytes":"32"},"t_struct(Checkpoint)1093_storage":{"encoding":"inplace","label":"struct ERC20Votes.Checkpoint","members":[{"astId":1090,"contract":"contracts/ObscurityToken.sol:ObscurityToken","label":"fromBlock","offset":0,"slot":"0","type":"t_uint32"},{"astId":1092,"contract":"contracts/ObscurityToken.sol:ObscurityToken","label":"votes","offset":4,"slot":"0","type":"t_uint224"}],"numberOfBytes":"32"},"t_struct(Counter)1899_storage":{"encoding":"inplace","label":"struct Counters.Counter","members":[{"astId":1898,"contract":"contracts/ObscurityToken.sol:ObscurityToken","label":"_value","offset":0,"slot":"0","type":"t_uint256"}],"numberOfBytes":"32"},"t_uint224":{"encoding":"inplace","label":"uint224","numberOfBytes":"28"},"t_uint256":{"encoding":"inplace","label":"uint256","numberOfBytes":"32"},"t_uint32":{"encoding":"inplace","label":"uint32","numberOfBytes":"4"}}},"userdoc":{"kind":"user","methods":{},"version":1}}}}