{"contracts/Auction.sol":{"Auction":{"abi":[{"inputs":[{"internalType":"contract ObscurityToken","name":"_token","type":"address"}],"stateMutability":"nonpayable","type":"constructor"},{"anonymous":false,"inputs":[{"indexed":true,"internalType":"string","name":"itemId","type":"string"},{"indexed":false,"internalType":"string","name":"itemName","type":"string"}],"name":"AuctionItemCreated","type":"event"},{"anonymous":false,"inputs":[{"indexed":true,"internalType":"address","name":"previousOwner","type":"address"},{"indexed":true,"internalType":"address","name":"newOwner","type":"address"}],"name":"OwnershipTransferred","type":"event"},{"inputs":[{"internalType":"address","name":"","type":"address"}],"name":"activeAuctionOwners","outputs":[{"internalType":"uint256","name":"stakedAmount","type":"uint256"},{"internalType":"bool","name":"isInitialized","type":"bool"}],"stateMutability":"view","type":"function"},{"inputs":[{"internalType":"string","name":"","type":"string"}],"name":"auctionItems","outputs":[{"internalType":"string","name":"itemId","type":"string"},{"internalType":"string","name":"itemName","type":"string"},{"internalType":"string","name":"itemDescription","type":"string"},{"internalType":"string","name":"hashOfImage","type":"string"},{"internalType":"address payable","name":"seller","type":"address"},{"internalType":"uint256","name":"reservePrice","type":"uint256"},{"internalType":"uint256","name":"highestBid","type":"uint256"},{"internalType":"address payable","name":"highestBidder","type":"address"},{"internalType":"uint256","name":"auctionEndTime","type":"uint256"},{"internalType":"bool","name":"ended","type":"bool"},{"internalType":"string","name":"deliveryAddress","type":"string"},{"internalType":"enum Auction.EscrowState","name":"escrowState","type":"uint8"},{"internalType":"uint8","name":"yesVotes","type":"uint8"},{"internalType":"uint8","name":"noVotes","type":"uint8"}],"stateMutability":"view","type":"function"},{"inputs":[{"internalType":"string","name":"a","type":"string"},{"internalType":"string","name":"b","type":"string"}],"name":"compareStrings","outputs":[{"internalType":"bool","name":"","type":"bool"}],"stateMutability":"pure","type":"function"},{"inputs":[{"internalType":"string","name":"itemId","type":"string"},{"internalType":"string","name":"itemName","type":"string"},{"internalType":"string","name":"itemDescription","type":"string"},{"internalType":"string","name":"hashOfImage","type":"string"},{"internalType":"uint256","name":"reservePrice","type":"uint256"}],"name":"createAuctionItem","outputs":[],"stateMutability":"nonpayable","type":"function"},{"inputs":[{"internalType":"string","name":"itemId","type":"string"}],"name":"endAuction","outputs":[],"stateMutability":"payable","type":"function"},{"inputs":[{"internalType":"address","name":"sender","type":"address"}],"name":"getActiveAuctioneer","outputs":[{"internalType":"uint256","name":"","type":"uint256"},{"internalType":"string[]","name":"","type":"string[]"},{"internalType":"bool","name":"","type":"bool"}],"stateMutability":"view","type":"function"},{"inputs":[],"name":"getAllAuctions","outputs":[{"components":[{"internalType":"string","name":"itemId","type":"string"},{"internalType":"string","name":"itemName","type":"string"},{"internalType":"string","name":"itemDescription","type":"string"},{"internalType":"string","name":"hashOfImage","type":"string"},{"internalType":"address payable","name":"seller","type":"address"},{"internalType":"uint256","name":"reservePrice","type":"uint256"},{"internalType":"uint256","name":"highestBid","type":"uint256"},{"internalType":"address payable","name":"highestBidder","type":"address"},{"internalType":"uint256","name":"auctionEndTime","type":"uint256"},{"internalType":"bool","name":"ended","type":"bool"},{"internalType":"string","name":"deliveryAddress","type":"string"},{"internalType":"string[]","name":"privateChatLogs","type":"string[]"},{"internalType":"string[]","name":"committeeChatLogs","type":"string[]"},{"internalType":"enum Auction.EscrowState","name":"escrowState","type":"uint8"},{"internalType":"uint8","name":"yesVotes","type":"uint8"},{"internalType":"uint8","name":"noVotes","type":"uint8"}],"internalType":"struct Auction.AuctionItem[]","name":"","type":"tuple[]"}],"stateMutability":"view","type":"function"},{"inputs":[],"name":"getAllDisputeAuctions","outputs":[{"components":[{"internalType":"string","name":"itemId","type":"string"},{"internalType":"string","name":"itemName","type":"string"},{"internalType":"string","name":"itemDescription","type":"string"},{"internalType":"string","name":"hashOfImage","type":"string"},{"internalType":"address payable","name":"seller","type":"address"},{"internalType":"uint256","name":"reservePrice","type":"uint256"},{"internalType":"uint256","name":"highestBid","type":"uint256"},{"internalType":"address payable","name":"highestBidder","type":"address"},{"internalType":"uint256","name":"auctionEndTime","type":"uint256"},{"internalType":"bool","name":"ended","type":"bool"},{"internalType":"string","name":"deliveryAddress","type":"string"},{"internalType":"string[]","name":"privateChatLogs","type":"string[]"},{"internalType":"string[]","name":"committeeChatLogs","type":"string[]"},{"internalType":"enum Auction.EscrowState","name":"escrowState","type":"uint8"},{"internalType":"uint8","name":"yesVotes","type":"uint8"},{"internalType":"uint8","name":"noVotes","type":"uint8"}],"internalType":"struct Auction.AuctionItem[]","name":"","type":"tuple[]"}],"stateMutability":"view","type":"function"},{"inputs":[],"name":"getAuctionDuration","outputs":[{"internalType":"uint256","name":"","type":"uint256"}],"stateMutability":"view","type":"function"},{"inputs":[{"internalType":"string","name":"itemId","type":"string"}],"name":"getAuctionItem","outputs":[{"internalType":"string","name":"","type":"string"},{"internalType":"string","name":"","type":"string"},{"internalType":"address payable","name":"","type":"address"},{"internalType":"uint256","name":"","type":"uint256"},{"internalType":"uint256","name":"","type":"uint256"},{"internalType":"address payable","name":"","type":"address"},{"internalType":"uint256","name":"","type":"uint256"},{"internalType":"bool","name":"","type":"bool"}],"stateMutability":"view","type":"function"},{"inputs":[{"internalType":"string","name":"itemId","type":"string"}],"name":"getChatLogOfItem","outputs":[{"internalType":"string[]","name":"","type":"string[]"}],"stateMutability":"view","type":"function"},{"inputs":[],"name":"getConcurrentAuctionsPerUser","outputs":[{"internalType":"uint256","name":"","type":"uint256"}],"stateMutability":"view","type":"function"},{"inputs":[],"name":"getCurrentTimestamp","outputs":[{"internalType":"uint256","name":"","type":"uint256"}],"stateMutability":"view","type":"function"},{"inputs":[{"internalType":"string","name":"itemId","type":"string"}],"name":"getDeliveryAddress","outputs":[{"internalType":"string","name":"","type":"string"}],"stateMutability":"view","type":"function"},{"inputs":[{"internalType":"address","name":"sender","type":"address"}],"name":"getMyBidAuctions","outputs":[{"components":[{"internalType":"string","name":"itemId","type":"string"},{"internalType":"string","name":"itemName","type":"string"},{"internalType":"string","name":"itemDescription","type":"string"},{"internalType":"string","name":"hashOfImage","type":"string"},{"internalType":"address payable","name":"seller","type":"address"},{"internalType":"uint256","name":"reservePrice","type":"uint256"},{"internalType":"uint256","name":"highestBid","type":"uint256"},{"internalType":"address payable","name":"highestBidder","type":"address"},{"internalType":"uint256","name":"auctionEndTime","type":"uint256"},{"internalType":"bool","name":"ended","type":"bool"},{"internalType":"string","name":"deliveryAddress","type":"string"},{"internalType":"string[]","name":"privateChatLogs","type":"string[]"},{"internalType":"string[]","name":"committeeChatLogs","type":"string[]"},{"internalType":"enum Auction.EscrowState","name":"escrowState","type":"uint8"},{"internalType":"uint8","name":"yesVotes","type":"uint8"},{"internalType":"uint8","name":"noVotes","type":"uint8"}],"internalType":"struct Auction.AuctionItem[]","name":"","type":"tuple[]"}],"stateMutability":"view","type":"function"},{"inputs":[{"internalType":"address","name":"sender","type":"address"}],"name":"getMyOwnerAuctions","outputs":[{"components":[{"internalType":"string","name":"itemId","type":"string"},{"internalType":"string","name":"itemName","type":"string"},{"internalType":"string","name":"itemDescription","type":"string"},{"internalType":"string","name":"hashOfImage","type":"string"},{"internalType":"address payable","name":"seller","type":"address"},{"internalType":"uint256","name":"reservePrice","type":"uint256"},{"internalType":"uint256","name":"highestBid","type":"uint256"},{"internalType":"address payable","name":"highestBidder","type":"address"},{"internalType":"uint256","name":"auctionEndTime","type":"uint256"},{"internalType":"bool","name":"ended","type":"bool"},{"internalType":"string","name":"deliveryAddress","type":"string"},{"internalType":"string[]","name":"privateChatLogs","type":"string[]"},{"internalType":"string[]","name":"committeeChatLogs","type":"string[]"},{"internalType":"enum Auction.EscrowState","name":"escrowState","type":"uint8"},{"internalType":"uint8","name":"yesVotes","type":"uint8"},{"internalType":"uint8","name":"noVotes","type":"uint8"}],"internalType":"struct Auction.AuctionItem[]","name":"","type":"tuple[]"}],"stateMutability":"view","type":"function"},{"inputs":[{"internalType":"address","name":"adr","type":"address"}],"name":"getPubKey","outputs":[{"internalType":"string","name":"","type":"string"}],"stateMutability":"view","type":"function"},{"inputs":[],"name":"getTokensToStake","outputs":[{"internalType":"uint256","name":"","type":"uint256"}],"stateMutability":"view","type":"function"},{"inputs":[{"internalType":"address","name":"","type":"address"}],"name":"isCommitteeMember","outputs":[{"internalType":"bool","name":"","type":"bool"}],"stateMutability":"view","type":"function"},{"inputs":[],"name":"owner","outputs":[{"internalType":"address","name":"","type":"address"}],"stateMutability":"view","type":"function"},{"inputs":[{"internalType":"address","name":"","type":"address"},{"internalType":"uint256","name":"","type":"uint256"}],"name":"ownerAuctions","outputs":[{"internalType":"string","name":"","type":"string"}],"stateMutability":"view","type":"function"},{"inputs":[{"internalType":"string","name":"itemId","type":"string"},{"internalType":"uint256","name":"bidAmount","type":"uint256"}],"name":"placeBid","outputs":[],"stateMutability":"payable","type":"function"},{"inputs":[{"internalType":"address","name":"","type":"address"}],"name":"pubKeys","outputs":[{"internalType":"string","name":"","type":"string"}],"stateMutability":"view","type":"function"},{"inputs":[{"internalType":"string","name":"itemId","type":"string"}],"name":"raiseDispute","outputs":[],"stateMutability":"nonpayable","type":"function"},{"inputs":[],"name":"relinquishTokensToOwner","outputs":[],"stateMutability":"nonpayable","type":"function"},{"inputs":[],"name":"renounceOwnership","outputs":[],"stateMutability":"nonpayable","type":"function"},{"inputs":[{"internalType":"string","name":"itemId","type":"string"}],"name":"resolveDispute","outputs":[],"stateMutability":"payable","type":"function"},{"inputs":[{"internalType":"string","name":"itemId","type":"string"},{"internalType":"string","name":"message","type":"string"}],"name":"sendChat","outputs":[],"stateMutability":"nonpayable","type":"function"},{"inputs":[{"internalType":"string","name":"itemId","type":"string"},{"internalType":"string","name":"message","type":"string"}],"name":"sendCommitteeChat","outputs":[],"stateMutability":"nonpayable","type":"function"},{"inputs":[{"internalType":"uint64","name":"duration","type":"uint64"}],"name":"setAuctionDuration","outputs":[],"stateMutability":"nonpayable","type":"function"},{"inputs":[{"internalType":"uint8","name":"auctionCount","type":"uint8"}],"name":"setConcurrentAuctionsPerUser","outputs":[],"stateMutability":"nonpayable","type":"function"},{"inputs":[{"internalType":"string","name":"itemId","type":"string"},{"internalType":"string","name":"deliveryAddress","type":"string"}],"name":"setDeliveryAddress","outputs":[],"stateMutability":"nonpayable","type":"function"},{"inputs":[{"internalType":"string","name":"pubKey","type":"string"}],"name":"setPubKey","outputs":[],"stateMutability":"nonpayable","type":"function"},{"inputs":[{"internalType":"uint256","name":"amount","type":"uint256"}],"name":"setTokensToStake","outputs":[],"stateMutability":"nonpayable","type":"function"},{"inputs":[{"internalType":"uint256","name":"amount","type":"uint256"}],"name":"stakeTokens","outputs":[],"stateMutability":"nonpayable","type":"function"},{"inputs":[{"internalType":"address","name":"newOwner","type":"address"}],"name":"transferOwnership","outputs":[],"stateMutability":"nonpayable","type":"function"},{"inputs":[{"internalType":"string","name":"itemId","type":"string"},{"internalType":"enum Auction.EscrowState","name":"nextState","type":"uint8"}],"name":"transitionEscrowState","outputs":[],"stateMutability":"nonpayable","type":"function"},{"inputs":[{"internalType":"string","name":"itemId","type":"string"},{"internalType":"uint8","name":"vote","type":"uint8"}],"name":"voteOnDispute","outputs":[],"stateMutability":"nonpayable","type":"function"}],"devdoc":{"kind":"dev","methods":{"owner()":{"details":"Returns the address of the current owner."},"renounceOwnership()":{"details":"Leaves the contract without owner. It will not be possible to call `onlyOwner` functions. Can only be called by the current owner. NOTE: Renouncing ownership will leave the contract without an owner, thereby disabling any functionality that is only available to the owner."},"transferOwnership(address)":{"details":"Transfers ownership of the contract to a new account (`newOwner`). Can only be called by the current owner."}},"version":1},"evm":{"bytecode":{"linkReferences":{},"object":"6080346200014257601f6200432638819003918201601f19168301916001600160401b0383118484101762000147578084926020946040528339810103126200014257516001600160a01b039081811690819003620001425760008054336001600160a01b0319821681178355604051949293929091167f8be0079c531659141344cd1fd0a4f28419497f9722a3daafe3b4186f6b6457e08480a3681b1ae4d6e2ef50000060095567400000000000000f60a31b9062ffffff60e81b600a54161717600a557390f79bf6eb2c4f870365e785982e1f101e93b90681526004602052600160408083209260ff199383858254161790557315d34aaf54267db7d7c367839aaf71a00a2c6a6581528181208385825416179055739965507d1a55bcc2695c58ba16fb37d819b0a4dc815220918254161790556141c890816200015e8239f35b600080fd5b634e487b7160e01b600052604160045260246000fdfe608080604052600436101561001357600080fd5b60003560e01c908163016544aa14612ef85750806305f3b3f714612df257806307412e9c14612dab5780631f49c291146121ad5780633098662e1461211157806341290273146120a5578063676202fe146120375780636c9230db1461201c578063715018a614611fc3578063725a3b4b14611d825780637547c7a314611b2a57806378cb51af14611b005780637c812b3914611aa75780637f38d86514611a6257806383c27150146118a757806388624ab3146118835780638aaf2761146118625780638da5cb5b1461183b5780638f2238ba1461167d5780639211735b14611537578063955ab3371461143b5780639d6271a01461132e5780639f19360d14611116578063a4bdc06e14610fab578063a7eaa24114610b85578063bed34bba14610b2b578063c1d733db14610a0f578063cbd2bdfd1461088f578063ce2ba9bf14610820578063d1b8b4bf146101c1578063d31f371e146106a9578063d8bcd0c91461068b578063e636d84b1461064c578063ee54507b146104b5578063f1d273c314610329578063f2fde38b14610260578063fb346ea0146102185763fce9512a146101c157600080fd5b34610213576020366003190112610213576001600160a01b036101e261337f565b16600052600360205261020f6101fb6040600020613424565b604051918291602083526020830190613310565b0390f35b600080fd5b34610213576020366003190112610213576001600160a01b0361023961337f565b16600052600260205260408060002060ff6002825492015416825191825215156020820152f35b346102135760203660031901126102135761027961337f565b610281613729565b6001600160a01b038091169081156102d557600054826bffffffffffffffffffffffff60a01b821617600055167f8be0079c531659141344cd1fd0a4f28419497f9722a3daafe3b4186f6b6457e0600080a3005b60405162461bcd60e51b815260206004820152602660248201527f4f776e61626c653a206e6577206f776e657220697320746865207a65726f206160448201526564647265737360d01b6064820152608490fd5b3461021357602080600319360112610213576001600160a01b03908161034d61337f565b166000526006908181526103646040600020613ebd565b9161036f8351613f12565b9360005b84518110156104a7578061039361038d6104a29388613fd5565b51613703565b600d604051916103a2836133e7565b6103ab81613424565b83526103b960018201613424565b888401526103c960028201613424565b60408401526103da60038201613424565b6060840152856004820154166080840152600581015460a08401528681015460c08401528560078201541660e08401526008908181015461010085015260ff928184600981940154161515610120870152610437600a8201613424565b610140870152610449600b8201613ebd565b61016087015261045b600c8201613ebd565b610180870152015480926104758383166101a088016138ec565b1c166101c084015260101c166101e08201526104918289613fd5565b5261049c8188613fd5565b50613a52565b610373565b6040518061020f8882613533565b346102135760003660031901126102135760088054906104d482613f12565b916000916007918254935b8481106104f4576040518061020f8882613533565b8181101561063657610631908360005261052f817ff3f7a9fe364faab93b216da50a3214154f22a0a2b415b23a84c8169e8b636ee301613fe9565b6040519061053c826133e7565b61054581613424565b825261055360018201613424565b602083015261056460028201613424565b604083015261057560038201613424565b60608301526001600160a01b03806004830154166080840152600582015460a0840152600682015460c0840152878201541660e083015285810154610100830152600d60ff918260098201541615156101208501526105d6600a8201613424565b6101408501526105e8600b8201613ebd565b6101608501526105fa600c8201613ebd565b61018085015201546106128282166101a085016138ec565b8181881c166101c084015260101c166101e08201526104918289613fd5565b6104df565b634e487b7160e01b600052603260045260246000fd5b34610213576020366003190112610213576001600160a01b0361066d61337f565b166000526004602052602060ff604060002054166040519015158152f35b34610213576000366003190112610213576020600954604051908152f35b34610213576020366003190112610213576004356001600160401b038111610213576106d99036906004016136e5565b60405181818093516020819301916106f0926132ed565b81016001815203602001902061070581613424565b61071160018301613424565b9161071e60028201613424565b9061072b60038201613424565b6001600160a01b0390816004840154169160058401549060068501549060078601541690600886015492600987015460ff1694600a880161076b90613424565b97600d0154986040519b8c9b8c6101c08091528d0161078991613310565b8c810360208e015261079a91613310565b8b810360408d01526107ab91613310565b8a810360608c01526107bc91613310565b9560808a015260a089015260c088015260e087015261010086015215156101208501528381036101408501526107f191613310565b90610803610160840160ff8316613526565b8060081c60ff1661018084015260101c60ff166101a08301520390f35b6020366003190112610213576004356001600160401b0381116102135761084e61088d9136906004016132c0565b90610888610883610872604051858582376020818781016001815203019020613424565b61087d36868661369f565b9061413d565b613a03565b613b37565b005b3461021357600036600319011261021357600780546108ad81613f12565b9160005b8281106108c6576040518061020f8682613533565b610a0a90826000526108f9817fa66cc928b5edb82af9bd49922954155ab7b0942694bea4ce44661d9a8736c68801613fe9565b600d60405191610908836133e7565b61091181613424565b835261091f60018201613424565b602084015261093060028201613424565b604084015261094160038201613424565b60608401526001600160a01b03806004830154166080850152600582015460a0850152600682015460c0850152868201541660e08401526008908181015461010085015260ff9281846009819401541615156101208701526109a5600a8201613424565b6101408701526109b7600b8201613ebd565b6101608701526109c9600c8201613ebd565b610180870152015480926109e38383166101a088016138ec565b1c166101c084015260101c166101e08201526109ff8287613fd5565b5261049c8186613fd5565b6108b1565b34610213576020610a1f36613335565b92610a50610883610a456040979497518685823785818881016001815203019020613424565b61087d36878661369f565b826040519384928337810160018152030190209160ff60098401541680610ae3575b15610a8357600c61088d93016139d3565b60405162461bcd60e51b815260206004820152603260248201527f596f7520646f206e6f7420686176652070726976696c6567657320746f206368604482015271617420696e2074686973206469737075746560701b6064820152608490fd5b5033600052600460205260ff6040600020541680610a7257506001600160a01b03338160078601541614908115610b1b575b50610a72565b9050600484015416331484610b15565b34610213576040366003190112610213576001600160401b0360043581811161021357610b5c9036906004016136e5565b906024359081116102135760209161087d610b7b9236906004016136e5565b6040519015158152f35b6040366003190112610213576004356001600160401b03811161021357610bb09036906004016132c0565b90602490813592604051928183853781840194610bec610883610be1876001998a81526020998a9103019020613424565b61087d36878961369f565b3360005260038552610c0d602c610c076040600020546133ad565b14613861565b60405183858237858185810189815203019020906001600160a01b0390338260048501541614610f5d578060058401541015610f075760ff600984015416610ecf5760088301928354421015610e955760068101908154831115610e3957600a546040516323b872dd60e01b81523360048201523060248201526044810185905291908a90839060649082906000908a165af1918215610e1057600792610e1c575b500192888185541680610d9a575b5050505580546001600160a01b031916331790555490601e610cdf4284613a45565b1115610d47575b5050336000526006835260ff610d038560406000200183856138d3565b541615610d0c57005b6006610d3a9333600052818152610d28838560406000206139d3565b336000525283604060002001916138d3565b805460ff19169091179055005b610d514283613a45565b601e0390601e8211610d86575090610d689161383e565b60086040518385823785818581018981520301902001558480610ce6565b634e487b7160e01b60009081526011600452fd5b600a54845460405163a9059cbb60e01b81526001600160a01b039390931660048401526024830152909283916044918391600091165af18015610e1057610de3575b8881610cbd565b610e0290893d8b11610e09575b610dfa8183613403565b810190613781565b5089610ddc565b503d610df0565b6040513d6000823e3d90fd5b610e32908b3d8d11610e0957610dfa8183613403565b508b610caf565b60405162461bcd60e51b8152600481018a9052602f818801527f426964206d75737420626520686967686572207468616e20746865206375727260448201526e195b9d081a1a59da195cdd08189a59608a1b6064820152608490fd5b60405162461bcd60e51b81526004810189905260138187015272105d58dd1a5bdb881a185cc8195e1c1a5c9959606a1b6044820152606490fd5b60405162461bcd60e51b81526004810188905260118186015270105d58dd1a5bdb881a185cc8195b991959607a1b6044820152606490fd5b60405162461bcd60e51b8152600481018890526029818601527f426964206d75737420626520686967686572207468616e20746865207265736560448201526872766520707269636560b81b6064820152608490fd5b60405162461bcd60e51b8152600481018890526021818601527f4f776e65722063616e277420626964206f6e2074686569722061756374696f6e6044820152607360f81b6064820152608490fd5b3461021357600036600319011261021357336000526020600281526001604060002001546110ac576001600160a01b0360008282600a54163383526002825260446040842054604051948593849263095ea7b360e01b845230600485015260248401525af18015610e105760009284926110699261108f575b50600a54338086526002855260408087205490516323b872dd60e01b815230600482015260248101929092526044820152948593929091169183919082906064820190565b03925af18015610e105761107957005b8161088d92903d10610e0957610dfa8183613403565b6110a590843d8611610e0957610dfa8183613403565b5085611024565b6084906040519062461bcd60e51b82526004820152603660248201527f596f752063616e27742072656465656d20746f6b656e73207768696c65206f6e60448201527f676f696e672061756374696f6e732070657273697374000000000000000000006064820152fd5b34610213576040366003190112610213576001600160401b03600435818111610213576111479036906004016132c0565b91602435818111610213576111609036906004016136e5565b9260405190808483378082019361118b61088361087285600198898152602097889103019020613424565b6001600160a01b0360076040518484823785818681018a81520301902001541633148061130e575b156112a3579082600a928260405193849283378101878152030190200193805192831161128d576111ee836111e887546133ad565b876137f9565b81601f841160011461122a575092829391839260009461121f575b50501b916000199060031b1c1916179055600080f35b015192508580611209565b919083601f1981168760005284600020946000905b88838310611273575050501061125a575b505050811b019055005b015160001960f88460031b161c19169055838080611250565b85870151885590960195948501948793509081019061123f565b634e487b7160e01b600052604160045260246000fd5b60405162461bcd60e51b815260048101849052603460248201527f596f7520686176656e277420776f6e207468652061756374696f6e206f72206960448201527f7473207374696c6c20696e2070726f67726573730000000000000000000000006064820152608490fd5b5060ff60096040518484823785818681018a8152030190200154166111b3565b3461021357602080600319360112610213576001600160a01b03908161135261337f565b166000526005908181526113696040600020613ebd565b916113748351613f12565b9360005b84518110156104a7578061139261038d6114369388613fd5565b600d604051916113a1836133e7565b6113aa81613424565b83526113b860018201613424565b888401526113c860028201613424565b60408401526113d960038201613424565b60608401528560048201541660808401528681015460a0840152600681015460c08401528560078201541660e08401526008908181015461010085015260ff928184600981940154161515610120870152610437600a8201613424565b611378565b34610213576020366003190112610213576004356001600160401b0381116102135760206114706115049236906004016132c0565b9190611494610883610a456040518685823785818881016001815203019020613424565b826040519384928337810160018152030190206001600160a01b03806004830154169060058301549060068401549060078501541660088501549160ff600987015416936115126114f060016114e98a613424565b9901613424565b604051998a99610100808c528b0190613310565b9089820360208b0152613310565b9560408801526060870152608086015260a085015260c0840152151560e08301520390f35b34610213576040366003190112610213576004356001600160401b038111610213576115679036906004016132c0565b906024359160ff8316809303610213576115a561088361159a604051848682376020818681016001815203019020613424565b61087d36858761369f565b3360005260046020526115bf60ff60406000205416614075565b60ff600d6040518385823760208185810160018152030190200154166007811015611667576001926115f56004602093146140d4565b826040519384928337810184815203019020910361163957600d61088d910161162460ff825460081c1661412c565b61ff0082549160081b169061ff001916179055565b600d61088d910161165060ff825460101c1661412c565b62ff000082549160101b169062ff00001916179055565b634e487b7160e01b600052602160045260246000fd5b602080600319360112610213576004356001600160401b038111610213576116a99036906004016132c0565b906116cc6108836108726040518585823786818781016001815203019020613424565b60ff600d6040518484823785818681016001815203019020015416906007821015611667576116fe60048593146140d4565b336000526004825261171760ff60406000205416614075565b8260405193849283378101600181520301902090600d82019181835460ff808260101c169160081c1610156000146117c257600a5460048381015460069094015460405163a9059cbb60e01b81526001600160a01b039586169281019290925260248201529283916044918391600091165af18015610e10576117a4575b5050805460ff19166005179055005b816117ba92903d10610e0957610dfa8183613403565b508180611795565b600a54600783015460069093015460405163a9059cbb60e01b81526001600160a01b03948516600482015260248101919091529283916044918391600091165af18015610e105761181d575b5050805460ff19166006179055005b8161183392903d10610e0957610dfa8183613403565b50818061180e565b346102135760003660031901126102135760206001600160a01b0360005416604051908152f35b346102135760203660031901126102135761187b613729565b600435600955005b3461021357600036600319011261021357602060ff600a5460e01c16604051908152f35b3461021357602080600319360112610213576004356001600160401b038111610213576118d9829136906004016132c0565b91906118fd610883610a456040518685823785818881016001815203019020613424565b82604051938492833781016001815203019020611a3460405161191f816133e7565b61192883613424565b815261193660018401613424565b8482015261194660028401613424565b604082015261195760038401613424565b60608201526001600160a01b0390816004850154169160808201928352600585015460a0830152600685015460c0830152808060078701541660e08401908152600887015461010085015260ff60098801541693610120810194151585526119c1600a8901613424565b6101408201526101e060ff600d6119da600b8c01613ebd565b9a61016085019b8c526119ef600c8201613ebd565b6101808601520154611a078282166101a086016138ec565b818160081c166101c085015260101c1691015251163314928315611a55575b505081611a4a575b50613e22565b519061020f6040519282849384528301906134ca565b905051151584611a2e565b5116331491508580611a26565b346102135760203660031901126102135760043560ff8116810361021357611a88613729565b600a805460ff60e01b191660e09290921b60ff60e01b16919091179055005b34610213576020366003190112610213576004356001600160401b038116810361021357611ad3613729565b600a805467ffffffffffffffff60a01b191660a09290921b67ffffffffffffffff60a01b16919091179055005b346102135760003660031901126102135760206001600160401b03600a5460a01c16604051908152f35b346102135760208060031936011261021357600a546040516323b872dd60e01b815233600480830191909152306024830152356044820181905292918290829060649082906000906001600160a01b03165af18015610e1057611d65575b50336000526002815260ff60026040600020015416600014611bc0576002903360005252611bbc604060002091825461383e565b9055005b60405190916001600160401b0390606083018281118482101761128d5760405282528282016060815260408301936001918286523360005260028252604060002094518555828501905191825192600160401b841161128d5781908354858555808610611d2e575b500191600052806000206000925b848410611c605750505050505050600261088d9251151591019060ff801983541691151516179055565b805190815188811161128d57879181611c848793611c7e88546133ad565b886137f9565b8294601f8211600114611cc85784958291600092611cbd575b5050600019600383901b1c191690841b1785555b01920193019290611c36565b015190508e80611c9d565b94601f1982169087600052846000209160005b818110611d175750908697848895949310611cfe575b505050811b018555611cb1565b015160001960f88460031b161c191690558e8080611cf1565b8289015184558d978b979401939283019201611cdb565b8460005286868460002092830192015b828110611d4c575050611c28565b9091929350611d5a816137b0565b019086849392611d3e565b611d7b90823d8411610e0957610dfa8183613403565b5082611b88565b3461021357602080600319360112610213576004356001600160401b03811161021357611db39036906004016132c0565b9091611de2610883611dd76040518587823784818781016001815203019020613424565b61087d36868861369f565b604051828482378181848101600181520301902090600d82019182549160ff831660078110156116675760038114611f73576000600582141580611f65575b15611f165761166757600414611ed3575090611e5f6004926001600160a01b0390816007820154163314918215611ec4575b5081611eb55750613e22565b60ff191617905560085491600160401b83101561128d5760018301806008558310156106365761088d9260086000527ff3f7a9fe364faab93b216da50a3214154f22a0a2b415b23a84c8169e8b636ee301613910565b60ff9150600901541687611a2e565b81860154163314915088611e53565b6064906040519062461bcd60e51b825280600483015260248201527f546865726520697320616c7265616479206120726973656e20646973707574656044820152fd5b60405162461bcd60e51b815260048101849052602160248201527f446973707574652068617320616c7265616479206265656e207265736f6c76656044820152601960fa1b6064820152608490fd5b505060006006821415611e21565b60405162461bcd60e51b815260048101839052602260248201527f41756374696f6e20686173206265656e20616c72656164792066696e616c697a604482015261195960f21b6064820152608490fd5b3461021357600036600319011261021357611fdc613729565b600080546001600160a01b0319811682556001600160a01b03167f8be0079c531659141344cd1fd0a4f28419497f9722a3daafe3b4186f6b6457e08280a3005b34610213576000366003190112610213576020604051428152f35b34610213576020366003190112610213576001600160a01b0361205861337f565b1660005260026020526040600020805461207c600160ff6002850154169301613ebd565b9161209960405193849384526060602085015260608401906134ca565b90151560408301520390f35b34610213576040366003190112610213576120be61337f565b6001600160a01b03602435911660005260056020526040600020908154811015610213576120eb91613395565b6120fb576101fb61020f91613424565b634e487b7160e01b600052600060045260246000fd5b346102135761088d600b602061212636613335565b949261214d610883610a456040979497518685823785818881016001815203019020613424565b826040519384928337810160018152030190206001600160a01b0380600783015416331490811561219d575b508061218f575b61218990613e22565b016139d3565b50600981015460ff16612180565b9050600482015416331486612179565b346102135760a0366003190112610213576004356001600160401b038111610213576121dd9036906004016132c0565b906024356001600160401b038111610213576121fd9036906004016132c0565b90926044356001600160401b0381116102135761221e9036906004016132c0565b906064356001600160401b0381116102135761223e9036906004016132c0565b9033600052600260205260406000205460095411612d505733600052600260205260016040600020015491600a549260ff8460e01c161115612cfb57336000526003602052612296602c610c076040600020546133ad565b6122c2604051878a8237602081898101600181520301902061087d6122bc368a8d61369f565b91613424565b612cc05760843515612c6b5761231c6122ea6001600160401b036123289560a01c164261383e565b94604051966122f8886133e7565b612303368a8d61369f565b8852612310368b8e61369f565b6020890152369161369f565b6040860152369161369f565b606083015233608083015260843560a0830152600060c0830152600060e083015261010082015260006101208201526040518060208101106001600160401b0360208301111761128d5760208101604052600081526101408201526060610160820152606061018082015260006101a082015260006101c082015260006101e082015260405182858237602081848101600181520301902081518051906001600160401b03821161128d5781906123e9826123e386546133ad565b866137f9565b602090601f8311600114612bff57600092612bf4575b50508160011b916000199060031b1c19161781555b60208201518051906001600160401b03821161128d5781906124468261243d60018701546133ad565b600187016137f9565b602090601f8311600114612b8257600092612b77575b50508160011b916000199060031b1c19161760018201555b60408201518051906001600160401b03821161128d5781906124a68261249d60028701546133ad565b600287016137f9565b602090601f8311600114612b0557600092612afa575b50508160011b916000199060031b1c19161760028201555b60608201518051906001600160401b03821161128d578190612506826124fd60038701546133ad565b600387016137f9565b602090601f8311600114612a8857600092612a7d575b50508160011b916000199060031b1c19161760038201555b600481016001600160a01b039081608085015116906bffffffffffffffffffffffff60a01b918282541617905560a0840151600584015560c08401516006840155600783019160e0850151169082541617905561010082015160088201556125b26101208301511515600983019060ff801983541691151516179055565b6101408201518051906001600160401b03821161128d5781906125e5826125dc600a8701546133ad565b600a87016137f9565b602090601f8311600114612a0b57600092612a00575b50508160011b916000199060031b1c191617600a8201555b610160820151805190600160401b821161128d57600b83015482600b8501558083106129cd575b5060200190600b83016000526020600020916000905b8282106128f05750505050610180820151805190600160401b821161128d57600c83015482600c8501558083106128bd575b5060200190600c83016000526020600020916000905b8282106127e05750505050600d016101a0820151916007831015611667576101e060ff916126c96126fc95856138f8565b6101c0810151845461ff00191690841660081b61ff00161784550151825462ff00001916911660101b62ff000016179055565b336000526002602052612717818460016040600020016139d3565b60075490600160401b82101561128d576001820180600755821015610636578361278c827f580c79f80d4cb0e438a0d03f153c3dd27d464553dcc2fb869879bc42fd524c3b9660409560076000527fa66cc928b5edb82af9bd49922954155ab7b0942694bea4ce44661d9a8736c68801613910565b3360005260056020526127a38282856000206139d3565b81835192839283378101600081520390209382825193849260208452816020850152848401376000828201840152601f01601f19168101030190a2005b80518051906001600160401b03821161128d5761280182611c7e88546133ad565b602090601f831160011461284d579282600194936020938695600092612842575b5050600019600383901b1c191690841b1787555b01940191019092612698565b015190508f80612822565b908660005260206000209160005b601f19851681106128a5575083602093600196938796938794601f1981161061288c575b505050811b018755612836565b015160001960f88460031b161c191690558f808061287f565b9192602060018192868501518155019401920161285b565b600c84016000526020600020908382015b81830181106128de575050612682565b806128ea6001926137b0565b016128ce565b80518051906001600160401b03821161128d5761291182611c7e88546133ad565b602090601f831160011461295d579282600194936020938695600092612952575b5050600019600383901b1c191690841b1787555b01940191019092612650565b015190508f80612932565b908660005260206000209160005b601f19851681106129b5575083602093600196938796938794601f1981161061299c575b505050811b018755612946565b015160001960f88460031b161c191690558f808061298f565b9192602060018192868501518155019401920161296b565b600b84016000526020600020908382015b81830181106129ee57505061263a565b806129fa6001926137b0565b016129de565b0151905088806125fb565b9250600a84016000526020600020906000935b601f1984168510612a62576001945083601f19811610612a49575b505050811b01600a820155612613565b015160001960f88460031b161c19169055888080612a39565b81810151835560209485019460019093019290910190612a1e565b01519050888061251c565b9250600384016000526020600020906000935b601f1984168510612adf576001945083601f19811610612ac6575b505050811b016003820155612534565b015160001960f88460031b161c19169055888080612ab6565b81810151835560209485019460019093019290910190612a9b565b0151905088806124bc565b9250600284016000526020600020906000935b601f1984168510612b5c576001945083601f19811610612b43575b505050811b0160028201556124d4565b015160001960f88460031b161c19169055888080612b33565b81810151835560209485019460019093019290910190612b18565b01519050888061245c565b9250600184016000526020600020906000935b601f1984168510612bd9576001945083601f19811610612bc0575b505050811b016001820155612474565b015160001960f88460031b161c19169055888080612bb0565b81810151835560209485019460019093019290910190612b95565b0151905088806123ff565b9250836000526020600020906000935b601f1984168510612c50576001945083601f19811610612c37575b505050811b018155612414565b015160001960f88460031b161c19169055888080612c2a565b81810151835560209485019460019093019290910190612c0f565b60405162461bcd60e51b815260206004820152602760248201527f52657365727665207072696365206d7573742062652067726561746572207468604482015266616e207a65726f60c81b6064820152608490fd5b60405162461bcd60e51b81526020600482015260136024820152724974656d20616c72656164792065786973747360681b6044820152606490fd5b60405162461bcd60e51b815260206004820152602760248201527f596f752063616e2774206861766520616e79206d6f7265206163746976652061604482015266756374696f6e7360c81b6064820152608490fd5b60405162461bcd60e51b815260206004820152602d60248201527f4e6f7420656e6f75676820746f6b656e73207374616b656420746f206372656160448201526c3a329030b71030bab1ba34b7b760991b6064820152608490fd5b34610213576020366003190112610213576004356001600160401b03811161021357612dde61088d9136906004016132c0565b903360005260036020526040600020613910565b3461021357602080600319360112610213576004356001600160401b03811161021357612e239036906004016132c0565b90612e466108836108726040518585823786818781016001815203019020613424565b6001600160a01b03600460405184848237858186810160018152030190200154163303612ea3578183600a92612e8e9460405193849283378101600181520301902001613424565b9061020f604051928284938452830190613310565b60405162461bcd60e51b815260048101849052602760248201527f4f6e6c792061756374696f6e206f776e65722063616e2063616c6c2074686973604482015266081b595d1a1bd960ca1b6064820152608490fd5b34610213576040366003190112610213576004356001600160401b03811161021357612f289036906004016132c0565b906024918235906007821015928361021357818187378186019060018252612f5f610883610a45896020809b819703019020613424565b826040519384928337810160018152030190209260ff6009850154161561327d57600d84019260ff845416936007851015948561313a5760048114613213576001600160a01b039586600789015416331491829182613204575b836131e2575b8315613176575b83156130f8575b505050156130b457612fe2600a8701546133ad565b156130645783612ff1916138f8565b6130505750600314612fff57005b600a5460048381015460069094015460405163a9059cbb60e01b81529484166001600160a01b03169185019190915260248401528391839116816000816044810103925af18015610e105761107957005b634e487b7160e01b60009081526021600452fd5b60405162461bcd60e51b8152600481018890526023818501527f506c656173652073657420612064656c697665727920616464726573732066696044820152621c9cdd60ea1b6064820152608490fd5b60405162461bcd60e51b8152600481018890526018818501527f496e76616c6964207374617465207472616e736974696f6e00000000000000006044820152606490fd5b90919250848361314f575b5082613114575b5050888080612fcd565b90915061313a576002811490811561312f575b50888061310a565b600591501488613127565b83634e487b7160e01b60005260216004526000fd5b90925061316157600386149184613103565b84634e487b7160e01b60005260216004526000fd5b9250848860048b015416331490816131d2575b508381613198575b5092612fc6565b90506131bd576001811480156131af575b83613191565b5060009250600581146131a9565b85634e487b7160e01b60005260216004526000fd5b90506131bd576002871485613189565b5060009250801580156131f6575b92612fbf565b5060009250600581146131f0565b60009550600188149350612fb9565b60405162461bcd60e51b8152600481018990526037818601527f43616e7420726573756d6520657363726f772070726f6365737365732077697460448201527f686f75742064697370757465207265736f6c7574696f6e0000000000000000006064820152608490fd5b8460196064926040519262461bcd60e51b845260048401528201527f41756374696f6e20686173206e6f7420656e64656420796574000000000000006044820152fd5b9181601f84011215610213578235916001600160401b038311610213576020838186019501011161021357565b60005b8381106133005750506000910152565b81810151838201526020016132f0565b90602091613329815180928185528580860191016132ed565b601f01601f1916010190565b6040600319820112610213576001600160401b03916004358381116102135782613361916004016132c0565b939093926024359182116102135761337b916004016132c0565b9091565b600435906001600160a01b038216820361021357565b80548210156106365760005260206000200190600090565b90600182811c921680156133dd575b60208310146133c757565b634e487b7160e01b600052602260045260246000fd5b91607f16916133bc565b61020081019081106001600160401b0382111761128d57604052565b90601f801991011681019081106001600160401b0382111761128d57604052565b9060405191826000825492613438846133ad565b9081845260019485811690816000146134a75750600114613464575b505061346292500383613403565b565b9093915060005260209081600020936000915b81831061348f57505061346293508201013880613454565b85548884018501529485019487945091830191613477565b91505061346294506020925060ff191682840152151560051b8201013880613454565b908082519081815260208091019281808460051b8301019501936000915b8483106134f85750505050505090565b9091929394958480613516600193601f198682030187528a51613310565b98019301930191949392906134e8565b9060078210156116675752565b602080820190808352835180925260409283810182858560051b8401019601946000925b858410613568575050505050505090565b909192939495968580600192603f198582030187528a519061366061364c6136386135d86135c56135b56135a58851610200808a52890190613310565b898901518882038b8a0152613310565b878d0151878203888f0152613310565b6060808801519087830390880152613310565b6001600160a01b0360808181890151169087015260a0808801519087015260c0808801519087015260e090818801511690860152610100808701519086015261012080870151151590860152610140808701519086830390870152613310565b6101608086015190858303908601526134ca565b6101808085015190848303908501526134ca565b916136746101a08083015190840190613526565b60ff6101c0818184015116908401526101e08092015116910152990194019401929594939190613557565b9291926001600160401b03821161128d57604051916136c8601f8201601f191660200184613403565b829481845281830111610213578281602093846000960137010152565b9080601f83011215610213578160206137009335910161369f565b90565b602061371c9181604051938285809451938492016132ed565b8101600181520301902090565b6001600160a01b0360005416330361373d57565b606460405162461bcd60e51b815260206004820152602060248201527f4f776e61626c653a2063616c6c6572206973206e6f7420746865206f776e65726044820152fd5b90816020910312610213575180151581036102135790565b8181106137a4575050565b60008155600101613799565b6137ba81546133ad565b90816137c4575050565b81601f600093116001146137d6575055565b9080839182526137f5601f60208420940160051c840160018501613799565b5555565b9190601f811161380857505050565b613462926000526020600020906020601f840160051c83019310613834575b601f0160051c0190613799565b9091508190613827565b9190820180921161384b57565b634e487b7160e01b600052601160045260246000fd5b1561386857565b60405162461bcd60e51b815260206004820152603c60248201527f506c65617365207375626d697420796f7572206574682077616c6c657420707560448201527f626b6579206265666f7265207573696e67207468652073797374656d000000006064820152608490fd5b6020919283604051948593843782019081520301902090565b60078210156116675752565b9060078110156116675760ff80198354169116179055565b9092916001600160401b03811161128d576139358161392f84546133ad565b846137f9565b6000601f821160011461396f5781929394600092613964575b50508160011b916000199060031b1c1916179055565b01359050388061394e565b601f198216948382526020918281209281905b8882106139bb575050836001959697106139a1575b505050811b019055565b0135600019600384901b60f8161c19169055388080613997565b80600184968294958701358155019501920190613982565b9190918054600160401b81101561128d576139f391600182018155613395565b9290926120fb5761346292613910565b15613a0a57565b60405162461bcd60e51b8152602060048201526013602482015272125d195b48191bd95cc81b9bdd08195e1a5cdd606a1b6044820152606490fd5b9190820391821161384b57565b600019811461384b5760010190565b90808214613b3357613a7381546133ad565b906001600160401b03821161128d578190613a92826123e386546133ad565b600090601f8311600114613ac857600092613abd5750508160011b916000199060031b1c1916179055565b01549050388061394e565b81526020808220858352818320935090601f1985169083905b828210613b1a575050908460019594939210613b0157505050811b019055565b015460001960f88460031b161c19169055388080613997565b8495819295850154815560018091019601940190613ae1565b5050565b9160405192828185378284018460019182815260209687910301902091600983019485549660ff8816613dde5760088501544210613d9a576001600160a01b03966004978089880154163314908115613d8a575b5015613d205784809960ff999798991916179055600091338352600282528460408420019383995b613bcd575b50505050505050600691925001541561346257565b849897969854998a811015613d1657869798999a613bf8613bef36868661369f565b61087d8c613424565b613c0d5750613c0690613a52565b9996613bb3565b939495965091505060001991828101908111613d0357613c30613c389187613395565b509186613395565b613cf15790613c4691613a61565b83548015613cde570193613c5a8585613395565b919091613ccc576006979850613c7082546133ad565b9081613c8a575b5050505050558291388080808080613bb8565b8490601f808411600114613caa57505050509050555b3880808080613c77565b8493958395613cc594528520950160051c8501908501613799565b5555613ca0565b634e487b7160e01b8452838952602484fd5b634e487b7160e01b845260318952602484fd5b634e487b7160e01b8552848a52602485fd5b634e487b7160e01b855260118a52602485fd5b5086979850613bb8565b60405162461bcd60e51b8152808901839052603560248201527f4f6e6c79207468652073656c6c6572206f72206869676865737420626964646560448201527f722063616e20656e64207468652061756374696f6e00000000000000000000006064820152608490fd5b9050600787015416331438613b8b565b6064906040519062461bcd60e51b82526004820152601960248201527f41756374696f6e20686173206e6f742079657420656e646564000000000000006044820152fd5b6064906040519062461bcd60e51b82526004820152601960248201527f41756374696f6e2068617320616c726561647920656e646564000000000000006044820152fd5b15613e2957565b60405162461bcd60e51b815260206004820152604960248201527f41756374696f6e20686173206e6f7420656e646564207965742c206f7220796f60448201527f7520617265206e6f74207468652077696e6e6572206f72206f776e6572206f6660648201526820746865206974656d60b81b608482015260a490fd5b6001600160401b03811161128d5760051b60200190565b908154613ec981613ea6565b92613ed76040519485613403565b818452600090815260208082208186015b848410613ef6575050505050565b6001838192613f0485613424565b815201920193019290613ee8565b90613f1c82613ea6565b604090613f2b82519182613403565b8381528093613f3c601f1991613ea6565b019160005b838110613f4e5750505050565b6020908251613f5c816133e7565b6060808252839080828401528086840152808084015260006080840152600060a0840152600060c0840152600060e084015260006101008401526000610120840152806101408401528061016084015261018083015260006101a083015260006101c083015260006101e0830152828601015201613f41565b80518210156106365760209160051b010190565b60405190816000825492613ffc846133ad565b90600194858116908160001461405d5750600114614023575b505060209281520301902090565b60009081526020808220959350905b828110614049575050602093508201909238614015565b855487820152948301948694508101614032565b60ff1916855250508015150282019050602038614015565b1561407c57565b60405162461bcd60e51b815260206004820152602a60248201527f596f7520617265206e6f7420616e20617574686f72697a656420636f6d6d69746044820152693a32b29036b2b6b132b960b11b6064820152608490fd5b156140db57565b60405162461bcd60e51b815260206004820152602360248201527f546869732061756374696f6e20646f65736e277420686176652061206469737060448201526275746560e81b6064820152608490fd5b60ff1660ff811461384b5760010190565b906040519160209261416b84828161415e81830196878151938492016132ed565b8101038084520182613403565b5190209161418b60405191828161415e81830196878151938492016132ed565b519020149056fea264697066735822122042908e9e080d71bdbac0a8962ed86ea3e1c5c4dc38e162324b9d706f0b76da2a64736f6c63430008130033","opcodes":"PUSH1 0x80 CALLVALUE PUSH3 0x142 JUMPI PUSH1 0x1F PUSH3 0x4326 CODESIZE DUP2 SWAP1 SUB SWAP2 DUP3 ADD PUSH1 0x1F NOT AND DUP4 ADD SWAP2 PUSH1 0x1 PUSH1 0x1 PUSH1 0x40 SHL SUB DUP4 GT DUP5 DUP5 LT OR PUSH3 0x147 JUMPI DUP1 DUP5 SWAP3 PUSH1 0x20 SWAP5 PUSH1 0x40 MSTORE DUP4 CODECOPY DUP2 ADD SUB SLT PUSH3 0x142 JUMPI MLOAD PUSH1 0x1 PUSH1 0x1 PUSH1 0xA0 SHL SUB SWAP1 DUP2 DUP2 AND SWAP1 DUP2 SWAP1 SUB PUSH3 0x142 JUMPI PUSH1 0x0 DUP1 SLOAD CALLER PUSH1 0x1 PUSH1 0x1 PUSH1 0xA0 SHL SUB NOT DUP3 AND DUP2 OR DUP4 SSTORE PUSH1 0x40 MLOAD SWAP5 SWAP3 SWAP4 SWAP3 SWAP1 SWAP2 AND PUSH32 0x8BE0079C531659141344CD1FD0A4F28419497F9722A3DAAFE3B4186F6B6457E0 DUP5 DUP1 LOG3 PUSH9 0x1B1AE4D6E2EF500000 PUSH1 0x9 SSTORE PUSH8 0x400000000000000F PUSH1 0xA3 SHL SWAP1 PUSH3 0xFFFFFF PUSH1 0xE8 SHL PUSH1 0xA SLOAD AND OR OR PUSH1 0xA SSTORE PUSH20 0x90F79BF6EB2C4F870365E785982E1F101E93B906 DUP2 MSTORE PUSH1 0x4 PUSH1 0x20 MSTORE PUSH1 0x1 PUSH1 0x40 DUP1 DUP4 KECCAK256 SWAP3 PUSH1 0xFF NOT SWAP4 DUP4 DUP6 DUP3 SLOAD AND OR SWAP1 SSTORE PUSH20 0x15D34AAF54267DB7D7C367839AAF71A00A2C6A65 DUP2 MSTORE DUP2 DUP2 KECCAK256 DUP4 DUP6 DUP3 SLOAD AND OR SWAP1 SSTORE PUSH20 0x9965507D1A55BCC2695C58BA16FB37D819B0A4DC DUP2 MSTORE KECCAK256 SWAP2 DUP3 SLOAD AND OR SWAP1 SSTORE PUSH2 0x41C8 SWAP1 DUP2 PUSH3 0x15E DUP3 CODECOPY RETURN JUMPDEST PUSH1 0x0 DUP1 REVERT JUMPDEST PUSH4 0x4E487B71 PUSH1 0xE0 SHL PUSH1 0x0 MSTORE PUSH1 0x41 PUSH1 0x4 MSTORE PUSH1 0x24 PUSH1 0x0 REVERT INVALID PUSH1 0x80 DUP1 PUSH1 0x40 MSTORE PUSH1 0x4 CALLDATASIZE LT ISZERO PUSH2 0x13 JUMPI PUSH1 0x0 DUP1 REVERT JUMPDEST PUSH1 0x0 CALLDATALOAD PUSH1 0xE0 SHR SWAP1 DUP2 PUSH4 0x16544AA EQ PUSH2 0x2EF8 JUMPI POP DUP1 PUSH4 0x5F3B3F7 EQ PUSH2 0x2DF2 JUMPI DUP1 PUSH4 0x7412E9C EQ PUSH2 0x2DAB JUMPI DUP1 PUSH4 0x1F49C291 EQ PUSH2 0x21AD JUMPI DUP1 PUSH4 0x3098662E EQ PUSH2 0x2111 JUMPI DUP1 PUSH4 0x41290273 EQ PUSH2 0x20A5 JUMPI DUP1 PUSH4 0x676202FE EQ PUSH2 0x2037 JUMPI DUP1 PUSH4 0x6C9230DB EQ PUSH2 0x201C JUMPI DUP1 PUSH4 0x715018A6 EQ PUSH2 0x1FC3 JUMPI DUP1 PUSH4 0x725A3B4B EQ PUSH2 0x1D82 JUMPI DUP1 PUSH4 0x7547C7A3 EQ PUSH2 0x1B2A JUMPI DUP1 PUSH4 0x78CB51AF EQ PUSH2 0x1B00 JUMPI DUP1 PUSH4 0x7C812B39 EQ PUSH2 0x1AA7 JUMPI DUP1 PUSH4 0x7F38D865 EQ PUSH2 0x1A62 JUMPI DUP1 PUSH4 0x83C27150 EQ PUSH2 0x18A7 JUMPI DUP1 PUSH4 0x88624AB3 EQ PUSH2 0x1883 JUMPI DUP1 PUSH4 0x8AAF2761 EQ PUSH2 0x1862 JUMPI DUP1 PUSH4 0x8DA5CB5B EQ PUSH2 0x183B JUMPI DUP1 PUSH4 0x8F2238BA EQ PUSH2 0x167D JUMPI DUP1 PUSH4 0x9211735B EQ PUSH2 0x1537 JUMPI DUP1 PUSH4 0x955AB337 EQ PUSH2 0x143B JUMPI DUP1 PUSH4 0x9D6271A0 EQ PUSH2 0x132E JUMPI DUP1 PUSH4 0x9F19360D EQ PUSH2 0x1116 JUMPI DUP1 PUSH4 0xA4BDC06E EQ PUSH2 0xFAB JUMPI DUP1 PUSH4 0xA7EAA241 EQ PUSH2 0xB85 JUMPI DUP1 PUSH4 0xBED34BBA EQ PUSH2 0xB2B JUMPI DUP1 PUSH4 0xC1D733DB EQ PUSH2 0xA0F JUMPI DUP1 PUSH4 0xCBD2BDFD EQ PUSH2 0x88F JUMPI DUP1 PUSH4 0xCE2BA9BF EQ PUSH2 0x820 JUMPI DUP1 PUSH4 0xD1B8B4BF EQ PUSH2 0x1C1 JUMPI DUP1 PUSH4 0xD31F371E EQ PUSH2 0x6A9 JUMPI DUP1 PUSH4 0xD8BCD0C9 EQ PUSH2 0x68B JUMPI DUP1 PUSH4 0xE636D84B EQ PUSH2 0x64C JUMPI DUP1 PUSH4 0xEE54507B EQ PUSH2 0x4B5 JUMPI DUP1 PUSH4 0xF1D273C3 EQ PUSH2 0x329 JUMPI DUP1 PUSH4 0xF2FDE38B EQ PUSH2 0x260 JUMPI DUP1 PUSH4 0xFB346EA0 EQ PUSH2 0x218 JUMPI PUSH4 0xFCE9512A EQ PUSH2 0x1C1 JUMPI PUSH1 0x0 DUP1 REVERT JUMPDEST CALLVALUE PUSH2 0x213 JUMPI PUSH1 0x20 CALLDATASIZE PUSH1 0x3 NOT ADD SLT PUSH2 0x213 JUMPI PUSH1 0x1 PUSH1 0x1 PUSH1 0xA0 SHL SUB PUSH2 0x1E2 PUSH2 0x337F JUMP JUMPDEST AND PUSH1 0x0 MSTORE PUSH1 0x3 PUSH1 0x20 MSTORE PUSH2 0x20F PUSH2 0x1FB PUSH1 0x40 PUSH1 0x0 KECCAK256 PUSH2 0x3424 JUMP JUMPDEST PUSH1 0x40 MLOAD SWAP2 DUP3 SWAP2 PUSH1 0x20 DUP4 MSTORE PUSH1 0x20 DUP4 ADD SWAP1 PUSH2 0x3310 JUMP JUMPDEST SUB SWAP1 RETURN JUMPDEST PUSH1 0x0 DUP1 REVERT JUMPDEST CALLVALUE PUSH2 0x213 JUMPI PUSH1 0x20 CALLDATASIZE PUSH1 0x3 NOT ADD SLT PUSH2 0x213 JUMPI PUSH1 0x1 PUSH1 0x1 PUSH1 0xA0 SHL SUB PUSH2 0x239 PUSH2 0x337F JUMP JUMPDEST AND PUSH1 0x0 MSTORE PUSH1 0x2 PUSH1 0x20 MSTORE PUSH1 0x40 DUP1 PUSH1 0x0 KECCAK256 PUSH1 0xFF PUSH1 0x2 DUP3 SLOAD SWAP3 ADD SLOAD AND DUP3 MLOAD SWAP2 DUP3 MSTORE ISZERO ISZERO PUSH1 0x20 DUP3 ADD MSTORE RETURN JUMPDEST CALLVALUE PUSH2 0x213 JUMPI PUSH1 0x20 CALLDATASIZE PUSH1 0x3 NOT ADD SLT PUSH2 0x213 JUMPI PUSH2 0x279 PUSH2 0x337F JUMP JUMPDEST PUSH2 0x281 PUSH2 0x3729 JUMP JUMPDEST PUSH1 0x1 PUSH1 0x1 PUSH1 0xA0 SHL SUB DUP1 SWAP2 AND SWAP1 DUP2 ISZERO PUSH2 0x2D5 JUMPI PUSH1 0x0 SLOAD DUP3 PUSH12 0xFFFFFFFFFFFFFFFFFFFFFFFF PUSH1 0xA0 SHL DUP3 AND OR PUSH1 0x0 SSTORE AND PUSH32 0x8BE0079C531659141344CD1FD0A4F28419497F9722A3DAAFE3B4186F6B6457E0 PUSH1 0x0 DUP1 LOG3 STOP JUMPDEST PUSH1 0x40 MLOAD PUSH3 0x461BCD PUSH1 0xE5 SHL DUP2 MSTORE PUSH1 0x20 PUSH1 0x4 DUP3 ADD MSTORE PUSH1 0x26 PUSH1 0x24 DUP3 ADD MSTORE PUSH32 0x4F776E61626C653A206E6577206F776E657220697320746865207A65726F2061 PUSH1 0x44 DUP3 ADD MSTORE PUSH6 0x646472657373 PUSH1 0xD0 SHL PUSH1 0x64 DUP3 ADD MSTORE PUSH1 0x84 SWAP1 REVERT JUMPDEST CALLVALUE PUSH2 0x213 JUMPI PUSH1 0x20 DUP1 PUSH1 0x3 NOT CALLDATASIZE ADD SLT PUSH2 0x213 JUMPI PUSH1 0x1 PUSH1 0x1 PUSH1 0xA0 SHL SUB SWAP1 DUP2 PUSH2 0x34D PUSH2 0x337F JUMP JUMPDEST AND PUSH1 0x0 MSTORE PUSH1 0x6 SWAP1 DUP2 DUP2 MSTORE PUSH2 0x364 PUSH1 0x40 PUSH1 0x0 KECCAK256 PUSH2 0x3EBD JUMP JUMPDEST SWAP2 PUSH2 0x36F DUP4 MLOAD PUSH2 0x3F12 JUMP JUMPDEST SWAP4 PUSH1 0x0 JUMPDEST DUP5 MLOAD DUP2 LT ISZERO PUSH2 0x4A7 JUMPI DUP1 PUSH2 0x393 PUSH2 0x38D PUSH2 0x4A2 SWAP4 DUP9 PUSH2 0x3FD5 JUMP JUMPDEST MLOAD PUSH2 0x3703 JUMP JUMPDEST PUSH1 0xD PUSH1 0x40 MLOAD SWAP2 PUSH2 0x3A2 DUP4 PUSH2 0x33E7 JUMP JUMPDEST PUSH2 0x3AB DUP2 PUSH2 0x3424 JUMP JUMPDEST DUP4 MSTORE PUSH2 0x3B9 PUSH1 0x1 DUP3 ADD PUSH2 0x3424 JUMP JUMPDEST DUP9 DUP5 ADD MSTORE PUSH2 0x3C9 PUSH1 0x2 DUP3 ADD PUSH2 0x3424 JUMP JUMPDEST PUSH1 0x40 DUP5 ADD MSTORE PUSH2 0x3DA PUSH1 0x3 DUP3 ADD PUSH2 0x3424 JUMP JUMPDEST PUSH1 0x60 DUP5 ADD MSTORE DUP6 PUSH1 0x4 DUP3 ADD SLOAD AND PUSH1 0x80 DUP5 ADD MSTORE PUSH1 0x5 DUP2 ADD SLOAD PUSH1 0xA0 DUP5 ADD MSTORE DUP7 DUP2 ADD SLOAD PUSH1 0xC0 DUP5 ADD MSTORE DUP6 PUSH1 0x7 DUP3 ADD SLOAD AND PUSH1 0xE0 DUP5 ADD MSTORE PUSH1 0x8 SWAP1 DUP2 DUP2 ADD SLOAD PUSH2 0x100 DUP6 ADD MSTORE PUSH1 0xFF SWAP3 DUP2 DUP5 PUSH1 0x9 DUP2 SWAP5 ADD SLOAD AND ISZERO ISZERO PUSH2 0x120 DUP8 ADD MSTORE PUSH2 0x437 PUSH1 0xA DUP3 ADD PUSH2 0x3424 JUMP JUMPDEST PUSH2 0x140 DUP8 ADD MSTORE PUSH2 0x449 PUSH1 0xB DUP3 ADD PUSH2 0x3EBD JUMP JUMPDEST PUSH2 0x160 DUP8 ADD MSTORE PUSH2 0x45B PUSH1 0xC DUP3 ADD PUSH2 0x3EBD JUMP JUMPDEST PUSH2 0x180 DUP8 ADD MSTORE ADD SLOAD DUP1 SWAP3 PUSH2 0x475 DUP4 DUP4 AND PUSH2 0x1A0 DUP9 ADD PUSH2 0x38EC JUMP JUMPDEST SHR AND PUSH2 0x1C0 DUP5 ADD MSTORE PUSH1 0x10 SHR AND PUSH2 0x1E0 DUP3 ADD MSTORE PUSH2 0x491 DUP3 DUP10 PUSH2 0x3FD5 JUMP JUMPDEST MSTORE PUSH2 0x49C DUP2 DUP9 PUSH2 0x3FD5 JUMP JUMPDEST POP PUSH2 0x3A52 JUMP JUMPDEST PUSH2 0x373 JUMP JUMPDEST PUSH1 0x40 MLOAD DUP1 PUSH2 0x20F DUP9 DUP3 PUSH2 0x3533 JUMP JUMPDEST CALLVALUE PUSH2 0x213 JUMPI PUSH1 0x0 CALLDATASIZE PUSH1 0x3 NOT ADD SLT PUSH2 0x213 JUMPI PUSH1 0x8 DUP1 SLOAD SWAP1 PUSH2 0x4D4 DUP3 PUSH2 0x3F12 JUMP JUMPDEST SWAP2 PUSH1 0x0 SWAP2 PUSH1 0x7 SWAP2 DUP3 SLOAD SWAP4 JUMPDEST DUP5 DUP2 LT PUSH2 0x4F4 JUMPI PUSH1 0x40 MLOAD DUP1 PUSH2 0x20F DUP9 DUP3 PUSH2 0x3533 JUMP JUMPDEST DUP2 DUP2 LT ISZERO PUSH2 0x636 JUMPI PUSH2 0x631 SWAP1 DUP4 PUSH1 0x0 MSTORE PUSH2 0x52F DUP2 PUSH32 0xF3F7A9FE364FAAB93B216DA50A3214154F22A0A2B415B23A84C8169E8B636EE3 ADD PUSH2 0x3FE9 JUMP JUMPDEST PUSH1 0x40 MLOAD SWAP1 PUSH2 0x53C DUP3 PUSH2 0x33E7 JUMP JUMPDEST PUSH2 0x545 DUP2 PUSH2 0x3424 JUMP JUMPDEST DUP3 MSTORE PUSH2 0x553 PUSH1 0x1 DUP3 ADD PUSH2 0x3424 JUMP JUMPDEST PUSH1 0x20 DUP4 ADD MSTORE PUSH2 0x564 PUSH1 0x2 DUP3 ADD PUSH2 0x3424 JUMP JUMPDEST PUSH1 0x40 DUP4 ADD MSTORE PUSH2 0x575 PUSH1 0x3 DUP3 ADD PUSH2 0x3424 JUMP JUMPDEST PUSH1 0x60 DUP4 ADD MSTORE PUSH1 0x1 PUSH1 0x1 PUSH1 0xA0 SHL SUB DUP1 PUSH1 0x4 DUP4 ADD SLOAD AND PUSH1 0x80 DUP5 ADD MSTORE PUSH1 0x5 DUP3 ADD SLOAD PUSH1 0xA0 DUP5 ADD MSTORE PUSH1 0x6 DUP3 ADD SLOAD PUSH1 0xC0 DUP5 ADD MSTORE DUP8 DUP3 ADD SLOAD AND PUSH1 0xE0 DUP4 ADD MSTORE DUP6 DUP2 ADD SLOAD PUSH2 0x100 DUP4 ADD MSTORE PUSH1 0xD PUSH1 0xFF SWAP2 DUP3 PUSH1 0x9 DUP3 ADD SLOAD AND ISZERO ISZERO PUSH2 0x120 DUP6 ADD MSTORE PUSH2 0x5D6 PUSH1 0xA DUP3 ADD PUSH2 0x3424 JUMP JUMPDEST PUSH2 0x140 DUP6 ADD MSTORE PUSH2 0x5E8 PUSH1 0xB DUP3 ADD PUSH2 0x3EBD JUMP JUMPDEST PUSH2 0x160 DUP6 ADD MSTORE PUSH2 0x5FA PUSH1 0xC DUP3 ADD PUSH2 0x3EBD JUMP JUMPDEST PUSH2 0x180 DUP6 ADD MSTORE ADD SLOAD PUSH2 0x612 DUP3 DUP3 AND PUSH2 0x1A0 DUP6 ADD PUSH2 0x38EC JUMP JUMPDEST DUP2 DUP2 DUP9 SHR AND PUSH2 0x1C0 DUP5 ADD MSTORE PUSH1 0x10 SHR AND PUSH2 0x1E0 DUP3 ADD MSTORE PUSH2 0x491 DUP3 DUP10 PUSH2 0x3FD5 JUMP JUMPDEST PUSH2 0x4DF JUMP JUMPDEST PUSH4 0x4E487B71 PUSH1 0xE0 SHL PUSH1 0x0 MSTORE PUSH1 0x32 PUSH1 0x4 MSTORE PUSH1 0x24 PUSH1 0x0 REVERT JUMPDEST CALLVALUE PUSH2 0x213 JUMPI PUSH1 0x20 CALLDATASIZE PUSH1 0x3 NOT ADD SLT PUSH2 0x213 JUMPI PUSH1 0x1 PUSH1 0x1 PUSH1 0xA0 SHL SUB PUSH2 0x66D PUSH2 0x337F JUMP JUMPDEST AND PUSH1 0x0 MSTORE PUSH1 0x4 PUSH1 0x20 MSTORE PUSH1 0x20 PUSH1 0xFF PUSH1 0x40 PUSH1 0x0 KECCAK256 SLOAD AND PUSH1 0x40 MLOAD SWAP1 ISZERO ISZERO DUP2 MSTORE RETURN JUMPDEST CALLVALUE PUSH2 0x213 JUMPI PUSH1 0x0 CALLDATASIZE PUSH1 0x3 NOT ADD SLT PUSH2 0x213 JUMPI PUSH1 0x20 PUSH1 0x9 SLOAD PUSH1 0x40 MLOAD SWAP1 DUP2 MSTORE RETURN JUMPDEST CALLVALUE PUSH2 0x213 JUMPI PUSH1 0x20 CALLDATASIZE PUSH1 0x3 NOT ADD SLT PUSH2 0x213 JUMPI PUSH1 0x4 CALLDATALOAD PUSH1 0x1 PUSH1 0x1 PUSH1 0x40 SHL SUB DUP2 GT PUSH2 0x213 JUMPI PUSH2 0x6D9 SWAP1 CALLDATASIZE SWAP1 PUSH1 0x4 ADD PUSH2 0x36E5 JUMP JUMPDEST PUSH1 0x40 MLOAD DUP2 DUP2 DUP1 SWAP4 MLOAD PUSH1 0x20 DUP2 SWAP4 ADD SWAP2 PUSH2 0x6F0 SWAP3 PUSH2 0x32ED JUMP JUMPDEST DUP2 ADD PUSH1 0x1 DUP2 MSTORE SUB PUSH1 0x20 ADD SWAP1 KECCAK256 PUSH2 0x705 DUP2 PUSH2 0x3424 JUMP JUMPDEST PUSH2 0x711 PUSH1 0x1 DUP4 ADD PUSH2 0x3424 JUMP JUMPDEST SWAP2 PUSH2 0x71E PUSH1 0x2 DUP3 ADD PUSH2 0x3424 JUMP JUMPDEST SWAP1 PUSH2 0x72B PUSH1 0x3 DUP3 ADD PUSH2 0x3424 JUMP JUMPDEST PUSH1 0x1 PUSH1 0x1 PUSH1 0xA0 SHL SUB SWAP1 DUP2 PUSH1 0x4 DUP5 ADD SLOAD AND SWAP2 PUSH1 0x5 DUP5 ADD SLOAD SWAP1 PUSH1 0x6 DUP6 ADD SLOAD SWAP1 PUSH1 0x7 DUP7 ADD SLOAD AND SWAP1 PUSH1 0x8 DUP7 ADD SLOAD SWAP3 PUSH1 0x9 DUP8 ADD SLOAD PUSH1 0xFF AND SWAP5 PUSH1 0xA DUP9 ADD PUSH2 0x76B SWAP1 PUSH2 0x3424 JUMP JUMPDEST SWAP8 PUSH1 0xD ADD SLOAD SWAP9 PUSH1 0x40 MLOAD SWAP12 DUP13 SWAP12 DUP13 PUSH2 0x1C0 DUP1 SWAP2 MSTORE DUP14 ADD PUSH2 0x789 SWAP2 PUSH2 0x3310 JUMP JUMPDEST DUP13 DUP2 SUB PUSH1 0x20 DUP15 ADD MSTORE PUSH2 0x79A SWAP2 PUSH2 0x3310 JUMP JUMPDEST DUP12 DUP2 SUB PUSH1 0x40 DUP14 ADD MSTORE PUSH2 0x7AB SWAP2 PUSH2 0x3310 JUMP JUMPDEST DUP11 DUP2 SUB PUSH1 0x60 DUP13 ADD MSTORE PUSH2 0x7BC SWAP2 PUSH2 0x3310 JUMP JUMPDEST SWAP6 PUSH1 0x80 DUP11 ADD MSTORE PUSH1 0xA0 DUP10 ADD MSTORE PUSH1 0xC0 DUP9 ADD MSTORE PUSH1 0xE0 DUP8 ADD MSTORE PUSH2 0x100 DUP7 ADD MSTORE ISZERO ISZERO PUSH2 0x120 DUP6 ADD MSTORE DUP4 DUP2 SUB PUSH2 0x140 DUP6 ADD MSTORE PUSH2 0x7F1 SWAP2 PUSH2 0x3310 JUMP JUMPDEST SWAP1 PUSH2 0x803 PUSH2 0x160 DUP5 ADD PUSH1 0xFF DUP4 AND PUSH2 0x3526 JUMP JUMPDEST DUP1 PUSH1 0x8 SHR PUSH1 0xFF AND PUSH2 0x180 DUP5 ADD MSTORE PUSH1 0x10 SHR PUSH1 0xFF AND PUSH2 0x1A0 DUP4 ADD MSTORE SUB SWAP1 RETURN JUMPDEST PUSH1 0x20 CALLDATASIZE PUSH1 0x3 NOT ADD SLT PUSH2 0x213 JUMPI PUSH1 0x4 CALLDATALOAD PUSH1 0x1 PUSH1 0x1 PUSH1 0x40 SHL SUB DUP2 GT PUSH2 0x213 JUMPI PUSH2 0x84E PUSH2 0x88D SWAP2 CALLDATASIZE SWAP1 PUSH1 0x4 ADD PUSH2 0x32C0 JUMP JUMPDEST SWAP1 PUSH2 0x888 PUSH2 0x883 PUSH2 0x872 PUSH1 0x40 MLOAD DUP6 DUP6 DUP3 CALLDATACOPY PUSH1 0x20 DUP2 DUP8 DUP2 ADD PUSH1 0x1 DUP2 MSTORE SUB ADD SWAP1 KECCAK256 PUSH2 0x3424 JUMP JUMPDEST PUSH2 0x87D CALLDATASIZE DUP7 DUP7 PUSH2 0x369F JUMP JUMPDEST SWAP1 PUSH2 0x413D JUMP JUMPDEST PUSH2 0x3A03 JUMP JUMPDEST PUSH2 0x3B37 JUMP JUMPDEST STOP JUMPDEST CALLVALUE PUSH2 0x213 JUMPI PUSH1 0x0 CALLDATASIZE PUSH1 0x3 NOT ADD SLT PUSH2 0x213 JUMPI PUSH1 0x7 DUP1 SLOAD PUSH2 0x8AD DUP2 PUSH2 0x3F12 JUMP JUMPDEST SWAP2 PUSH1 0x0 JUMPDEST DUP3 DUP2 LT PUSH2 0x8C6 JUMPI PUSH1 0x40 MLOAD DUP1 PUSH2 0x20F DUP7 DUP3 PUSH2 0x3533 JUMP JUMPDEST PUSH2 0xA0A SWAP1 DUP3 PUSH1 0x0 MSTORE PUSH2 0x8F9 DUP2 PUSH32 0xA66CC928B5EDB82AF9BD49922954155AB7B0942694BEA4CE44661D9A8736C688 ADD PUSH2 0x3FE9 JUMP JUMPDEST PUSH1 0xD PUSH1 0x40 MLOAD SWAP2 PUSH2 0x908 DUP4 PUSH2 0x33E7 JUMP JUMPDEST PUSH2 0x911 DUP2 PUSH2 0x3424 JUMP JUMPDEST DUP4 MSTORE PUSH2 0x91F PUSH1 0x1 DUP3 ADD PUSH2 0x3424 JUMP JUMPDEST PUSH1 0x20 DUP5 ADD MSTORE PUSH2 0x930 PUSH1 0x2 DUP3 ADD PUSH2 0x3424 JUMP JUMPDEST PUSH1 0x40 DUP5 ADD MSTORE PUSH2 0x941 PUSH1 0x3 DUP3 ADD PUSH2 0x3424 JUMP JUMPDEST PUSH1 0x60 DUP5 ADD MSTORE PUSH1 0x1 PUSH1 0x1 PUSH1 0xA0 SHL SUB DUP1 PUSH1 0x4 DUP4 ADD SLOAD AND PUSH1 0x80 DUP6 ADD MSTORE PUSH1 0x5 DUP3 ADD SLOAD PUSH1 0xA0 DUP6 ADD MSTORE PUSH1 0x6 DUP3 ADD SLOAD PUSH1 0xC0 DUP6 ADD MSTORE DUP7 DUP3 ADD SLOAD AND PUSH1 0xE0 DUP5 ADD MSTORE PUSH1 0x8 SWAP1 DUP2 DUP2 ADD SLOAD PUSH2 0x100 DUP6 ADD MSTORE PUSH1 0xFF SWAP3 DUP2 DUP5 PUSH1 0x9 DUP2 SWAP5 ADD SLOAD AND ISZERO ISZERO PUSH2 0x120 DUP8 ADD MSTORE PUSH2 0x9A5 PUSH1 0xA DUP3 ADD PUSH2 0x3424 JUMP JUMPDEST PUSH2 0x140 DUP8 ADD MSTORE PUSH2 0x9B7 PUSH1 0xB DUP3 ADD PUSH2 0x3EBD JUMP JUMPDEST PUSH2 0x160 DUP8 ADD MSTORE PUSH2 0x9C9 PUSH1 0xC DUP3 ADD PUSH2 0x3EBD JUMP JUMPDEST PUSH2 0x180 DUP8 ADD MSTORE ADD SLOAD DUP1 SWAP3 PUSH2 0x9E3 DUP4 DUP4 AND PUSH2 0x1A0 DUP9 ADD PUSH2 0x38EC JUMP JUMPDEST SHR AND PUSH2 0x1C0 DUP5 ADD MSTORE PUSH1 0x10 SHR AND PUSH2 0x1E0 DUP3 ADD MSTORE PUSH2 0x9FF DUP3 DUP8 PUSH2 0x3FD5 JUMP JUMPDEST MSTORE PUSH2 0x49C DUP2 DUP7 PUSH2 0x3FD5 JUMP JUMPDEST PUSH2 0x8B1 JUMP JUMPDEST CALLVALUE PUSH2 0x213 JUMPI PUSH1 0x20 PUSH2 0xA1F CALLDATASIZE PUSH2 0x3335 JUMP JUMPDEST SWAP3 PUSH2 0xA50 PUSH2 0x883 PUSH2 0xA45 PUSH1 0x40 SWAP8 SWAP5 SWAP8 MLOAD DUP7 DUP6 DUP3 CALLDATACOPY DUP6 DUP2 DUP9 DUP2 ADD PUSH1 0x1 DUP2 MSTORE SUB ADD SWAP1 KECCAK256 PUSH2 0x3424 JUMP JUMPDEST PUSH2 0x87D CALLDATASIZE DUP8 DUP7 PUSH2 0x369F JUMP JUMPDEST DUP3 PUSH1 0x40 MLOAD SWAP4 DUP5 SWAP3 DUP4 CALLDATACOPY DUP2 ADD PUSH1 0x1 DUP2 MSTORE SUB ADD SWAP1 KECCAK256 SWAP2 PUSH1 0xFF PUSH1 0x9 DUP5 ADD SLOAD AND DUP1 PUSH2 0xAE3 JUMPI JUMPDEST ISZERO PUSH2 0xA83 JUMPI PUSH1 0xC PUSH2 0x88D SWAP4 ADD PUSH2 0x39D3 JUMP JUMPDEST PUSH1 0x40 MLOAD PUSH3 0x461BCD PUSH1 0xE5 SHL DUP2 MSTORE PUSH1 0x20 PUSH1 0x4 DUP3 ADD MSTORE PUSH1 0x32 PUSH1 0x24 DUP3 ADD MSTORE PUSH32 0x596F7520646F206E6F7420686176652070726976696C6567657320746F206368 PUSH1 0x44 DUP3 ADD MSTORE PUSH18 0x617420696E20746869732064697370757465 PUSH1 0x70 SHL PUSH1 0x64 DUP3 ADD MSTORE PUSH1 0x84 SWAP1 REVERT JUMPDEST POP CALLER PUSH1 0x0 MSTORE PUSH1 0x4 PUSH1 0x20 MSTORE PUSH1 0xFF PUSH1 0x40 PUSH1 0x0 KECCAK256 SLOAD AND DUP1 PUSH2 0xA72 JUMPI POP PUSH1 0x1 PUSH1 0x1 PUSH1 0xA0 SHL SUB CALLER DUP2 PUSH1 0x7 DUP7 ADD SLOAD AND EQ SWAP1 DUP2 ISZERO PUSH2 0xB1B JUMPI JUMPDEST POP PUSH2 0xA72 JUMP JUMPDEST SWAP1 POP PUSH1 0x4 DUP5 ADD SLOAD AND CALLER EQ DUP5 PUSH2 0xB15 JUMP JUMPDEST CALLVALUE PUSH2 0x213 JUMPI PUSH1 0x40 CALLDATASIZE PUSH1 0x3 NOT ADD SLT PUSH2 0x213 JUMPI PUSH1 0x1 PUSH1 0x1 PUSH1 0x40 SHL SUB PUSH1 0x4 CALLDATALOAD DUP2 DUP2 GT PUSH2 0x213 JUMPI PUSH2 0xB5C SWAP1 CALLDATASIZE SWAP1 PUSH1 0x4 ADD PUSH2 0x36E5 JUMP JUMPDEST SWAP1 PUSH1 0x24 CALLDATALOAD SWAP1 DUP2 GT PUSH2 0x213 JUMPI PUSH1 0x20 SWAP2 PUSH2 0x87D PUSH2 0xB7B SWAP3 CALLDATASIZE SWAP1 PUSH1 0x4 ADD PUSH2 0x36E5 JUMP JUMPDEST PUSH1 0x40 MLOAD SWAP1 ISZERO ISZERO DUP2 MSTORE RETURN JUMPDEST PUSH1 0x40 CALLDATASIZE PUSH1 0x3 NOT ADD SLT PUSH2 0x213 JUMPI PUSH1 0x4 CALLDATALOAD PUSH1 0x1 PUSH1 0x1 PUSH1 0x40 SHL SUB DUP2 GT PUSH2 0x213 JUMPI PUSH2 0xBB0 SWAP1 CALLDATASIZE SWAP1 PUSH1 0x4 ADD PUSH2 0x32C0 JUMP JUMPDEST SWAP1 PUSH1 0x24 SWAP1 DUP2 CALLDATALOAD SWAP3 PUSH1 0x40 MLOAD SWAP3 DUP2 DUP4 DUP6 CALLDATACOPY DUP2 DUP5 ADD SWAP5 PUSH2 0xBEC PUSH2 0x883 PUSH2 0xBE1 DUP8 PUSH1 0x1 SWAP10 DUP11 DUP2 MSTORE PUSH1 0x20 SWAP10 DUP11 SWAP2 SUB ADD SWAP1 KECCAK256 PUSH2 0x3424 JUMP JUMPDEST PUSH2 0x87D CALLDATASIZE DUP8 DUP10 PUSH2 0x369F JUMP JUMPDEST CALLER PUSH1 0x0 MSTORE PUSH1 0x3 DUP6 MSTORE PUSH2 0xC0D PUSH1 0x2C PUSH2 0xC07 PUSH1 0x40 PUSH1 0x0 KECCAK256 SLOAD PUSH2 0x33AD JUMP JUMPDEST EQ PUSH2 0x3861 JUMP JUMPDEST PUSH1 0x40 MLOAD DUP4 DUP6 DUP3 CALLDATACOPY DUP6 DUP2 DUP6 DUP2 ADD DUP10 DUP2 MSTORE SUB ADD SWAP1 KECCAK256 SWAP1 PUSH1 0x1 PUSH1 0x1 PUSH1 0xA0 SHL SUB SWAP1 CALLER DUP3 PUSH1 0x4 DUP6 ADD SLOAD AND EQ PUSH2 0xF5D JUMPI DUP1 PUSH1 0x5 DUP5 ADD SLOAD LT ISZERO PUSH2 0xF07 JUMPI PUSH1 0xFF PUSH1 0x9 DUP5 ADD SLOAD AND PUSH2 0xECF JUMPI PUSH1 0x8 DUP4 ADD SWAP3 DUP4 SLOAD TIMESTAMP LT ISZERO PUSH2 0xE95 JUMPI PUSH1 0x6 DUP2 ADD SWAP1 DUP2 SLOAD DUP4 GT ISZERO PUSH2 0xE39 JUMPI PUSH1 0xA SLOAD PUSH1 0x40 MLOAD PUSH4 0x23B872DD PUSH1 0xE0 SHL DUP2 MSTORE CALLER PUSH1 0x4 DUP3 ADD MSTORE ADDRESS PUSH1 0x24 DUP3 ADD MSTORE PUSH1 0x44 DUP2 ADD DUP6 SWAP1 MSTORE SWAP2 SWAP1 DUP11 SWAP1 DUP4 SWAP1 PUSH1 0x64 SWAP1 DUP3 SWAP1 PUSH1 0x0 SWAP1 DUP11 AND GAS CALL SWAP2 DUP3 ISZERO PUSH2 0xE10 JUMPI PUSH1 0x7 SWAP3 PUSH2 0xE1C JUMPI JUMPDEST POP ADD SWAP3 DUP9 DUP2 DUP6 SLOAD AND DUP1 PUSH2 0xD9A JUMPI JUMPDEST POP POP POP SSTORE DUP1 SLOAD PUSH1 0x1 PUSH1 0x1 PUSH1 0xA0 SHL SUB NOT AND CALLER OR SWAP1 SSTORE SLOAD SWAP1 PUSH1 0x1E PUSH2 0xCDF TIMESTAMP DUP5 PUSH2 0x3A45 JUMP JUMPDEST GT ISZERO PUSH2 0xD47 JUMPI JUMPDEST POP POP CALLER PUSH1 0x0 MSTORE PUSH1 0x6 DUP4 MSTORE PUSH1 0xFF PUSH2 0xD03 DUP6 PUSH1 0x40 PUSH1 0x0 KECCAK256 ADD DUP4 DUP6 PUSH2 0x38D3 JUMP JUMPDEST SLOAD AND ISZERO PUSH2 0xD0C JUMPI STOP JUMPDEST PUSH1 0x6 PUSH2 0xD3A SWAP4 CALLER PUSH1 0x0 MSTORE DUP2 DUP2 MSTORE PUSH2 0xD28 DUP4 DUP6 PUSH1 0x40 PUSH1 0x0 KECCAK256 PUSH2 0x39D3 JUMP JUMPDEST CALLER PUSH1 0x0 MSTORE MSTORE DUP4 PUSH1 0x40 PUSH1 0x0 KECCAK256 ADD SWAP2 PUSH2 0x38D3 JUMP JUMPDEST DUP1 SLOAD PUSH1 0xFF NOT AND SWAP1 SWAP2 OR SWAP1 SSTORE STOP JUMPDEST PUSH2 0xD51 TIMESTAMP DUP4 PUSH2 0x3A45 JUMP JUMPDEST PUSH1 0x1E SUB SWAP1 PUSH1 0x1E DUP3 GT PUSH2 0xD86 JUMPI POP SWAP1 PUSH2 0xD68 SWAP2 PUSH2 0x383E JUMP JUMPDEST PUSH1 0x8 PUSH1 0x40 MLOAD DUP4 DUP6 DUP3 CALLDATACOPY DUP6 DUP2 DUP6 DUP2 ADD DUP10 DUP2 MSTORE SUB ADD SWAP1 KECCAK256 ADD SSTORE DUP5 DUP1 PUSH2 0xCE6 JUMP JUMPDEST PUSH4 0x4E487B71 PUSH1 0xE0 SHL PUSH1 0x0 SWAP1 DUP2 MSTORE PUSH1 0x11 PUSH1 0x4 MSTORE REVERT JUMPDEST PUSH1 0xA SLOAD DUP5 SLOAD PUSH1 0x40 MLOAD PUSH4 0xA9059CBB PUSH1 0xE0 SHL DUP2 MSTORE PUSH1 0x1 PUSH1 0x1 PUSH1 0xA0 SHL SUB SWAP4 SWAP1 SWAP4 AND PUSH1 0x4 DUP5 ADD MSTORE PUSH1 0x24 DUP4 ADD MSTORE SWAP1 SWAP3 DUP4 SWAP2 PUSH1 0x44 SWAP2 DUP4 SWAP2 PUSH1 0x0 SWAP2 AND GAS CALL DUP1 ISZERO PUSH2 0xE10 JUMPI PUSH2 0xDE3 JUMPI JUMPDEST DUP9 DUP2 PUSH2 0xCBD JUMP JUMPDEST PUSH2 0xE02 SWAP1 DUP10 RETURNDATASIZE DUP12 GT PUSH2 0xE09 JUMPI JUMPDEST PUSH2 0xDFA DUP2 DUP4 PUSH2 0x3403 JUMP JUMPDEST DUP2 ADD SWAP1 PUSH2 0x3781 JUMP JUMPDEST POP DUP10 PUSH2 0xDDC JUMP JUMPDEST POP RETURNDATASIZE PUSH2 0xDF0 JUMP JUMPDEST PUSH1 0x40 MLOAD RETURNDATASIZE PUSH1 0x0 DUP3 RETURNDATACOPY RETURNDATASIZE SWAP1 REVERT JUMPDEST PUSH2 0xE32 SWAP1 DUP12 RETURNDATASIZE DUP14 GT PUSH2 0xE09 JUMPI PUSH2 0xDFA DUP2 DUP4 PUSH2 0x3403 JUMP JUMPDEST POP DUP12 PUSH2 0xCAF JUMP JUMPDEST PUSH1 0x40 MLOAD PUSH3 0x461BCD PUSH1 0xE5 SHL DUP2 MSTORE PUSH1 0x4 DUP2 ADD DUP11 SWAP1 MSTORE PUSH1 0x2F DUP2 DUP9 ADD MSTORE PUSH32 0x426964206D75737420626520686967686572207468616E207468652063757272 PUSH1 0x44 DUP3 ADD MSTORE PUSH15 0x195B9D081A1A59DA195CDD08189A59 PUSH1 0x8A SHL PUSH1 0x64 DUP3 ADD MSTORE PUSH1 0x84 SWAP1 REVERT JUMPDEST PUSH1 0x40 MLOAD PUSH3 0x461BCD PUSH1 0xE5 SHL DUP2 MSTORE PUSH1 0x4 DUP2 ADD DUP10 SWAP1 MSTORE PUSH1 0x13 DUP2 DUP8 ADD MSTORE PUSH19 0x105D58DD1A5BDB881A185CC8195E1C1A5C9959 PUSH1 0x6A SHL PUSH1 0x44 DUP3 ADD MSTORE PUSH1 0x64 SWAP1 REVERT JUMPDEST PUSH1 0x40 MLOAD PUSH3 0x461BCD PUSH1 0xE5 SHL DUP2 MSTORE PUSH1 0x4 DUP2 ADD DUP9 SWAP1 MSTORE PUSH1 0x11 DUP2 DUP7 ADD MSTORE PUSH17 0x105D58DD1A5BDB881A185CC8195B991959 PUSH1 0x7A SHL PUSH1 0x44 DUP3 ADD MSTORE PUSH1 0x64 SWAP1 REVERT JUMPDEST PUSH1 0x40 MLOAD PUSH3 0x461BCD PUSH1 0xE5 SHL DUP2 MSTORE PUSH1 0x4 DUP2 ADD DUP9 SWAP1 MSTORE PUSH1 0x29 DUP2 DUP7 ADD MSTORE PUSH32 0x426964206D75737420626520686967686572207468616E207468652072657365 PUSH1 0x44 DUP3 ADD MSTORE PUSH9 0x727665207072696365 PUSH1 0xB8 SHL PUSH1 0x64 DUP3 ADD MSTORE PUSH1 0x84 SWAP1 REVERT JUMPDEST PUSH1 0x40 MLOAD PUSH3 0x461BCD PUSH1 0xE5 SHL DUP2 MSTORE PUSH1 0x4 DUP2 ADD DUP9 SWAP1 MSTORE PUSH1 0x21 DUP2 DUP7 ADD MSTORE PUSH32 0x4F776E65722063616E277420626964206F6E2074686569722061756374696F6E PUSH1 0x44 DUP3 ADD MSTORE PUSH1 0x73 PUSH1 0xF8 SHL PUSH1 0x64 DUP3 ADD MSTORE PUSH1 0x84 SWAP1 REVERT JUMPDEST CALLVALUE PUSH2 0x213 JUMPI PUSH1 0x0 CALLDATASIZE PUSH1 0x3 NOT ADD SLT PUSH2 0x213 JUMPI CALLER PUSH1 0x0 MSTORE PUSH1 0x20 PUSH1 0x2 DUP2 MSTORE PUSH1 0x1 PUSH1 0x40 PUSH1 0x0 KECCAK256 ADD SLOAD PUSH2 0x10AC JUMPI PUSH1 0x1 PUSH1 0x1 PUSH1 0xA0 SHL SUB PUSH1 0x0 DUP3 DUP3 PUSH1 0xA SLOAD AND CALLER DUP4 MSTORE PUSH1 0x2 DUP3 MSTORE PUSH1 0x44 PUSH1 0x40 DUP5 KECCAK256 SLOAD PUSH1 0x40 MLOAD SWAP5 DUP6 SWAP4 DUP5 SWAP3 PUSH4 0x95EA7B3 PUSH1 0xE0 SHL DUP5 MSTORE ADDRESS PUSH1 0x4 DUP6 ADD MSTORE PUSH1 0x24 DUP5 ADD MSTORE GAS CALL DUP1 ISZERO PUSH2 0xE10 JUMPI PUSH1 0x0 SWAP3 DUP5 SWAP3 PUSH2 0x1069 SWAP3 PUSH2 0x108F JUMPI JUMPDEST POP PUSH1 0xA SLOAD CALLER DUP1 DUP7 MSTORE PUSH1 0x2 DUP6 MSTORE PUSH1 0x40 DUP1 DUP8 KECCAK256 SLOAD SWAP1 MLOAD PUSH4 0x23B872DD PUSH1 0xE0 SHL DUP2 MSTORE ADDRESS PUSH1 0x4 DUP3 ADD MSTORE PUSH1 0x24 DUP2 ADD SWAP3 SWAP1 SWAP3 MSTORE PUSH1 0x44 DUP3 ADD MSTORE SWAP5 DUP6 SWAP4 SWAP3 SWAP1 SWAP2 AND SWAP2 DUP4 SWAP2 SWAP1 DUP3 SWAP1 PUSH1 0x64 DUP3 ADD SWAP1 JUMP JUMPDEST SUB SWAP3 GAS CALL DUP1 ISZERO PUSH2 0xE10 JUMPI PUSH2 0x1079 JUMPI STOP JUMPDEST DUP2 PUSH2 0x88D SWAP3 SWAP1 RETURNDATASIZE LT PUSH2 0xE09 JUMPI PUSH2 0xDFA DUP2 DUP4 PUSH2 0x3403 JUMP JUMPDEST PUSH2 0x10A5 SWAP1 DUP5 RETURNDATASIZE DUP7 GT PUSH2 0xE09 JUMPI PUSH2 0xDFA DUP2 DUP4 PUSH2 0x3403 JUMP JUMPDEST POP DUP6 PUSH2 0x1024 JUMP JUMPDEST PUSH1 0x84 SWAP1 PUSH1 0x40 MLOAD SWAP1 PUSH3 0x461BCD PUSH1 0xE5 SHL DUP3 MSTORE PUSH1 0x4 DUP3 ADD MSTORE PUSH1 0x36 PUSH1 0x24 DUP3 ADD MSTORE PUSH32 0x596F752063616E27742072656465656D20746F6B656E73207768696C65206F6E PUSH1 0x44 DUP3 ADD MSTORE PUSH32 0x676F696E672061756374696F6E73207065727369737400000000000000000000 PUSH1 0x64 DUP3 ADD MSTORE REVERT JUMPDEST CALLVALUE PUSH2 0x213 JUMPI PUSH1 0x40 CALLDATASIZE PUSH1 0x3 NOT ADD SLT PUSH2 0x213 JUMPI PUSH1 0x1 PUSH1 0x1 PUSH1 0x40 SHL SUB PUSH1 0x4 CALLDATALOAD DUP2 DUP2 GT PUSH2 0x213 JUMPI PUSH2 0x1147 SWAP1 CALLDATASIZE SWAP1 PUSH1 0x4 ADD PUSH2 0x32C0 JUMP JUMPDEST SWAP2 PUSH1 0x24 CALLDATALOAD DUP2 DUP2 GT PUSH2 0x213 JUMPI PUSH2 0x1160 SWAP1 CALLDATASIZE SWAP1 PUSH1 0x4 ADD PUSH2 0x36E5 JUMP JUMPDEST SWAP3 PUSH1 0x40 MLOAD SWAP1 DUP1 DUP5 DUP4 CALLDATACOPY DUP1 DUP3 ADD SWAP4 PUSH2 0x118B PUSH2 0x883 PUSH2 0x872 DUP6 PUSH1 0x1 SWAP9 DUP10 DUP2 MSTORE PUSH1 0x20 SWAP8 DUP9 SWAP2 SUB ADD SWAP1 KECCAK256 PUSH2 0x3424 JUMP JUMPDEST PUSH1 0x1 PUSH1 0x1 PUSH1 0xA0 SHL SUB PUSH1 0x7 PUSH1 0x40 MLOAD DUP5 DUP5 DUP3 CALLDATACOPY DUP6 DUP2 DUP7 DUP2 ADD DUP11 DUP2 MSTORE SUB ADD SWAP1 KECCAK256 ADD SLOAD AND CALLER EQ DUP1 PUSH2 0x130E JUMPI JUMPDEST ISZERO PUSH2 0x12A3 JUMPI SWAP1 DUP3 PUSH1 0xA SWAP3 DUP3 PUSH1 0x40 MLOAD SWAP4 DUP5 SWAP3 DUP4 CALLDATACOPY DUP2 ADD DUP8 DUP2 MSTORE SUB ADD SWAP1 KECCAK256 ADD SWAP4 DUP1 MLOAD SWAP3 DUP4 GT PUSH2 0x128D JUMPI PUSH2 0x11EE DUP4 PUSH2 0x11E8 DUP8 SLOAD PUSH2 0x33AD JUMP JUMPDEST DUP8 PUSH2 0x37F9 JUMP JUMPDEST DUP2 PUSH1 0x1F DUP5 GT PUSH1 0x1 EQ PUSH2 0x122A JUMPI POP SWAP3 DUP3 SWAP4 SWAP2 DUP4 SWAP3 PUSH1 0x0 SWAP5 PUSH2 0x121F JUMPI JUMPDEST POP POP SHL SWAP2 PUSH1 0x0 NOT SWAP1 PUSH1 0x3 SHL SHR NOT AND OR SWAP1 SSTORE PUSH1 0x0 DUP1 RETURN JUMPDEST ADD MLOAD SWAP3 POP DUP6 DUP1 PUSH2 0x1209 JUMP JUMPDEST SWAP2 SWAP1 DUP4 PUSH1 0x1F NOT DUP2 AND DUP8 PUSH1 0x0 MSTORE DUP5 PUSH1 0x0 KECCAK256 SWAP5 PUSH1 0x0 SWAP1 JUMPDEST DUP9 DUP4 DUP4 LT PUSH2 0x1273 JUMPI POP POP POP LT PUSH2 0x125A JUMPI JUMPDEST POP POP POP DUP2 SHL ADD SWAP1 SSTORE STOP JUMPDEST ADD MLOAD PUSH1 0x0 NOT PUSH1 0xF8 DUP5 PUSH1 0x3 SHL AND SHR NOT AND SWAP1 SSTORE DUP4 DUP1 DUP1 PUSH2 0x1250 JUMP JUMPDEST DUP6 DUP8 ADD MLOAD DUP9 SSTORE SWAP1 SWAP7 ADD SWAP6 SWAP5 DUP6 ADD SWAP5 DUP8 SWAP4 POP SWAP1 DUP2 ADD SWAP1 PUSH2 0x123F JUMP JUMPDEST PUSH4 0x4E487B71 PUSH1 0xE0 SHL PUSH1 0x0 MSTORE PUSH1 0x41 PUSH1 0x4 MSTORE PUSH1 0x24 PUSH1 0x0 REVERT JUMPDEST PUSH1 0x40 MLOAD PUSH3 0x461BCD PUSH1 0xE5 SHL DUP2 MSTORE PUSH1 0x4 DUP2 ADD DUP5 SWAP1 MSTORE PUSH1 0x34 PUSH1 0x24 DUP3 ADD MSTORE PUSH32 0x596F7520686176656E277420776F6E207468652061756374696F6E206F722069 PUSH1 0x44 DUP3 ADD MSTORE PUSH32 0x7473207374696C6C20696E2070726F6772657373000000000000000000000000 PUSH1 0x64 DUP3 ADD MSTORE PUSH1 0x84 SWAP1 REVERT JUMPDEST POP PUSH1 0xFF PUSH1 0x9 PUSH1 0x40 MLOAD DUP5 DUP5 DUP3 CALLDATACOPY DUP6 DUP2 DUP7 DUP2 ADD DUP11 DUP2 MSTORE SUB ADD SWAP1 KECCAK256 ADD SLOAD AND PUSH2 0x11B3 JUMP JUMPDEST CALLVALUE PUSH2 0x213 JUMPI PUSH1 0x20 DUP1 PUSH1 0x3 NOT CALLDATASIZE ADD SLT PUSH2 0x213 JUMPI PUSH1 0x1 PUSH1 0x1 PUSH1 0xA0 SHL SUB SWAP1 DUP2 PUSH2 0x1352 PUSH2 0x337F JUMP JUMPDEST AND PUSH1 0x0 MSTORE PUSH1 0x5 SWAP1 DUP2 DUP2 MSTORE PUSH2 0x1369 PUSH1 0x40 PUSH1 0x0 KECCAK256 PUSH2 0x3EBD JUMP JUMPDEST SWAP2 PUSH2 0x1374 DUP4 MLOAD PUSH2 0x3F12 JUMP JUMPDEST SWAP4 PUSH1 0x0 JUMPDEST DUP5 MLOAD DUP2 LT ISZERO PUSH2 0x4A7 JUMPI DUP1 PUSH2 0x1392 PUSH2 0x38D PUSH2 0x1436 SWAP4 DUP9 PUSH2 0x3FD5 JUMP JUMPDEST PUSH1 0xD PUSH1 0x40 MLOAD SWAP2 PUSH2 0x13A1 DUP4 PUSH2 0x33E7 JUMP JUMPDEST PUSH2 0x13AA DUP2 PUSH2 0x3424 JUMP JUMPDEST DUP4 MSTORE PUSH2 0x13B8 PUSH1 0x1 DUP3 ADD PUSH2 0x3424 JUMP JUMPDEST DUP9 DUP5 ADD MSTORE PUSH2 0x13C8 PUSH1 0x2 DUP3 ADD PUSH2 0x3424 JUMP JUMPDEST PUSH1 0x40 DUP5 ADD MSTORE PUSH2 0x13D9 PUSH1 0x3 DUP3 ADD PUSH2 0x3424 JUMP JUMPDEST PUSH1 0x60 DUP5 ADD MSTORE DUP6 PUSH1 0x4 DUP3 ADD SLOAD AND PUSH1 0x80 DUP5 ADD MSTORE DUP7 DUP2 ADD SLOAD PUSH1 0xA0 DUP5 ADD MSTORE PUSH1 0x6 DUP2 ADD SLOAD PUSH1 0xC0 DUP5 ADD MSTORE DUP6 PUSH1 0x7 DUP3 ADD SLOAD AND PUSH1 0xE0 DUP5 ADD MSTORE PUSH1 0x8 SWAP1 DUP2 DUP2 ADD SLOAD PUSH2 0x100 DUP6 ADD MSTORE PUSH1 0xFF SWAP3 DUP2 DUP5 PUSH1 0x9 DUP2 SWAP5 ADD SLOAD AND ISZERO ISZERO PUSH2 0x120 DUP8 ADD MSTORE PUSH2 0x437 PUSH1 0xA DUP3 ADD PUSH2 0x3424 JUMP JUMPDEST PUSH2 0x1378 JUMP JUMPDEST CALLVALUE PUSH2 0x213 JUMPI PUSH1 0x20 CALLDATASIZE PUSH1 0x3 NOT ADD SLT PUSH2 0x213 JUMPI PUSH1 0x4 CALLDATALOAD PUSH1 0x1 PUSH1 0x1 PUSH1 0x40 SHL SUB DUP2 GT PUSH2 0x213 JUMPI PUSH1 0x20 PUSH2 0x1470 PUSH2 0x1504 SWAP3 CALLDATASIZE SWAP1 PUSH1 0x4 ADD PUSH2 0x32C0 JUMP JUMPDEST SWAP2 SWAP1 PUSH2 0x1494 PUSH2 0x883 PUSH2 0xA45 PUSH1 0x40 MLOAD DUP7 DUP6 DUP3 CALLDATACOPY DUP6 DUP2 DUP9 DUP2 ADD PUSH1 0x1 DUP2 MSTORE SUB ADD SWAP1 KECCAK256 PUSH2 0x3424 JUMP JUMPDEST DUP3 PUSH1 0x40 MLOAD SWAP4 DUP5 SWAP3 DUP4 CALLDATACOPY DUP2 ADD PUSH1 0x1 DUP2 MSTORE SUB ADD SWAP1 KECCAK256 PUSH1 0x1 PUSH1 0x1 PUSH1 0xA0 SHL SUB DUP1 PUSH1 0x4 DUP4 ADD SLOAD AND SWAP1 PUSH1 0x5 DUP4 ADD SLOAD SWAP1 PUSH1 0x6 DUP5 ADD SLOAD SWAP1 PUSH1 0x7 DUP6 ADD SLOAD AND PUSH1 0x8 DUP6 ADD SLOAD SWAP2 PUSH1 0xFF PUSH1 0x9 DUP8 ADD SLOAD AND SWAP4 PUSH2 0x1512 PUSH2 0x14F0 PUSH1 0x1 PUSH2 0x14E9 DUP11 PUSH2 0x3424 JUMP JUMPDEST SWAP10 ADD PUSH2 0x3424 JUMP JUMPDEST PUSH1 0x40 MLOAD SWAP10 DUP11 SWAP10 PUSH2 0x100 DUP1 DUP13 MSTORE DUP12 ADD SWAP1 PUSH2 0x3310 JUMP JUMPDEST SWAP1 DUP10 DUP3 SUB PUSH1 0x20 DUP12 ADD MSTORE PUSH2 0x3310 JUMP JUMPDEST SWAP6 PUSH1 0x40 DUP9 ADD MSTORE PUSH1 0x60 DUP8 ADD MSTORE PUSH1 0x80 DUP7 ADD MSTORE PUSH1 0xA0 DUP6 ADD MSTORE PUSH1 0xC0 DUP5 ADD MSTORE ISZERO ISZERO PUSH1 0xE0 DUP4 ADD MSTORE SUB SWAP1 RETURN JUMPDEST CALLVALUE PUSH2 0x213 JUMPI PUSH1 0x40 CALLDATASIZE PUSH1 0x3 NOT ADD SLT PUSH2 0x213 JUMPI PUSH1 0x4 CALLDATALOAD PUSH1 0x1 PUSH1 0x1 PUSH1 0x40 SHL SUB DUP2 GT PUSH2 0x213 JUMPI PUSH2 0x1567 SWAP1 CALLDATASIZE SWAP1 PUSH1 0x4 ADD PUSH2 0x32C0 JUMP JUMPDEST SWAP1 PUSH1 0x24 CALLDATALOAD SWAP2 PUSH1 0xFF DUP4 AND DUP1 SWAP4 SUB PUSH2 0x213 JUMPI PUSH2 0x15A5 PUSH2 0x883 PUSH2 0x159A PUSH1 0x40 MLOAD DUP5 DUP7 DUP3 CALLDATACOPY PUSH1 0x20 DUP2 DUP7 DUP2 ADD PUSH1 0x1 DUP2 MSTORE SUB ADD SWAP1 KECCAK256 PUSH2 0x3424 JUMP JUMPDEST PUSH2 0x87D CALLDATASIZE DUP6 DUP8 PUSH2 0x369F JUMP JUMPDEST CALLER PUSH1 0x0 MSTORE PUSH1 0x4 PUSH1 0x20 MSTORE PUSH2 0x15BF PUSH1 0xFF PUSH1 0x40 PUSH1 0x0 KECCAK256 SLOAD AND PUSH2 0x4075 JUMP JUMPDEST PUSH1 0xFF PUSH1 0xD PUSH1 0x40 MLOAD DUP4 DUP6 DUP3 CALLDATACOPY PUSH1 0x20 DUP2 DUP6 DUP2 ADD PUSH1 0x1 DUP2 MSTORE SUB ADD SWAP1 KECCAK256 ADD SLOAD AND PUSH1 0x7 DUP2 LT ISZERO PUSH2 0x1667 JUMPI PUSH1 0x1 SWAP3 PUSH2 0x15F5 PUSH1 0x4 PUSH1 0x20 SWAP4 EQ PUSH2 0x40D4 JUMP JUMPDEST DUP3 PUSH1 0x40 MLOAD SWAP4 DUP5 SWAP3 DUP4 CALLDATACOPY DUP2 ADD DUP5 DUP2 MSTORE SUB ADD SWAP1 KECCAK256 SWAP2 SUB PUSH2 0x1639 JUMPI PUSH1 0xD PUSH2 0x88D SWAP2 ADD PUSH2 0x1624 PUSH1 0xFF DUP3 SLOAD PUSH1 0x8 SHR AND PUSH2 0x412C JUMP JUMPDEST PUSH2 0xFF00 DUP3 SLOAD SWAP2 PUSH1 0x8 SHL AND SWAP1 PUSH2 0xFF00 NOT AND OR SWAP1 SSTORE JUMP JUMPDEST PUSH1 0xD PUSH2 0x88D SWAP2 ADD PUSH2 0x1650 PUSH1 0xFF DUP3 SLOAD PUSH1 0x10 SHR AND PUSH2 0x412C JUMP JUMPDEST PUSH3 0xFF0000 DUP3 SLOAD SWAP2 PUSH1 0x10 SHL AND SWAP1 PUSH3 0xFF0000 NOT AND OR SWAP1 SSTORE JUMP JUMPDEST PUSH4 0x4E487B71 PUSH1 0xE0 SHL PUSH1 0x0 MSTORE PUSH1 0x21 PUSH1 0x4 MSTORE PUSH1 0x24 PUSH1 0x0 REVERT JUMPDEST PUSH1 0x20 DUP1 PUSH1 0x3 NOT CALLDATASIZE ADD SLT PUSH2 0x213 JUMPI PUSH1 0x4 CALLDATALOAD PUSH1 0x1 PUSH1 0x1 PUSH1 0x40 SHL SUB DUP2 GT PUSH2 0x213 JUMPI PUSH2 0x16A9 SWAP1 CALLDATASIZE SWAP1 PUSH1 0x4 ADD PUSH2 0x32C0 JUMP JUMPDEST SWAP1 PUSH2 0x16CC PUSH2 0x883 PUSH2 0x872 PUSH1 0x40 MLOAD DUP6 DUP6 DUP3 CALLDATACOPY DUP7 DUP2 DUP8 DUP2 ADD PUSH1 0x1 DUP2 MSTORE SUB ADD SWAP1 KECCAK256 PUSH2 0x3424 JUMP JUMPDEST PUSH1 0xFF PUSH1 0xD PUSH1 0x40 MLOAD DUP5 DUP5 DUP3 CALLDATACOPY DUP6 DUP2 DUP7 DUP2 ADD PUSH1 0x1 DUP2 MSTORE SUB ADD SWAP1 KECCAK256 ADD SLOAD AND SWAP1 PUSH1 0x7 DUP3 LT ISZERO PUSH2 0x1667 JUMPI PUSH2 0x16FE PUSH1 0x4 DUP6 SWAP4 EQ PUSH2 0x40D4 JUMP JUMPDEST CALLER PUSH1 0x0 MSTORE PUSH1 0x4 DUP3 MSTORE PUSH2 0x1717 PUSH1 0xFF PUSH1 0x40 PUSH1 0x0 KECCAK256 SLOAD AND PUSH2 0x4075 JUMP JUMPDEST DUP3 PUSH1 0x40 MLOAD SWAP4 DUP5 SWAP3 DUP4 CALLDATACOPY DUP2 ADD PUSH1 0x1 DUP2 MSTORE SUB ADD SWAP1 KECCAK256 SWAP1 PUSH1 0xD DUP3 ADD SWAP2 DUP2 DUP4 SLOAD PUSH1 0xFF DUP1 DUP3 PUSH1 0x10 SHR AND SWAP2 PUSH1 0x8 SHR AND LT ISZERO PUSH1 0x0 EQ PUSH2 0x17C2 JUMPI PUSH1 0xA SLOAD PUSH1 0x4 DUP4 DUP2 ADD SLOAD PUSH1 0x6 SWAP1 SWAP5 ADD SLOAD PUSH1 0x40 MLOAD PUSH4 0xA9059CBB PUSH1 0xE0 SHL DUP2 MSTORE PUSH1 0x1 PUSH1 0x1 PUSH1 0xA0 SHL SUB SWAP6 DUP7 AND SWAP3 DUP2 ADD SWAP3 SWAP1 SWAP3 MSTORE PUSH1 0x24 DUP3 ADD MSTORE SWAP3 DUP4 SWAP2 PUSH1 0x44 SWAP2 DUP4 SWAP2 PUSH1 0x0 SWAP2 AND GAS CALL DUP1 ISZERO PUSH2 0xE10 JUMPI PUSH2 0x17A4 JUMPI JUMPDEST POP POP DUP1 SLOAD PUSH1 0xFF NOT AND PUSH1 0x5 OR SWAP1 SSTORE STOP JUMPDEST DUP2 PUSH2 0x17BA SWAP3 SWAP1 RETURNDATASIZE LT PUSH2 0xE09 JUMPI PUSH2 0xDFA DUP2 DUP4 PUSH2 0x3403 JUMP JUMPDEST POP DUP2 DUP1 PUSH2 0x1795 JUMP JUMPDEST PUSH1 0xA SLOAD PUSH1 0x7 DUP4 ADD SLOAD PUSH1 0x6 SWAP1 SWAP4 ADD SLOAD PUSH1 0x40 MLOAD PUSH4 0xA9059CBB PUSH1 0xE0 SHL DUP2 MSTORE PUSH1 0x1 PUSH1 0x1 PUSH1 0xA0 SHL SUB SWAP5 DUP6 AND PUSH1 0x4 DUP3 ADD MSTORE PUSH1 0x24 DUP2 ADD SWAP2 SWAP1 SWAP2 MSTORE SWAP3 DUP4 SWAP2 PUSH1 0x44 SWAP2 DUP4 SWAP2 PUSH1 0x0 SWAP2 AND GAS CALL DUP1 ISZERO PUSH2 0xE10 JUMPI PUSH2 0x181D JUMPI JUMPDEST POP POP DUP1 SLOAD PUSH1 0xFF NOT AND PUSH1 0x6 OR SWAP1 SSTORE STOP JUMPDEST DUP2 PUSH2 0x1833 SWAP3 SWAP1 RETURNDATASIZE LT PUSH2 0xE09 JUMPI PUSH2 0xDFA DUP2 DUP4 PUSH2 0x3403 JUMP JUMPDEST POP DUP2 DUP1 PUSH2 0x180E JUMP JUMPDEST CALLVALUE PUSH2 0x213 JUMPI PUSH1 0x0 CALLDATASIZE PUSH1 0x3 NOT ADD SLT PUSH2 0x213 JUMPI PUSH1 0x20 PUSH1 0x1 PUSH1 0x1 PUSH1 0xA0 SHL SUB PUSH1 0x0 SLOAD AND PUSH1 0x40 MLOAD SWAP1 DUP2 MSTORE RETURN JUMPDEST CALLVALUE PUSH2 0x213 JUMPI PUSH1 0x20 CALLDATASIZE PUSH1 0x3 NOT ADD SLT PUSH2 0x213 JUMPI PUSH2 0x187B PUSH2 0x3729 JUMP JUMPDEST PUSH1 0x4 CALLDATALOAD PUSH1 0x9 SSTORE STOP JUMPDEST CALLVALUE PUSH2 0x213 JUMPI PUSH1 0x0 CALLDATASIZE PUSH1 0x3 NOT ADD SLT PUSH2 0x213 JUMPI PUSH1 0x20 PUSH1 0xFF PUSH1 0xA SLOAD PUSH1 0xE0 SHR AND PUSH1 0x40 MLOAD SWAP1 DUP2 MSTORE RETURN JUMPDEST CALLVALUE PUSH2 0x213 JUMPI PUSH1 0x20 DUP1 PUSH1 0x3 NOT CALLDATASIZE ADD SLT PUSH2 0x213 JUMPI PUSH1 0x4 CALLDATALOAD PUSH1 0x1 PUSH1 0x1 PUSH1 0x40 SHL SUB DUP2 GT PUSH2 0x213 JUMPI PUSH2 0x18D9 DUP3 SWAP2 CALLDATASIZE SWAP1 PUSH1 0x4 ADD PUSH2 0x32C0 JUMP JUMPDEST SWAP2 SWAP1 PUSH2 0x18FD PUSH2 0x883 PUSH2 0xA45 PUSH1 0x40 MLOAD DUP7 DUP6 DUP3 CALLDATACOPY DUP6 DUP2 DUP9 DUP2 ADD PUSH1 0x1 DUP2 MSTORE SUB ADD SWAP1 KECCAK256 PUSH2 0x3424 JUMP JUMPDEST DUP3 PUSH1 0x40 MLOAD SWAP4 DUP5 SWAP3 DUP4 CALLDATACOPY DUP2 ADD PUSH1 0x1 DUP2 MSTORE SUB ADD SWAP1 KECCAK256 PUSH2 0x1A34 PUSH1 0x40 MLOAD PUSH2 0x191F DUP2 PUSH2 0x33E7 JUMP JUMPDEST PUSH2 0x1928 DUP4 PUSH2 0x3424 JUMP JUMPDEST DUP2 MSTORE PUSH2 0x1936 PUSH1 0x1 DUP5 ADD PUSH2 0x3424 JUMP JUMPDEST DUP5 DUP3 ADD MSTORE PUSH2 0x1946 PUSH1 0x2 DUP5 ADD PUSH2 0x3424 JUMP JUMPDEST PUSH1 0x40 DUP3 ADD MSTORE PUSH2 0x1957 PUSH1 0x3 DUP5 ADD PUSH2 0x3424 JUMP JUMPDEST PUSH1 0x60 DUP3 ADD MSTORE PUSH1 0x1 PUSH1 0x1 PUSH1 0xA0 SHL SUB SWAP1 DUP2 PUSH1 0x4 DUP6 ADD SLOAD AND SWAP2 PUSH1 0x80 DUP3 ADD SWAP3 DUP4 MSTORE PUSH1 0x5 DUP6 ADD SLOAD PUSH1 0xA0 DUP4 ADD MSTORE PUSH1 0x6 DUP6 ADD SLOAD PUSH1 0xC0 DUP4 ADD MSTORE DUP1 DUP1 PUSH1 0x7 DUP8 ADD SLOAD AND PUSH1 0xE0 DUP5 ADD SWAP1 DUP2 MSTORE PUSH1 0x8 DUP8 ADD SLOAD PUSH2 0x100 DUP6 ADD MSTORE PUSH1 0xFF PUSH1 0x9 DUP9 ADD SLOAD AND SWAP4 PUSH2 0x120 DUP2 ADD SWAP5 ISZERO ISZERO DUP6 MSTORE PUSH2 0x19C1 PUSH1 0xA DUP10 ADD PUSH2 0x3424 JUMP JUMPDEST PUSH2 0x140 DUP3 ADD MSTORE PUSH2 0x1E0 PUSH1 0xFF PUSH1 0xD PUSH2 0x19DA PUSH1 0xB DUP13 ADD PUSH2 0x3EBD JUMP JUMPDEST SWAP11 PUSH2 0x160 DUP6 ADD SWAP12 DUP13 MSTORE PUSH2 0x19EF PUSH1 0xC DUP3 ADD PUSH2 0x3EBD JUMP JUMPDEST PUSH2 0x180 DUP7 ADD MSTORE ADD SLOAD PUSH2 0x1A07 DUP3 DUP3 AND PUSH2 0x1A0 DUP7 ADD PUSH2 0x38EC JUMP JUMPDEST DUP2 DUP2 PUSH1 0x8 SHR AND PUSH2 0x1C0 DUP6 ADD MSTORE PUSH1 0x10 SHR AND SWAP2 ADD MSTORE MLOAD AND CALLER EQ SWAP3 DUP4 ISZERO PUSH2 0x1A55 JUMPI JUMPDEST POP POP DUP2 PUSH2 0x1A4A JUMPI JUMPDEST POP PUSH2 0x3E22 JUMP JUMPDEST MLOAD SWAP1 PUSH2 0x20F PUSH1 0x40 MLOAD SWAP3 DUP3 DUP5 SWAP4 DUP5 MSTORE DUP4 ADD SWAP1 PUSH2 0x34CA JUMP JUMPDEST SWAP1 POP MLOAD ISZERO ISZERO DUP5 PUSH2 0x1A2E JUMP JUMPDEST MLOAD AND CALLER EQ SWAP2 POP DUP6 DUP1 PUSH2 0x1A26 JUMP JUMPDEST CALLVALUE PUSH2 0x213 JUMPI PUSH1 0x20 CALLDATASIZE PUSH1 0x3 NOT ADD SLT PUSH2 0x213 JUMPI PUSH1 0x4 CALLDATALOAD PUSH1 0xFF DUP2 AND DUP2 SUB PUSH2 0x213 JUMPI PUSH2 0x1A88 PUSH2 0x3729 JUMP JUMPDEST PUSH1 0xA DUP1 SLOAD PUSH1 0xFF PUSH1 0xE0 SHL NOT AND PUSH1 0xE0 SWAP3 SWAP1 SWAP3 SHL PUSH1 0xFF PUSH1 0xE0 SHL AND SWAP2 SWAP1 SWAP2 OR SWAP1 SSTORE STOP JUMPDEST CALLVALUE PUSH2 0x213 JUMPI PUSH1 0x20 CALLDATASIZE PUSH1 0x3 NOT ADD SLT PUSH2 0x213 JUMPI PUSH1 0x4 CALLDATALOAD PUSH1 0x1 PUSH1 0x1 PUSH1 0x40 SHL SUB DUP2 AND DUP2 SUB PUSH2 0x213 JUMPI PUSH2 0x1AD3 PUSH2 0x3729 JUMP JUMPDEST PUSH1 0xA DUP1 SLOAD PUSH8 0xFFFFFFFFFFFFFFFF PUSH1 0xA0 SHL NOT AND PUSH1 0xA0 SWAP3 SWAP1 SWAP3 SHL PUSH8 0xFFFFFFFFFFFFFFFF PUSH1 0xA0 SHL AND SWAP2 SWAP1 SWAP2 OR SWAP1 SSTORE STOP JUMPDEST CALLVALUE PUSH2 0x213 JUMPI PUSH1 0x0 CALLDATASIZE PUSH1 0x3 NOT ADD SLT PUSH2 0x213 JUMPI PUSH1 0x20 PUSH1 0x1 PUSH1 0x1 PUSH1 0x40 SHL SUB PUSH1 0xA SLOAD PUSH1 0xA0 SHR AND PUSH1 0x40 MLOAD SWAP1 DUP2 MSTORE RETURN JUMPDEST CALLVALUE PUSH2 0x213 JUMPI PUSH1 0x20 DUP1 PUSH1 0x3 NOT CALLDATASIZE ADD SLT PUSH2 0x213 JUMPI PUSH1 0xA SLOAD PUSH1 0x40 MLOAD PUSH4 0x23B872DD PUSH1 0xE0 SHL DUP2 MSTORE CALLER PUSH1 0x4 DUP1 DUP4 ADD SWAP2 SWAP1 SWAP2 MSTORE ADDRESS PUSH1 0x24 DUP4 ADD MSTORE CALLDATALOAD PUSH1 0x44 DUP3 ADD DUP2 SWAP1 MSTORE SWAP3 SWAP2 DUP3 SWAP1 DUP3 SWAP1 PUSH1 0x64 SWAP1 DUP3 SWAP1 PUSH1 0x0 SWAP1 PUSH1 0x1 PUSH1 0x1 PUSH1 0xA0 SHL SUB AND GAS CALL DUP1 ISZERO PUSH2 0xE10 JUMPI PUSH2 0x1D65 JUMPI JUMPDEST POP CALLER PUSH1 0x0 MSTORE PUSH1 0x2 DUP2 MSTORE PUSH1 0xFF PUSH1 0x2 PUSH1 0x40 PUSH1 0x0 KECCAK256 ADD SLOAD AND PUSH1 0x0 EQ PUSH2 0x1BC0 JUMPI PUSH1 0x2 SWAP1 CALLER PUSH1 0x0 MSTORE MSTORE PUSH2 0x1BBC PUSH1 0x40 PUSH1 0x0 KECCAK256 SWAP2 DUP3 SLOAD PUSH2 0x383E JUMP JUMPDEST SWAP1 SSTORE STOP JUMPDEST PUSH1 0x40 MLOAD SWAP1 SWAP2 PUSH1 0x1 PUSH1 0x1 PUSH1 0x40 SHL SUB SWAP1 PUSH1 0x60 DUP4 ADD DUP3 DUP2 GT DUP5 DUP3 LT OR PUSH2 0x128D JUMPI PUSH1 0x40 MSTORE DUP3 MSTORE DUP3 DUP3 ADD PUSH1 0x60 DUP2 MSTORE PUSH1 0x40 DUP4 ADD SWAP4 PUSH1 0x1 SWAP2 DUP3 DUP7 MSTORE CALLER PUSH1 0x0 MSTORE PUSH1 0x2 DUP3 MSTORE PUSH1 0x40 PUSH1 0x0 KECCAK256 SWAP5 MLOAD DUP6 SSTORE DUP3 DUP6 ADD SWAP1 MLOAD SWAP2 DUP3 MLOAD SWAP3 PUSH1 0x1 PUSH1 0x40 SHL DUP5 GT PUSH2 0x128D JUMPI DUP2 SWAP1 DUP4 SLOAD DUP6 DUP6 SSTORE DUP1 DUP7 LT PUSH2 0x1D2E JUMPI JUMPDEST POP ADD SWAP2 PUSH1 0x0 MSTORE DUP1 PUSH1 0x0 KECCAK256 PUSH1 0x0 SWAP3 JUMPDEST DUP5 DUP5 LT PUSH2 0x1C60 JUMPI POP POP POP POP POP POP POP PUSH1 0x2 PUSH2 0x88D SWAP3 MLOAD ISZERO ISZERO SWAP2 ADD SWAP1 PUSH1 0xFF DUP1 NOT DUP4 SLOAD AND SWAP2 ISZERO ISZERO AND OR SWAP1 SSTORE JUMP JUMPDEST DUP1 MLOAD SWAP1 DUP2 MLOAD DUP9 DUP2 GT PUSH2 0x128D JUMPI DUP8 SWAP2 DUP2 PUSH2 0x1C84 DUP8 SWAP4 PUSH2 0x1C7E DUP9 SLOAD PUSH2 0x33AD JUMP JUMPDEST DUP9 PUSH2 0x37F9 JUMP JUMPDEST DUP3 SWAP5 PUSH1 0x1F DUP3 GT PUSH1 0x1 EQ PUSH2 0x1CC8 JUMPI DUP5 SWAP6 DUP3 SWAP2 PUSH1 0x0 SWAP3 PUSH2 0x1CBD JUMPI JUMPDEST POP POP PUSH1 0x0 NOT PUSH1 0x3 DUP4 SWAP1 SHL SHR NOT AND SWAP1 DUP5 SHL OR DUP6 SSTORE JUMPDEST ADD SWAP3 ADD SWAP4 ADD SWAP3 SWAP1 PUSH2 0x1C36 JUMP JUMPDEST ADD MLOAD SWAP1 POP DUP15 DUP1 PUSH2 0x1C9D JUMP JUMPDEST SWAP5 PUSH1 0x1F NOT DUP3 AND SWAP1 DUP8 PUSH1 0x0 MSTORE DUP5 PUSH1 0x0 KECCAK256 SWAP2 PUSH1 0x0 JUMPDEST DUP2 DUP2 LT PUSH2 0x1D17 JUMPI POP SWAP1 DUP7 SWAP8 DUP5 DUP9 SWAP6 SWAP5 SWAP4 LT PUSH2 0x1CFE JUMPI JUMPDEST POP POP POP DUP2 SHL ADD DUP6 SSTORE PUSH2 0x1CB1 JUMP JUMPDEST ADD MLOAD PUSH1 0x0 NOT PUSH1 0xF8 DUP5 PUSH1 0x3 SHL AND SHR NOT AND SWAP1 SSTORE DUP15 DUP1 DUP1 PUSH2 0x1CF1 JUMP JUMPDEST DUP3 DUP10 ADD MLOAD DUP5 SSTORE DUP14 SWAP8 DUP12 SWAP8 SWAP5 ADD SWAP4 SWAP3 DUP4 ADD SWAP3 ADD PUSH2 0x1CDB JUMP JUMPDEST DUP5 PUSH1 0x0 MSTORE DUP7 DUP7 DUP5 PUSH1 0x0 KECCAK256 SWAP3 DUP4 ADD SWAP3 ADD JUMPDEST DUP3 DUP2 LT PUSH2 0x1D4C JUMPI POP POP PUSH2 0x1C28 JUMP JUMPDEST SWAP1 SWAP2 SWAP3 SWAP4 POP PUSH2 0x1D5A DUP2 PUSH2 0x37B0 JUMP JUMPDEST ADD SWAP1 DUP7 DUP5 SWAP4 SWAP3 PUSH2 0x1D3E JUMP JUMPDEST PUSH2 0x1D7B SWAP1 DUP3 RETURNDATASIZE DUP5 GT PUSH2 0xE09 JUMPI PUSH2 0xDFA DUP2 DUP4 PUSH2 0x3403 JUMP JUMPDEST POP DUP3 PUSH2 0x1B88 JUMP JUMPDEST CALLVALUE PUSH2 0x213 JUMPI PUSH1 0x20 DUP1 PUSH1 0x3 NOT CALLDATASIZE ADD SLT PUSH2 0x213 JUMPI PUSH1 0x4 CALLDATALOAD PUSH1 0x1 PUSH1 0x1 PUSH1 0x40 SHL SUB DUP2 GT PUSH2 0x213 JUMPI PUSH2 0x1DB3 SWAP1 CALLDATASIZE SWAP1 PUSH1 0x4 ADD PUSH2 0x32C0 JUMP JUMPDEST SWAP1 SWAP2 PUSH2 0x1DE2 PUSH2 0x883 PUSH2 0x1DD7 PUSH1 0x40 MLOAD DUP6 DUP8 DUP3 CALLDATACOPY DUP5 DUP2 DUP8 DUP2 ADD PUSH1 0x1 DUP2 MSTORE SUB ADD SWAP1 KECCAK256 PUSH2 0x3424 JUMP JUMPDEST PUSH2 0x87D CALLDATASIZE DUP7 DUP9 PUSH2 0x369F JUMP JUMPDEST PUSH1 0x40 MLOAD DUP3 DUP5 DUP3 CALLDATACOPY DUP2 DUP2 DUP5 DUP2 ADD PUSH1 0x1 DUP2 MSTORE SUB ADD SWAP1 KECCAK256 SWAP1 PUSH1 0xD DUP3 ADD SWAP2 DUP3 SLOAD SWAP2 PUSH1 0xFF DUP4 AND PUSH1 0x7 DUP2 LT ISZERO PUSH2 0x1667 JUMPI PUSH1 0x3 DUP2 EQ PUSH2 0x1F73 JUMPI PUSH1 0x0 PUSH1 0x5 DUP3 EQ ISZERO DUP1 PUSH2 0x1F65 JUMPI JUMPDEST ISZERO PUSH2 0x1F16 JUMPI PUSH2 0x1667 JUMPI PUSH1 0x4 EQ PUSH2 0x1ED3 JUMPI POP SWAP1 PUSH2 0x1E5F PUSH1 0x4 SWAP3 PUSH1 0x1 PUSH1 0x1 PUSH1 0xA0 SHL SUB SWAP1 DUP2 PUSH1 0x7 DUP3 ADD SLOAD AND CALLER EQ SWAP2 DUP3 ISZERO PUSH2 0x1EC4 JUMPI JUMPDEST POP DUP2 PUSH2 0x1EB5 JUMPI POP PUSH2 0x3E22 JUMP JUMPDEST PUSH1 0xFF NOT AND OR SWAP1 SSTORE PUSH1 0x8 SLOAD SWAP2 PUSH1 0x1 PUSH1 0x40 SHL DUP4 LT ISZERO PUSH2 0x128D JUMPI PUSH1 0x1 DUP4 ADD DUP1 PUSH1 0x8 SSTORE DUP4 LT ISZERO PUSH2 0x636 JUMPI PUSH2 0x88D SWAP3 PUSH1 0x8 PUSH1 0x0 MSTORE PUSH32 0xF3F7A9FE364FAAB93B216DA50A3214154F22A0A2B415B23A84C8169E8B636EE3 ADD PUSH2 0x3910 JUMP JUMPDEST PUSH1 0xFF SWAP2 POP PUSH1 0x9 ADD SLOAD AND DUP8 PUSH2 0x1A2E JUMP JUMPDEST DUP2 DUP7 ADD SLOAD AND CALLER EQ SWAP2 POP DUP9 PUSH2 0x1E53 JUMP JUMPDEST PUSH1 0x64 SWAP1 PUSH1 0x40 MLOAD SWAP1 PUSH3 0x461BCD PUSH1 0xE5 SHL DUP3 MSTORE DUP1 PUSH1 0x4 DUP4 ADD MSTORE PUSH1 0x24 DUP3 ADD MSTORE PUSH32 0x546865726520697320616C7265616479206120726973656E2064697370757465 PUSH1 0x44 DUP3 ADD MSTORE REVERT JUMPDEST PUSH1 0x40 MLOAD PUSH3 0x461BCD PUSH1 0xE5 SHL DUP2 MSTORE PUSH1 0x4 DUP2 ADD DUP5 SWAP1 MSTORE PUSH1 0x21 PUSH1 0x24 DUP3 ADD MSTORE PUSH32 0x446973707574652068617320616C7265616479206265656E207265736F6C7665 PUSH1 0x44 DUP3 ADD MSTORE PUSH1 0x19 PUSH1 0xFA SHL PUSH1 0x64 DUP3 ADD MSTORE PUSH1 0x84 SWAP1 REVERT JUMPDEST POP POP PUSH1 0x0 PUSH1 0x6 DUP3 EQ ISZERO PUSH2 0x1E21 JUMP JUMPDEST PUSH1 0x40 MLOAD PUSH3 0x461BCD PUSH1 0xE5 SHL DUP2 MSTORE PUSH1 0x4 DUP2 ADD DUP4 SWAP1 MSTORE PUSH1 0x22 PUSH1 0x24 DUP3 ADD MSTORE PUSH32 0x41756374696F6E20686173206265656E20616C72656164792066696E616C697A PUSH1 0x44 DUP3 ADD MSTORE PUSH2 0x1959 PUSH1 0xF2 SHL PUSH1 0x64 DUP3 ADD MSTORE PUSH1 0x84 SWAP1 REVERT JUMPDEST CALLVALUE PUSH2 0x213 JUMPI PUSH1 0x0 CALLDATASIZE PUSH1 0x3 NOT ADD SLT PUSH2 0x213 JUMPI PUSH2 0x1FDC PUSH2 0x3729 JUMP JUMPDEST PUSH1 0x0 DUP1 SLOAD PUSH1 0x1 PUSH1 0x1 PUSH1 0xA0 SHL SUB NOT DUP2 AND DUP3 SSTORE PUSH1 0x1 PUSH1 0x1 PUSH1 0xA0 SHL SUB AND PUSH32 0x8BE0079C531659141344CD1FD0A4F28419497F9722A3DAAFE3B4186F6B6457E0 DUP3 DUP1 LOG3 STOP JUMPDEST CALLVALUE PUSH2 0x213 JUMPI PUSH1 0x0 CALLDATASIZE PUSH1 0x3 NOT ADD SLT PUSH2 0x213 JUMPI PUSH1 0x20 PUSH1 0x40 MLOAD TIMESTAMP DUP2 MSTORE RETURN JUMPDEST CALLVALUE PUSH2 0x213 JUMPI PUSH1 0x20 CALLDATASIZE PUSH1 0x3 NOT ADD SLT PUSH2 0x213 JUMPI PUSH1 0x1 PUSH1 0x1 PUSH1 0xA0 SHL SUB PUSH2 0x2058 PUSH2 0x337F JUMP JUMPDEST AND PUSH1 0x0 MSTORE PUSH1 0x2 PUSH1 0x20 MSTORE PUSH1 0x40 PUSH1 0x0 KECCAK256 DUP1 SLOAD PUSH2 0x207C PUSH1 0x1 PUSH1 0xFF PUSH1 0x2 DUP6 ADD SLOAD AND SWAP4 ADD PUSH2 0x3EBD JUMP JUMPDEST SWAP2 PUSH2 0x2099 PUSH1 0x40 MLOAD SWAP4 DUP5 SWAP4 DUP5 MSTORE PUSH1 0x60 PUSH1 0x20 DUP6 ADD MSTORE PUSH1 0x60 DUP5 ADD SWAP1 PUSH2 0x34CA JUMP JUMPDEST SWAP1 ISZERO ISZERO PUSH1 0x40 DUP4 ADD MSTORE SUB SWAP1 RETURN JUMPDEST CALLVALUE PUSH2 0x213 JUMPI PUSH1 0x40 CALLDATASIZE PUSH1 0x3 NOT ADD SLT PUSH2 0x213 JUMPI PUSH2 0x20BE PUSH2 0x337F JUMP JUMPDEST PUSH1 0x1 PUSH1 0x1 PUSH1 0xA0 SHL SUB PUSH1 0x24 CALLDATALOAD SWAP2 AND PUSH1 0x0 MSTORE PUSH1 0x5 PUSH1 0x20 MSTORE PUSH1 0x40 PUSH1 0x0 KECCAK256 SWAP1 DUP2 SLOAD DUP2 LT ISZERO PUSH2 0x213 JUMPI PUSH2 0x20EB SWAP2 PUSH2 0x3395 JUMP JUMPDEST PUSH2 0x20FB JUMPI PUSH2 0x1FB PUSH2 0x20F SWAP2 PUSH2 0x3424 JUMP JUMPDEST PUSH4 0x4E487B71 PUSH1 0xE0 SHL PUSH1 0x0 MSTORE PUSH1 0x0 PUSH1 0x4 MSTORE PUSH1 0x24 PUSH1 0x0 REVERT JUMPDEST CALLVALUE PUSH2 0x213 JUMPI PUSH2 0x88D PUSH1 0xB PUSH1 0x20 PUSH2 0x2126 CALLDATASIZE PUSH2 0x3335 JUMP JUMPDEST SWAP5 SWAP3 PUSH2 0x214D PUSH2 0x883 PUSH2 0xA45 PUSH1 0x40 SWAP8 SWAP5 SWAP8 MLOAD DUP7 DUP6 DUP3 CALLDATACOPY DUP6 DUP2 DUP9 DUP2 ADD PUSH1 0x1 DUP2 MSTORE SUB ADD SWAP1 KECCAK256 PUSH2 0x3424 JUMP JUMPDEST DUP3 PUSH1 0x40 MLOAD SWAP4 DUP5 SWAP3 DUP4 CALLDATACOPY DUP2 ADD PUSH1 0x1 DUP2 MSTORE SUB ADD SWAP1 KECCAK256 PUSH1 0x1 PUSH1 0x1 PUSH1 0xA0 SHL SUB DUP1 PUSH1 0x7 DUP4 ADD SLOAD AND CALLER EQ SWAP1 DUP2 ISZERO PUSH2 0x219D JUMPI JUMPDEST POP DUP1 PUSH2 0x218F JUMPI JUMPDEST PUSH2 0x2189 SWAP1 PUSH2 0x3E22 JUMP JUMPDEST ADD PUSH2 0x39D3 JUMP JUMPDEST POP PUSH1 0x9 DUP2 ADD SLOAD PUSH1 0xFF AND PUSH2 0x2180 JUMP JUMPDEST SWAP1 POP PUSH1 0x4 DUP3 ADD SLOAD AND CALLER EQ DUP7 PUSH2 0x2179 JUMP JUMPDEST CALLVALUE PUSH2 0x213 JUMPI PUSH1 0xA0 CALLDATASIZE PUSH1 0x3 NOT ADD SLT PUSH2 0x213 JUMPI PUSH1 0x4 CALLDATALOAD PUSH1 0x1 PUSH1 0x1 PUSH1 0x40 SHL SUB DUP2 GT PUSH2 0x213 JUMPI PUSH2 0x21DD SWAP1 CALLDATASIZE SWAP1 PUSH1 0x4 ADD PUSH2 0x32C0 JUMP JUMPDEST SWAP1 PUSH1 0x24 CALLDATALOAD PUSH1 0x1 PUSH1 0x1 PUSH1 0x40 SHL SUB DUP2 GT PUSH2 0x213 JUMPI PUSH2 0x21FD SWAP1 CALLDATASIZE SWAP1 PUSH1 0x4 ADD PUSH2 0x32C0 JUMP JUMPDEST SWAP1 SWAP3 PUSH1 0x44 CALLDATALOAD PUSH1 0x1 PUSH1 0x1 PUSH1 0x40 SHL SUB DUP2 GT PUSH2 0x213 JUMPI PUSH2 0x221E SWAP1 CALLDATASIZE SWAP1 PUSH1 0x4 ADD PUSH2 0x32C0 JUMP JUMPDEST SWAP1 PUSH1 0x64 CALLDATALOAD PUSH1 0x1 PUSH1 0x1 PUSH1 0x40 SHL SUB DUP2 GT PUSH2 0x213 JUMPI PUSH2 0x223E SWAP1 CALLDATASIZE SWAP1 PUSH1 0x4 ADD PUSH2 0x32C0 JUMP JUMPDEST SWAP1 CALLER PUSH1 0x0 MSTORE PUSH1 0x2 PUSH1 0x20 MSTORE PUSH1 0x40 PUSH1 0x0 KECCAK256 SLOAD PUSH1 0x9 SLOAD GT PUSH2 0x2D50 JUMPI CALLER PUSH1 0x0 MSTORE PUSH1 0x2 PUSH1 0x20 MSTORE PUSH1 0x1 PUSH1 0x40 PUSH1 0x0 KECCAK256 ADD SLOAD SWAP2 PUSH1 0xA SLOAD SWAP3 PUSH1 0xFF DUP5 PUSH1 0xE0 SHR AND GT ISZERO PUSH2 0x2CFB JUMPI CALLER PUSH1 0x0 MSTORE PUSH1 0x3 PUSH1 0x20 MSTORE PUSH2 0x2296 PUSH1 0x2C PUSH2 0xC07 PUSH1 0x40 PUSH1 0x0 KECCAK256 SLOAD PUSH2 0x33AD JUMP JUMPDEST PUSH2 0x22C2 PUSH1 0x40 MLOAD DUP8 DUP11 DUP3 CALLDATACOPY PUSH1 0x20 DUP2 DUP10 DUP2 ADD PUSH1 0x1 DUP2 MSTORE SUB ADD SWAP1 KECCAK256 PUSH2 0x87D PUSH2 0x22BC CALLDATASIZE DUP11 DUP14 PUSH2 0x369F JUMP JUMPDEST SWAP2 PUSH2 0x3424 JUMP JUMPDEST PUSH2 0x2CC0 JUMPI PUSH1 0x84 CALLDATALOAD ISZERO PUSH2 0x2C6B JUMPI PUSH2 0x231C PUSH2 0x22EA PUSH1 0x1 PUSH1 0x1 PUSH1 0x40 SHL SUB PUSH2 0x2328 SWAP6 PUSH1 0xA0 SHR AND TIMESTAMP PUSH2 0x383E JUMP JUMPDEST SWAP5 PUSH1 0x40 MLOAD SWAP7 PUSH2 0x22F8 DUP9 PUSH2 0x33E7 JUMP JUMPDEST PUSH2 0x2303 CALLDATASIZE DUP11 DUP14 PUSH2 0x369F JUMP JUMPDEST DUP9 MSTORE PUSH2 0x2310 CALLDATASIZE DUP12 DUP15 PUSH2 0x369F JUMP JUMPDEST PUSH1 0x20 DUP10 ADD MSTORE CALLDATASIZE SWAP2 PUSH2 0x369F JUMP JUMPDEST PUSH1 0x40 DUP7 ADD MSTORE CALLDATASIZE SWAP2 PUSH2 0x369F JUMP JUMPDEST PUSH1 0x60 DUP4 ADD MSTORE CALLER PUSH1 0x80 DUP4 ADD MSTORE PUSH1 0x84 CALLDATALOAD PUSH1 0xA0 DUP4 ADD MSTORE PUSH1 0x0 PUSH1 0xC0 DUP4 ADD MSTORE PUSH1 0x0 PUSH1 0xE0 DUP4 ADD MSTORE PUSH2 0x100 DUP3 ADD MSTORE PUSH1 0x0 PUSH2 0x120 DUP3 ADD MSTORE PUSH1 0x40 MLOAD DUP1 PUSH1 0x20 DUP2 ADD LT PUSH1 0x1 PUSH1 0x1 PUSH1 0x40 SHL SUB PUSH1 0x20 DUP4 ADD GT OR PUSH2 0x128D JUMPI PUSH1 0x20 DUP2 ADD PUSH1 0x40 MSTORE PUSH1 0x0 DUP2 MSTORE PUSH2 0x140 DUP3 ADD MSTORE PUSH1 0x60 PUSH2 0x160 DUP3 ADD MSTORE PUSH1 0x60 PUSH2 0x180 DUP3 ADD MSTORE PUSH1 0x0 PUSH2 0x1A0 DUP3 ADD MSTORE PUSH1 0x0 PUSH2 0x1C0 DUP3 ADD MSTORE PUSH1 0x0 PUSH2 0x1E0 DUP3 ADD MSTORE PUSH1 0x40 MLOAD DUP3 DUP6 DUP3 CALLDATACOPY PUSH1 0x20 DUP2 DUP5 DUP2 ADD PUSH1 0x1 DUP2 MSTORE SUB ADD SWAP1 KECCAK256 DUP2 MLOAD DUP1 MLOAD SWAP1 PUSH1 0x1 PUSH1 0x1 PUSH1 0x40 SHL SUB DUP3 GT PUSH2 0x128D JUMPI DUP2 SWAP1 PUSH2 0x23E9 DUP3 PUSH2 0x23E3 DUP7 SLOAD PUSH2 0x33AD JUMP JUMPDEST DUP7 PUSH2 0x37F9 JUMP JUMPDEST PUSH1 0x20 SWAP1 PUSH1 0x1F DUP4 GT PUSH1 0x1 EQ PUSH2 0x2BFF JUMPI PUSH1 0x0 SWAP3 PUSH2 0x2BF4 JUMPI JUMPDEST POP POP DUP2 PUSH1 0x1 SHL SWAP2 PUSH1 0x0 NOT SWAP1 PUSH1 0x3 SHL SHR NOT AND OR DUP2 SSTORE JUMPDEST PUSH1 0x20 DUP3 ADD MLOAD DUP1 MLOAD SWAP1 PUSH1 0x1 PUSH1 0x1 PUSH1 0x40 SHL SUB DUP3 GT PUSH2 0x128D JUMPI DUP2 SWAP1 PUSH2 0x2446 DUP3 PUSH2 0x243D PUSH1 0x1 DUP8 ADD SLOAD PUSH2 0x33AD JUMP JUMPDEST PUSH1 0x1 DUP8 ADD PUSH2 0x37F9 JUMP JUMPDEST PUSH1 0x20 SWAP1 PUSH1 0x1F DUP4 GT PUSH1 0x1 EQ PUSH2 0x2B82 JUMPI PUSH1 0x0 SWAP3 PUSH2 0x2B77 JUMPI JUMPDEST POP POP DUP2 PUSH1 0x1 SHL SWAP2 PUSH1 0x0 NOT SWAP1 PUSH1 0x3 SHL SHR NOT AND OR PUSH1 0x1 DUP3 ADD SSTORE JUMPDEST PUSH1 0x40 DUP3 ADD MLOAD DUP1 MLOAD SWAP1 PUSH1 0x1 PUSH1 0x1 PUSH1 0x40 SHL SUB DUP3 GT PUSH2 0x128D JUMPI DUP2 SWAP1 PUSH2 0x24A6 DUP3 PUSH2 0x249D PUSH1 0x2 DUP8 ADD SLOAD PUSH2 0x33AD JUMP JUMPDEST PUSH1 0x2 DUP8 ADD PUSH2 0x37F9 JUMP JUMPDEST PUSH1 0x20 SWAP1 PUSH1 0x1F DUP4 GT PUSH1 0x1 EQ PUSH2 0x2B05 JUMPI PUSH1 0x0 SWAP3 PUSH2 0x2AFA JUMPI JUMPDEST POP POP DUP2 PUSH1 0x1 SHL SWAP2 PUSH1 0x0 NOT SWAP1 PUSH1 0x3 SHL SHR NOT AND OR PUSH1 0x2 DUP3 ADD SSTORE JUMPDEST PUSH1 0x60 DUP3 ADD MLOAD DUP1 MLOAD SWAP1 PUSH1 0x1 PUSH1 0x1 PUSH1 0x40 SHL SUB DUP3 GT PUSH2 0x128D JUMPI DUP2 SWAP1 PUSH2 0x2506 DUP3 PUSH2 0x24FD PUSH1 0x3 DUP8 ADD SLOAD PUSH2 0x33AD JUMP JUMPDEST PUSH1 0x3 DUP8 ADD PUSH2 0x37F9 JUMP JUMPDEST PUSH1 0x20 SWAP1 PUSH1 0x1F DUP4 GT PUSH1 0x1 EQ PUSH2 0x2A88 JUMPI PUSH1 0x0 SWAP3 PUSH2 0x2A7D JUMPI JUMPDEST POP POP DUP2 PUSH1 0x1 SHL SWAP2 PUSH1 0x0 NOT SWAP1 PUSH1 0x3 SHL SHR NOT AND OR PUSH1 0x3 DUP3 ADD SSTORE JUMPDEST PUSH1 0x4 DUP2 ADD PUSH1 0x1 PUSH1 0x1 PUSH1 0xA0 SHL SUB SWAP1 DUP2 PUSH1 0x80 DUP6 ADD MLOAD AND SWAP1 PUSH12 0xFFFFFFFFFFFFFFFFFFFFFFFF PUSH1 0xA0 SHL SWAP2 DUP3 DUP3 SLOAD AND OR SWAP1 SSTORE PUSH1 0xA0 DUP5 ADD MLOAD PUSH1 0x5 DUP5 ADD SSTORE PUSH1 0xC0 DUP5 ADD MLOAD PUSH1 0x6 DUP5 ADD SSTORE PUSH1 0x7 DUP4 ADD SWAP2 PUSH1 0xE0 DUP6 ADD MLOAD AND SWAP1 DUP3 SLOAD AND OR SWAP1 SSTORE PUSH2 0x100 DUP3 ADD MLOAD PUSH1 0x8 DUP3 ADD SSTORE PUSH2 0x25B2 PUSH2 0x120 DUP4 ADD MLOAD ISZERO ISZERO PUSH1 0x9 DUP4 ADD SWAP1 PUSH1 0xFF DUP1 NOT DUP4 SLOAD AND SWAP2 ISZERO ISZERO AND OR SWAP1 SSTORE JUMP JUMPDEST PUSH2 0x140 DUP3 ADD MLOAD DUP1 MLOAD SWAP1 PUSH1 0x1 PUSH1 0x1 PUSH1 0x40 SHL SUB DUP3 GT PUSH2 0x128D JUMPI DUP2 SWAP1 PUSH2 0x25E5 DUP3 PUSH2 0x25DC PUSH1 0xA DUP8 ADD SLOAD PUSH2 0x33AD JUMP JUMPDEST PUSH1 0xA DUP8 ADD PUSH2 0x37F9 JUMP JUMPDEST PUSH1 0x20 SWAP1 PUSH1 0x1F DUP4 GT PUSH1 0x1 EQ PUSH2 0x2A0B JUMPI PUSH1 0x0 SWAP3 PUSH2 0x2A00 JUMPI JUMPDEST POP POP DUP2 PUSH1 0x1 SHL SWAP2 PUSH1 0x0 NOT SWAP1 PUSH1 0x3 SHL SHR NOT AND OR PUSH1 0xA DUP3 ADD SSTORE JUMPDEST PUSH2 0x160 DUP3 ADD MLOAD DUP1 MLOAD SWAP1 PUSH1 0x1 PUSH1 0x40 SHL DUP3 GT PUSH2 0x128D JUMPI PUSH1 0xB DUP4 ADD SLOAD DUP3 PUSH1 0xB DUP6 ADD SSTORE DUP1 DUP4 LT PUSH2 0x29CD JUMPI JUMPDEST POP PUSH1 0x20 ADD SWAP1 PUSH1 0xB DUP4 ADD PUSH1 0x0 MSTORE PUSH1 0x20 PUSH1 0x0 KECCAK256 SWAP2 PUSH1 0x0 SWAP1 JUMPDEST DUP3 DUP3 LT PUSH2 0x28F0 JUMPI POP POP POP POP PUSH2 0x180 DUP3 ADD MLOAD DUP1 MLOAD SWAP1 PUSH1 0x1 PUSH1 0x40 SHL DUP3 GT PUSH2 0x128D JUMPI PUSH1 0xC DUP4 ADD SLOAD DUP3 PUSH1 0xC DUP6 ADD SSTORE DUP1 DUP4 LT PUSH2 0x28BD JUMPI JUMPDEST POP PUSH1 0x20 ADD SWAP1 PUSH1 0xC DUP4 ADD PUSH1 0x0 MSTORE PUSH1 0x20 PUSH1 0x0 KECCAK256 SWAP2 PUSH1 0x0 SWAP1 JUMPDEST DUP3 DUP3 LT PUSH2 0x27E0 JUMPI POP POP POP POP PUSH1 0xD ADD PUSH2 0x1A0 DUP3 ADD MLOAD SWAP2 PUSH1 0x7 DUP4 LT ISZERO PUSH2 0x1667 JUMPI PUSH2 0x1E0 PUSH1 0xFF SWAP2 PUSH2 0x26C9 PUSH2 0x26FC SWAP6 DUP6 PUSH2 0x38F8 JUMP JUMPDEST PUSH2 0x1C0 DUP2 ADD MLOAD DUP5 SLOAD PUSH2 0xFF00 NOT AND SWAP1 DUP5 AND PUSH1 0x8 SHL PUSH2 0xFF00 AND OR DUP5 SSTORE ADD MLOAD DUP3 SLOAD PUSH3 0xFF0000 NOT AND SWAP2 AND PUSH1 0x10 SHL PUSH3 0xFF0000 AND OR SWAP1 SSTORE JUMP JUMPDEST CALLER PUSH1 0x0 MSTORE PUSH1 0x2 PUSH1 0x20 MSTORE PUSH2 0x2717 DUP2 DUP5 PUSH1 0x1 PUSH1 0x40 PUSH1 0x0 KECCAK256 ADD PUSH2 0x39D3 JUMP JUMPDEST PUSH1 0x7 SLOAD SWAP1 PUSH1 0x1 PUSH1 0x40 SHL DUP3 LT ISZERO PUSH2 0x128D JUMPI PUSH1 0x1 DUP3 ADD DUP1 PUSH1 0x7 SSTORE DUP3 LT ISZERO PUSH2 0x636 JUMPI DUP4 PUSH2 0x278C DUP3 PUSH32 0x580C79F80D4CB0E438A0D03F153C3DD27D464553DCC2FB869879BC42FD524C3B SWAP7 PUSH1 0x40 SWAP6 PUSH1 0x7 PUSH1 0x0 MSTORE PUSH32 0xA66CC928B5EDB82AF9BD49922954155AB7B0942694BEA4CE44661D9A8736C688 ADD PUSH2 0x3910 JUMP JUMPDEST CALLER PUSH1 0x0 MSTORE PUSH1 0x5 PUSH1 0x20 MSTORE PUSH2 0x27A3 DUP3 DUP3 DUP6 PUSH1 0x0 KECCAK256 PUSH2 0x39D3 JUMP JUMPDEST DUP2 DUP4 MLOAD SWAP3 DUP4 SWAP3 DUP4 CALLDATACOPY DUP2 ADD PUSH1 0x0 DUP2 MSTORE SUB SWAP1 KECCAK256 SWAP4 DUP3 DUP3 MLOAD SWAP4 DUP5 SWAP3 PUSH1 0x20 DUP5 MSTORE DUP2 PUSH1 0x20 DUP6 ADD MSTORE DUP5 DUP5 ADD CALLDATACOPY PUSH1 0x0 DUP3 DUP3 ADD DUP5 ADD MSTORE PUSH1 0x1F ADD PUSH1 0x1F NOT AND DUP2 ADD SUB ADD SWAP1 LOG2 STOP JUMPDEST DUP1 MLOAD DUP1 MLOAD SWAP1 PUSH1 0x1 PUSH1 0x1 PUSH1 0x40 SHL SUB DUP3 GT PUSH2 0x128D JUMPI PUSH2 0x2801 DUP3 PUSH2 0x1C7E DUP9 SLOAD PUSH2 0x33AD JUMP JUMPDEST PUSH1 0x20 SWAP1 PUSH1 0x1F DUP4 GT PUSH1 0x1 EQ PUSH2 0x284D JUMPI SWAP3 DUP3 PUSH1 0x1 SWAP5 SWAP4 PUSH1 0x20 SWAP4 DUP7 SWAP6 PUSH1 0x0 SWAP3 PUSH2 0x2842 JUMPI JUMPDEST POP POP PUSH1 0x0 NOT PUSH1 0x3 DUP4 SWAP1 SHL SHR NOT AND SWAP1 DUP5 SHL OR DUP8 SSTORE JUMPDEST ADD SWAP5 ADD SWAP2 ADD SWAP1 SWAP3 PUSH2 0x2698 JUMP JUMPDEST ADD MLOAD SWAP1 POP DUP16 DUP1 PUSH2 0x2822 JUMP JUMPDEST SWAP1 DUP7 PUSH1 0x0 MSTORE PUSH1 0x20 PUSH1 0x0 KECCAK256 SWAP2 PUSH1 0x0 JUMPDEST PUSH1 0x1F NOT DUP6 AND DUP2 LT PUSH2 0x28A5 JUMPI POP DUP4 PUSH1 0x20 SWAP4 PUSH1 0x1 SWAP7 SWAP4 DUP8 SWAP7 SWAP4 DUP8 SWAP5 PUSH1 0x1F NOT DUP2 AND LT PUSH2 0x288C JUMPI JUMPDEST POP POP POP DUP2 SHL ADD DUP8 SSTORE PUSH2 0x2836 JUMP JUMPDEST ADD MLOAD PUSH1 0x0 NOT PUSH1 0xF8 DUP5 PUSH1 0x3 SHL AND SHR NOT AND SWAP1 SSTORE DUP16 DUP1 DUP1 PUSH2 0x287F JUMP JUMPDEST SWAP2 SWAP3 PUSH1 0x20 PUSH1 0x1 DUP2 SWAP3 DUP7 DUP6 ADD MLOAD DUP2 SSTORE ADD SWAP5 ADD SWAP3 ADD PUSH2 0x285B JUMP JUMPDEST PUSH1 0xC DUP5 ADD PUSH1 0x0 MSTORE PUSH1 0x20 PUSH1 0x0 KECCAK256 SWAP1 DUP4 DUP3 ADD JUMPDEST DUP2 DUP4 ADD DUP2 LT PUSH2 0x28DE JUMPI POP POP PUSH2 0x2682 JUMP JUMPDEST DUP1 PUSH2 0x28EA PUSH1 0x1 SWAP3 PUSH2 0x37B0 JUMP JUMPDEST ADD PUSH2 0x28CE JUMP JUMPDEST DUP1 MLOAD DUP1 MLOAD SWAP1 PUSH1 0x1 PUSH1 0x1 PUSH1 0x40 SHL SUB DUP3 GT PUSH2 0x128D JUMPI PUSH2 0x2911 DUP3 PUSH2 0x1C7E DUP9 SLOAD PUSH2 0x33AD JUMP JUMPDEST PUSH1 0x20 SWAP1 PUSH1 0x1F DUP4 GT PUSH1 0x1 EQ PUSH2 0x295D JUMPI SWAP3 DUP3 PUSH1 0x1 SWAP5 SWAP4 PUSH1 0x20 SWAP4 DUP7 SWAP6 PUSH1 0x0 SWAP3 PUSH2 0x2952 JUMPI JUMPDEST POP POP PUSH1 0x0 NOT PUSH1 0x3 DUP4 SWAP1 SHL SHR NOT AND SWAP1 DUP5 SHL OR DUP8 SSTORE JUMPDEST ADD SWAP5 ADD SWAP2 ADD SWAP1 SWAP3 PUSH2 0x2650 JUMP JUMPDEST ADD MLOAD SWAP1 POP DUP16 DUP1 PUSH2 0x2932 JUMP JUMPDEST SWAP1 DUP7 PUSH1 0x0 MSTORE PUSH1 0x20 PUSH1 0x0 KECCAK256 SWAP2 PUSH1 0x0 JUMPDEST PUSH1 0x1F NOT DUP6 AND DUP2 LT PUSH2 0x29B5 JUMPI POP DUP4 PUSH1 0x20 SWAP4 PUSH1 0x1 SWAP7 SWAP4 DUP8 SWAP7 SWAP4 DUP8 SWAP5 PUSH1 0x1F NOT DUP2 AND LT PUSH2 0x299C JUMPI JUMPDEST POP POP POP DUP2 SHL ADD DUP8 SSTORE PUSH2 0x2946 JUMP JUMPDEST ADD MLOAD PUSH1 0x0 NOT PUSH1 0xF8 DUP5 PUSH1 0x3 SHL AND SHR NOT AND SWAP1 SSTORE DUP16 DUP1 DUP1 PUSH2 0x298F JUMP JUMPDEST SWAP2 SWAP3 PUSH1 0x20 PUSH1 0x1 DUP2 SWAP3 DUP7 DUP6 ADD MLOAD DUP2 SSTORE ADD SWAP5 ADD SWAP3 ADD PUSH2 0x296B JUMP JUMPDEST PUSH1 0xB DUP5 ADD PUSH1 0x0 MSTORE PUSH1 0x20 PUSH1 0x0 KECCAK256 SWAP1 DUP4 DUP3 ADD JUMPDEST DUP2 DUP4 ADD DUP2 LT PUSH2 0x29EE JUMPI POP POP PUSH2 0x263A JUMP JUMPDEST DUP1 PUSH2 0x29FA PUSH1 0x1 SWAP3 PUSH2 0x37B0 JUMP JUMPDEST ADD PUSH2 0x29DE JUMP JUMPDEST ADD MLOAD SWAP1 POP DUP9 DUP1 PUSH2 0x25FB JUMP JUMPDEST SWAP3 POP PUSH1 0xA DUP5 ADD PUSH1 0x0 MSTORE PUSH1 0x20 PUSH1 0x0 KECCAK256 SWAP1 PUSH1 0x0 SWAP4 JUMPDEST PUSH1 0x1F NOT DUP5 AND DUP6 LT PUSH2 0x2A62 JUMPI PUSH1 0x1 SWAP5 POP DUP4 PUSH1 0x1F NOT DUP2 AND LT PUSH2 0x2A49 JUMPI JUMPDEST POP POP POP DUP2 SHL ADD PUSH1 0xA DUP3 ADD SSTORE PUSH2 0x2613 JUMP JUMPDEST ADD MLOAD PUSH1 0x0 NOT PUSH1 0xF8 DUP5 PUSH1 0x3 SHL AND SHR NOT AND SWAP1 SSTORE DUP9 DUP1 DUP1 PUSH2 0x2A39 JUMP JUMPDEST DUP2 DUP2 ADD MLOAD DUP4 SSTORE PUSH1 0x20 SWAP5 DUP6 ADD SWAP5 PUSH1 0x1 SWAP1 SWAP4 ADD SWAP3 SWAP1 SWAP2 ADD SWAP1 PUSH2 0x2A1E JUMP JUMPDEST ADD MLOAD SWAP1 POP DUP9 DUP1 PUSH2 0x251C JUMP JUMPDEST SWAP3 POP PUSH1 0x3 DUP5 ADD PUSH1 0x0 MSTORE PUSH1 0x20 PUSH1 0x0 KECCAK256 SWAP1 PUSH1 0x0 SWAP4 JUMPDEST PUSH1 0x1F NOT DUP5 AND DUP6 LT PUSH2 0x2ADF JUMPI PUSH1 0x1 SWAP5 POP DUP4 PUSH1 0x1F NOT DUP2 AND LT PUSH2 0x2AC6 JUMPI JUMPDEST POP POP POP DUP2 SHL ADD PUSH1 0x3 DUP3 ADD SSTORE PUSH2 0x2534 JUMP JUMPDEST ADD MLOAD PUSH1 0x0 NOT PUSH1 0xF8 DUP5 PUSH1 0x3 SHL AND SHR NOT AND SWAP1 SSTORE DUP9 DUP1 DUP1 PUSH2 0x2AB6 JUMP JUMPDEST DUP2 DUP2 ADD MLOAD DUP4 SSTORE PUSH1 0x20 SWAP5 DUP6 ADD SWAP5 PUSH1 0x1 SWAP1 SWAP4 ADD SWAP3 SWAP1 SWAP2 ADD SWAP1 PUSH2 0x2A9B JUMP JUMPDEST ADD MLOAD SWAP1 POP DUP9 DUP1 PUSH2 0x24BC JUMP JUMPDEST SWAP3 POP PUSH1 0x2 DUP5 ADD PUSH1 0x0 MSTORE PUSH1 0x20 PUSH1 0x0 KECCAK256 SWAP1 PUSH1 0x0 SWAP4 JUMPDEST PUSH1 0x1F NOT DUP5 AND DUP6 LT PUSH2 0x2B5C JUMPI PUSH1 0x1 SWAP5 POP DUP4 PUSH1 0x1F NOT DUP2 AND LT PUSH2 0x2B43 JUMPI JUMPDEST POP POP POP DUP2 SHL ADD PUSH1 0x2 DUP3 ADD SSTORE PUSH2 0x24D4 JUMP JUMPDEST ADD MLOAD PUSH1 0x0 NOT PUSH1 0xF8 DUP5 PUSH1 0x3 SHL AND SHR NOT AND SWAP1 SSTORE DUP9 DUP1 DUP1 PUSH2 0x2B33 JUMP JUMPDEST DUP2 DUP2 ADD MLOAD DUP4 SSTORE PUSH1 0x20 SWAP5 DUP6 ADD SWAP5 PUSH1 0x1 SWAP1 SWAP4 ADD SWAP3 SWAP1 SWAP2 ADD SWAP1 PUSH2 0x2B18 JUMP JUMPDEST ADD MLOAD SWAP1 POP DUP9 DUP1 PUSH2 0x245C JUMP JUMPDEST SWAP3 POP PUSH1 0x1 DUP5 ADD PUSH1 0x0 MSTORE PUSH1 0x20 PUSH1 0x0 KECCAK256 SWAP1 PUSH1 0x0 SWAP4 JUMPDEST PUSH1 0x1F NOT DUP5 AND DUP6 LT PUSH2 0x2BD9 JUMPI PUSH1 0x1 SWAP5 POP DUP4 PUSH1 0x1F NOT DUP2 AND LT PUSH2 0x2BC0 JUMPI JUMPDEST POP POP POP DUP2 SHL ADD PUSH1 0x1 DUP3 ADD SSTORE PUSH2 0x2474 JUMP JUMPDEST ADD MLOAD PUSH1 0x0 NOT PUSH1 0xF8 DUP5 PUSH1 0x3 SHL AND SHR NOT AND SWAP1 SSTORE DUP9 DUP1 DUP1 PUSH2 0x2BB0 JUMP JUMPDEST DUP2 DUP2 ADD MLOAD DUP4 SSTORE PUSH1 0x20 SWAP5 DUP6 ADD SWAP5 PUSH1 0x1 SWAP1 SWAP4 ADD SWAP3 SWAP1 SWAP2 ADD SWAP1 PUSH2 0x2B95 JUMP JUMPDEST ADD MLOAD SWAP1 POP DUP9 DUP1 PUSH2 0x23FF JUMP JUMPDEST SWAP3 POP DUP4 PUSH1 0x0 MSTORE PUSH1 0x20 PUSH1 0x0 KECCAK256 SWAP1 PUSH1 0x0 SWAP4 JUMPDEST PUSH1 0x1F NOT DUP5 AND DUP6 LT PUSH2 0x2C50 JUMPI PUSH1 0x1 SWAP5 POP DUP4 PUSH1 0x1F NOT DUP2 AND LT PUSH2 0x2C37 JUMPI JUMPDEST POP POP POP DUP2 SHL ADD DUP2 SSTORE PUSH2 0x2414 JUMP JUMPDEST ADD MLOAD PUSH1 0x0 NOT PUSH1 0xF8 DUP5 PUSH1 0x3 SHL AND SHR NOT AND SWAP1 SSTORE DUP9 DUP1 DUP1 PUSH2 0x2C2A JUMP JUMPDEST DUP2 DUP2 ADD MLOAD DUP4 SSTORE PUSH1 0x20 SWAP5 DUP6 ADD SWAP5 PUSH1 0x1 SWAP1 SWAP4 ADD SWAP3 SWAP1 SWAP2 ADD SWAP1 PUSH2 0x2C0F JUMP JUMPDEST PUSH1 0x40 MLOAD PUSH3 0x461BCD PUSH1 0xE5 SHL DUP2 MSTORE PUSH1 0x20 PUSH1 0x4 DUP3 ADD MSTORE PUSH1 0x27 PUSH1 0x24 DUP3 ADD MSTORE PUSH32 0x52657365727665207072696365206D7573742062652067726561746572207468 PUSH1 0x44 DUP3 ADD MSTORE PUSH7 0x616E207A65726F PUSH1 0xC8 SHL PUSH1 0x64 DUP3 ADD MSTORE PUSH1 0x84 SWAP1 REVERT JUMPDEST PUSH1 0x40 MLOAD PUSH3 0x461BCD PUSH1 0xE5 SHL DUP2 MSTORE PUSH1 0x20 PUSH1 0x4 DUP3 ADD MSTORE PUSH1 0x13 PUSH1 0x24 DUP3 ADD MSTORE PUSH19 0x4974656D20616C726561647920657869737473 PUSH1 0x68 SHL PUSH1 0x44 DUP3 ADD MSTORE PUSH1 0x64 SWAP1 REVERT JUMPDEST PUSH1 0x40 MLOAD PUSH3 0x461BCD PUSH1 0xE5 SHL DUP2 MSTORE PUSH1 0x20 PUSH1 0x4 DUP3 ADD MSTORE PUSH1 0x27 PUSH1 0x24 DUP3 ADD MSTORE PUSH32 0x596F752063616E2774206861766520616E79206D6F7265206163746976652061 PUSH1 0x44 DUP3 ADD MSTORE PUSH7 0x756374696F6E73 PUSH1 0xC8 SHL PUSH1 0x64 DUP3 ADD MSTORE PUSH1 0x84 SWAP1 REVERT JUMPDEST PUSH1 0x40 MLOAD PUSH3 0x461BCD PUSH1 0xE5 SHL DUP2 MSTORE PUSH1 0x20 PUSH1 0x4 DUP3 ADD MSTORE PUSH1 0x2D PUSH1 0x24 DUP3 ADD MSTORE PUSH32 0x4E6F7420656E6F75676820746F6B656E73207374616B656420746F2063726561 PUSH1 0x44 DUP3 ADD MSTORE PUSH13 0x3A329030B71030BAB1BA34B7B7 PUSH1 0x99 SHL PUSH1 0x64 DUP3 ADD MSTORE PUSH1 0x84 SWAP1 REVERT JUMPDEST CALLVALUE PUSH2 0x213 JUMPI PUSH1 0x20 CALLDATASIZE PUSH1 0x3 NOT ADD SLT PUSH2 0x213 JUMPI PUSH1 0x4 CALLDATALOAD PUSH1 0x1 PUSH1 0x1 PUSH1 0x40 SHL SUB DUP2 GT PUSH2 0x213 JUMPI PUSH2 0x2DDE PUSH2 0x88D SWAP2 CALLDATASIZE SWAP1 PUSH1 0x4 ADD PUSH2 0x32C0 JUMP JUMPDEST SWAP1 CALLER PUSH1 0x0 MSTORE PUSH1 0x3 PUSH1 0x20 MSTORE PUSH1 0x40 PUSH1 0x0 KECCAK256 PUSH2 0x3910 JUMP JUMPDEST CALLVALUE PUSH2 0x213 JUMPI PUSH1 0x20 DUP1 PUSH1 0x3 NOT CALLDATASIZE ADD SLT PUSH2 0x213 JUMPI PUSH1 0x4 CALLDATALOAD PUSH1 0x1 PUSH1 0x1 PUSH1 0x40 SHL SUB DUP2 GT PUSH2 0x213 JUMPI PUSH2 0x2E23 SWAP1 CALLDATASIZE SWAP1 PUSH1 0x4 ADD PUSH2 0x32C0 JUMP JUMPDEST SWAP1 PUSH2 0x2E46 PUSH2 0x883 PUSH2 0x872 PUSH1 0x40 MLOAD DUP6 DUP6 DUP3 CALLDATACOPY DUP7 DUP2 DUP8 DUP2 ADD PUSH1 0x1 DUP2 MSTORE SUB ADD SWAP1 KECCAK256 PUSH2 0x3424 JUMP JUMPDEST PUSH1 0x1 PUSH1 0x1 PUSH1 0xA0 SHL SUB PUSH1 0x4 PUSH1 0x40 MLOAD DUP5 DUP5 DUP3 CALLDATACOPY DUP6 DUP2 DUP7 DUP2 ADD PUSH1 0x1 DUP2 MSTORE SUB ADD SWAP1 KECCAK256 ADD SLOAD AND CALLER SUB PUSH2 0x2EA3 JUMPI DUP2 DUP4 PUSH1 0xA SWAP3 PUSH2 0x2E8E SWAP5 PUSH1 0x40 MLOAD SWAP4 DUP5 SWAP3 DUP4 CALLDATACOPY DUP2 ADD PUSH1 0x1 DUP2 MSTORE SUB ADD SWAP1 KECCAK256 ADD PUSH2 0x3424 JUMP JUMPDEST SWAP1 PUSH2 0x20F PUSH1 0x40 MLOAD SWAP3 DUP3 DUP5 SWAP4 DUP5 MSTORE DUP4 ADD SWAP1 PUSH2 0x3310 JUMP JUMPDEST PUSH1 0x40 MLOAD PUSH3 0x461BCD PUSH1 0xE5 SHL DUP2 MSTORE PUSH1 0x4 DUP2 ADD DUP5 SWAP1 MSTORE PUSH1 0x27 PUSH1 0x24 DUP3 ADD MSTORE PUSH32 0x4F6E6C792061756374696F6E206F776E65722063616E2063616C6C2074686973 PUSH1 0x44 DUP3 ADD MSTORE PUSH7 0x81B595D1A1BD9 PUSH1 0xCA SHL PUSH1 0x64 DUP3 ADD MSTORE PUSH1 0x84 SWAP1 REVERT JUMPDEST CALLVALUE PUSH2 0x213 JUMPI PUSH1 0x40 CALLDATASIZE PUSH1 0x3 NOT ADD SLT PUSH2 0x213 JUMPI PUSH1 0x4 CALLDATALOAD PUSH1 0x1 PUSH1 0x1 PUSH1 0x40 SHL SUB DUP2 GT PUSH2 0x213 JUMPI PUSH2 0x2F28 SWAP1 CALLDATASIZE SWAP1 PUSH1 0x4 ADD PUSH2 0x32C0 JUMP JUMPDEST SWAP1 PUSH1 0x24 SWAP2 DUP3 CALLDATALOAD SWAP1 PUSH1 0x7 DUP3 LT ISZERO SWAP3 DUP4 PUSH2 0x213 JUMPI DUP2 DUP2 DUP8 CALLDATACOPY DUP2 DUP7 ADD SWAP1 PUSH1 0x1 DUP3 MSTORE PUSH2 0x2F5F PUSH2 0x883 PUSH2 0xA45 DUP10 PUSH1 0x20 DUP1 SWAP12 DUP2 SWAP8 SUB ADD SWAP1 KECCAK256 PUSH2 0x3424 JUMP JUMPDEST DUP3 PUSH1 0x40 MLOAD SWAP4 DUP5 SWAP3 DUP4 CALLDATACOPY DUP2 ADD PUSH1 0x1 DUP2 MSTORE SUB ADD SWAP1 KECCAK256 SWAP3 PUSH1 0xFF PUSH1 0x9 DUP6 ADD SLOAD AND ISZERO PUSH2 0x327D JUMPI PUSH1 0xD DUP5 ADD SWAP3 PUSH1 0xFF DUP5 SLOAD AND SWAP4 PUSH1 0x7 DUP6 LT ISZERO SWAP5 DUP6 PUSH2 0x313A JUMPI PUSH1 0x4 DUP2 EQ PUSH2 0x3213 JUMPI PUSH1 0x1 PUSH1 0x1 PUSH1 0xA0 SHL SUB SWAP6 DUP7 PUSH1 0x7 DUP10 ADD SLOAD AND CALLER EQ SWAP2 DUP3 SWAP2 DUP3 PUSH2 0x3204 JUMPI JUMPDEST DUP4 PUSH2 0x31E2 JUMPI JUMPDEST DUP4 ISZERO PUSH2 0x3176 JUMPI JUMPDEST DUP4 ISZERO PUSH2 0x30F8 JUMPI JUMPDEST POP POP POP ISZERO PUSH2 0x30B4 JUMPI PUSH2 0x2FE2 PUSH1 0xA DUP8 ADD SLOAD PUSH2 0x33AD JUMP JUMPDEST ISZERO PUSH2 0x3064 JUMPI DUP4 PUSH2 0x2FF1 SWAP2 PUSH2 0x38F8 JUMP JUMPDEST PUSH2 0x3050 JUMPI POP PUSH1 0x3 EQ PUSH2 0x2FFF JUMPI STOP JUMPDEST PUSH1 0xA SLOAD PUSH1 0x4 DUP4 DUP2 ADD SLOAD PUSH1 0x6 SWAP1 SWAP5 ADD SLOAD PUSH1 0x40 MLOAD PUSH4 0xA9059CBB PUSH1 0xE0 SHL DUP2 MSTORE SWAP5 DUP5 AND PUSH1 0x1 PUSH1 0x1 PUSH1 0xA0 SHL SUB AND SWAP2 DUP6 ADD SWAP2 SWAP1 SWAP2 MSTORE PUSH1 0x24 DUP5 ADD MSTORE DUP4 SWAP2 DUP4 SWAP2 AND DUP2 PUSH1 0x0 DUP2 PUSH1 0x44 DUP2 ADD SUB SWAP3 GAS CALL DUP1 ISZERO PUSH2 0xE10 JUMPI PUSH2 0x1079 JUMPI STOP JUMPDEST PUSH4 0x4E487B71 PUSH1 0xE0 SHL PUSH1 0x0 SWAP1 DUP2 MSTORE PUSH1 0x21 PUSH1 0x4 MSTORE REVERT JUMPDEST PUSH1 0x40 MLOAD PUSH3 0x461BCD PUSH1 0xE5 SHL DUP2 MSTORE PUSH1 0x4 DUP2 ADD DUP9 SWAP1 MSTORE PUSH1 0x23 DUP2 DUP6 ADD MSTORE PUSH32 0x506C656173652073657420612064656C69766572792061646472657373206669 PUSH1 0x44 DUP3 ADD MSTORE PUSH3 0x1C9CDD PUSH1 0xEA SHL PUSH1 0x64 DUP3 ADD MSTORE PUSH1 0x84 SWAP1 REVERT JUMPDEST PUSH1 0x40 MLOAD PUSH3 0x461BCD PUSH1 0xE5 SHL DUP2 MSTORE PUSH1 0x4 DUP2 ADD DUP9 SWAP1 MSTORE PUSH1 0x18 DUP2 DUP6 ADD MSTORE PUSH32 0x496E76616C6964207374617465207472616E736974696F6E0000000000000000 PUSH1 0x44 DUP3 ADD MSTORE PUSH1 0x64 SWAP1 REVERT JUMPDEST SWAP1 SWAP2 SWAP3 POP DUP5 DUP4 PUSH2 0x314F JUMPI JUMPDEST POP DUP3 PUSH2 0x3114 JUMPI JUMPDEST POP POP DUP9 DUP1 DUP1 PUSH2 0x2FCD JUMP JUMPDEST SWAP1 SWAP2 POP PUSH2 0x313A JUMPI PUSH1 0x2 DUP2 EQ SWAP1 DUP2 ISZERO PUSH2 0x312F JUMPI JUMPDEST POP DUP9 DUP1 PUSH2 0x310A JUMP JUMPDEST PUSH1 0x5 SWAP2 POP EQ DUP9 PUSH2 0x3127 JUMP JUMPDEST DUP4 PUSH4 0x4E487B71 PUSH1 0xE0 SHL PUSH1 0x0 MSTORE PUSH1 0x21 PUSH1 0x4 MSTORE PUSH1 0x0 REVERT JUMPDEST SWAP1 SWAP3 POP PUSH2 0x3161 JUMPI PUSH1 0x3 DUP7 EQ SWAP2 DUP5 PUSH2 0x3103 JUMP JUMPDEST DUP5 PUSH4 0x4E487B71 PUSH1 0xE0 SHL PUSH1 0x0 MSTORE PUSH1 0x21 PUSH1 0x4 MSTORE PUSH1 0x0 REVERT JUMPDEST SWAP3 POP DUP5 DUP9 PUSH1 0x4 DUP12 ADD SLOAD AND CALLER EQ SWAP1 DUP2 PUSH2 0x31D2 JUMPI JUMPDEST POP DUP4 DUP2 PUSH2 0x3198 JUMPI JUMPDEST POP SWAP3 PUSH2 0x2FC6 JUMP JUMPDEST SWAP1 POP PUSH2 0x31BD JUMPI PUSH1 0x1 DUP2 EQ DUP1 ISZERO PUSH2 0x31AF JUMPI JUMPDEST DUP4 PUSH2 0x3191 JUMP JUMPDEST POP PUSH1 0x0 SWAP3 POP PUSH1 0x5 DUP2 EQ PUSH2 0x31A9 JUMP JUMPDEST DUP6 PUSH4 0x4E487B71 PUSH1 0xE0 SHL PUSH1 0x0 MSTORE PUSH1 0x21 PUSH1 0x4 MSTORE PUSH1 0x0 REVERT JUMPDEST SWAP1 POP PUSH2 0x31BD JUMPI PUSH1 0x2 DUP8 EQ DUP6 PUSH2 0x3189 JUMP JUMPDEST POP PUSH1 0x0 SWAP3 POP DUP1 ISZERO DUP1 ISZERO PUSH2 0x31F6 JUMPI JUMPDEST SWAP3 PUSH2 0x2FBF JUMP JUMPDEST POP PUSH1 0x0 SWAP3 POP PUSH1 0x5 DUP2 EQ PUSH2 0x31F0 JUMP JUMPDEST PUSH1 0x0 SWAP6 POP PUSH1 0x1 DUP9 EQ SWAP4 POP PUSH2 0x2FB9 JUMP JUMPDEST PUSH1 0x40 MLOAD PUSH3 0x461BCD PUSH1 0xE5 SHL DUP2 MSTORE PUSH1 0x4 DUP2 ADD DUP10 SWAP1 MSTORE PUSH1 0x37 DUP2 DUP7 ADD MSTORE PUSH32 0x43616E7420726573756D6520657363726F772070726F63657373657320776974 PUSH1 0x44 DUP3 ADD MSTORE PUSH32 0x686F75742064697370757465207265736F6C7574696F6E000000000000000000 PUSH1 0x64 DUP3 ADD MSTORE PUSH1 0x84 SWAP1 REVERT JUMPDEST DUP5 PUSH1 0x19 PUSH1 0x64 SWAP3 PUSH1 0x40 MLOAD SWAP3 PUSH3 0x461BCD PUSH1 0xE5 SHL DUP5 MSTORE PUSH1 0x4 DUP5 ADD MSTORE DUP3 ADD MSTORE PUSH32 0x41756374696F6E20686173206E6F7420656E6465642079657400000000000000 PUSH1 0x44 DUP3 ADD MSTORE REVERT JUMPDEST SWAP2 DUP2 PUSH1 0x1F DUP5 ADD SLT ISZERO PUSH2 0x213 JUMPI DUP3 CALLDATALOAD SWAP2 PUSH1 0x1 PUSH1 0x1 PUSH1 0x40 SHL SUB DUP4 GT PUSH2 0x213 JUMPI PUSH1 0x20 DUP4 DUP2 DUP7 ADD SWAP6 ADD ADD GT PUSH2 0x213 JUMPI JUMP JUMPDEST PUSH1 0x0 JUMPDEST DUP4 DUP2 LT PUSH2 0x3300 JUMPI POP POP PUSH1 0x0 SWAP2 ADD MSTORE JUMP JUMPDEST DUP2 DUP2 ADD MLOAD DUP4 DUP3 ADD MSTORE PUSH1 0x20 ADD PUSH2 0x32F0 JUMP JUMPDEST SWAP1 PUSH1 0x20 SWAP2 PUSH2 0x3329 DUP2 MLOAD DUP1 SWAP3 DUP2 DUP6 MSTORE DUP6 DUP1 DUP7 ADD SWAP2 ADD PUSH2 0x32ED JUMP JUMPDEST PUSH1 0x1F ADD PUSH1 0x1F NOT AND ADD ADD SWAP1 JUMP JUMPDEST PUSH1 0x40 PUSH1 0x3 NOT DUP3 ADD SLT PUSH2 0x213 JUMPI PUSH1 0x1 PUSH1 0x1 PUSH1 0x40 SHL SUB SWAP2 PUSH1 0x4 CALLDATALOAD DUP4 DUP2 GT PUSH2 0x213 JUMPI DUP3 PUSH2 0x3361 SWAP2 PUSH1 0x4 ADD PUSH2 0x32C0 JUMP JUMPDEST SWAP4 SWAP1 SWAP4 SWAP3 PUSH1 0x24 CALLDATALOAD SWAP2 DUP3 GT PUSH2 0x213 JUMPI PUSH2 0x337B SWAP2 PUSH1 0x4 ADD PUSH2 0x32C0 JUMP JUMPDEST SWAP1 SWAP2 JUMP JUMPDEST PUSH1 0x4 CALLDATALOAD SWAP1 PUSH1 0x1 PUSH1 0x1 PUSH1 0xA0 SHL SUB DUP3 AND DUP3 SUB PUSH2 0x213 JUMPI JUMP JUMPDEST DUP1 SLOAD DUP3 LT ISZERO PUSH2 0x636 JUMPI PUSH1 0x0 MSTORE PUSH1 0x20 PUSH1 0x0 KECCAK256 ADD SWAP1 PUSH1 0x0 SWAP1 JUMP JUMPDEST SWAP1 PUSH1 0x1 DUP3 DUP2 SHR SWAP3 AND DUP1 ISZERO PUSH2 0x33DD JUMPI JUMPDEST PUSH1 0x20 DUP4 LT EQ PUSH2 0x33C7 JUMPI JUMP JUMPDEST PUSH4 0x4E487B71 PUSH1 0xE0 SHL PUSH1 0x0 MSTORE PUSH1 0x22 PUSH1 0x4 MSTORE PUSH1 0x24 PUSH1 0x0 REVERT JUMPDEST SWAP2 PUSH1 0x7F AND SWAP2 PUSH2 0x33BC JUMP JUMPDEST PUSH2 0x200 DUP2 ADD SWAP1 DUP2 LT PUSH1 0x1 PUSH1 0x1 PUSH1 0x40 SHL SUB DUP3 GT OR PUSH2 0x128D JUMPI PUSH1 0x40 MSTORE JUMP JUMPDEST SWAP1 PUSH1 0x1F DUP1 NOT SWAP2 ADD AND DUP2 ADD SWAP1 DUP2 LT PUSH1 0x1 PUSH1 0x1 PUSH1 0x40 SHL SUB DUP3 GT OR PUSH2 0x128D JUMPI PUSH1 0x40 MSTORE JUMP JUMPDEST SWAP1 PUSH1 0x40 MLOAD SWAP2 DUP3 PUSH1 0x0 DUP3 SLOAD SWAP3 PUSH2 0x3438 DUP5 PUSH2 0x33AD JUMP JUMPDEST SWAP1 DUP2 DUP5 MSTORE PUSH1 0x1 SWAP5 DUP6 DUP2 AND SWAP1 DUP2 PUSH1 0x0 EQ PUSH2 0x34A7 JUMPI POP PUSH1 0x1 EQ PUSH2 0x3464 JUMPI JUMPDEST POP POP PUSH2 0x3462 SWAP3 POP SUB DUP4 PUSH2 0x3403 JUMP JUMPDEST JUMP JUMPDEST SWAP1 SWAP4 SWAP2 POP PUSH1 0x0 MSTORE PUSH1 0x20 SWAP1 DUP2 PUSH1 0x0 KECCAK256 SWAP4 PUSH1 0x0 SWAP2 JUMPDEST DUP2 DUP4 LT PUSH2 0x348F JUMPI POP POP PUSH2 0x3462 SWAP4 POP DUP3 ADD ADD CODESIZE DUP1 PUSH2 0x3454 JUMP JUMPDEST DUP6 SLOAD DUP9 DUP5 ADD DUP6 ADD MSTORE SWAP5 DUP6 ADD SWAP5 DUP8 SWAP5 POP SWAP2 DUP4 ADD SWAP2 PUSH2 0x3477 JUMP JUMPDEST SWAP2 POP POP PUSH2 0x3462 SWAP5 POP PUSH1 0x20 SWAP3 POP PUSH1 0xFF NOT AND DUP3 DUP5 ADD MSTORE ISZERO ISZERO PUSH1 0x5 SHL DUP3 ADD ADD CODESIZE DUP1 PUSH2 0x3454 JUMP JUMPDEST SWAP1 DUP1 DUP3 MLOAD SWAP1 DUP2 DUP2 MSTORE PUSH1 0x20 DUP1 SWAP2 ADD SWAP3 DUP2 DUP1 DUP5 PUSH1 0x5 SHL DUP4 ADD ADD SWAP6 ADD SWAP4 PUSH1 0x0 SWAP2 JUMPDEST DUP5 DUP4 LT PUSH2 0x34F8 JUMPI POP POP POP POP POP POP SWAP1 JUMP JUMPDEST SWAP1 SWAP2 SWAP3 SWAP4 SWAP5 SWAP6 DUP5 DUP1 PUSH2 0x3516 PUSH1 0x1 SWAP4 PUSH1 0x1F NOT DUP7 DUP3 SUB ADD DUP8 MSTORE DUP11 MLOAD PUSH2 0x3310 JUMP JUMPDEST SWAP9 ADD SWAP4 ADD SWAP4 ADD SWAP2 SWAP5 SWAP4 SWAP3 SWAP1 PUSH2 0x34E8 JUMP JUMPDEST SWAP1 PUSH1 0x7 DUP3 LT ISZERO PUSH2 0x1667 JUMPI MSTORE JUMP JUMPDEST PUSH1 0x20 DUP1 DUP3 ADD SWAP1 DUP1 DUP4 MSTORE DUP4 MLOAD DUP1 SWAP3 MSTORE PUSH1 0x40 SWAP3 DUP4 DUP2 ADD DUP3 DUP6 DUP6 PUSH1 0x5 SHL DUP5 ADD ADD SWAP7 ADD SWAP5 PUSH1 0x0 SWAP3 JUMPDEST DUP6 DUP5 LT PUSH2 0x3568 JUMPI POP POP POP POP POP POP POP SWAP1 JUMP JUMPDEST SWAP1 SWAP2 SWAP3 SWAP4 SWAP5 SWAP6 SWAP7 DUP6 DUP1 PUSH1 0x1 SWAP3 PUSH1 0x3F NOT DUP6 DUP3 SUB ADD DUP8 MSTORE DUP11 MLOAD SWAP1 PUSH2 0x3660 PUSH2 0x364C PUSH2 0x3638 PUSH2 0x35D8 PUSH2 0x35C5 PUSH2 0x35B5 PUSH2 0x35A5 DUP9 MLOAD PUSH2 0x200 DUP1 DUP11 MSTORE DUP10 ADD SWAP1 PUSH2 0x3310 JUMP JUMPDEST DUP10 DUP10 ADD MLOAD DUP9 DUP3 SUB DUP12 DUP11 ADD MSTORE PUSH2 0x3310 JUMP JUMPDEST DUP8 DUP14 ADD MLOAD DUP8 DUP3 SUB DUP9 DUP16 ADD MSTORE PUSH2 0x3310 JUMP JUMPDEST PUSH1 0x60 DUP1 DUP9 ADD MLOAD SWAP1 DUP8 DUP4 SUB SWAP1 DUP9 ADD MSTORE PUSH2 0x3310 JUMP JUMPDEST PUSH1 0x1 PUSH1 0x1 PUSH1 0xA0 SHL SUB PUSH1 0x80 DUP2 DUP2 DUP10 ADD MLOAD AND SWAP1 DUP8 ADD MSTORE PUSH1 0xA0 DUP1 DUP9 ADD MLOAD SWAP1 DUP8 ADD MSTORE PUSH1 0xC0 DUP1 DUP9 ADD MLOAD SWAP1 DUP8 ADD MSTORE PUSH1 0xE0 SWAP1 DUP2 DUP9 ADD MLOAD AND SWAP1 DUP7 ADD MSTORE PUSH2 0x100 DUP1 DUP8 ADD MLOAD SWAP1 DUP7 ADD MSTORE PUSH2 0x120 DUP1 DUP8 ADD MLOAD ISZERO ISZERO SWAP1 DUP7 ADD MSTORE PUSH2 0x140 DUP1 DUP8 ADD MLOAD SWAP1 DUP7 DUP4 SUB SWAP1 DUP8 ADD MSTORE PUSH2 0x3310 JUMP JUMPDEST PUSH2 0x160 DUP1 DUP7 ADD MLOAD SWAP1 DUP6 DUP4 SUB SWAP1 DUP7 ADD MSTORE PUSH2 0x34CA JUMP JUMPDEST PUSH2 0x180 DUP1 DUP6 ADD MLOAD SWAP1 DUP5 DUP4 SUB SWAP1 DUP6 ADD MSTORE PUSH2 0x34CA JUMP JUMPDEST SWAP2 PUSH2 0x3674 PUSH2 0x1A0 DUP1 DUP4 ADD MLOAD SWAP1 DUP5 ADD SWAP1 PUSH2 0x3526 JUMP JUMPDEST PUSH1 0xFF PUSH2 0x1C0 DUP2 DUP2 DUP5 ADD MLOAD AND SWAP1 DUP5 ADD MSTORE PUSH2 0x1E0 DUP1 SWAP3 ADD MLOAD AND SWAP2 ADD MSTORE SWAP10 ADD SWAP5 ADD SWAP5 ADD SWAP3 SWAP6 SWAP5 SWAP4 SWAP2 SWAP1 PUSH2 0x3557 JUMP JUMPDEST SWAP3 SWAP2 SWAP3 PUSH1 0x1 PUSH1 0x1 PUSH1 0x40 SHL SUB DUP3 GT PUSH2 0x128D JUMPI PUSH1 0x40 MLOAD SWAP2 PUSH2 0x36C8 PUSH1 0x1F DUP3 ADD PUSH1 0x1F NOT AND PUSH1 0x20 ADD DUP5 PUSH2 0x3403 JUMP JUMPDEST DUP3 SWAP5 DUP2 DUP5 MSTORE DUP2 DUP4 ADD GT PUSH2 0x213 JUMPI DUP3 DUP2 PUSH1 0x20 SWAP4 DUP5 PUSH1 0x0 SWAP7 ADD CALLDATACOPY ADD ADD MSTORE JUMP JUMPDEST SWAP1 DUP1 PUSH1 0x1F DUP4 ADD SLT ISZERO PUSH2 0x213 JUMPI DUP2 PUSH1 0x20 PUSH2 0x3700 SWAP4 CALLDATALOAD SWAP2 ADD PUSH2 0x369F JUMP JUMPDEST SWAP1 JUMP JUMPDEST PUSH1 0x20 PUSH2 0x371C SWAP2 DUP2 PUSH1 0x40 MLOAD SWAP4 DUP3 DUP6 DUP1 SWAP5 MLOAD SWAP4 DUP5 SWAP3 ADD PUSH2 0x32ED JUMP JUMPDEST DUP2 ADD PUSH1 0x1 DUP2 MSTORE SUB ADD SWAP1 KECCAK256 SWAP1 JUMP JUMPDEST PUSH1 0x1 PUSH1 0x1 PUSH1 0xA0 SHL SUB PUSH1 0x0 SLOAD AND CALLER SUB PUSH2 0x373D JUMPI JUMP JUMPDEST PUSH1 0x64 PUSH1 0x40 MLOAD PUSH3 0x461BCD PUSH1 0xE5 SHL DUP2 MSTORE PUSH1 0x20 PUSH1 0x4 DUP3 ADD MSTORE PUSH1 0x20 PUSH1 0x24 DUP3 ADD MSTORE PUSH32 0x4F776E61626C653A2063616C6C6572206973206E6F7420746865206F776E6572 PUSH1 0x44 DUP3 ADD MSTORE REVERT JUMPDEST SWAP1 DUP2 PUSH1 0x20 SWAP2 SUB SLT PUSH2 0x213 JUMPI MLOAD DUP1 ISZERO ISZERO DUP2 SUB PUSH2 0x213 JUMPI SWAP1 JUMP JUMPDEST DUP2 DUP2 LT PUSH2 0x37A4 JUMPI POP POP JUMP JUMPDEST PUSH1 0x0 DUP2 SSTORE PUSH1 0x1 ADD PUSH2 0x3799 JUMP JUMPDEST PUSH2 0x37BA DUP2 SLOAD PUSH2 0x33AD JUMP JUMPDEST SWAP1 DUP2 PUSH2 0x37C4 JUMPI POP POP JUMP JUMPDEST DUP2 PUSH1 0x1F PUSH1 0x0 SWAP4 GT PUSH1 0x1 EQ PUSH2 0x37D6 JUMPI POP SSTORE JUMP JUMPDEST SWAP1 DUP1 DUP4 SWAP2 DUP3 MSTORE PUSH2 0x37F5 PUSH1 0x1F PUSH1 0x20 DUP5 KECCAK256 SWAP5 ADD PUSH1 0x5 SHR DUP5 ADD PUSH1 0x1 DUP6 ADD PUSH2 0x3799 JUMP JUMPDEST SSTORE SSTORE JUMP JUMPDEST SWAP2 SWAP1 PUSH1 0x1F DUP2 GT PUSH2 0x3808 JUMPI POP POP POP JUMP JUMPDEST PUSH2 0x3462 SWAP3 PUSH1 0x0 MSTORE PUSH1 0x20 PUSH1 0x0 KECCAK256 SWAP1 PUSH1 0x20 PUSH1 0x1F DUP5 ADD PUSH1 0x5 SHR DUP4 ADD SWAP4 LT PUSH2 0x3834 JUMPI JUMPDEST PUSH1 0x1F ADD PUSH1 0x5 SHR ADD SWAP1 PUSH2 0x3799 JUMP JUMPDEST SWAP1 SWAP2 POP DUP2 SWAP1 PUSH2 0x3827 JUMP JUMPDEST SWAP2 SWAP1 DUP3 ADD DUP1 SWAP3 GT PUSH2 0x384B JUMPI JUMP JUMPDEST PUSH4 0x4E487B71 PUSH1 0xE0 SHL PUSH1 0x0 MSTORE PUSH1 0x11 PUSH1 0x4 MSTORE PUSH1 0x24 PUSH1 0x0 REVERT JUMPDEST ISZERO PUSH2 0x3868 JUMPI JUMP JUMPDEST PUSH1 0x40 MLOAD PUSH3 0x461BCD PUSH1 0xE5 SHL DUP2 MSTORE PUSH1 0x20 PUSH1 0x4 DUP3 ADD MSTORE PUSH1 0x3C PUSH1 0x24 DUP3 ADD MSTORE PUSH32 0x506C65617365207375626D697420796F7572206574682077616C6C6574207075 PUSH1 0x44 DUP3 ADD MSTORE PUSH32 0x626B6579206265666F7265207573696E67207468652073797374656D00000000 PUSH1 0x64 DUP3 ADD MSTORE PUSH1 0x84 SWAP1 REVERT JUMPDEST PUSH1 0x20 SWAP2 SWAP3 DUP4 PUSH1 0x40 MLOAD SWAP5 DUP6 SWAP4 DUP5 CALLDATACOPY DUP3 ADD SWAP1 DUP2 MSTORE SUB ADD SWAP1 KECCAK256 SWAP1 JUMP JUMPDEST PUSH1 0x7 DUP3 LT ISZERO PUSH2 0x1667 JUMPI MSTORE JUMP JUMPDEST SWAP1 PUSH1 0x7 DUP2 LT ISZERO PUSH2 0x1667 JUMPI PUSH1 0xFF DUP1 NOT DUP4 SLOAD AND SWAP2 AND OR SWAP1 SSTORE JUMP JUMPDEST SWAP1 SWAP3 SWAP2 PUSH1 0x1 PUSH1 0x1 PUSH1 0x40 SHL SUB DUP2 GT PUSH2 0x128D JUMPI PUSH2 0x3935 DUP2 PUSH2 0x392F DUP5 SLOAD PUSH2 0x33AD JUMP JUMPDEST DUP5 PUSH2 0x37F9 JUMP JUMPDEST PUSH1 0x0 PUSH1 0x1F DUP3 GT PUSH1 0x1 EQ PUSH2 0x396F JUMPI DUP2 SWAP3 SWAP4 SWAP5 PUSH1 0x0 SWAP3 PUSH2 0x3964 JUMPI JUMPDEST POP POP DUP2 PUSH1 0x1 SHL SWAP2 PUSH1 0x0 NOT SWAP1 PUSH1 0x3 SHL SHR NOT AND OR SWAP1 SSTORE JUMP JUMPDEST ADD CALLDATALOAD SWAP1 POP CODESIZE DUP1 PUSH2 0x394E JUMP JUMPDEST PUSH1 0x1F NOT DUP3 AND SWAP5 DUP4 DUP3 MSTORE PUSH1 0x20 SWAP2 DUP3 DUP2 KECCAK256 SWAP3 DUP2 SWAP1 JUMPDEST DUP9 DUP3 LT PUSH2 0x39BB JUMPI POP POP DUP4 PUSH1 0x1 SWAP6 SWAP7 SWAP8 LT PUSH2 0x39A1 JUMPI JUMPDEST POP POP POP DUP2 SHL ADD SWAP1 SSTORE JUMP JUMPDEST ADD CALLDATALOAD PUSH1 0x0 NOT PUSH1 0x3 DUP5 SWAP1 SHL PUSH1 0xF8 AND SHR NOT AND SWAP1 SSTORE CODESIZE DUP1 DUP1 PUSH2 0x3997 JUMP JUMPDEST DUP1 PUSH1 0x1 DUP5 SWAP7 DUP3 SWAP5 SWAP6 DUP8 ADD CALLDATALOAD DUP2 SSTORE ADD SWAP6 ADD SWAP3 ADD SWAP1 PUSH2 0x3982 JUMP JUMPDEST SWAP2 SWAP1 SWAP2 DUP1 SLOAD PUSH1 0x1 PUSH1 0x40 SHL DUP2 LT ISZERO PUSH2 0x128D JUMPI PUSH2 0x39F3 SWAP2 PUSH1 0x1 DUP3 ADD DUP2 SSTORE PUSH2 0x3395 JUMP JUMPDEST SWAP3 SWAP1 SWAP3 PUSH2 0x20FB JUMPI PUSH2 0x3462 SWAP3 PUSH2 0x3910 JUMP JUMPDEST ISZERO PUSH2 0x3A0A JUMPI JUMP JUMPDEST PUSH1 0x40 MLOAD PUSH3 0x461BCD PUSH1 0xE5 SHL DUP2 MSTORE PUSH1 0x20 PUSH1 0x4 DUP3 ADD MSTORE PUSH1 0x13 PUSH1 0x24 DUP3 ADD MSTORE PUSH19 0x125D195B48191BD95CC81B9BDD08195E1A5CDD PUSH1 0x6A SHL PUSH1 0x44 DUP3 ADD MSTORE PUSH1 0x64 SWAP1 REVERT JUMPDEST SWAP2 SWAP1 DUP3 SUB SWAP2 DUP3 GT PUSH2 0x384B JUMPI JUMP JUMPDEST PUSH1 0x0 NOT DUP2 EQ PUSH2 0x384B JUMPI PUSH1 0x1 ADD SWAP1 JUMP JUMPDEST SWAP1 DUP1 DUP3 EQ PUSH2 0x3B33 JUMPI PUSH2 0x3A73 DUP2 SLOAD PUSH2 0x33AD JUMP JUMPDEST SWAP1 PUSH1 0x1 PUSH1 0x1 PUSH1 0x40 SHL SUB DUP3 GT PUSH2 0x128D JUMPI DUP2 SWAP1 PUSH2 0x3A92 DUP3 PUSH2 0x23E3 DUP7 SLOAD PUSH2 0x33AD JUMP JUMPDEST PUSH1 0x0 SWAP1 PUSH1 0x1F DUP4 GT PUSH1 0x1 EQ PUSH2 0x3AC8 JUMPI PUSH1 0x0 SWAP3 PUSH2 0x3ABD JUMPI POP POP DUP2 PUSH1 0x1 SHL SWAP2 PUSH1 0x0 NOT SWAP1 PUSH1 0x3 SHL SHR NOT AND OR SWAP1 SSTORE JUMP JUMPDEST ADD SLOAD SWAP1 POP CODESIZE DUP1 PUSH2 0x394E JUMP JUMPDEST DUP2 MSTORE PUSH1 0x20 DUP1 DUP3 KECCAK256 DUP6 DUP4 MSTORE DUP2 DUP4 KECCAK256 SWAP4 POP SWAP1 PUSH1 0x1F NOT DUP6 AND SWAP1 DUP4 SWAP1 JUMPDEST DUP3 DUP3 LT PUSH2 0x3B1A JUMPI POP POP SWAP1 DUP5 PUSH1 0x1 SWAP6 SWAP5 SWAP4 SWAP3 LT PUSH2 0x3B01 JUMPI POP POP POP DUP2 SHL ADD SWAP1 SSTORE JUMP JUMPDEST ADD SLOAD PUSH1 0x0 NOT PUSH1 0xF8 DUP5 PUSH1 0x3 SHL AND SHR NOT AND SWAP1 SSTORE CODESIZE DUP1 DUP1 PUSH2 0x3997 JUMP JUMPDEST DUP5 SWAP6 DUP2 SWAP3 SWAP6 DUP6 ADD SLOAD DUP2 SSTORE PUSH1 0x1 DUP1 SWAP2 ADD SWAP7 ADD SWAP5 ADD SWAP1 PUSH2 0x3AE1 JUMP JUMPDEST POP POP JUMP JUMPDEST SWAP2 PUSH1 0x40 MLOAD SWAP3 DUP3 DUP2 DUP6 CALLDATACOPY DUP3 DUP5 ADD DUP5 PUSH1 0x1 SWAP2 DUP3 DUP2 MSTORE PUSH1 0x20 SWAP7 DUP8 SWAP2 SUB ADD SWAP1 KECCAK256 SWAP2 PUSH1 0x9 DUP4 ADD SWAP5 DUP6 SLOAD SWAP7 PUSH1 0xFF DUP9 AND PUSH2 0x3DDE JUMPI PUSH1 0x8 DUP6 ADD SLOAD TIMESTAMP LT PUSH2 0x3D9A JUMPI PUSH1 0x1 PUSH1 0x1 PUSH1 0xA0 SHL SUB SWAP7 PUSH1 0x4 SWAP8 DUP1 DUP10 DUP9 ADD SLOAD AND CALLER EQ SWAP1 DUP2 ISZERO PUSH2 0x3D8A JUMPI JUMPDEST POP ISZERO PUSH2 0x3D20 JUMPI DUP5 DUP1 SWAP10 PUSH1 0xFF SWAP10 SWAP8 SWAP9 SWAP10 NOT AND OR SWAP1 SSTORE PUSH1 0x0 SWAP2 CALLER DUP4 MSTORE PUSH1 0x2 DUP3 MSTORE DUP5 PUSH1 0x40 DUP5 KECCAK256 ADD SWAP4 DUP4 SWAP10 JUMPDEST PUSH2 0x3BCD JUMPI JUMPDEST POP POP POP POP POP POP POP PUSH1 0x6 SWAP2 SWAP3 POP ADD SLOAD ISZERO PUSH2 0x3462 JUMPI JUMP JUMPDEST DUP5 SWAP9 SWAP8 SWAP7 SWAP9 SLOAD SWAP10 DUP11 DUP2 LT ISZERO PUSH2 0x3D16 JUMPI DUP7 SWAP8 SWAP9 SWAP10 SWAP11 PUSH2 0x3BF8 PUSH2 0x3BEF CALLDATASIZE DUP7 DUP7 PUSH2 0x369F JUMP JUMPDEST PUSH2 0x87D DUP13 PUSH2 0x3424 JUMP JUMPDEST PUSH2 0x3C0D JUMPI POP PUSH2 0x3C06 SWAP1 PUSH2 0x3A52 JUMP JUMPDEST SWAP10 SWAP7 PUSH2 0x3BB3 JUMP JUMPDEST SWAP4 SWAP5 SWAP6 SWAP7 POP SWAP2 POP POP PUSH1 0x0 NOT SWAP2 DUP3 DUP2 ADD SWAP1 DUP2 GT PUSH2 0x3D03 JUMPI PUSH2 0x3C30 PUSH2 0x3C38 SWAP2 DUP8 PUSH2 0x3395 JUMP JUMPDEST POP SWAP2 DUP7 PUSH2 0x3395 JUMP JUMPDEST PUSH2 0x3CF1 JUMPI SWAP1 PUSH2 0x3C46 SWAP2 PUSH2 0x3A61 JUMP JUMPDEST DUP4 SLOAD DUP1 ISZERO PUSH2 0x3CDE JUMPI ADD SWAP4 PUSH2 0x3C5A DUP6 DUP6 PUSH2 0x3395 JUMP JUMPDEST SWAP2 SWAP1 SWAP2 PUSH2 0x3CCC JUMPI PUSH1 0x6 SWAP8 SWAP9 POP PUSH2 0x3C70 DUP3 SLOAD PUSH2 0x33AD JUMP JUMPDEST SWAP1 DUP2 PUSH2 0x3C8A JUMPI JUMPDEST POP POP POP POP POP SSTORE DUP3 SWAP2 CODESIZE DUP1 DUP1 DUP1 DUP1 DUP1 PUSH2 0x3BB8 JUMP JUMPDEST DUP5 SWAP1 PUSH1 0x1F DUP1 DUP5 GT PUSH1 0x1 EQ PUSH2 0x3CAA JUMPI POP POP POP POP SWAP1 POP SSTORE JUMPDEST CODESIZE DUP1 DUP1 DUP1 DUP1 PUSH2 0x3C77 JUMP JUMPDEST DUP5 SWAP4 SWAP6 DUP4 SWAP6 PUSH2 0x3CC5 SWAP5 MSTORE DUP6 KECCAK256 SWAP6 ADD PUSH1 0x5 SHR DUP6 ADD SWAP1 DUP6 ADD PUSH2 0x3799 JUMP JUMPDEST SSTORE SSTORE PUSH2 0x3CA0 JUMP JUMPDEST PUSH4 0x4E487B71 PUSH1 0xE0 SHL DUP5 MSTORE DUP4 DUP10 MSTORE PUSH1 0x24 DUP5 REVERT JUMPDEST PUSH4 0x4E487B71 PUSH1 0xE0 SHL DUP5 MSTORE PUSH1 0x31 DUP10 MSTORE PUSH1 0x24 DUP5 REVERT JUMPDEST PUSH4 0x4E487B71 PUSH1 0xE0 SHL DUP6 MSTORE DUP5 DUP11 MSTORE PUSH1 0x24 DUP6 REVERT JUMPDEST PUSH4 0x4E487B71 PUSH1 0xE0 SHL DUP6 MSTORE PUSH1 0x11 DUP11 MSTORE PUSH1 0x24 DUP6 REVERT JUMPDEST POP DUP7 SWAP8 SWAP9 POP PUSH2 0x3BB8 JUMP JUMPDEST PUSH1 0x40 MLOAD PUSH3 0x461BCD PUSH1 0xE5 SHL DUP2 MSTORE DUP1 DUP10 ADD DUP4 SWAP1 MSTORE PUSH1 0x35 PUSH1 0x24 DUP3 ADD MSTORE PUSH32 0x4F6E6C79207468652073656C6C6572206F722068696768657374206269646465 PUSH1 0x44 DUP3 ADD MSTORE PUSH32 0x722063616E20656E64207468652061756374696F6E0000000000000000000000 PUSH1 0x64 DUP3 ADD MSTORE PUSH1 0x84 SWAP1 REVERT JUMPDEST SWAP1 POP PUSH1 0x7 DUP8 ADD SLOAD AND CALLER EQ CODESIZE PUSH2 0x3B8B JUMP JUMPDEST PUSH1 0x64 SWAP1 PUSH1 0x40 MLOAD SWAP1 PUSH3 0x461BCD PUSH1 0xE5 SHL DUP3 MSTORE PUSH1 0x4 DUP3 ADD MSTORE PUSH1 0x19 PUSH1 0x24 DUP3 ADD MSTORE PUSH32 0x41756374696F6E20686173206E6F742079657420656E64656400000000000000 PUSH1 0x44 DUP3 ADD MSTORE REVERT JUMPDEST PUSH1 0x64 SWAP1 PUSH1 0x40 MLOAD SWAP1 PUSH3 0x461BCD PUSH1 0xE5 SHL DUP3 MSTORE PUSH1 0x4 DUP3 ADD MSTORE PUSH1 0x19 PUSH1 0x24 DUP3 ADD MSTORE PUSH32 0x41756374696F6E2068617320616C726561647920656E64656400000000000000 PUSH1 0x44 DUP3 ADD MSTORE REVERT JUMPDEST ISZERO PUSH2 0x3E29 JUMPI JUMP JUMPDEST PUSH1 0x40 MLOAD PUSH3 0x461BCD PUSH1 0xE5 SHL DUP2 MSTORE PUSH1 0x20 PUSH1 0x4 DUP3 ADD MSTORE PUSH1 0x49 PUSH1 0x24 DUP3 ADD MSTORE PUSH32 0x41756374696F6E20686173206E6F7420656E646564207965742C206F7220796F PUSH1 0x44 DUP3 ADD MSTORE PUSH32 0x7520617265206E6F74207468652077696E6E6572206F72206F776E6572206F66 PUSH1 0x64 DUP3 ADD MSTORE PUSH9 0x20746865206974656D PUSH1 0xB8 SHL PUSH1 0x84 DUP3 ADD MSTORE PUSH1 0xA4 SWAP1 REVERT JUMPDEST PUSH1 0x1 PUSH1 0x1 PUSH1 0x40 SHL SUB DUP2 GT PUSH2 0x128D JUMPI PUSH1 0x5 SHL PUSH1 0x20 ADD SWAP1 JUMP JUMPDEST SWAP1 DUP2 SLOAD PUSH2 0x3EC9 DUP2 PUSH2 0x3EA6 JUMP JUMPDEST SWAP3 PUSH2 0x3ED7 PUSH1 0x40 MLOAD SWAP5 DUP6 PUSH2 0x3403 JUMP JUMPDEST DUP2 DUP5 MSTORE PUSH1 0x0 SWAP1 DUP2 MSTORE PUSH1 0x20 DUP1 DUP3 KECCAK256 DUP2 DUP7 ADD JUMPDEST DUP5 DUP5 LT PUSH2 0x3EF6 JUMPI POP POP POP POP POP JUMP JUMPDEST PUSH1 0x1 DUP4 DUP2 SWAP3 PUSH2 0x3F04 DUP6 PUSH2 0x3424 JUMP JUMPDEST DUP2 MSTORE ADD SWAP3 ADD SWAP4 ADD SWAP3 SWAP1 PUSH2 0x3EE8 JUMP JUMPDEST SWAP1 PUSH2 0x3F1C DUP3 PUSH2 0x3EA6 JUMP JUMPDEST PUSH1 0x40 SWAP1 PUSH2 0x3F2B DUP3 MLOAD SWAP2 DUP3 PUSH2 0x3403 JUMP JUMPDEST DUP4 DUP2 MSTORE DUP1 SWAP4 PUSH2 0x3F3C PUSH1 0x1F NOT SWAP2 PUSH2 0x3EA6 JUMP JUMPDEST ADD SWAP2 PUSH1 0x0 JUMPDEST DUP4 DUP2 LT PUSH2 0x3F4E JUMPI POP POP POP POP JUMP JUMPDEST PUSH1 0x20 SWAP1 DUP3 MLOAD PUSH2 0x3F5C DUP2 PUSH2 0x33E7 JUMP JUMPDEST PUSH1 0x60 DUP1 DUP3 MSTORE DUP4 SWAP1 DUP1 DUP3 DUP5 ADD MSTORE DUP1 DUP7 DUP5 ADD MSTORE DUP1 DUP1 DUP5 ADD MSTORE PUSH1 0x0 PUSH1 0x80 DUP5 ADD MSTORE PUSH1 0x0 PUSH1 0xA0 DUP5 ADD MSTORE PUSH1 0x0 PUSH1 0xC0 DUP5 ADD MSTORE PUSH1 0x0 PUSH1 0xE0 DUP5 ADD MSTORE PUSH1 0x0 PUSH2 0x100 DUP5 ADD MSTORE PUSH1 0x0 PUSH2 0x120 DUP5 ADD MSTORE DUP1 PUSH2 0x140 DUP5 ADD MSTORE DUP1 PUSH2 0x160 DUP5 ADD MSTORE PUSH2 0x180 DUP4 ADD MSTORE PUSH1 0x0 PUSH2 0x1A0 DUP4 ADD MSTORE PUSH1 0x0 PUSH2 0x1C0 DUP4 ADD MSTORE PUSH1 0x0 PUSH2 0x1E0 DUP4 ADD MSTORE DUP3 DUP7 ADD ADD MSTORE ADD PUSH2 0x3F41 JUMP JUMPDEST DUP1 MLOAD DUP3 LT ISZERO PUSH2 0x636 JUMPI PUSH1 0x20 SWAP2 PUSH1 0x5 SHL ADD ADD SWAP1 JUMP JUMPDEST PUSH1 0x40 MLOAD SWAP1 DUP2 PUSH1 0x0 DUP3 SLOAD SWAP3 PUSH2 0x3FFC DUP5 PUSH2 0x33AD JUMP JUMPDEST SWAP1 PUSH1 0x1 SWAP5 DUP6 DUP2 AND SWAP1 DUP2 PUSH1 0x0 EQ PUSH2 0x405D JUMPI POP PUSH1 0x1 EQ PUSH2 0x4023 JUMPI JUMPDEST POP POP PUSH1 0x20 SWAP3 DUP2 MSTORE SUB ADD SWAP1 KECCAK256 SWAP1 JUMP JUMPDEST PUSH1 0x0 SWAP1 DUP2 MSTORE PUSH1 0x20 DUP1 DUP3 KECCAK256 SWAP6 SWAP4 POP SWAP1 JUMPDEST DUP3 DUP2 LT PUSH2 0x4049 JUMPI POP POP PUSH1 0x20 SWAP4 POP DUP3 ADD SWAP1 SWAP3 CODESIZE PUSH2 0x4015 JUMP JUMPDEST DUP6 SLOAD DUP8 DUP3 ADD MSTORE SWAP5 DUP4 ADD SWAP5 DUP7 SWAP5 POP DUP2 ADD PUSH2 0x4032 JUMP JUMPDEST PUSH1 0xFF NOT AND DUP6 MSTORE POP POP DUP1 ISZERO ISZERO MUL DUP3 ADD SWAP1 POP PUSH1 0x20 CODESIZE PUSH2 0x4015 JUMP JUMPDEST ISZERO PUSH2 0x407C JUMPI JUMP JUMPDEST PUSH1 0x40 MLOAD PUSH3 0x461BCD PUSH1 0xE5 SHL DUP2 MSTORE PUSH1 0x20 PUSH1 0x4 DUP3 ADD MSTORE PUSH1 0x2A PUSH1 0x24 DUP3 ADD MSTORE PUSH32 0x596F7520617265206E6F7420616E20617574686F72697A656420636F6D6D6974 PUSH1 0x44 DUP3 ADD MSTORE PUSH10 0x3A32B29036B2B6B132B9 PUSH1 0xB1 SHL PUSH1 0x64 DUP3 ADD MSTORE PUSH1 0x84 SWAP1 REVERT JUMPDEST ISZERO PUSH2 0x40DB JUMPI JUMP JUMPDEST PUSH1 0x40 MLOAD PUSH3 0x461BCD PUSH1 0xE5 SHL DUP2 MSTORE PUSH1 0x20 PUSH1 0x4 DUP3 ADD MSTORE PUSH1 0x23 PUSH1 0x24 DUP3 ADD MSTORE PUSH32 0x546869732061756374696F6E20646F65736E2774206861766520612064697370 PUSH1 0x44 DUP3 ADD MSTORE PUSH3 0x757465 PUSH1 0xE8 SHL PUSH1 0x64 DUP3 ADD MSTORE PUSH1 0x84 SWAP1 REVERT JUMPDEST PUSH1 0xFF AND PUSH1 0xFF DUP2 EQ PUSH2 0x384B JUMPI PUSH1 0x1 ADD SWAP1 JUMP JUMPDEST SWAP1 PUSH1 0x40 MLOAD SWAP2 PUSH1 0x20 SWAP3 PUSH2 0x416B DUP5 DUP3 DUP2 PUSH2 0x415E DUP2 DUP4 ADD SWAP7 DUP8 DUP2 MLOAD SWAP4 DUP5 SWAP3 ADD PUSH2 0x32ED JUMP JUMPDEST DUP2 ADD SUB DUP1 DUP5 MSTORE ADD DUP3 PUSH2 0x3403 JUMP JUMPDEST MLOAD SWAP1 KECCAK256 SWAP2 PUSH2 0x418B PUSH1 0x40 MLOAD SWAP2 DUP3 DUP2 PUSH2 0x415E DUP2 DUP4 ADD SWAP7 DUP8 DUP2 MLOAD SWAP4 DUP5 SWAP3 ADD PUSH2 0x32ED JUMP JUMPDEST MLOAD SWAP1 KECCAK256 EQ SWAP1 JUMP INVALID LOG2 PUSH5 0x6970667358 0x22 SLT KECCAK256 TIMESTAMP SWAP1 DUP15 SWAP15 ADDMOD 0xD PUSH18 0xBDBAC0A8962ED86EA3E1C5C4DC38E162324B SWAP14 PUSH17 0x6F0B76DA2A64736F6C6343000813003300 "},"gasEstimates":{"creation":{"codeDepositCost":"3368000","executionCost":"infinite","totalCost":"infinite"},"external":{"activeAuctionOwners(address)":"5340","auctionItems(string)":"infinite","compareStrings(string,string)":"infinite","createAuctionItem(string,string,string,string,uint256)":"infinite","endAuction(string)":"infinite","getActiveAuctioneer(address)":"infinite","getAllAuctions()":"infinite","getAllDisputeAuctions()":"infinite","getAuctionDuration()":"2524","getAuctionItem(string)":"infinite","getChatLogOfItem(string)":"infinite","getConcurrentAuctionsPerUser()":"2600","getCurrentTimestamp()":"308","getDeliveryAddress(string)":"infinite","getMyBidAuctions(address)":"infinite","getMyOwnerAuctions(address)":"infinite","getPubKey(address)":"infinite","getTokensToStake()":"2940","isCommitteeMember(address)":"3125","owner()":"2650","ownerAuctions(address,uint256)":"infinite","placeBid(string,uint256)":"infinite","pubKeys(address)":"infinite","raiseDispute(string)":"infinite","relinquishTokensToOwner()":"infinite","renounceOwnership()":"28230","resolveDispute(string)":"infinite","sendChat(string,string)":"infinite","sendCommitteeChat(string,string)":"infinite","setAuctionDuration(uint64)":"26867","setConcurrentAuctionsPerUser(uint8)":"26877","setDeliveryAddress(string,string)":"infinite","setPubKey(string)":"infinite","setTokensToStake(uint256)":"24755","stakeTokens(uint256)":"infinite","transferOwnership(address)":"28922","transitionEscrowState(string,uint8)":"infinite","voteOnDispute(string,uint8)":"infinite"}},"methodIdentifiers":{"activeAuctionOwners(address)":"fb346ea0","auctionItems(string)":"d31f371e","compareStrings(string,string)":"bed34bba","createAuctionItem(string,string,string,string,uint256)":"1f49c291","endAuction(string)":"ce2ba9bf","getActiveAuctioneer(address)":"676202fe","getAllAuctions()":"cbd2bdfd","getAllDisputeAuctions()":"ee54507b","getAuctionDuration()":"78cb51af","getAuctionItem(string)":"955ab337","getChatLogOfItem(string)":"83c27150","getConcurrentAuctionsPerUser()":"88624ab3","getCurrentTimestamp()":"6c9230db","getDeliveryAddress(string)":"05f3b3f7","getMyBidAuctions(address)":"f1d273c3","getMyOwnerAuctions(address)":"9d6271a0","getPubKey(address)":"fce9512a","getTokensToStake()":"d8bcd0c9","isCommitteeMember(address)":"e636d84b","owner()":"8da5cb5b","ownerAuctions(address,uint256)":"41290273","placeBid(string,uint256)":"a7eaa241","pubKeys(address)":"d1b8b4bf","raiseDispute(string)":"725a3b4b","relinquishTokensToOwner()":"a4bdc06e","renounceOwnership()":"715018a6","resolveDispute(string)":"8f2238ba","sendChat(string,string)":"3098662e","sendCommitteeChat(string,string)":"c1d733db","setAuctionDuration(uint64)":"7c812b39","setConcurrentAuctionsPerUser(uint8)":"7f38d865","setDeliveryAddress(string,string)":"9f19360d","setPubKey(string)":"07412e9c","setTokensToStake(uint256)":"8aaf2761","stakeTokens(uint256)":"7547c7a3","transferOwnership(address)":"f2fde38b","transitionEscrowState(string,uint8)":"016544aa","voteOnDispute(string,uint8)":"9211735b"}},"storageLayout":{"storage":[{"astId":7,"contract":"contracts/Auction.sol:Auction","label":"_owner","offset":0,"slot":"0","type":"t_address"},{"astId":5675,"contract":"contracts/Auction.sol:Auction","label":"auctionItems","offset":0,"slot":"1","type":"t_mapping(t_string_memory_ptr,t_struct(AuctionItem)5654_storage)"},{"astId":5680,"contract":"contracts/Auction.sol:Auction","label":"activeAuctionOwners","offset":0,"slot":"2","type":"t_mapping(t_address,t_struct(ActiveAuctioneer)5662_storage)"},{"astId":5684,"contract":"contracts/Auction.sol:Auction","label":"pubKeys","offset":0,"slot":"3","type":"t_mapping(t_address,t_string_storage)"},{"astId":5688,"contract":"contracts/Auction.sol:Auction","label":"isCommitteeMember","offset":0,"slot":"4","type":"t_mapping(t_address,t_bool)"},{"astId":5693,"contract":"contracts/Auction.sol:Auction","label":"ownerAuctions","offset":0,"slot":"5","type":"t_mapping(t_address,t_array(t_string_storage)dyn_storage)"},{"astId":5698,"contract":"contracts/Auction.sol:Auction","label":"userBidsMapping","offset":0,"slot":"6","type":"t_mapping(t_address,t_struct(UserBids)5670_storage)"},{"astId":5701,"contract":"contracts/Auction.sol:Auction","label":"auctionArr","offset":0,"slot":"7","type":"t_array(t_string_storage)dyn_storage"},{"astId":5704,"contract":"contracts/Auction.sol:Auction","label":"disputeArr","offset":0,"slot":"8","type":"t_array(t_string_storage)dyn_storage"},{"astId":5712,"contract":"contracts/Auction.sol:Auction","label":"tokensToStake","offset":0,"slot":"9","type":"t_uint256"},{"astId":5715,"contract":"contracts/Auction.sol:Auction","label":"token","offset":0,"slot":"10","type":"t_contract(ObscurityToken)7374"},{"astId":5720,"contract":"contracts/Auction.sol:Auction","label":"auctionDuration","offset":20,"slot":"10","type":"t_uint64"},{"astId":5723,"contract":"contracts/Auction.sol:Auction","label":"concurrentAuctionsPerUser","offset":28,"slot":"10","type":"t_uint8"}],"types":{"t_address":{"encoding":"inplace","label":"address","numberOfBytes":"20"},"t_address_payable":{"encoding":"inplace","label":"address payable","numberOfBytes":"20"},"t_array(t_string_storage)dyn_storage":{"base":"t_string_storage","encoding":"dynamic_array","label":"string[]","numberOfBytes":"32"},"t_bool":{"encoding":"inplace","label":"bool","numberOfBytes":"1"},"t_contract(ObscurityToken)7374":{"encoding":"inplace","label":"contract ObscurityToken","numberOfBytes":"20"},"t_enum(EscrowState)5618":{"encoding":"inplace","label":"enum Auction.EscrowState","numberOfBytes":"1"},"t_mapping(t_address,t_array(t_string_storage)dyn_storage)":{"encoding":"mapping","key":"t_address","label":"mapping(address => string[])","numberOfBytes":"32","value":"t_array(t_string_storage)dyn_storage"},"t_mapping(t_address,t_bool)":{"encoding":"mapping","key":"t_address","label":"mapping(address => bool)","numberOfBytes":"32","value":"t_bool"},"t_mapping(t_address,t_string_storage)":{"encoding":"mapping","key":"t_address","label":"mapping(address => string)","numberOfBytes":"32","value":"t_string_storage"},"t_mapping(t_address,t_struct(ActiveAuctioneer)5662_storage)":{"encoding":"mapping","key":"t_address","label":"mapping(address => struct Auction.ActiveAuctioneer)","numberOfBytes":"32","value":"t_struct(ActiveAuctioneer)5662_storage"},"t_mapping(t_address,t_struct(UserBids)5670_storage)":{"encoding":"mapping","key":"t_address","label":"mapping(address => struct Auction.UserBids)","numberOfBytes":"32","value":"t_struct(UserBids)5670_storage"},"t_mapping(t_string_memory_ptr,t_bool)":{"encoding":"mapping","key":"t_string_memory_ptr","label":"mapping(string => bool)","numberOfBytes":"32","value":"t_bool"},"t_mapping(t_string_memory_ptr,t_struct(AuctionItem)5654_storage)":{"encoding":"mapping","key":"t_string_memory_ptr","label":"mapping(string => struct Auction.AuctionItem)","numberOfBytes":"32","value":"t_struct(AuctionItem)5654_storage"},"t_string_memory_ptr":{"encoding":"bytes","label":"string","numberOfBytes":"32"},"t_string_storage":{"encoding":"bytes","label":"string","numberOfBytes":"32"},"t_struct(ActiveAuctioneer)5662_storage":{"encoding":"inplace","label":"struct Auction.ActiveAuctioneer","members":[{"astId":5656,"contract":"contracts/Auction.sol:Auction","label":"stakedAmount","offset":0,"slot":"0","type":"t_uint256"},{"astId":5659,"contract":"contracts/Auction.sol:Auction","label":"activeAuctions","offset":0,"slot":"1","type":"t_array(t_string_storage)dyn_storage"},{"astId":5661,"contract":"contracts/Auction.sol:Auction","label":"isInitialized","offset":0,"slot":"2","type":"t_bool"}],"numberOfBytes":"96"},"t_struct(AuctionItem)5654_storage":{"encoding":"inplace","label":"struct Auction.AuctionItem","members":[{"astId":5620,"contract":"contracts/Auction.sol:Auction","label":"itemId","offset":0,"slot":"0","type":"t_string_storage"},{"astId":5622,"contract":"contracts/Auction.sol:Auction","label":"itemName","offset":0,"slot":"1","type":"t_string_storage"},{"astId":5624,"contract":"contracts/Auction.sol:Auction","label":"itemDescription","offset":0,"slot":"2","type":"t_string_storage"},{"astId":5626,"contract":"contracts/Auction.sol:Auction","label":"hashOfImage","offset":0,"slot":"3","type":"t_string_storage"},{"astId":5628,"contract":"contracts/Auction.sol:Auction","label":"seller","offset":0,"slot":"4","type":"t_address_payable"},{"astId":5630,"contract":"contracts/Auction.sol:Auction","label":"reservePrice","offset":0,"slot":"5","type":"t_uint256"},{"astId":5632,"contract":"contracts/Auction.sol:Auction","label":"highestBid","offset":0,"slot":"6","type":"t_uint256"},{"astId":5634,"contract":"contracts/Auction.sol:Auction","label":"highestBidder","offset":0,"slot":"7","type":"t_address_payable"},{"astId":5636,"contract":"contracts/Auction.sol:Auction","label":"auctionEndTime","offset":0,"slot":"8","type":"t_uint256"},{"astId":5638,"contract":"contracts/Auction.sol:Auction","label":"ended","offset":0,"slot":"9","type":"t_bool"},{"astId":5640,"contract":"contracts/Auction.sol:Auction","label":"deliveryAddress","offset":0,"slot":"10","type":"t_string_storage"},{"astId":5643,"contract":"contracts/Auction.sol:Auction","label":"privateChatLogs","offset":0,"slot":"11","type":"t_array(t_string_storage)dyn_storage"},{"astId":5646,"contract":"contracts/Auction.sol:Auction","label":"committeeChatLogs","offset":0,"slot":"12","type":"t_array(t_string_storage)dyn_storage"},{"astId":5649,"contract":"contracts/Auction.sol:Auction","label":"escrowState","offset":0,"slot":"13","type":"t_enum(EscrowState)5618"},{"astId":5651,"contract":"contracts/Auction.sol:Auction","label":"yesVotes","offset":1,"slot":"13","type":"t_uint8"},{"astId":5653,"contract":"contracts/Auction.sol:Auction","label":"noVotes","offset":2,"slot":"13","type":"t_uint8"}],"numberOfBytes":"448"},"t_struct(UserBids)5670_storage":{"encoding":"inplace","label":"struct Auction.UserBids","members":[{"astId":5665,"contract":"contracts/Auction.sol:Auction","label":"auctionIds","offset":0,"slot":"0","type":"t_array(t_string_storage)dyn_storage"},{"astId":5669,"contract":"contracts/Auction.sol:Auction","label":"auctionExists","offset":0,"slot":"1","type":"t_mapping(t_string_memory_ptr,t_bool)"}],"numberOfBytes":"64"},"t_uint256":{"encoding":"inplace","label":"uint256","numberOfBytes":"32"},"t_uint64":{"encoding":"inplace","label":"uint64","numberOfBytes":"8"},"t_uint8":{"encoding":"inplace","label":"uint8","numberOfBytes":"1"}}},"userdoc":{"kind":"user","methods":{},"version":1}}}}