{
  "_format": "hh-sol-artifact-1",
  "contractName": "ObscurityToken",
  "sourceName": "contracts/ObscurityToken.sol",
  "abi": [
    {
      "inputs": [],
      "stateMutability": "nonpayable",
      "type": "constructor"
    },
    {
      "inputs": [],
      "name": "InvalidShortString",
      "type": "error"
    },
    {
      "inputs": [
        {
          "internalType": "string",
          "name": "str",
          "type": "string"
        }
      ],
      "name": "StringTooLong",
      "type": "error"
    },
    {
      "anonymous": false,
      "inputs": [
        {
          "indexed": true,
          "internalType": "address",
          "name": "owner",
          "type": "address"
        },
        {
          "indexed": true,
          "internalType": "address",
          "name": "spender",
          "type": "address"
        },
        {
          "indexed": false,
          "internalType": "uint256",
          "name": "value",
          "type": "uint256"
        }
      ],
      "name": "Approval",
      "type": "event"
    },
    {
      "anonymous": false,
      "inputs": [
        {
          "indexed": true,
          "internalType": "address",
          "name": "delegator",
          "type": "address"
        },
        {
          "indexed": true,
          "internalType": "address",
          "name": "fromDelegate",
          "type": "address"
        },
        {
          "indexed": true,
          "internalType": "address",
          "name": "toDelegate",
          "type": "address"
        }
      ],
      "name": "DelegateChanged",
      "type": "event"
    },
    {
      "anonymous": false,
      "inputs": [
        {
          "indexed": true,
          "internalType": "address",
          "name": "delegate",
          "type": "address"
        },
        {
          "indexed": false,
          "internalType": "uint256",
          "name": "previousBalance",
          "type": "uint256"
        },
        {
          "indexed": false,
          "internalType": "uint256",
          "name": "newBalance",
          "type": "uint256"
        }
      ],
      "name": "DelegateVotesChanged",
      "type": "event"
    },
    {
      "anonymous": false,
      "inputs": [],
      "name": "EIP712DomainChanged",
      "type": "event"
    },
    {
      "anonymous": false,
      "inputs": [
        {
          "indexed": true,
          "internalType": "address",
          "name": "from",
          "type": "address"
        },
        {
          "indexed": true,
          "internalType": "address",
          "name": "to",
          "type": "address"
        },
        {
          "indexed": false,
          "internalType": "uint256",
          "name": "value",
          "type": "uint256"
        }
      ],
      "name": "Transfer",
      "type": "event"
    },
    {
      "inputs": [],
      "name": "CLOCK_MODE",
      "outputs": [
        {
          "internalType": "string",
          "name": "",
          "type": "string"
        }
      ],
      "stateMutability": "view",
      "type": "function"
    },
    {
      "inputs": [],
      "name": "DOMAIN_SEPARATOR",
      "outputs": [
        {
          "internalType": "bytes32",
          "name": "",
          "type": "bytes32"
        }
      ],
      "stateMutability": "view",
      "type": "function"
    },
    {
      "inputs": [
        {
          "internalType": "address",
          "name": "owner",
          "type": "address"
        },
        {
          "internalType": "address",
          "name": "spender",
          "type": "address"
        }
      ],
      "name": "allowance",
      "outputs": [
        {
          "internalType": "uint256",
          "name": "",
          "type": "uint256"
        }
      ],
      "stateMutability": "view",
      "type": "function"
    },
    {
      "inputs": [
        {
          "internalType": "address",
          "name": "spender",
          "type": "address"
        },
        {
          "internalType": "uint256",
          "name": "amount",
          "type": "uint256"
        }
      ],
      "name": "approve",
      "outputs": [
        {
          "internalType": "bool",
          "name": "",
          "type": "bool"
        }
      ],
      "stateMutability": "nonpayable",
      "type": "function"
    },
    {
      "inputs": [
        {
          "internalType": "address",
          "name": "account",
          "type": "address"
        }
      ],
      "name": "balanceOf",
      "outputs": [
        {
          "internalType": "uint256",
          "name": "",
          "type": "uint256"
        }
      ],
      "stateMutability": "view",
      "type": "function"
    },
    {
      "inputs": [
        {
          "internalType": "address",
          "name": "account",
          "type": "address"
        },
        {
          "internalType": "uint32",
          "name": "pos",
          "type": "uint32"
        }
      ],
      "name": "checkpoints",
      "outputs": [
        {
          "components": [
            {
              "internalType": "uint32",
              "name": "fromBlock",
              "type": "uint32"
            },
            {
              "internalType": "uint224",
              "name": "votes",
              "type": "uint224"
            }
          ],
          "internalType": "struct ERC20Votes.Checkpoint",
          "name": "",
          "type": "tuple"
        }
      ],
      "stateMutability": "view",
      "type": "function"
    },
    {
      "inputs": [],
      "name": "clock",
      "outputs": [
        {
          "internalType": "uint48",
          "name": "",
          "type": "uint48"
        }
      ],
      "stateMutability": "view",
      "type": "function"
    },
    {
      "inputs": [],
      "name": "decimals",
      "outputs": [
        {
          "internalType": "uint8",
          "name": "",
          "type": "uint8"
        }
      ],
      "stateMutability": "view",
      "type": "function"
    },
    {
      "inputs": [
        {
          "internalType": "address",
          "name": "spender",
          "type": "address"
        },
        {
          "internalType": "uint256",
          "name": "subtractedValue",
          "type": "uint256"
        }
      ],
      "name": "decreaseAllowance",
      "outputs": [
        {
          "internalType": "bool",
          "name": "",
          "type": "bool"
        }
      ],
      "stateMutability": "nonpayable",
      "type": "function"
    },
    {
      "inputs": [
        {
          "internalType": "address",
          "name": "delegatee",
          "type": "address"
        }
      ],
      "name": "delegate",
      "outputs": [],
      "stateMutability": "nonpayable",
      "type": "function"
    },
    {
      "inputs": [
        {
          "internalType": "address",
          "name": "delegatee",
          "type": "address"
        },
        {
          "internalType": "uint256",
          "name": "nonce",
          "type": "uint256"
        },
        {
          "internalType": "uint256",
          "name": "expiry",
          "type": "uint256"
        },
        {
          "internalType": "uint8",
          "name": "v",
          "type": "uint8"
        },
        {
          "internalType": "bytes32",
          "name": "r",
          "type": "bytes32"
        },
        {
          "internalType": "bytes32",
          "name": "s",
          "type": "bytes32"
        }
      ],
      "name": "delegateBySig",
      "outputs": [],
      "stateMutability": "nonpayable",
      "type": "function"
    },
    {
      "inputs": [
        {
          "internalType": "address",
          "name": "account",
          "type": "address"
        }
      ],
      "name": "delegates",
      "outputs": [
        {
          "internalType": "address",
          "name": "",
          "type": "address"
        }
      ],
      "stateMutability": "view",
      "type": "function"
    },
    {
      "inputs": [],
      "name": "eip712Domain",
      "outputs": [
        {
          "internalType": "bytes1",
          "name": "fields",
          "type": "bytes1"
        },
        {
          "internalType": "string",
          "name": "name",
          "type": "string"
        },
        {
          "internalType": "string",
          "name": "version",
          "type": "string"
        },
        {
          "internalType": "uint256",
          "name": "chainId",
          "type": "uint256"
        },
        {
          "internalType": "address",
          "name": "verifyingContract",
          "type": "address"
        },
        {
          "internalType": "bytes32",
          "name": "salt",
          "type": "bytes32"
        },
        {
          "internalType": "uint256[]",
          "name": "extensions",
          "type": "uint256[]"
        }
      ],
      "stateMutability": "view",
      "type": "function"
    },
    {
      "inputs": [
        {
          "internalType": "uint256",
          "name": "timepoint",
          "type": "uint256"
        }
      ],
      "name": "getPastTotalSupply",
      "outputs": [
        {
          "internalType": "uint256",
          "name": "",
          "type": "uint256"
        }
      ],
      "stateMutability": "view",
      "type": "function"
    },
    {
      "inputs": [
        {
          "internalType": "address",
          "name": "account",
          "type": "address"
        },
        {
          "internalType": "uint256",
          "name": "timepoint",
          "type": "uint256"
        }
      ],
      "name": "getPastVotes",
      "outputs": [
        {
          "internalType": "uint256",
          "name": "",
          "type": "uint256"
        }
      ],
      "stateMutability": "view",
      "type": "function"
    },
    {
      "inputs": [
        {
          "internalType": "address",
          "name": "account",
          "type": "address"
        }
      ],
      "name": "getVotes",
      "outputs": [
        {
          "internalType": "uint256",
          "name": "",
          "type": "uint256"
        }
      ],
      "stateMutability": "view",
      "type": "function"
    },
    {
      "inputs": [
        {
          "internalType": "address",
          "name": "spender",
          "type": "address"
        },
        {
          "internalType": "uint256",
          "name": "addedValue",
          "type": "uint256"
        }
      ],
      "name": "increaseAllowance",
      "outputs": [
        {
          "internalType": "bool",
          "name": "",
          "type": "bool"
        }
      ],
      "stateMutability": "nonpayable",
      "type": "function"
    },
    {
      "inputs": [],
      "name": "name",
      "outputs": [
        {
          "internalType": "string",
          "name": "",
          "type": "string"
        }
      ],
      "stateMutability": "view",
      "type": "function"
    },
    {
      "inputs": [
        {
          "internalType": "address",
          "name": "owner",
          "type": "address"
        }
      ],
      "name": "nonces",
      "outputs": [
        {
          "internalType": "uint256",
          "name": "",
          "type": "uint256"
        }
      ],
      "stateMutability": "view",
      "type": "function"
    },
    {
      "inputs": [
        {
          "internalType": "address",
          "name": "account",
          "type": "address"
        }
      ],
      "name": "numCheckpoints",
      "outputs": [
        {
          "internalType": "uint32",
          "name": "",
          "type": "uint32"
        }
      ],
      "stateMutability": "view",
      "type": "function"
    },
    {
      "inputs": [
        {
          "internalType": "address",
          "name": "owner",
          "type": "address"
        },
        {
          "internalType": "address",
          "name": "spender",
          "type": "address"
        },
        {
          "internalType": "uint256",
          "name": "value",
          "type": "uint256"
        },
        {
          "internalType": "uint256",
          "name": "deadline",
          "type": "uint256"
        },
        {
          "internalType": "uint8",
          "name": "v",
          "type": "uint8"
        },
        {
          "internalType": "bytes32",
          "name": "r",
          "type": "bytes32"
        },
        {
          "internalType": "bytes32",
          "name": "s",
          "type": "bytes32"
        }
      ],
      "name": "permit",
      "outputs": [],
      "stateMutability": "nonpayable",
      "type": "function"
    },
    {
      "inputs": [],
      "name": "s_maxSupply",
      "outputs": [
        {
          "internalType": "uint256",
          "name": "",
          "type": "uint256"
        }
      ],
      "stateMutability": "view",
      "type": "function"
    },
    {
      "inputs": [],
      "name": "symbol",
      "outputs": [
        {
          "internalType": "string",
          "name": "",
          "type": "string"
        }
      ],
      "stateMutability": "view",
      "type": "function"
    },
    {
      "inputs": [],
      "name": "totalSupply",
      "outputs": [
        {
          "internalType": "uint256",
          "name": "",
          "type": "uint256"
        }
      ],
      "stateMutability": "view",
      "type": "function"
    },
    {
      "inputs": [
        {
          "internalType": "address",
          "name": "to",
          "type": "address"
        },
        {
          "internalType": "uint256",
          "name": "amount",
          "type": "uint256"
        }
      ],
      "name": "transfer",
      "outputs": [
        {
          "internalType": "bool",
          "name": "",
          "type": "bool"
        }
      ],
      "stateMutability": "nonpayable",
      "type": "function"
    },
    {
      "inputs": [
        {
          "internalType": "address",
          "name": "from",
          "type": "address"
        },
        {
          "internalType": "address",
          "name": "to",
          "type": "address"
        },
        {
          "internalType": "uint256",
          "name": "amount",
          "type": "uint256"
        }
      ],
      "name": "transferFrom",
      "outputs": [
        {
          "internalType": "bool",
          "name": "",
          "type": "bool"
        }
      ],
      "stateMutability": "nonpayable",
      "type": "function"
    }
  ],
  "bytecode": "0x61016060405269d3c21bcecceda1000000600c553480156200002057600080fd5b506040518060400160405280600e81526020016d27b139b1bab934ba3caa37b5b2b760911b81525080604051806040016040528060018152602001603160f81b8152506040518060400160405280600e81526020016d27b139b1bab934ba3caa37b5b2b760911b8152506040518060400160405280600281526020016113d560f21b8152508160039081620000b69190620008c7565b506004620000c58282620008c7565b50620000d79150839050600562000196565b61012052620000e881600662000196565b61014052815160208084019190912060e052815190820120610100524660a0526200017660e05161010051604080517f8b73c3c69bb8fe3d512ecc4cf759cc79239f7b179b0ffacaa9a75d522b39400f60208201529081019290925260608201524660808201523060a082015260009060c00160405160208183030381529060405280519060200120905090565b60805250503060c05250600c5462000190903390620001cf565b62000a4a565b6000602083511015620001b657620001ae83620001df565b9050620001c9565b81620001c38482620008c7565b5060ff90505b92915050565b620001db82826200022b565b5050565b600080829050601f8151111562000216578260405163305a27a960e01b81526004016200020d919062000993565b60405180910390fd5b80516200022382620009e3565b179392505050565b620002378282620002d3565b6001600160e01b036200024b620003a08216565b1115620002b45760405162461bcd60e51b815260206004820152603060248201527f4552433230566f7465733a20746f74616c20737570706c79207269736b73206f60448201526f766572666c6f77696e6720766f74657360801b60648201526084016200020d565b620002cd600b62000bd6620003a660201b1783620003bb565b50505050565b6001600160a01b0382166200032b5760405162461bcd60e51b815260206004820152601f60248201527f45524332303a206d696e7420746f20746865207a65726f20616464726573730060448201526064016200020d565b80600260008282546200033f919062000a1e565b90915550506001600160a01b038216600081815260208181526040808320805486019055518481527fddf252ad1be2c89b69c2b068fc378daa952ba7f163c4a11628f55a4df523b3ef910160405180910390a3620001db6000838362000548565b60025490565b6000620003b4828462000a1e565b9392505050565b825460009081908181156200040a5760008781526020902082016000190160408051808201909152905463ffffffff8116825264010000000090046001600160e01b031660208201526200041f565b60408051808201909152600080825260208201525b905080602001516001600160e01b031693506200043d84868860201c565b92506000821180156200046a57506200045562000555565b65ffffffffffff16816000015163ffffffff16145b15620004b3576200047b8362000567565b60008881526020902083016000190180546001600160e01b03929092166401000000000263ffffffff90921691909117905562000539565b866040518060400160405280620004e1620004d36200055560201b60201c565b65ffffffffffff16620005d6565b63ffffffff168152602001620004f78662000567565b6001600160e01b0390811690915282546001810184556000938452602093849020835194909301519091166401000000000263ffffffff909316929092179101555b5050935093915050565b505050565b620005438383836200063d565b6000620005624362000671565b905090565b60006001600160e01b03821115620005d25760405162461bcd60e51b815260206004820152602760248201527f53616665436173743a2076616c756520646f65736e27742066697420696e20326044820152663234206269747360c81b60648201526084016200020d565b5090565b600063ffffffff821115620005d25760405162461bcd60e51b815260206004820152602660248201527f53616665436173743a2076616c756520646f65736e27742066697420696e203360448201526532206269747360d01b60648201526084016200020d565b6001600160a01b038381166000908152600960205260408082205485841683529120546200054392918216911683620006da565b600065ffffffffffff821115620005d25760405162461bcd60e51b815260206004820152602660248201527f53616665436173743a2076616c756520646f65736e27742066697420696e203460448201526538206269747360d01b60648201526084016200020d565b816001600160a01b0316836001600160a01b031614158015620006fd5750600081115b1562000543576001600160a01b038316156200078a576001600160a01b0383166000908152600a602090815260408220829162000747919062000815901b62000be21785620003bb565b91509150846001600160a01b0316600080516020620029d483398151915283836040516200077f929190918252602082015260400190565b60405180910390a250505b6001600160a01b0382161562000543576001600160a01b0382166000908152600a6020908152604082208291620007ce9190620003a6901b62000bd61785620003bb565b91509150836001600160a01b0316600080516020620029d4833981519152838360405162000806929190918252602082015260400190565b60405180910390a25050505050565b6000620003b4828462000a34565b634e487b7160e01b600052604160045260246000fd5b600181811c908216806200084e57607f821691505b6020821081036200086f57634e487b7160e01b600052602260045260246000fd5b50919050565b601f8211156200054357600081815260208120601f850160051c810160208610156200089e5750805b601f850160051c820191505b81811015620008bf57828155600101620008aa565b505050505050565b81516001600160401b03811115620008e357620008e362000823565b620008fb81620008f4845462000839565b8462000875565b602080601f8311600181146200093357600084156200091a5750858301515b600019600386901b1c1916600185901b178555620008bf565b600085815260208120601f198616915b82811015620009645788860151825594840194600190910190840162000943565b5085821015620009835787850151600019600388901b60f8161c191681555b5050505050600190811b01905550565b600060208083528351808285015260005b81811015620009c257858101830151858201604001528201620009a4565b506000604082860101526040601f19601f8301168501019250505092915050565b805160208083015191908110156200086f5760001960209190910360031b1b16919050565b634e487b7160e01b600052601160045260246000fd5b80820180821115620001c957620001c962000a08565b81810381811115620001c957620001c962000a08565b60805160a05160c05160e051610100516101205161014051611f2f62000aa560003960006106b1015260006106860152600061101001526000610fe801526000610f4301526000610f6d01526000610f970152611f2f6000f3fe608060405234801561001057600080fd5b506004361061018e5760003560e01c806370a08231116100de5780639ab24eb011610097578063c3cda52011610071578063c3cda52014610392578063d505accf146103a5578063dd62ed3e146103b8578063f1127ed8146103cb57600080fd5b80639ab24eb014610359578063a457c2d71461036c578063a9059cbb1461037f57600080fd5b806370a08231146102c85780637ecebe00146102f157806384b0196e146103045780638e539e8c1461031f57806391ddadf41461033257806395d89b411461035157600080fd5b8063395093511161014b578063587cde1e11610125578063587cde1e1461023e5780635c19a95c146102825780635d641847146102975780636fcfff45146102a057600080fd5b806339509351146102105780633a46b1a8146102235780634bf5d7e91461023657600080fd5b806306fdde0314610193578063095ea7b3146101b157806318160ddd146101d457806323b872dd146101e6578063313ce567146101f95780633644e51514610208575b600080fd5b61019b610408565b6040516101a89190611b80565b60405180910390f35b6101c46101bf366004611baf565b61049a565b60405190151581526020016101a8565b6002545b6040519081526020016101a8565b6101c46101f4366004611bd9565b6104b4565b604051601281526020016101a8565b6101d86104d8565b6101c461021e366004611baf565b6104e7565b6101d8610231366004611baf565b610509565b61019b610593565b61026a61024c366004611c15565b6001600160a01b039081166000908152600960205260409020541690565b6040516001600160a01b0390911681526020016101a8565b610295610290366004611c15565b61062b565b005b6101d8600c5481565b6102b36102ae366004611c15565b610638565b60405163ffffffff90911681526020016101a8565b6101d86102d6366004611c15565b6001600160a01b031660009081526020819052604090205490565b6101d86102ff366004611c15565b61065a565b61030c610678565b6040516101a89796959493929190611c30565b6101d861032d366004611cc6565b610701565b61033a610768565b60405165ffffffffffff90911681526020016101a8565b61019b610773565b6101d8610367366004611c15565b610782565b6101c461037a366004611baf565b610804565b6101c461038d366004611baf565b61087f565b6102956103a0366004611cf0565b61088d565b6102956103b3366004611d48565b6109c3565b6101d86103c6366004611db2565b610b27565b6103de6103d9366004611de5565b610b52565b60408051825163ffffffff1681526020928301516001600160e01b031692810192909252016101a8565b60606003805461041790611e25565b80601f016020809104026020016040519081016040528092919081815260200182805461044390611e25565b80156104905780601f1061046557610100808354040283529160200191610490565b820191906000526020600020905b81548152906001019060200180831161047357829003601f168201915b5050505050905090565b6000336104a8818585610bee565b60019150505b92915050565b6000336104c2858285610d12565b6104cd858585610d8c565b506001949350505050565b60006104e2610f36565b905090565b6000336104a88185856104fa8383610b27565b6105049190611e6f565b610bee565b6000610513610768565b65ffffffffffff16821061056a5760405162461bcd60e51b815260206004820152601960248201527804552433230566f7465733a20667574757265206c6f6f6b757603c1b60448201526064015b60405180910390fd5b6001600160a01b0383166000908152600a6020526040902061058c9083611061565b9392505050565b60604361059e610768565b65ffffffffffff16146105f35760405162461bcd60e51b815260206004820152601d60248201527f4552433230566f7465733a2062726f6b656e20636c6f636b206d6f64650000006044820152606401610561565b5060408051808201909152601d81527f6d6f64653d626c6f636b6e756d6265722666726f6d3d64656661756c74000000602082015290565b610635338261114a565b50565b6001600160a01b0381166000908152600a60205260408120546104ae906111c3565b6001600160a01b0381166000908152600760205260408120546104ae565b6000606080828080836106ac7f0000000000000000000000000000000000000000000000000000000000000000600561122c565b6106d77f0000000000000000000000000000000000000000000000000000000000000000600661122c565b60408051600080825260208201909252600f60f81b9b939a50919850469750309650945092509050565b600061070b610768565b65ffffffffffff16821061075d5760405162461bcd60e51b815260206004820152601960248201527804552433230566f7465733a20667574757265206c6f6f6b757603c1b6044820152606401610561565b6104ae600b83611061565b60006104e2436112d7565b60606004805461041790611e25565b6001600160a01b0381166000908152600a602052604081205480156107f1576001600160a01b0383166000908152600a60205260409020805460001983019081106107cf576107cf611e82565b60009182526020909120015464010000000090046001600160e01b03166107f4565b60005b6001600160e01b03169392505050565b600033816108128286610b27565b9050838110156108725760405162461bcd60e51b815260206004820152602560248201527f45524332303a2064656372656173656420616c6c6f77616e63652062656c6f77604482015264207a65726f60d81b6064820152608401610561565b6104cd8286868403610bee565b6000336104a8818585610d8c565b834211156108dd5760405162461bcd60e51b815260206004820152601d60248201527f4552433230566f7465733a207369676e617475726520657870697265640000006044820152606401610561565b604080517fe48329057bfd03d55e49b547132e39cffd9c1820ad7b9d4c5307691425d15adf60208201526001600160a01b0388169181019190915260608101869052608081018590526000906109579061094f9060a0016040516020818303038152906040528051906020012061133e565b85858561136b565b905061096281611393565b86146109b05760405162461bcd60e51b815260206004820152601960248201527f4552433230566f7465733a20696e76616c6964206e6f6e6365000000000000006044820152606401610561565b6109ba818861114a565b50505050505050565b83421115610a135760405162461bcd60e51b815260206004820152601d60248201527f45524332305065726d69743a206578706972656420646561646c696e650000006044820152606401610561565b60007f6e71edae12b1b97f4d1f60370fef10105fa2faae0126114a169c64845d6126c9888888610a428c611393565b6040805160208101969096526001600160a01b0394851690860152929091166060840152608083015260a082015260c0810186905260e0016040516020818303038152906040528051906020012090506000610a9d8261133e565b90506000610aad8287878761136b565b9050896001600160a01b0316816001600160a01b031614610b105760405162461bcd60e51b815260206004820152601e60248201527f45524332305065726d69743a20696e76616c6964207369676e617475726500006044820152606401610561565b610b1b8a8a8a610bee565b50505050505050505050565b6001600160a01b03918216600090815260016020908152604080832093909416825291909152205490565b60408051808201909152600080825260208201526001600160a01b0383166000908152600a60205260409020805463ffffffff8416908110610b9657610b96611e82565b60009182526020918290206040805180820190915291015463ffffffff8116825264010000000090046001600160e01b0316918101919091529392505050565b600061058c8284611e6f565b600061058c8284611e98565b6001600160a01b038316610c505760405162461bcd60e51b8152602060048201526024808201527f45524332303a20617070726f76652066726f6d20746865207a65726f206164646044820152637265737360e01b6064820152608401610561565b6001600160a01b038216610cb15760405162461bcd60e51b815260206004820152602260248201527f45524332303a20617070726f766520746f20746865207a65726f206164647265604482015261737360f01b6064820152608401610561565b6001600160a01b0383811660008181526001602090815260408083209487168084529482529182902085905590518481527f8c5be1e5ebec7d5bd14f71427d1e84f3dd0314c0f7b2291e5b200ac8c7c3b925910160405180910390a3505050565b6000610d1e8484610b27565b90506000198114610d865781811015610d795760405162461bcd60e51b815260206004820152601d60248201527f45524332303a20696e73756666696369656e7420616c6c6f77616e63650000006044820152606401610561565b610d868484848403610bee565b50505050565b6001600160a01b038316610df05760405162461bcd60e51b815260206004820152602560248201527f45524332303a207472616e736665722066726f6d20746865207a65726f206164604482015264647265737360d81b6064820152608401610561565b6001600160a01b038216610e525760405162461bcd60e51b815260206004820152602360248201527f45524332303a207472616e7366657220746f20746865207a65726f206164647260448201526265737360e81b6064820152608401610561565b6001600160a01b03831660009081526020819052604090205481811015610eca5760405162461bcd60e51b815260206004820152602660248201527f45524332303a207472616e7366657220616d6f756e7420657863656564732062604482015265616c616e636560d01b6064820152608401610561565b6001600160a01b03848116600081815260208181526040808320878703905593871680835291849020805487019055925185815290927fddf252ad1be2c89b69c2b068fc378daa952ba7f163c4a11628f55a4df523b3ef910160405180910390a3610d868484846113c0565b6000306001600160a01b037f000000000000000000000000000000000000000000000000000000000000000016148015610f8f57507f000000000000000000000000000000000000000000000000000000000000000046145b15610fb957507f000000000000000000000000000000000000000000000000000000000000000090565b6104e2604080517f8b73c3c69bb8fe3d512ecc4cf759cc79239f7b179b0ffacaa9a75d522b39400f60208201527f0000000000000000000000000000000000000000000000000000000000000000918101919091527f000000000000000000000000000000000000000000000000000000000000000060608201524660808201523060a082015260009060c00160405160208183030381529060405280519060200120905090565b8154600090818160058111156110bb57600061107c846113cb565b6110869085611e98565b600088815260209020909150869082015463ffffffff1611156110ab578091506110b9565b6110b6816001611e6f565b92505b505b808210156111085760006110cf83836114b3565b600088815260209020909150869082015463ffffffff1611156110f457809150611102565b6110ff816001611e6f565b92505b506110bb565b8015611134576000868152602090208101600019015464010000000090046001600160e01b0316611137565b60005b6001600160e01b03169695505050505050565b6001600160a01b038281166000818152600960208181526040808420805485845282862054949093528787166001600160a01b03198416811790915590519190951694919391928592917f3134e8a2e6d97e929a7e54011ea5485d7d196dd5f0ba4d4ef95803e8e3fc257f9190a4610d868284836114ce565b600063ffffffff8211156112285760405162461bcd60e51b815260206004820152602660248201527f53616665436173743a2076616c756520646f65736e27742066697420696e203360448201526532206269747360d01b6064820152608401610561565b5090565b606060ff83146112465761123f8361160b565b90506104ae565b81805461125290611e25565b80601f016020809104026020016040519081016040528092919081815260200182805461127e90611e25565b80156112cb5780601f106112a0576101008083540402835291602001916112cb565b820191906000526020600020905b8154815290600101906020018083116112ae57829003601f168201915b505050505090506104ae565b600065ffffffffffff8211156112285760405162461bcd60e51b815260206004820152602660248201527f53616665436173743a2076616c756520646f65736e27742066697420696e203460448201526538206269747360d01b6064820152608401610561565b60006104ae61134b610f36565b8360405161190160f01b8152600281019290925260228201526042902090565b600080600061137c8787878761164a565b915091506113898161170e565b5095945050505050565b6001600160a01b03811660009081526007602052604090208054600181018255905b50919050565b505050565b6113bb838383611858565b6000816000036113dd57506000919050565b600060016113ea8461188a565b901c6001901b9050600181848161140357611403611eab565b048201901c9050600181848161141b5761141b611eab565b048201901c9050600181848161143357611433611eab565b048201901c9050600181848161144b5761144b611eab565b048201901c9050600181848161146357611463611eab565b048201901c9050600181848161147b5761147b611eab565b048201901c9050600181848161149357611493611eab565b048201901c905061058c818285816114ad576114ad611eab565b0461191e565b60006114c26002848418611ec1565b61058c90848416611e6f565b816001600160a01b0316836001600160a01b0316141580156114f05750600081115b156113bb576001600160a01b0383161561157e576001600160a01b0383166000908152600a60205260408120819061152b90610be285611934565b91509150846001600160a01b03167fdec2bacdd2f05b59de34da9b523dff8be42e5e38e818c82fdb0bae774387a7248383604051611573929190918252602082015260400190565b60405180910390a250505b6001600160a01b038216156113bb576001600160a01b0382166000908152600a6020526040812081906115b490610bd685611934565b91509150836001600160a01b03167fdec2bacdd2f05b59de34da9b523dff8be42e5e38e818c82fdb0bae774387a72483836040516115fc929190918252602082015260400190565b60405180910390a25050505050565b6060600061161883611aa9565b604080516020808252818301909252919250600091906020820181803683375050509182525060208101929092525090565b6000807f7fffffffffffffffffffffffffffffff5d576e7357a4501ddfe92f46681b20a08311156116815750600090506003611705565b6040805160008082526020820180845289905260ff881692820192909252606081018690526080810185905260019060a0016020604051602081039080840390855afa1580156116d5573d6000803e3d6000fd5b5050604051601f1901519150506001600160a01b0381166116fe57600060019250925050611705565b9150600090505b94509492505050565b600081600481111561172257611722611ee3565b0361172a5750565b600181600481111561173e5761173e611ee3565b0361178b5760405162461bcd60e51b815260206004820152601860248201527f45434453413a20696e76616c6964207369676e617475726500000000000000006044820152606401610561565b600281600481111561179f5761179f611ee3565b036117ec5760405162461bcd60e51b815260206004820152601f60248201527f45434453413a20696e76616c6964207369676e6174757265206c656e677468006044820152606401610561565b600381600481111561180057611800611ee3565b036106355760405162461bcd60e51b815260206004820152602260248201527f45434453413a20696e76616c6964207369676e6174757265202773272076616c604482015261756560f01b6064820152608401610561565b6001600160a01b038381166000908152600960205260408082205485841683529120546113bb929182169116836114ce565b600080608083901c1561189f57608092831c92015b604083901c156118b157604092831c92015b602083901c156118c357602092831c92015b601083901c156118d557601092831c92015b600883901c156118e757600892831c92015b600483901c156118f957600492831c92015b600283901c1561190b57600292831c92015b600183901c156104ae5760010192915050565b600081831061192d578161058c565b5090919050565b825460009081908181156119815760008781526020902082016000190160408051808201909152905463ffffffff8116825264010000000090046001600160e01b03166020820152611996565b60408051808201909152600080825260208201525b905080602001516001600160e01b031693506119b684868863ffffffff16565b92506000821180156119e057506119cb610768565b65ffffffffffff16816000015163ffffffff16145b15611a25576119ee83611ad1565b60008881526020902083016000190180546001600160e01b03929092166401000000000263ffffffff909216919091179055611a9f565b866040518060400160405280611a49611a3c610768565b65ffffffffffff166111c3565b63ffffffff168152602001611a5d86611ad1565b6001600160e01b0390811690915282546001810184556000938452602093849020835194909301519091166401000000000263ffffffff909316929092179101555b5050935093915050565b600060ff8216601f8111156104ae57604051632cd44ac360e21b815260040160405180910390fd5b60006001600160e01b038211156112285760405162461bcd60e51b815260206004820152602760248201527f53616665436173743a2076616c756520646f65736e27742066697420696e20326044820152663234206269747360c81b6064820152608401610561565b6000815180845260005b81811015611b6057602081850181015186830182015201611b44565b506000602082860101526020601f19601f83011685010191505092915050565b60208152600061058c6020830184611b3a565b80356001600160a01b0381168114611baa57600080fd5b919050565b60008060408385031215611bc257600080fd5b611bcb83611b93565b946020939093013593505050565b600080600060608486031215611bee57600080fd5b611bf784611b93565b9250611c0560208501611b93565b9150604084013590509250925092565b600060208284031215611c2757600080fd5b61058c82611b93565b60ff60f81b881681526000602060e081840152611c5060e084018a611b3a565b8381036040850152611c62818a611b3a565b606085018990526001600160a01b038816608086015260a0850187905284810360c0860152855180825283870192509083019060005b81811015611cb457835183529284019291840191600101611c98565b50909c9b505050505050505050505050565b600060208284031215611cd857600080fd5b5035919050565b803560ff81168114611baa57600080fd5b60008060008060008060c08789031215611d0957600080fd5b611d1287611b93565b95506020870135945060408701359350611d2e60608801611cdf565b92506080870135915060a087013590509295509295509295565b600080600080600080600060e0888a031215611d6357600080fd5b611d6c88611b93565b9650611d7a60208901611b93565b95506040880135945060608801359350611d9660808901611cdf565b925060a0880135915060c0880135905092959891949750929550565b60008060408385031215611dc557600080fd5b611dce83611b93565b9150611ddc60208401611b93565b90509250929050565b60008060408385031215611df857600080fd5b611e0183611b93565b9150602083013563ffffffff81168114611e1a57600080fd5b809150509250929050565b600181811c90821680611e3957607f821691505b6020821081036113b557634e487b7160e01b600052602260045260246000fd5b634e487b7160e01b600052601160045260246000fd5b808201808211156104ae576104ae611e59565b634e487b7160e01b600052603260045260246000fd5b818103818111156104ae576104ae611e59565b634e487b7160e01b600052601260045260246000fd5b600082611ede57634e487b7160e01b600052601260045260246000fd5b500490565b634e487b7160e01b600052602160045260246000fdfea2646970667358221220485d16508a9649c3c11e4547b4e118c6fab3d855e5990fce61b89319c55c1d4c64736f6c63430008130033dec2bacdd2f05b59de34da9b523dff8be42e5e38e818c82fdb0bae774387a724",
  "linkReferences": {},
  "deployedLinkReferences": {}
}