{
  "address": "0x8A791620dd6260079BF849Dc5567aDC3F2FdC318",
  "abi": [
    {
      "inputs": [
        {
          "internalType": "contract ObscurityToken",
          "name": "_token",
          "type": "address"
        }
      ],
      "stateMutability": "nonpayable",
      "type": "constructor"
    },
    {
      "anonymous": false,
      "inputs": [
        {
          "indexed": true,
          "internalType": "string",
          "name": "itemId",
          "type": "string"
        },
        {
          "indexed": false,
          "internalType": "string",
          "name": "itemName",
          "type": "string"
        }
      ],
      "name": "AuctionItemCreated",
      "type": "event"
    },
    {
      "anonymous": false,
      "inputs": [
        {
          "indexed": true,
          "internalType": "address",
          "name": "previousOwner",
          "type": "address"
        },
        {
          "indexed": true,
          "internalType": "address",
          "name": "newOwner",
          "type": "address"
        }
      ],
      "name": "OwnershipTransferred",
      "type": "event"
    },
    {
      "inputs": [
        {
          "internalType": "address",
          "name": "",
          "type": "address"
        }
      ],
      "name": "activeAuctionOwners",
      "outputs": [
        {
          "internalType": "uint256",
          "name": "stakedAmount",
          "type": "uint256"
        },
        {
          "internalType": "bool",
          "name": "isInitialized",
          "type": "bool"
        }
      ],
      "stateMutability": "view",
      "type": "function"
    },
    {
      "inputs": [
        {
          "internalType": "string",
          "name": "",
          "type": "string"
        }
      ],
      "name": "auctionItems",
      "outputs": [
        {
          "internalType": "string",
          "name": "itemId",
          "type": "string"
        },
        {
          "internalType": "string",
          "name": "itemName",
          "type": "string"
        },
        {
          "internalType": "string",
          "name": "itemDescription",
          "type": "string"
        },
        {
          "internalType": "string",
          "name": "hashOfImage",
          "type": "string"
        },
        {
          "internalType": "address payable",
          "name": "seller",
          "type": "address"
        },
        {
          "internalType": "uint256",
          "name": "reservePrice",
          "type": "uint256"
        },
        {
          "internalType": "uint256",
          "name": "highestBid",
          "type": "uint256"
        },
        {
          "internalType": "address payable",
          "name": "highestBidder",
          "type": "address"
        },
        {
          "internalType": "uint256",
          "name": "auctionEndTime",
          "type": "uint256"
        },
        {
          "internalType": "bool",
          "name": "ended",
          "type": "bool"
        },
        {
          "internalType": "string",
          "name": "deliveryAddress",
          "type": "string"
        },
        {
          "internalType": "enum Auction.EscrowState",
          "name": "escrowState",
          "type": "uint8"
        },
        {
          "internalType": "uint8",
          "name": "yesVotes",
          "type": "uint8"
        },
        {
          "internalType": "uint8",
          "name": "noVotes",
          "type": "uint8"
        }
      ],
      "stateMutability": "view",
      "type": "function"
    },
    {
      "inputs": [
        {
          "internalType": "string",
          "name": "a",
          "type": "string"
        },
        {
          "internalType": "string",
          "name": "b",
          "type": "string"
        }
      ],
      "name": "compareStrings",
      "outputs": [
        {
          "internalType": "bool",
          "name": "",
          "type": "bool"
        }
      ],
      "stateMutability": "pure",
      "type": "function"
    },
    {
      "inputs": [
        {
          "internalType": "string",
          "name": "itemId",
          "type": "string"
        },
        {
          "internalType": "string",
          "name": "itemName",
          "type": "string"
        },
        {
          "internalType": "string",
          "name": "itemDescription",
          "type": "string"
        },
        {
          "internalType": "string",
          "name": "hashOfImage",
          "type": "string"
        },
        {
          "internalType": "uint256",
          "name": "reservePrice",
          "type": "uint256"
        }
      ],
      "name": "createAuctionItem",
      "outputs": [],
      "stateMutability": "nonpayable",
      "type": "function"
    },
    {
      "inputs": [
        {
          "internalType": "string",
          "name": "itemId",
          "type": "string"
        }
      ],
      "name": "endAuction",
      "outputs": [],
      "stateMutability": "payable",
      "type": "function"
    },
    {
      "inputs": [
        {
          "internalType": "address",
          "name": "sender",
          "type": "address"
        }
      ],
      "name": "getActiveAuctioneer",
      "outputs": [
        {
          "internalType": "uint256",
          "name": "",
          "type": "uint256"
        },
        {
          "internalType": "string[]",
          "name": "",
          "type": "string[]"
        },
        {
          "internalType": "bool",
          "name": "",
          "type": "bool"
        }
      ],
      "stateMutability": "view",
      "type": "function"
    },
    {
      "inputs": [],
      "name": "getAllAuctions",
      "outputs": [
        {
          "components": [
            {
              "internalType": "string",
              "name": "itemId",
              "type": "string"
            },
            {
              "internalType": "string",
              "name": "itemName",
              "type": "string"
            },
            {
              "internalType": "string",
              "name": "itemDescription",
              "type": "string"
            },
            {
              "internalType": "string",
              "name": "hashOfImage",
              "type": "string"
            },
            {
              "internalType": "address payable",
              "name": "seller",
              "type": "address"
            },
            {
              "internalType": "uint256",
              "name": "reservePrice",
              "type": "uint256"
            },
            {
              "internalType": "uint256",
              "name": "highestBid",
              "type": "uint256"
            },
            {
              "internalType": "address payable",
              "name": "highestBidder",
              "type": "address"
            },
            {
              "internalType": "uint256",
              "name": "auctionEndTime",
              "type": "uint256"
            },
            {
              "internalType": "bool",
              "name": "ended",
              "type": "bool"
            },
            {
              "internalType": "string",
              "name": "deliveryAddress",
              "type": "string"
            },
            {
              "internalType": "string[]",
              "name": "privateChatLogs",
              "type": "string[]"
            },
            {
              "internalType": "string[]",
              "name": "committeeChatLogs",
              "type": "string[]"
            },
            {
              "internalType": "enum Auction.EscrowState",
              "name": "escrowState",
              "type": "uint8"
            },
            {
              "internalType": "uint8",
              "name": "yesVotes",
              "type": "uint8"
            },
            {
              "internalType": "uint8",
              "name": "noVotes",
              "type": "uint8"
            }
          ],
          "internalType": "struct Auction.AuctionItem[]",
          "name": "",
          "type": "tuple[]"
        }
      ],
      "stateMutability": "view",
      "type": "function"
    },
    {
      "inputs": [],
      "name": "getAllDisputeAuctions",
      "outputs": [
        {
          "components": [
            {
              "internalType": "string",
              "name": "itemId",
              "type": "string"
            },
            {
              "internalType": "string",
              "name": "itemName",
              "type": "string"
            },
            {
              "internalType": "string",
              "name": "itemDescription",
              "type": "string"
            },
            {
              "internalType": "string",
              "name": "hashOfImage",
              "type": "string"
            },
            {
              "internalType": "address payable",
              "name": "seller",
              "type": "address"
            },
            {
              "internalType": "uint256",
              "name": "reservePrice",
              "type": "uint256"
            },
            {
              "internalType": "uint256",
              "name": "highestBid",
              "type": "uint256"
            },
            {
              "internalType": "address payable",
              "name": "highestBidder",
              "type": "address"
            },
            {
              "internalType": "uint256",
              "name": "auctionEndTime",
              "type": "uint256"
            },
            {
              "internalType": "bool",
              "name": "ended",
              "type": "bool"
            },
            {
              "internalType": "string",
              "name": "deliveryAddress",
              "type": "string"
            },
            {
              "internalType": "string[]",
              "name": "privateChatLogs",
              "type": "string[]"
            },
            {
              "internalType": "string[]",
              "name": "committeeChatLogs",
              "type": "string[]"
            },
            {
              "internalType": "enum Auction.EscrowState",
              "name": "escrowState",
              "type": "uint8"
            },
            {
              "internalType": "uint8",
              "name": "yesVotes",
              "type": "uint8"
            },
            {
              "internalType": "uint8",
              "name": "noVotes",
              "type": "uint8"
            }
          ],
          "internalType": "struct Auction.AuctionItem[]",
          "name": "",
          "type": "tuple[]"
        }
      ],
      "stateMutability": "view",
      "type": "function"
    },
    {
      "inputs": [],
      "name": "getAuctionDuration",
      "outputs": [
        {
          "internalType": "uint256",
          "name": "",
          "type": "uint256"
        }
      ],
      "stateMutability": "view",
      "type": "function"
    },
    {
      "inputs": [
        {
          "internalType": "string",
          "name": "itemId",
          "type": "string"
        }
      ],
      "name": "getAuctionItem",
      "outputs": [
        {
          "internalType": "string",
          "name": "",
          "type": "string"
        },
        {
          "internalType": "string",
          "name": "",
          "type": "string"
        },
        {
          "internalType": "address payable",
          "name": "",
          "type": "address"
        },
        {
          "internalType": "uint256",
          "name": "",
          "type": "uint256"
        },
        {
          "internalType": "uint256",
          "name": "",
          "type": "uint256"
        },
        {
          "internalType": "address payable",
          "name": "",
          "type": "address"
        },
        {
          "internalType": "uint256",
          "name": "",
          "type": "uint256"
        },
        {
          "internalType": "bool",
          "name": "",
          "type": "bool"
        }
      ],
      "stateMutability": "view",
      "type": "function"
    },
    {
      "inputs": [
        {
          "internalType": "string",
          "name": "itemId",
          "type": "string"
        }
      ],
      "name": "getChatLogOfItem",
      "outputs": [
        {
          "internalType": "string[]",
          "name": "",
          "type": "string[]"
        }
      ],
      "stateMutability": "view",
      "type": "function"
    },
    {
      "inputs": [],
      "name": "getConcurrentAuctionsPerUser",
      "outputs": [
        {
          "internalType": "uint256",
          "name": "",
          "type": "uint256"
        }
      ],
      "stateMutability": "view",
      "type": "function"
    },
    {
      "inputs": [],
      "name": "getCurrentTimestamp",
      "outputs": [
        {
          "internalType": "uint256",
          "name": "",
          "type": "uint256"
        }
      ],
      "stateMutability": "view",
      "type": "function"
    },
    {
      "inputs": [
        {
          "internalType": "string",
          "name": "itemId",
          "type": "string"
        }
      ],
      "name": "getDeliveryAddress",
      "outputs": [
        {
          "internalType": "string",
          "name": "",
          "type": "string"
        }
      ],
      "stateMutability": "view",
      "type": "function"
    },
    {
      "inputs": [],
      "name": "getMyBidAuctions",
      "outputs": [
        {
          "components": [
            {
              "internalType": "string",
              "name": "itemId",
              "type": "string"
            },
            {
              "internalType": "string",
              "name": "itemName",
              "type": "string"
            },
            {
              "internalType": "string",
              "name": "itemDescription",
              "type": "string"
            },
            {
              "internalType": "string",
              "name": "hashOfImage",
              "type": "string"
            },
            {
              "internalType": "address payable",
              "name": "seller",
              "type": "address"
            },
            {
              "internalType": "uint256",
              "name": "reservePrice",
              "type": "uint256"
            },
            {
              "internalType": "uint256",
              "name": "highestBid",
              "type": "uint256"
            },
            {
              "internalType": "address payable",
              "name": "highestBidder",
              "type": "address"
            },
            {
              "internalType": "uint256",
              "name": "auctionEndTime",
              "type": "uint256"
            },
            {
              "internalType": "bool",
              "name": "ended",
              "type": "bool"
            },
            {
              "internalType": "string",
              "name": "deliveryAddress",
              "type": "string"
            },
            {
              "internalType": "string[]",
              "name": "privateChatLogs",
              "type": "string[]"
            },
            {
              "internalType": "string[]",
              "name": "committeeChatLogs",
              "type": "string[]"
            },
            {
              "internalType": "enum Auction.EscrowState",
              "name": "escrowState",
              "type": "uint8"
            },
            {
              "internalType": "uint8",
              "name": "yesVotes",
              "type": "uint8"
            },
            {
              "internalType": "uint8",
              "name": "noVotes",
              "type": "uint8"
            }
          ],
          "internalType": "struct Auction.AuctionItem[]",
          "name": "",
          "type": "tuple[]"
        }
      ],
      "stateMutability": "view",
      "type": "function"
    },
    {
      "inputs": [],
      "name": "getMyOwnerAuctions",
      "outputs": [
        {
          "components": [
            {
              "internalType": "string",
              "name": "itemId",
              "type": "string"
            },
            {
              "internalType": "string",
              "name": "itemName",
              "type": "string"
            },
            {
              "internalType": "string",
              "name": "itemDescription",
              "type": "string"
            },
            {
              "internalType": "string",
              "name": "hashOfImage",
              "type": "string"
            },
            {
              "internalType": "address payable",
              "name": "seller",
              "type": "address"
            },
            {
              "internalType": "uint256",
              "name": "reservePrice",
              "type": "uint256"
            },
            {
              "internalType": "uint256",
              "name": "highestBid",
              "type": "uint256"
            },
            {
              "internalType": "address payable",
              "name": "highestBidder",
              "type": "address"
            },
            {
              "internalType": "uint256",
              "name": "auctionEndTime",
              "type": "uint256"
            },
            {
              "internalType": "bool",
              "name": "ended",
              "type": "bool"
            },
            {
              "internalType": "string",
              "name": "deliveryAddress",
              "type": "string"
            },
            {
              "internalType": "string[]",
              "name": "privateChatLogs",
              "type": "string[]"
            },
            {
              "internalType": "string[]",
              "name": "committeeChatLogs",
              "type": "string[]"
            },
            {
              "internalType": "enum Auction.EscrowState",
              "name": "escrowState",
              "type": "uint8"
            },
            {
              "internalType": "uint8",
              "name": "yesVotes",
              "type": "uint8"
            },
            {
              "internalType": "uint8",
              "name": "noVotes",
              "type": "uint8"
            }
          ],
          "internalType": "struct Auction.AuctionItem[]",
          "name": "",
          "type": "tuple[]"
        }
      ],
      "stateMutability": "view",
      "type": "function"
    },
    {
      "inputs": [
        {
          "internalType": "address",
          "name": "adr",
          "type": "address"
        }
      ],
      "name": "getPubKey",
      "outputs": [
        {
          "internalType": "string",
          "name": "",
          "type": "string"
        }
      ],
      "stateMutability": "view",
      "type": "function"
    },
    {
      "inputs": [],
      "name": "getTokensToStake",
      "outputs": [
        {
          "internalType": "uint256",
          "name": "",
          "type": "uint256"
        }
      ],
      "stateMutability": "view",
      "type": "function"
    },
    {
      "inputs": [
        {
          "internalType": "address",
          "name": "",
          "type": "address"
        }
      ],
      "name": "isCommitteeMember",
      "outputs": [
        {
          "internalType": "bool",
          "name": "",
          "type": "bool"
        }
      ],
      "stateMutability": "view",
      "type": "function"
    },
    {
      "inputs": [],
      "name": "owner",
      "outputs": [
        {
          "internalType": "address",
          "name": "",
          "type": "address"
        }
      ],
      "stateMutability": "view",
      "type": "function"
    },
    {
      "inputs": [
        {
          "internalType": "address",
          "name": "",
          "type": "address"
        },
        {
          "internalType": "uint256",
          "name": "",
          "type": "uint256"
        }
      ],
      "name": "ownerAuctions",
      "outputs": [
        {
          "internalType": "string",
          "name": "",
          "type": "string"
        }
      ],
      "stateMutability": "view",
      "type": "function"
    },
    {
      "inputs": [
        {
          "internalType": "string",
          "name": "itemId",
          "type": "string"
        },
        {
          "internalType": "uint256",
          "name": "bidAmount",
          "type": "uint256"
        }
      ],
      "name": "placeBid",
      "outputs": [],
      "stateMutability": "payable",
      "type": "function"
    },
    {
      "inputs": [
        {
          "internalType": "address",
          "name": "",
          "type": "address"
        }
      ],
      "name": "pubKeys",
      "outputs": [
        {
          "internalType": "string",
          "name": "",
          "type": "string"
        }
      ],
      "stateMutability": "view",
      "type": "function"
    },
    {
      "inputs": [
        {
          "internalType": "string",
          "name": "itemId",
          "type": "string"
        }
      ],
      "name": "raiseDispute",
      "outputs": [],
      "stateMutability": "nonpayable",
      "type": "function"
    },
    {
      "inputs": [],
      "name": "relinquishTokensToOwner",
      "outputs": [],
      "stateMutability": "nonpayable",
      "type": "function"
    },
    {
      "inputs": [],
      "name": "renounceOwnership",
      "outputs": [],
      "stateMutability": "nonpayable",
      "type": "function"
    },
    {
      "inputs": [
        {
          "internalType": "string",
          "name": "itemId",
          "type": "string"
        }
      ],
      "name": "resolveDispute",
      "outputs": [],
      "stateMutability": "payable",
      "type": "function"
    },
    {
      "inputs": [
        {
          "internalType": "string",
          "name": "itemId",
          "type": "string"
        },
        {
          "internalType": "string",
          "name": "message",
          "type": "string"
        }
      ],
      "name": "sendChat",
      "outputs": [],
      "stateMutability": "nonpayable",
      "type": "function"
    },
    {
      "inputs": [
        {
          "internalType": "string",
          "name": "itemId",
          "type": "string"
        },
        {
          "internalType": "string",
          "name": "message",
          "type": "string"
        }
      ],
      "name": "sendCommitteeChat",
      "outputs": [],
      "stateMutability": "nonpayable",
      "type": "function"
    },
    {
      "inputs": [
        {
          "internalType": "uint64",
          "name": "duration",
          "type": "uint64"
        }
      ],
      "name": "setAuctionDuration",
      "outputs": [],
      "stateMutability": "nonpayable",
      "type": "function"
    },
    {
      "inputs": [
        {
          "internalType": "uint8",
          "name": "auctionCount",
          "type": "uint8"
        }
      ],
      "name": "setConcurrentAuctionsPerUser",
      "outputs": [],
      "stateMutability": "nonpayable",
      "type": "function"
    },
    {
      "inputs": [
        {
          "internalType": "string",
          "name": "itemId",
          "type": "string"
        },
        {
          "internalType": "string",
          "name": "deliveryAddress",
          "type": "string"
        }
      ],
      "name": "setDeliveryAddress",
      "outputs": [],
      "stateMutability": "nonpayable",
      "type": "function"
    },
    {
      "inputs": [
        {
          "internalType": "string",
          "name": "pubKey",
          "type": "string"
        }
      ],
      "name": "setPubKey",
      "outputs": [],
      "stateMutability": "nonpayable",
      "type": "function"
    },
    {
      "inputs": [
        {
          "internalType": "uint256",
          "name": "amount",
          "type": "uint256"
        }
      ],
      "name": "setTokensToStake",
      "outputs": [],
      "stateMutability": "nonpayable",
      "type": "function"
    },
    {
      "inputs": [
        {
          "internalType": "uint256",
          "name": "amount",
          "type": "uint256"
        }
      ],
      "name": "stakeTokens",
      "outputs": [],
      "stateMutability": "nonpayable",
      "type": "function"
    },
    {
      "inputs": [
        {
          "internalType": "address",
          "name": "newOwner",
          "type": "address"
        }
      ],
      "name": "transferOwnership",
      "outputs": [],
      "stateMutability": "nonpayable",
      "type": "function"
    },
    {
      "inputs": [
        {
          "internalType": "string",
          "name": "itemId",
          "type": "string"
        },
        {
          "internalType": "enum Auction.EscrowState",
          "name": "nextState",
          "type": "uint8"
        }
      ],
      "name": "transitionEscrowState",
      "outputs": [],
      "stateMutability": "nonpayable",
      "type": "function"
    },
    {
      "inputs": [
        {
          "internalType": "string",
          "name": "itemId",
          "type": "string"
        },
        {
          "internalType": "uint8",
          "name": "vote",
          "type": "uint8"
        }
      ],
      "name": "voteOnDispute",
      "outputs": [],
      "stateMutability": "nonpayable",
      "type": "function"
    }
  ],
  "transactionHash": "0xc9e5982a283a0a16f715056a241c5e20a488692a0cc663060d33ecf08bcc2a05",
  "args": [
    "0x5FbDB2315678afecb367f032d93F642f64180aa3"
  ],
  "numDeployments": 1,
  "solcInputHash": "e18943a76014a8f7e56d76721da1788a",
  "bytecode": "0x6080346200014257601f620042a338819003918201601f19168301916001600160401b0383118484101762000147578084926020946040528339810103126200014257516001600160a01b039081811690819003620001425760008054336001600160a01b0319821681178355604051949293929091167f8be0079c531659141344cd1fd0a4f28419497f9722a3daafe3b4186f6b6457e08480a3681b1ae4d6e2ef5000006009556704000000000002a360a71b9062ffffff60e81b600a54161717600a557390f79bf6eb2c4f870365e785982e1f101e93b90681526004602052600160408083209260ff199383858254161790557315d34aaf54267db7d7c367839aaf71a00a2c6a6581528181208385825416179055739965507d1a55bcc2695c58ba16fb37d819b0a4dc8152209182541617905561414590816200015e8239f35b600080fd5b634e487b7160e01b600052604160045260246000fdfe608080604052600436101561001357600080fd5b60003560e01c908163016544aa14612dba5750806305f3b3f714612cb457806307412e9c14612c6d5780631f49c2911461206f5780633079ff7814611f6d5780633098662e14611ed15780634129027314611e655780635f65e37414611cea578063676202fe14611c7c5780636c9230db14611c61578063715018a614611c08578063725a3b4b14611afc5780637547c7a3146118a457806378cb51af1461187a5780637c812b39146118215780637f38d865146117dc57806383c271501461162157806388624ab3146115fd5780638aaf2761146115dc5780638da5cb5b146115b55780638f2238ba146113f75780639211735b146112b1578063955ab337146111b55780639f19360d14610f9d578063a4bdc06e14610e32578063a7eaa24114610a0a578063bed34bba146109b0578063c1d733db14610894578063cbd2bdfd14610714578063ce2ba9bf146106a5578063d1b8b4bf146101c1578063d31f371e1461052e578063d8bcd0c914610510578063e636d84b146104d1578063ee54507b14610329578063f2fde38b14610260578063fb346ea0146102185763fce9512a146101c157600080fd5b34610213576020366003190112610213576001600160a01b036101e261347c565b16600052600360205261020f6101fb6040600020613521565b604051918291602083526020830190613238565b0390f35b600080fd5b34610213576020366003190112610213576001600160a01b0361023961347c565b16600052600260205260408060002060ff6002825492015416825191825215156020820152f35b346102135760203660031901126102135761027961347c565b6102816136a6565b6001600160a01b038091169081156102d557600054826bffffffffffffffffffffffff60a01b821617600055167f8be0079c531659141344cd1fd0a4f28419497f9722a3daafe3b4186f6b6457e0600080a3005b60405162461bcd60e51b815260206004820152602660248201527f4f776e61626c653a206e6577206f776e657220697320746865207a65726f206160448201526564647265737360d01b6064820152608490fd5b3461021357600036600319011261021357600880549061034882613e8f565b916000916007918254935b848110610368576040518061020f88826132c6565b818110156104bb576104b690836000526103a3817ff3f7a9fe364faab93b216da50a3214154f22a0a2b415b23a84c8169e8b636ee301613f66565b604051906103b0826134e4565b6103b981613521565b82526103c760018201613521565b60208301526103d860028201613521565b60408301526103e960038201613521565b60608301526001600160a01b03806004830154166080840152600582015460a0840152600682015460c0840152878201541660e083015285810154610100830152600d60ff9182600982015416151561012085015261044a600a8201613521565b61014085015261045c600b8201613e3a565b61016085015261046e600c8201613e3a565b61018085015201546104868282166101a08501613869565b8181881c166101c084015260101c166101e08201526104a58289613f52565b526104b08188613f52565b506139cf565b610353565b634e487b7160e01b600052603260045260246000fd5b34610213576020366003190112610213576001600160a01b036104f261347c565b166000526004602052602060ff604060002054166040519015158152f35b34610213576000366003190112610213576020600954604051908152f35b34610213576020366003190112610213576004356001600160401b0381116102135761055e903690600401613662565b604051818180935160208193019161057592613215565b81016001815203602001902061058a81613521565b61059660018301613521565b916105a360028201613521565b906105b060038201613521565b6001600160a01b0390816004840154169160058401549060068501549060078601541690600886015492600987015460ff1694600a88016105f090613521565b97600d0154986040519b8c9b8c6101c08091528d0161060e91613238565b8c810360208e015261061f91613238565b8b810360408d015261063091613238565b8a810360608c015261064191613238565b9560808a015260a089015260c088015260e0870152610100860152151561012085015283810361014085015261067691613238565b90610688610160840160ff83166132b9565b8060081c60ff1661018084015260101c60ff166101a08301520390f35b6020366003190112610213576004356001600160401b038111610213576106d36107129136906004016131e8565b9061070d6107086106f7604051858582376020818781016001815203019020613521565b61070236868661361c565b906140ba565b613980565b613ab4565b005b34610213576000366003190112610213576007805461073281613e8f565b9160005b82811061074b576040518061020f86826132c6565b61088f908260005261077e817fa66cc928b5edb82af9bd49922954155ab7b0942694bea4ce44661d9a8736c68801613f66565b600d6040519161078d836134e4565b61079681613521565b83526107a460018201613521565b60208401526107b560028201613521565b60408401526107c660038201613521565b60608401526001600160a01b03806004830154166080850152600582015460a0850152600682015460c0850152868201541660e08401526008908181015461010085015260ff92818460098194015416151561012087015261082a600a8201613521565b61014087015261083c600b8201613e3a565b61016087015261084e600c8201613e3a565b610180870152015480926108688383166101a08801613869565b1c166101c084015260101c166101e08201526108848287613f52565b526104b08186613f52565b610736565b346102135760206108a436613432565b926108d56107086108ca6040979497518685823785818881016001815203019020613521565b61070236878661361c565b826040519384928337810160018152030190209160ff60098401541680610968575b1561090857600c6107129301613950565b60405162461bcd60e51b815260206004820152603260248201527f596f7520646f206e6f7420686176652070726976696c6567657320746f206368604482015271617420696e2074686973206469737075746560701b6064820152608490fd5b5033600052600460205260ff60406000205416806108f757506001600160a01b033381600786015416149081156109a0575b506108f7565b905060048401541633148461099a565b34610213576040366003190112610213576001600160401b03600435818111610213576109e1903690600401613662565b9060243590811161021357602091610702610a00923690600401613662565b6040519015158152f35b6040366003190112610213576004356001600160401b03811161021357610a359036906004016131e8565b90602490813592604051928183853781840194610a71610708610a66876001998a81526020998a9103019020613521565b61070236878961361c565b3360005260038552610a92602c610a8c6040600020546134aa565b146137de565b60405183858237858185810189815203019020906001600160a01b0390338260048501541614610de4578060058401541015610d8e5760ff600984015416610d565760088301928354421015610d1c5760068101908154831115610cc057600a546040516323b872dd60e01b81523360048201523060248201526044810185905291908a90839060649082906000908a165af1918215610c9757600792610ca3575b500192888185541680610c21575b5050505580546001600160a01b0319163317905554906101f49081610b6742856139c2565b1115610bd0575b505050336000526006835260ff610b8c856040600020018385613850565b541615610b9557005b6006610bc39333600052818152610bb183856040600020613950565b33600052528360406000200191613850565b805460ff19169091179055005b610bda42846139c2565b8203918211610c0d575090610bee916137bb565b6008604051838582378581858101898152030190200155848080610b6e565b634e487b7160e01b60009081526011600452fd5b600a54845460405163a9059cbb60e01b81526001600160a01b039390931660048401526024830152909283916044918391600091165af18015610c9757610c6a575b8881610b42565b610c8990893d8b11610c90575b610c818183613500565b8101906136fe565b5089610c63565b503d610c77565b6040513d6000823e3d90fd5b610cb9908b3d8d11610c9057610c818183613500565b508b610b34565b60405162461bcd60e51b8152600481018a9052602f818801527f426964206d75737420626520686967686572207468616e20746865206375727260448201526e195b9d081a1a59da195cdd08189a59608a1b6064820152608490fd5b60405162461bcd60e51b81526004810189905260138187015272105d58dd1a5bdb881a185cc8195e1c1a5c9959606a1b6044820152606490fd5b60405162461bcd60e51b81526004810188905260118186015270105d58dd1a5bdb881a185cc8195b991959607a1b6044820152606490fd5b60405162461bcd60e51b8152600481018890526029818601527f426964206d75737420626520686967686572207468616e20746865207265736560448201526872766520707269636560b81b6064820152608490fd5b60405162461bcd60e51b8152600481018890526021818601527f4f776e65722063616e277420626964206f6e2074686569722061756374696f6e6044820152607360f81b6064820152608490fd5b346102135760003660031901126102135733600052602060028152600160406000200154610f33576001600160a01b0360008282600a54163383526002825260446040842054604051948593849263095ea7b360e01b845230600485015260248401525af18015610c97576000928492610ef092610f16575b50600a54338086526002855260408087205490516323b872dd60e01b815230600482015260248101929092526044820152948593929091169183919082906064820190565b03925af18015610c9757610f0057005b8161071292903d10610c9057610c818183613500565b610f2c90843d8611610c9057610c818183613500565b5085610eab565b6084906040519062461bcd60e51b82526004820152603660248201527f596f752063616e27742072656465656d20746f6b656e73207768696c65206f6e60448201527f676f696e672061756374696f6e732070657273697374000000000000000000006064820152fd5b34610213576040366003190112610213576001600160401b0360043581811161021357610fce9036906004016131e8565b9160243581811161021357610fe7903690600401613662565b926040519080848337808201936110126107086106f785600198898152602097889103019020613521565b6001600160a01b0360076040518484823785818681018a815203019020015416331480611195575b1561112a579082600a9282604051938492833781018781520301902001938051928311611114576110758361106f87546134aa565b87613776565b81601f84116001146110b157509282939183926000946110a6575b50501b916000199060031b1c1916179055600080f35b015192508580611090565b919083601f1981168760005284600020946000905b888383106110fa57505050106110e1575b505050811b019055005b015160001960f88460031b161c191690558380806110d7565b8587015188559096019594850194879350908101906110c6565b634e487b7160e01b600052604160045260246000fd5b60405162461bcd60e51b815260048101849052603460248201527f596f7520686176656e277420776f6e207468652061756374696f6e206f72206960448201527f7473207374696c6c20696e2070726f67726573730000000000000000000000006064820152608490fd5b5060ff60096040518484823785818681018a81520301902001541661103a565b34610213576020366003190112610213576004356001600160401b0381116102135760206111ea61127e9236906004016131e8565b919061120e6107086108ca6040518685823785818881016001815203019020613521565b826040519384928337810160018152030190206001600160a01b03806004830154169060058301549060068401549060078501541660088501549160ff6009870154169361128c61126a60016112638a613521565b9901613521565b604051998a99610100808c528b0190613238565b9089820360208b0152613238565b9560408801526060870152608086015260a085015260c0840152151560e08301520390f35b34610213576040366003190112610213576004356001600160401b038111610213576112e19036906004016131e8565b906024359160ff83168093036102135761131f610708611314604051848682376020818681016001815203019020613521565b61070236858761361c565b33600052600460205261133960ff60406000205416613ff2565b60ff600d60405183858237602081858101600181520301902001541660078110156113e15760019261136f600460209314614051565b82604051938492833781018481520301902091036113b357600d610712910161139e60ff825460081c166140a9565b61ff0082549160081b169061ff001916179055565b600d61071291016113ca60ff825460101c166140a9565b62ff000082549160101b169062ff00001916179055565b634e487b7160e01b600052602160045260246000fd5b602080600319360112610213576004356001600160401b038111610213576114239036906004016131e8565b906114466107086106f76040518585823786818781016001815203019020613521565b60ff600d60405184848237858186810160018152030190200154169060078210156113e1576114786004859314614051565b336000526004825261149160ff60406000205416613ff2565b8260405193849283378101600181520301902090600d82019181835460ff808260101c169160081c16101560001461153c57600a5460048381015460069094015460405163a9059cbb60e01b81526001600160a01b039586169281019290925260248201529283916044918391600091165af18015610c975761151e575b5050805460ff19166005179055005b8161153492903d10610c9057610c818183613500565b50818061150f565b600a54600783015460069093015460405163a9059cbb60e01b81526001600160a01b03948516600482015260248101919091529283916044918391600091165af18015610c9757611597575b5050805460ff19166006179055005b816115ad92903d10610c9057610c818183613500565b508180611588565b346102135760003660031901126102135760206001600160a01b0360005416604051908152f35b34610213576020366003190112610213576115f56136a6565b600435600955005b3461021357600036600319011261021357602060ff600a5460e01c16604051908152f35b3461021357602080600319360112610213576004356001600160401b03811161021357611653829136906004016131e8565b91906116776107086108ca6040518685823785818881016001815203019020613521565b826040519384928337810160018152030190206117ae604051611699816134e4565b6116a283613521565b81526116b060018401613521565b848201526116c060028401613521565b60408201526116d160038401613521565b60608201526001600160a01b0390816004850154169160808201928352600585015460a0830152600685015460c0830152808060078701541660e08401908152600887015461010085015260ff600988015416936101208101941515855261173b600a8901613521565b6101408201526101e060ff600d611754600b8c01613e3a565b9a61016085019b8c52611769600c8201613e3a565b61018086015201546117818282166101a08601613869565b818160081c166101c085015260101c16910152511633149283156117cf575b5050816117c4575b50613d9f565b519061020f6040519282849384528301906135c7565b9050511515846117a8565b51163314915085806117a0565b346102135760203660031901126102135760043560ff81168103610213576118026136a6565b600a805460ff60e01b191660e09290921b60ff60e01b16919091179055005b34610213576020366003190112610213576004356001600160401b03811681036102135761184d6136a6565b600a805467ffffffffffffffff60a01b191660a09290921b67ffffffffffffffff60a01b16919091179055005b346102135760003660031901126102135760206001600160401b03600a5460a01c16604051908152f35b346102135760208060031936011261021357600a546040516323b872dd60e01b815233600480830191909152306024830152356044820181905292918290829060649082906000906001600160a01b03165af18015610c9757611adf575b50336000526002815260ff6002604060002001541660001461193a57600290336000525261193660406000209182546137bb565b9055005b60405190916001600160401b039060608301828111848210176111145760405282528282016060815260408301936001918286523360005260028252604060002094518555828501905191825192600160401b84116111145781908354858555808610611aa8575b500191600052806000206000925b8484106119da575050505050505060026107129251151591019060ff801983541691151516179055565b8051908151888111611114578791816119fe87936119f888546134aa565b88613776565b8294601f8211600114611a425784958291600092611a37575b5050600019600383901b1c191690841b1785555b019201930192906119b0565b015190508e80611a17565b94601f1982169087600052846000209160005b818110611a915750908697848895949310611a78575b505050811b018555611a2b565b015160001960f88460031b161c191690558e8080611a6b565b8289015184558d978b979401939283019201611a55565b8460005286868460002092830192015b828110611ac65750506119a2565b9091929350611ad48161372d565b019086849392611ab8565b611af590823d8411610c9057610c818183613500565b5082611902565b34610213576020366003190112610213576004356001600160401b03811161021357611b2c9036906004016131e8565b611b4f610708611314604051848682376020818681016001815203019020613521565b600d6040518284823760208184810160018152030190206001600160a01b03806007830154163314908115611bf8575b5080611bea575b611b8f90613d9f565b01805460ff1916600417905560085491600160401b8310156111145760018301806008558310156104bb576107129260086000527ff3f7a9fe364faab93b216da50a3214154f22a0a2b415b23a84c8169e8b636ee30161388d565b50600981015460ff16611b86565b9050600482015416331485611b7f565b3461021357600036600319011261021357611c216136a6565b600080546001600160a01b0319811682556001600160a01b03167f8be0079c531659141344cd1fd0a4f28419497f9722a3daafe3b4186f6b6457e08280a3005b34610213576000366003190112610213576020604051428152f35b34610213576020366003190112610213576001600160a01b03611c9d61347c565b16600052600260205260406000208054611cc1600160ff6002850154169301613e3a565b91611cde60405193849384526060602085015260608401906135c7565b90151560408301520390f35b34610213576000366003190112610213573360005260056020818152611d136040600020613e3a565b90611d1e8251613e8f565b9260005b8351811015611e575780611d42611d3c611e529387613f52565b51613680565b600d60405191611d51836134e4565b611d5a81613521565b8352611d6860018201613521565b87840152611d7860028201613521565b6040840152611d8960038201613521565b60608401526001600160a01b038060048301541660808501528682015460a0850152600682015460c085015260078201541660e08401526008908181015461010085015260ff928184600981940154161515610120870152611ded600a8201613521565b610140870152611dff600b8201613e3a565b610160870152611e11600c8201613e3a565b61018087015201548092611e2b8383166101a08801613869565b1c166101c084015260101c166101e0820152611e478288613f52565b526104b08187613f52565b611d22565b6040518061020f87826132c6565b3461021357604036600319011261021357611e7e61347c565b6001600160a01b0360243591166000526005602052604060002090815481101561021357611eab91613492565b611ebb576101fb61020f91613521565b634e487b7160e01b600052600060045260246000fd5b3461021357610712600b6020611ee636613432565b9492611f0d6107086108ca6040979497518685823785818881016001815203019020613521565b826040519384928337810160018152030190206001600160a01b03806007830154163314908115611f5d575b5080611f4f575b611f4990613d9f565b01613950565b50600981015460ff16611f40565b9050600482015416331486611f39565b34610213576000366003190112610213573360005260066020818152611f966040600020613e3a565b90611fa18251613e8f565b9260005b8351811015611e575780611fbf611d3c61206a9387613f52565b600d60405191611fce836134e4565b611fd781613521565b8352611fe560018201613521565b87840152611ff560028201613521565b604084015261200660038201613521565b60608401526001600160a01b03806004830154166080850152600582015460a08501528682015460c085015260078201541660e08401526008908181015461010085015260ff928184600981940154161515610120870152611ded600a8201613521565b611fa5565b346102135760a0366003190112610213576004356001600160401b0381116102135761209f9036906004016131e8565b906024356001600160401b038111610213576120bf9036906004016131e8565b90926044356001600160401b038111610213576120e09036906004016131e8565b906064356001600160401b038111610213576121009036906004016131e8565b9033600052600260205260406000205460095411612c125733600052600260205260016040600020015491600a549260ff8460e01c161115612bbd57336000526003602052612158602c610a8c6040600020546134aa565b612184604051878a8237602081898101600181520301902061070261217e368a8d61361c565b91613521565b612b825760843515612b2d576121de6121ac6001600160401b036121ea9560a01c16426137bb565b94604051966121ba886134e4565b6121c5368a8d61361c565b88526121d2368b8e61361c565b6020890152369161361c565b6040860152369161361c565b606083015233608083015260843560a0830152600060c0830152600060e083015261010082015260006101208201526040518060208101106001600160401b036020830111176111145760208101604052600081526101408201526060610160820152606061018082015260006101a082015260006101c082015260006101e082015260405182858237602081848101600181520301902081518051906001600160401b0382116111145781906122ab826122a586546134aa565b86613776565b602090601f8311600114612ac157600092612ab6575b50508160011b916000199060031b1c19161781555b60208201518051906001600160401b038211611114578190612308826122ff60018701546134aa565b60018701613776565b602090601f8311600114612a4457600092612a39575b50508160011b916000199060031b1c19161760018201555b60408201518051906001600160401b0382116111145781906123688261235f60028701546134aa565b60028701613776565b602090601f83116001146129c7576000926129bc575b50508160011b916000199060031b1c19161760028201555b60608201518051906001600160401b0382116111145781906123c8826123bf60038701546134aa565b60038701613776565b602090601f831160011461294a5760009261293f575b50508160011b916000199060031b1c19161760038201555b600481016001600160a01b039081608085015116906bffffffffffffffffffffffff60a01b918282541617905560a0840151600584015560c08401516006840155600783019160e0850151169082541617905561010082015160088201556124746101208301511515600983019060ff801983541691151516179055565b6101408201518051906001600160401b0382116111145781906124a78261249e600a8701546134aa565b600a8701613776565b602090601f83116001146128cd576000926128c2575b50508160011b916000199060031b1c191617600a8201555b610160820151805190600160401b821161111457600b83015482600b85015580831061288f575b5060200190600b83016000526020600020916000905b8282106127b25750505050610180820151805190600160401b821161111457600c83015482600c85015580831061277f575b5060200190600c83016000526020600020916000905b8282106126a25750505050600d016101a08201519160078310156113e1576101e060ff9161258b6125be9585613875565b6101c0810151845461ff00191690841660081b61ff00161784550151825462ff00001916911660101b62ff000016179055565b3360005260026020526125d981846001604060002001613950565b60075490600160401b8210156111145760018201806007558210156104bb578361264e827f580c79f80d4cb0e438a0d03f153c3dd27d464553dcc2fb869879bc42fd524c3b9660409560076000527fa66cc928b5edb82af9bd49922954155ab7b0942694bea4ce44661d9a8736c6880161388d565b336000526005602052612665828285600020613950565b81835192839283378101600081520390209382825193849260208452816020850152848401376000828201840152601f01601f19168101030190a2005b80518051906001600160401b038211611114576126c3826119f888546134aa565b602090601f831160011461270f579282600194936020938695600092612704575b5050600019600383901b1c191690841b1787555b0194019101909261255a565b015190508f806126e4565b908660005260206000209160005b601f1985168110612767575083602093600196938796938794601f1981161061274e575b505050811b0187556126f8565b015160001960f88460031b161c191690558f8080612741565b9192602060018192868501518155019401920161271d565b600c84016000526020600020908382015b81830181106127a0575050612544565b806127ac60019261372d565b01612790565b80518051906001600160401b038211611114576127d3826119f888546134aa565b602090601f831160011461281f579282600194936020938695600092612814575b5050600019600383901b1c191690841b1787555b01940191019092612512565b015190508f806127f4565b908660005260206000209160005b601f1985168110612877575083602093600196938796938794601f1981161061285e575b505050811b018755612808565b015160001960f88460031b161c191690558f8080612851565b9192602060018192868501518155019401920161282d565b600b84016000526020600020908382015b81830181106128b05750506124fc565b806128bc60019261372d565b016128a0565b0151905088806124bd565b9250600a84016000526020600020906000935b601f1984168510612924576001945083601f1981161061290b575b505050811b01600a8201556124d5565b015160001960f88460031b161c191690558880806128fb565b818101518355602094850194600190930192909101906128e0565b0151905088806123de565b9250600384016000526020600020906000935b601f19841685106129a1576001945083601f19811610612988575b505050811b0160038201556123f6565b015160001960f88460031b161c19169055888080612978565b8181015183556020948501946001909301929091019061295d565b01519050888061237e565b9250600284016000526020600020906000935b601f1984168510612a1e576001945083601f19811610612a05575b505050811b016002820155612396565b015160001960f88460031b161c191690558880806129f5565b818101518355602094850194600190930192909101906129da565b01519050888061231e565b9250600184016000526020600020906000935b601f1984168510612a9b576001945083601f19811610612a82575b505050811b016001820155612336565b015160001960f88460031b161c19169055888080612a72565b81810151835560209485019460019093019290910190612a57565b0151905088806122c1565b9250836000526020600020906000935b601f1984168510612b12576001945083601f19811610612af9575b505050811b0181556122d6565b015160001960f88460031b161c19169055888080612aec565b81810151835560209485019460019093019290910190612ad1565b60405162461bcd60e51b815260206004820152602760248201527f52657365727665207072696365206d7573742062652067726561746572207468604482015266616e207a65726f60c81b6064820152608490fd5b60405162461bcd60e51b81526020600482015260136024820152724974656d20616c72656164792065786973747360681b6044820152606490fd5b60405162461bcd60e51b815260206004820152602760248201527f596f752063616e2774206861766520616e79206d6f7265206163746976652061604482015266756374696f6e7360c81b6064820152608490fd5b60405162461bcd60e51b815260206004820152602d60248201527f4e6f7420656e6f75676820746f6b656e73207374616b656420746f206372656160448201526c3a329030b71030bab1ba34b7b760991b6064820152608490fd5b34610213576020366003190112610213576004356001600160401b03811161021357612ca06107129136906004016131e8565b90336000526003602052604060002061388d565b3461021357602080600319360112610213576004356001600160401b03811161021357612ce59036906004016131e8565b90612d086107086106f76040518585823786818781016001815203019020613521565b6001600160a01b03600460405184848237858186810160018152030190200154163303612d65578183600a92612d509460405193849283378101600181520301902001613521565b9061020f604051928284938452830190613238565b60405162461bcd60e51b815260048101849052602760248201527f4f6e6c792061756374696f6e206f776e65722063616e2063616c6c2074686973604482015266081b595d1a1bd960ca1b6064820152608490fd5b34610213576040366003190112610213576004356001600160401b03811161021357612dea9036906004016131e8565b906024918235906007821015928361021357818187378186019060018252612e216107086108ca896020809b819703019020613521565b826040519384928337810160018152030190209060ff600983015416156131a457600d82019360ff855416936007851015958661318f57600486146131255760048501966001600160a01b0396878954163314918280613116575b90859291846130f5575b84156130a3575b50831561304a575b8315612fc3575b50505015612f7f57612eb1600a8601546134aa565b15612f2f5783612ec091613875565b612f1b5750600314612ece57005b600a5492546006919091015460405163a9059cbb60e01b81529183166001600160a01b031660048301526024820152918391839116816000816044810103925af18015610c9757610f0057005b634e487b7160e01b60009081526021600452fd5b60405162461bcd60e51b8152600481018990526023818501527f506c656173652073657420612064656c697665727920616464726573732066696044820152621c9cdd60ea1b6064820152608490fd5b60405162461bcd60e51b8152600481018990526018818501527f496e76616c6964207374617465207472616e736974696f6e00000000000000006044820152606490fd5b909192508860078901541633149283613023575b5082612fe8575b5050828a80612e9c565b90915061300e5760028114908115613003575b508980612fde565b600591501489612ffb565b83634e487b7160e01b60005260216004526000fd5b90925061303557600386149184612fd7565b84634e487b7160e01b60005260216004526000fd5b925088600789015416331480613092575b8381613069575b5092612e95565b91925050613035578060028592148015613084575b83613062565b50600092506005811461307e565b50906130355783906003871461305b565b909350806130e4575b83816130bb575b50928c612e8d565b919250506130355780600185921480156130d6575b836130b3565b5060009250600581146130d0565b5090613035578390600287146130ac565b935050600081158015613109575b93612e86565b5050600060058214613103565b60009550600188149350612e7c565b60405162461bcd60e51b8152600481018990526037818501527f43616e7420726573756d6520657363726f772070726f6365737365732077697460448201527f686f75742064697370757465207265736f6c7574696f6e0000000000000000006064820152608490fd5b82634e487b7160e01b60005260216004526000fd5b60405162461bcd60e51b8152600481018690526019818601527f41756374696f6e20686173206e6f7420656e64656420796574000000000000006044820152606490fd5b9181601f84011215610213578235916001600160401b038311610213576020838186019501011161021357565b60005b8381106132285750506000910152565b8181015183820152602001613218565b9060209161325181518092818552858086019101613215565b601f01601f1916010190565b908082519081815260208091019281808460051b8301019501936000915b84831061328b5750505050505090565b90919293949584806132a9600193601f198682030187528a51613238565b980193019301919493929061327b565b9060078210156113e15752565b602080820190808352835180925260409283810182858560051b8401019601946000925b8584106132fb575050505050505090565b909192939495968580600192603f198582030187528a51906133f36133df6133cb61336b6133586133486133388851610200808a52890190613238565b898901518882038b8a0152613238565b878d0151878203888f0152613238565b6060808801519087830390880152613238565b6001600160a01b0360808181890151169087015260a0808801519087015260c0808801519087015260e090818801511690860152610100808701519086015261012080870151151590860152610140808701519086830390870152613238565b61016080860151908583039086015261325d565b61018080850151908483039085015261325d565b916134076101a080830151908401906132b9565b60ff6101c0818184015116908401526101e080920151169101529901940194019295949391906132ea565b6040600319820112610213576001600160401b0391600435838111610213578261345e916004016131e8565b9390939260243591821161021357613478916004016131e8565b9091565b600435906001600160a01b038216820361021357565b80548210156104bb5760005260206000200190600090565b90600182811c921680156134da575b60208310146134c457565b634e487b7160e01b600052602260045260246000fd5b91607f16916134b9565b61020081019081106001600160401b0382111761111457604052565b90601f801991011681019081106001600160401b0382111761111457604052565b9060405191826000825492613535846134aa565b9081845260019485811690816000146135a45750600114613561575b505061355f92500383613500565b565b9093915060005260209081600020936000915b81831061358c57505061355f93508201013880613551565b85548884018501529485019487945091830191613574565b91505061355f94506020925060ff191682840152151560051b8201013880613551565b90815180825260208092019182818360051b85019501936000915b8483106135f25750505050505090565b909192939495848061360c83856001950387528a51613238565b98019301930191949392906135e2565b9291926001600160401b0382116111145760405191613645601f8201601f191660200184613500565b829481845281830111610213578281602093846000960137010152565b9080601f830112156102135781602061367d9335910161361c565b90565b6020613699918160405193828580945193849201613215565b8101600181520301902090565b6001600160a01b036000541633036136ba57565b606460405162461bcd60e51b815260206004820152602060248201527f4f776e61626c653a2063616c6c6572206973206e6f7420746865206f776e65726044820152fd5b90816020910312610213575180151581036102135790565b818110613721575050565b60008155600101613716565b61373781546134aa565b9081613741575050565b81601f60009311600114613753575055565b908083918252613772601f60208420940160051c840160018501613716565b5555565b9190601f811161378557505050565b61355f926000526020600020906020601f840160051c830193106137b1575b601f0160051c0190613716565b90915081906137a4565b919082018092116137c857565b634e487b7160e01b600052601160045260246000fd5b156137e557565b60405162461bcd60e51b815260206004820152603c60248201527f506c65617365207375626d697420796f7572206574682077616c6c657420707560448201527f626b6579206265666f7265207573696e67207468652073797374656d000000006064820152608490fd5b6020919283604051948593843782019081520301902090565b60078210156113e15752565b9060078110156113e15760ff80198354169116179055565b9092916001600160401b038111611114576138b2816138ac84546134aa565b84613776565b6000601f82116001146138ec57819293946000926138e1575b50508160011b916000199060031b1c1916179055565b0135905038806138cb565b601f198216948382526020918281209281905b8882106139385750508360019596971061391e575b505050811b019055565b0135600019600384901b60f8161c19169055388080613914565b806001849682949587013581550195019201906138ff565b9190918054600160401b8110156111145761397091600182018155613492565b929092611ebb5761355f9261388d565b1561398757565b60405162461bcd60e51b8152602060048201526013602482015272125d195b48191bd95cc81b9bdd08195e1a5cdd606a1b6044820152606490fd5b919082039182116137c857565b60001981146137c85760010190565b90808214613ab0576139f081546134aa565b906001600160401b038211611114578190613a0f826122a586546134aa565b600090601f8311600114613a4557600092613a3a5750508160011b916000199060031b1c1916179055565b0154905038806138cb565b81526020808220858352818320935090601f1985169083905b828210613a97575050908460019594939210613a7e57505050811b019055565b015460001960f88460031b161c19169055388080613914565b8495819295850154815560018091019601940190613a5e565b5050565b9160405192828185378284018460019182815260209687910301902091600983019485549660ff8816613d5b5760088501544210613d17576001600160a01b03966004978089880154163314908115613d07575b5015613c9d5784809960ff999798991916179055600091338352600282528460408420019383995b613b4a575b50505050505050600691925001541561355f57565b849897969854998a811015613c9357869798999a613b75613b6c36868661361c565b6107028c613521565b613b8a5750613b83906139cf565b9996613b30565b939495965091505060001991828101908111613c8057613bad613bb59187613492565b509186613492565b613c6e5790613bc3916139de565b83548015613c5b570193613bd78585613492565b919091613c49576006979850613bed82546134aa565b9081613c07575b5050505050558291388080808080613b35565b8490601f808411600114613c2757505050509050555b3880808080613bf4565b8493958395613c4294528520950160051c8501908501613716565b5555613c1d565b634e487b7160e01b8452838952602484fd5b634e487b7160e01b845260318952602484fd5b634e487b7160e01b8552848a52602485fd5b634e487b7160e01b855260118a52602485fd5b5086979850613b35565b60405162461bcd60e51b8152808901839052603560248201527f4f6e6c79207468652073656c6c6572206f72206869676865737420626964646560448201527f722063616e20656e64207468652061756374696f6e00000000000000000000006064820152608490fd5b9050600787015416331438613b08565b6064906040519062461bcd60e51b82526004820152601960248201527f41756374696f6e20686173206e6f742079657420656e646564000000000000006044820152fd5b6064906040519062461bcd60e51b82526004820152601960248201527f41756374696f6e2068617320616c726561647920656e646564000000000000006044820152fd5b15613da657565b60405162461bcd60e51b815260206004820152604960248201527f41756374696f6e20686173206e6f7420656e646564207965742c206f7220796f60448201527f7520617265206e6f74207468652077696e6e6572206f72206f776e6572206f6660648201526820746865206974656d60b81b608482015260a490fd5b6001600160401b0381116111145760051b60200190565b908154613e4681613e23565b92613e546040519485613500565b818452600090815260208082208186015b848410613e73575050505050565b6001838192613e8185613521565b815201920193019290613e65565b90613e9982613e23565b604090613ea882519182613500565b8381528093613eb9601f1991613e23565b019160005b838110613ecb5750505050565b6020908251613ed9816134e4565b6060808252839080828401528086840152808084015260006080840152600060a0840152600060c0840152600060e084015260006101008401526000610120840152806101408401528061016084015261018083015260006101a083015260006101c083015260006101e0830152828601015201613ebe565b80518210156104bb5760209160051b010190565b60405190816000825492613f79846134aa565b906001948581169081600014613fda5750600114613fa0575b505060209281520301902090565b60009081526020808220959350905b828110613fc6575050602093508201909238613f92565b855487820152948301948694508101613faf565b60ff1916855250508015150282019050602038613f92565b15613ff957565b60405162461bcd60e51b815260206004820152602a60248201527f596f7520617265206e6f7420616e20617574686f72697a656420636f6d6d69746044820152693a32b29036b2b6b132b960b11b6064820152608490fd5b1561405857565b60405162461bcd60e51b815260206004820152602360248201527f546869732061756374696f6e20646f65736e277420686176652061206469737060448201526275746560e81b6064820152608490fd5b60ff1660ff81146137c85760010190565b90604051916020926140e88482816140db8183019687815193849201613215565b8101038084520182613500565b519020916141086040519182816140db8183019687815193849201613215565b519020149056fea264697066735822122099b57560af1c69ea9c9d9a9f9115aa1bc8cdf4d8405ffdcb1ff845a1b4e1b28864736f6c63430008130033",
  "devdoc": {
    "kind": "dev",
    "methods": {
      "owner()": {
        "details": "Returns the address of the current owner."
      },
      "renounceOwnership()": {
        "details": "Leaves the contract without owner. It will not be possible to call `onlyOwner` functions. Can only be called by the current owner. NOTE: Renouncing ownership will leave the contract without an owner, thereby disabling any functionality that is only available to the owner."
      },
      "transferOwnership(address)": {
        "details": "Transfers ownership of the contract to a new account (`newOwner`). Can only be called by the current owner."
      }
    },
    "version": 1
  },
  "userdoc": {
    "kind": "user",
    "methods": {},
    "version": 1
  },
  "storageLayout": {
    "storage": [
      {
        "astId": 7,
        "contract": "contracts/Auction.sol:Auction",
        "label": "_owner",
        "offset": 0,
        "slot": "0",
        "type": "t_address"
      },
      {
        "astId": 5675,
        "contract": "contracts/Auction.sol:Auction",
        "label": "auctionItems",
        "offset": 0,
        "slot": "1",
        "type": "t_mapping(t_string_memory_ptr,t_struct(AuctionItem)5654_storage)"
      },
      {
        "astId": 5680,
        "contract": "contracts/Auction.sol:Auction",
        "label": "activeAuctionOwners",
        "offset": 0,
        "slot": "2",
        "type": "t_mapping(t_address,t_struct(ActiveAuctioneer)5662_storage)"
      },
      {
        "astId": 5684,
        "contract": "contracts/Auction.sol:Auction",
        "label": "pubKeys",
        "offset": 0,
        "slot": "3",
        "type": "t_mapping(t_address,t_string_storage)"
      },
      {
        "astId": 5688,
        "contract": "contracts/Auction.sol:Auction",
        "label": "isCommitteeMember",
        "offset": 0,
        "slot": "4",
        "type": "t_mapping(t_address,t_bool)"
      },
      {
        "astId": 5693,
        "contract": "contracts/Auction.sol:Auction",
        "label": "ownerAuctions",
        "offset": 0,
        "slot": "5",
        "type": "t_mapping(t_address,t_array(t_string_storage)dyn_storage)"
      },
      {
        "astId": 5698,
        "contract": "contracts/Auction.sol:Auction",
        "label": "userBidsMapping",
        "offset": 0,
        "slot": "6",
        "type": "t_mapping(t_address,t_struct(UserBids)5670_storage)"
      },
      {
        "astId": 5701,
        "contract": "contracts/Auction.sol:Auction",
        "label": "auctionArr",
        "offset": 0,
        "slot": "7",
        "type": "t_array(t_string_storage)dyn_storage"
      },
      {
        "astId": 5704,
        "contract": "contracts/Auction.sol:Auction",
        "label": "disputeArr",
        "offset": 0,
        "slot": "8",
        "type": "t_array(t_string_storage)dyn_storage"
      },
      {
        "astId": 5712,
        "contract": "contracts/Auction.sol:Auction",
        "label": "tokensToStake",
        "offset": 0,
        "slot": "9",
        "type": "t_uint256"
      },
      {
        "astId": 5715,
        "contract": "contracts/Auction.sol:Auction",
        "label": "token",
        "offset": 0,
        "slot": "10",
        "type": "t_contract(ObscurityToken)7366"
      },
      {
        "astId": 5722,
        "contract": "contracts/Auction.sol:Auction",
        "label": "auctionDuration",
        "offset": 20,
        "slot": "10",
        "type": "t_uint64"
      },
      {
        "astId": 5725,
        "contract": "contracts/Auction.sol:Auction",
        "label": "concurrentAuctionsPerUser",
        "offset": 28,
        "slot": "10",
        "type": "t_uint8"
      }
    ],
    "types": {
      "t_address": {
        "encoding": "inplace",
        "label": "address",
        "numberOfBytes": "20"
      },
      "t_address_payable": {
        "encoding": "inplace",
        "label": "address payable",
        "numberOfBytes": "20"
      },
      "t_array(t_string_storage)dyn_storage": {
        "base": "t_string_storage",
        "encoding": "dynamic_array",
        "label": "string[]",
        "numberOfBytes": "32"
      },
      "t_bool": {
        "encoding": "inplace",
        "label": "bool",
        "numberOfBytes": "1"
      },
      "t_contract(ObscurityToken)7366": {
        "encoding": "inplace",
        "label": "contract ObscurityToken",
        "numberOfBytes": "20"
      },
      "t_enum(EscrowState)5618": {
        "encoding": "inplace",
        "label": "enum Auction.EscrowState",
        "numberOfBytes": "1"
      },
      "t_mapping(t_address,t_array(t_string_storage)dyn_storage)": {
        "encoding": "mapping",
        "key": "t_address",
        "label": "mapping(address => string[])",
        "numberOfBytes": "32",
        "value": "t_array(t_string_storage)dyn_storage"
      },
      "t_mapping(t_address,t_bool)": {
        "encoding": "mapping",
        "key": "t_address",
        "label": "mapping(address => bool)",
        "numberOfBytes": "32",
        "value": "t_bool"
      },
      "t_mapping(t_address,t_string_storage)": {
        "encoding": "mapping",
        "key": "t_address",
        "label": "mapping(address => string)",
        "numberOfBytes": "32",
        "value": "t_string_storage"
      },
      "t_mapping(t_address,t_struct(ActiveAuctioneer)5662_storage)": {
        "encoding": "mapping",
        "key": "t_address",
        "label": "mapping(address => struct Auction.ActiveAuctioneer)",
        "numberOfBytes": "32",
        "value": "t_struct(ActiveAuctioneer)5662_storage"
      },
      "t_mapping(t_address,t_struct(UserBids)5670_storage)": {
        "encoding": "mapping",
        "key": "t_address",
        "label": "mapping(address => struct Auction.UserBids)",
        "numberOfBytes": "32",
        "value": "t_struct(UserBids)5670_storage"
      },
      "t_mapping(t_string_memory_ptr,t_bool)": {
        "encoding": "mapping",
        "key": "t_string_memory_ptr",
        "label": "mapping(string => bool)",
        "numberOfBytes": "32",
        "value": "t_bool"
      },
      "t_mapping(t_string_memory_ptr,t_struct(AuctionItem)5654_storage)": {
        "encoding": "mapping",
        "key": "t_string_memory_ptr",
        "label": "mapping(string => struct Auction.AuctionItem)",
        "numberOfBytes": "32",
        "value": "t_struct(AuctionItem)5654_storage"
      },
      "t_string_memory_ptr": {
        "encoding": "bytes",
        "label": "string",
        "numberOfBytes": "32"
      },
      "t_string_storage": {
        "encoding": "bytes",
        "label": "string",
        "numberOfBytes": "32"
      },
      "t_struct(ActiveAuctioneer)5662_storage": {
        "encoding": "inplace",
        "label": "struct Auction.ActiveAuctioneer",
        "members": [
          {
            "astId": 5656,
            "contract": "contracts/Auction.sol:Auction",
            "label": "stakedAmount",
            "offset": 0,
            "slot": "0",
            "type": "t_uint256"
          },
          {
            "astId": 5659,
            "contract": "contracts/Auction.sol:Auction",
            "label": "activeAuctions",
            "offset": 0,
            "slot": "1",
            "type": "t_array(t_string_storage)dyn_storage"
          },
          {
            "astId": 5661,
            "contract": "contracts/Auction.sol:Auction",
            "label": "isInitialized",
            "offset": 0,
            "slot": "2",
            "type": "t_bool"
          }
        ],
        "numberOfBytes": "96"
      },
      "t_struct(AuctionItem)5654_storage": {
        "encoding": "inplace",
        "label": "struct Auction.AuctionItem",
        "members": [
          {
            "astId": 5620,
            "contract": "contracts/Auction.sol:Auction",
            "label": "itemId",
            "offset": 0,
            "slot": "0",
            "type": "t_string_storage"
          },
          {
            "astId": 5622,
            "contract": "contracts/Auction.sol:Auction",
            "label": "itemName",
            "offset": 0,
            "slot": "1",
            "type": "t_string_storage"
          },
          {
            "astId": 5624,
            "contract": "contracts/Auction.sol:Auction",
            "label": "itemDescription",
            "offset": 0,
            "slot": "2",
            "type": "t_string_storage"
          },
          {
            "astId": 5626,
            "contract": "contracts/Auction.sol:Auction",
            "label": "hashOfImage",
            "offset": 0,
            "slot": "3",
            "type": "t_string_storage"
          },
          {
            "astId": 5628,
            "contract": "contracts/Auction.sol:Auction",
            "label": "seller",
            "offset": 0,
            "slot": "4",
            "type": "t_address_payable"
          },
          {
            "astId": 5630,
            "contract": "contracts/Auction.sol:Auction",
            "label": "reservePrice",
            "offset": 0,
            "slot": "5",
            "type": "t_uint256"
          },
          {
            "astId": 5632,
            "contract": "contracts/Auction.sol:Auction",
            "label": "highestBid",
            "offset": 0,
            "slot": "6",
            "type": "t_uint256"
          },
          {
            "astId": 5634,
            "contract": "contracts/Auction.sol:Auction",
            "label": "highestBidder",
            "offset": 0,
            "slot": "7",
            "type": "t_address_payable"
          },
          {
            "astId": 5636,
            "contract": "contracts/Auction.sol:Auction",
            "label": "auctionEndTime",
            "offset": 0,
            "slot": "8",
            "type": "t_uint256"
          },
          {
            "astId": 5638,
            "contract": "contracts/Auction.sol:Auction",
            "label": "ended",
            "offset": 0,
            "slot": "9",
            "type": "t_bool"
          },
          {
            "astId": 5640,
            "contract": "contracts/Auction.sol:Auction",
            "label": "deliveryAddress",
            "offset": 0,
            "slot": "10",
            "type": "t_string_storage"
          },
          {
            "astId": 5643,
            "contract": "contracts/Auction.sol:Auction",
            "label": "privateChatLogs",
            "offset": 0,
            "slot": "11",
            "type": "t_array(t_string_storage)dyn_storage"
          },
          {
            "astId": 5646,
            "contract": "contracts/Auction.sol:Auction",
            "label": "committeeChatLogs",
            "offset": 0,
            "slot": "12",
            "type": "t_array(t_string_storage)dyn_storage"
          },
          {
            "astId": 5649,
            "contract": "contracts/Auction.sol:Auction",
            "label": "escrowState",
            "offset": 0,
            "slot": "13",
            "type": "t_enum(EscrowState)5618"
          },
          {
            "astId": 5651,
            "contract": "contracts/Auction.sol:Auction",
            "label": "yesVotes",
            "offset": 1,
            "slot": "13",
            "type": "t_uint8"
          },
          {
            "astId": 5653,
            "contract": "contracts/Auction.sol:Auction",
            "label": "noVotes",
            "offset": 2,
            "slot": "13",
            "type": "t_uint8"
          }
        ],
        "numberOfBytes": "448"
      },
      "t_struct(UserBids)5670_storage": {
        "encoding": "inplace",
        "label": "struct Auction.UserBids",
        "members": [
          {
            "astId": 5665,
            "contract": "contracts/Auction.sol:Auction",
            "label": "auctionIds",
            "offset": 0,
            "slot": "0",
            "type": "t_array(t_string_storage)dyn_storage"
          },
          {
            "astId": 5669,
            "contract": "contracts/Auction.sol:Auction",
            "label": "auctionExists",
            "offset": 0,
            "slot": "1",
            "type": "t_mapping(t_string_memory_ptr,t_bool)"
          }
        ],
        "numberOfBytes": "64"
      },
      "t_uint256": {
        "encoding": "inplace",
        "label": "uint256",
        "numberOfBytes": "32"
      },
      "t_uint64": {
        "encoding": "inplace",
        "label": "uint64",
        "numberOfBytes": "8"
      },
      "t_uint8": {
        "encoding": "inplace",
        "label": "uint8",
        "numberOfBytes": "1"
      }
    }
  }
}