{
  "address": "0xa513E6E4b8f2a923D98304ec87F64353C4D5C853",
  "abi": [
    {
      "inputs": [
        {
          "internalType": "contract ObscurityToken",
          "name": "_token",
          "type": "address"
        }
      ],
      "stateMutability": "nonpayable",
      "type": "constructor"
    },
    {
      "anonymous": false,
      "inputs": [
        {
          "indexed": true,
          "internalType": "uint256",
          "name": "itemId",
          "type": "uint256"
        },
        {
          "indexed": false,
          "internalType": "string",
          "name": "itemName",
          "type": "string"
        }
      ],
      "name": "AuctionItemCreated",
      "type": "event"
    },
    {
      "anonymous": false,
      "inputs": [
        {
          "indexed": true,
          "internalType": "address",
          "name": "previousOwner",
          "type": "address"
        },
        {
          "indexed": true,
          "internalType": "address",
          "name": "newOwner",
          "type": "address"
        }
      ],
      "name": "OwnershipTransferred",
      "type": "event"
    },
    {
      "inputs": [
        {
          "internalType": "address",
          "name": "",
          "type": "address"
        }
      ],
      "name": "activeAuctionOwners",
      "outputs": [
        {
          "internalType": "uint256",
          "name": "stakedAmount",
          "type": "uint256"
        },
        {
          "internalType": "bool",
          "name": "isInitialized",
          "type": "bool"
        }
      ],
      "stateMutability": "view",
      "type": "function"
    },
    {
      "inputs": [
        {
          "internalType": "uint256",
          "name": "",
          "type": "uint256"
        }
      ],
      "name": "auctionItems",
      "outputs": [
        {
          "internalType": "uint256",
          "name": "itemId",
          "type": "uint256"
        },
        {
          "internalType": "string",
          "name": "itemName",
          "type": "string"
        },
        {
          "internalType": "address payable",
          "name": "seller",
          "type": "address"
        },
        {
          "internalType": "uint256",
          "name": "reservePrice",
          "type": "uint256"
        },
        {
          "internalType": "uint256",
          "name": "highestBid",
          "type": "uint256"
        },
        {
          "internalType": "address payable",
          "name": "highestBidder",
          "type": "address"
        },
        {
          "internalType": "uint256",
          "name": "auctionEndTime",
          "type": "uint256"
        },
        {
          "internalType": "bool",
          "name": "ended",
          "type": "bool"
        },
        {
          "internalType": "string",
          "name": "deliveryAddress",
          "type": "string"
        },
        {
          "internalType": "enum Auction.EscrowState",
          "name": "escrowState",
          "type": "uint8"
        }
      ],
      "stateMutability": "view",
      "type": "function"
    },
    {
      "inputs": [
        {
          "internalType": "uint256",
          "name": "itemId",
          "type": "uint256"
        },
        {
          "internalType": "string",
          "name": "itemName",
          "type": "string"
        },
        {
          "internalType": "uint256",
          "name": "reservePrice",
          "type": "uint256"
        }
      ],
      "name": "createAuctionItem",
      "outputs": [],
      "stateMutability": "nonpayable",
      "type": "function"
    },
    {
      "inputs": [
        {
          "internalType": "uint256",
          "name": "itemId",
          "type": "uint256"
        }
      ],
      "name": "endAuction",
      "outputs": [],
      "stateMutability": "payable",
      "type": "function"
    },
    {
      "inputs": [],
      "name": "getActiveAuctioneer",
      "outputs": [
        {
          "internalType": "uint256",
          "name": "",
          "type": "uint256"
        },
        {
          "internalType": "uint256[]",
          "name": "",
          "type": "uint256[]"
        },
        {
          "internalType": "bool",
          "name": "",
          "type": "bool"
        }
      ],
      "stateMutability": "view",
      "type": "function"
    },
    {
      "inputs": [],
      "name": "getAuctionDuration",
      "outputs": [
        {
          "internalType": "uint256",
          "name": "",
          "type": "uint256"
        }
      ],
      "stateMutability": "view",
      "type": "function"
    },
    {
      "inputs": [
        {
          "internalType": "uint256",
          "name": "itemId",
          "type": "uint256"
        }
      ],
      "name": "getAuctionItem",
      "outputs": [
        {
          "internalType": "uint256",
          "name": "",
          "type": "uint256"
        },
        {
          "internalType": "string",
          "name": "",
          "type": "string"
        },
        {
          "internalType": "address payable",
          "name": "",
          "type": "address"
        },
        {
          "internalType": "uint256",
          "name": "",
          "type": "uint256"
        },
        {
          "internalType": "uint256",
          "name": "",
          "type": "uint256"
        },
        {
          "internalType": "address payable",
          "name": "",
          "type": "address"
        },
        {
          "internalType": "uint256",
          "name": "",
          "type": "uint256"
        },
        {
          "internalType": "bool",
          "name": "",
          "type": "bool"
        }
      ],
      "stateMutability": "view",
      "type": "function"
    },
    {
      "inputs": [
        {
          "internalType": "uint256",
          "name": "itemId",
          "type": "uint256"
        }
      ],
      "name": "getChatLogOfItem",
      "outputs": [
        {
          "internalType": "string[]",
          "name": "",
          "type": "string[]"
        }
      ],
      "stateMutability": "view",
      "type": "function"
    },
    {
      "inputs": [],
      "name": "getConcurrentAuctionsPerUser",
      "outputs": [
        {
          "internalType": "uint256",
          "name": "",
          "type": "uint256"
        }
      ],
      "stateMutability": "view",
      "type": "function"
    },
    {
      "inputs": [],
      "name": "getCurrentTimestamp",
      "outputs": [
        {
          "internalType": "uint256",
          "name": "",
          "type": "uint256"
        }
      ],
      "stateMutability": "view",
      "type": "function"
    },
    {
      "inputs": [
        {
          "internalType": "uint256",
          "name": "itemId",
          "type": "uint256"
        }
      ],
      "name": "getDeliveryAddress",
      "outputs": [
        {
          "internalType": "string",
          "name": "",
          "type": "string"
        }
      ],
      "stateMutability": "view",
      "type": "function"
    },
    {
      "inputs": [],
      "name": "getTokensToStake",
      "outputs": [
        {
          "internalType": "uint256",
          "name": "",
          "type": "uint256"
        }
      ],
      "stateMutability": "view",
      "type": "function"
    },
    {
      "inputs": [],
      "name": "owner",
      "outputs": [
        {
          "internalType": "address",
          "name": "",
          "type": "address"
        }
      ],
      "stateMutability": "view",
      "type": "function"
    },
    {
      "inputs": [
        {
          "internalType": "uint256",
          "name": "itemId",
          "type": "uint256"
        },
        {
          "internalType": "uint256",
          "name": "bidAmount",
          "type": "uint256"
        }
      ],
      "name": "placeBid",
      "outputs": [],
      "stateMutability": "payable",
      "type": "function"
    },
    {
      "inputs": [
        {
          "internalType": "address",
          "name": "",
          "type": "address"
        }
      ],
      "name": "pubKeys",
      "outputs": [
        {
          "internalType": "bytes",
          "name": "",
          "type": "bytes"
        }
      ],
      "stateMutability": "view",
      "type": "function"
    },
    {
      "inputs": [],
      "name": "relinquishTokensToOwner",
      "outputs": [],
      "stateMutability": "nonpayable",
      "type": "function"
    },
    {
      "inputs": [],
      "name": "renounceOwnership",
      "outputs": [],
      "stateMutability": "nonpayable",
      "type": "function"
    },
    {
      "inputs": [
        {
          "internalType": "uint256",
          "name": "itemId",
          "type": "uint256"
        },
        {
          "internalType": "string",
          "name": "message",
          "type": "string"
        }
      ],
      "name": "sendChat",
      "outputs": [],
      "stateMutability": "nonpayable",
      "type": "function"
    },
    {
      "inputs": [
        {
          "internalType": "uint256",
          "name": "duration",
          "type": "uint256"
        }
      ],
      "name": "setAuctionDuration",
      "outputs": [],
      "stateMutability": "nonpayable",
      "type": "function"
    },
    {
      "inputs": [
        {
          "internalType": "uint256",
          "name": "auctionCount",
          "type": "uint256"
        }
      ],
      "name": "setConcurrentAuctionsPerUser",
      "outputs": [],
      "stateMutability": "nonpayable",
      "type": "function"
    },
    {
      "inputs": [
        {
          "internalType": "uint256",
          "name": "itemId",
          "type": "uint256"
        },
        {
          "internalType": "string",
          "name": "deliveryAddress",
          "type": "string"
        }
      ],
      "name": "setDeliveryAddress",
      "outputs": [],
      "stateMutability": "nonpayable",
      "type": "function"
    },
    {
      "inputs": [
        {
          "internalType": "bytes",
          "name": "pubKey",
          "type": "bytes"
        }
      ],
      "name": "setPubKey",
      "outputs": [],
      "stateMutability": "nonpayable",
      "type": "function"
    },
    {
      "inputs": [
        {
          "internalType": "uint256",
          "name": "amount",
          "type": "uint256"
        }
      ],
      "name": "setTokensToStake",
      "outputs": [],
      "stateMutability": "nonpayable",
      "type": "function"
    },
    {
      "inputs": [
        {
          "internalType": "uint256",
          "name": "amount",
          "type": "uint256"
        }
      ],
      "name": "stakeTokens",
      "outputs": [],
      "stateMutability": "nonpayable",
      "type": "function"
    },
    {
      "inputs": [
        {
          "internalType": "address",
          "name": "newOwner",
          "type": "address"
        }
      ],
      "name": "transferOwnership",
      "outputs": [],
      "stateMutability": "nonpayable",
      "type": "function"
    },
    {
      "inputs": [
        {
          "internalType": "uint256",
          "name": "itemId",
          "type": "uint256"
        },
        {
          "internalType": "enum Auction.EscrowState",
          "name": "nextState",
          "type": "uint8"
        }
      ],
      "name": "transitionEscrowState",
      "outputs": [],
      "stateMutability": "nonpayable",
      "type": "function"
    }
  ],
  "transactionHash": "0xdba4681e902048e7d0bad2242b94c7471f033ac4a619dc8c49b450d4ea9a411a",
  "args": [
    "0x5FbDB2315678afecb367f032d93F642f64180aa3"
  ],
  "numDeployments": 1,
  "solcInputHash": "7e03238b746b75439f9ac11cceefc2f1",
  "bytecode": "0x60806040526101f46004556201518060065560026007553480156200002357600080fd5b5060405162002983380380620029838339810160408190526200004691620000c7565b620000513362000077565b600580546001600160a01b0319166001600160a01b0392909216919091179055620000f9565b600080546001600160a01b038381166001600160a01b0319831681178455604051919092169283917f8be0079c531659141344cd1fd0a4f28419497f9722a3daafe3b4186f6b6457e09190a35050565b600060208284031215620000da57600080fd5b81516001600160a01b0381168114620000f257600080fd5b9392505050565b61287a80620001096000396000f3fe6080604052600436106101815760003560e01c80638e9b8d90116100d1578063d6e4ac241161008a578063f2fde38b11610064578063f2fde38b14610440578063fb346ea014610460578063fe097472146104ac578063ff21ce49146104cc57600080fd5b8063d6e4ac24146103eb578063d8bcd0c91461040b578063e32d29131461042057600080fd5b80638e9b8d9014610320578063a497e67414610340578063a4bdc06e14610360578063b9a2de3a14610375578063d1b8b4bf14610388578063d2c069f0146103b557600080fd5b8063715018a61161013e57806388624ab31161011857806388624ab3146102a35780638aaf2761146102b85780638da5cb5b146102d85780638e034d481461030057600080fd5b8063715018a6146102595780637547c7a31461026e57806378cb51af1461028e57600080fd5b80634883b2d5146101865780634f04e79c146101a857806357c90de5146101d557806368bae934146101e85780636c9230db1461021c5780636e2ec26c14610239575b600080fd5b34801561019257600080fd5b506101a66101a1366004612078565b6104f9565b005b3480156101b457600080fd5b506101bd6105fa565b6040516101cc939291906120bf565b60405180910390f35b6101a66101e3366004612118565b61067c565b3480156101f457600080fd5b5061020861020336600461213a565b610a42565b6040516101cc989796959493929190612199565b34801561022857600080fd5b50425b6040519081526020016101cc565b34801561024557600080fd5b506101a66102543660046121f8565b610b7d565b34801561026557600080fd5b506101a6610f4a565b34801561027a57600080fd5b506101a661028936600461213a565b610f5e565b34801561029a57600080fd5b5060065461022b565b3480156102af57600080fd5b5060075461022b565b3480156102c457600080fd5b506101a66102d336600461213a565b611091565b3480156102e457600080fd5b506000546040516001600160a01b0390911681526020016101cc565b34801561030c57600080fd5b506101a661031b366004612291565b61109e565b34801561032c57600080fd5b506101a661033b36600461213a565b611150565b34801561034c57600080fd5b506101a661035b36600461213a565b61115d565b34801561036c57600080fd5b506101a661116a565b6101a661038336600461213a565b6112fd565b34801561039457600080fd5b506103a86103a33660046122dd565b611568565b6040516101cc919061230d565b3480156103c157600080fd5b506103d56103d036600461213a565b611602565b6040516101cc9a99989796959493929190612336565b3480156103f757600080fd5b506101a66104063660046123d0565b61177a565b34801561041757600080fd5b5060045461022b565b34801561042c57600080fd5b506101a661043b366004612404565b611a8c565b34801561044c57600080fd5b506101a661045b3660046122dd565b611aab565b34801561046c57600080fd5b5061049761047b3660046122dd565b6002602081905260009182526040909120805491015460ff1682565b604080519283529015156020830152016101cc565b3480156104b857600080fd5b506103a86104c736600461213a565b611b21565b3480156104d857600080fd5b506104ec6104e736600461213a565b611c71565b6040516101cc9190612446565b600082815260016020526040902054829081146105315760405162461bcd60e51b8152600401610528906124a8565b60405180910390fd5b60008381526001602052604090206005015483906001600160a01b03163314801561056d575060008181526001602052604090206007015460ff165b6105d65760405162461bcd60e51b815260206004820152603460248201527f596f7520686176656e277420776f6e207468652061756374696f6e206f7220696044820152737473207374696c6c20696e2070726f677265737360601b6064820152608401610528565b6000848152600160205260409020600881016105f2858261254f565b505050505050565b336000908152600260208181526040808420805493810154600182018054845181870281018701909552808552606096889694959094929360ff16929091849183018282801561066957602002820191906000526020600020905b815481526020019060010190808311610655575b5050505050915093509350935050909192565b600082815260016020526040902054829081146106ab5760405162461bcd60e51b8152600401610528906124a8565b33600090815260036020526040902080546106c5906124d5565b90506000036106e65760405162461bcd60e51b81526004016105289061260f565b60008381526001602052604090206002810154336001600160a01b039091160361075c5760405162461bcd60e51b815260206004820152602160248201527f4f776e65722063616e277420626964206f6e2074686569722061756374696f6e6044820152607360f81b6064820152608401610528565b828160030154106107c15760405162461bcd60e51b815260206004820152602960248201527f426964206d75737420626520686967686572207468616e20746865207265736560448201526872766520707269636560b81b6064820152608401610528565b600781015460ff161561080a5760405162461bcd60e51b8152602060048201526011602482015270105d58dd1a5bdb881a185cc8195b991959607a1b6044820152606401610528565b806006015442106108535760405162461bcd60e51b8152602060048201526013602482015272105d58dd1a5bdb881a185cc8195e1c1a5c9959606a1b6044820152606401610528565b806004015483116108be5760405162461bcd60e51b815260206004820152602f60248201527f426964206d75737420626520686967686572207468616e20746865206375727260448201526e195b9d081a1a59da195cdd08189a59608a1b6064820152608401610528565b6005546040516323b872dd60e01b8152336004820152306024820152604481018590526001600160a01b03909116906323b872dd906064016020604051808303816000875af1158015610915573d6000803e3d6000fd5b505050506040513d601f19601f82011682018060405250810190610939919061266c565b5060058101546001600160a01b0316156109d057600580549082015460048084015460405163a9059cbb60e01b81526001600160a01b0393841692810192909252602482015291169063a9059cbb906044016020604051808303816000875af11580156109aa573d6000803e3d6000fd5b505050506040513d601f19601f820116820180604052508101906109ce919061266c565b505b600481018390556005810180546001600160a01b0319163317905560068101546101f4906109ff9042906126a4565b11610a3c576006810154610a1342826126a4565b610a1f906101f46126a4565b610a2991906126bd565b6000858152600160205260409020600601555b50505050565b600060606000806000806000808880600160008381526020019081526020016000206000015414610a855760405162461bcd60e51b8152600401610528906124a8565b60008a8152600160208190526040909120805460028201546003830154600484015460058501546006860154600787015497870180549798969790966001600160a01b03968716969093169260ff16908790610ae0906124d5565b80601f0160208091040260200160405190810160405280929190818152602001828054610b0c906124d5565b8015610b595780601f10610b2e57610100808354040283529160200191610b59565b820191906000526020600020905b815481529060010190602001808311610b3c57829003601f168201915b50505050509650995099509950995099509950995099505050919395975091939597565b600454336000908152600260205260409020541015610bf45760405162461bcd60e51b815260206004820152602d60248201527f4e6f7420656e6f75676820746f6b656e73207374616b656420746f206372656160448201526c3a329030b71030bab1ba34b7b760991b6064820152608401610528565b6007543360009081526002602052604090206001015410610c675760405162461bcd60e51b815260206004820152602760248201527f596f752063616e2774206861766520616e79206d6f7265206163746976652061604482015266756374696f6e7360c81b6064820152608401610528565b3360009081526003602052604090208054610c81906124d5565b9050600003610ca25760405162461bcd60e51b81526004016105289061260f565b60008381526001602052604090205415610cf45760405162461bcd60e51b81526020600482015260136024820152724974656d20616c72656164792065786973747360681b6044820152606401610528565b60008111610d545760405162461bcd60e51b815260206004820152602760248201527f52657365727665207072696365206d7573742062652067726561746572207468604482015266616e207a65726f60c81b6064820152608401610528565b600060065442610d6491906126bd565b90506060604051806101600160405280868152602001858152602001336001600160a01b031681526020018481526020016000815260200160006001600160a01b0316815260200183815260200160001515815260200160405180602001604052806000815250815260200182815260200160006005811115610de957610de9612320565b90526000868152600160208181526040909220835181559183015190820190610e12908261254f565b5060408201516002820180546001600160a01b039283166001600160a01b031991821617909155606084015160038401556080840151600484015560a084015160058401805491909316911617905560c0820151600682015560e082015160078201805491151560ff199092169190911790556101008201516008820190610e9a908261254f565b506101208201518051610eb7916009840191602090910190611e8c565b50610140820151600a8201805460ff19166001836005811115610edc57610edc612320565b02179055505033600090815260026020908152604080832060019081018054918201815584529190922001879055518691507f3fb6e393977782dbaf8affb32c163c4c606c4d37b991d95505e231efe806757290610f3b90879061230d565b60405180910390a25050505050565b610f52611de2565b610f5c6000611e3c565b565b6005546040516323b872dd60e01b8152336004820152306024820152604481018390526001600160a01b03909116906323b872dd906064016020604051808303816000875af1158015610fb5573d6000803e3d6000fd5b505050506040513d601f19601f82011682018060405250810190610fd9919061266c565b50336000908152600260208190526040909120015460ff16156110205733600090815260026020526040812080548392906110159084906126bd565b9091555061108e9050565b60408051606081018252828152815160008082526020808301855280840192835260018486018190523383526002825294909120835181559151805193949293611071938501929190910190611ee2565b50604091909101516002909101805460ff19169115159190911790555b50565b611099611de2565b600455565b600083815260016020526040902054839081146110cd5760405162461bcd60e51b8152600401610528906124a8565b600084815260016020526040902060058101546001600160a01b0316331480611102575060028101546001600160a01b031633145b80156111125750600781015460ff165b61112e5760405162461bcd60e51b8152600401610528906126d0565b60098101805460018101825560009182526020909120016105f284868361273f565b611158611de2565b600755565b611165611de2565b600655565b33600090815260026020526040902060010154156111e95760405162461bcd60e51b815260206004820152603660248201527f596f752063616e27742072656465656d20746f6b656e73207768696c65206f6e60448201527519dbda5b99c8185d58dd1a5bdb9cc81c195c9cda5cdd60521b6064820152608401610528565b600554336000908152600260205260409081902054905163095ea7b360e01b815230600482015260248101919091526001600160a01b039091169063095ea7b3906044016020604051808303816000875af115801561124c573d6000803e3d6000fd5b505050506040513d601f19601f82011682018060405250810190611270919061266c565b5060055433600081815260026020526040908190205490516323b872dd60e01b8152306004820152602481019290925260448201526001600160a01b03909116906323b872dd906064016020604051808303816000875af11580156112d9573d6000803e3d6000fd5b505050506040513d601f19601f8201168201806040525081019061108e919061266c565b6000818152600160205260409020548190811461132c5760405162461bcd60e51b8152600401610528906124a8565b6000828152600160205260409020600781015460ff161561138f5760405162461bcd60e51b815260206004820152601960248201527f41756374696f6e2068617320616c726561647920656e646564000000000000006044820152606401610528565b80600601544210156113e35760405162461bcd60e51b815260206004820152601960248201527f41756374696f6e20686173206e6f742079657420656e646564000000000000006044820152606401610528565b60028101546001600160a01b031633148061140a575060058101546001600160a01b031633145b6114745760405162461bcd60e51b815260206004820152603560248201527f4f6e6c79207468652073656c6c6572206f722068696768657374206269646465604482015274391031b0b71032b732103a34329030bab1ba34b7b760591b6064820152608401610528565b60078101805460ff19166001908117909155336000908152600260205260408120909101905b8154811015611555578460010361154357815482906114bb906001906126a4565b815481106114cb576114cb6127ff565b90600052602060002001548282815481106114e8576114e86127ff565b90600052602060002001819055508180548061150657611506612815565b6000828152602080822083016000199081018390559092019092553382526002905260409020825461153d91600101908490611f29565b50611555565b8061154d8161282b565b91505061149a565b508160040154600003610a3c5750505050565b60036020526000908152604090208054611581906124d5565b80601f01602080910402602001604051908101604052809291908181526020018280546115ad906124d5565b80156115fa5780601f106115cf576101008083540402835291602001916115fa565b820191906000526020600020905b8154815290600101906020018083116115dd57829003601f168201915b505050505081565b600160208190526000918252604090912080549181018054611623906124d5565b80601f016020809104026020016040519081016040528092919081815260200182805461164f906124d5565b801561169c5780601f106116715761010080835404028352916020019161169c565b820191906000526020600020905b81548152906001019060200180831161167f57829003601f168201915b5050505060028301546003840154600485015460058601546006870154600788015460088901805498996001600160a01b0397881699969850949690931694919360ff9091169290916116ee906124d5565b80601f016020809104026020016040519081016040528092919081815260200182805461171a906124d5565b80156117675780601f1061173c57610100808354040283529160200191611767565b820191906000526020600020905b81548152906001019060200180831161174a57829003601f168201915b505050600a909301549192505060ff168a565b600082815260016020526040902054829081146117a95760405162461bcd60e51b8152600401610528906124a8565b600083815260016020526040902060028101546001600160a01b0316331480156117e4575060018360058111156117e2576117e2612320565b145b801561180857506000600a82015460ff16600581111561180657611806612320565b145b8061185f575060028101546001600160a01b03163314801561183b5750600283600581111561183957611839612320565b145b801561185f57506001600a82015460ff16600581111561185d5761185d612320565b145b806118b6575060058101546001600160a01b0316331480156118925750600383600581111561189057611890612320565b145b80156118b657506002600a82015460ff1660058111156118b4576118b4612320565b145b8061190d575060058101546001600160a01b0316331480156118e9575060038360058111156118e7576118e7612320565b145b801561190d57506002600a82015460ff16600581111561190b5761190b612320565b145b6119595760405162461bcd60e51b815260206004820152601860248201527f496e76616c6964207374617465207472616e736974696f6e00000000000000006044820152606401610528565b600081600801805461196a906124d5565b9050116119c55760405162461bcd60e51b815260206004820152602360248201527f506c656173652073657420612064656c697665727920616464726573732066696044820152621c9cdd60ea1b6064820152608401610528565b600a8101805484919060ff191660018360058111156119e6576119e6612320565b021790555060038360058111156119ff576119ff612320565b03610a3c57600554600282015460048084015460405163a9059cbb60e01b81526001600160a01b0393841692810192909252602482015291169063a9059cbb906044016020604051808303816000875af1158015611a61573d6000803e3d6000fd5b505050506040513d601f19601f82011682018060405250810190611a85919061266c565b5050505050565b336000908152600360205260409020611aa682848361273f565b505050565b611ab3611de2565b6001600160a01b038116611b185760405162461bcd60e51b815260206004820152602660248201527f4f776e61626c653a206e6577206f776e657220697320746865207a65726f206160448201526564647265737360d01b6064820152608401610528565b61108e81611e3c565b60008181526001602052604090205460609082908114611b535760405162461bcd60e51b8152600401610528906124a8565b60008381526001602052604090206002015483906001600160a01b03163314611bce5760405162461bcd60e51b815260206004820152602760248201527f4f6e6c792061756374696f6e206f776e65722063616e2063616c6c2074686973604482015266081b595d1a1bd960ca1b6064820152608401610528565b60008481526001602052604090206008018054611bea906124d5565b80601f0160208091040260200160405190810160405280929190818152602001828054611c16906124d5565b8015611c635780601f10611c3857610100808354040283529160200191611c63565b820191906000526020600020905b815481529060010190602001808311611c4657829003601f168201915b505050505092505050919050565b60008181526001602052604090205460609082908114611ca35760405162461bcd60e51b8152600401610528906124a8565b600083815260016020526040902060058101546001600160a01b0316331480611cd8575060028101546001600160a01b031633145b8015611ce85750600781015460ff165b611d045760405162461bcd60e51b8152600401610528906126d0565b80600901805480602002602001604051908101604052809291908181526020016000905b82821015611dd4578382906000526020600020018054611d47906124d5565b80601f0160208091040260200160405190810160405280929190818152602001828054611d73906124d5565b8015611dc05780601f10611d9557610100808354040283529160200191611dc0565b820191906000526020600020905b815481529060010190602001808311611da357829003601f168201915b505050505081526020019060010190611d28565b505050509250505b50919050565b6000546001600160a01b03163314610f5c5760405162461bcd60e51b815260206004820181905260248201527f4f776e61626c653a2063616c6c6572206973206e6f7420746865206f776e65726044820152606401610528565b600080546001600160a01b038381166001600160a01b0319831681178455604051919092169283917f8be0079c531659141344cd1fd0a4f28419497f9722a3daafe3b4186f6b6457e09190a35050565b828054828255906000526020600020908101928215611ed2579160200282015b82811115611ed25782518290611ec2908261254f565b5091602001919060010190611eac565b50611ede929150611f69565b5090565b828054828255906000526020600020908101928215611f1d579160200282015b82811115611f1d578251825591602001919060010190611f02565b50611ede929150611f86565b828054828255906000526020600020908101928215611f1d5760005260206000209182015b82811115611f1d578254825591600101919060010190611f4e565b80821115611ede576000611f7d8282611f9b565b50600101611f69565b5b80821115611ede5760008155600101611f87565b508054611fa7906124d5565b6000825580601f10611fb7575050565b601f01602090049060005260206000209081019061108e9190611f86565b634e487b7160e01b600052604160045260246000fd5b600082601f830112611ffc57600080fd5b813567ffffffffffffffff8082111561201757612017611fd5565b604051601f8301601f19908116603f0116810190828211818310171561203f5761203f611fd5565b8160405283815286602085880101111561205857600080fd5b836020870160208301376000602085830101528094505050505092915050565b6000806040838503121561208b57600080fd5b82359150602083013567ffffffffffffffff8111156120a957600080fd5b6120b585828601611feb565b9150509250929050565b6000606082018583526020606081850152818651808452608086019150828801935060005b81811015612100578451835293830193918301916001016120e4565b50508093505050508215156040830152949350505050565b6000806040838503121561212b57600080fd5b50508035926020909101359150565b60006020828403121561214c57600080fd5b5035919050565b6000815180845260005b818110156121795760208185018101518683018201520161215d565b506000602082860101526020601f19601f83011685010191505092915050565b60006101008a83528060208401526121b38184018b612153565b6001600160a01b03998a1660408501526060840198909852505060808101949094529190941660a083015260c082019390935291151560e09092019190915292915050565b60008060006060848603121561220d57600080fd5b83359250602084013567ffffffffffffffff81111561222b57600080fd5b61223786828701611feb565b925050604084013590509250925092565b60008083601f84011261225a57600080fd5b50813567ffffffffffffffff81111561227257600080fd5b60208301915083602082850101111561228a57600080fd5b9250929050565b6000806000604084860312156122a657600080fd5b83359250602084013567ffffffffffffffff8111156122c457600080fd5b6122d086828701612248565b9497909650939450505050565b6000602082840312156122ef57600080fd5b81356001600160a01b038116811461230657600080fd5b9392505050565b6020815260006123066020830184612153565b634e487b7160e01b600052602160045260246000fd5b60006101408c83528060208401526123508184018d612153565b6001600160a01b038c81166040860152606085018c9052608085018b9052891660a085015260c0840188905286151560e085015283810361010085015290506123998186612153565b915050600683106123ba57634e487b7160e01b600052602160045260246000fd5b826101208301529b9a5050505050505050505050565b600080604083850312156123e357600080fd5b823591506020830135600681106123f957600080fd5b809150509250929050565b6000806020838503121561241757600080fd5b823567ffffffffffffffff81111561242e57600080fd5b61243a85828601612248565b90969095509350505050565b6000602080830181845280855180835260408601915060408160051b870101925083870160005b8281101561249b57603f19888603018452612489858351612153565b9450928501929085019060010161246d565b5092979650505050505050565b602080825260139082015272125d195b48191bd95cc81b9bdd08195e1a5cdd606a1b604082015260600190565b600181811c908216806124e957607f821691505b602082108103611ddc57634e487b7160e01b600052602260045260246000fd5b601f821115611aa657600081815260208120601f850160051c810160208610156125305750805b601f850160051c820191505b818110156105f25782815560010161253c565b815167ffffffffffffffff81111561256957612569611fd5565b61257d8161257784546124d5565b84612509565b602080601f8311600181146125b2576000841561259a5750858301515b600019600386901b1c1916600185901b1785556105f2565b600085815260208120601f198616915b828110156125e1578886015182559484019460019091019084016125c2565b50858210156125ff5787850151600019600388901b60f8161c191681555b5050505050600190811b01905550565b6020808252603c908201527f506c65617365207375626d697420796f7572206574682077616c6c657420707560408201527f626b6579206265666f7265207573696e67207468652073797374656d00000000606082015260800190565b60006020828403121561267e57600080fd5b8151801515811461230657600080fd5b634e487b7160e01b600052601160045260246000fd5b818103818111156126b7576126b761268e565b92915050565b808201808211156126b7576126b761268e565b60208082526049908201527f41756374696f6e20686173206e6f7420656e646564207965742c206f7220796f60408201527f7520617265206e6f74207468652077696e6e6572206f72206f776e6572206f6660608201526820746865206974656d60b81b608082015260a00190565b67ffffffffffffffff83111561275757612757611fd5565b61276b8361276583546124d5565b83612509565b6000601f84116001811461279f57600085156127875750838201355b600019600387901b1c1916600186901b178355611a85565b600083815260209020601f19861690835b828110156127d057868501358255602094850194600190920191016127b0565b50868210156127ed5760001960f88860031b161c19848701351681555b505060018560011b0183555050505050565b634e487b7160e01b600052603260045260246000fd5b634e487b7160e01b600052603160045260246000fd5b60006001820161283d5761283d61268e565b506001019056fea2646970667358221220ad7d07390edbfad27c0bc88c643b9b79db35f7d2f8e88d3e1862f774560d1dac64736f6c63430008130033",
  "devdoc": {
    "kind": "dev",
    "methods": {
      "owner()": {
        "details": "Returns the address of the current owner."
      },
      "renounceOwnership()": {
        "details": "Leaves the contract without owner. It will not be possible to call `onlyOwner` functions. Can only be called by the current owner. NOTE: Renouncing ownership will leave the contract without an owner, thereby disabling any functionality that is only available to the owner."
      },
      "transferOwnership(address)": {
        "details": "Transfers ownership of the contract to a new account (`newOwner`). Can only be called by the current owner."
      }
    },
    "version": 1
  },
  "userdoc": {
    "kind": "user",
    "methods": {},
    "version": 1
  },
  "storageLayout": {
    "storage": [
      {
        "astId": 7,
        "contract": "contracts/Auction.sol:Auction",
        "label": "_owner",
        "offset": 0,
        "slot": "0",
        "type": "t_address"
      },
      {
        "astId": 5655,
        "contract": "contracts/Auction.sol:Auction",
        "label": "auctionItems",
        "offset": 0,
        "slot": "1",
        "type": "t_mapping(t_uint256,t_struct(AuctionItem)5642_storage)"
      },
      {
        "astId": 5660,
        "contract": "contracts/Auction.sol:Auction",
        "label": "activeAuctionOwners",
        "offset": 0,
        "slot": "2",
        "type": "t_mapping(t_address,t_struct(ActiveAuctioneer)5650_storage)"
      },
      {
        "astId": 5664,
        "contract": "contracts/Auction.sol:Auction",
        "label": "pubKeys",
        "offset": 0,
        "slot": "3",
        "type": "t_mapping(t_address,t_bytes_storage)"
      },
      {
        "astId": 5667,
        "contract": "contracts/Auction.sol:Auction",
        "label": "tokensToStake",
        "offset": 0,
        "slot": "4",
        "type": "t_uint256"
      },
      {
        "astId": 5670,
        "contract": "contracts/Auction.sol:Auction",
        "label": "token",
        "offset": 0,
        "slot": "5",
        "type": "t_contract(ObscurityToken)6731"
      },
      {
        "astId": 5677,
        "contract": "contracts/Auction.sol:Auction",
        "label": "auctionDuration",
        "offset": 0,
        "slot": "6",
        "type": "t_uint256"
      },
      {
        "astId": 5680,
        "contract": "contracts/Auction.sol:Auction",
        "label": "concurrentAuctionsPerUser",
        "offset": 0,
        "slot": "7",
        "type": "t_uint256"
      }
    ],
    "types": {
      "t_address": {
        "encoding": "inplace",
        "label": "address",
        "numberOfBytes": "20"
      },
      "t_address_payable": {
        "encoding": "inplace",
        "label": "address payable",
        "numberOfBytes": "20"
      },
      "t_array(t_string_storage)dyn_storage": {
        "base": "t_string_storage",
        "encoding": "dynamic_array",
        "label": "string[]",
        "numberOfBytes": "32"
      },
      "t_array(t_uint256)dyn_storage": {
        "base": "t_uint256",
        "encoding": "dynamic_array",
        "label": "uint256[]",
        "numberOfBytes": "32"
      },
      "t_bool": {
        "encoding": "inplace",
        "label": "bool",
        "numberOfBytes": "1"
      },
      "t_bytes_storage": {
        "encoding": "bytes",
        "label": "bytes",
        "numberOfBytes": "32"
      },
      "t_contract(ObscurityToken)6731": {
        "encoding": "inplace",
        "label": "contract ObscurityToken",
        "numberOfBytes": "20"
      },
      "t_enum(EscrowState)5617": {
        "encoding": "inplace",
        "label": "enum Auction.EscrowState",
        "numberOfBytes": "1"
      },
      "t_mapping(t_address,t_bytes_storage)": {
        "encoding": "mapping",
        "key": "t_address",
        "label": "mapping(address => bytes)",
        "numberOfBytes": "32",
        "value": "t_bytes_storage"
      },
      "t_mapping(t_address,t_struct(ActiveAuctioneer)5650_storage)": {
        "encoding": "mapping",
        "key": "t_address",
        "label": "mapping(address => struct Auction.ActiveAuctioneer)",
        "numberOfBytes": "32",
        "value": "t_struct(ActiveAuctioneer)5650_storage"
      },
      "t_mapping(t_uint256,t_struct(AuctionItem)5642_storage)": {
        "encoding": "mapping",
        "key": "t_uint256",
        "label": "mapping(uint256 => struct Auction.AuctionItem)",
        "numberOfBytes": "32",
        "value": "t_struct(AuctionItem)5642_storage"
      },
      "t_string_storage": {
        "encoding": "bytes",
        "label": "string",
        "numberOfBytes": "32"
      },
      "t_struct(ActiveAuctioneer)5650_storage": {
        "encoding": "inplace",
        "label": "struct Auction.ActiveAuctioneer",
        "members": [
          {
            "astId": 5644,
            "contract": "contracts/Auction.sol:Auction",
            "label": "stakedAmount",
            "offset": 0,
            "slot": "0",
            "type": "t_uint256"
          },
          {
            "astId": 5647,
            "contract": "contracts/Auction.sol:Auction",
            "label": "activeAuctions",
            "offset": 0,
            "slot": "1",
            "type": "t_array(t_uint256)dyn_storage"
          },
          {
            "astId": 5649,
            "contract": "contracts/Auction.sol:Auction",
            "label": "isInitialized",
            "offset": 0,
            "slot": "2",
            "type": "t_bool"
          }
        ],
        "numberOfBytes": "96"
      },
      "t_struct(AuctionItem)5642_storage": {
        "encoding": "inplace",
        "label": "struct Auction.AuctionItem",
        "members": [
          {
            "astId": 5619,
            "contract": "contracts/Auction.sol:Auction",
            "label": "itemId",
            "offset": 0,
            "slot": "0",
            "type": "t_uint256"
          },
          {
            "astId": 5621,
            "contract": "contracts/Auction.sol:Auction",
            "label": "itemName",
            "offset": 0,
            "slot": "1",
            "type": "t_string_storage"
          },
          {
            "astId": 5623,
            "contract": "contracts/Auction.sol:Auction",
            "label": "seller",
            "offset": 0,
            "slot": "2",
            "type": "t_address_payable"
          },
          {
            "astId": 5625,
            "contract": "contracts/Auction.sol:Auction",
            "label": "reservePrice",
            "offset": 0,
            "slot": "3",
            "type": "t_uint256"
          },
          {
            "astId": 5627,
            "contract": "contracts/Auction.sol:Auction",
            "label": "highestBid",
            "offset": 0,
            "slot": "4",
            "type": "t_uint256"
          },
          {
            "astId": 5629,
            "contract": "contracts/Auction.sol:Auction",
            "label": "highestBidder",
            "offset": 0,
            "slot": "5",
            "type": "t_address_payable"
          },
          {
            "astId": 5631,
            "contract": "contracts/Auction.sol:Auction",
            "label": "auctionEndTime",
            "offset": 0,
            "slot": "6",
            "type": "t_uint256"
          },
          {
            "astId": 5633,
            "contract": "contracts/Auction.sol:Auction",
            "label": "ended",
            "offset": 0,
            "slot": "7",
            "type": "t_bool"
          },
          {
            "astId": 5635,
            "contract": "contracts/Auction.sol:Auction",
            "label": "deliveryAddress",
            "offset": 0,
            "slot": "8",
            "type": "t_string_storage"
          },
          {
            "astId": 5638,
            "contract": "contracts/Auction.sol:Auction",
            "label": "chatLogs",
            "offset": 0,
            "slot": "9",
            "type": "t_array(t_string_storage)dyn_storage"
          },
          {
            "astId": 5641,
            "contract": "contracts/Auction.sol:Auction",
            "label": "escrowState",
            "offset": 0,
            "slot": "10",
            "type": "t_enum(EscrowState)5617"
          }
        ],
        "numberOfBytes": "352"
      },
      "t_uint256": {
        "encoding": "inplace",
        "label": "uint256",
        "numberOfBytes": "32"
      }
    }
  }
}