{
  "address": "0x8A791620dd6260079BF849Dc5567aDC3F2FdC318",
  "abi": [
    {
      "inputs": [
        {
          "internalType": "contract ObscurityToken",
          "name": "_token",
          "type": "address"
        }
      ],
      "stateMutability": "nonpayable",
      "type": "constructor"
    },
    {
      "anonymous": false,
      "inputs": [
        {
          "indexed": true,
          "internalType": "string",
          "name": "itemId",
          "type": "string"
        },
        {
          "indexed": false,
          "internalType": "string",
          "name": "itemName",
          "type": "string"
        }
      ],
      "name": "AuctionItemCreated",
      "type": "event"
    },
    {
      "anonymous": false,
      "inputs": [
        {
          "indexed": true,
          "internalType": "address",
          "name": "previousOwner",
          "type": "address"
        },
        {
          "indexed": true,
          "internalType": "address",
          "name": "newOwner",
          "type": "address"
        }
      ],
      "name": "OwnershipTransferred",
      "type": "event"
    },
    {
      "inputs": [
        {
          "internalType": "address",
          "name": "",
          "type": "address"
        }
      ],
      "name": "activeAuctionOwners",
      "outputs": [
        {
          "internalType": "uint256",
          "name": "stakedAmount",
          "type": "uint256"
        },
        {
          "internalType": "bool",
          "name": "isInitialized",
          "type": "bool"
        }
      ],
      "stateMutability": "view",
      "type": "function"
    },
    {
      "inputs": [
        {
          "internalType": "string",
          "name": "",
          "type": "string"
        }
      ],
      "name": "auctionItems",
      "outputs": [
        {
          "internalType": "string",
          "name": "itemId",
          "type": "string"
        },
        {
          "internalType": "string",
          "name": "itemName",
          "type": "string"
        },
        {
          "internalType": "string",
          "name": "itemDescription",
          "type": "string"
        },
        {
          "internalType": "string",
          "name": "hashOfImage",
          "type": "string"
        },
        {
          "internalType": "address payable",
          "name": "seller",
          "type": "address"
        },
        {
          "internalType": "uint256",
          "name": "reservePrice",
          "type": "uint256"
        },
        {
          "internalType": "uint256",
          "name": "highestBid",
          "type": "uint256"
        },
        {
          "internalType": "address payable",
          "name": "highestBidder",
          "type": "address"
        },
        {
          "internalType": "uint256",
          "name": "auctionEndTime",
          "type": "uint256"
        },
        {
          "internalType": "bool",
          "name": "ended",
          "type": "bool"
        },
        {
          "internalType": "string",
          "name": "deliveryAddress",
          "type": "string"
        },
        {
          "internalType": "enum Auction.EscrowState",
          "name": "escrowState",
          "type": "uint8"
        },
        {
          "internalType": "uint8",
          "name": "yesVotes",
          "type": "uint8"
        },
        {
          "internalType": "uint8",
          "name": "noVotes",
          "type": "uint8"
        }
      ],
      "stateMutability": "view",
      "type": "function"
    },
    {
      "inputs": [
        {
          "internalType": "string",
          "name": "a",
          "type": "string"
        },
        {
          "internalType": "string",
          "name": "b",
          "type": "string"
        }
      ],
      "name": "compareStrings",
      "outputs": [
        {
          "internalType": "bool",
          "name": "",
          "type": "bool"
        }
      ],
      "stateMutability": "pure",
      "type": "function"
    },
    {
      "inputs": [
        {
          "internalType": "string",
          "name": "itemId",
          "type": "string"
        },
        {
          "internalType": "string",
          "name": "itemName",
          "type": "string"
        },
        {
          "internalType": "string",
          "name": "itemDescription",
          "type": "string"
        },
        {
          "internalType": "string",
          "name": "hashOfImage",
          "type": "string"
        },
        {
          "internalType": "uint256",
          "name": "reservePrice",
          "type": "uint256"
        }
      ],
      "name": "createAuctionItem",
      "outputs": [],
      "stateMutability": "nonpayable",
      "type": "function"
    },
    {
      "inputs": [
        {
          "internalType": "string",
          "name": "itemId",
          "type": "string"
        }
      ],
      "name": "endAuction",
      "outputs": [],
      "stateMutability": "payable",
      "type": "function"
    },
    {
      "inputs": [
        {
          "internalType": "address",
          "name": "sender",
          "type": "address"
        }
      ],
      "name": "getActiveAuctioneer",
      "outputs": [
        {
          "internalType": "uint256",
          "name": "",
          "type": "uint256"
        },
        {
          "internalType": "string[]",
          "name": "",
          "type": "string[]"
        },
        {
          "internalType": "bool",
          "name": "",
          "type": "bool"
        }
      ],
      "stateMutability": "view",
      "type": "function"
    },
    {
      "inputs": [],
      "name": "getAllAuctions",
      "outputs": [
        {
          "components": [
            {
              "internalType": "string",
              "name": "itemId",
              "type": "string"
            },
            {
              "internalType": "string",
              "name": "itemName",
              "type": "string"
            },
            {
              "internalType": "string",
              "name": "itemDescription",
              "type": "string"
            },
            {
              "internalType": "string",
              "name": "hashOfImage",
              "type": "string"
            },
            {
              "internalType": "address payable",
              "name": "seller",
              "type": "address"
            },
            {
              "internalType": "uint256",
              "name": "reservePrice",
              "type": "uint256"
            },
            {
              "internalType": "uint256",
              "name": "highestBid",
              "type": "uint256"
            },
            {
              "internalType": "address payable",
              "name": "highestBidder",
              "type": "address"
            },
            {
              "internalType": "uint256",
              "name": "auctionEndTime",
              "type": "uint256"
            },
            {
              "internalType": "bool",
              "name": "ended",
              "type": "bool"
            },
            {
              "internalType": "string",
              "name": "deliveryAddress",
              "type": "string"
            },
            {
              "internalType": "string[]",
              "name": "privateChatLogs",
              "type": "string[]"
            },
            {
              "internalType": "string[]",
              "name": "committeeChatLogs",
              "type": "string[]"
            },
            {
              "internalType": "enum Auction.EscrowState",
              "name": "escrowState",
              "type": "uint8"
            },
            {
              "internalType": "uint8",
              "name": "yesVotes",
              "type": "uint8"
            },
            {
              "internalType": "uint8",
              "name": "noVotes",
              "type": "uint8"
            }
          ],
          "internalType": "struct Auction.AuctionItem[]",
          "name": "",
          "type": "tuple[]"
        }
      ],
      "stateMutability": "view",
      "type": "function"
    },
    {
      "inputs": [],
      "name": "getAllDisputeAuctions",
      "outputs": [
        {
          "components": [
            {
              "internalType": "string",
              "name": "itemId",
              "type": "string"
            },
            {
              "internalType": "string",
              "name": "itemName",
              "type": "string"
            },
            {
              "internalType": "string",
              "name": "itemDescription",
              "type": "string"
            },
            {
              "internalType": "string",
              "name": "hashOfImage",
              "type": "string"
            },
            {
              "internalType": "address payable",
              "name": "seller",
              "type": "address"
            },
            {
              "internalType": "uint256",
              "name": "reservePrice",
              "type": "uint256"
            },
            {
              "internalType": "uint256",
              "name": "highestBid",
              "type": "uint256"
            },
            {
              "internalType": "address payable",
              "name": "highestBidder",
              "type": "address"
            },
            {
              "internalType": "uint256",
              "name": "auctionEndTime",
              "type": "uint256"
            },
            {
              "internalType": "bool",
              "name": "ended",
              "type": "bool"
            },
            {
              "internalType": "string",
              "name": "deliveryAddress",
              "type": "string"
            },
            {
              "internalType": "string[]",
              "name": "privateChatLogs",
              "type": "string[]"
            },
            {
              "internalType": "string[]",
              "name": "committeeChatLogs",
              "type": "string[]"
            },
            {
              "internalType": "enum Auction.EscrowState",
              "name": "escrowState",
              "type": "uint8"
            },
            {
              "internalType": "uint8",
              "name": "yesVotes",
              "type": "uint8"
            },
            {
              "internalType": "uint8",
              "name": "noVotes",
              "type": "uint8"
            }
          ],
          "internalType": "struct Auction.AuctionItem[]",
          "name": "",
          "type": "tuple[]"
        }
      ],
      "stateMutability": "view",
      "type": "function"
    },
    {
      "inputs": [],
      "name": "getAuctionDuration",
      "outputs": [
        {
          "internalType": "uint256",
          "name": "",
          "type": "uint256"
        }
      ],
      "stateMutability": "view",
      "type": "function"
    },
    {
      "inputs": [
        {
          "internalType": "string",
          "name": "itemId",
          "type": "string"
        }
      ],
      "name": "getAuctionItem",
      "outputs": [
        {
          "internalType": "string",
          "name": "",
          "type": "string"
        },
        {
          "internalType": "string",
          "name": "",
          "type": "string"
        },
        {
          "internalType": "address payable",
          "name": "",
          "type": "address"
        },
        {
          "internalType": "uint256",
          "name": "",
          "type": "uint256"
        },
        {
          "internalType": "uint256",
          "name": "",
          "type": "uint256"
        },
        {
          "internalType": "address payable",
          "name": "",
          "type": "address"
        },
        {
          "internalType": "uint256",
          "name": "",
          "type": "uint256"
        },
        {
          "internalType": "bool",
          "name": "",
          "type": "bool"
        }
      ],
      "stateMutability": "view",
      "type": "function"
    },
    {
      "inputs": [
        {
          "internalType": "string",
          "name": "itemId",
          "type": "string"
        }
      ],
      "name": "getChatLogOfItem",
      "outputs": [
        {
          "internalType": "string[]",
          "name": "",
          "type": "string[]"
        }
      ],
      "stateMutability": "view",
      "type": "function"
    },
    {
      "inputs": [],
      "name": "getConcurrentAuctionsPerUser",
      "outputs": [
        {
          "internalType": "uint256",
          "name": "",
          "type": "uint256"
        }
      ],
      "stateMutability": "view",
      "type": "function"
    },
    {
      "inputs": [],
      "name": "getCurrentTimestamp",
      "outputs": [
        {
          "internalType": "uint256",
          "name": "",
          "type": "uint256"
        }
      ],
      "stateMutability": "view",
      "type": "function"
    },
    {
      "inputs": [
        {
          "internalType": "string",
          "name": "itemId",
          "type": "string"
        }
      ],
      "name": "getDeliveryAddress",
      "outputs": [
        {
          "internalType": "string",
          "name": "",
          "type": "string"
        }
      ],
      "stateMutability": "view",
      "type": "function"
    },
    {
      "inputs": [
        {
          "internalType": "address",
          "name": "sender",
          "type": "address"
        }
      ],
      "name": "getMyBidAuctions",
      "outputs": [
        {
          "components": [
            {
              "internalType": "string",
              "name": "itemId",
              "type": "string"
            },
            {
              "internalType": "string",
              "name": "itemName",
              "type": "string"
            },
            {
              "internalType": "string",
              "name": "itemDescription",
              "type": "string"
            },
            {
              "internalType": "string",
              "name": "hashOfImage",
              "type": "string"
            },
            {
              "internalType": "address payable",
              "name": "seller",
              "type": "address"
            },
            {
              "internalType": "uint256",
              "name": "reservePrice",
              "type": "uint256"
            },
            {
              "internalType": "uint256",
              "name": "highestBid",
              "type": "uint256"
            },
            {
              "internalType": "address payable",
              "name": "highestBidder",
              "type": "address"
            },
            {
              "internalType": "uint256",
              "name": "auctionEndTime",
              "type": "uint256"
            },
            {
              "internalType": "bool",
              "name": "ended",
              "type": "bool"
            },
            {
              "internalType": "string",
              "name": "deliveryAddress",
              "type": "string"
            },
            {
              "internalType": "string[]",
              "name": "privateChatLogs",
              "type": "string[]"
            },
            {
              "internalType": "string[]",
              "name": "committeeChatLogs",
              "type": "string[]"
            },
            {
              "internalType": "enum Auction.EscrowState",
              "name": "escrowState",
              "type": "uint8"
            },
            {
              "internalType": "uint8",
              "name": "yesVotes",
              "type": "uint8"
            },
            {
              "internalType": "uint8",
              "name": "noVotes",
              "type": "uint8"
            }
          ],
          "internalType": "struct Auction.AuctionItem[]",
          "name": "",
          "type": "tuple[]"
        }
      ],
      "stateMutability": "view",
      "type": "function"
    },
    {
      "inputs": [
        {
          "internalType": "address",
          "name": "sender",
          "type": "address"
        }
      ],
      "name": "getMyOwnerAuctions",
      "outputs": [
        {
          "components": [
            {
              "internalType": "string",
              "name": "itemId",
              "type": "string"
            },
            {
              "internalType": "string",
              "name": "itemName",
              "type": "string"
            },
            {
              "internalType": "string",
              "name": "itemDescription",
              "type": "string"
            },
            {
              "internalType": "string",
              "name": "hashOfImage",
              "type": "string"
            },
            {
              "internalType": "address payable",
              "name": "seller",
              "type": "address"
            },
            {
              "internalType": "uint256",
              "name": "reservePrice",
              "type": "uint256"
            },
            {
              "internalType": "uint256",
              "name": "highestBid",
              "type": "uint256"
            },
            {
              "internalType": "address payable",
              "name": "highestBidder",
              "type": "address"
            },
            {
              "internalType": "uint256",
              "name": "auctionEndTime",
              "type": "uint256"
            },
            {
              "internalType": "bool",
              "name": "ended",
              "type": "bool"
            },
            {
              "internalType": "string",
              "name": "deliveryAddress",
              "type": "string"
            },
            {
              "internalType": "string[]",
              "name": "privateChatLogs",
              "type": "string[]"
            },
            {
              "internalType": "string[]",
              "name": "committeeChatLogs",
              "type": "string[]"
            },
            {
              "internalType": "enum Auction.EscrowState",
              "name": "escrowState",
              "type": "uint8"
            },
            {
              "internalType": "uint8",
              "name": "yesVotes",
              "type": "uint8"
            },
            {
              "internalType": "uint8",
              "name": "noVotes",
              "type": "uint8"
            }
          ],
          "internalType": "struct Auction.AuctionItem[]",
          "name": "",
          "type": "tuple[]"
        }
      ],
      "stateMutability": "view",
      "type": "function"
    },
    {
      "inputs": [
        {
          "internalType": "address",
          "name": "adr",
          "type": "address"
        }
      ],
      "name": "getPubKey",
      "outputs": [
        {
          "internalType": "string",
          "name": "",
          "type": "string"
        }
      ],
      "stateMutability": "view",
      "type": "function"
    },
    {
      "inputs": [],
      "name": "getTokensToStake",
      "outputs": [
        {
          "internalType": "uint256",
          "name": "",
          "type": "uint256"
        }
      ],
      "stateMutability": "view",
      "type": "function"
    },
    {
      "inputs": [
        {
          "internalType": "address",
          "name": "",
          "type": "address"
        }
      ],
      "name": "isCommitteeMember",
      "outputs": [
        {
          "internalType": "bool",
          "name": "",
          "type": "bool"
        }
      ],
      "stateMutability": "view",
      "type": "function"
    },
    {
      "inputs": [],
      "name": "owner",
      "outputs": [
        {
          "internalType": "address",
          "name": "",
          "type": "address"
        }
      ],
      "stateMutability": "view",
      "type": "function"
    },
    {
      "inputs": [
        {
          "internalType": "address",
          "name": "",
          "type": "address"
        },
        {
          "internalType": "uint256",
          "name": "",
          "type": "uint256"
        }
      ],
      "name": "ownerAuctions",
      "outputs": [
        {
          "internalType": "string",
          "name": "",
          "type": "string"
        }
      ],
      "stateMutability": "view",
      "type": "function"
    },
    {
      "inputs": [
        {
          "internalType": "string",
          "name": "itemId",
          "type": "string"
        },
        {
          "internalType": "uint256",
          "name": "bidAmount",
          "type": "uint256"
        }
      ],
      "name": "placeBid",
      "outputs": [],
      "stateMutability": "payable",
      "type": "function"
    },
    {
      "inputs": [
        {
          "internalType": "address",
          "name": "",
          "type": "address"
        }
      ],
      "name": "pubKeys",
      "outputs": [
        {
          "internalType": "string",
          "name": "",
          "type": "string"
        }
      ],
      "stateMutability": "view",
      "type": "function"
    },
    {
      "inputs": [
        {
          "internalType": "string",
          "name": "itemId",
          "type": "string"
        }
      ],
      "name": "raiseDispute",
      "outputs": [],
      "stateMutability": "nonpayable",
      "type": "function"
    },
    {
      "inputs": [],
      "name": "relinquishTokensToOwner",
      "outputs": [],
      "stateMutability": "nonpayable",
      "type": "function"
    },
    {
      "inputs": [],
      "name": "renounceOwnership",
      "outputs": [],
      "stateMutability": "nonpayable",
      "type": "function"
    },
    {
      "inputs": [
        {
          "internalType": "string",
          "name": "itemId",
          "type": "string"
        }
      ],
      "name": "resolveDispute",
      "outputs": [],
      "stateMutability": "payable",
      "type": "function"
    },
    {
      "inputs": [
        {
          "internalType": "string",
          "name": "itemId",
          "type": "string"
        },
        {
          "internalType": "string",
          "name": "message",
          "type": "string"
        }
      ],
      "name": "sendChat",
      "outputs": [],
      "stateMutability": "nonpayable",
      "type": "function"
    },
    {
      "inputs": [
        {
          "internalType": "string",
          "name": "itemId",
          "type": "string"
        },
        {
          "internalType": "string",
          "name": "message",
          "type": "string"
        }
      ],
      "name": "sendCommitteeChat",
      "outputs": [],
      "stateMutability": "nonpayable",
      "type": "function"
    },
    {
      "inputs": [
        {
          "internalType": "uint64",
          "name": "duration",
          "type": "uint64"
        }
      ],
      "name": "setAuctionDuration",
      "outputs": [],
      "stateMutability": "nonpayable",
      "type": "function"
    },
    {
      "inputs": [
        {
          "internalType": "uint8",
          "name": "auctionCount",
          "type": "uint8"
        }
      ],
      "name": "setConcurrentAuctionsPerUser",
      "outputs": [],
      "stateMutability": "nonpayable",
      "type": "function"
    },
    {
      "inputs": [
        {
          "internalType": "string",
          "name": "itemId",
          "type": "string"
        },
        {
          "internalType": "string",
          "name": "deliveryAddress",
          "type": "string"
        }
      ],
      "name": "setDeliveryAddress",
      "outputs": [],
      "stateMutability": "nonpayable",
      "type": "function"
    },
    {
      "inputs": [
        {
          "internalType": "string",
          "name": "pubKey",
          "type": "string"
        }
      ],
      "name": "setPubKey",
      "outputs": [],
      "stateMutability": "nonpayable",
      "type": "function"
    },
    {
      "inputs": [
        {
          "internalType": "uint256",
          "name": "amount",
          "type": "uint256"
        }
      ],
      "name": "setTokensToStake",
      "outputs": [],
      "stateMutability": "nonpayable",
      "type": "function"
    },
    {
      "inputs": [
        {
          "internalType": "uint256",
          "name": "amount",
          "type": "uint256"
        }
      ],
      "name": "stakeTokens",
      "outputs": [],
      "stateMutability": "nonpayable",
      "type": "function"
    },
    {
      "inputs": [
        {
          "internalType": "address",
          "name": "newOwner",
          "type": "address"
        }
      ],
      "name": "transferOwnership",
      "outputs": [],
      "stateMutability": "nonpayable",
      "type": "function"
    },
    {
      "inputs": [
        {
          "internalType": "string",
          "name": "itemId",
          "type": "string"
        },
        {
          "internalType": "enum Auction.EscrowState",
          "name": "nextState",
          "type": "uint8"
        }
      ],
      "name": "transitionEscrowState",
      "outputs": [],
      "stateMutability": "nonpayable",
      "type": "function"
    },
    {
      "inputs": [
        {
          "internalType": "string",
          "name": "itemId",
          "type": "string"
        },
        {
          "internalType": "uint8",
          "name": "vote",
          "type": "uint8"
        }
      ],
      "name": "voteOnDispute",
      "outputs": [],
      "stateMutability": "nonpayable",
      "type": "function"
    }
  ],
  "transactionHash": "0x897b35168182207ddb4dfbd2299ea112523bea899d32935246fab5b8263490b7",
  "args": [
    "0x5FbDB2315678afecb367f032d93F642f64180aa3"
  ],
  "numDeployments": 1,
  "solcInputHash": "ef934a76c57217b9d19a9617d7545315",
  "bytecode": "0x6080346200014257601f620042b238819003918201601f19168301916001600160401b0383118484101762000147578084926020946040528339810103126200014257516001600160a01b039081811690819003620001425760008054336001600160a01b0319821681178355604051949293929091167f8be0079c531659141344cd1fd0a4f28419497f9722a3daafe3b4186f6b6457e08480a3681b1ae4d6e2ef50000060095567400000000000000f60a31b9062ffffff60e81b600a54161717600a557390f79bf6eb2c4f870365e785982e1f101e93b90681526004602052600160408083209260ff199383858254161790557315d34aaf54267db7d7c367839aaf71a00a2c6a6581528181208385825416179055739965507d1a55bcc2695c58ba16fb37d819b0a4dc8152209182541617905561415490816200015e8239f35b600080fd5b634e487b7160e01b600052604160045260246000fdfe608080604052600436101561001357600080fd5b60003560e01c908163016544aa14612e1e5750806305f3b3f714612d1857806307412e9c14612cd15780631f49c291146120d35780633098662e146120375780634129027314611fcb578063676202fe14611f5d5780636c9230db14611f42578063715018a614611ee9578063725a3b4b14611d825780637547c7a314611b2a57806378cb51af14611b005780637c812b3914611aa75780637f38d86514611a6257806383c27150146118a757806388624ab3146118835780638aaf2761146118625780638da5cb5b1461183b5780638f2238ba1461167d5780639211735b14611537578063955ab3371461143b5780639d6271a01461132e5780639f19360d14611116578063a4bdc06e14610fab578063a7eaa24114610b85578063bed34bba14610b2b578063c1d733db14610a0f578063cbd2bdfd1461088f578063ce2ba9bf14610820578063d1b8b4bf146101c1578063d31f371e146106a9578063d8bcd0c91461068b578063e636d84b1461064c578063ee54507b146104b5578063f1d273c314610329578063f2fde38b14610260578063fb346ea0146102185763fce9512a146101c157600080fd5b34610213576020366003190112610213576001600160a01b036101e261330b565b16600052600360205261020f6101fb60406000206133b0565b60405191829160208352602083019061329c565b0390f35b600080fd5b34610213576020366003190112610213576001600160a01b0361023961330b565b16600052600260205260408060002060ff6002825492015416825191825215156020820152f35b346102135760203660031901126102135761027961330b565b6102816136b5565b6001600160a01b038091169081156102d557600054826bffffffffffffffffffffffff60a01b821617600055167f8be0079c531659141344cd1fd0a4f28419497f9722a3daafe3b4186f6b6457e0600080a3005b60405162461bcd60e51b815260206004820152602660248201527f4f776e61626c653a206e6577206f776e657220697320746865207a65726f206160448201526564647265737360d01b6064820152608490fd5b3461021357602080600319360112610213576001600160a01b03908161034d61330b565b166000526006908181526103646040600020613e49565b9161036f8351613e9e565b9360005b84518110156104a7578061039361038d6104a29388613f61565b5161368f565b600d604051916103a283613373565b6103ab816133b0565b83526103b9600182016133b0565b888401526103c9600282016133b0565b60408401526103da600382016133b0565b6060840152856004820154166080840152600581015460a08401528681015460c08401528560078201541660e08401526008908181015461010085015260ff928184600981940154161515610120870152610437600a82016133b0565b610140870152610449600b8201613e49565b61016087015261045b600c8201613e49565b610180870152015480926104758383166101a08801613878565b1c166101c084015260101c166101e08201526104918289613f61565b5261049c8188613f61565b506139de565b610373565b6040518061020f88826134bf565b346102135760003660031901126102135760088054906104d482613e9e565b916000916007918254935b8481106104f4576040518061020f88826134bf565b8181101561063657610631908360005261052f817ff3f7a9fe364faab93b216da50a3214154f22a0a2b415b23a84c8169e8b636ee301613f75565b6040519061053c82613373565b610545816133b0565b8252610553600182016133b0565b6020830152610564600282016133b0565b6040830152610575600382016133b0565b60608301526001600160a01b03806004830154166080840152600582015460a0840152600682015460c0840152878201541660e083015285810154610100830152600d60ff918260098201541615156101208501526105d6600a82016133b0565b6101408501526105e8600b8201613e49565b6101608501526105fa600c8201613e49565b61018085015201546106128282166101a08501613878565b8181881c166101c084015260101c166101e08201526104918289613f61565b6104df565b634e487b7160e01b600052603260045260246000fd5b34610213576020366003190112610213576001600160a01b0361066d61330b565b166000526004602052602060ff604060002054166040519015158152f35b34610213576000366003190112610213576020600954604051908152f35b34610213576020366003190112610213576004356001600160401b038111610213576106d9903690600401613671565b60405181818093516020819301916106f092613279565b810160018152036020019020610705816133b0565b610711600183016133b0565b9161071e600282016133b0565b9061072b600382016133b0565b6001600160a01b0390816004840154169160058401549060068501549060078601541690600886015492600987015460ff1694600a880161076b906133b0565b97600d0154986040519b8c9b8c6101c08091528d016107899161329c565b8c810360208e015261079a9161329c565b8b810360408d01526107ab9161329c565b8a810360608c01526107bc9161329c565b9560808a015260a089015260c088015260e087015261010086015215156101208501528381036101408501526107f19161329c565b90610803610160840160ff83166134b2565b8060081c60ff1661018084015260101c60ff166101a08301520390f35b6020366003190112610213576004356001600160401b0381116102135761084e61088d91369060040161324c565b906108886108836108726040518585823760208187810160018152030190206133b0565b61087d36868661362b565b906140c9565b61398f565b613ac3565b005b3461021357600036600319011261021357600780546108ad81613e9e565b9160005b8281106108c6576040518061020f86826134bf565b610a0a90826000526108f9817fa66cc928b5edb82af9bd49922954155ab7b0942694bea4ce44661d9a8736c68801613f75565b600d6040519161090883613373565b610911816133b0565b835261091f600182016133b0565b6020840152610930600282016133b0565b6040840152610941600382016133b0565b60608401526001600160a01b03806004830154166080850152600582015460a0850152600682015460c0850152868201541660e08401526008908181015461010085015260ff9281846009819401541615156101208701526109a5600a82016133b0565b6101408701526109b7600b8201613e49565b6101608701526109c9600c8201613e49565b610180870152015480926109e38383166101a08801613878565b1c166101c084015260101c166101e08201526109ff8287613f61565b5261049c8186613f61565b6108b1565b34610213576020610a1f366132c1565b92610a50610883610a4560409794975186858237858188810160018152030190206133b0565b61087d36878661362b565b826040519384928337810160018152030190209160ff60098401541680610ae3575b15610a8357600c61088d930161395f565b60405162461bcd60e51b815260206004820152603260248201527f596f7520646f206e6f7420686176652070726976696c6567657320746f206368604482015271617420696e2074686973206469737075746560701b6064820152608490fd5b5033600052600460205260ff6040600020541680610a7257506001600160a01b03338160078601541614908115610b1b575b50610a72565b9050600484015416331484610b15565b34610213576040366003190112610213576001600160401b0360043581811161021357610b5c903690600401613671565b906024359081116102135760209161087d610b7b923690600401613671565b6040519015158152f35b6040366003190112610213576004356001600160401b03811161021357610bb090369060040161324c565b90602490813592604051928183853781840194610bec610883610be1876001998a81526020998a91030190206133b0565b61087d36878961362b565b3360005260038552610c0d602c610c07604060002054613339565b146137ed565b60405183858237858185810189815203019020906001600160a01b0390338260048501541614610f5d578060058401541015610f075760ff600984015416610ecf5760088301928354421015610e955760068101908154831115610e3957600a546040516323b872dd60e01b81523360048201523060248201526044810185905291908a90839060649082906000908a165af1918215610e1057600792610e1c575b500192888185541680610d9a575b5050505580546001600160a01b031916331790555490601e610cdf42846139d1565b1115610d47575b5050336000526006835260ff610d0385604060002001838561385f565b541615610d0c57005b6006610d3a9333600052818152610d288385604060002061395f565b3360005252836040600020019161385f565b805460ff19169091179055005b610d5142836139d1565b601e0390601e8211610d86575090610d68916137ca565b60086040518385823785818581018981520301902001558480610ce6565b634e487b7160e01b60009081526011600452fd5b600a54845460405163a9059cbb60e01b81526001600160a01b039390931660048401526024830152909283916044918391600091165af18015610e1057610de3575b8881610cbd565b610e0290893d8b11610e09575b610dfa818361338f565b81019061370d565b5089610ddc565b503d610df0565b6040513d6000823e3d90fd5b610e32908b3d8d11610e0957610dfa818361338f565b508b610caf565b60405162461bcd60e51b8152600481018a9052602f818801527f426964206d75737420626520686967686572207468616e20746865206375727260448201526e195b9d081a1a59da195cdd08189a59608a1b6064820152608490fd5b60405162461bcd60e51b81526004810189905260138187015272105d58dd1a5bdb881a185cc8195e1c1a5c9959606a1b6044820152606490fd5b60405162461bcd60e51b81526004810188905260118186015270105d58dd1a5bdb881a185cc8195b991959607a1b6044820152606490fd5b60405162461bcd60e51b8152600481018890526029818601527f426964206d75737420626520686967686572207468616e20746865207265736560448201526872766520707269636560b81b6064820152608490fd5b60405162461bcd60e51b8152600481018890526021818601527f4f776e65722063616e277420626964206f6e2074686569722061756374696f6e6044820152607360f81b6064820152608490fd5b3461021357600036600319011261021357336000526020600281526001604060002001546110ac576001600160a01b0360008282600a54163383526002825260446040842054604051948593849263095ea7b360e01b845230600485015260248401525af18015610e105760009284926110699261108f575b50600a54338086526002855260408087205490516323b872dd60e01b815230600482015260248101929092526044820152948593929091169183919082906064820190565b03925af18015610e105761107957005b8161088d92903d10610e0957610dfa818361338f565b6110a590843d8611610e0957610dfa818361338f565b5085611024565b6084906040519062461bcd60e51b82526004820152603660248201527f596f752063616e27742072656465656d20746f6b656e73207768696c65206f6e60448201527f676f696e672061756374696f6e732070657273697374000000000000000000006064820152fd5b34610213576040366003190112610213576001600160401b036004358181116102135761114790369060040161324c565b9160243581811161021357611160903690600401613671565b9260405190808483378082019361118b610883610872856001988981526020978891030190206133b0565b6001600160a01b0360076040518484823785818681018a81520301902001541633148061130e575b156112a3579082600a928260405193849283378101878152030190200193805192831161128d576111ee836111e88754613339565b87613785565b81601f841160011461122a575092829391839260009461121f575b50501b916000199060031b1c1916179055600080f35b015192508580611209565b919083601f1981168760005284600020946000905b88838310611273575050501061125a575b505050811b019055005b015160001960f88460031b161c19169055838080611250565b85870151885590960195948501948793509081019061123f565b634e487b7160e01b600052604160045260246000fd5b60405162461bcd60e51b815260048101849052603460248201527f596f7520686176656e277420776f6e207468652061756374696f6e206f72206960448201527f7473207374696c6c20696e2070726f67726573730000000000000000000000006064820152608490fd5b5060ff60096040518484823785818681018a8152030190200154166111b3565b3461021357602080600319360112610213576001600160a01b03908161135261330b565b166000526005908181526113696040600020613e49565b916113748351613e9e565b9360005b84518110156104a7578061139261038d6114369388613f61565b600d604051916113a183613373565b6113aa816133b0565b83526113b8600182016133b0565b888401526113c8600282016133b0565b60408401526113d9600382016133b0565b60608401528560048201541660808401528681015460a0840152600681015460c08401528560078201541660e08401526008908181015461010085015260ff928184600981940154161515610120870152610437600a82016133b0565b611378565b34610213576020366003190112610213576004356001600160401b03811161021357602061147061150492369060040161324c565b9190611494610883610a4560405186858237858188810160018152030190206133b0565b826040519384928337810160018152030190206001600160a01b03806004830154169060058301549060068401549060078501541660088501549160ff600987015416936115126114f060016114e98a6133b0565b99016133b0565b604051998a99610100808c528b019061329c565b9089820360208b015261329c565b9560408801526060870152608086015260a085015260c0840152151560e08301520390f35b34610213576040366003190112610213576004356001600160401b0381116102135761156790369060040161324c565b906024359160ff8316809303610213576115a561088361159a6040518486823760208186810160018152030190206133b0565b61087d36858761362b565b3360005260046020526115bf60ff60406000205416614001565b60ff600d6040518385823760208185810160018152030190200154166007811015611667576001926115f5600460209314614060565b826040519384928337810184815203019020910361163957600d61088d910161162460ff825460081c166140b8565b61ff0082549160081b169061ff001916179055565b600d61088d910161165060ff825460101c166140b8565b62ff000082549160101b169062ff00001916179055565b634e487b7160e01b600052602160045260246000fd5b602080600319360112610213576004356001600160401b038111610213576116a990369060040161324c565b906116cc61088361087260405185858237868187810160018152030190206133b0565b60ff600d6040518484823785818681016001815203019020015416906007821015611667576116fe6004859314614060565b336000526004825261171760ff60406000205416614001565b8260405193849283378101600181520301902090600d82019181835460ff808260101c169160081c1610156000146117c257600a5460048381015460069094015460405163a9059cbb60e01b81526001600160a01b039586169281019290925260248201529283916044918391600091165af18015610e10576117a4575b5050805460ff19166005179055005b816117ba92903d10610e0957610dfa818361338f565b508180611795565b600a54600783015460069093015460405163a9059cbb60e01b81526001600160a01b03948516600482015260248101919091529283916044918391600091165af18015610e105761181d575b5050805460ff19166006179055005b8161183392903d10610e0957610dfa818361338f565b50818061180e565b346102135760003660031901126102135760206001600160a01b0360005416604051908152f35b346102135760203660031901126102135761187b6136b5565b600435600955005b3461021357600036600319011261021357602060ff600a5460e01c16604051908152f35b3461021357602080600319360112610213576004356001600160401b038111610213576118d98291369060040161324c565b91906118fd610883610a4560405186858237858188810160018152030190206133b0565b82604051938492833781016001815203019020611a3460405161191f81613373565b611928836133b0565b8152611936600184016133b0565b84820152611946600284016133b0565b6040820152611957600384016133b0565b60608201526001600160a01b0390816004850154169160808201928352600585015460a0830152600685015460c0830152808060078701541660e08401908152600887015461010085015260ff60098801541693610120810194151585526119c1600a89016133b0565b6101408201526101e060ff600d6119da600b8c01613e49565b9a61016085019b8c526119ef600c8201613e49565b6101808601520154611a078282166101a08601613878565b818160081c166101c085015260101c1691015251163314928315611a55575b505081611a4a575b50613dae565b519061020f604051928284938452830190613456565b905051151584611a2e565b5116331491508580611a26565b346102135760203660031901126102135760043560ff8116810361021357611a886136b5565b600a805460ff60e01b191660e09290921b60ff60e01b16919091179055005b34610213576020366003190112610213576004356001600160401b038116810361021357611ad36136b5565b600a805467ffffffffffffffff60a01b191660a09290921b67ffffffffffffffff60a01b16919091179055005b346102135760003660031901126102135760206001600160401b03600a5460a01c16604051908152f35b346102135760208060031936011261021357600a546040516323b872dd60e01b815233600480830191909152306024830152356044820181905292918290829060649082906000906001600160a01b03165af18015610e1057611d65575b50336000526002815260ff60026040600020015416600014611bc0576002903360005252611bbc60406000209182546137ca565b9055005b60405190916001600160401b0390606083018281118482101761128d5760405282528282016060815260408301936001918286523360005260028252604060002094518555828501905191825192600160401b841161128d5781908354858555808610611d2e575b500191600052806000206000925b848410611c605750505050505050600261088d9251151591019060ff801983541691151516179055565b805190815188811161128d57879181611c848793611c7e8854613339565b88613785565b8294601f8211600114611cc85784958291600092611cbd575b5050600019600383901b1c191690841b1785555b01920193019290611c36565b015190508e80611c9d565b94601f1982169087600052846000209160005b818110611d175750908697848895949310611cfe575b505050811b018555611cb1565b015160001960f88460031b161c191690558e8080611cf1565b8289015184558d978b979401939283019201611cdb565b8460005286868460002092830192015b828110611d4c575050611c28565b9091929350611d5a8161373c565b019086849392611d3e565b611d7b90823d8411610e0957610dfa818361338f565b5082611b88565b34610213576020366003190112610213576004356001600160401b03811161021357611db290369060040161324c565b611dd561088361159a6040518486823760208186810160018152030190206133b0565b604051818382376020818381016001815203019020600d810190815460ff8116600781101561166757600414611ea557611e316004926001600160a01b0390816007820154163314918215611e96575b5081611e875750613dae565b60ff191617905560085491600160401b83101561128d5760018301806008558310156106365761088d9260086000527ff3f7a9fe364faab93b216da50a3214154f22a0a2b415b23a84c8169e8b636ee30161389c565b60ff9150600901541687611a2e565b81860154163314915088611e25565b606460405162461bcd60e51b815260206004820152602060248201527f546865726520697320616c7265616479206120726973656e20646973707574656044820152fd5b3461021357600036600319011261021357611f026136b5565b600080546001600160a01b0319811682556001600160a01b03167f8be0079c531659141344cd1fd0a4f28419497f9722a3daafe3b4186f6b6457e08280a3005b34610213576000366003190112610213576020604051428152f35b34610213576020366003190112610213576001600160a01b03611f7e61330b565b16600052600260205260406000208054611fa2600160ff6002850154169301613e49565b91611fbf6040519384938452606060208501526060840190613456565b90151560408301520390f35b3461021357604036600319011261021357611fe461330b565b6001600160a01b036024359116600052600560205260406000209081548110156102135761201191613321565b612021576101fb61020f916133b0565b634e487b7160e01b600052600060045260246000fd5b346102135761088d600b602061204c366132c1565b9492612073610883610a4560409794975186858237858188810160018152030190206133b0565b826040519384928337810160018152030190206001600160a01b038060078301541633149081156120c3575b50806120b5575b6120af90613dae565b0161395f565b50600981015460ff166120a6565b905060048201541633148661209f565b346102135760a0366003190112610213576004356001600160401b0381116102135761210390369060040161324c565b906024356001600160401b0381116102135761212390369060040161324c565b90926044356001600160401b0381116102135761214490369060040161324c565b906064356001600160401b0381116102135761216490369060040161324c565b9033600052600260205260406000205460095411612c765733600052600260205260016040600020015491600a549260ff8460e01c161115612c21573360005260036020526121bc602c610c07604060002054613339565b6121e8604051878a8237602081898101600181520301902061087d6121e2368a8d61362b565b916133b0565b612be65760843515612b91576122426122106001600160401b0361224e9560a01c16426137ca565b946040519661221e88613373565b612229368a8d61362b565b8852612236368b8e61362b565b6020890152369161362b565b6040860152369161362b565b606083015233608083015260843560a0830152600060c0830152600060e083015261010082015260006101208201526040518060208101106001600160401b0360208301111761128d5760208101604052600081526101408201526060610160820152606061018082015260006101a082015260006101c082015260006101e082015260405182858237602081848101600181520301902081518051906001600160401b03821161128d57819061230f826123098654613339565b86613785565b602090601f8311600114612b2557600092612b1a575b50508160011b916000199060031b1c19161781555b60208201518051906001600160401b03821161128d57819061236c826123636001870154613339565b60018701613785565b602090601f8311600114612aa857600092612a9d575b50508160011b916000199060031b1c19161760018201555b60408201518051906001600160401b03821161128d5781906123cc826123c36002870154613339565b60028701613785565b602090601f8311600114612a2b57600092612a20575b50508160011b916000199060031b1c19161760028201555b60608201518051906001600160401b03821161128d57819061242c826124236003870154613339565b60038701613785565b602090601f83116001146129ae576000926129a3575b50508160011b916000199060031b1c19161760038201555b600481016001600160a01b039081608085015116906bffffffffffffffffffffffff60a01b918282541617905560a0840151600584015560c08401516006840155600783019160e0850151169082541617905561010082015160088201556124d86101208301511515600983019060ff801983541691151516179055565b6101408201518051906001600160401b03821161128d57819061250b82612502600a870154613339565b600a8701613785565b602090601f831160011461293157600092612926575b50508160011b916000199060031b1c191617600a8201555b610160820151805190600160401b821161128d57600b83015482600b8501558083106128f3575b5060200190600b83016000526020600020916000905b8282106128165750505050610180820151805190600160401b821161128d57600c83015482600c8501558083106127e3575b5060200190600c83016000526020600020916000905b8282106127065750505050600d016101a0820151916007831015611667576101e060ff916125ef6126229585613884565b6101c0810151845461ff00191690841660081b61ff00161784550151825462ff00001916911660101b62ff000016179055565b33600052600260205261263d8184600160406000200161395f565b60075490600160401b82101561128d57600182018060075582101561063657836126b2827f580c79f80d4cb0e438a0d03f153c3dd27d464553dcc2fb869879bc42fd524c3b9660409560076000527fa66cc928b5edb82af9bd49922954155ab7b0942694bea4ce44661d9a8736c6880161389c565b3360005260056020526126c982828560002061395f565b81835192839283378101600081520390209382825193849260208452816020850152848401376000828201840152601f01601f19168101030190a2005b80518051906001600160401b03821161128d5761272782611c7e8854613339565b602090601f8311600114612773579282600194936020938695600092612768575b5050600019600383901b1c191690841b1787555b019401910190926125be565b015190508f80612748565b908660005260206000209160005b601f19851681106127cb575083602093600196938796938794601f198116106127b2575b505050811b01875561275c565b015160001960f88460031b161c191690558f80806127a5565b91926020600181928685015181550194019201612781565b600c84016000526020600020908382015b81830181106128045750506125a8565b8061281060019261373c565b016127f4565b80518051906001600160401b03821161128d5761283782611c7e8854613339565b602090601f8311600114612883579282600194936020938695600092612878575b5050600019600383901b1c191690841b1787555b01940191019092612576565b015190508f80612858565b908660005260206000209160005b601f19851681106128db575083602093600196938796938794601f198116106128c2575b505050811b01875561286c565b015160001960f88460031b161c191690558f80806128b5565b91926020600181928685015181550194019201612891565b600b84016000526020600020908382015b8183018110612914575050612560565b8061292060019261373c565b01612904565b015190508880612521565b9250600a84016000526020600020906000935b601f1984168510612988576001945083601f1981161061296f575b505050811b01600a820155612539565b015160001960f88460031b161c1916905588808061295f565b81810151835560209485019460019093019290910190612944565b015190508880612442565b9250600384016000526020600020906000935b601f1984168510612a05576001945083601f198116106129ec575b505050811b01600382015561245a565b015160001960f88460031b161c191690558880806129dc565b818101518355602094850194600190930192909101906129c1565b0151905088806123e2565b9250600284016000526020600020906000935b601f1984168510612a82576001945083601f19811610612a69575b505050811b0160028201556123fa565b015160001960f88460031b161c19169055888080612a59565b81810151835560209485019460019093019290910190612a3e565b015190508880612382565b9250600184016000526020600020906000935b601f1984168510612aff576001945083601f19811610612ae6575b505050811b01600182015561239a565b015160001960f88460031b161c19169055888080612ad6565b81810151835560209485019460019093019290910190612abb565b015190508880612325565b9250836000526020600020906000935b601f1984168510612b76576001945083601f19811610612b5d575b505050811b01815561233a565b015160001960f88460031b161c19169055888080612b50565b81810151835560209485019460019093019290910190612b35565b60405162461bcd60e51b815260206004820152602760248201527f52657365727665207072696365206d7573742062652067726561746572207468604482015266616e207a65726f60c81b6064820152608490fd5b60405162461bcd60e51b81526020600482015260136024820152724974656d20616c72656164792065786973747360681b6044820152606490fd5b60405162461bcd60e51b815260206004820152602760248201527f596f752063616e2774206861766520616e79206d6f7265206163746976652061604482015266756374696f6e7360c81b6064820152608490fd5b60405162461bcd60e51b815260206004820152602d60248201527f4e6f7420656e6f75676820746f6b656e73207374616b656420746f206372656160448201526c3a329030b71030bab1ba34b7b760991b6064820152608490fd5b34610213576020366003190112610213576004356001600160401b03811161021357612d0461088d91369060040161324c565b90336000526003602052604060002061389c565b3461021357602080600319360112610213576004356001600160401b03811161021357612d4990369060040161324c565b90612d6c61088361087260405185858237868187810160018152030190206133b0565b6001600160a01b03600460405184848237858186810160018152030190200154163303612dc9578183600a92612db494604051938492833781016001815203019020016133b0565b9061020f60405192828493845283019061329c565b60405162461bcd60e51b815260048101849052602760248201527f4f6e6c792061756374696f6e206f776e65722063616e2063616c6c2074686973604482015266081b595d1a1bd960ca1b6064820152608490fd5b34610213576040366003190112610213576004356001600160401b03811161021357612e4e90369060040161324c565b906024918235906007821015928361021357818187378186019060018252612e85610883610a45896020809b8197030190206133b0565b826040519384928337810160018152030190209060ff6009830154161561320857600d82019360ff85541693600785101595866131f357600486146131895760048501966001600160a01b039687895416331491828061317a575b9085929184613159575b8415613107575b5083156130ae575b8315613027575b50505015612fe357612f15600a860154613339565b15612f935783612f2491613884565b612f7f5750600314612f3257005b600a5492546006919091015460405163a9059cbb60e01b81529183166001600160a01b031660048301526024820152918391839116816000816044810103925af18015610e105761107957005b634e487b7160e01b60009081526021600452fd5b60405162461bcd60e51b8152600481018990526023818501527f506c656173652073657420612064656c697665727920616464726573732066696044820152621c9cdd60ea1b6064820152608490fd5b60405162461bcd60e51b8152600481018990526018818501527f496e76616c6964207374617465207472616e736974696f6e00000000000000006044820152606490fd5b909192508860078901541633149283613087575b508261304c575b5050828a80612f00565b9091506130725760028114908115613067575b508980613042565b60059150148961305f565b83634e487b7160e01b60005260216004526000fd5b9092506130995760038614918461303b565b84634e487b7160e01b60005260216004526000fd5b9250886007890154163314806130f6575b83816130cd575b5092612ef9565b919250506130995780600285921480156130e8575b836130c6565b5060009250600581146130e2565b5090613099578390600387146130bf565b90935080613148575b838161311f575b50928c612ef1565b9192505061309957806001859214801561313a575b83613117565b506000925060058114613134565b509061309957839060028714613110565b93505060008115801561316d575b93612eea565b5050600060058214613167565b60009550600188149350612ee0565b60405162461bcd60e51b8152600481018990526037818501527f43616e7420726573756d6520657363726f772070726f6365737365732077697460448201527f686f75742064697370757465207265736f6c7574696f6e0000000000000000006064820152608490fd5b82634e487b7160e01b60005260216004526000fd5b60405162461bcd60e51b8152600481018690526019818601527f41756374696f6e20686173206e6f7420656e64656420796574000000000000006044820152606490fd5b9181601f84011215610213578235916001600160401b038311610213576020838186019501011161021357565b60005b83811061328c5750506000910152565b818101518382015260200161327c565b906020916132b581518092818552858086019101613279565b601f01601f1916010190565b6040600319820112610213576001600160401b039160043583811161021357826132ed9160040161324c565b93909392602435918211610213576133079160040161324c565b9091565b600435906001600160a01b038216820361021357565b80548210156106365760005260206000200190600090565b90600182811c92168015613369575b602083101461335357565b634e487b7160e01b600052602260045260246000fd5b91607f1691613348565b61020081019081106001600160401b0382111761128d57604052565b90601f801991011681019081106001600160401b0382111761128d57604052565b90604051918260008254926133c484613339565b90818452600194858116908160001461343357506001146133f0575b50506133ee9250038361338f565b565b9093915060005260209081600020936000915b81831061341b5750506133ee935082010138806133e0565b85548884018501529485019487945091830191613403565b9150506133ee94506020925060ff191682840152151560051b82010138806133e0565b908082519081815260208091019281808460051b8301019501936000915b8483106134845750505050505090565b90919293949584806134a2600193601f198682030187528a5161329c565b9801930193019194939290613474565b9060078210156116675752565b602080820190808352835180925260409283810182858560051b8401019601946000925b8584106134f4575050505050505090565b909192939495968580600192603f198582030187528a51906135ec6135d86135c46135646135516135416135318851610200808a5289019061329c565b898901518882038b8a015261329c565b878d0151878203888f015261329c565b606080880151908783039088015261329c565b6001600160a01b0360808181890151169087015260a0808801519087015260c0808801519087015260e09081880151169086015261010080870151908601526101208087015115159086015261014080870151908683039087015261329c565b610160808601519085830390860152613456565b610180808501519084830390850152613456565b916136006101a080830151908401906134b2565b60ff6101c0818184015116908401526101e080920151169101529901940194019295949391906134e3565b9291926001600160401b03821161128d5760405191613654601f8201601f19166020018461338f565b829481845281830111610213578281602093846000960137010152565b9080601f830112156102135781602061368c9335910161362b565b90565b60206136a8918160405193828580945193849201613279565b8101600181520301902090565b6001600160a01b036000541633036136c957565b606460405162461bcd60e51b815260206004820152602060248201527f4f776e61626c653a2063616c6c6572206973206e6f7420746865206f776e65726044820152fd5b90816020910312610213575180151581036102135790565b818110613730575050565b60008155600101613725565b6137468154613339565b9081613750575050565b81601f60009311600114613762575055565b908083918252613781601f60208420940160051c840160018501613725565b5555565b9190601f811161379457505050565b6133ee926000526020600020906020601f840160051c830193106137c0575b601f0160051c0190613725565b90915081906137b3565b919082018092116137d757565b634e487b7160e01b600052601160045260246000fd5b156137f457565b60405162461bcd60e51b815260206004820152603c60248201527f506c65617365207375626d697420796f7572206574682077616c6c657420707560448201527f626b6579206265666f7265207573696e67207468652073797374656d000000006064820152608490fd5b6020919283604051948593843782019081520301902090565b60078210156116675752565b9060078110156116675760ff80198354169116179055565b9092916001600160401b03811161128d576138c1816138bb8454613339565b84613785565b6000601f82116001146138fb57819293946000926138f0575b50508160011b916000199060031b1c1916179055565b0135905038806138da565b601f198216948382526020918281209281905b8882106139475750508360019596971061392d575b505050811b019055565b0135600019600384901b60f8161c19169055388080613923565b8060018496829495870135815501950192019061390e565b9190918054600160401b81101561128d5761397f91600182018155613321565b929092612021576133ee9261389c565b1561399657565b60405162461bcd60e51b8152602060048201526013602482015272125d195b48191bd95cc81b9bdd08195e1a5cdd606a1b6044820152606490fd5b919082039182116137d757565b60001981146137d75760010190565b90808214613abf576139ff8154613339565b906001600160401b03821161128d578190613a1e826123098654613339565b600090601f8311600114613a5457600092613a495750508160011b916000199060031b1c1916179055565b0154905038806138da565b81526020808220858352818320935090601f1985169083905b828210613aa6575050908460019594939210613a8d57505050811b019055565b015460001960f88460031b161c19169055388080613923565b8495819295850154815560018091019601940190613a6d565b5050565b9160405192828185378284018460019182815260209687910301902091600983019485549660ff8816613d6a5760088501544210613d26576001600160a01b03966004978089880154163314908115613d16575b5015613cac5784809960ff999798991916179055600091338352600282528460408420019383995b613b59575b5050505050505060069192500154156133ee57565b849897969854998a811015613ca257869798999a613b84613b7b36868661362b565b61087d8c6133b0565b613b995750613b92906139de565b9996613b3f565b939495965091505060001991828101908111613c8f57613bbc613bc49187613321565b509186613321565b613c7d5790613bd2916139ed565b83548015613c6a570193613be68585613321565b919091613c58576006979850613bfc8254613339565b9081613c16575b5050505050558291388080808080613b44565b8490601f808411600114613c3657505050509050555b3880808080613c03565b8493958395613c5194528520950160051c8501908501613725565b5555613c2c565b634e487b7160e01b8452838952602484fd5b634e487b7160e01b845260318952602484fd5b634e487b7160e01b8552848a52602485fd5b634e487b7160e01b855260118a52602485fd5b5086979850613b44565b60405162461bcd60e51b8152808901839052603560248201527f4f6e6c79207468652073656c6c6572206f72206869676865737420626964646560448201527f722063616e20656e64207468652061756374696f6e00000000000000000000006064820152608490fd5b9050600787015416331438613b17565b6064906040519062461bcd60e51b82526004820152601960248201527f41756374696f6e20686173206e6f742079657420656e646564000000000000006044820152fd5b6064906040519062461bcd60e51b82526004820152601960248201527f41756374696f6e2068617320616c726561647920656e646564000000000000006044820152fd5b15613db557565b60405162461bcd60e51b815260206004820152604960248201527f41756374696f6e20686173206e6f7420656e646564207965742c206f7220796f60448201527f7520617265206e6f74207468652077696e6e6572206f72206f776e6572206f6660648201526820746865206974656d60b81b608482015260a490fd5b6001600160401b03811161128d5760051b60200190565b908154613e5581613e32565b92613e63604051948561338f565b818452600090815260208082208186015b848410613e82575050505050565b6001838192613e90856133b0565b815201920193019290613e74565b90613ea882613e32565b604090613eb78251918261338f565b8381528093613ec8601f1991613e32565b019160005b838110613eda5750505050565b6020908251613ee881613373565b6060808252839080828401528086840152808084015260006080840152600060a0840152600060c0840152600060e084015260006101008401526000610120840152806101408401528061016084015261018083015260006101a083015260006101c083015260006101e0830152828601015201613ecd565b80518210156106365760209160051b010190565b60405190816000825492613f8884613339565b906001948581169081600014613fe95750600114613faf575b505060209281520301902090565b60009081526020808220959350905b828110613fd5575050602093508201909238613fa1565b855487820152948301948694508101613fbe565b60ff1916855250508015150282019050602038613fa1565b1561400857565b60405162461bcd60e51b815260206004820152602a60248201527f596f7520617265206e6f7420616e20617574686f72697a656420636f6d6d69746044820152693a32b29036b2b6b132b960b11b6064820152608490fd5b1561406757565b60405162461bcd60e51b815260206004820152602360248201527f546869732061756374696f6e20646f65736e277420686176652061206469737060448201526275746560e81b6064820152608490fd5b60ff1660ff81146137d75760010190565b90604051916020926140f78482816140ea8183019687815193849201613279565b810103808452018261338f565b519020916141176040519182816140ea8183019687815193849201613279565b519020149056fea2646970667358221220301265fe53e49b55aeb6dc03ca2e3df38fc4948a2b0f2ca112ac66bb5c53a15164736f6c63430008130033",
  "devdoc": {
    "kind": "dev",
    "methods": {
      "owner()": {
        "details": "Returns the address of the current owner."
      },
      "renounceOwnership()": {
        "details": "Leaves the contract without owner. It will not be possible to call `onlyOwner` functions. Can only be called by the current owner. NOTE: Renouncing ownership will leave the contract without an owner, thereby disabling any functionality that is only available to the owner."
      },
      "transferOwnership(address)": {
        "details": "Transfers ownership of the contract to a new account (`newOwner`). Can only be called by the current owner."
      }
    },
    "version": 1
  },
  "userdoc": {
    "kind": "user",
    "methods": {},
    "version": 1
  },
  "storageLayout": {
    "storage": [
      {
        "astId": 7,
        "contract": "contracts/Auction.sol:Auction",
        "label": "_owner",
        "offset": 0,
        "slot": "0",
        "type": "t_address"
      },
      {
        "astId": 5675,
        "contract": "contracts/Auction.sol:Auction",
        "label": "auctionItems",
        "offset": 0,
        "slot": "1",
        "type": "t_mapping(t_string_memory_ptr,t_struct(AuctionItem)5654_storage)"
      },
      {
        "astId": 5680,
        "contract": "contracts/Auction.sol:Auction",
        "label": "activeAuctionOwners",
        "offset": 0,
        "slot": "2",
        "type": "t_mapping(t_address,t_struct(ActiveAuctioneer)5662_storage)"
      },
      {
        "astId": 5684,
        "contract": "contracts/Auction.sol:Auction",
        "label": "pubKeys",
        "offset": 0,
        "slot": "3",
        "type": "t_mapping(t_address,t_string_storage)"
      },
      {
        "astId": 5688,
        "contract": "contracts/Auction.sol:Auction",
        "label": "isCommitteeMember",
        "offset": 0,
        "slot": "4",
        "type": "t_mapping(t_address,t_bool)"
      },
      {
        "astId": 5693,
        "contract": "contracts/Auction.sol:Auction",
        "label": "ownerAuctions",
        "offset": 0,
        "slot": "5",
        "type": "t_mapping(t_address,t_array(t_string_storage)dyn_storage)"
      },
      {
        "astId": 5698,
        "contract": "contracts/Auction.sol:Auction",
        "label": "userBidsMapping",
        "offset": 0,
        "slot": "6",
        "type": "t_mapping(t_address,t_struct(UserBids)5670_storage)"
      },
      {
        "astId": 5701,
        "contract": "contracts/Auction.sol:Auction",
        "label": "auctionArr",
        "offset": 0,
        "slot": "7",
        "type": "t_array(t_string_storage)dyn_storage"
      },
      {
        "astId": 5704,
        "contract": "contracts/Auction.sol:Auction",
        "label": "disputeArr",
        "offset": 0,
        "slot": "8",
        "type": "t_array(t_string_storage)dyn_storage"
      },
      {
        "astId": 5712,
        "contract": "contracts/Auction.sol:Auction",
        "label": "tokensToStake",
        "offset": 0,
        "slot": "9",
        "type": "t_uint256"
      },
      {
        "astId": 5715,
        "contract": "contracts/Auction.sol:Auction",
        "label": "token",
        "offset": 0,
        "slot": "10",
        "type": "t_contract(ObscurityToken)7375"
      },
      {
        "astId": 5720,
        "contract": "contracts/Auction.sol:Auction",
        "label": "auctionDuration",
        "offset": 20,
        "slot": "10",
        "type": "t_uint64"
      },
      {
        "astId": 5723,
        "contract": "contracts/Auction.sol:Auction",
        "label": "concurrentAuctionsPerUser",
        "offset": 28,
        "slot": "10",
        "type": "t_uint8"
      }
    ],
    "types": {
      "t_address": {
        "encoding": "inplace",
        "label": "address",
        "numberOfBytes": "20"
      },
      "t_address_payable": {
        "encoding": "inplace",
        "label": "address payable",
        "numberOfBytes": "20"
      },
      "t_array(t_string_storage)dyn_storage": {
        "base": "t_string_storage",
        "encoding": "dynamic_array",
        "label": "string[]",
        "numberOfBytes": "32"
      },
      "t_bool": {
        "encoding": "inplace",
        "label": "bool",
        "numberOfBytes": "1"
      },
      "t_contract(ObscurityToken)7375": {
        "encoding": "inplace",
        "label": "contract ObscurityToken",
        "numberOfBytes": "20"
      },
      "t_enum(EscrowState)5618": {
        "encoding": "inplace",
        "label": "enum Auction.EscrowState",
        "numberOfBytes": "1"
      },
      "t_mapping(t_address,t_array(t_string_storage)dyn_storage)": {
        "encoding": "mapping",
        "key": "t_address",
        "label": "mapping(address => string[])",
        "numberOfBytes": "32",
        "value": "t_array(t_string_storage)dyn_storage"
      },
      "t_mapping(t_address,t_bool)": {
        "encoding": "mapping",
        "key": "t_address",
        "label": "mapping(address => bool)",
        "numberOfBytes": "32",
        "value": "t_bool"
      },
      "t_mapping(t_address,t_string_storage)": {
        "encoding": "mapping",
        "key": "t_address",
        "label": "mapping(address => string)",
        "numberOfBytes": "32",
        "value": "t_string_storage"
      },
      "t_mapping(t_address,t_struct(ActiveAuctioneer)5662_storage)": {
        "encoding": "mapping",
        "key": "t_address",
        "label": "mapping(address => struct Auction.ActiveAuctioneer)",
        "numberOfBytes": "32",
        "value": "t_struct(ActiveAuctioneer)5662_storage"
      },
      "t_mapping(t_address,t_struct(UserBids)5670_storage)": {
        "encoding": "mapping",
        "key": "t_address",
        "label": "mapping(address => struct Auction.UserBids)",
        "numberOfBytes": "32",
        "value": "t_struct(UserBids)5670_storage"
      },
      "t_mapping(t_string_memory_ptr,t_bool)": {
        "encoding": "mapping",
        "key": "t_string_memory_ptr",
        "label": "mapping(string => bool)",
        "numberOfBytes": "32",
        "value": "t_bool"
      },
      "t_mapping(t_string_memory_ptr,t_struct(AuctionItem)5654_storage)": {
        "encoding": "mapping",
        "key": "t_string_memory_ptr",
        "label": "mapping(string => struct Auction.AuctionItem)",
        "numberOfBytes": "32",
        "value": "t_struct(AuctionItem)5654_storage"
      },
      "t_string_memory_ptr": {
        "encoding": "bytes",
        "label": "string",
        "numberOfBytes": "32"
      },
      "t_string_storage": {
        "encoding": "bytes",
        "label": "string",
        "numberOfBytes": "32"
      },
      "t_struct(ActiveAuctioneer)5662_storage": {
        "encoding": "inplace",
        "label": "struct Auction.ActiveAuctioneer",
        "members": [
          {
            "astId": 5656,
            "contract": "contracts/Auction.sol:Auction",
            "label": "stakedAmount",
            "offset": 0,
            "slot": "0",
            "type": "t_uint256"
          },
          {
            "astId": 5659,
            "contract": "contracts/Auction.sol:Auction",
            "label": "activeAuctions",
            "offset": 0,
            "slot": "1",
            "type": "t_array(t_string_storage)dyn_storage"
          },
          {
            "astId": 5661,
            "contract": "contracts/Auction.sol:Auction",
            "label": "isInitialized",
            "offset": 0,
            "slot": "2",
            "type": "t_bool"
          }
        ],
        "numberOfBytes": "96"
      },
      "t_struct(AuctionItem)5654_storage": {
        "encoding": "inplace",
        "label": "struct Auction.AuctionItem",
        "members": [
          {
            "astId": 5620,
            "contract": "contracts/Auction.sol:Auction",
            "label": "itemId",
            "offset": 0,
            "slot": "0",
            "type": "t_string_storage"
          },
          {
            "astId": 5622,
            "contract": "contracts/Auction.sol:Auction",
            "label": "itemName",
            "offset": 0,
            "slot": "1",
            "type": "t_string_storage"
          },
          {
            "astId": 5624,
            "contract": "contracts/Auction.sol:Auction",
            "label": "itemDescription",
            "offset": 0,
            "slot": "2",
            "type": "t_string_storage"
          },
          {
            "astId": 5626,
            "contract": "contracts/Auction.sol:Auction",
            "label": "hashOfImage",
            "offset": 0,
            "slot": "3",
            "type": "t_string_storage"
          },
          {
            "astId": 5628,
            "contract": "contracts/Auction.sol:Auction",
            "label": "seller",
            "offset": 0,
            "slot": "4",
            "type": "t_address_payable"
          },
          {
            "astId": 5630,
            "contract": "contracts/Auction.sol:Auction",
            "label": "reservePrice",
            "offset": 0,
            "slot": "5",
            "type": "t_uint256"
          },
          {
            "astId": 5632,
            "contract": "contracts/Auction.sol:Auction",
            "label": "highestBid",
            "offset": 0,
            "slot": "6",
            "type": "t_uint256"
          },
          {
            "astId": 5634,
            "contract": "contracts/Auction.sol:Auction",
            "label": "highestBidder",
            "offset": 0,
            "slot": "7",
            "type": "t_address_payable"
          },
          {
            "astId": 5636,
            "contract": "contracts/Auction.sol:Auction",
            "label": "auctionEndTime",
            "offset": 0,
            "slot": "8",
            "type": "t_uint256"
          },
          {
            "astId": 5638,
            "contract": "contracts/Auction.sol:Auction",
            "label": "ended",
            "offset": 0,
            "slot": "9",
            "type": "t_bool"
          },
          {
            "astId": 5640,
            "contract": "contracts/Auction.sol:Auction",
            "label": "deliveryAddress",
            "offset": 0,
            "slot": "10",
            "type": "t_string_storage"
          },
          {
            "astId": 5643,
            "contract": "contracts/Auction.sol:Auction",
            "label": "privateChatLogs",
            "offset": 0,
            "slot": "11",
            "type": "t_array(t_string_storage)dyn_storage"
          },
          {
            "astId": 5646,
            "contract": "contracts/Auction.sol:Auction",
            "label": "committeeChatLogs",
            "offset": 0,
            "slot": "12",
            "type": "t_array(t_string_storage)dyn_storage"
          },
          {
            "astId": 5649,
            "contract": "contracts/Auction.sol:Auction",
            "label": "escrowState",
            "offset": 0,
            "slot": "13",
            "type": "t_enum(EscrowState)5618"
          },
          {
            "astId": 5651,
            "contract": "contracts/Auction.sol:Auction",
            "label": "yesVotes",
            "offset": 1,
            "slot": "13",
            "type": "t_uint8"
          },
          {
            "astId": 5653,
            "contract": "contracts/Auction.sol:Auction",
            "label": "noVotes",
            "offset": 2,
            "slot": "13",
            "type": "t_uint8"
          }
        ],
        "numberOfBytes": "448"
      },
      "t_struct(UserBids)5670_storage": {
        "encoding": "inplace",
        "label": "struct Auction.UserBids",
        "members": [
          {
            "astId": 5665,
            "contract": "contracts/Auction.sol:Auction",
            "label": "auctionIds",
            "offset": 0,
            "slot": "0",
            "type": "t_array(t_string_storage)dyn_storage"
          },
          {
            "astId": 5669,
            "contract": "contracts/Auction.sol:Auction",
            "label": "auctionExists",
            "offset": 0,
            "slot": "1",
            "type": "t_mapping(t_string_memory_ptr,t_bool)"
          }
        ],
        "numberOfBytes": "64"
      },
      "t_uint256": {
        "encoding": "inplace",
        "label": "uint256",
        "numberOfBytes": "32"
      },
      "t_uint64": {
        "encoding": "inplace",
        "label": "uint64",
        "numberOfBytes": "8"
      },
      "t_uint8": {
        "encoding": "inplace",
        "label": "uint8",
        "numberOfBytes": "1"
      }
    }
  }
}