{
  "address": "0x8A791620dd6260079BF849Dc5567aDC3F2FdC318",
  "abi": [
    {
      "inputs": [
        {
          "internalType": "contract ObscurityToken",
          "name": "_token",
          "type": "address"
        }
      ],
      "stateMutability": "nonpayable",
      "type": "constructor"
    },
    {
      "anonymous": false,
      "inputs": [
        {
          "indexed": true,
          "internalType": "string",
          "name": "itemId",
          "type": "string"
        },
        {
          "indexed": false,
          "internalType": "string",
          "name": "itemName",
          "type": "string"
        }
      ],
      "name": "AuctionItemCreated",
      "type": "event"
    },
    {
      "anonymous": false,
      "inputs": [
        {
          "indexed": true,
          "internalType": "address",
          "name": "previousOwner",
          "type": "address"
        },
        {
          "indexed": true,
          "internalType": "address",
          "name": "newOwner",
          "type": "address"
        }
      ],
      "name": "OwnershipTransferred",
      "type": "event"
    },
    {
      "inputs": [
        {
          "internalType": "address",
          "name": "",
          "type": "address"
        }
      ],
      "name": "activeAuctionOwners",
      "outputs": [
        {
          "internalType": "uint256",
          "name": "stakedAmount",
          "type": "uint256"
        },
        {
          "internalType": "bool",
          "name": "isInitialized",
          "type": "bool"
        }
      ],
      "stateMutability": "view",
      "type": "function"
    },
    {
      "inputs": [
        {
          "internalType": "string",
          "name": "",
          "type": "string"
        }
      ],
      "name": "auctionItems",
      "outputs": [
        {
          "internalType": "string",
          "name": "itemId",
          "type": "string"
        },
        {
          "internalType": "string",
          "name": "itemName",
          "type": "string"
        },
        {
          "internalType": "string",
          "name": "itemDescription",
          "type": "string"
        },
        {
          "internalType": "string",
          "name": "hashOfImage",
          "type": "string"
        },
        {
          "internalType": "address payable",
          "name": "seller",
          "type": "address"
        },
        {
          "internalType": "uint256",
          "name": "reservePrice",
          "type": "uint256"
        },
        {
          "internalType": "uint256",
          "name": "highestBid",
          "type": "uint256"
        },
        {
          "internalType": "address payable",
          "name": "highestBidder",
          "type": "address"
        },
        {
          "internalType": "uint256",
          "name": "auctionEndTime",
          "type": "uint256"
        },
        {
          "internalType": "bool",
          "name": "ended",
          "type": "bool"
        },
        {
          "internalType": "string",
          "name": "deliveryAddress",
          "type": "string"
        },
        {
          "internalType": "enum Auction.EscrowState",
          "name": "escrowState",
          "type": "uint8"
        },
        {
          "internalType": "uint8",
          "name": "yesVotes",
          "type": "uint8"
        },
        {
          "internalType": "uint8",
          "name": "noVotes",
          "type": "uint8"
        }
      ],
      "stateMutability": "view",
      "type": "function"
    },
    {
      "inputs": [
        {
          "internalType": "string",
          "name": "a",
          "type": "string"
        },
        {
          "internalType": "string",
          "name": "b",
          "type": "string"
        }
      ],
      "name": "compareStrings",
      "outputs": [
        {
          "internalType": "bool",
          "name": "",
          "type": "bool"
        }
      ],
      "stateMutability": "pure",
      "type": "function"
    },
    {
      "inputs": [
        {
          "internalType": "string",
          "name": "itemId",
          "type": "string"
        },
        {
          "internalType": "string",
          "name": "itemName",
          "type": "string"
        },
        {
          "internalType": "string",
          "name": "itemDescription",
          "type": "string"
        },
        {
          "internalType": "string",
          "name": "hashOfImage",
          "type": "string"
        },
        {
          "internalType": "uint256",
          "name": "reservePrice",
          "type": "uint256"
        }
      ],
      "name": "createAuctionItem",
      "outputs": [],
      "stateMutability": "nonpayable",
      "type": "function"
    },
    {
      "inputs": [
        {
          "internalType": "string",
          "name": "itemId",
          "type": "string"
        }
      ],
      "name": "endAuction",
      "outputs": [],
      "stateMutability": "payable",
      "type": "function"
    },
    {
      "inputs": [
        {
          "internalType": "address",
          "name": "sender",
          "type": "address"
        }
      ],
      "name": "getActiveAuctioneer",
      "outputs": [
        {
          "internalType": "uint256",
          "name": "",
          "type": "uint256"
        },
        {
          "internalType": "string[]",
          "name": "",
          "type": "string[]"
        },
        {
          "internalType": "bool",
          "name": "",
          "type": "bool"
        }
      ],
      "stateMutability": "view",
      "type": "function"
    },
    {
      "inputs": [],
      "name": "getAllAuctions",
      "outputs": [
        {
          "components": [
            {
              "internalType": "string",
              "name": "itemId",
              "type": "string"
            },
            {
              "internalType": "string",
              "name": "itemName",
              "type": "string"
            },
            {
              "internalType": "string",
              "name": "itemDescription",
              "type": "string"
            },
            {
              "internalType": "string",
              "name": "hashOfImage",
              "type": "string"
            },
            {
              "internalType": "address payable",
              "name": "seller",
              "type": "address"
            },
            {
              "internalType": "uint256",
              "name": "reservePrice",
              "type": "uint256"
            },
            {
              "internalType": "uint256",
              "name": "highestBid",
              "type": "uint256"
            },
            {
              "internalType": "address payable",
              "name": "highestBidder",
              "type": "address"
            },
            {
              "internalType": "uint256",
              "name": "auctionEndTime",
              "type": "uint256"
            },
            {
              "internalType": "bool",
              "name": "ended",
              "type": "bool"
            },
            {
              "internalType": "string",
              "name": "deliveryAddress",
              "type": "string"
            },
            {
              "internalType": "string[]",
              "name": "privateChatLogs",
              "type": "string[]"
            },
            {
              "internalType": "string[]",
              "name": "committeeChatLogs",
              "type": "string[]"
            },
            {
              "internalType": "enum Auction.EscrowState",
              "name": "escrowState",
              "type": "uint8"
            },
            {
              "internalType": "uint8",
              "name": "yesVotes",
              "type": "uint8"
            },
            {
              "internalType": "uint8",
              "name": "noVotes",
              "type": "uint8"
            }
          ],
          "internalType": "struct Auction.AuctionItem[]",
          "name": "",
          "type": "tuple[]"
        }
      ],
      "stateMutability": "view",
      "type": "function"
    },
    {
      "inputs": [],
      "name": "getAllDisputeAuctions",
      "outputs": [
        {
          "components": [
            {
              "internalType": "string",
              "name": "itemId",
              "type": "string"
            },
            {
              "internalType": "string",
              "name": "itemName",
              "type": "string"
            },
            {
              "internalType": "string",
              "name": "itemDescription",
              "type": "string"
            },
            {
              "internalType": "string",
              "name": "hashOfImage",
              "type": "string"
            },
            {
              "internalType": "address payable",
              "name": "seller",
              "type": "address"
            },
            {
              "internalType": "uint256",
              "name": "reservePrice",
              "type": "uint256"
            },
            {
              "internalType": "uint256",
              "name": "highestBid",
              "type": "uint256"
            },
            {
              "internalType": "address payable",
              "name": "highestBidder",
              "type": "address"
            },
            {
              "internalType": "uint256",
              "name": "auctionEndTime",
              "type": "uint256"
            },
            {
              "internalType": "bool",
              "name": "ended",
              "type": "bool"
            },
            {
              "internalType": "string",
              "name": "deliveryAddress",
              "type": "string"
            },
            {
              "internalType": "string[]",
              "name": "privateChatLogs",
              "type": "string[]"
            },
            {
              "internalType": "string[]",
              "name": "committeeChatLogs",
              "type": "string[]"
            },
            {
              "internalType": "enum Auction.EscrowState",
              "name": "escrowState",
              "type": "uint8"
            },
            {
              "internalType": "uint8",
              "name": "yesVotes",
              "type": "uint8"
            },
            {
              "internalType": "uint8",
              "name": "noVotes",
              "type": "uint8"
            }
          ],
          "internalType": "struct Auction.AuctionItem[]",
          "name": "",
          "type": "tuple[]"
        }
      ],
      "stateMutability": "view",
      "type": "function"
    },
    {
      "inputs": [],
      "name": "getAuctionDuration",
      "outputs": [
        {
          "internalType": "uint256",
          "name": "",
          "type": "uint256"
        }
      ],
      "stateMutability": "view",
      "type": "function"
    },
    {
      "inputs": [
        {
          "internalType": "string",
          "name": "itemId",
          "type": "string"
        }
      ],
      "name": "getAuctionItem",
      "outputs": [
        {
          "internalType": "string",
          "name": "",
          "type": "string"
        },
        {
          "internalType": "string",
          "name": "",
          "type": "string"
        },
        {
          "internalType": "address payable",
          "name": "",
          "type": "address"
        },
        {
          "internalType": "uint256",
          "name": "",
          "type": "uint256"
        },
        {
          "internalType": "uint256",
          "name": "",
          "type": "uint256"
        },
        {
          "internalType": "address payable",
          "name": "",
          "type": "address"
        },
        {
          "internalType": "uint256",
          "name": "",
          "type": "uint256"
        },
        {
          "internalType": "bool",
          "name": "",
          "type": "bool"
        }
      ],
      "stateMutability": "view",
      "type": "function"
    },
    {
      "inputs": [
        {
          "internalType": "string",
          "name": "itemId",
          "type": "string"
        }
      ],
      "name": "getChatLogOfItem",
      "outputs": [
        {
          "internalType": "string[]",
          "name": "",
          "type": "string[]"
        }
      ],
      "stateMutability": "view",
      "type": "function"
    },
    {
      "inputs": [
        {
          "internalType": "string",
          "name": "itemId",
          "type": "string"
        }
      ],
      "name": "getCommitteeChatLogOfItem",
      "outputs": [
        {
          "internalType": "string[]",
          "name": "",
          "type": "string[]"
        }
      ],
      "stateMutability": "view",
      "type": "function"
    },
    {
      "inputs": [],
      "name": "getCommitteeMembers",
      "outputs": [
        {
          "internalType": "address[]",
          "name": "",
          "type": "address[]"
        }
      ],
      "stateMutability": "view",
      "type": "function"
    },
    {
      "inputs": [],
      "name": "getConcurrentAuctionsPerUser",
      "outputs": [
        {
          "internalType": "uint256",
          "name": "",
          "type": "uint256"
        }
      ],
      "stateMutability": "view",
      "type": "function"
    },
    {
      "inputs": [],
      "name": "getCurrentTimestamp",
      "outputs": [
        {
          "internalType": "uint256",
          "name": "",
          "type": "uint256"
        }
      ],
      "stateMutability": "view",
      "type": "function"
    },
    {
      "inputs": [
        {
          "internalType": "string",
          "name": "itemId",
          "type": "string"
        }
      ],
      "name": "getDeliveryAddress",
      "outputs": [
        {
          "internalType": "string",
          "name": "",
          "type": "string"
        }
      ],
      "stateMutability": "view",
      "type": "function"
    },
    {
      "inputs": [
        {
          "internalType": "address",
          "name": "sender",
          "type": "address"
        }
      ],
      "name": "getMyBidAuctions",
      "outputs": [
        {
          "components": [
            {
              "internalType": "string",
              "name": "itemId",
              "type": "string"
            },
            {
              "internalType": "string",
              "name": "itemName",
              "type": "string"
            },
            {
              "internalType": "string",
              "name": "itemDescription",
              "type": "string"
            },
            {
              "internalType": "string",
              "name": "hashOfImage",
              "type": "string"
            },
            {
              "internalType": "address payable",
              "name": "seller",
              "type": "address"
            },
            {
              "internalType": "uint256",
              "name": "reservePrice",
              "type": "uint256"
            },
            {
              "internalType": "uint256",
              "name": "highestBid",
              "type": "uint256"
            },
            {
              "internalType": "address payable",
              "name": "highestBidder",
              "type": "address"
            },
            {
              "internalType": "uint256",
              "name": "auctionEndTime",
              "type": "uint256"
            },
            {
              "internalType": "bool",
              "name": "ended",
              "type": "bool"
            },
            {
              "internalType": "string",
              "name": "deliveryAddress",
              "type": "string"
            },
            {
              "internalType": "string[]",
              "name": "privateChatLogs",
              "type": "string[]"
            },
            {
              "internalType": "string[]",
              "name": "committeeChatLogs",
              "type": "string[]"
            },
            {
              "internalType": "enum Auction.EscrowState",
              "name": "escrowState",
              "type": "uint8"
            },
            {
              "internalType": "uint8",
              "name": "yesVotes",
              "type": "uint8"
            },
            {
              "internalType": "uint8",
              "name": "noVotes",
              "type": "uint8"
            }
          ],
          "internalType": "struct Auction.AuctionItem[]",
          "name": "",
          "type": "tuple[]"
        }
      ],
      "stateMutability": "view",
      "type": "function"
    },
    {
      "inputs": [
        {
          "internalType": "address",
          "name": "sender",
          "type": "address"
        }
      ],
      "name": "getMyOwnerAuctions",
      "outputs": [
        {
          "components": [
            {
              "internalType": "string",
              "name": "itemId",
              "type": "string"
            },
            {
              "internalType": "string",
              "name": "itemName",
              "type": "string"
            },
            {
              "internalType": "string",
              "name": "itemDescription",
              "type": "string"
            },
            {
              "internalType": "string",
              "name": "hashOfImage",
              "type": "string"
            },
            {
              "internalType": "address payable",
              "name": "seller",
              "type": "address"
            },
            {
              "internalType": "uint256",
              "name": "reservePrice",
              "type": "uint256"
            },
            {
              "internalType": "uint256",
              "name": "highestBid",
              "type": "uint256"
            },
            {
              "internalType": "address payable",
              "name": "highestBidder",
              "type": "address"
            },
            {
              "internalType": "uint256",
              "name": "auctionEndTime",
              "type": "uint256"
            },
            {
              "internalType": "bool",
              "name": "ended",
              "type": "bool"
            },
            {
              "internalType": "string",
              "name": "deliveryAddress",
              "type": "string"
            },
            {
              "internalType": "string[]",
              "name": "privateChatLogs",
              "type": "string[]"
            },
            {
              "internalType": "string[]",
              "name": "committeeChatLogs",
              "type": "string[]"
            },
            {
              "internalType": "enum Auction.EscrowState",
              "name": "escrowState",
              "type": "uint8"
            },
            {
              "internalType": "uint8",
              "name": "yesVotes",
              "type": "uint8"
            },
            {
              "internalType": "uint8",
              "name": "noVotes",
              "type": "uint8"
            }
          ],
          "internalType": "struct Auction.AuctionItem[]",
          "name": "",
          "type": "tuple[]"
        }
      ],
      "stateMutability": "view",
      "type": "function"
    },
    {
      "inputs": [
        {
          "internalType": "address",
          "name": "adr",
          "type": "address"
        }
      ],
      "name": "getPubKey",
      "outputs": [
        {
          "internalType": "string",
          "name": "",
          "type": "string"
        }
      ],
      "stateMutability": "view",
      "type": "function"
    },
    {
      "inputs": [],
      "name": "getTokensToStake",
      "outputs": [
        {
          "internalType": "uint256",
          "name": "",
          "type": "uint256"
        }
      ],
      "stateMutability": "view",
      "type": "function"
    },
    {
      "inputs": [
        {
          "internalType": "string",
          "name": "itemId",
          "type": "string"
        },
        {
          "internalType": "address",
          "name": "voterAddress",
          "type": "address"
        }
      ],
      "name": "getUserVoteStatus",
      "outputs": [
        {
          "internalType": "bool",
          "name": "",
          "type": "bool"
        }
      ],
      "stateMutability": "view",
      "type": "function"
    },
    {
      "inputs": [
        {
          "internalType": "address",
          "name": "",
          "type": "address"
        }
      ],
      "name": "isCommitteeMember",
      "outputs": [
        {
          "internalType": "bool",
          "name": "",
          "type": "bool"
        }
      ],
      "stateMutability": "view",
      "type": "function"
    },
    {
      "inputs": [],
      "name": "owner",
      "outputs": [
        {
          "internalType": "address",
          "name": "",
          "type": "address"
        }
      ],
      "stateMutability": "view",
      "type": "function"
    },
    {
      "inputs": [
        {
          "internalType": "address",
          "name": "",
          "type": "address"
        },
        {
          "internalType": "uint256",
          "name": "",
          "type": "uint256"
        }
      ],
      "name": "ownerAuctions",
      "outputs": [
        {
          "internalType": "string",
          "name": "",
          "type": "string"
        }
      ],
      "stateMutability": "view",
      "type": "function"
    },
    {
      "inputs": [
        {
          "internalType": "string",
          "name": "itemId",
          "type": "string"
        },
        {
          "internalType": "uint256",
          "name": "bidAmount",
          "type": "uint256"
        }
      ],
      "name": "placeBid",
      "outputs": [],
      "stateMutability": "payable",
      "type": "function"
    },
    {
      "inputs": [
        {
          "internalType": "address",
          "name": "",
          "type": "address"
        }
      ],
      "name": "pubKeys",
      "outputs": [
        {
          "internalType": "string",
          "name": "",
          "type": "string"
        }
      ],
      "stateMutability": "view",
      "type": "function"
    },
    {
      "inputs": [
        {
          "internalType": "string",
          "name": "itemId",
          "type": "string"
        }
      ],
      "name": "raiseDispute",
      "outputs": [],
      "stateMutability": "nonpayable",
      "type": "function"
    },
    {
      "inputs": [],
      "name": "relinquishTokensToOwner",
      "outputs": [],
      "stateMutability": "nonpayable",
      "type": "function"
    },
    {
      "inputs": [],
      "name": "renounceOwnership",
      "outputs": [],
      "stateMutability": "nonpayable",
      "type": "function"
    },
    {
      "inputs": [
        {
          "internalType": "string",
          "name": "itemId",
          "type": "string"
        }
      ],
      "name": "resolveDispute",
      "outputs": [],
      "stateMutability": "payable",
      "type": "function"
    },
    {
      "inputs": [
        {
          "internalType": "string",
          "name": "itemId",
          "type": "string"
        },
        {
          "internalType": "string",
          "name": "message",
          "type": "string"
        }
      ],
      "name": "sendChat",
      "outputs": [],
      "stateMutability": "nonpayable",
      "type": "function"
    },
    {
      "inputs": [
        {
          "internalType": "string",
          "name": "itemId",
          "type": "string"
        },
        {
          "internalType": "string",
          "name": "message",
          "type": "string"
        }
      ],
      "name": "sendCommitteeChat",
      "outputs": [],
      "stateMutability": "nonpayable",
      "type": "function"
    },
    {
      "inputs": [
        {
          "internalType": "uint64",
          "name": "duration",
          "type": "uint64"
        }
      ],
      "name": "setAuctionDuration",
      "outputs": [],
      "stateMutability": "nonpayable",
      "type": "function"
    },
    {
      "inputs": [
        {
          "internalType": "uint8",
          "name": "auctionCount",
          "type": "uint8"
        }
      ],
      "name": "setConcurrentAuctionsPerUser",
      "outputs": [],
      "stateMutability": "nonpayable",
      "type": "function"
    },
    {
      "inputs": [
        {
          "internalType": "string",
          "name": "itemId",
          "type": "string"
        },
        {
          "internalType": "string",
          "name": "deliveryAddress",
          "type": "string"
        }
      ],
      "name": "setDeliveryAddress",
      "outputs": [],
      "stateMutability": "nonpayable",
      "type": "function"
    },
    {
      "inputs": [
        {
          "internalType": "string",
          "name": "pubKey",
          "type": "string"
        }
      ],
      "name": "setPubKey",
      "outputs": [],
      "stateMutability": "nonpayable",
      "type": "function"
    },
    {
      "inputs": [
        {
          "internalType": "uint256",
          "name": "amount",
          "type": "uint256"
        }
      ],
      "name": "setTokensToStake",
      "outputs": [],
      "stateMutability": "nonpayable",
      "type": "function"
    },
    {
      "inputs": [
        {
          "internalType": "uint256",
          "name": "amount",
          "type": "uint256"
        }
      ],
      "name": "stakeTokens",
      "outputs": [],
      "stateMutability": "nonpayable",
      "type": "function"
    },
    {
      "inputs": [
        {
          "internalType": "address",
          "name": "newOwner",
          "type": "address"
        }
      ],
      "name": "transferOwnership",
      "outputs": [],
      "stateMutability": "nonpayable",
      "type": "function"
    },
    {
      "inputs": [
        {
          "internalType": "string",
          "name": "itemId",
          "type": "string"
        },
        {
          "internalType": "enum Auction.EscrowState",
          "name": "nextState",
          "type": "uint8"
        }
      ],
      "name": "transitionEscrowState",
      "outputs": [],
      "stateMutability": "nonpayable",
      "type": "function"
    },
    {
      "inputs": [
        {
          "internalType": "string",
          "name": "itemId",
          "type": "string"
        },
        {
          "internalType": "uint8",
          "name": "vote",
          "type": "uint8"
        }
      ],
      "name": "voteOnDispute",
      "outputs": [],
      "stateMutability": "nonpayable",
      "type": "function"
    }
  ],
  "transactionHash": "0x45660e65b061dc03165b6feba6099b77521a0bac568efb00e7d47dc2e091c654",
  "args": [
    "0x5FbDB2315678afecb367f032d93F642f64180aa3"
  ],
  "numDeployments": 1,
  "solcInputHash": "f1823d2143a18960ccf75227862a4d92",
  "bytecode": "0x6080346200024657601f6200486338819003918201601f19168301916001600160401b038311848410176200024b578084926020946040528339810103126200024657516001600160a01b0390818116908190036200024657600090815460018060a01b031993338583161784553391167f8be0079c531659141344cd1fd0a4f28419497f9722a3daafe3b4186f6b6457e08480a3681b1ae4d6e2ef500000600b5567400000000000000f60a31b9062ffffff60e81b600c54161717600c557390f79bf6eb2c4f870365e785982e1f101e93b90680825260049182602052604081209260019060ff199482868254161790557315d34aaf54267db7d7c367839aaf71a00a2c6a6591828452604084208187825416179055739965507d1a55bcc2695c58ba16fb37d819b0a4dc95868552816040862091825416179055600a9283549568010000000000000000968781101562000233578381018087558110156200022057858752602087200190898254161790558354868110156200020d57828101808655811015620001fa5784865260208620019088825416179055825494851015620001e7578401808355841015620001d457509060209181522001918254161790556040516146019081620002628239f35b634e487b7160e01b835260329052602482fd5b634e487b7160e01b845260418252602484fd5b634e487b7160e01b865260328452602486fd5b634e487b7160e01b865260418452602486fd5b634e487b7160e01b875260328552602487fd5b634e487b7160e01b875260418552602487fd5b600080fd5b634e487b7160e01b600052604160045260246000fdfe608080604052600436101561001357600080fd5b60003560e01c908163016544aa146132d55750806305f3b3f7146131cf57806307412e9c146131885780631b83f39114612fcf5780631f49c291146123d15780633098662e1461233557806341290273146122c9578063665250da14612230578063676202fe146121c25780636c9230db146121a7578063715018a61461214e578063725a3b4b14611ef75780637547c7a314611c9f57806378cb51af14611c755780637c812b3914611c1c5780637f38d86514611bd757806383c2715014611a1c57806388624ab3146119f85780638aaf2761146119d75780638da5cb5b146119b05780638f2238ba146117f25780639211735b146115fb578063955ab337146114ff5780639d6271a0146113f25780639f19360d146111da578063a4bdc06e1461106f578063a7eaa24114610c49578063b2a275f914610b81578063bed34bba14610b27578063c1d733db14610a0b578063cbd2bdfd14610899578063ce2ba9bf1461082a578063d1b8b4bf146101e2578063d31f371e146106b3578063d8bcd0c914610695578063e636d84b14610656578063ee54507b146104d6578063f1d273c31461034a578063f2fde38b14610281578063fb346ea0146102395763fce9512a146101e257600080fd5b34610234576020366003190112610234576001600160a01b036102036137b8565b16600052600360205261023061021c604060002061385d565b6040519182916020835260208301906136ed565b0390f35b600080fd5b34610234576020366003190112610234576001600160a01b0361025a6137b8565b16600052600260205260408060002060ff6002825492015416825191825215156020820152f35b346102345760203660031901126102345761029a6137b8565b6102a2613b62565b6001600160a01b038091169081156102f657600054826bffffffffffffffffffffffff60a01b821617600055167f8be0079c531659141344cd1fd0a4f28419497f9722a3daafe3b4186f6b6457e0600080a3005b60405162461bcd60e51b815260206004820152602660248201527f4f776e61626c653a206e6577206f776e657220697320746865207a65726f206160448201526564647265737360d01b6064820152608490fd5b3461023457602080600319360112610234576001600160a01b03908161036e6137b8565b1660005260069081815261038560406000206142f6565b91610390835161434b565b9360005b84518110156104c857806103b46103ae6104c3938861440e565b51613b3c565b600d604051916103c383613820565b6103cc8161385d565b83526103da6001820161385d565b888401526103ea6002820161385d565b60408401526103fb6003820161385d565b6060840152856004820154166080840152600581015460a08401528681015460c08401528560078201541660e08401526008908181015461010085015260ff928184600981940154161515610120870152610458600a820161385d565b61014087015261046a600b82016142f6565b61016087015261047c600c82016142f6565b610180870152015480926104968383166101a08801613d25565b1c166101c084015260101c166101e08201526104b2828961440e565b526104bd818861440e565b50613e8b565b610394565b60405180610230888261396c565b3461023457600036600319011261023457600980546104f48161434b565b9160005b82811061050d5760405180610230868261396c565b6106519082600052610540817f6e1540171b6c0c960b71a7020d9f60077f6af931a8bbf590da0223dacf75c7af01614422565b600d6040519161054f83613820565b6105588161385d565b83526105666001820161385d565b60208401526105776002820161385d565b60408401526105886003820161385d565b60608401526001600160a01b03806004830154166080850152600582015460a0850152600682015460c085015260078201541660e08401526008908181015461010085015260ff92818489819401541615156101208701526105ec600a820161385d565b6101408701526105fe600b82016142f6565b610160870152610610600c82016142f6565b6101808701520154809261062a8383166101a08801613d25565b1c166101c084015260101c166101e0820152610646828761440e565b526104bd818661440e565b6104f8565b34610234576020366003190112610234576001600160a01b036106776137b8565b166000526004602052602060ff604060002054166040519015158152f35b34610234576000366003190112610234576020600b54604051908152f35b34610234576020366003190112610234576004356001600160401b038111610234576106e3903690600401613b1e565b60405181818093516020819301916106fa926136ca565b81016001815203602001902061070f8161385d565b61071b6001830161385d565b916107286002820161385d565b906107356003820161385d565b6001600160a01b0390816004840154169160058401549060068501549060078601541690600886015492600987015460ff1694600a88016107759061385d565b97600d0154986040519b8c9b8c6101c08091528d01610793916136ed565b8c810360208e01526107a4916136ed565b8b810360408d01526107b5916136ed565b8a810360608c01526107c6916136ed565b9560808a015260a089015260c088015260e087015261010086015215156101208501528381036101408501526107fb916136ed565b9061080d610160840160ff831661395f565b8060081c60ff1661018084015260101c60ff166101a08301520390f35b6020366003190112610234576004356001600160401b0381116102345761085861089791369060040161369d565b9061089261088d61087c60405185858237602081878101600181520301902061385d565b610887368686613ad8565b90614576565b613e3c565b613f70565b005b3461023457600036600319011261023457600880546108b78161434b565b9160005b8281106108d05760405180610230868261396c565b610a069082600052610903817ff3f7a9fe364faab93b216da50a3214154f22a0a2b415b23a84c8169e8b636ee301614422565b6040519061091082613820565b6109198161385d565b82526109276001820161385d565b60208301526109386002820161385d565b60408301526109496003820161385d565b60608301526001600160a01b03806004830154166080840152600582015460a0840152600682015460c084015260078201541660e083015284810154610100830152600d60ff918260098201541615156101208501526109ab600a820161385d565b6101408501526109bd600b82016142f6565b6101608501526109cf600c82016142f6565b61018085015201546109e78282166101a08501613d25565b8181871c166101c084015260101c166101e0820152610646828761440e565b6108bb565b34610234576020610a1b3661376e565b92610a4c61088d610a41604097949751868582378581888101600181520301902061385d565b610887368786613ad8565b826040519384928337810160018152030190209160ff60098401541680610adf575b15610a7f57600c6108979301613e0c565b60405162461bcd60e51b815260206004820152603260248201527f596f7520646f206e6f7420686176652070726976696c6567657320746f206368604482015271617420696e2074686973206469737075746560701b6064820152608490fd5b5033600052600460205260ff6040600020541680610a6e57506001600160a01b03338160078601541614908115610b17575b50610a6e565b9050600484015416331484610b11565b34610234576040366003190112610234576001600160401b0360043581811161023457610b58903690600401613b1e565b9060243590811161023457602091610887610b77923690600401613b1e565b6040519015158152f35b346102345760003660031901126102345760405180600a5480835260208093018091600a6000527fc65a7bb8d6351c1cf70c95a316cc6a92839c986682d98bc35f958f4883f9d2a89060005b86828210610c2c578686610be38288038361383c565b604051928392818401908285525180915260408401929160005b828110610c0c57505050500390f35b83516001600160a01b031685528695509381019392810192600101610bfd565b83546001600160a01b031685529093019260019283019201610bcd565b6040366003190112610234576004356001600160401b03811161023457610c7490369060040161369d565b90602490813592604051928183853781840194610cb061088d610ca5876001998a81526020998a910301902061385d565b610887368789613ad8565b3360005260038552610cd1602c610ccb6040600020546137e6565b14613c9a565b60405183858237858185810189815203019020906001600160a01b0390338260048501541614611021578060058401541015610fcb5760ff600984015416610f935760088301928354421015610f595760068101908154831115610efd57600c546040516323b872dd60e01b81523360048201523060248201526044810185905291908a90839060649082906000908a165af1918215610ed457600792610ee0575b500192888185541680610e5e575b5050505580546001600160a01b031916331790555490601e610da34284613e7e565b1115610e0b575b5050336000526006835260ff610dc7856040600020018385613d0c565b541615610dd057005b6006610dfe9333600052818152610dec83856040600020613e0c565b33600052528360406000200191613d0c565b805460ff19169091179055005b610e154283613e7e565b601e0390601e8211610e4a575090610e2c91613c77565b60086040518385823785818581018981520301902001558480610daa565b634e487b7160e01b60009081526011600452fd5b600c54845460405163a9059cbb60e01b81526001600160a01b039390931660048401526024830152909283916044918391600091165af18015610ed457610ea7575b8881610d81565b610ec690893d8b11610ecd575b610ebe818361383c565b810190613bba565b5089610ea0565b503d610eb4565b6040513d6000823e3d90fd5b610ef6908b3d8d11610ecd57610ebe818361383c565b508b610d73565b60405162461bcd60e51b8152600481018a9052602f818801527f426964206d75737420626520686967686572207468616e20746865206375727260448201526e195b9d081a1a59da195cdd08189a59608a1b6064820152608490fd5b60405162461bcd60e51b81526004810189905260138187015272105d58dd1a5bdb881a185cc8195e1c1a5c9959606a1b6044820152606490fd5b60405162461bcd60e51b81526004810188905260118186015270105d58dd1a5bdb881a185cc8195b991959607a1b6044820152606490fd5b60405162461bcd60e51b8152600481018890526029818601527f426964206d75737420626520686967686572207468616e20746865207265736560448201526872766520707269636560b81b6064820152608490fd5b60405162461bcd60e51b8152600481018890526021818601527f4f776e65722063616e277420626964206f6e2074686569722061756374696f6e6044820152607360f81b6064820152608490fd5b346102345760003660031901126102345733600052602060028152600160406000200154611170576001600160a01b0360008282600c54163383526002825260446040842054604051948593849263095ea7b360e01b845230600485015260248401525af18015610ed457600092849261112d92611153575b50600c54338086526002855260408087205490516323b872dd60e01b815230600482015260248101929092526044820152948593929091169183919082906064820190565b03925af18015610ed45761113d57005b8161089792903d10610ecd57610ebe818361383c565b61116990843d8611610ecd57610ebe818361383c565b50856110e8565b6084906040519062461bcd60e51b82526004820152603660248201527f596f752063616e27742072656465656d20746f6b656e73207768696c65206f6e60448201527f676f696e672061756374696f6e732070657273697374000000000000000000006064820152fd5b34610234576040366003190112610234576001600160401b036004358181116102345761120b90369060040161369d565b9160243581811161023457611224903690600401613b1e565b9260405190808483378082019361124f61088d61087c8560019889815260209788910301902061385d565b6001600160a01b0360076040518484823785818681018a8152030190200154163314806113d2575b15611367579082600a9282604051938492833781018781520301902001938051928311611351576112b2836112ac87546137e6565b87613c32565b81601f84116001146112ee57509282939183926000946112e3575b50501b916000199060031b1c1916179055600080f35b0151925085806112cd565b919083601f1981168760005284600020946000905b88838310611337575050501061131e575b505050811b019055005b015160001960f88460031b161c19169055838080611314565b858701518855909601959485019487935090810190611303565b634e487b7160e01b600052604160045260246000fd5b60405162461bcd60e51b815260048101849052603460248201527f596f7520686176656e277420776f6e207468652061756374696f6e206f72206960448201527f7473207374696c6c20696e2070726f67726573730000000000000000000000006064820152608490fd5b5060ff60096040518484823785818681018a815203019020015416611277565b3461023457602080600319360112610234576001600160a01b0390816114166137b8565b1660005260059081815261142d60406000206142f6565b91611438835161434b565b9360005b84518110156104c857806114566103ae6114fa938861440e565b600d6040519161146583613820565b61146e8161385d565b835261147c6001820161385d565b8884015261148c6002820161385d565b604084015261149d6003820161385d565b60608401528560048201541660808401528681015460a0840152600681015460c08401528560078201541660e08401526008908181015461010085015260ff928184600981940154161515610120870152610458600a820161385d565b61143c565b34610234576020366003190112610234576004356001600160401b0381116102345760206115346115c892369060040161369d565b919061155861088d610a41604051868582378581888101600181520301902061385d565b826040519384928337810160018152030190206001600160a01b03806004830154169060058301549060068401549060078501541660088501549160ff600987015416936115d66115b460016115ad8a61385d565b990161385d565b604051998a99610100808c528b01906136ed565b9089820360208b01526136ed565b9560408801526060870152608086015260a085015260c0840152151560e08301520390f35b34610234576040366003190112610234576004356001600160401b0381116102345761162b90369060040161369d565b6024359160ff9283811680910361023457604051938383863761166e61088d61166387878101600181526020998a910301902061385d565b610887368888613ad8565b336000526004855261168681604060002054166144ae565b80600d604051868682378781888101600181520301902001541660078110156117dc5760046116b5911461450d565b6040518484823785818681016001815203019020916040518585823786818781016007815203019020336000528652816040600020541661178757859392919060010361175557611712600d611727930191825460081c16614565565b61ff0082549160081b169061ff001916179055565b826040519384928337810160078152030190209033600052526040600020600160ff19825416179055600080f35b61176b600d611782930191825460101c16614565565b62ff000082549160101b169062ff00001916179055565b611727565b60405162461bcd60e51b815260048101879052602760248201527f596f75206861766520616c726561647920766f746564206f6e207468697320646044820152666973707574652160c81b6064820152608490fd5b634e487b7160e01b600052602160045260246000fd5b602080600319360112610234576004356001600160401b0381116102345761181e90369060040161369d565b9061184161088d61087c604051858582378681878101600181520301902061385d565b60ff600d60405184848237858186810160018152030190200154169060078210156117dc57611873600485931461450d565b336000526004825261188c60ff604060002054166144ae565b8260405193849283378101600181520301902090600d82019181835460ff808260101c169160081c16101560001461193757600c54600783015460069093015460405163a9059cbb60e01b81526001600160a01b03948516600482015260248101919091529283916044918391600091165af18015610ed457611919575b5050805460ff19166006179055005b8161192f92903d10610ecd57610ebe818361383c565b50818061190a565b600c5460048381015460069094015460405163a9059cbb60e01b81526001600160a01b039586169281019290925260248201529283916044918391600091165af18015610ed457611992575b5050805460ff19166005179055005b816119a892903d10610ecd57610ebe818361383c565b508180611983565b346102345760003660031901126102345760206001600160a01b0360005416604051908152f35b34610234576020366003190112610234576119f0613b62565b600435600b55005b3461023457600036600319011261023457602060ff600c5460e01c16604051908152f35b3461023457602080600319360112610234576004356001600160401b03811161023457611a4e8291369060040161369d565b9190611a7261088d610a41604051868582378581888101600181520301902061385d565b82604051938492833781016001815203019020611ba9604051611a9481613820565b611a9d8361385d565b8152611aab6001840161385d565b84820152611abb6002840161385d565b6040820152611acc6003840161385d565b60608201526001600160a01b0390816004850154169160808201928352600585015460a0830152600685015460c0830152808060078701541660e08401908152600887015461010085015260ff6009880154169361012081019415158552611b36600a890161385d565b6101408201526101e060ff600d611b4f600b8c016142f6565b9a61016085019b8c52611b64600c82016142f6565b6101808601520154611b7c8282166101a08601613d25565b818160081c166101c085015260101c1691015251163314928315611bca575b505081611bbf575b5061425b565b5190610230604051928284938452830190613712565b905051151584611ba3565b5116331491508580611b9b565b346102345760203660031901126102345760043560ff8116810361023457611bfd613b62565b600c805460ff60e01b191660e09290921b60ff60e01b16919091179055005b34610234576020366003190112610234576004356001600160401b038116810361023457611c48613b62565b600c805467ffffffffffffffff60a01b191660a09290921b67ffffffffffffffff60a01b16919091179055005b346102345760003660031901126102345760206001600160401b03600c5460a01c16604051908152f35b346102345760208060031936011261023457600c546040516323b872dd60e01b815233600480830191909152306024830152356044820181905292918290829060649082906000906001600160a01b03165af18015610ed457611eda575b50336000526002815260ff60026040600020015416600014611d35576002903360005252611d316040600020918254613c77565b9055005b60405190916001600160401b039060608301828111848210176113515760405282528282016060815260408301936001918286523360005260028252604060002094518555828501905191825192600160401b84116113515781908354858555808610611ea3575b500191600052806000206000925b848410611dd5575050505050505060026108979251151591019060ff801983541691151516179055565b805190815188811161135157879181611df98793611df388546137e6565b88613c32565b8294601f8211600114611e3d5784958291600092611e32575b5050600019600383901b1c191690841b1785555b01920193019290611dab565b015190508e80611e12565b94601f1982169087600052846000209160005b818110611e8c5750908697848895949310611e73575b505050811b018555611e26565b015160001960f88460031b161c191690558e8080611e66565b8289015184558d978b979401939283019201611e50565b8460005286868460002092830192015b828110611ec1575050611d9d565b9091929350611ecf81613be9565b019086849392611eb3565b611ef090823d8411610ecd57610ebe818361383c565b5082611cfd565b3461023457602080600319360112610234576004356001600160401b03811161023457611f2890369060040161369d565b9091611f5761088d611f4c604051858782378481878101600181520301902061385d565b610887368688613ad8565b604051828482378181848101600181520301902090600d82019182549160ff831660078110156117dc57600381146120fe5760006005821415806120f0575b156120a1576117dc5760041461205e575090611fd46004926001600160a01b039081600782015416331491821561204f575b5081612040575061425b565b60ff191617905560095491600160401b83101561135157600183018060095583101561202a576108979260096000527f6e1540171b6c0c960b71a7020d9f60077f6af931a8bbf590da0223dacf75c7af01613d49565b634e487b7160e01b600052603260045260246000fd5b60ff9150600901541687611ba3565b81860154163314915088611fc8565b6064906040519062461bcd60e51b825280600483015260248201527f546865726520697320616c7265616479206120726973656e20646973707574656044820152fd5b60405162461bcd60e51b815260048101849052602160248201527f446973707574652068617320616c7265616479206265656e207265736f6c76656044820152601960fa1b6064820152608490fd5b505060006006821415611f96565b60405162461bcd60e51b815260048101839052602260248201527f41756374696f6e20686173206265656e20616c72656164792066696e616c697a604482015261195960f21b6064820152608490fd5b3461023457600036600319011261023457612167613b62565b600080546001600160a01b0319811682556001600160a01b03167f8be0079c531659141344cd1fd0a4f28419497f9722a3daafe3b4186f6b6457e08280a3005b34610234576000366003190112610234576020604051428152f35b34610234576020366003190112610234576001600160a01b036121e36137b8565b16600052600260205260406000208054612207600160ff60028501541693016142f6565b916122246040519384938452606060208501526060840190613712565b90151560408301520390f35b34610234576040366003190112610234576004356001600160401b0381116102345761226090369060040161369d565b602435916001600160a01b0383168093036102345760209061229a61088d610a41604051868582378581888101600181520301902061385d565b8260405193849283378101600781520301902090600052602052602060ff604060002054166040519015158152f35b34610234576040366003190112610234576122e26137b8565b6001600160a01b036024359116600052600560205260406000209081548110156102345761230f916137ce565b61231f5761021c6102309161385d565b634e487b7160e01b600052600060045260246000fd5b3461023457610897600b602061234a3661376e565b949261237161088d610a41604097949751868582378581888101600181520301902061385d565b826040519384928337810160018152030190206001600160a01b038060078301541633149081156123c1575b50806123b3575b6123ad9061425b565b01613e0c565b50600981015460ff166123a4565b905060048201541633148661239d565b346102345760a0366003190112610234576004356001600160401b0381116102345761240190369060040161369d565b906024356001600160401b0381116102345761242190369060040161369d565b90926044356001600160401b0381116102345761244290369060040161369d565b906064356001600160401b0381116102345761246290369060040161369d565b90336000526002602052604060002054600b5411612f745733600052600260205260016040600020015491600c549260ff8460e01c161115612f1f573360005260036020526124ba602c610ccb6040600020546137e6565b6124e6604051878a823760208189810160018152030190206108876124e0368a8d613ad8565b9161385d565b612ee45760843515612e8f5761254061250e6001600160401b0361254c9560a01c1642613c77565b946040519661251c88613820565b612527368a8d613ad8565b8852612534368b8e613ad8565b60208901523691613ad8565b60408601523691613ad8565b606083015233608083015260843560a0830152600060c0830152600060e083015261010082015260006101208201526040518060208101106001600160401b036020830111176113515760208101604052600081526101408201526060610160820152606061018082015260006101a082015260006101c082015260006101e082015260405182858237602081848101600181520301902081518051906001600160401b03821161135157819061260d8261260786546137e6565b86613c32565b602090601f8311600114612e2357600092612e18575b50508160011b916000199060031b1c19161781555b60208201518051906001600160401b03821161135157819061266a8261266160018701546137e6565b60018701613c32565b602090601f8311600114612da657600092612d9b575b50508160011b916000199060031b1c19161760018201555b60408201518051906001600160401b0382116113515781906126ca826126c160028701546137e6565b60028701613c32565b602090601f8311600114612d2957600092612d1e575b50508160011b916000199060031b1c19161760028201555b60608201518051906001600160401b03821161135157819061272a8261272160038701546137e6565b60038701613c32565b602090601f8311600114612cac57600092612ca1575b50508160011b916000199060031b1c19161760038201555b600481016001600160a01b039081608085015116906bffffffffffffffffffffffff60a01b918282541617905560a0840151600584015560c08401516006840155600783019160e0850151169082541617905561010082015160088201556127d66101208301511515600983019060ff801983541691151516179055565b6101408201518051906001600160401b03821161135157819061280982612800600a8701546137e6565b600a8701613c32565b602090601f8311600114612c2f57600092612c24575b50508160011b916000199060031b1c191617600a8201555b610160820151805190600160401b821161135157600b83015482600b850155808310612bf1575b5060200190600b83016000526020600020916000905b828210612b145750505050610180820151805190600160401b821161135157600c83015482600c850155808310612ae1575b5060200190600c83016000526020600020916000905b828210612a045750505050600d016101a08201519160078310156117dc576101e060ff916128ed6129209585613d31565b6101c0810151845461ff00191690841660081b61ff00161784550151825462ff00001916911660101b62ff000016179055565b33600052600260205261293b81846001604060002001613e0c565b60085490600160401b82101561135157600182018060085582101561202a57836129b0827f580c79f80d4cb0e438a0d03f153c3dd27d464553dcc2fb869879bc42fd524c3b9660409560086000527ff3f7a9fe364faab93b216da50a3214154f22a0a2b415b23a84c8169e8b636ee301613d49565b3360005260056020526129c7828285600020613e0c565b81835192839283378101600081520390209382825193849260208452816020850152848401376000828201840152601f01601f19168101030190a2005b80518051906001600160401b03821161135157612a2582611df388546137e6565b602090601f8311600114612a71579282600194936020938695600092612a66575b5050600019600383901b1c191690841b1787555b019401910190926128bc565b015190508f80612a46565b908660005260206000209160005b601f1985168110612ac9575083602093600196938796938794601f19811610612ab0575b505050811b018755612a5a565b015160001960f88460031b161c191690558f8080612aa3565b91926020600181928685015181550194019201612a7f565b600c84016000526020600020908382015b8183018110612b025750506128a6565b80612b0e600192613be9565b01612af2565b80518051906001600160401b03821161135157612b3582611df388546137e6565b602090601f8311600114612b81579282600194936020938695600092612b76575b5050600019600383901b1c191690841b1787555b01940191019092612874565b015190508f80612b56565b908660005260206000209160005b601f1985168110612bd9575083602093600196938796938794601f19811610612bc0575b505050811b018755612b6a565b015160001960f88460031b161c191690558f8080612bb3565b91926020600181928685015181550194019201612b8f565b600b84016000526020600020908382015b8183018110612c1257505061285e565b80612c1e600192613be9565b01612c02565b01519050888061281f565b9250600a84016000526020600020906000935b601f1984168510612c86576001945083601f19811610612c6d575b505050811b01600a820155612837565b015160001960f88460031b161c19169055888080612c5d565b81810151835560209485019460019093019290910190612c42565b015190508880612740565b9250600384016000526020600020906000935b601f1984168510612d03576001945083601f19811610612cea575b505050811b016003820155612758565b015160001960f88460031b161c19169055888080612cda565b81810151835560209485019460019093019290910190612cbf565b0151905088806126e0565b9250600284016000526020600020906000935b601f1984168510612d80576001945083601f19811610612d67575b505050811b0160028201556126f8565b015160001960f88460031b161c19169055888080612d57565b81810151835560209485019460019093019290910190612d3c565b015190508880612680565b9250600184016000526020600020906000935b601f1984168510612dfd576001945083601f19811610612de4575b505050811b016001820155612698565b015160001960f88460031b161c19169055888080612dd4565b81810151835560209485019460019093019290910190612db9565b015190508880612623565b9250836000526020600020906000935b601f1984168510612e74576001945083601f19811610612e5b575b505050811b018155612638565b015160001960f88460031b161c19169055888080612e4e565b81810151835560209485019460019093019290910190612e33565b60405162461bcd60e51b815260206004820152602760248201527f52657365727665207072696365206d7573742062652067726561746572207468604482015266616e207a65726f60c81b6064820152608490fd5b60405162461bcd60e51b81526020600482015260136024820152724974656d20616c72656164792065786973747360681b6044820152606490fd5b60405162461bcd60e51b815260206004820152602760248201527f596f752063616e2774206861766520616e79206d6f7265206163746976652061604482015266756374696f6e7360c81b6064820152608490fd5b60405162461bcd60e51b815260206004820152602d60248201527f4e6f7420656e6f75676820746f6b656e73207374616b656420746f206372656160448201526c3a329030b71030bab1ba34b7b760991b6064820152608490fd5b3461023457602080600319360112610234576004356001600160401b038111610234576130018291369060040161369d565b919061302561088d610a41604051868582378581888101600181520301902061385d565b82604051938492833781016001815203019020611ba960405161304781613820565b6130508361385d565b815261305e6001840161385d565b8482015261306e6002840161385d565b604082015261307f6003840161385d565b60608201526001600160a01b0390816004850154169160808201928352600585015460a0830152600685015460c0830152808060078701541660e08401908152600887015461010085015260ff60098801541693610120810194151585526130e9600a890161385d565b6101408201526130fb600b89016142f6565b6101608201526101e060ff600d613114600c8c016142f6565b9a61018085019b8c52015461312f8282166101a08601613d25565b818160081c166101c085015260101c169101525116331492831561317b575b50508115613162575b81611bbf575061425b565b9050336000526004845260ff6040600020541690613157565b511633149150858061314e565b34610234576020366003190112610234576004356001600160401b038111610234576131bb61089791369060040161369d565b903360005260036020526040600020613d49565b3461023457602080600319360112610234576004356001600160401b0381116102345761320090369060040161369d565b9061322361088d61087c604051858582378681878101600181520301902061385d565b6001600160a01b03600460405184848237858186810160018152030190200154163303613280578183600a9261326b946040519384928337810160018152030190200161385d565b906102306040519282849384528301906136ed565b60405162461bcd60e51b815260048101849052602760248201527f4f6e6c792061756374696f6e206f776e65722063616e2063616c6c2074686973604482015266081b595d1a1bd960ca1b6064820152608490fd5b34610234576040366003190112610234576004356001600160401b0381116102345761330590369060040161369d565b90602491823590600782101592836102345781818737818601906001825261333c61088d610a41896020809b81970301902061385d565b826040519384928337810160018152030190209260ff6009850154161561365a57600d84019260ff845416936007851015948561351757600481146135f0576001600160a01b0395866007890154163314918291826135e1575b836135bf575b8315613553575b83156134d5575b50505015613491576133bf600a8701546137e6565b1561344157836133ce91613d31565b61342d57506003146133dc57005b600c5460048381015460069094015460405163a9059cbb60e01b81529484166001600160a01b03169185019190915260248401528391839116816000816044810103925af18015610ed45761113d57005b634e487b7160e01b60009081526021600452fd5b60405162461bcd60e51b8152600481018890526023818501527f506c656173652073657420612064656c697665727920616464726573732066696044820152621c9cdd60ea1b6064820152608490fd5b60405162461bcd60e51b8152600481018890526018818501527f496e76616c6964207374617465207472616e736974696f6e00000000000000006044820152606490fd5b90919250848361352c575b50826134f1575b50508880806133aa565b909150613517576002811490811561350c575b5088806134e7565b600591501488613504565b83634e487b7160e01b60005260216004526000fd5b90925061353e576003861491846134e0565b84634e487b7160e01b60005260216004526000fd5b9250848860048b015416331490816135af575b508381613575575b50926133a3565b905061359a5760018114801561358c575b8361356e565b506000925060058114613586565b85634e487b7160e01b60005260216004526000fd5b905061359a576002871485613566565b5060009250801580156135d3575b9261339c565b5060009250600581146135cd565b60009550600188149350613396565b60405162461bcd60e51b8152600481018990526037818601527f43616e7420726573756d6520657363726f772070726f6365737365732077697460448201527f686f75742064697370757465207265736f6c7574696f6e0000000000000000006064820152608490fd5b8460196064926040519262461bcd60e51b845260048401528201527f41756374696f6e20686173206e6f7420656e64656420796574000000000000006044820152fd5b9181601f84011215610234578235916001600160401b038311610234576020838186019501011161023457565b60005b8381106136dd5750506000910152565b81810151838201526020016136cd565b90602091613706815180928185528580860191016136ca565b601f01601f1916010190565b908082519081815260208091019281808460051b8301019501936000915b8483106137405750505050505090565b909192939495848061375e600193601f198682030187528a516136ed565b9801930193019194939290613730565b6040600319820112610234576001600160401b0391600435838111610234578261379a9160040161369d565b93909392602435918211610234576137b49160040161369d565b9091565b600435906001600160a01b038216820361023457565b805482101561202a5760005260206000200190600090565b90600182811c92168015613816575b602083101461380057565b634e487b7160e01b600052602260045260246000fd5b91607f16916137f5565b61020081019081106001600160401b0382111761135157604052565b90601f801991011681019081106001600160401b0382111761135157604052565b9060405191826000825492613871846137e6565b9081845260019485811690816000146138e0575060011461389d575b505061389b9250038361383c565b565b9093915060005260209081600020936000915b8183106138c857505061389b9350820101388061388d565b855488840185015294850194879450918301916138b0565b91505061389b94506020925060ff191682840152151560051b820101388061388d565b90808183519182825260208080809401958560051b01019501936000915b8483106139315750505050505090565b909192939495848061394f600193601f198682030187528a516136ed565b9801930193019194939290613921565b9060078210156117dc5752565b602080820190808352835180925260409283810182858560051b8401019601946000925b8584106139a1575050505050505090565b909192939495968580600192603f198582030187528a5190613a99613a85613a71613a116139fe6139ee6139de8851610200808a528901906136ed565b898901518882038b8a01526136ed565b878d0151878203888f01526136ed565b60608088015190878303908801526136ed565b6001600160a01b0360808181890151169087015260a0808801519087015260c0808801519087015260e0908188015116908601526101008087015190860152610120808701511515908601526101408087015190868303908701526136ed565b610160808601519085830390860152613903565b610180808501519084830390850152613903565b91613aad6101a0808301519084019061395f565b60ff6101c0818184015116908401526101e08092015116910152990194019401929594939190613990565b9291926001600160401b0382116113515760405191613b01601f8201601f19166020018461383c565b829481845281830111610234578281602093846000960137010152565b9080601f8301121561023457816020613b3993359101613ad8565b90565b6020613b559181604051938285809451938492016136ca565b8101600181520301902090565b6001600160a01b03600054163303613b7657565b606460405162461bcd60e51b815260206004820152602060248201527f4f776e61626c653a2063616c6c6572206973206e6f7420746865206f776e65726044820152fd5b90816020910312610234575180151581036102345790565b818110613bdd575050565b60008155600101613bd2565b613bf381546137e6565b9081613bfd575050565b81601f60009311600114613c0f575055565b908083918252613c2e601f60208420940160051c840160018501613bd2565b5555565b9190601f8111613c4157505050565b61389b926000526020600020906020601f840160051c83019310613c6d575b601f0160051c0190613bd2565b9091508190613c60565b91908201809211613c8457565b634e487b7160e01b600052601160045260246000fd5b15613ca157565b60405162461bcd60e51b815260206004820152603c60248201527f506c65617365207375626d697420796f7572206574682077616c6c657420707560448201527f626b6579206265666f7265207573696e67207468652073797374656d000000006064820152608490fd5b6020919283604051948593843782019081520301902090565b60078210156117dc5752565b9060078110156117dc5760ff80198354169116179055565b9092916001600160401b03811161135157613d6e81613d6884546137e6565b84613c32565b6000601f8211600114613da85781929394600092613d9d575b50508160011b916000199060031b1c1916179055565b013590503880613d87565b601f198216948382526020918281209281905b888210613df457505083600195969710613dda575b505050811b019055565b0135600019600384901b60f8161c19169055388080613dd0565b80600184968294958701358155019501920190613dbb565b9190918054600160401b81101561135157613e2c916001820181556137ce565b92909261231f5761389b92613d49565b15613e4357565b60405162461bcd60e51b8152602060048201526013602482015272125d195b48191bd95cc81b9bdd08195e1a5cdd606a1b6044820152606490fd5b91908203918211613c8457565b6000198114613c845760010190565b90808214613f6c57613eac81546137e6565b906001600160401b038211611351578190613ecb8261260786546137e6565b600090601f8311600114613f0157600092613ef65750508160011b916000199060031b1c1916179055565b015490503880613d87565b81526020808220858352818320935090601f1985169083905b828210613f53575050908460019594939210613f3a57505050811b019055565b015460001960f88460031b161c19169055388080613dd0565b8495819295850154815560018091019601940190613f1a565b5050565b9160405192828185378284018460019182815260209687910301902091600983019485549660ff881661421757600885015442106141d3576001600160a01b039660049780898801541633149081156141c3575b50156141595784809960ff999798991916179055600091338352600282528460408420019383995b614006575b50505050505050600691925001541561389b57565b849897969854998a81101561414f57869798999a614031614028368686613ad8565b6108878c61385d565b614046575061403f90613e8b565b9996613fec565b93949596509150506000199182810190811161413c5761406961407191876137ce565b5091866137ce565b61412a579061407f91613e9a565b8354801561411757019361409385856137ce565b9190916141055760069798506140a982546137e6565b90816140c3575b5050505050558291388080808080613ff1565b8490601f8084116001146140e357505050509050555b38808080806140b0565b84939583956140fe94528520950160051c8501908501613bd2565b55556140d9565b634e487b7160e01b8452838952602484fd5b634e487b7160e01b845260318952602484fd5b634e487b7160e01b8552848a52602485fd5b634e487b7160e01b855260118a52602485fd5b5086979850613ff1565b60405162461bcd60e51b8152808901839052603560248201527f4f6e6c79207468652073656c6c6572206f72206869676865737420626964646560448201527f722063616e20656e64207468652061756374696f6e00000000000000000000006064820152608490fd5b9050600787015416331438613fc4565b6064906040519062461bcd60e51b82526004820152601960248201527f41756374696f6e20686173206e6f742079657420656e646564000000000000006044820152fd5b6064906040519062461bcd60e51b82526004820152601960248201527f41756374696f6e2068617320616c726561647920656e646564000000000000006044820152fd5b1561426257565b60405162461bcd60e51b815260206004820152604960248201527f41756374696f6e20686173206e6f7420656e646564207965742c206f7220796f60448201527f7520617265206e6f74207468652077696e6e6572206f72206f776e6572206f6660648201526820746865206974656d60b81b608482015260a490fd5b6001600160401b0381116113515760051b60200190565b908154614302816142df565b92614310604051948561383c565b818452600090815260208082208186015b84841061432f575050505050565b600183819261433d8561385d565b815201920193019290614321565b90614355826142df565b6040906143648251918261383c565b8381528093614375601f19916142df565b019160005b8381106143875750505050565b602090825161439581613820565b6060808252839080828401528086840152808084015260006080840152600060a0840152600060c0840152600060e084015260006101008401526000610120840152806101408401528061016084015261018083015260006101a083015260006101c083015260006101e083015282860101520161437a565b805182101561202a5760209160051b010190565b60405190816000825492614435846137e6565b906001948581169081600014614496575060011461445c575b505060209281520301902090565b60009081526020808220959350905b82811061448257505060209350820190923861444e565b85548782015294830194869450810161446b565b60ff191685525050801515028201905060203861444e565b156144b557565b60405162461bcd60e51b815260206004820152602a60248201527f596f7520617265206e6f7420616e20617574686f72697a656420636f6d6d69746044820152693a32b29036b2b6b132b960b11b6064820152608490fd5b1561451457565b60405162461bcd60e51b815260206004820152602360248201527f546869732061756374696f6e20646f65736e277420686176652061206469737060448201526275746560e81b6064820152608490fd5b60ff1660ff8114613c845760010190565b90604051916020926145a484828161459781830196878151938492016136ca565b810103808452018261383c565b519020916145c460405191828161459781830196878151938492016136ca565b519020149056fea2646970667358221220c3828dba8a0138d9a383dfc3ae31917aba68f4be65e2ad9155b5d2662ab888d564736f6c63430008130033",
  "devdoc": {
    "kind": "dev",
    "methods": {
      "owner()": {
        "details": "Returns the address of the current owner."
      },
      "renounceOwnership()": {
        "details": "Leaves the contract without owner. It will not be possible to call `onlyOwner` functions. Can only be called by the current owner. NOTE: Renouncing ownership will leave the contract without an owner, thereby disabling any functionality that is only available to the owner."
      },
      "transferOwnership(address)": {
        "details": "Transfers ownership of the contract to a new account (`newOwner`). Can only be called by the current owner."
      }
    },
    "version": 1
  },
  "userdoc": {
    "kind": "user",
    "methods": {},
    "version": 1
  },
  "storageLayout": {
    "storage": [
      {
        "astId": 7,
        "contract": "contracts/Auction.sol:Auction",
        "label": "_owner",
        "offset": 0,
        "slot": "0",
        "type": "t_address"
      },
      {
        "astId": 5680,
        "contract": "contracts/Auction.sol:Auction",
        "label": "auctionItems",
        "offset": 0,
        "slot": "1",
        "type": "t_mapping(t_string_memory_ptr,t_struct(AuctionItem)5654_storage)"
      },
      {
        "astId": 5685,
        "contract": "contracts/Auction.sol:Auction",
        "label": "activeAuctionOwners",
        "offset": 0,
        "slot": "2",
        "type": "t_mapping(t_address,t_struct(ActiveAuctioneer)5662_storage)"
      },
      {
        "astId": 5689,
        "contract": "contracts/Auction.sol:Auction",
        "label": "pubKeys",
        "offset": 0,
        "slot": "3",
        "type": "t_mapping(t_address,t_string_storage)"
      },
      {
        "astId": 5693,
        "contract": "contracts/Auction.sol:Auction",
        "label": "isCommitteeMember",
        "offset": 0,
        "slot": "4",
        "type": "t_mapping(t_address,t_bool)"
      },
      {
        "astId": 5698,
        "contract": "contracts/Auction.sol:Auction",
        "label": "ownerAuctions",
        "offset": 0,
        "slot": "5",
        "type": "t_mapping(t_address,t_array(t_string_storage)dyn_storage)"
      },
      {
        "astId": 5703,
        "contract": "contracts/Auction.sol:Auction",
        "label": "userBidsMapping",
        "offset": 0,
        "slot": "6",
        "type": "t_mapping(t_address,t_struct(UserBids)5670_storage)"
      },
      {
        "astId": 5708,
        "contract": "contracts/Auction.sol:Auction",
        "label": "voteRecords",
        "offset": 0,
        "slot": "7",
        "type": "t_mapping(t_string_memory_ptr,t_struct(VoteRecord)5675_storage)"
      },
      {
        "astId": 5711,
        "contract": "contracts/Auction.sol:Auction",
        "label": "auctionArr",
        "offset": 0,
        "slot": "8",
        "type": "t_array(t_string_storage)dyn_storage"
      },
      {
        "astId": 5714,
        "contract": "contracts/Auction.sol:Auction",
        "label": "disputeArr",
        "offset": 0,
        "slot": "9",
        "type": "t_array(t_string_storage)dyn_storage"
      },
      {
        "astId": 5717,
        "contract": "contracts/Auction.sol:Auction",
        "label": "committeeMembers",
        "offset": 0,
        "slot": "10",
        "type": "t_array(t_address)dyn_storage"
      },
      {
        "astId": 5725,
        "contract": "contracts/Auction.sol:Auction",
        "label": "tokensToStake",
        "offset": 0,
        "slot": "11",
        "type": "t_uint256"
      },
      {
        "astId": 5728,
        "contract": "contracts/Auction.sol:Auction",
        "label": "token",
        "offset": 0,
        "slot": "12",
        "type": "t_contract(ObscurityToken)7502"
      },
      {
        "astId": 5733,
        "contract": "contracts/Auction.sol:Auction",
        "label": "auctionDuration",
        "offset": 20,
        "slot": "12",
        "type": "t_uint64"
      },
      {
        "astId": 5736,
        "contract": "contracts/Auction.sol:Auction",
        "label": "concurrentAuctionsPerUser",
        "offset": 28,
        "slot": "12",
        "type": "t_uint8"
      }
    ],
    "types": {
      "t_address": {
        "encoding": "inplace",
        "label": "address",
        "numberOfBytes": "20"
      },
      "t_address_payable": {
        "encoding": "inplace",
        "label": "address payable",
        "numberOfBytes": "20"
      },
      "t_array(t_address)dyn_storage": {
        "base": "t_address",
        "encoding": "dynamic_array",
        "label": "address[]",
        "numberOfBytes": "32"
      },
      "t_array(t_string_storage)dyn_storage": {
        "base": "t_string_storage",
        "encoding": "dynamic_array",
        "label": "string[]",
        "numberOfBytes": "32"
      },
      "t_bool": {
        "encoding": "inplace",
        "label": "bool",
        "numberOfBytes": "1"
      },
      "t_contract(ObscurityToken)7502": {
        "encoding": "inplace",
        "label": "contract ObscurityToken",
        "numberOfBytes": "20"
      },
      "t_enum(EscrowState)5618": {
        "encoding": "inplace",
        "label": "enum Auction.EscrowState",
        "numberOfBytes": "1"
      },
      "t_mapping(t_address,t_array(t_string_storage)dyn_storage)": {
        "encoding": "mapping",
        "key": "t_address",
        "label": "mapping(address => string[])",
        "numberOfBytes": "32",
        "value": "t_array(t_string_storage)dyn_storage"
      },
      "t_mapping(t_address,t_bool)": {
        "encoding": "mapping",
        "key": "t_address",
        "label": "mapping(address => bool)",
        "numberOfBytes": "32",
        "value": "t_bool"
      },
      "t_mapping(t_address,t_string_storage)": {
        "encoding": "mapping",
        "key": "t_address",
        "label": "mapping(address => string)",
        "numberOfBytes": "32",
        "value": "t_string_storage"
      },
      "t_mapping(t_address,t_struct(ActiveAuctioneer)5662_storage)": {
        "encoding": "mapping",
        "key": "t_address",
        "label": "mapping(address => struct Auction.ActiveAuctioneer)",
        "numberOfBytes": "32",
        "value": "t_struct(ActiveAuctioneer)5662_storage"
      },
      "t_mapping(t_address,t_struct(UserBids)5670_storage)": {
        "encoding": "mapping",
        "key": "t_address",
        "label": "mapping(address => struct Auction.UserBids)",
        "numberOfBytes": "32",
        "value": "t_struct(UserBids)5670_storage"
      },
      "t_mapping(t_string_memory_ptr,t_bool)": {
        "encoding": "mapping",
        "key": "t_string_memory_ptr",
        "label": "mapping(string => bool)",
        "numberOfBytes": "32",
        "value": "t_bool"
      },
      "t_mapping(t_string_memory_ptr,t_struct(AuctionItem)5654_storage)": {
        "encoding": "mapping",
        "key": "t_string_memory_ptr",
        "label": "mapping(string => struct Auction.AuctionItem)",
        "numberOfBytes": "32",
        "value": "t_struct(AuctionItem)5654_storage"
      },
      "t_mapping(t_string_memory_ptr,t_struct(VoteRecord)5675_storage)": {
        "encoding": "mapping",
        "key": "t_string_memory_ptr",
        "label": "mapping(string => struct Auction.VoteRecord)",
        "numberOfBytes": "32",
        "value": "t_struct(VoteRecord)5675_storage"
      },
      "t_string_memory_ptr": {
        "encoding": "bytes",
        "label": "string",
        "numberOfBytes": "32"
      },
      "t_string_storage": {
        "encoding": "bytes",
        "label": "string",
        "numberOfBytes": "32"
      },
      "t_struct(ActiveAuctioneer)5662_storage": {
        "encoding": "inplace",
        "label": "struct Auction.ActiveAuctioneer",
        "members": [
          {
            "astId": 5656,
            "contract": "contracts/Auction.sol:Auction",
            "label": "stakedAmount",
            "offset": 0,
            "slot": "0",
            "type": "t_uint256"
          },
          {
            "astId": 5659,
            "contract": "contracts/Auction.sol:Auction",
            "label": "activeAuctions",
            "offset": 0,
            "slot": "1",
            "type": "t_array(t_string_storage)dyn_storage"
          },
          {
            "astId": 5661,
            "contract": "contracts/Auction.sol:Auction",
            "label": "isInitialized",
            "offset": 0,
            "slot": "2",
            "type": "t_bool"
          }
        ],
        "numberOfBytes": "96"
      },
      "t_struct(AuctionItem)5654_storage": {
        "encoding": "inplace",
        "label": "struct Auction.AuctionItem",
        "members": [
          {
            "astId": 5620,
            "contract": "contracts/Auction.sol:Auction",
            "label": "itemId",
            "offset": 0,
            "slot": "0",
            "type": "t_string_storage"
          },
          {
            "astId": 5622,
            "contract": "contracts/Auction.sol:Auction",
            "label": "itemName",
            "offset": 0,
            "slot": "1",
            "type": "t_string_storage"
          },
          {
            "astId": 5624,
            "contract": "contracts/Auction.sol:Auction",
            "label": "itemDescription",
            "offset": 0,
            "slot": "2",
            "type": "t_string_storage"
          },
          {
            "astId": 5626,
            "contract": "contracts/Auction.sol:Auction",
            "label": "hashOfImage",
            "offset": 0,
            "slot": "3",
            "type": "t_string_storage"
          },
          {
            "astId": 5628,
            "contract": "contracts/Auction.sol:Auction",
            "label": "seller",
            "offset": 0,
            "slot": "4",
            "type": "t_address_payable"
          },
          {
            "astId": 5630,
            "contract": "contracts/Auction.sol:Auction",
            "label": "reservePrice",
            "offset": 0,
            "slot": "5",
            "type": "t_uint256"
          },
          {
            "astId": 5632,
            "contract": "contracts/Auction.sol:Auction",
            "label": "highestBid",
            "offset": 0,
            "slot": "6",
            "type": "t_uint256"
          },
          {
            "astId": 5634,
            "contract": "contracts/Auction.sol:Auction",
            "label": "highestBidder",
            "offset": 0,
            "slot": "7",
            "type": "t_address_payable"
          },
          {
            "astId": 5636,
            "contract": "contracts/Auction.sol:Auction",
            "label": "auctionEndTime",
            "offset": 0,
            "slot": "8",
            "type": "t_uint256"
          },
          {
            "astId": 5638,
            "contract": "contracts/Auction.sol:Auction",
            "label": "ended",
            "offset": 0,
            "slot": "9",
            "type": "t_bool"
          },
          {
            "astId": 5640,
            "contract": "contracts/Auction.sol:Auction",
            "label": "deliveryAddress",
            "offset": 0,
            "slot": "10",
            "type": "t_string_storage"
          },
          {
            "astId": 5643,
            "contract": "contracts/Auction.sol:Auction",
            "label": "privateChatLogs",
            "offset": 0,
            "slot": "11",
            "type": "t_array(t_string_storage)dyn_storage"
          },
          {
            "astId": 5646,
            "contract": "contracts/Auction.sol:Auction",
            "label": "committeeChatLogs",
            "offset": 0,
            "slot": "12",
            "type": "t_array(t_string_storage)dyn_storage"
          },
          {
            "astId": 5649,
            "contract": "contracts/Auction.sol:Auction",
            "label": "escrowState",
            "offset": 0,
            "slot": "13",
            "type": "t_enum(EscrowState)5618"
          },
          {
            "astId": 5651,
            "contract": "contracts/Auction.sol:Auction",
            "label": "yesVotes",
            "offset": 1,
            "slot": "13",
            "type": "t_uint8"
          },
          {
            "astId": 5653,
            "contract": "contracts/Auction.sol:Auction",
            "label": "noVotes",
            "offset": 2,
            "slot": "13",
            "type": "t_uint8"
          }
        ],
        "numberOfBytes": "448"
      },
      "t_struct(UserBids)5670_storage": {
        "encoding": "inplace",
        "label": "struct Auction.UserBids",
        "members": [
          {
            "astId": 5665,
            "contract": "contracts/Auction.sol:Auction",
            "label": "auctionIds",
            "offset": 0,
            "slot": "0",
            "type": "t_array(t_string_storage)dyn_storage"
          },
          {
            "astId": 5669,
            "contract": "contracts/Auction.sol:Auction",
            "label": "auctionExists",
            "offset": 0,
            "slot": "1",
            "type": "t_mapping(t_string_memory_ptr,t_bool)"
          }
        ],
        "numberOfBytes": "64"
      },
      "t_struct(VoteRecord)5675_storage": {
        "encoding": "inplace",
        "label": "struct Auction.VoteRecord",
        "members": [
          {
            "astId": 5674,
            "contract": "contracts/Auction.sol:Auction",
            "label": "addressHasVoted",
            "offset": 0,
            "slot": "0",
            "type": "t_mapping(t_address,t_bool)"
          }
        ],
        "numberOfBytes": "32"
      },
      "t_uint256": {
        "encoding": "inplace",
        "label": "uint256",
        "numberOfBytes": "32"
      },
      "t_uint64": {
        "encoding": "inplace",
        "label": "uint64",
        "numberOfBytes": "8"
      },
      "t_uint8": {
        "encoding": "inplace",
        "label": "uint8",
        "numberOfBytes": "1"
      }
    }
  }
}