{
  "address": "0x5FC8d32690cc91D4c39d9d3abcBD16989F875707",
  "abi": [
    {
      "inputs": [
        {
          "internalType": "contract ObscurityToken",
          "name": "_token",
          "type": "address"
        },
        {
          "internalType": "contract TimelockController",
          "name": "_timelock",
          "type": "address"
        },
        {
          "internalType": "uint256",
          "name": "_quorumPercentage",
          "type": "uint256"
        },
        {
          "internalType": "uint256",
          "name": "_votingPeriod",
          "type": "uint256"
        },
        {
          "internalType": "uint256",
          "name": "_votingDelay",
          "type": "uint256"
        }
      ],
      "stateMutability": "nonpayable",
      "type": "constructor"
    },
    {
      "inputs": [],
      "name": "Empty",
      "type": "error"
    },
    {
      "inputs": [],
      "name": "InvalidShortString",
      "type": "error"
    },
    {
      "inputs": [
        {
          "internalType": "string",
          "name": "str",
          "type": "string"
        }
      ],
      "name": "StringTooLong",
      "type": "error"
    },
    {
      "anonymous": false,
      "inputs": [],
      "name": "EIP712DomainChanged",
      "type": "event"
    },
    {
      "anonymous": false,
      "inputs": [
        {
          "indexed": false,
          "internalType": "uint256",
          "name": "proposalId",
          "type": "uint256"
        }
      ],
      "name": "ProposalCanceled",
      "type": "event"
    },
    {
      "anonymous": false,
      "inputs": [
        {
          "indexed": false,
          "internalType": "uint256",
          "name": "proposalId",
          "type": "uint256"
        },
        {
          "indexed": false,
          "internalType": "address",
          "name": "proposer",
          "type": "address"
        },
        {
          "indexed": false,
          "internalType": "address[]",
          "name": "targets",
          "type": "address[]"
        },
        {
          "indexed": false,
          "internalType": "uint256[]",
          "name": "values",
          "type": "uint256[]"
        },
        {
          "indexed": false,
          "internalType": "string[]",
          "name": "signatures",
          "type": "string[]"
        },
        {
          "indexed": false,
          "internalType": "bytes[]",
          "name": "calldatas",
          "type": "bytes[]"
        },
        {
          "indexed": false,
          "internalType": "uint256",
          "name": "voteStart",
          "type": "uint256"
        },
        {
          "indexed": false,
          "internalType": "uint256",
          "name": "voteEnd",
          "type": "uint256"
        },
        {
          "indexed": false,
          "internalType": "string",
          "name": "description",
          "type": "string"
        }
      ],
      "name": "ProposalCreated",
      "type": "event"
    },
    {
      "anonymous": false,
      "inputs": [
        {
          "indexed": false,
          "internalType": "uint256",
          "name": "proposalId",
          "type": "uint256"
        }
      ],
      "name": "ProposalExecuted",
      "type": "event"
    },
    {
      "anonymous": false,
      "inputs": [
        {
          "indexed": false,
          "internalType": "uint256",
          "name": "proposalId",
          "type": "uint256"
        },
        {
          "indexed": false,
          "internalType": "uint256",
          "name": "eta",
          "type": "uint256"
        }
      ],
      "name": "ProposalQueued",
      "type": "event"
    },
    {
      "anonymous": false,
      "inputs": [
        {
          "indexed": false,
          "internalType": "uint256",
          "name": "oldProposalThreshold",
          "type": "uint256"
        },
        {
          "indexed": false,
          "internalType": "uint256",
          "name": "newProposalThreshold",
          "type": "uint256"
        }
      ],
      "name": "ProposalThresholdSet",
      "type": "event"
    },
    {
      "anonymous": false,
      "inputs": [
        {
          "indexed": false,
          "internalType": "uint256",
          "name": "oldQuorumNumerator",
          "type": "uint256"
        },
        {
          "indexed": false,
          "internalType": "uint256",
          "name": "newQuorumNumerator",
          "type": "uint256"
        }
      ],
      "name": "QuorumNumeratorUpdated",
      "type": "event"
    },
    {
      "anonymous": false,
      "inputs": [
        {
          "indexed": false,
          "internalType": "address",
          "name": "oldTimelock",
          "type": "address"
        },
        {
          "indexed": false,
          "internalType": "address",
          "name": "newTimelock",
          "type": "address"
        }
      ],
      "name": "TimelockChange",
      "type": "event"
    },
    {
      "anonymous": false,
      "inputs": [
        {
          "indexed": true,
          "internalType": "address",
          "name": "voter",
          "type": "address"
        },
        {
          "indexed": false,
          "internalType": "uint256",
          "name": "proposalId",
          "type": "uint256"
        },
        {
          "indexed": false,
          "internalType": "uint8",
          "name": "support",
          "type": "uint8"
        },
        {
          "indexed": false,
          "internalType": "uint256",
          "name": "weight",
          "type": "uint256"
        },
        {
          "indexed": false,
          "internalType": "string",
          "name": "reason",
          "type": "string"
        }
      ],
      "name": "VoteCast",
      "type": "event"
    },
    {
      "anonymous": false,
      "inputs": [
        {
          "indexed": true,
          "internalType": "address",
          "name": "voter",
          "type": "address"
        },
        {
          "indexed": false,
          "internalType": "uint256",
          "name": "proposalId",
          "type": "uint256"
        },
        {
          "indexed": false,
          "internalType": "uint8",
          "name": "support",
          "type": "uint8"
        },
        {
          "indexed": false,
          "internalType": "uint256",
          "name": "weight",
          "type": "uint256"
        },
        {
          "indexed": false,
          "internalType": "string",
          "name": "reason",
          "type": "string"
        },
        {
          "indexed": false,
          "internalType": "bytes",
          "name": "params",
          "type": "bytes"
        }
      ],
      "name": "VoteCastWithParams",
      "type": "event"
    },
    {
      "anonymous": false,
      "inputs": [
        {
          "indexed": false,
          "internalType": "uint256",
          "name": "oldVotingDelay",
          "type": "uint256"
        },
        {
          "indexed": false,
          "internalType": "uint256",
          "name": "newVotingDelay",
          "type": "uint256"
        }
      ],
      "name": "VotingDelaySet",
      "type": "event"
    },
    {
      "anonymous": false,
      "inputs": [
        {
          "indexed": false,
          "internalType": "uint256",
          "name": "oldVotingPeriod",
          "type": "uint256"
        },
        {
          "indexed": false,
          "internalType": "uint256",
          "name": "newVotingPeriod",
          "type": "uint256"
        }
      ],
      "name": "VotingPeriodSet",
      "type": "event"
    },
    {
      "inputs": [],
      "name": "BALLOT_TYPEHASH",
      "outputs": [
        {
          "internalType": "bytes32",
          "name": "",
          "type": "bytes32"
        }
      ],
      "stateMutability": "view",
      "type": "function"
    },
    {
      "inputs": [],
      "name": "CLOCK_MODE",
      "outputs": [
        {
          "internalType": "string",
          "name": "",
          "type": "string"
        }
      ],
      "stateMutability": "view",
      "type": "function"
    },
    {
      "inputs": [],
      "name": "COUNTING_MODE",
      "outputs": [
        {
          "internalType": "string",
          "name": "",
          "type": "string"
        }
      ],
      "stateMutability": "pure",
      "type": "function"
    },
    {
      "inputs": [],
      "name": "EXTENDED_BALLOT_TYPEHASH",
      "outputs": [
        {
          "internalType": "bytes32",
          "name": "",
          "type": "bytes32"
        }
      ],
      "stateMutability": "view",
      "type": "function"
    },
    {
      "inputs": [
        {
          "internalType": "address[]",
          "name": "targets",
          "type": "address[]"
        },
        {
          "internalType": "uint256[]",
          "name": "values",
          "type": "uint256[]"
        },
        {
          "internalType": "bytes[]",
          "name": "calldatas",
          "type": "bytes[]"
        },
        {
          "internalType": "bytes32",
          "name": "descriptionHash",
          "type": "bytes32"
        }
      ],
      "name": "cancel",
      "outputs": [
        {
          "internalType": "uint256",
          "name": "",
          "type": "uint256"
        }
      ],
      "stateMutability": "nonpayable",
      "type": "function"
    },
    {
      "inputs": [
        {
          "internalType": "uint256",
          "name": "proposalId",
          "type": "uint256"
        },
        {
          "internalType": "uint8",
          "name": "support",
          "type": "uint8"
        }
      ],
      "name": "castVote",
      "outputs": [
        {
          "internalType": "uint256",
          "name": "",
          "type": "uint256"
        }
      ],
      "stateMutability": "nonpayable",
      "type": "function"
    },
    {
      "inputs": [
        {
          "internalType": "uint256",
          "name": "proposalId",
          "type": "uint256"
        },
        {
          "internalType": "uint8",
          "name": "support",
          "type": "uint8"
        },
        {
          "internalType": "uint8",
          "name": "v",
          "type": "uint8"
        },
        {
          "internalType": "bytes32",
          "name": "r",
          "type": "bytes32"
        },
        {
          "internalType": "bytes32",
          "name": "s",
          "type": "bytes32"
        }
      ],
      "name": "castVoteBySig",
      "outputs": [
        {
          "internalType": "uint256",
          "name": "",
          "type": "uint256"
        }
      ],
      "stateMutability": "nonpayable",
      "type": "function"
    },
    {
      "inputs": [
        {
          "internalType": "uint256",
          "name": "proposalId",
          "type": "uint256"
        },
        {
          "internalType": "uint8",
          "name": "support",
          "type": "uint8"
        },
        {
          "internalType": "string",
          "name": "reason",
          "type": "string"
        }
      ],
      "name": "castVoteWithReason",
      "outputs": [
        {
          "internalType": "uint256",
          "name": "",
          "type": "uint256"
        }
      ],
      "stateMutability": "nonpayable",
      "type": "function"
    },
    {
      "inputs": [
        {
          "internalType": "uint256",
          "name": "proposalId",
          "type": "uint256"
        },
        {
          "internalType": "uint8",
          "name": "support",
          "type": "uint8"
        },
        {
          "internalType": "string",
          "name": "reason",
          "type": "string"
        },
        {
          "internalType": "bytes",
          "name": "params",
          "type": "bytes"
        }
      ],
      "name": "castVoteWithReasonAndParams",
      "outputs": [
        {
          "internalType": "uint256",
          "name": "",
          "type": "uint256"
        }
      ],
      "stateMutability": "nonpayable",
      "type": "function"
    },
    {
      "inputs": [
        {
          "internalType": "uint256",
          "name": "proposalId",
          "type": "uint256"
        },
        {
          "internalType": "uint8",
          "name": "support",
          "type": "uint8"
        },
        {
          "internalType": "string",
          "name": "reason",
          "type": "string"
        },
        {
          "internalType": "bytes",
          "name": "params",
          "type": "bytes"
        },
        {
          "internalType": "uint8",
          "name": "v",
          "type": "uint8"
        },
        {
          "internalType": "bytes32",
          "name": "r",
          "type": "bytes32"
        },
        {
          "internalType": "bytes32",
          "name": "s",
          "type": "bytes32"
        }
      ],
      "name": "castVoteWithReasonAndParamsBySig",
      "outputs": [
        {
          "internalType": "uint256",
          "name": "",
          "type": "uint256"
        }
      ],
      "stateMutability": "nonpayable",
      "type": "function"
    },
    {
      "inputs": [],
      "name": "clock",
      "outputs": [
        {
          "internalType": "uint48",
          "name": "",
          "type": "uint48"
        }
      ],
      "stateMutability": "view",
      "type": "function"
    },
    {
      "inputs": [],
      "name": "eip712Domain",
      "outputs": [
        {
          "internalType": "bytes1",
          "name": "fields",
          "type": "bytes1"
        },
        {
          "internalType": "string",
          "name": "name",
          "type": "string"
        },
        {
          "internalType": "string",
          "name": "version",
          "type": "string"
        },
        {
          "internalType": "uint256",
          "name": "chainId",
          "type": "uint256"
        },
        {
          "internalType": "address",
          "name": "verifyingContract",
          "type": "address"
        },
        {
          "internalType": "bytes32",
          "name": "salt",
          "type": "bytes32"
        },
        {
          "internalType": "uint256[]",
          "name": "extensions",
          "type": "uint256[]"
        }
      ],
      "stateMutability": "view",
      "type": "function"
    },
    {
      "inputs": [
        {
          "internalType": "address[]",
          "name": "targets",
          "type": "address[]"
        },
        {
          "internalType": "uint256[]",
          "name": "values",
          "type": "uint256[]"
        },
        {
          "internalType": "bytes[]",
          "name": "calldatas",
          "type": "bytes[]"
        },
        {
          "internalType": "bytes32",
          "name": "descriptionHash",
          "type": "bytes32"
        }
      ],
      "name": "execute",
      "outputs": [
        {
          "internalType": "uint256",
          "name": "",
          "type": "uint256"
        }
      ],
      "stateMutability": "payable",
      "type": "function"
    },
    {
      "inputs": [
        {
          "internalType": "address",
          "name": "account",
          "type": "address"
        },
        {
          "internalType": "uint256",
          "name": "blockNumber",
          "type": "uint256"
        }
      ],
      "name": "getVotes",
      "outputs": [
        {
          "internalType": "uint256",
          "name": "",
          "type": "uint256"
        }
      ],
      "stateMutability": "view",
      "type": "function"
    },
    {
      "inputs": [
        {
          "internalType": "address",
          "name": "account",
          "type": "address"
        },
        {
          "internalType": "uint256",
          "name": "timepoint",
          "type": "uint256"
        },
        {
          "internalType": "bytes",
          "name": "params",
          "type": "bytes"
        }
      ],
      "name": "getVotesWithParams",
      "outputs": [
        {
          "internalType": "uint256",
          "name": "",
          "type": "uint256"
        }
      ],
      "stateMutability": "view",
      "type": "function"
    },
    {
      "inputs": [
        {
          "internalType": "uint256",
          "name": "proposalId",
          "type": "uint256"
        },
        {
          "internalType": "address",
          "name": "account",
          "type": "address"
        }
      ],
      "name": "hasVoted",
      "outputs": [
        {
          "internalType": "bool",
          "name": "",
          "type": "bool"
        }
      ],
      "stateMutability": "view",
      "type": "function"
    },
    {
      "inputs": [
        {
          "internalType": "address[]",
          "name": "targets",
          "type": "address[]"
        },
        {
          "internalType": "uint256[]",
          "name": "values",
          "type": "uint256[]"
        },
        {
          "internalType": "bytes[]",
          "name": "calldatas",
          "type": "bytes[]"
        },
        {
          "internalType": "bytes32",
          "name": "descriptionHash",
          "type": "bytes32"
        }
      ],
      "name": "hashProposal",
      "outputs": [
        {
          "internalType": "uint256",
          "name": "",
          "type": "uint256"
        }
      ],
      "stateMutability": "pure",
      "type": "function"
    },
    {
      "inputs": [],
      "name": "name",
      "outputs": [
        {
          "internalType": "string",
          "name": "",
          "type": "string"
        }
      ],
      "stateMutability": "view",
      "type": "function"
    },
    {
      "inputs": [
        {
          "internalType": "address",
          "name": "",
          "type": "address"
        },
        {
          "internalType": "address",
          "name": "",
          "type": "address"
        },
        {
          "internalType": "uint256[]",
          "name": "",
          "type": "uint256[]"
        },
        {
          "internalType": "uint256[]",
          "name": "",
          "type": "uint256[]"
        },
        {
          "internalType": "bytes",
          "name": "",
          "type": "bytes"
        }
      ],
      "name": "onERC1155BatchReceived",
      "outputs": [
        {
          "internalType": "bytes4",
          "name": "",
          "type": "bytes4"
        }
      ],
      "stateMutability": "nonpayable",
      "type": "function"
    },
    {
      "inputs": [
        {
          "internalType": "address",
          "name": "",
          "type": "address"
        },
        {
          "internalType": "address",
          "name": "",
          "type": "address"
        },
        {
          "internalType": "uint256",
          "name": "",
          "type": "uint256"
        },
        {
          "internalType": "uint256",
          "name": "",
          "type": "uint256"
        },
        {
          "internalType": "bytes",
          "name": "",
          "type": "bytes"
        }
      ],
      "name": "onERC1155Received",
      "outputs": [
        {
          "internalType": "bytes4",
          "name": "",
          "type": "bytes4"
        }
      ],
      "stateMutability": "nonpayable",
      "type": "function"
    },
    {
      "inputs": [
        {
          "internalType": "address",
          "name": "",
          "type": "address"
        },
        {
          "internalType": "address",
          "name": "",
          "type": "address"
        },
        {
          "internalType": "uint256",
          "name": "",
          "type": "uint256"
        },
        {
          "internalType": "bytes",
          "name": "",
          "type": "bytes"
        }
      ],
      "name": "onERC721Received",
      "outputs": [
        {
          "internalType": "bytes4",
          "name": "",
          "type": "bytes4"
        }
      ],
      "stateMutability": "nonpayable",
      "type": "function"
    },
    {
      "inputs": [
        {
          "internalType": "uint256",
          "name": "proposalId",
          "type": "uint256"
        }
      ],
      "name": "proposalDeadline",
      "outputs": [
        {
          "internalType": "uint256",
          "name": "",
          "type": "uint256"
        }
      ],
      "stateMutability": "view",
      "type": "function"
    },
    {
      "inputs": [
        {
          "internalType": "uint256",
          "name": "proposalId",
          "type": "uint256"
        }
      ],
      "name": "proposalEta",
      "outputs": [
        {
          "internalType": "uint256",
          "name": "",
          "type": "uint256"
        }
      ],
      "stateMutability": "view",
      "type": "function"
    },
    {
      "inputs": [
        {
          "internalType": "uint256",
          "name": "proposalId",
          "type": "uint256"
        }
      ],
      "name": "proposalProposer",
      "outputs": [
        {
          "internalType": "address",
          "name": "",
          "type": "address"
        }
      ],
      "stateMutability": "view",
      "type": "function"
    },
    {
      "inputs": [
        {
          "internalType": "uint256",
          "name": "proposalId",
          "type": "uint256"
        }
      ],
      "name": "proposalSnapshot",
      "outputs": [
        {
          "internalType": "uint256",
          "name": "",
          "type": "uint256"
        }
      ],
      "stateMutability": "view",
      "type": "function"
    },
    {
      "inputs": [],
      "name": "proposalThreshold",
      "outputs": [
        {
          "internalType": "uint256",
          "name": "",
          "type": "uint256"
        }
      ],
      "stateMutability": "view",
      "type": "function"
    },
    {
      "inputs": [
        {
          "internalType": "uint256",
          "name": "proposalId",
          "type": "uint256"
        }
      ],
      "name": "proposalVotes",
      "outputs": [
        {
          "internalType": "uint256",
          "name": "againstVotes",
          "type": "uint256"
        },
        {
          "internalType": "uint256",
          "name": "forVotes",
          "type": "uint256"
        },
        {
          "internalType": "uint256",
          "name": "abstainVotes",
          "type": "uint256"
        }
      ],
      "stateMutability": "view",
      "type": "function"
    },
    {
      "inputs": [
        {
          "internalType": "address[]",
          "name": "targets",
          "type": "address[]"
        },
        {
          "internalType": "uint256[]",
          "name": "values",
          "type": "uint256[]"
        },
        {
          "internalType": "bytes[]",
          "name": "calldatas",
          "type": "bytes[]"
        },
        {
          "internalType": "string",
          "name": "description",
          "type": "string"
        }
      ],
      "name": "propose",
      "outputs": [
        {
          "internalType": "uint256",
          "name": "",
          "type": "uint256"
        }
      ],
      "stateMutability": "nonpayable",
      "type": "function"
    },
    {
      "inputs": [
        {
          "internalType": "address[]",
          "name": "targets",
          "type": "address[]"
        },
        {
          "internalType": "uint256[]",
          "name": "values",
          "type": "uint256[]"
        },
        {
          "internalType": "bytes[]",
          "name": "calldatas",
          "type": "bytes[]"
        },
        {
          "internalType": "bytes32",
          "name": "descriptionHash",
          "type": "bytes32"
        }
      ],
      "name": "queue",
      "outputs": [
        {
          "internalType": "uint256",
          "name": "",
          "type": "uint256"
        }
      ],
      "stateMutability": "nonpayable",
      "type": "function"
    },
    {
      "inputs": [
        {
          "internalType": "uint256",
          "name": "blockNumber",
          "type": "uint256"
        }
      ],
      "name": "quorum",
      "outputs": [
        {
          "internalType": "uint256",
          "name": "",
          "type": "uint256"
        }
      ],
      "stateMutability": "view",
      "type": "function"
    },
    {
      "inputs": [],
      "name": "quorumDenominator",
      "outputs": [
        {
          "internalType": "uint256",
          "name": "",
          "type": "uint256"
        }
      ],
      "stateMutability": "view",
      "type": "function"
    },
    {
      "inputs": [
        {
          "internalType": "uint256",
          "name": "timepoint",
          "type": "uint256"
        }
      ],
      "name": "quorumNumerator",
      "outputs": [
        {
          "internalType": "uint256",
          "name": "",
          "type": "uint256"
        }
      ],
      "stateMutability": "view",
      "type": "function"
    },
    {
      "inputs": [],
      "name": "quorumNumerator",
      "outputs": [
        {
          "internalType": "uint256",
          "name": "",
          "type": "uint256"
        }
      ],
      "stateMutability": "view",
      "type": "function"
    },
    {
      "inputs": [
        {
          "internalType": "address",
          "name": "target",
          "type": "address"
        },
        {
          "internalType": "uint256",
          "name": "value",
          "type": "uint256"
        },
        {
          "internalType": "bytes",
          "name": "data",
          "type": "bytes"
        }
      ],
      "name": "relay",
      "outputs": [],
      "stateMutability": "payable",
      "type": "function"
    },
    {
      "inputs": [
        {
          "internalType": "uint256",
          "name": "newProposalThreshold",
          "type": "uint256"
        }
      ],
      "name": "setProposalThreshold",
      "outputs": [],
      "stateMutability": "nonpayable",
      "type": "function"
    },
    {
      "inputs": [
        {
          "internalType": "uint256",
          "name": "newVotingDelay",
          "type": "uint256"
        }
      ],
      "name": "setVotingDelay",
      "outputs": [],
      "stateMutability": "nonpayable",
      "type": "function"
    },
    {
      "inputs": [
        {
          "internalType": "uint256",
          "name": "newVotingPeriod",
          "type": "uint256"
        }
      ],
      "name": "setVotingPeriod",
      "outputs": [],
      "stateMutability": "nonpayable",
      "type": "function"
    },
    {
      "inputs": [
        {
          "internalType": "uint256",
          "name": "proposalId",
          "type": "uint256"
        }
      ],
      "name": "state",
      "outputs": [
        {
          "internalType": "enum IGovernor.ProposalState",
          "name": "",
          "type": "uint8"
        }
      ],
      "stateMutability": "view",
      "type": "function"
    },
    {
      "inputs": [
        {
          "internalType": "bytes4",
          "name": "interfaceId",
          "type": "bytes4"
        }
      ],
      "name": "supportsInterface",
      "outputs": [
        {
          "internalType": "bool",
          "name": "",
          "type": "bool"
        }
      ],
      "stateMutability": "view",
      "type": "function"
    },
    {
      "inputs": [],
      "name": "timelock",
      "outputs": [
        {
          "internalType": "address",
          "name": "",
          "type": "address"
        }
      ],
      "stateMutability": "view",
      "type": "function"
    },
    {
      "inputs": [],
      "name": "token",
      "outputs": [
        {
          "internalType": "contract IERC5805",
          "name": "",
          "type": "address"
        }
      ],
      "stateMutability": "view",
      "type": "function"
    },
    {
      "inputs": [
        {
          "internalType": "uint256",
          "name": "newQuorumNumerator",
          "type": "uint256"
        }
      ],
      "name": "updateQuorumNumerator",
      "outputs": [],
      "stateMutability": "nonpayable",
      "type": "function"
    },
    {
      "inputs": [
        {
          "internalType": "contract TimelockController",
          "name": "newTimelock",
          "type": "address"
        }
      ],
      "name": "updateTimelock",
      "outputs": [],
      "stateMutability": "nonpayable",
      "type": "function"
    },
    {
      "inputs": [],
      "name": "version",
      "outputs": [
        {
          "internalType": "string",
          "name": "",
          "type": "string"
        }
      ],
      "stateMutability": "view",
      "type": "function"
    },
    {
      "inputs": [],
      "name": "votingDelay",
      "outputs": [
        {
          "internalType": "uint256",
          "name": "",
          "type": "uint256"
        }
      ],
      "stateMutability": "view",
      "type": "function"
    },
    {
      "inputs": [],
      "name": "votingPeriod",
      "outputs": [
        {
          "internalType": "uint256",
          "name": "",
          "type": "uint256"
        }
      ],
      "stateMutability": "view",
      "type": "function"
    },
    {
      "stateMutability": "payable",
      "type": "receive"
    }
  ],
  "transactionHash": "0x6b327ebf3f2addd0a9ae8200a7bc9ba0babe7110588ca1dc59d72d5ddc37ca6d",
  "args": [
    "0x5FbDB2315678afecb367f032d93F642f64180aa3",
    "0xDc64a140Aa3E981100a9becA4E685f962f0cF6C9",
    4,
    2,
    1
  ],
  "numDeployments": 1,
  "solcInputHash": "8a87036aa1f398ac5738f2890d47f806",
  "bytecode": "0x61018060405234620000b757620000236200001962000157565b93929092620001e1565b604051614127908162000ef9823960805181612f02015260a05181612fb7015260c05181612ed3015260e05181612f5101526101005181612f77015261012051816115260152610140518161155201526101605181818161168b01528181611c8201528181611de001528181611e8c015281816126770152818161274e01528181612841015281816134cd01526137b10152f35b600080fd5b634e487b7160e01b600052604160045260246000fd5b604081019081106001600160401b03821117620000ee57604052565b620000bc565b60c081019081106001600160401b03821117620000ee57604052565b601f909101601f19168101906001600160401b03821190821017620000ee57604052565b604051906200014382620000d2565b565b6001600160a01b03811603620000b757565b620050409060a0823803928360405194859262000175828562000110565b833981010312620000b7578151916200018e8362000145565b6020810151926200019f8462000145565b60408201519260806060840151930151919493929190565b60405190620001c682620000d2565b60108252565b60405190620001db82620000d2565b60018252565b620002d4620002f1939294620002ce6200014397620002c862000203620001b7565b602081016f11dbdd995c9b9bdc90dbdb9d1c9858dd60821b815262000227620001cc565b906020820190603160f81b82526200023f8462000b1d565b610120526200024e8362000c2b565b6101405283519020918260e05251902080610100524660a0526040519060208201927f8b73c3c69bb8fe3d512ecc4cf759cc79239f7b179b0ffacaa9a75d522b39400f8452604083015260608201524660808201523060a082015260a08152620002b881620000f4565b5190206080523060c05262000441565b62000534565b6200056d565b620002de62000602565b6001600160a01b031661016052620006fe565b6200063c565b90600182811c9216801562000329575b60208310146200031357565b634e487b7160e01b600052602260045260246000fd5b91607f169162000307565b601f811162000341575050565b6000906002825260208220906020601f850160051c8301941062000382575b601f0160051c01915b8281106200037657505050565b81815560010162000369565b909250829062000360565b601f81116200039a575050565b60009081805260208220906020601f850160051c83019410620003da575b601f0160051c01915b828110620003ce57505050565b818155600101620003c1565b9092508290620003b8565b90601f8211620003f3575050565b60019160009083825260208220906020601f850160051c8301941062000436575b601f0160051c01915b8281106200042b5750505050565b81815583016200041d565b909250829062000414565b80519091906001600160401b038111620000ee576200046d8162000467600254620002f7565b62000334565b602080601f8311600114620004ac5750819293600092620004a0575b50508160011b916000199060031b1c191617600255565b01519050388062000489565b6002600052601f198316949091907f405787fa12a823e0f2b7631cc41b3ba8828b3321ca811111fa75cd3aa3bb5ace926000905b8782106200051b57505083600195961062000501575b505050811b01600255565b015160001960f88460031b161c19169055388080620004f6565b80600185968294968601518155019501930190620004e0565b60065460408051918252602082018390527fc565b045403dc03c2eea82b81a0465edad9e2e7fc4d97e11421c209da93d7a9391a1600655565b8015620005ad5760075460408051918252602082018390527f7e3f7f0708a84de9203036abaa450dccc85ad5ff52f78c170f3edb55cf5e882891a1600755565b60405162461bcd60e51b815260206004820152602760248201527f476f7665726e6f7253657474696e67733a20766f74696e6720706572696f6420604482015266746f6f206c6f7760c81b6064820152608490fd5b7fccb45da8d5717e6c4544694297c4ba5cf151d455c9bb0ed4fc7a38411bc054616040600854815190815260006020820152a16000600855565b600c547f08f74ea46ef7894f65eabfb5e6e695de773a000b47c529ab559178069b226401604060018060a01b038094169381519084168152846020820152a16001600160a01b03191617600c55565b600b549068010000000000000000821015620000ee576001820180600b55821015620006e857600b600052805160209182015190911b63ffffffff191663ffffffff91909116176000805160206200502083398151915290910155565b634e487b7160e01b600052603260045260246000fd5b60648111620007da577f0553476bf02ef2726e8ce5ced78d63e26e602e4a2257b1f559418e24b46339979062000733620008e7565b80151580620007cf575b62000790575b6200077c6200076a620007646200075962000851565b65ffffffffffff1690565b62000e92565b620007758462000dc0565b90620009e2565b5050604080519182526020820192909252a1565b620007c96200079f8262000dc0565b620007c3620007ad62000134565b600081526001600160e01b039092166020830152565b6200068b565b62000743565b50600b54156200073d565b60405162461bcd60e51b815260206004820152604360248201527f476f7665726e6f72566f74657351756f72756d4672616374696f6e3a2071756f60448201527f72756d4e756d657261746f72206f7665722071756f72756d44656e6f6d696e616064820152623a37b960e91b608482015260a490fd5b610160516040516324776b7d60e21b815290602090829060049082906001600160a01b03165afa809160009162000899575b5090620008965750620008964362000e2a565b90565b6020813d8211620008de575b81620008b46020938362000110565b81010312620008da57519065ffffffffffff82168203620008d757503862000883565b80fd5b5080fd5b3d9150620008a5565b600b5460009080620008fb575050600a5490565b6000199181838101116200092657600b90520160008051602062005020833981519152015460201c90565b634e487b7160e01b81526011600452602490fd5b6000198101919082116200094a57565b634e487b7160e01b600052601160045260246000fd5b604080519192919081016001600160401b03811182821017620000ee57604052602081935463ffffffff81168352811c910152565b156200099d57565b60405162461bcd60e51b815260206004820152601b60248201527f436865636b706f696e743a2064656372656173696e67206b65797300000000006044820152606490fd5b600b54919291801562000aee5762000aae91818562000a2a62000a2462000a0b6020966200093a565b600b600052600080516020620050208339815191520190565b62000960565b9262000a3a845163ffffffff1690565b62000a5363ffffffff9182841692839116111562000995565b62000a6f62000a66865163ffffffff1690565b63ffffffff1690565b0362000ab2575062000a8962000a0b62000aa0936200093a565b9063ffffffff82549181199060201b169116179055565b01516001600160e01b031690565b9190565b905062000ae8915062000ad462000ac862000134565b63ffffffff9092168252565b6001600160e01b038716818501526200068b565b62000aa0565b5062000b179062000b0262000ac862000134565b6001600160e01b03841660208201526200068b565b60009190565b90815160209081811060001462000b3c57505090620008969062000d43565b6001600160401b038111620000ee5760009162000b658262000b5f8554620002f7565b6200038d565b80601f831160011462000ba4575082939482939262000b98575b50508160011b916000199060031b1c191617905560ff90565b01519050388062000b7f565b60008052601f198316957f290decd9548b62a8d60345a988386fc84ba6bc95484008f6362f93160ef3e563929185905b88821062000c125750508360019596971062000bf8575b505050811b01905560ff90565b015160001960f88460031b161c1916905538808062000beb565b8060018596829496860151815501950193019062000bd4565b90815160209081811060001462000c4a57505090620008969062000d43565b6001600160401b038111620000ee5760019162000c738262000c6d8554620002f7565b620003e5565b80601f831160011462000cb257508192939460009262000ca6575b5050600019600383901b1c191690821b17905560ff90565b01519050388062000c8e565b6001600052601f198316959091907fb10e2d527612073b26eecdfd717e6a320cf44b4afac2b0732d9fcbe2b7fa0cf6926000905b88821062000d07575050838596971062000bf857505050811b01905560ff90565b80878596829496860151815501950193019062000ce6565b60208151910151906020811062000d34575090565b6000199060200360031b1b1690565b601f81511162000d5e5762000d588162000d1f565b90511790565b6040519063305a27a960e01b82528160208060048301528251908160248401526000935b82851062000da6575050604492506000838284010152601f80199101168101030190fd5b848101820151868601604401529381019385935062000d82565b6001600160e01b039081811162000dd5571690565b60405162461bcd60e51b815260206004820152602760248201527f53616665436173743a2076616c756520646f65736e27742066697420696e20326044820152663234206269747360c81b6064820152608490fd5b65ffffffffffff9081811162000e3e571690565b60405162461bcd60e51b815260206004820152602660248201527f53616665436173743a2076616c756520646f65736e27742066697420696e203460448201526538206269747360d01b6064820152608490fd5b63ffffffff9081811162000ea4571690565b60405162461bcd60e51b815260206004820152602660248201527f53616665436173743a2076616c756520646f65736e27742066697420696e203360448201526532206269747360d01b6064820152608490fdfe60806040526004361015610023575b361561001957600080fd5b610021611eb0565b005b60003560e01c806301ffc9a71461030357806302a251a3146102fe57806303420181146102f957806306f3f9e6146102f457806306fdde03146102ef578063143489d0146102ea578063150b7a02146102e5578063160cbed7146102e05780632656227d146102db5780632d63f693146102d65780632fe3e261146102d15780633932abb1146102cc5780633bccf4fd146102c75780633e4f49e6146102c257806343859632146102bd578063452115d6146102b85780634bf5d7e9146102b3578063544ffc9c146102ae57806354fd4d50146102a957806356781388146102a45780635f398a141461029f57806360c4247f1461029a57806370b0f660146102955780637b3c71d3146102905780637d5e81e21461028b57806384b0196e1461028657806391ddadf41461028157806397c3d3341461027c5780639a802a6d14610277578063a7713a7014610272578063a890c9101461026d578063ab58fb8e14610268578063b58131b014610263578063bc197c811461025e578063c01f9e3714610259578063c28bc2fa14610254578063c59057e41461024f578063d33219b41461024a578063dd4e2ba514610245578063deaaa7cc14610240578063ea0217cf1461023b578063eb9019d414610236578063ece40cc114610231578063f23a6e611461022c578063f8ce560a146102275763fc0c546a0361000e57611e6c565b611db0565b611d57565b611cc6565b611c27565b611b3b565b611b00565b611aa2565b611a7b565b611a5f565b611940565b611908565b61187c565b61185e565b6117b4565b611709565b6116ee565b61161e565b611602565b6115d7565b61150d565b611440565b6113eb565b61135a565b61133c565b6112cd565b61127d565b61123b565b6111f8565b6111c8565b611111565b6110b7565b611088565b610fbb565b610f9d565b610f62565b610f2d565b610d91565b610ba3565b61098b565b610942565b610861565b610674565b6105ec565b6103d8565b346103c85760203660031901126103c85760043563ffffffff60e01b81168091036103c85761035190636e665ced60e01b8114908115610355575b5060405190151581529081906020820190565b0390f35b63bf26d89760e01b8114915081156103b7575b81156103a6575b8115610395575b8115610384575b503861033e565b6301ffc9a760e01b1490503861037d565b630271189760e51b81149150610376565b63288ace0360e11b8114915061036f565b6379dd796f60e01b81149150610368565b600080fd5b60009103126103c857565b346103c85760003660031901126103c8576020600754604051908152f35b6024359060ff821682036103c857565b6044359060ff821682036103c857565b9181601f840112156103c8578235916001600160401b0383116103c857602083818601950101116103c857565b634e487b7160e01b600052604160045260246000fd5b6001600160401b03811161046c57604052565b610443565b604081019081106001600160401b0382111761046c57604052565b608081019081106001600160401b0382111761046c57604052565b602081019081106001600160401b0382111761046c57604052565b606081019081106001600160401b0382111761046c57604052565b60c081019081106001600160401b0382111761046c57604052565b90601f801991011681019081106001600160401b0382111761046c57604052565b6040519061052682610471565b565b6040519060e082018281106001600160401b0382111761046c57604052565b6001600160401b03811161046c57601f01601f191660200190565b91909161056e81610547565b61057b60405191826104f8565b809382825282116103c857818160009384602080950137010152565b9291926105a382610547565b916105b160405193846104f8565b8294818452818301116103c8578281602093846000960137010152565b9080601f830112156103c8578160206105e993359101610597565b90565b346103c85760e03660031901126103c8576106056103f6565b6001600160401b036044358181116103c857610625903690600401610416565b916064359081116103c85761063e9036906004016105ce565b9260843560ff811681036103c857610351946106649460c4359460a4359460043561216a565b6040519081529081906020820190565b346103c85760203660031901126103c8576004356001600160a01b03600c541661069f8133146123be565b30036107e2575b6064811161076b577f0553476bf02ef2726e8ce5ced78d63e26e602e4a2257b1f559418e24b4633997906106d861288d565b80151580610761575b61072a575b6107166107076107026106f7612662565b65ffffffffffff1690565b6133ce565b610710846132fe565b90612bf1565b5050604080519182526020820192909252a1005b61075c610736826132fe565b610757610741610519565b600081526001600160e01b039092166020830152565b612af9565b6106e6565b50600b54156106e1565b60405162461bcd60e51b815260206004820152604360248201527f476f7665726e6f72566f74657351756f72756d4672616374696f6e3a2071756f60448201527f72756d4e756d657261746f72206f7665722071756f72756d44656e6f6d696e616064820152623a37b960e91b608482015260a490fd5b6107ec3636610562565b602081519101205b806107fd613433565b036107f457506106a6565b60005b83811061081b5750506000910152565b818101518382015260200161080b565b9060209161084481518092818552858086019101610808565b601f01601f1916010190565b9060206105e992818152019061082b565b346103c85760008060031936011261093f57604051908060025461088481611f09565b8085529160019180831690811561091557506001146108ba575b610351856108ae818703826104f8565b60405191829182610850565b9250600283527f405787fa12a823e0f2b7631cc41b3ba8828b3321ca811111fa75cd3aa3bb5ace5b8284106108fd5750505081016020016108ae8261035161089e565b805460208587018101919091529093019281016108e2565b869550610351969350602092506108ae94915060ff191682840152151560051b820101929361089e565b80fd5b346103c85760203660031901126103c857600435600052600360205260206001600160a01b0360406000205460401c16604051908152f35b6001600160a01b038116036103c857565b346103c85760803660031901126103c8576109a760043561097a565b6109b260243561097a565b6064356001600160401b0381116103c8576109d19036906004016105ce565b50604051630a85bd0160e11b8152602090f35b6001600160401b03811161046c5760051b60200190565b81601f820112156103c857803591610a12836109e4565b92610a2060405194856104f8565b808452602092838086019260051b8201019283116103c8578301905b828210610a4a575050505090565b8380918335610a588161097a565b815201910190610a3c565b81601f820112156103c857803591610a7a836109e4565b92610a8860405194856104f8565b808452602092838086019260051b8201019283116103c8578301905b828210610ab2575050505090565b81358152908301908301610aa4565b9080601f830112156103c857813590610ad9826109e4565b92610ae760405194856104f8565b828452602092838086019160051b830101928084116103c857848301915b848310610b155750505050505090565b82356001600160401b0381116103c8578691610b36848480948901016105ce565b815201920191610b05565b60806003198201126103c8576001600160401b03916004358381116103c85782610b6d916004016109fb565b926024358181116103c85783610b8591600401610a63565b926044359182116103c857610b9c91600401610ac1565b9060643590565b346103c857610bb136610b41565b92610bc184838584969596611fd5565b92610bdf6004610bd086613519565b610bd98161107e565b14612039565b610c00610bf4600c546001600160a01b031690565b6001600160a01b031690565b60405163793d064960e11b815293906020908186600481845afa958615610d4057600096610d72575b5081604051809263b1c5f42760e01b82528180610c4c8d8a8a8d600486016125ce565b03915afa918215610d4057600092610d45575b5050610c7586600052600d602052604060002090565b55610c8b610bf4600c546001600160a01b031690565b90813b156103c85760008094610cb8876040519a8b97889687956308f2a0bb60e41b875260048701612614565b03925af1928315610d4057610cfc7f9a2e42fd6722813d69113e7d0079d3d940171428df7373df9c7f7617cfda289292610d149261035196610d27575b5042612474565b60408051858152602081019290925290918291820190565b0390a16040519081529081906020820190565b80610d34610d3a92610459565b806103cd565b38610cf5565b6125c2565b610d649250803d10610d6b575b610d5c81836104f8565b8101906125b3565b3880610c5f565b503d610d52565b610d8a919650823d8411610d6b57610d5c81836104f8565b9438610c29565b610d9a36610b41565b610da8818385879597611fd5565b92610db284613519565b926008841015610f2857610dd3600494858114908115610f14575b50612039565b610dfa6002610dec876000526003602052604060002090565b01805460ff19166001179055565b6040938451908682527f712ae1383f79ac853f8d882153778e0260ef8f03b504e2866e0593e04d2b291f60208093a16001600160a01b0380600c54163003610e65575b50505094610e4f929161035196613ef4565b610e5761213a565b519081529081906020820190565b9092979591949396600094855b8a51811015610ef857808988828b8f89610e90610ea1983093612121565b511614610ea6575b505050506120fc565b610e72565b610eb5600192610eef95612121565b5181815191012060058c5460801d92600f9584870b9052528a8d205501900b6001600160801b036004549181199060801b16911617600455565b8988828b610e98565b509450969195925050610e4f9350610351969196819394610e3d565b60059150610f218161107e565b1438610dcd565b611068565b346103c85760203660031901126103c857600435600052600360205260206001600160401b0360406000205416604051908152f35b346103c85760003660031901126103c85760206040517fb3b3f3b703cd84ce352197dcff232b1b5d3cfb2025ce47cf04742d0651f1af888152f35b346103c85760003660031901126103c8576020600654604051908152f35b346103c85760a03660031901126103c857610351610664600435610fdd6103f6565b61105261104a610feb610406565b60405160208101917f150214d74d59b7d1e90c73fc22ef3d991dd0a76b046543d4d80ab92d2a50328f835286604083015260ff86166060830152606082526110328261048c565b6110456084359360643593519020612ea3565b612e21565b919091612d01565b6040519261105f846104a7565b60008452612205565b634e487b7160e01b600052602160045260246000fd5b60081115610f2857565b346103c85760203660031901126103c8576110a4600435613519565b6040516008821015610f28576020918152f35b346103c85760403660031901126103c857602060ff6111056024356110db8161097a565b600435600052600984526003604060002001906001600160a01b0316600052602052604060002090565b54166040519015158152f35b346103c85761111f36610b41565b9061112c82828587611fd5565b9261113684613519565b6008811015610f2857611183576103519461117e611177610bf4611167610664986000526003602052604060002090565b5460401c6001600160a01b031690565b331461208f565b613f49565b60405162461bcd60e51b815260206004820152601c60248201527f476f7665726e6f723a20746f6f206c61746520746f2063616e63656c000000006044820152606490fd5b346103c85760003660031901126103c8576103516111e4612738565b60405191829160208352602083019061082b565b346103c85760203660031901126103c857600435600052600960205260606040600020805490600260018201549101549060405192835260208301526040820152f35b346103c85760003660031901126103c85761035160405161125b81610471565b60018152603160f81b602082015260405191829160208352602083019061082b565b346103c85760403660031901126103c85760206112c561129b6103f6565b6040516112a7816104a7565b60008152604051916112b8836104a7565b6000835233600435612281565b604051908152f35b346103c85760803660031901126103c8576112e66103f6565b6001600160401b03906044358281116103c857611307903690600401610416565b90916064359384116103c8576113326112c59361132a60209636906004016105ce565b933691610597565b9033600435612281565b346103c85760203660031901126103c85760206112c5600435612928565b346103c85760203660031901126103c8576004356001600160a01b03600c54166113858133146123be565b30036113c5575b60065460408051918252602082018390527fc565b045403dc03c2eea82b81a0465edad9e2e7fc4d97e11421c209da93d7a9391a1600655005b6113cf3636610562565b602081519101205b806113e0613433565b036113d7575061138c565b346103c85760603660031901126103c8576114046103f6565b6044356001600160401b0381116103c85760209161143361142c6112c5933690600401610416565b3691610597565b604051916112b8836104a7565b346103c85760803660031901126103c8576001600160401b036004358181116103c8576114719036906004016109fb565b906024358181116103c85761148a903690600401610a63565b916044358281116103c8576114a3903690600401610ac1565b6064359283116103c857366023840112156103c857610351936114d3610664943690602481600401359101610597565b92613bba565b90815180825260208080930193019160005b8281106114f9575050505090565b8351855293810193928101926001016114eb565b346103c85760003660031901126103c8576115a861154a7f0000000000000000000000000000000000000000000000000000000000000000612fdd565b6103516115767f00000000000000000000000000000000000000000000000000000000000000006130d4565b6115b660405191611586836104a7565b60008352604051958695600f60f81b875260e0602088015260e087019061082b565b90858203604087015261082b565b90466060850152306080850152600060a085015283820360c08501526114d9565b346103c85760003660031901126103c85760206115f2612662565b65ffffffffffff60405191168152f35b346103c85760003660031901126103c857602060405160648152f35b346103c85760603660031901126103c85760043561163b8161097a565b6044356001600160401b0381116103c85760449161165f60209236906004016105ce565b5060405192838092630748d63560e31b82526001600160a01b03809116600483015260243560248301527f0000000000000000000000000000000000000000000000000000000000000000165afa8015610d4057610351916000916116d0575b506040519081529081906020820190565b6116e8915060203d8111610d6b57610d5c81836104f8565b386116bf565b346103c85760003660031901126103c85760206112c561288d565b346103c85760203660031901126103c8576004356117268161097a565b6001600160a01b039081600c541661173f8133146123be565b300361178e575b7f08f74ea46ef7894f65eabfb5e6e695de773a000b47c529ab559178069b226401604083600c5493169381519084168152846020820152a16001600160a01b03191617600c55005b6117983636610562565b602081519101205b806117a9613433565b036117a05750611746565b346103c85760203660031901126103c85761180e60206001600160a01b03600c54166117ec600435600052600d602052604060002090565b5490604051808095819463d45c443560e01b8352600483019190602083019252565b03915afa908115610d4057600091611840575b5060018103611837575060405160008152602090f35b61035190610664565b611858915060203d8111610d6b57610d5c81836104f8565b38611821565b346103c85760003660031901126103c8576020600854604051908152f35b346103c85760a03660031901126103c85761189860043561097a565b6118a360243561097a565b6001600160401b036044358181116103c8576118c3903690600401610a63565b506064358181116103c8576118dc903690600401610a63565b506084359081116103c8576118f59036906004016105ce565b5060405163bc197c8160e01b8152602090f35b346103c85760203660031901126103c857600435600052600360205260206001600160401b0360016040600020015416604051908152f35b60603660031901126103c8576004356119588161097a565b6044356001600160401b0381116103c857611977903690600401610416565b91906001600160a01b03600c54166119908133146123be565b3003611a39575b611a2e91836040519485938437820190600094859383858095520391602435905af13d15611a32573d6119c981610547565b906119d760405192836104f8565b81523d84602083013e5b604051916119ee836104c2565b602883527f476f7665726e6f723a2072656c617920726576657274656420776974686f7574602084015267206d65737361676560c01b6040840152612b65565b5080f35b60606119e1565b611a433636610562565b602081519101205b80611a54613433565b03611a4b5750611997565b346103c85760206112c5611a7236610b41565b92919091611fd5565b346103c85760003660031901126103c85760206001600160a01b03600c5416604051908152f35b346103c85760003660031901126103c857610351604051611ac281610471565b602081527f737570706f72743d627261766f2671756f72756d3d666f722c6162737461696e602082015260405191829160208352602083019061082b565b346103c85760003660031901126103c85760206040517f150214d74d59b7d1e90c73fc22ef3d991dd0a76b046543d4d80ab92d2a50328f8152f35b346103c85760203660031901126103c8576004356001600160a01b03600c5416611b668133146123be565b3003611c01575b8015611bac5760075460408051918252602082018390527f7e3f7f0708a84de9203036abaa450dccc85ad5ff52f78c170f3edb55cf5e882891a1600755005b60405162461bcd60e51b815260206004820152602760248201527f476f7665726e6f7253657474696e67733a20766f74696e6720706572696f6420604482015266746f6f206c6f7760c81b6064820152608490fd5b611c0b3636610562565b602081519101205b80611c1c613433565b03611c135750611b6d565b346103c85760403660031901126103c85760446020600435611c488161097a565b6000604051611c56816104a7565b5260405192838092630748d63560e31b82526001600160a01b03809116600483015260243560248301527f0000000000000000000000000000000000000000000000000000000000000000165afa8015610d4057610351916000916116d057506040519081529081906020820190565b346103c85760203660031901126103c8576004356001600160a01b03600c5416611cf18133146123be565b3003611d31575b60085460408051918252602082018390527fccb45da8d5717e6c4544694297c4ba5cf151d455c9bb0ed4fc7a38411bc0546191a1600855005b611d3b3636610562565b602081519101205b80611d4c613433565b03611d435750611cf8565b346103c85760a03660031901126103c857611d7360043561097a565b611d7e60243561097a565b6084356001600160401b0381116103c857611d9d9036906004016105ce565b5060405163f23a6e6160e01b8152602090f35b346103c85760203660031901126103c857604051632394e7a360e21b8152600480359082018190526020826024817f00000000000000000000000000000000000000000000000000000000000000006001600160a01b03165afa918215610d4057600092611e48575b50611e2390612928565b90818102918183041490151715611e435760405160649091048152602090f35b6120e6565b611e23919250611e659060203d8111610d6b57610d5c81836104f8565b9190611e19565b346103c85760003660031901126103c85760206040516001600160a01b037f0000000000000000000000000000000000000000000000000000000000000000168152f35b6001600160a01b03600c54163003611ec457565b60405162461bcd60e51b815260206004820152601f60248201527f476f7665726e6f723a206d7573742073656e6420746f206578656375746f72006044820152606490fd5b90600182811c92168015611f39575b6020831014611f2357565b634e487b7160e01b600052602260045260246000fd5b91607f1691611f18565b90815180825260208080930193019160005b828110611f63575050505090565b83516001600160a01b031685529381019392810192600101611f55565b90815180825260208092019182818360051b85019501936000915b848310611fab5750505050505090565b9091929394958480611fc583856001950387528a5161082b565b9801930193019194939290611f9b565b92906120219261203392604051948592612011611ffe602086019960808b5260a0870190611f43565b601f1996878783030160408801526114d9565b9085858303016060860152611f80565b906080830152039081018352826104f8565b51902090565b1561204057565b60405162461bcd60e51b815260206004820152602160248201527f476f7665726e6f723a2070726f706f73616c206e6f74207375636365737366756044820152601b60fa1b6064820152608490fd5b1561209657565b60405162461bcd60e51b815260206004820152602260248201527f476f7665726e6f723a206f6e6c792070726f706f7365722063616e2063616e63604482015261195b60f21b6064820152608490fd5b634e487b7160e01b600052601160045260246000fd5b6000198114611e435760010190565b634e487b7160e01b600052603260045260246000fd5b80518210156121355760209160051b010190565b61210b565b6001600160a01b03600c5416300361214e57565b60045480600f0b9060801d600f0b1361216357565b6000600455565b94926121f76105e9986121ff9493969861142c966110458a8a8d61218f368a8c610597565b6020815191012090602081519101209060ff6040519360208501957fb3b3f3b703cd84ce352197dcff232b1b5d3cfb2025ce47cf04742d0651f1af8887526040860152166060840152608083015260a082015260a081526121ef816104dd565b519020612ea3565b949094612d01565b92612281565b916105e9939160405193612218856104a7565b60008552612281565b93909260ff61224d936105e997958752166020860152604085015260a0606085015260a084019061082b565b91608081840391015261082b565b909260ff6080936105e9969584521660208301526040820152816060820152019061082b565b929091938360005260036020526040600020600161229e86613519565b6122a78161107e565b0361236d576122cf6122c36122d592546001600160401b031690565b6001600160401b031690565b84612813565b9485916122e483838789612481565b805161232f57506001600160a01b03927fb8e138887d0aa13bab447e82de9d5c1777041ecd21ca36ba824ff1e6c07ddda494926123299260405195869516978561225b565b0390a290565b6001600160a01b03937fe2babfbac5889a709b63bb7f598b324e08bc5a4fb9ec647fb3cbc9ec07eb8712959361232993604051968796169886612221565b60405162461bcd60e51b815260206004820152602360248201527f476f7665726e6f723a20766f7465206e6f742063757272656e746c792061637460448201526269766560e81b6064820152608490fd5b156123c557565b60405162461bcd60e51b815260206004820152601860248201527f476f7665726e6f723a206f6e6c79476f7665726e616e636500000000000000006044820152606490fd5b1561241157565b60405162461bcd60e51b815260206004820152602760248201527f476f7665726e6f72566f74696e6753696d706c653a20766f746520616c726561604482015266191e4818d85cdd60ca1b6064820152608490fd5b9060018201809211611e4357565b91908201809211611e4357565b916124ff6124f261249f60ff94956000526009602052604060002090565b94600386016124da6124d56124d16124ca8585906001600160a01b0316600052602052604060002090565b5460ff1690565b1590565b61240a565b906001600160a01b0316600052602052604060002090565b805460ff19166001179055565b1680612516575090612512908254612474565b9055565b6001810361252e575060016125129101918254612474565b6002036125445760026125129101918254612474565b60405162461bcd60e51b815260206004820152603560248201527f476f7665726e6f72566f74696e6753696d706c653a20696e76616c696420766160448201527f6c756520666f7220656e756d20566f74655479706500000000000000000000006064820152608490fd5b0390fd5b908160209103126103c8575190565b6040513d6000823e3d90fd5b9493926125fa6080936125ec6126089460a08a5260a08a0190611f43565b9088820360208a01526114d9565b908682036040880152611f80565b93600060608201520152565b919261264360a094612635612651949998979960c0875260c0870190611f43565b9085820360208701526114d9565b908382036040850152611f80565b946000606083015260808201520152565b6040516324776b7d60e21b81526020816004817f00000000000000000000000000000000000000000000000000000000000000006001600160a01b03165afa80916000916126bb575b50906105e957506105e943613367565b6020813d82116126f7575b816126d3602093836104f8565b810103126126f357519065ffffffffffff8216820361093f5750386126ab565b5080fd5b3d91506126c6565b6040519061270c82610471565b601d82527f6d6f64653d626c6f636b6e756d6265722666726f6d3d64656661756c740000006020830152565b604051634bf5d7e960e01b8152600080826004817f00000000000000000000000000000000000000000000000000000000000000006001600160a01b03165afa90918282612790575b50506105e957506105e96126ff565b909192503d8082843e6127a381846104f8565b8201916020818403126126f3578051906001600160401b03821161280f570182601f820112156126f3578051916127d983610547565b936127e760405195866104f8565b8385526020848401011161093f5750906128079160208085019101610808565b903880612781565b8280fd5b90602090604460405180948193630748d63560e31b83526001600160a01b03809216600484015260248301527f0000000000000000000000000000000000000000000000000000000000000000165afa908115610d4057600091612875575090565b6105e9915060203d8111610d6b57610d5c81836104f8565b600b54600090806128a0575050600a5490565b80600019810111611e4357600b7f0175b7a638427703f0dbe7bb9bbf987a2551717b34e79f33b5b1008d1fa01db89252015460201c90565b600019810191908211611e4357565b602719810191908211611e4357565b90604051604081018181106001600160401b0382111761046c57604052602081935463ffffffff81168352811c910152565b600b9081548015612af0576000198101818111611e4357811115612135576000928084526129777f0175b7a638427703f0dbe7bb9bbf987a2551717b34e79f33b5b1008d1fa01db883016128f6565b9263ffffffff9381858251161115612ada5750612993906133ce565b92848360058111612a78575b5092939192918116905b848310612a12575050505080156000146129cb57505b6001600160e01b031690565b612a0d91506129dc612a06916128d8565b600b6000527f0175b7a638427703f0dbe7bb9bbf987a2551717b34e79f33b5b1008d1fa01db90190565b5460201c90565b6129bf565b909192938084169080851860011c8201809211611e43578587528383837f0175b7a638427703f0dbe7bb9bbf987a2551717b34e79f33b5b1008d1fa01db901541611600014612a665750935b9291906129a9565b949350612a7290612466565b92612a5e565b9093612a83826131ac565b8203918211611e43578387527f0175b7a638427703f0dbe7bb9bbf987a2551717b34e79f33b5b1008d1fa01db982015483168684161015612ac957508190935b9061299f565b9350612ad58291612466565b612ac3565b602001516001600160e01b031695945050505050565b505050600a5490565b600b54906801000000000000000082101561046c576001820180600b5582101561213557600b600052805160209182015190911b63ffffffff191663ffffffff91909116177f0175b7a638427703f0dbe7bb9bbf987a2551717b34e79f33b5b1008d1fa01db990910155565b90919015612b71575090565b815115612b815750805190602001fd5b60405162461bcd60e51b8152602060048201529081906125af90602483019061082b565b15612bac57565b60405162461bcd60e51b815260206004820152601b60248201527f436865636b706f696e743a2064656372656173696e67206b65797300000000006044820152606490fd5b600b549192918015612ccd57612c93918185612c19612c146129dc6020966128d8565b6128f6565b92612c28845163ffffffff1690565b612c3f63ffffffff91828416928391161115612ba5565b612c59612c50865163ffffffff1690565b63ffffffff1690565b03612c975750612c6e6129dc612c85936128d8565b9063ffffffff82549181199060201b169116179055565b01516001600160e01b031690565b9190565b9050612cc89150612cb5612ca9610519565b63ffffffff9092168252565b6001600160e01b03871681850152612af9565b612c85565b50612cf190612cdd612ca9610519565b6001600160e01b0384166020820152612af9565b60009190565b60051115610f2857565b612d0a81612cf7565b80612d125750565b612d1b81612cf7565b60018103612d685760405162461bcd60e51b815260206004820152601860248201527f45434453413a20696e76616c6964207369676e617475726500000000000000006044820152606490fd5b612d7181612cf7565b60028103612dbe5760405162461bcd60e51b815260206004820152601f60248201527f45434453413a20696e76616c6964207369676e6174757265206c656e677468006044820152606490fd5b80612dca600392612cf7565b14612dd157565b60405162461bcd60e51b815260206004820152602260248201527f45434453413a20696e76616c6964207369676e6174757265202773272076616c604482015261756560f01b6064820152608490fd5b9291907f7fffffffffffffffffffffffffffffff5d576e7357a4501ddfe92f46681b20a08311612e975791608094939160ff602094604051948552168484015260408301526060820152600093849182805260015afa15610d405781516001600160a01b03811615612e91579190565b50600190565b50505050600090600390565b604290612eae612ec9565b906040519161190160f01b8352600283015260228201522090565b6001600160a01b037f000000000000000000000000000000000000000000000000000000000000000016301480612fb4575b15612f24577f000000000000000000000000000000000000000000000000000000000000000090565b60405160208101907f8b73c3c69bb8fe3d512ecc4cf759cc79239f7b179b0ffacaa9a75d522b39400f82527f000000000000000000000000000000000000000000000000000000000000000060408201527f000000000000000000000000000000000000000000000000000000000000000060608201524660808201523060a082015260a08152612033816104dd565b507f00000000000000000000000000000000000000000000000000000000000000004614612efb565b60ff811461301b5760ff811690601f82116130095760405191612fff83610471565b8252602082015290565b604051632cd44ac360e21b8152600490fd5b5060405160008181549161302e83611f09565b808352926001908181169081156130b25750600114613055575b506105e9925003826104f8565b600080805291507f290decd9548b62a8d60345a988386fc84ba6bc95484008f6362f93160ef3e5635b84831061309757506105e9935050810160200138613048565b8193509081602092548385890101520191019091849261307e565b9050602092506105e994915060ff191682840152151560051b82010138613048565b60ff81146130f65760ff811690601f82116130095760405191612fff83610471565b5060405160008160019182549261310c84611f09565b808452938181169081156130b2575060011461312f57506105e9925003826104f8565b600081815291507fb10e2d527612073b26eecdfd717e6a320cf44b4afac2b0732d9fcbe2b7fa0cf65b84831061317157506105e9935050810160200138613048565b81935090816020925483858901015201910190918492613158565b8115613196570490565b634e487b7160e01b600052601260045260246000fd5b80156132e6578061327f61327861326e61326461325a61325061324661323c60016105e99a6000908b60801c806132da575b508060401c806132cd575b508060201c806132c0575b508060101c806132b3575b508060081c806132a6575b508060041c80613299575b508060021c8061328c575b50821c613285575b811c1b613235818b61318c565b0160011c90565b613235818a61318c565b613235818961318c565b613235818861318c565b613235818761318c565b613235818661318c565b613235818561318c565b809261318c565b906132ec565b8101613228565b6002915091019038613220565b6004915091019038613215565b600891509101903861320a565b60109150910190386131ff565b60209150910190386131f4565b60409150910190386131e9565b915050608090386131de565b50600090565b90808210156132f9575090565b905090565b6001600160e01b0390818111613312571690565b60405162461bcd60e51b815260206004820152602760248201527f53616665436173743a2076616c756520646f65736e27742066697420696e20326044820152663234206269747360c81b6064820152608490fd5b65ffffffffffff9081811161337a571690565b60405162461bcd60e51b815260206004820152602660248201527f53616665436173743a2076616c756520646f65736e27742066697420696e203460448201526538206269747360d01b6064820152608490fd5b63ffffffff908181116133df571690565b60405162461bcd60e51b815260206004820152602660248201527f53616665436173743a2076616c756520646f65736e27742066697420696e203360448201526532206269747360d01b6064820152608490fd5b6004549081600f0b809260801d600f0b131561347e5781600052600560205260406000209160008354935560016001600160801b03196004541691016001600160801b031617600455565b604051631ed9509560e11b8152600490fd5b9060209060006040516134a2816104a7565b52604460405180948193630748d63560e31b83526001600160a01b03809216600484015260248301527f0000000000000000000000000000000000000000000000000000000000000000165afa908115610d4057600091612875575090565b908160209103126103c8575180151581036103c85790565b61352281613635565b9061352c8261107e565b600482036136315761354890600052600d602052604060002090565b5480613552575090565b9050613569610bf4600c546001600160a01b031690565b604051632ab0f52960e01b81526004810183905260209291908381602481855afa908115610d4057600091613614575b50156135a757505050600790565b604051632c258a9f60e11b815260048101929092528290829060249082905afa918215610d40576000926135e7575b5050156135e257600590565b600290565b6136069250803d1061360d575b6135fe81836104f8565b810190613501565b38806135d6565b503d6135f4565b61362b9150843d861161360d576135fe81836104f8565b38613599565b5090565b600261364b826000526003602052604060002090565b015460ff81166137645760081c60ff1661375e576136866122c3613679836000526003602052604060002090565b546001600160401b031690565b8015613719576136976106f7612662565b80911015613712576136c96122c360016136bb856000526003602052604060002090565b01546001600160401b031690565b1015612e91576136d88161376b565b90816136ef575b50156136ea57600490565b600390565b61370c915060005260096020526040600020600181015490541090565b386136df565b5050600090565b60405162461bcd60e51b815260206004820152601d60248201527f476f7665726e6f723a20756e6b6e6f776e2070726f706f73616c2069640000006044820152606490fd5b50600290565b5050600790565b6000526009602052604060002060036020526001600160401b03604060002054169060405191632394e7a360e21b83528060048401526020836024816001600160a01b037f0000000000000000000000000000000000000000000000000000000000000000165afa928315610d405760009361381a575b506137ec90612928565b91828102928184041490151715611e43576138138160026001606494015491015490612474565b9104111590565b6137ec9193506138379060203d8111610d6b57610d5c81836104f8565b92906137e2565b1561384557565b60405162461bcd60e51b815260206004820152601d60248201527f476f7665726e6f723a2070726f706f73657220726573747269637465640000006044820152606490fd5b1561389157565b60405162461bcd60e51b815260206004820152603160248201527f476f7665726e6f723a2070726f706f73657220766f7465732062656c6f7720706044820152701c9bdc1bdcd85b081d1a1c995cda1bdb19607a1b6064820152608490fd5b156138f757565b60405162461bcd60e51b815260206004820152602160248201527f476f7665726e6f723a20696e76616c69642070726f706f73616c206c656e67746044820152600d60fb1b6064820152608490fd5b1561394d57565b60405162461bcd60e51b815260206004820152601860248201527f476f7665726e6f723a20656d7074792070726f706f73616c00000000000000006044820152606490fd5b1561399957565b60405162461bcd60e51b815260206004820152602160248201527f476f7665726e6f723a2070726f706f73616c20616c72656164792065786973746044820152607360f81b6064820152608490fd5b815160208301516040808501516001600160401b039384169290911b7bffffffffffffffffffffffffffffffffffffffff000000000000000016919091176001600160e01b03199091161782556060830151608084015167ffffffffffffffff191691161760018201556105269190613a8b9060c09060020192613a84613a7260a0830151151590565b859060ff801983541691151516179055565b0151151590565b815461ff00191690151560081b61ff0016179055565b90613aab826109e4565b613ab860405191826104f8565b8281528092613ac9601f19916109e4565b019060005b828110613ada57505050565b806060602080938501015201613ace565b9592613b1f90613b2d939b9a989996959288526001600160a01b0360209c168c8901526101208060408a0152880190611f43565b9086820360608801526114d9565b9784890360808601528251808a52818a019180808360051b8d01019501926000905b838210613b8c5750505050506105e996975090613b739184820360a0860152611f80565b9360c083015260e082015261010081840391015261082b565b90919293958380613bab8f93600194601f199082030186528a5161082b565b98019201920190939291613b4f565b613d2d7f7d84a6263ae0d98d3329bd7b46bb4e8d6f98cd35a7adb45c274c8b7fd5ebd5e09394613bf2613bed8233613d44565b61383e565b613bfd6106f7612662565b95613c1d613c13613c0d896128d8565b33613490565b600854111561388a565b613c8b613c3283516020850120838888611fd5565b97613c4086518851146138f0565b613c4d86518451146138f0565b613c5986511515613946565b613c826001600160401b03613c7b6136798c6000526003602052604060002090565b1615613992565b60065490612474565b613c9760075482612474565b91613d15613ca483613e8c565b613ce7613cb086613e8c565b613cca613cbb610528565b6001600160401b039094168452565b336020840152600060408401526001600160401b03166060830152565b60006080820152600060a0820152600060c0820152613d108b6000526003602052604060002090565b6139e8565b613d1f8651613aa1565b604051978897338c8a613aeb565b0390a190565b908151811015612135570160200190565b815160348110613e065760131981840101516001600160a01b0319166b1b91f1b211f2119351b859f160a31b01613e065791600092613d82816128e7565b915b818310613d9f575050506001600160a01b0380911691161490565b909193613dc5613dc0613db28785613d33565b516001600160f81b03191690565b613e0e565b919015613dfb5773fffffffffffffffffffffffffffffffffffffff060ff613df493169160041b1617946120fc565b9190613d84565b505050505050600190565b505050600190565b60f81c9081602f1080613e82575b15613e2e57600191602f190160ff1690565b8160401080613e78575b15613e4a576001916036190160ff1690565b8160601080613e6e575b15613e66576001916056190160ff1690565b600091508190565b5060678210613e54565b5060478210613e38565b50603a8210613e1c565b6001600160401b0390818111613ea0571690565b60405162461bcd60e51b815260206004820152602660248201527f53616665436173743a2076616c756520646f65736e27742066697420696e203660448201526534206269747360d01b6064820152608490fd5b91906001600160a01b03600c541690813b156103c857600093613f2d6040519687958694859463e38335e560e01b8652600486016125ce565b039134905af18015610d4057613f405750565b61052690610459565b90613f55939291611fd5565b613f5e81613519565b6008811015610f2857806002613f83921415908161408f575b8161407a575b506140a5565b613fac6002613f9c836000526003602052604060002090565b01805461ff001916610100179055565b6040518181527f789cf55be980739dad1d0699b93b58e806b51c9d96619bfa8fe0a28abaa7b30c90602090a1613fec81600052600d602052604060002090565b54613ff45790565b614009610bf4600c546001600160a01b031690565b61401d82600052600d602052604060002090565b5490803b156103c85760405163c4d252f560e01b815260048101929092526000908290602490829084905af18015610d4057614067575b506000818152600d602052604081205590565b80610d3461407492610459565b38614054565b600791506140878161107e565b141538613f7d565b905061409a8161107e565b600681141590613f77565b156140ac57565b60405162461bcd60e51b815260206004820152601d60248201527f476f7665726e6f723a2070726f706f73616c206e6f74206163746976650000006044820152606490fdfea2646970667358221220fcaf8f0c5690f894c2ba8635fd018441f9e506dbad3b78025ad103af5c5056b764736f6c634300081300330175b7a638427703f0dbe7bb9bbf987a2551717b34e79f33b5b1008d1fa01db9",
  "devdoc": {
    "errors": {
      "Empty()": [
        {
          "details": "An operation (e.g. {front}) couldn't be completed due to the queue being empty."
        }
      ]
    },
    "events": {
      "EIP712DomainChanged()": {
        "details": "MAY be emitted to signal that the domain could have changed."
      },
      "ProposalCanceled(uint256)": {
        "details": "Emitted when a proposal is canceled."
      },
      "ProposalCreated(uint256,address,address[],uint256[],string[],bytes[],uint256,uint256,string)": {
        "details": "Emitted when a proposal is created."
      },
      "ProposalExecuted(uint256)": {
        "details": "Emitted when a proposal is executed."
      },
      "TimelockChange(address,address)": {
        "details": "Emitted when the timelock controller used for proposal execution is modified."
      },
      "VoteCast(address,uint256,uint8,uint256,string)": {
        "details": "Emitted when a vote is cast without params. Note: `support` values should be seen as buckets. Their interpretation depends on the voting module used."
      },
      "VoteCastWithParams(address,uint256,uint8,uint256,string,bytes)": {
        "details": "Emitted when a vote is cast with params. Note: `support` values should be seen as buckets. Their interpretation depends on the voting module used. `params` are additional encoded parameters. Their interpepretation also depends on the voting module used."
      }
    },
    "kind": "dev",
    "methods": {
      "CLOCK_MODE()": {
        "details": "Machine-readable description of the clock as specified in EIP-6372."
      },
      "COUNTING_MODE()": {
        "details": "See {IGovernor-COUNTING_MODE}."
      },
      "cancel(address[],uint256[],bytes[],bytes32)": {
        "details": "See {IGovernor-cancel}."
      },
      "castVote(uint256,uint8)": {
        "details": "See {IGovernor-castVote}."
      },
      "castVoteBySig(uint256,uint8,uint8,bytes32,bytes32)": {
        "details": "See {IGovernor-castVoteBySig}."
      },
      "castVoteWithReason(uint256,uint8,string)": {
        "details": "See {IGovernor-castVoteWithReason}."
      },
      "castVoteWithReasonAndParams(uint256,uint8,string,bytes)": {
        "details": "See {IGovernor-castVoteWithReasonAndParams}."
      },
      "castVoteWithReasonAndParamsBySig(uint256,uint8,string,bytes,uint8,bytes32,bytes32)": {
        "details": "See {IGovernor-castVoteWithReasonAndParamsBySig}."
      },
      "clock()": {
        "details": "Clock (as specified in EIP-6372) is set to match the token's clock. Fallback to block numbers if the token does not implement EIP-6372."
      },
      "eip712Domain()": {
        "details": "See {EIP-5267}. _Available since v4.9._"
      },
      "execute(address[],uint256[],bytes[],bytes32)": {
        "details": "See {IGovernor-execute}."
      },
      "getVotesWithParams(address,uint256,bytes)": {
        "details": "See {IGovernor-getVotesWithParams}."
      },
      "hasVoted(uint256,address)": {
        "details": "See {IGovernor-hasVoted}."
      },
      "hashProposal(address[],uint256[],bytes[],bytes32)": {
        "details": "See {IGovernor-hashProposal}. The proposal id is produced by hashing the ABI encoded `targets` array, the `values` array, the `calldatas` array and the descriptionHash (bytes32 which itself is the keccak256 hash of the description string). This proposal id can be produced from the proposal data which is part of the {ProposalCreated} event. It can even be computed in advance, before the proposal is submitted. Note that the chainId and the governor address are not part of the proposal id computation. Consequently, the same proposal (with same operation and same description) will have the same id if submitted on multiple governors across multiple networks. This also means that in order to execute the same operation twice (on the same governor) the proposer will have to change the description in order to avoid proposal id conflicts."
      },
      "name()": {
        "details": "See {IGovernor-name}."
      },
      "onERC1155BatchReceived(address,address,uint256[],uint256[],bytes)": {
        "details": "See {IERC1155Receiver-onERC1155BatchReceived}."
      },
      "onERC1155Received(address,address,uint256,uint256,bytes)": {
        "details": "See {IERC1155Receiver-onERC1155Received}."
      },
      "onERC721Received(address,address,uint256,bytes)": {
        "details": "See {IERC721Receiver-onERC721Received}."
      },
      "proposalDeadline(uint256)": {
        "details": "See {IGovernor-proposalDeadline}."
      },
      "proposalEta(uint256)": {
        "details": "Public accessor to check the eta of a queued proposal"
      },
      "proposalProposer(uint256)": {
        "details": "Returns the account that created a given proposal."
      },
      "proposalSnapshot(uint256)": {
        "details": "See {IGovernor-proposalSnapshot}."
      },
      "proposalVotes(uint256)": {
        "details": "Accessor to the internal vote counts."
      },
      "queue(address[],uint256[],bytes[],bytes32)": {
        "details": "Function to queue a proposal to the timelock."
      },
      "quorumDenominator()": {
        "details": "Returns the quorum denominator. Defaults to 100, but may be overridden."
      },
      "quorumNumerator()": {
        "details": "Returns the current quorum numerator. See {quorumDenominator}."
      },
      "quorumNumerator(uint256)": {
        "details": "Returns the quorum numerator at a specific timepoint. See {quorumDenominator}."
      },
      "relay(address,uint256,bytes)": {
        "details": "Relays a transaction or function call to an arbitrary target. In cases where the governance executor is some contract other than the governor itself, like when using a timelock, this function can be invoked in a governance proposal to recover tokens or Ether that was sent to the governor contract by mistake. Note that if the executor is simply the governor itself, use of `relay` is redundant."
      },
      "setProposalThreshold(uint256)": {
        "details": "Update the proposal threshold. This operation can only be performed through a governance proposal. Emits a {ProposalThresholdSet} event."
      },
      "setVotingDelay(uint256)": {
        "details": "Update the voting delay. This operation can only be performed through a governance proposal. Emits a {VotingDelaySet} event."
      },
      "setVotingPeriod(uint256)": {
        "details": "Update the voting period. This operation can only be performed through a governance proposal. Emits a {VotingPeriodSet} event."
      },
      "timelock()": {
        "details": "Public accessor to check the address of the timelock"
      },
      "updateQuorumNumerator(uint256)": {
        "details": "Changes the quorum numerator. Emits a {QuorumNumeratorUpdated} event. Requirements: - Must be called through a governance proposal. - New numerator must be smaller or equal to the denominator."
      },
      "updateTimelock(address)": {
        "details": "Public endpoint to update the underlying timelock instance. Restricted to the timelock itself, so updates must be proposed, scheduled, and executed through governance proposals. CAUTION: It is not recommended to change the timelock while there are other queued governance proposals."
      },
      "version()": {
        "details": "See {IGovernor-version}."
      }
    },
    "version": 1
  },
  "userdoc": {
    "kind": "user",
    "methods": {},
    "version": 1
  },
  "storageLayout": {
    "storage": [
      {
        "astId": 9244,
        "contract": "contracts/governance_standard/GovernorContract.sol:GovernorContract",
        "label": "_nameFallback",
        "offset": 0,
        "slot": "0",
        "type": "t_string_storage"
      },
      {
        "astId": 9246,
        "contract": "contracts/governance_standard/GovernorContract.sol:GovernorContract",
        "label": "_versionFallback",
        "offset": 0,
        "slot": "1",
        "type": "t_string_storage"
      },
      {
        "astId": 557,
        "contract": "contracts/governance_standard/GovernorContract.sol:GovernorContract",
        "label": "_name",
        "offset": 0,
        "slot": "2",
        "type": "t_string_storage"
      },
      {
        "astId": 563,
        "contract": "contracts/governance_standard/GovernorContract.sol:GovernorContract",
        "label": "_proposals",
        "offset": 0,
        "slot": "3",
        "type": "t_mapping(t_uint256,t_struct(ProposalCore)555_storage)"
      },
      {
        "astId": 566,
        "contract": "contracts/governance_standard/GovernorContract.sol:GovernorContract",
        "label": "_governanceCall",
        "offset": 0,
        "slot": "4",
        "type": "t_struct(Bytes32Deque)11982_storage"
      },
      {
        "astId": 3602,
        "contract": "contracts/governance_standard/GovernorContract.sol:GovernorContract",
        "label": "_votingDelay",
        "offset": 0,
        "slot": "6",
        "type": "t_uint256"
      },
      {
        "astId": 3604,
        "contract": "contracts/governance_standard/GovernorContract.sol:GovernorContract",
        "label": "_votingPeriod",
        "offset": 0,
        "slot": "7",
        "type": "t_uint256"
      },
      {
        "astId": 3606,
        "contract": "contracts/governance_standard/GovernorContract.sol:GovernorContract",
        "label": "_proposalThreshold",
        "offset": 0,
        "slot": "8",
        "type": "t_uint256"
      },
      {
        "astId": 3394,
        "contract": "contracts/governance_standard/GovernorContract.sol:GovernorContract",
        "label": "_proposalVotes",
        "offset": 0,
        "slot": "9",
        "type": "t_mapping(t_uint256,t_struct(ProposalVote)3389_storage)"
      },
      {
        "astId": 4260,
        "contract": "contracts/governance_standard/GovernorContract.sol:GovernorContract",
        "label": "_quorumNumerator",
        "offset": 0,
        "slot": "10",
        "type": "t_uint256"
      },
      {
        "astId": 4264,
        "contract": "contracts/governance_standard/GovernorContract.sol:GovernorContract",
        "label": "_quorumNumeratorHistory",
        "offset": 0,
        "slot": "11",
        "type": "t_struct(Trace224)7194_storage"
      },
      {
        "astId": 3785,
        "contract": "contracts/governance_standard/GovernorContract.sol:GovernorContract",
        "label": "_timelock",
        "offset": 0,
        "slot": "12",
        "type": "t_contract(TimelockController)3368"
      },
      {
        "astId": 3789,
        "contract": "contracts/governance_standard/GovernorContract.sol:GovernorContract",
        "label": "_timelockIds",
        "offset": 0,
        "slot": "13",
        "type": "t_mapping(t_uint256,t_bytes32)"
      }
    ],
    "types": {
      "t_address": {
        "encoding": "inplace",
        "label": "address",
        "numberOfBytes": "20"
      },
      "t_array(t_struct(Checkpoint224)7199_storage)dyn_storage": {
        "base": "t_struct(Checkpoint224)7199_storage",
        "encoding": "dynamic_array",
        "label": "struct Checkpoints.Checkpoint224[]",
        "numberOfBytes": "32"
      },
      "t_bool": {
        "encoding": "inplace",
        "label": "bool",
        "numberOfBytes": "1"
      },
      "t_bytes24": {
        "encoding": "inplace",
        "label": "bytes24",
        "numberOfBytes": "24"
      },
      "t_bytes32": {
        "encoding": "inplace",
        "label": "bytes32",
        "numberOfBytes": "32"
      },
      "t_bytes4": {
        "encoding": "inplace",
        "label": "bytes4",
        "numberOfBytes": "4"
      },
      "t_contract(TimelockController)3368": {
        "encoding": "inplace",
        "label": "contract TimelockController",
        "numberOfBytes": "20"
      },
      "t_int128": {
        "encoding": "inplace",
        "label": "int128",
        "numberOfBytes": "16"
      },
      "t_mapping(t_address,t_bool)": {
        "encoding": "mapping",
        "key": "t_address",
        "label": "mapping(address => bool)",
        "numberOfBytes": "32",
        "value": "t_bool"
      },
      "t_mapping(t_int128,t_bytes32)": {
        "encoding": "mapping",
        "key": "t_int128",
        "label": "mapping(int128 => bytes32)",
        "numberOfBytes": "32",
        "value": "t_bytes32"
      },
      "t_mapping(t_uint256,t_bytes32)": {
        "encoding": "mapping",
        "key": "t_uint256",
        "label": "mapping(uint256 => bytes32)",
        "numberOfBytes": "32",
        "value": "t_bytes32"
      },
      "t_mapping(t_uint256,t_struct(ProposalCore)555_storage)": {
        "encoding": "mapping",
        "key": "t_uint256",
        "label": "mapping(uint256 => struct Governor.ProposalCore)",
        "numberOfBytes": "32",
        "value": "t_struct(ProposalCore)555_storage"
      },
      "t_mapping(t_uint256,t_struct(ProposalVote)3389_storage)": {
        "encoding": "mapping",
        "key": "t_uint256",
        "label": "mapping(uint256 => struct GovernorCountingSimple.ProposalVote)",
        "numberOfBytes": "32",
        "value": "t_struct(ProposalVote)3389_storage"
      },
      "t_string_storage": {
        "encoding": "bytes",
        "label": "string",
        "numberOfBytes": "32"
      },
      "t_struct(Bytes32Deque)11982_storage": {
        "encoding": "inplace",
        "label": "struct DoubleEndedQueue.Bytes32Deque",
        "members": [
          {
            "astId": 11975,
            "contract": "contracts/governance_standard/GovernorContract.sol:GovernorContract",
            "label": "_begin",
            "offset": 0,
            "slot": "0",
            "type": "t_int128"
          },
          {
            "astId": 11977,
            "contract": "contracts/governance_standard/GovernorContract.sol:GovernorContract",
            "label": "_end",
            "offset": 16,
            "slot": "0",
            "type": "t_int128"
          },
          {
            "astId": 11981,
            "contract": "contracts/governance_standard/GovernorContract.sol:GovernorContract",
            "label": "_data",
            "offset": 0,
            "slot": "1",
            "type": "t_mapping(t_int128,t_bytes32)"
          }
        ],
        "numberOfBytes": "64"
      },
      "t_struct(Checkpoint224)7199_storage": {
        "encoding": "inplace",
        "label": "struct Checkpoints.Checkpoint224",
        "members": [
          {
            "astId": 7196,
            "contract": "contracts/governance_standard/GovernorContract.sol:GovernorContract",
            "label": "_key",
            "offset": 0,
            "slot": "0",
            "type": "t_uint32"
          },
          {
            "astId": 7198,
            "contract": "contracts/governance_standard/GovernorContract.sol:GovernorContract",
            "label": "_value",
            "offset": 4,
            "slot": "0",
            "type": "t_uint224"
          }
        ],
        "numberOfBytes": "32"
      },
      "t_struct(ProposalCore)555_storage": {
        "encoding": "inplace",
        "label": "struct Governor.ProposalCore",
        "members": [
          {
            "astId": 542,
            "contract": "contracts/governance_standard/GovernorContract.sol:GovernorContract",
            "label": "voteStart",
            "offset": 0,
            "slot": "0",
            "type": "t_uint64"
          },
          {
            "astId": 544,
            "contract": "contracts/governance_standard/GovernorContract.sol:GovernorContract",
            "label": "proposer",
            "offset": 8,
            "slot": "0",
            "type": "t_address"
          },
          {
            "astId": 546,
            "contract": "contracts/governance_standard/GovernorContract.sol:GovernorContract",
            "label": "__gap_unused0",
            "offset": 28,
            "slot": "0",
            "type": "t_bytes4"
          },
          {
            "astId": 548,
            "contract": "contracts/governance_standard/GovernorContract.sol:GovernorContract",
            "label": "voteEnd",
            "offset": 0,
            "slot": "1",
            "type": "t_uint64"
          },
          {
            "astId": 550,
            "contract": "contracts/governance_standard/GovernorContract.sol:GovernorContract",
            "label": "__gap_unused1",
            "offset": 8,
            "slot": "1",
            "type": "t_bytes24"
          },
          {
            "astId": 552,
            "contract": "contracts/governance_standard/GovernorContract.sol:GovernorContract",
            "label": "executed",
            "offset": 0,
            "slot": "2",
            "type": "t_bool"
          },
          {
            "astId": 554,
            "contract": "contracts/governance_standard/GovernorContract.sol:GovernorContract",
            "label": "canceled",
            "offset": 1,
            "slot": "2",
            "type": "t_bool"
          }
        ],
        "numberOfBytes": "96"
      },
      "t_struct(ProposalVote)3389_storage": {
        "encoding": "inplace",
        "label": "struct GovernorCountingSimple.ProposalVote",
        "members": [
          {
            "astId": 3380,
            "contract": "contracts/governance_standard/GovernorContract.sol:GovernorContract",
            "label": "againstVotes",
            "offset": 0,
            "slot": "0",
            "type": "t_uint256"
          },
          {
            "astId": 3382,
            "contract": "contracts/governance_standard/GovernorContract.sol:GovernorContract",
            "label": "forVotes",
            "offset": 0,
            "slot": "1",
            "type": "t_uint256"
          },
          {
            "astId": 3384,
            "contract": "contracts/governance_standard/GovernorContract.sol:GovernorContract",
            "label": "abstainVotes",
            "offset": 0,
            "slot": "2",
            "type": "t_uint256"
          },
          {
            "astId": 3388,
            "contract": "contracts/governance_standard/GovernorContract.sol:GovernorContract",
            "label": "hasVoted",
            "offset": 0,
            "slot": "3",
            "type": "t_mapping(t_address,t_bool)"
          }
        ],
        "numberOfBytes": "128"
      },
      "t_struct(Trace224)7194_storage": {
        "encoding": "inplace",
        "label": "struct Checkpoints.Trace224",
        "members": [
          {
            "astId": 7193,
            "contract": "contracts/governance_standard/GovernorContract.sol:GovernorContract",
            "label": "_checkpoints",
            "offset": 0,
            "slot": "0",
            "type": "t_array(t_struct(Checkpoint224)7199_storage)dyn_storage"
          }
        ],
        "numberOfBytes": "32"
      },
      "t_uint224": {
        "encoding": "inplace",
        "label": "uint224",
        "numberOfBytes": "28"
      },
      "t_uint256": {
        "encoding": "inplace",
        "label": "uint256",
        "numberOfBytes": "32"
      },
      "t_uint32": {
        "encoding": "inplace",
        "label": "uint32",
        "numberOfBytes": "4"
      },
      "t_uint64": {
        "encoding": "inplace",
        "label": "uint64",
        "numberOfBytes": "8"
      }
    }
  }
}