{
  "address": "0xDc64a140Aa3E981100a9becA4E685f962f0cF6C9",
  "abi": [
    {
      "inputs": [
        {
          "internalType": "uint256",
          "name": "minDelay",
          "type": "uint256"
        },
        {
          "internalType": "address[]",
          "name": "proposers",
          "type": "address[]"
        },
        {
          "internalType": "address[]",
          "name": "executors",
          "type": "address[]"
        },
        {
          "internalType": "address",
          "name": "admin",
          "type": "address"
        }
      ],
      "stateMutability": "nonpayable",
      "type": "constructor"
    },
    {
      "anonymous": false,
      "inputs": [
        {
          "indexed": true,
          "internalType": "bytes32",
          "name": "id",
          "type": "bytes32"
        },
        {
          "indexed": true,
          "internalType": "uint256",
          "name": "index",
          "type": "uint256"
        },
        {
          "indexed": false,
          "internalType": "address",
          "name": "target",
          "type": "address"
        },
        {
          "indexed": false,
          "internalType": "uint256",
          "name": "value",
          "type": "uint256"
        },
        {
          "indexed": false,
          "internalType": "bytes",
          "name": "data",
          "type": "bytes"
        }
      ],
      "name": "CallExecuted",
      "type": "event"
    },
    {
      "anonymous": false,
      "inputs": [
        {
          "indexed": true,
          "internalType": "bytes32",
          "name": "id",
          "type": "bytes32"
        },
        {
          "indexed": false,
          "internalType": "bytes32",
          "name": "salt",
          "type": "bytes32"
        }
      ],
      "name": "CallSalt",
      "type": "event"
    },
    {
      "anonymous": false,
      "inputs": [
        {
          "indexed": true,
          "internalType": "bytes32",
          "name": "id",
          "type": "bytes32"
        },
        {
          "indexed": true,
          "internalType": "uint256",
          "name": "index",
          "type": "uint256"
        },
        {
          "indexed": false,
          "internalType": "address",
          "name": "target",
          "type": "address"
        },
        {
          "indexed": false,
          "internalType": "uint256",
          "name": "value",
          "type": "uint256"
        },
        {
          "indexed": false,
          "internalType": "bytes",
          "name": "data",
          "type": "bytes"
        },
        {
          "indexed": false,
          "internalType": "bytes32",
          "name": "predecessor",
          "type": "bytes32"
        },
        {
          "indexed": false,
          "internalType": "uint256",
          "name": "delay",
          "type": "uint256"
        }
      ],
      "name": "CallScheduled",
      "type": "event"
    },
    {
      "anonymous": false,
      "inputs": [
        {
          "indexed": true,
          "internalType": "bytes32",
          "name": "id",
          "type": "bytes32"
        }
      ],
      "name": "Cancelled",
      "type": "event"
    },
    {
      "anonymous": false,
      "inputs": [
        {
          "indexed": false,
          "internalType": "uint256",
          "name": "oldDuration",
          "type": "uint256"
        },
        {
          "indexed": false,
          "internalType": "uint256",
          "name": "newDuration",
          "type": "uint256"
        }
      ],
      "name": "MinDelayChange",
      "type": "event"
    },
    {
      "anonymous": false,
      "inputs": [
        {
          "indexed": true,
          "internalType": "bytes32",
          "name": "role",
          "type": "bytes32"
        },
        {
          "indexed": true,
          "internalType": "bytes32",
          "name": "previousAdminRole",
          "type": "bytes32"
        },
        {
          "indexed": true,
          "internalType": "bytes32",
          "name": "newAdminRole",
          "type": "bytes32"
        }
      ],
      "name": "RoleAdminChanged",
      "type": "event"
    },
    {
      "anonymous": false,
      "inputs": [
        {
          "indexed": true,
          "internalType": "bytes32",
          "name": "role",
          "type": "bytes32"
        },
        {
          "indexed": true,
          "internalType": "address",
          "name": "account",
          "type": "address"
        },
        {
          "indexed": true,
          "internalType": "address",
          "name": "sender",
          "type": "address"
        }
      ],
      "name": "RoleGranted",
      "type": "event"
    },
    {
      "anonymous": false,
      "inputs": [
        {
          "indexed": true,
          "internalType": "bytes32",
          "name": "role",
          "type": "bytes32"
        },
        {
          "indexed": true,
          "internalType": "address",
          "name": "account",
          "type": "address"
        },
        {
          "indexed": true,
          "internalType": "address",
          "name": "sender",
          "type": "address"
        }
      ],
      "name": "RoleRevoked",
      "type": "event"
    },
    {
      "inputs": [],
      "name": "CANCELLER_ROLE",
      "outputs": [
        {
          "internalType": "bytes32",
          "name": "",
          "type": "bytes32"
        }
      ],
      "stateMutability": "view",
      "type": "function"
    },
    {
      "inputs": [],
      "name": "DEFAULT_ADMIN_ROLE",
      "outputs": [
        {
          "internalType": "bytes32",
          "name": "",
          "type": "bytes32"
        }
      ],
      "stateMutability": "view",
      "type": "function"
    },
    {
      "inputs": [],
      "name": "EXECUTOR_ROLE",
      "outputs": [
        {
          "internalType": "bytes32",
          "name": "",
          "type": "bytes32"
        }
      ],
      "stateMutability": "view",
      "type": "function"
    },
    {
      "inputs": [],
      "name": "PROPOSER_ROLE",
      "outputs": [
        {
          "internalType": "bytes32",
          "name": "",
          "type": "bytes32"
        }
      ],
      "stateMutability": "view",
      "type": "function"
    },
    {
      "inputs": [],
      "name": "TIMELOCK_ADMIN_ROLE",
      "outputs": [
        {
          "internalType": "bytes32",
          "name": "",
          "type": "bytes32"
        }
      ],
      "stateMutability": "view",
      "type": "function"
    },
    {
      "inputs": [
        {
          "internalType": "bytes32",
          "name": "id",
          "type": "bytes32"
        }
      ],
      "name": "cancel",
      "outputs": [],
      "stateMutability": "nonpayable",
      "type": "function"
    },
    {
      "inputs": [
        {
          "internalType": "address",
          "name": "target",
          "type": "address"
        },
        {
          "internalType": "uint256",
          "name": "value",
          "type": "uint256"
        },
        {
          "internalType": "bytes",
          "name": "payload",
          "type": "bytes"
        },
        {
          "internalType": "bytes32",
          "name": "predecessor",
          "type": "bytes32"
        },
        {
          "internalType": "bytes32",
          "name": "salt",
          "type": "bytes32"
        }
      ],
      "name": "execute",
      "outputs": [],
      "stateMutability": "payable",
      "type": "function"
    },
    {
      "inputs": [
        {
          "internalType": "address[]",
          "name": "targets",
          "type": "address[]"
        },
        {
          "internalType": "uint256[]",
          "name": "values",
          "type": "uint256[]"
        },
        {
          "internalType": "bytes[]",
          "name": "payloads",
          "type": "bytes[]"
        },
        {
          "internalType": "bytes32",
          "name": "predecessor",
          "type": "bytes32"
        },
        {
          "internalType": "bytes32",
          "name": "salt",
          "type": "bytes32"
        }
      ],
      "name": "executeBatch",
      "outputs": [],
      "stateMutability": "payable",
      "type": "function"
    },
    {
      "inputs": [],
      "name": "getMinDelay",
      "outputs": [
        {
          "internalType": "uint256",
          "name": "",
          "type": "uint256"
        }
      ],
      "stateMutability": "view",
      "type": "function"
    },
    {
      "inputs": [
        {
          "internalType": "bytes32",
          "name": "role",
          "type": "bytes32"
        }
      ],
      "name": "getRoleAdmin",
      "outputs": [
        {
          "internalType": "bytes32",
          "name": "",
          "type": "bytes32"
        }
      ],
      "stateMutability": "view",
      "type": "function"
    },
    {
      "inputs": [
        {
          "internalType": "bytes32",
          "name": "id",
          "type": "bytes32"
        }
      ],
      "name": "getTimestamp",
      "outputs": [
        {
          "internalType": "uint256",
          "name": "",
          "type": "uint256"
        }
      ],
      "stateMutability": "view",
      "type": "function"
    },
    {
      "inputs": [
        {
          "internalType": "bytes32",
          "name": "role",
          "type": "bytes32"
        },
        {
          "internalType": "address",
          "name": "account",
          "type": "address"
        }
      ],
      "name": "grantRole",
      "outputs": [],
      "stateMutability": "nonpayable",
      "type": "function"
    },
    {
      "inputs": [
        {
          "internalType": "bytes32",
          "name": "role",
          "type": "bytes32"
        },
        {
          "internalType": "address",
          "name": "account",
          "type": "address"
        }
      ],
      "name": "hasRole",
      "outputs": [
        {
          "internalType": "bool",
          "name": "",
          "type": "bool"
        }
      ],
      "stateMutability": "view",
      "type": "function"
    },
    {
      "inputs": [
        {
          "internalType": "address",
          "name": "target",
          "type": "address"
        },
        {
          "internalType": "uint256",
          "name": "value",
          "type": "uint256"
        },
        {
          "internalType": "bytes",
          "name": "data",
          "type": "bytes"
        },
        {
          "internalType": "bytes32",
          "name": "predecessor",
          "type": "bytes32"
        },
        {
          "internalType": "bytes32",
          "name": "salt",
          "type": "bytes32"
        }
      ],
      "name": "hashOperation",
      "outputs": [
        {
          "internalType": "bytes32",
          "name": "",
          "type": "bytes32"
        }
      ],
      "stateMutability": "pure",
      "type": "function"
    },
    {
      "inputs": [
        {
          "internalType": "address[]",
          "name": "targets",
          "type": "address[]"
        },
        {
          "internalType": "uint256[]",
          "name": "values",
          "type": "uint256[]"
        },
        {
          "internalType": "bytes[]",
          "name": "payloads",
          "type": "bytes[]"
        },
        {
          "internalType": "bytes32",
          "name": "predecessor",
          "type": "bytes32"
        },
        {
          "internalType": "bytes32",
          "name": "salt",
          "type": "bytes32"
        }
      ],
      "name": "hashOperationBatch",
      "outputs": [
        {
          "internalType": "bytes32",
          "name": "",
          "type": "bytes32"
        }
      ],
      "stateMutability": "pure",
      "type": "function"
    },
    {
      "inputs": [
        {
          "internalType": "bytes32",
          "name": "id",
          "type": "bytes32"
        }
      ],
      "name": "isOperation",
      "outputs": [
        {
          "internalType": "bool",
          "name": "",
          "type": "bool"
        }
      ],
      "stateMutability": "view",
      "type": "function"
    },
    {
      "inputs": [
        {
          "internalType": "bytes32",
          "name": "id",
          "type": "bytes32"
        }
      ],
      "name": "isOperationDone",
      "outputs": [
        {
          "internalType": "bool",
          "name": "",
          "type": "bool"
        }
      ],
      "stateMutability": "view",
      "type": "function"
    },
    {
      "inputs": [
        {
          "internalType": "bytes32",
          "name": "id",
          "type": "bytes32"
        }
      ],
      "name": "isOperationPending",
      "outputs": [
        {
          "internalType": "bool",
          "name": "",
          "type": "bool"
        }
      ],
      "stateMutability": "view",
      "type": "function"
    },
    {
      "inputs": [
        {
          "internalType": "bytes32",
          "name": "id",
          "type": "bytes32"
        }
      ],
      "name": "isOperationReady",
      "outputs": [
        {
          "internalType": "bool",
          "name": "",
          "type": "bool"
        }
      ],
      "stateMutability": "view",
      "type": "function"
    },
    {
      "inputs": [
        {
          "internalType": "address",
          "name": "",
          "type": "address"
        },
        {
          "internalType": "address",
          "name": "",
          "type": "address"
        },
        {
          "internalType": "uint256[]",
          "name": "",
          "type": "uint256[]"
        },
        {
          "internalType": "uint256[]",
          "name": "",
          "type": "uint256[]"
        },
        {
          "internalType": "bytes",
          "name": "",
          "type": "bytes"
        }
      ],
      "name": "onERC1155BatchReceived",
      "outputs": [
        {
          "internalType": "bytes4",
          "name": "",
          "type": "bytes4"
        }
      ],
      "stateMutability": "nonpayable",
      "type": "function"
    },
    {
      "inputs": [
        {
          "internalType": "address",
          "name": "",
          "type": "address"
        },
        {
          "internalType": "address",
          "name": "",
          "type": "address"
        },
        {
          "internalType": "uint256",
          "name": "",
          "type": "uint256"
        },
        {
          "internalType": "uint256",
          "name": "",
          "type": "uint256"
        },
        {
          "internalType": "bytes",
          "name": "",
          "type": "bytes"
        }
      ],
      "name": "onERC1155Received",
      "outputs": [
        {
          "internalType": "bytes4",
          "name": "",
          "type": "bytes4"
        }
      ],
      "stateMutability": "nonpayable",
      "type": "function"
    },
    {
      "inputs": [
        {
          "internalType": "address",
          "name": "",
          "type": "address"
        },
        {
          "internalType": "address",
          "name": "",
          "type": "address"
        },
        {
          "internalType": "uint256",
          "name": "",
          "type": "uint256"
        },
        {
          "internalType": "bytes",
          "name": "",
          "type": "bytes"
        }
      ],
      "name": "onERC721Received",
      "outputs": [
        {
          "internalType": "bytes4",
          "name": "",
          "type": "bytes4"
        }
      ],
      "stateMutability": "nonpayable",
      "type": "function"
    },
    {
      "inputs": [
        {
          "internalType": "bytes32",
          "name": "role",
          "type": "bytes32"
        },
        {
          "internalType": "address",
          "name": "account",
          "type": "address"
        }
      ],
      "name": "renounceRole",
      "outputs": [],
      "stateMutability": "nonpayable",
      "type": "function"
    },
    {
      "inputs": [
        {
          "internalType": "bytes32",
          "name": "role",
          "type": "bytes32"
        },
        {
          "internalType": "address",
          "name": "account",
          "type": "address"
        }
      ],
      "name": "revokeRole",
      "outputs": [],
      "stateMutability": "nonpayable",
      "type": "function"
    },
    {
      "inputs": [
        {
          "internalType": "address",
          "name": "target",
          "type": "address"
        },
        {
          "internalType": "uint256",
          "name": "value",
          "type": "uint256"
        },
        {
          "internalType": "bytes",
          "name": "data",
          "type": "bytes"
        },
        {
          "internalType": "bytes32",
          "name": "predecessor",
          "type": "bytes32"
        },
        {
          "internalType": "bytes32",
          "name": "salt",
          "type": "bytes32"
        },
        {
          "internalType": "uint256",
          "name": "delay",
          "type": "uint256"
        }
      ],
      "name": "schedule",
      "outputs": [],
      "stateMutability": "nonpayable",
      "type": "function"
    },
    {
      "inputs": [
        {
          "internalType": "address[]",
          "name": "targets",
          "type": "address[]"
        },
        {
          "internalType": "uint256[]",
          "name": "values",
          "type": "uint256[]"
        },
        {
          "internalType": "bytes[]",
          "name": "payloads",
          "type": "bytes[]"
        },
        {
          "internalType": "bytes32",
          "name": "predecessor",
          "type": "bytes32"
        },
        {
          "internalType": "bytes32",
          "name": "salt",
          "type": "bytes32"
        },
        {
          "internalType": "uint256",
          "name": "delay",
          "type": "uint256"
        }
      ],
      "name": "scheduleBatch",
      "outputs": [],
      "stateMutability": "nonpayable",
      "type": "function"
    },
    {
      "inputs": [
        {
          "internalType": "bytes4",
          "name": "interfaceId",
          "type": "bytes4"
        }
      ],
      "name": "supportsInterface",
      "outputs": [
        {
          "internalType": "bool",
          "name": "",
          "type": "bool"
        }
      ],
      "stateMutability": "view",
      "type": "function"
    },
    {
      "inputs": [
        {
          "internalType": "uint256",
          "name": "newDelay",
          "type": "uint256"
        }
      ],
      "name": "updateDelay",
      "outputs": [],
      "stateMutability": "nonpayable",
      "type": "function"
    },
    {
      "stateMutability": "payable",
      "type": "receive"
    }
  ],
  "transactionHash": "0xc768a9ae4e08f6012f28819aec7f1fdd19a767833e57cb4722e7afbd1a437fae",
  "args": [
    10,
    [],
    [],
    "0xf39Fd6e51aad88F6F4ce6aB8827279cffFb92266"
  ],
  "numDeployments": 1,
  "solcInputHash": "1be2c8f60e43cbf5fe36e24742c901ee",
  "bytecode": "0x604060808152346200041b57620022d890813803806200001f8162000420565b93843982016080838203126200041b578251602080850151919490916001600160401b03908181116200041b57846200005a91840162000471565b93858301519182116200041b576200007b6060916200008393850162000471565b92016200045c565b7f5f58e3a2316349923ce3780f8d587db2d72378aed66a8261c916544fa6846ca56000948186528585526001928388882001918383549355837fbd79b86ffe0ab8e8776151514217cd7cacd52c909f66475c3af44e129f0b00ff9381858b80a4848080868b8d887fb09aa5aeb3702cfd50b6b62bc4532604938f21248a27a1d5ca736082b6819cc194859283855284200192848454945580a4868b8d7fd8aa0f3194971a2a116679f7c2090f6939c8d4e01a2a8d7e41d55e5351469e639889835283868385200181815491558b838680a47ffd643c72710c63c0180259aba6b2d05451e3591a24e58b62239378085726f78395869283855284200192848454945580a4868b528b8b20308c528a528a8c60ff9889828420541615620003e4575b6001600160a01b03978816918d836200038f575b8493509150865b6200029c575b50909550505050505b62000214575b887f11c24f4ead16507c69ac467fbd5e4eed5fb5c699626d2cc6d66421df253886d5818a8d8b816002558351928352820152a151611d839081620005358239f35b85518110156200029657906200025682826200023288958a62000509565b5116858b528a8a528b8b20818c528a52868c8c205416156200025e575b50620004e3565b9091620001cd565b858b528a8a528b8b20818c528a528b8b20805460ff191686179055339086600080516020620022b88339815191528d80a4386200024f565b620001d3565b875184101562000389579083929189620002bb6200030e968b62000509565b511686845283835281842081855283528c82852054161562000351575b5089620002e6858b62000509565b51169187845283815281842083855281528c82852054161562000318575b50505050620004e3565b8b8b8e86620001be565b878452838152818420908385525282208760ff1982541617905585600080516020620022b8833981519152339380a48c388f8e62000304565b8684528383528184208185528352818420805460ff19168a179055339087600080516020620022b88339815191528680a438620002d8565b620001c4565b8490838252528d81852090848652528d8b8286205416620001b7578285528490528084208385528e528320805460ff1916871790553392600080516020620022b88339815191529080a48a38808e8d620001b7565b808352828d528183203084528d528183208660ff19825416179055333082600080516020620022b88339815191528680a4620001a3565b600080fd5b6040519190601f01601f191682016001600160401b038111838210176200044657604052565b634e487b7160e01b600052604160045260246000fd5b51906001600160a01b03821682036200041b57565b81601f820112156200041b578051916001600160401b03831162000446578260051b6020928380620004a581850162000420565b8097815201928201019283116200041b578301905b828210620004c9575050505090565b838091620004d7846200045c565b815201910190620004ba565b6000198114620004f35760010190565b634e487b7160e01b600052601160045260246000fd5b80518210156200051e5760209160051b010190565b634e487b7160e01b600052603260045260246000fdfe608060405260048036101561001d575b50361561001b57600080fd5b005b600090813560e01c90816301d5062a14610e0557816301ffc9a714610d9557816307bd026514610d5a5781630d3cf6fc14610d1f578163134008d314610c6b57816313bc9f2014610c4d578163150b7a0214610bf6578163248a9ca314610bca5781632ab0f52914610b9d5781632f2ff15d14610aef57816331d5075014610ac357816336568abe14610a32578163584b153e146109fb57816364d623531461094d5781638065657f1461092d5781638f2a0bb0146107df5781638f61f4f5146107a457816391d148541461075c578163a217fddf14610740578163b08e51c014610705578163b1c5f427146106da578163bc197c811461064e578163c4d252f51461036b578163d45c443514610341578163d547741f14610302578163e38335e5146101d9578163f23a6e611461017a575063f27a0c920361000f57346101775780600319360112610177576020600254604051908152f35b80fd5b9050346101d55760a03660031901126101d557610195610ee3565b5061019e610efe565b5060843567ffffffffffffffff81116101d1576101be9250369101611001565b5060405163f23a6e6160e01b8152602090f35b8280fd5b5080fd5b8261025e60ff6040610257846101ee36611079565b92848688849f989c979a9e8f90859f8e899f7fd8aa0f3194971a2a116679f7c2090f6939c8d4e01a2a8d7e41d55e5351469e63909a999a5280602052818120818052602052205416156102f4575b61024784831461185a565b61025286831461185a565b6116e1565b9788611b79565b875b818110610274578861027189611c0f565b80f35b8080897fc2617efa69bab66782fa219543714338489c4e9e178271560a91b82c3f612b5889896102e76102ce868f6102c7828f928f908f6102ef9f6102bc916102c1936118d7565b6118fd565b976118d7565b3595611911565b906102db82828787611a6b565b60405194859485611a43565b0390a36118b2565b610260565b6102fd33611367565b61023c565b9050346101d55760403660031901126101d5576102719035610322610efe565b908084528360205261033c600160408620015433906114b8565b6115d1565b9050346101d55760203660031901126101d557602091604091358152600183522054604051908152f35b9050346101d5576020806003193601126101d1578135917ffd643c72710c63c0180259aba6b2d05451e3591a24e58b62239378085726f78380855284835260408520338652835260ff6040862054161561046e57506103d883600052600160205260016040600020541190565b156104125750600190828452528160408120557fbaa1eb22f2a492ba1a5fea61b8df4d27c6c8b5f3971e63bb58fa14ff72eedb708280a280f35b6084916040519162461bcd60e51b8352820152603160248201527f54696d656c6f636b436f6e74726f6c6c65723a206f7065726174696f6e2063616044820152701b9b9bdd0818994818d85b98d95b1b1959607a1b6064820152fd5b8461047833611c3e565b916040519061048682610f91565b6042825285820192606036853782511561063b57603084538251906001918210156106285790607860218501536041915b8183116105bd5750505061057b576044939291610549604861056d9360405193849161053a8b84019876020b1b1b2b9b9a1b7b73a3937b61d1030b1b1b7bab73a1604d1b8a526105118d8251928391603789019101611142565b8401917001034b99036b4b9b9b4b733903937b6329607d1b603784015251809386840190611142565b01036028810184520182610fc3565b60405195869462461bcd60e51b865285015251809281602486015285850190611142565b601f01601f19168101030190fd5b60648486806040519262461bcd60e51b845283015260248201527f537472696e67733a20686578206c656e67746820696e73756666696369656e746044820152fd5b909192600f81166010811015610615576f181899199a1a9b1b9c1cb0b131b232b360811b901a6105ed8587611c2d565b53871c928015610602576000190191906104b7565b634e487b7160e01b825260118852602482fd5b634e487b7160e01b835260328952602483fd5b634e487b7160e01b815260328752602490fd5b634e487b7160e01b815260328652602490fd5b9050346101d55760a03660031901126101d557610669610ee3565b50610672610efe565b5067ffffffffffffffff6044358181116106d65761069390369084016110db565b506064358181116106d6576106ab90369084016110db565b506084359081116101d1576106c39250369101611001565b5060405163bc197c8160e01b8152602090f35b8380fd5b82346101775760206106fd6106ee36611079565b969590959491949392936116e1565b604051908152f35b823461017757806003193601126101775760206040517ffd643c72710c63c0180259aba6b2d05451e3591a24e58b62239378085726f7838152f35b8234610177578060031936011261017757602090604051908152f35b9050346101d55760403660031901126101d557604060209260ff9261077f610efe565b903582528185526001600160a01b038383209116825284522054166040519015158152f35b823461017757806003193601126101775760206040517fb09aa5aeb3702cfd50b6b62bc4532604938f21248a27a1d5ca736082b6819cc18152f35b9050346101d55760c03660031901126101d55767ffffffffffffffff9080358281116106d6576108129036908301611048565b926024358181116109295761082a9036908501611048565b9190936044359182116109255761084684918693369101611048565b6064949194359161086889848489856084359d8e9560a4359b61023c33611165565b98610873858b611953565b898b5b8281106108ba578c828c80610889578280f35b60207f20fda5fd27a1ea7bf5b9567f143ac5470bb059374a27e8f67cb44f946f6d038791604051908152a281808280f35b8061091e927f4cf4410cc57040e44862ef0f45f3dd5a5e02db8eb8add648d4b0e236f1d07dca8b8b6102e78f8c6109118f928e61090a8f8f906109046102bc8f80979481956118d7565b996118d7565b3597611911565b9060405196879687611821565b8a90610876565b8680fd5b8580fd5b82346101775760206106fd61094136610f42565b9493909392919261168b565b9050346101d55760203660031901126101d5578035903033036109a357507f11c24f4ead16507c69ac467fbd5e4eed5fb5c699626d2cc6d66421df253886d560406002548151908152836020820152a160025580f35b60849060206040519162461bcd60e51b8352820152602b60248201527f54696d656c6f636b436f6e74726f6c6c65723a2063616c6c6572206d7573742060448201526a62652074696d656c6f636b60a81b6064820152fd5b8234610177576020366003190112610177576020610a288335600052600160205260016040600020541190565b6040519015158152f35b823461017757604036600319011261017757610a4c610efe565b336001600160a01b03821603610a67576102719192356115d1565b60405162461bcd60e51b8152602081850152602f60248201527f416363657373436f6e74726f6c3a2063616e206f6e6c792072656e6f756e636560448201526e103937b632b9903337b91039b2b63360891b6064820152608490fd5b8234610177576020366003190112610177576020610a2883356000526001602052604060002054151590565b9050346101d55760403660031901126101d55735610b0b610efe565b81835282602052610b24600160408520015433906114b8565b818352826020526001600160a01b036040842091169081845260205260ff60408420541615610b51578280f35b818352826020526040832081845260205260408320600160ff1982541617905533917f2f8788117e7eff1d82e926ec794901d17c78024a50270940304540a733656f0d8480a438808280f35b8234610177576020366003190112610177576020610a288335600052600160205260016040600020541490565b9050346101d55760203660031901126101d5576040602092600192358152808452200154604051908152f35b9050346101d55760803660031901126101d557610c11610ee3565b50610c1a610efe565b5060643567ffffffffffffffff81116101d157610c3a9250369101611001565b50604051630a85bd0160e11b8152602090f35b8234610177576020366003190112610177576020610a288335611646565b82610271610cfd82610d097fc2617efa69bab66782fa219543714338489c4e9e178271560a91b82c3f612b58610cf4610ca336610f42565b7fd8aa0f3194971a2a116679f7c2090f6939c8d4e01a2a8d7e41d55e5351469e638a9995979299949394528960205260408a208a805260205260ff60408b20541615610d11575b888484898961168b565b98899788611b79565b6102db82828787611a6b565b0390a3611c0f565b610d1a33611367565b610cea565b823461017757806003193601126101775760206040517f5f58e3a2316349923ce3780f8d587db2d72378aed66a8261c916544fa6846ca58152f35b823461017757806003193601126101775760206040517fd8aa0f3194971a2a116679f7c2090f6939c8d4e01a2a8d7e41d55e5351469e638152f35b9050346101d55760203660031901126101d5573563ffffffff60e01b81168091036101d557602090630271189760e51b8114908115610dda575b506040519015158152f35b637965db0b60e01b811491508115610df4575b5082610dcf565b6301ffc9a760e01b14905082610ded565b9050346101d55760c03660031901126101d557610e20610ee3565b8260243560443567ffffffffffffffff81116101d1577f4cf4410cc57040e44862ef0f45f3dd5a5e02db8eb8add648d4b0e236f1d07dca94610e6491369101610f14565b94909160643594610ea66084359660a43590610e7f33611165565b610e8d89828c8a898961168b565b998a97610e9a848a611953565b60405196879687611821565b0390a380610eb2578280f35b60207f20fda5fd27a1ea7bf5b9567f143ac5470bb059374a27e8f67cb44f946f6d038791604051908152a238808280f35b600435906001600160a01b0382168203610ef957565b600080fd5b602435906001600160a01b0382168203610ef957565b9181601f84011215610ef95782359167ffffffffffffffff8311610ef95760208381860195010111610ef957565b60a0600319820112610ef9576004356001600160a01b0381168103610ef95791602435916044359067ffffffffffffffff8211610ef957610f8591600401610f14565b90916064359060843590565b6080810190811067ffffffffffffffff821117610fad57604052565b634e487b7160e01b600052604160045260246000fd5b90601f8019910116810190811067ffffffffffffffff821117610fad57604052565b67ffffffffffffffff8111610fad57601f01601f191660200190565b81601f82011215610ef95780359061101882610fe5565b926110266040519485610fc3565b82845260208383010111610ef957816000926020809301838601378301015290565b9181601f84011215610ef95782359167ffffffffffffffff8311610ef9576020808501948460051b010111610ef957565b9060a0600319830112610ef95767ffffffffffffffff600435818111610ef957836110a691600401611048565b93909392602435838111610ef957826110c191600401611048565b93909392604435918211610ef957610f8591600401611048565b9080601f83011215610ef95781359067ffffffffffffffff8211610fad578160051b6040519360209361111085840187610fc3565b85528380860192820101928311610ef9578301905b828210611133575050505090565b81358152908301908301611125565b60005b8381106111555750506000910152565b8181015183820152602001611145565b6001600160a01b031660008181527f3412d5605ac6cd444957cedb533e5dacad6378b4bc819ebe3652188a665066d5602090815260408083205490937fb09aa5aeb3702cfd50b6b62bc4532604938f21248a27a1d5ca736082b6819cc19160ff16156111d2575050505050565b6111db90611c3e565b908451906111e882610f91565b6042825283820194606036873782511561135357603086538251906001918210156113535790607860218501536041915b8183116112e5575050506112a3578461127f604861056d9360449798519889916112708984019876020b1b1b2b9b9a1b7b73a3937b61d1030b1b1b7bab73a1604d1b8a52610511815180928d603789019101611142565b01036028810189520187610fc3565b5194859362461bcd60e51b8552600485015251809281602486015285850190611142565b60648386519062461bcd60e51b825280600483015260248201527f537472696e67733a20686578206c656e67746820696e73756666696369656e746044820152fd5b909192600f8116601081101561133f576f181899199a1a9b1b9c1cb0b131b232b360811b901a6113158587611c2d565b5360041c92801561132b57600019019190611219565b634e487b7160e01b82526011600452602482fd5b634e487b7160e01b83526032600452602483fd5b634e487b7160e01b81526032600452602490fd5b6001600160a01b031660008181527fdae2aa361dfd1ca020a396615627d436107c35eff9fe7738a3512819782d7069602090815260408083205490937fd8aa0f3194971a2a116679f7c2090f6939c8d4e01a2a8d7e41d55e5351469e639160ff16156113d4575050505050565b6113dd90611c3e565b908451906113ea82610f91565b6042825283820194606036873782511561135357603086538251906001918210156113535790607860218501536041915b818311611472575050506112a3578461127f604861056d9360449798519889916112708984019876020b1b1b2b9b9a1b7b73a3937b61d1030b1b1b7bab73a1604d1b8a52610511815180928d603789019101611142565b909192600f8116601081101561133f576f181899199a1a9b1b9c1cb0b131b232b360811b901a6114a28587611c2d565b5360041c92801561132b5760001901919061141b565b6000908082526020908282526040936001600160a01b03858520911690818552835260ff8585205416156114ed575050505050565b6114f690611c3e565b9084519061150382610f91565b6042825283820194606036873782511561135357603086538251906001918210156113535790607860218501536041915b81831161158b575050506112a3578461127f604861056d9360449798519889916112708984019876020b1b1b2b9b9a1b7b73a3937b61d1030b1b1b7bab73a1604d1b8a52610511815180928d603789019101611142565b909192600f8116601081101561133f576f181899199a1a9b1b9c1cb0b131b232b360811b901a6115bb8587611c2d565b5360041c92801561132b57600019019190611534565b90600091808352826020526001600160a01b036040842092169182845260205260ff60408420541661160257505050565b80835282602052604083208284526020526040832060ff1981541690557ff6391f5c32d9c69d2a47ea670b442974b53935d1edc7fd64eb21e047a839171b339380a4565b6000526001602052604060002054600181119081611662575090565b905042101590565b908060209392818452848401376000828201840152601f01601f1916010190565b946116c26116db949592936040519687956001600160a01b03602088019a168a52604087015260a0606087015260c086019161166a565b91608084015260a083015203601f198101835282610fc3565b51902090565b969294909695919560405196602091828901998060c08b0160a08d525260e08a01919060005b8181106117f857505050601f19898203810160408b0152888252976001600160fb1b038111610ef9579089969495939897929160051b80928a830137019380888601878703606089015252604085019460408260051b82010195836000925b84841061178e575050505050506116db9550608084015260a083015203908101835282610fc3565b9193969850919398999496603f198282030184528935601e1984360301811215610ef957830186810191903567ffffffffffffffff8111610ef9578036038313610ef9576117e18892839260019561166a565b9b0194019401918b98969394919a9997959a611766565b9091928335906001600160a01b038216809203610ef95790815285019285019190600101611707565b929093611850926001600160a01b0360809699989799168552602085015260a0604085015260a084019161166a565b9460608201520152565b1561186157565b60405162461bcd60e51b815260206004820152602360248201527f54696d656c6f636b436f6e74726f6c6c65723a206c656e677468206d69736d616044820152620e8c6d60eb1b6064820152608490fd5b60001981146118c15760010190565b634e487b7160e01b600052601160045260246000fd5b91908110156118e75760051b0190565b634e487b7160e01b600052603260045260246000fd5b356001600160a01b0381168103610ef95790565b91908110156118e75760051b81013590601e1981360301821215610ef957019081359167ffffffffffffffff8311610ef9576020018236038113610ef9579190565b9061196b826000526001602052604060002054151590565b6119e6576002548110611992574201908142116118c1576000526001602052604060002055565b60405162461bcd60e51b815260206004820152602660248201527f54696d656c6f636b436f6e74726f6c6c65723a20696e73756666696369656e746044820152652064656c617960d01b6064820152608490fd5b60405162461bcd60e51b815260206004820152602f60248201527f54696d656c6f636b436f6e74726f6c6c65723a206f7065726174696f6e20616c60448201526e1c9958591e481cd8da19591d5b1959608a1b6064820152608490fd5b611a6894926001600160a01b036060931682526020820152816040820152019161166a565b90565b90926000938493826040519384928337810185815203925af13d15611b15573d611a9481610fe5565b90611aa26040519283610fc3565b8152600060203d92013e5b15611ab457565b60405162461bcd60e51b815260206004820152603360248201527f54696d656c6f636b436f6e74726f6c6c65723a20756e6465726c79696e6720746044820152721c985b9cd858dd1a5bdb881c995d995c9d1959606a1b6064820152608490fd5b611aad565b15611b2157565b60405162461bcd60e51b815260206004820152602a60248201527f54696d656c6f636b436f6e74726f6c6c65723a206f7065726174696f6e206973604482015269206e6f7420726561647960b01b6064820152608490fd5b611b85611b8a91611646565b611b1a565b8015908115611bf0575b5015611b9c57565b60405162461bcd60e51b815260206004820152602660248201527f54696d656c6f636b436f6e74726f6c6c65723a206d697373696e6720646570656044820152656e64656e637960d01b6064820152608490fd5b611c099150600052600160205260016040600020541490565b38611b94565b611c1b611b8582611646565b60005260016020526001604060002055565b9081518110156118e7570160200190565b604051906060820182811067ffffffffffffffff821117610fad57604052602a82526020820160403682378251156118e7576030905381516001908110156118e757607860218401536029905b808211611cdf575050611c9b5790565b606460405162461bcd60e51b815260206004820152602060248201527f537472696e67733a20686578206c656e67746820696e73756666696369656e746044820152fd5b9091600f81166010811015611d38576f181899199a1a9b1b9c1cb0b131b232b360811b901a611d0e8486611c2d565b5360041c918015611d23576000190190611c8b565b60246000634e487b7160e01b81526011600452fd5b60246000634e487b7160e01b81526032600452fdfea26469706673582212209645d2efaecf5d9177ac2f1a9340f5d526b1261c78a626c15444e01ac945b87264736f6c634300081300332f8788117e7eff1d82e926ec794901d17c78024a50270940304540a733656f0d",
  "devdoc": {
    "events": {
      "CallExecuted(bytes32,uint256,address,uint256,bytes)": {
        "details": "Emitted when a call is performed as part of operation `id`."
      },
      "CallSalt(bytes32,bytes32)": {
        "details": "Emitted when new proposal is scheduled with non-zero salt."
      },
      "CallScheduled(bytes32,uint256,address,uint256,bytes,bytes32,uint256)": {
        "details": "Emitted when a call is scheduled as part of operation `id`."
      },
      "Cancelled(bytes32)": {
        "details": "Emitted when operation `id` is cancelled."
      },
      "MinDelayChange(uint256,uint256)": {
        "details": "Emitted when the minimum delay for future operations is modified."
      },
      "RoleAdminChanged(bytes32,bytes32,bytes32)": {
        "details": "Emitted when `newAdminRole` is set as ``role``'s admin role, replacing `previousAdminRole` `DEFAULT_ADMIN_ROLE` is the starting admin for all roles, despite {RoleAdminChanged} not being emitted signaling this. _Available since v3.1._"
      },
      "RoleGranted(bytes32,address,address)": {
        "details": "Emitted when `account` is granted `role`. `sender` is the account that originated the contract call, an admin role bearer except when using {AccessControl-_setupRole}."
      },
      "RoleRevoked(bytes32,address,address)": {
        "details": "Emitted when `account` is revoked `role`. `sender` is the account that originated the contract call:   - if using `revokeRole`, it is the admin role bearer   - if using `renounceRole`, it is the role bearer (i.e. `account`)"
      }
    },
    "kind": "dev",
    "methods": {
      "cancel(bytes32)": {
        "details": "Cancel an operation. Requirements: - the caller must have the 'canceller' role."
      },
      "execute(address,uint256,bytes,bytes32,bytes32)": {
        "details": "Execute an (ready) operation containing a single transaction. Emits a {CallExecuted} event. Requirements: - the caller must have the 'executor' role."
      },
      "executeBatch(address[],uint256[],bytes[],bytes32,bytes32)": {
        "details": "Execute an (ready) operation containing a batch of transactions. Emits one {CallExecuted} event per transaction in the batch. Requirements: - the caller must have the 'executor' role."
      },
      "getMinDelay()": {
        "details": "Returns the minimum delay for an operation to become valid. This value can be changed by executing an operation that calls `updateDelay`."
      },
      "getRoleAdmin(bytes32)": {
        "details": "Returns the admin role that controls `role`. See {grantRole} and {revokeRole}. To change a role's admin, use {_setRoleAdmin}."
      },
      "getTimestamp(bytes32)": {
        "details": "Returns the timestamp at which an operation becomes ready (0 for unset operations, 1 for done operations)."
      },
      "grantRole(bytes32,address)": {
        "details": "Grants `role` to `account`. If `account` had not been already granted `role`, emits a {RoleGranted} event. Requirements: - the caller must have ``role``'s admin role. May emit a {RoleGranted} event."
      },
      "hasRole(bytes32,address)": {
        "details": "Returns `true` if `account` has been granted `role`."
      },
      "hashOperation(address,uint256,bytes,bytes32,bytes32)": {
        "details": "Returns the identifier of an operation containing a single transaction."
      },
      "hashOperationBatch(address[],uint256[],bytes[],bytes32,bytes32)": {
        "details": "Returns the identifier of an operation containing a batch of transactions."
      },
      "isOperation(bytes32)": {
        "details": "Returns whether an id correspond to a registered operation. This includes both Pending, Ready and Done operations."
      },
      "isOperationDone(bytes32)": {
        "details": "Returns whether an operation is done or not."
      },
      "isOperationPending(bytes32)": {
        "details": "Returns whether an operation is pending or not. Note that a \"pending\" operation may also be \"ready\"."
      },
      "isOperationReady(bytes32)": {
        "details": "Returns whether an operation is ready for execution. Note that a \"ready\" operation is also \"pending\"."
      },
      "onERC1155BatchReceived(address,address,uint256[],uint256[],bytes)": {
        "details": "See {IERC1155Receiver-onERC1155BatchReceived}."
      },
      "onERC1155Received(address,address,uint256,uint256,bytes)": {
        "details": "See {IERC1155Receiver-onERC1155Received}."
      },
      "onERC721Received(address,address,uint256,bytes)": {
        "details": "See {IERC721Receiver-onERC721Received}."
      },
      "renounceRole(bytes32,address)": {
        "details": "Revokes `role` from the calling account. Roles are often managed via {grantRole} and {revokeRole}: this function's purpose is to provide a mechanism for accounts to lose their privileges if they are compromised (such as when a trusted device is misplaced). If the calling account had been revoked `role`, emits a {RoleRevoked} event. Requirements: - the caller must be `account`. May emit a {RoleRevoked} event."
      },
      "revokeRole(bytes32,address)": {
        "details": "Revokes `role` from `account`. If `account` had been granted `role`, emits a {RoleRevoked} event. Requirements: - the caller must have ``role``'s admin role. May emit a {RoleRevoked} event."
      },
      "schedule(address,uint256,bytes,bytes32,bytes32,uint256)": {
        "details": "Schedule an operation containing a single transaction. Emits {CallSalt} if salt is nonzero, and {CallScheduled}. Requirements: - the caller must have the 'proposer' role."
      },
      "scheduleBatch(address[],uint256[],bytes[],bytes32,bytes32,uint256)": {
        "details": "Schedule an operation containing a batch of transactions. Emits {CallSalt} if salt is nonzero, and one {CallScheduled} event per transaction in the batch. Requirements: - the caller must have the 'proposer' role."
      },
      "supportsInterface(bytes4)": {
        "details": "See {IERC165-supportsInterface}."
      },
      "updateDelay(uint256)": {
        "details": "Changes the minimum timelock duration for future operations. Emits a {MinDelayChange} event. Requirements: - the caller must be the timelock itself. This can only be achieved by scheduling and later executing an operation where the timelock is the target and the data is the ABI-encoded call to this function."
      }
    },
    "version": 1
  },
  "userdoc": {
    "kind": "user",
    "methods": {
      "constructor": {
        "notice": "IMPORTANT: The optional admin can aid with initial configuration of roles after deployment without being subject to delay, but this role should be subsequently renounced in favor of administration through timelocked proposals. Previous versions of this contract would assign this admin to the deployer automatically and should be renounced as well."
      }
    },
    "version": 1
  },
  "storageLayout": {
    "storage": [
      {
        "astId": 24,
        "contract": "contracts/governance_standard/TimeLock.sol:TimeLock",
        "label": "_roles",
        "offset": 0,
        "slot": "0",
        "type": "t_mapping(t_bytes32,t_struct(RoleData)19_storage)"
      },
      {
        "astId": 2464,
        "contract": "contracts/governance_standard/TimeLock.sol:TimeLock",
        "label": "_timestamps",
        "offset": 0,
        "slot": "1",
        "type": "t_mapping(t_bytes32,t_uint256)"
      },
      {
        "astId": 2466,
        "contract": "contracts/governance_standard/TimeLock.sol:TimeLock",
        "label": "_minDelay",
        "offset": 0,
        "slot": "2",
        "type": "t_uint256"
      }
    ],
    "types": {
      "t_address": {
        "encoding": "inplace",
        "label": "address",
        "numberOfBytes": "20"
      },
      "t_bool": {
        "encoding": "inplace",
        "label": "bool",
        "numberOfBytes": "1"
      },
      "t_bytes32": {
        "encoding": "inplace",
        "label": "bytes32",
        "numberOfBytes": "32"
      },
      "t_mapping(t_address,t_bool)": {
        "encoding": "mapping",
        "key": "t_address",
        "label": "mapping(address => bool)",
        "numberOfBytes": "32",
        "value": "t_bool"
      },
      "t_mapping(t_bytes32,t_struct(RoleData)19_storage)": {
        "encoding": "mapping",
        "key": "t_bytes32",
        "label": "mapping(bytes32 => struct AccessControl.RoleData)",
        "numberOfBytes": "32",
        "value": "t_struct(RoleData)19_storage"
      },
      "t_mapping(t_bytes32,t_uint256)": {
        "encoding": "mapping",
        "key": "t_bytes32",
        "label": "mapping(bytes32 => uint256)",
        "numberOfBytes": "32",
        "value": "t_uint256"
      },
      "t_struct(RoleData)19_storage": {
        "encoding": "inplace",
        "label": "struct AccessControl.RoleData",
        "members": [
          {
            "astId": 16,
            "contract": "contracts/governance_standard/TimeLock.sol:TimeLock",
            "label": "members",
            "offset": 0,
            "slot": "0",
            "type": "t_mapping(t_address,t_bool)"
          },
          {
            "astId": 18,
            "contract": "contracts/governance_standard/TimeLock.sol:TimeLock",
            "label": "adminRole",
            "offset": 0,
            "slot": "1",
            "type": "t_bytes32"
          }
        ],
        "numberOfBytes": "64"
      },
      "t_uint256": {
        "encoding": "inplace",
        "label": "uint256",
        "numberOfBytes": "32"
      }
    }
  }
}