{
  "_format": "hh-sol-artifact-1",
  "contractName": "Auction",
  "sourceName": "contracts/Auction.sol",
  "abi": [
    {
      "inputs": [
        {
          "internalType": "contract ObscurityToken",
          "name": "_token",
          "type": "address"
        }
      ],
      "stateMutability": "nonpayable",
      "type": "constructor"
    },
    {
      "anonymous": false,
      "inputs": [
        {
          "indexed": true,
          "internalType": "uint256",
          "name": "itemId",
          "type": "uint256"
        },
        {
          "indexed": false,
          "internalType": "string",
          "name": "itemName",
          "type": "string"
        }
      ],
      "name": "AuctionItemCreated",
      "type": "event"
    },
    {
      "anonymous": false,
      "inputs": [
        {
          "indexed": true,
          "internalType": "address",
          "name": "previousOwner",
          "type": "address"
        },
        {
          "indexed": true,
          "internalType": "address",
          "name": "newOwner",
          "type": "address"
        }
      ],
      "name": "OwnershipTransferred",
      "type": "event"
    },
    {
      "inputs": [
        {
          "internalType": "address",
          "name": "",
          "type": "address"
        }
      ],
      "name": "activeAuctionOwners",
      "outputs": [
        {
          "internalType": "uint256",
          "name": "stakedAmount",
          "type": "uint256"
        },
        {
          "internalType": "bool",
          "name": "isInitialized",
          "type": "bool"
        }
      ],
      "stateMutability": "view",
      "type": "function"
    },
    {
      "inputs": [
        {
          "internalType": "uint256",
          "name": "",
          "type": "uint256"
        }
      ],
      "name": "auctionItems",
      "outputs": [
        {
          "internalType": "uint256",
          "name": "itemId",
          "type": "uint256"
        },
        {
          "internalType": "string",
          "name": "itemName",
          "type": "string"
        },
        {
          "internalType": "address payable",
          "name": "seller",
          "type": "address"
        },
        {
          "internalType": "uint256",
          "name": "reservePrice",
          "type": "uint256"
        },
        {
          "internalType": "uint256",
          "name": "highestBid",
          "type": "uint256"
        },
        {
          "internalType": "address payable",
          "name": "highestBidder",
          "type": "address"
        },
        {
          "internalType": "uint256",
          "name": "auctionEndTime",
          "type": "uint256"
        },
        {
          "internalType": "bool",
          "name": "ended",
          "type": "bool"
        }
      ],
      "stateMutability": "view",
      "type": "function"
    },
    {
      "inputs": [
        {
          "internalType": "uint256",
          "name": "itemId",
          "type": "uint256"
        },
        {
          "internalType": "string",
          "name": "itemName",
          "type": "string"
        },
        {
          "internalType": "uint256",
          "name": "reservePrice",
          "type": "uint256"
        }
      ],
      "name": "createAuctionItem",
      "outputs": [],
      "stateMutability": "nonpayable",
      "type": "function"
    },
    {
      "inputs": [
        {
          "internalType": "uint256",
          "name": "itemId",
          "type": "uint256"
        }
      ],
      "name": "endAuction",
      "outputs": [],
      "stateMutability": "payable",
      "type": "function"
    },
    {
      "inputs": [],
      "name": "getActiveAuctioneer",
      "outputs": [
        {
          "internalType": "uint256",
          "name": "",
          "type": "uint256"
        },
        {
          "internalType": "uint256[]",
          "name": "",
          "type": "uint256[]"
        },
        {
          "internalType": "bool",
          "name": "",
          "type": "bool"
        }
      ],
      "stateMutability": "view",
      "type": "function"
    },
    {
      "inputs": [
        {
          "internalType": "uint256",
          "name": "itemId",
          "type": "uint256"
        }
      ],
      "name": "getAuctionItem",
      "outputs": [
        {
          "internalType": "uint256",
          "name": "",
          "type": "uint256"
        },
        {
          "internalType": "string",
          "name": "",
          "type": "string"
        },
        {
          "internalType": "address payable",
          "name": "",
          "type": "address"
        },
        {
          "internalType": "uint256",
          "name": "",
          "type": "uint256"
        },
        {
          "internalType": "uint256",
          "name": "",
          "type": "uint256"
        },
        {
          "internalType": "address payable",
          "name": "",
          "type": "address"
        },
        {
          "internalType": "uint256",
          "name": "",
          "type": "uint256"
        },
        {
          "internalType": "bool",
          "name": "",
          "type": "bool"
        }
      ],
      "stateMutability": "view",
      "type": "function"
    },
    {
      "inputs": [],
      "name": "getCurrentTimestamp",
      "outputs": [
        {
          "internalType": "uint256",
          "name": "",
          "type": "uint256"
        }
      ],
      "stateMutability": "view",
      "type": "function"
    },
    {
      "inputs": [],
      "name": "owner",
      "outputs": [
        {
          "internalType": "address",
          "name": "",
          "type": "address"
        }
      ],
      "stateMutability": "view",
      "type": "function"
    },
    {
      "inputs": [
        {
          "internalType": "uint256",
          "name": "itemId",
          "type": "uint256"
        },
        {
          "internalType": "uint256",
          "name": "bidAmount",
          "type": "uint256"
        }
      ],
      "name": "placeBid",
      "outputs": [],
      "stateMutability": "payable",
      "type": "function"
    },
    {
      "inputs": [],
      "name": "relinquishTokensToOwner",
      "outputs": [],
      "stateMutability": "nonpayable",
      "type": "function"
    },
    {
      "inputs": [],
      "name": "renounceOwnership",
      "outputs": [],
      "stateMutability": "nonpayable",
      "type": "function"
    },
    {
      "inputs": [
        {
          "internalType": "uint256",
          "name": "duration",
          "type": "uint256"
        }
      ],
      "name": "setAuctionDuration",
      "outputs": [],
      "stateMutability": "nonpayable",
      "type": "function"
    },
    {
      "inputs": [
        {
          "internalType": "uint256",
          "name": "auctionCount",
          "type": "uint256"
        }
      ],
      "name": "setConcurrentAuctionsPerUser",
      "outputs": [],
      "stateMutability": "nonpayable",
      "type": "function"
    },
    {
      "inputs": [
        {
          "internalType": "uint256",
          "name": "amount",
          "type": "uint256"
        }
      ],
      "name": "setTokensToStake",
      "outputs": [],
      "stateMutability": "nonpayable",
      "type": "function"
    },
    {
      "inputs": [
        {
          "internalType": "uint256",
          "name": "amount",
          "type": "uint256"
        }
      ],
      "name": "stakeTokens",
      "outputs": [],
      "stateMutability": "nonpayable",
      "type": "function"
    },
    {
      "inputs": [
        {
          "internalType": "address",
          "name": "newOwner",
          "type": "address"
        }
      ],
      "name": "transferOwnership",
      "outputs": [],
      "stateMutability": "nonpayable",
      "type": "function"
    }
  ],
  "bytecode": "0x60806040526101f460035562015180600555600260065534801561002257600080fd5b5060405161187e38038061187e833981016040819052610041916100bf565b61004a3361006f565b600480546001600160a01b0319166001600160a01b03929092169190911790556100ef565b600080546001600160a01b038381166001600160a01b0319831681178455604051919092169283917f8be0079c531659141344cd1fd0a4f28419497f9722a3daafe3b4186f6b6457e09190a35050565b6000602082840312156100d157600080fd5b81516001600160a01b03811681146100e857600080fd5b9392505050565b611780806100fe6000396000f3fe6080604052600436106100f35760003560e01c80638da5cb5b1161008a578063b9a2de3a11610059578063b9a2de3a1461027b578063d2c069f01461028e578063f2fde38b146102ae578063fb346ea0146102ce57600080fd5b80638da5cb5b146101fe5780638e9b8d9014610226578063a497e67414610246578063a4bdc06e1461026657600080fd5b80636e2ec26c116100c65780636e2ec26c14610189578063715018a6146101a95780637547c7a3146101be5780638aaf2761146101de57600080fd5b80634f04e79c146100f857806357c90de51461012557806368bae9341461013a5780636c9230db1461016e575b600080fd5b34801561010457600080fd5b5061010d61031a565b60405161011c939291906112d5565b60405180910390f35b61013861013336600461132e565b61039c565b005b34801561014657600080fd5b5061015a610155366004611350565b610674565b60405161011c9897969594939291906113af565b34801561017a57600080fd5b5060405142815260200161011c565b34801561019557600080fd5b506101386101a4366004611424565b6107af565b3480156101b557600080fd5b50610138610a4b565b3480156101ca57600080fd5b506101386101d9366004611350565b610a5f565b3480156101ea57600080fd5b506101386101f9366004611350565b610b93565b34801561020a57600080fd5b506000546040516001600160a01b03909116815260200161011c565b34801561023257600080fd5b50610138610241366004611350565b610ba0565b34801561025257600080fd5b50610138610261366004611350565b610bad565b34801561027257600080fd5b50610138610bba565b610138610289366004611350565b610d4c565b34801561029a57600080fd5b5061015a6102a9366004611350565b61103d565b3480156102ba57600080fd5b506101386102c93660046114e8565b611115565b3480156102da57600080fd5b506103056102e93660046114e8565b6002602081905260009182526040909120805491015460ff1682565b6040805192835290151560208301520161011c565b336000908152600260208181526040808420805493810154600182018054845181870281018701909552808552606096889694959094929360ff16929091849183018282801561038957602002820191906000526020600020905b815481526020019060010190808311610375575b5050505050915093509350935050909192565b600082815260016020526040902054829081146103d45760405162461bcd60e51b81526004016103cb90611518565b60405180910390fd5b6000838152600160205260409020600381015483116104475760405162461bcd60e51b815260206004820152602960248201527f426964206d75737420626520686967686572207468616e20746865207265736560448201526872766520707269636560b81b60648201526084016103cb565b600781015460ff16156104905760405162461bcd60e51b8152602060048201526011602482015270105d58dd1a5bdb881a185cc8195b991959607a1b60448201526064016103cb565b806006015442106104d95760405162461bcd60e51b8152602060048201526013602482015272105d58dd1a5bdb881a185cc8195e1c1a5c9959606a1b60448201526064016103cb565b806004015483116105445760405162461bcd60e51b815260206004820152602f60248201527f426964206d75737420626520686967686572207468616e20746865206375727260448201526e195b9d081a1a59da195cdd08189a59608a1b60648201526084016103cb565b600480546040516323b872dd60e01b81523392810192909252306024830152604482018590526001600160a01b0316906323b872dd906064016020604051808303816000875af115801561059c573d6000803e3d6000fd5b505050506040513d601f19601f820116820180604052508101906105c09190611545565b5060058101546001600160a01b031615610655576004805460058301548383015460405163a9059cbb60e01b81526001600160a01b03928316948101949094526024840152169063a9059cbb906044016020604051808303816000875af115801561062f573d6000803e3d6000fd5b505050506040513d601f19601f820116820180604052508101906106539190611545565b505b60048101929092555060050180546001600160a01b0319163317905550565b6000606060008060008060008088806001600083815260200190815260200160002060000154146106b75760405162461bcd60e51b81526004016103cb90611518565b60008a8152600160208190526040909120805460028201546003830154600484015460058501546006860154600787015497870180549798969790966001600160a01b03968716969093169260ff1690879061071290611567565b80601f016020809104026020016040519081016040528092919081815260200182805461073e90611567565b801561078b5780601f106107605761010080835404028352916020019161078b565b820191906000526020600020905b81548152906001019060200180831161076e57829003601f168201915b50505050509650995099509950995099509950995099505050919395975091939597565b6003543360009081526002602052604090205410156108265760405162461bcd60e51b815260206004820152602d60248201527f4e6f7420656e6f75676820746f6b656e73207374616b656420746f206372656160448201526c3a329030b71030bab1ba34b7b760991b60648201526084016103cb565b60065433600090815260026020526040902060010154111561084757600080fd5b600083815260016020526040902054156108995760405162461bcd60e51b81526020600482015260136024820152724974656d20616c72656164792065786973747360681b60448201526064016103cb565b600081116108f95760405162461bcd60e51b815260206004820152602760248201527f52657365727665207072696365206d7573742062652067726561746572207468604482015266616e207a65726f60c81b60648201526084016103cb565b60006005544261090991906115b7565b6040805161010081018252868152602080820187815233838501526060830187905260006080840181905260a0840181905260c0840186905260e084018190528981526001928390529390932082518155925193945090929082019061096f908261161f565b50604082810151600280840180546001600160a01b039384166001600160a01b031991821617909155606086015160038601556080860151600486015560a08601516005860180549190941691161790915560c0840151600684015560e0909301516007909201805492151560ff1990931692909217909155336000908152602092835281812060019081018054918201815582529290209091018590555184907f3fb6e393977782dbaf8affb32c163c4c606c4d37b991d95505e231efe806757290610a3d9086906116df565b60405180910390a250505050565b610a5361118b565b610a5d60006111e5565b565b600480546040516323b872dd60e01b81523392810192909252306024830152604482018390526001600160a01b0316906323b872dd906064016020604051808303816000875af1158015610ab7573d6000803e3d6000fd5b505050506040513d601f19601f82011682018060405250810190610adb9190611545565b50336000908152600260208190526040909120015460ff1615610b22573360009081526002602052604081208054839290610b179084906115b7565b90915550610b909050565b60408051606081018252828152815160008082526020808301855280840192835260018486018190523383526002825294909120835181559151805193949293610b73938501929190910190611235565b50604091909101516002909101805460ff19169115159190911790555b50565b610b9b61118b565b600355565b610ba861118b565b600655565b610bb561118b565b600555565b3360009081526002602052604090206001015415610c395760405162461bcd60e51b815260206004820152603660248201527f596f752063616e27742072656465656d20746f6b656e73207768696c65206f6e60448201527519dbda5b99c8185d58dd1a5bdb9cc81c195c9cda5cdd60521b60648201526084016103cb565b60048054336000908152600260205260409081902054905163095ea7b360e01b8152309381019390935260248301526001600160a01b03169063095ea7b3906044016020604051808303816000875af1158015610c9a573d6000803e3d6000fd5b505050506040513d601f19601f82011682018060405250810190610cbe9190611545565b506004805433600081815260026020526040908190205490516323b872dd60e01b81523094810194909452602484019190915260448301526001600160a01b0316906323b872dd906064016020604051808303816000875af1158015610d28573d6000803e3d6000fd5b505050506040513d601f19601f82011682018060405250810190610b909190611545565b60008181526001602052604090205481908114610d7b5760405162461bcd60e51b81526004016103cb90611518565b6000828152600160205260409020600781015460ff1615610dde5760405162461bcd60e51b815260206004820152601960248201527f41756374696f6e2068617320616c726561647920656e6465640000000000000060448201526064016103cb565b8060060154421015610e325760405162461bcd60e51b815260206004820152601960248201527f41756374696f6e20686173206e6f742079657420656e6465640000000000000060448201526064016103cb565b60028101546001600160a01b0316331480610e59575060058101546001600160a01b031633145b610ec35760405162461bcd60e51b815260206004820152603560248201527f4f6e6c79207468652073656c6c6572206f722068696768657374206269646465604482015274391031b0b71032b732103a34329030bab1ba34b7b760591b60648201526084016103cb565b60078101805460ff19166001908117909155336000908152600260205260408120909101905b8154811015610fa45784600103610f925781548290610f0a906001906116f2565b81548110610f1a57610f1a611705565b9060005260206000200154828281548110610f3757610f37611705565b906000526020600020018190555081805480610f5557610f5561171b565b60008281526020808220830160001990810183905590920190925533825260029052604090208254610f8c91600101908490611280565b50610fa4565b80610f9c81611731565b915050610ee9565b508160040154600003610fb75750505050565b6004805460028401548483015460405163a9059cbb60e01b81526001600160a01b03928316948101949094526024840152169063a9059cbb906044016020604051808303816000875af1158015611012573d6000803e3d6000fd5b505050506040513d601f19601f820116820180604052508101906110369190611545565b5050505050565b60016020819052600091825260409091208054918101805461105e90611567565b80601f016020809104026020016040519081016040528092919081815260200182805461108a90611567565b80156110d75780601f106110ac576101008083540402835291602001916110d7565b820191906000526020600020905b8154815290600101906020018083116110ba57829003601f168201915b505050506002830154600384015460048501546005860154600687015460079097015495966001600160a01b03948516969395509193169160ff1688565b61111d61118b565b6001600160a01b0381166111825760405162461bcd60e51b815260206004820152602660248201527f4f776e61626c653a206e6577206f776e657220697320746865207a65726f206160448201526564647265737360d01b60648201526084016103cb565b610b90816111e5565b6000546001600160a01b03163314610a5d5760405162461bcd60e51b815260206004820181905260248201527f4f776e61626c653a2063616c6c6572206973206e6f7420746865206f776e657260448201526064016103cb565b600080546001600160a01b038381166001600160a01b0319831681178455604051919092169283917f8be0079c531659141344cd1fd0a4f28419497f9722a3daafe3b4186f6b6457e09190a35050565b828054828255906000526020600020908101928215611270579160200282015b82811115611270578251825591602001919060010190611255565b5061127c9291506112c0565b5090565b8280548282559060005260206000209081019282156112705760005260206000209182015b828111156112705782548255916001019190600101906112a5565b5b8082111561127c57600081556001016112c1565b6000606082018583526020606081850152818651808452608086019150828801935060005b81811015611316578451835293830193918301916001016112fa565b50508093505050508215156040830152949350505050565b6000806040838503121561134157600080fd5b50508035926020909101359150565b60006020828403121561136257600080fd5b5035919050565b6000815180845260005b8181101561138f57602081850181015186830182015201611373565b506000602082860101526020601f19601f83011685010191505092915050565b60006101008a83528060208401526113c98184018b611369565b6001600160a01b03998a1660408501526060840198909852505060808101949094529190941660a083015260c082019390935291151560e09092019190915292915050565b634e487b7160e01b600052604160045260246000fd5b60008060006060848603121561143957600080fd5b83359250602084013567ffffffffffffffff8082111561145857600080fd5b818601915086601f83011261146c57600080fd5b81358181111561147e5761147e61140e565b604051601f8201601f19908116603f011681019083821181831017156114a6576114a661140e565b816040528281528960208487010111156114bf57600080fd5b826020860160208301376000602084830101528096505050505050604084013590509250925092565b6000602082840312156114fa57600080fd5b81356001600160a01b038116811461151157600080fd5b9392505050565b602080825260139082015272125d195b48191bd95cc81b9bdd08195e1a5cdd606a1b604082015260600190565b60006020828403121561155757600080fd5b8151801515811461151157600080fd5b600181811c9082168061157b57607f821691505b60208210810361159b57634e487b7160e01b600052602260045260246000fd5b50919050565b634e487b7160e01b600052601160045260246000fd5b808201808211156115ca576115ca6115a1565b92915050565b601f82111561161a57600081815260208120601f850160051c810160208610156115f75750805b601f850160051c820191505b8181101561161657828155600101611603565b5050505b505050565b815167ffffffffffffffff8111156116395761163961140e565b61164d816116478454611567565b846115d0565b602080601f831160018114611682576000841561166a5750858301515b600019600386901b1c1916600185901b178555611616565b600085815260208120601f198616915b828110156116b157888601518255948401946001909101908401611692565b50858210156116cf5787850151600019600388901b60f8161c191681555b5050505050600190811b01905550565b6020815260006115116020830184611369565b818103818111156115ca576115ca6115a1565b634e487b7160e01b600052603260045260246000fd5b634e487b7160e01b600052603160045260246000fd5b600060018201611743576117436115a1565b506001019056fea264697066735822122008ed9a9380cc5434b4182972ad1e0cc69ff612509f1ad1b9f661e00782c1ceda64736f6c63430008130033",
  "linkReferences": {},
  "deployedLinkReferences": {}
}