{
  "_format": "hh-sol-artifact-1",
  "contractName": "Auction",
  "sourceName": "contracts/Auction.sol",
  "abi": [
    {
      "inputs": [
        {
          "internalType": "contract ObscurityToken",
          "name": "_token",
          "type": "address"
        }
      ],
      "stateMutability": "nonpayable",
      "type": "constructor"
    },
    {
      "anonymous": false,
      "inputs": [
        {
          "indexed": true,
          "internalType": "string",
          "name": "itemId",
          "type": "string"
        },
        {
          "indexed": false,
          "internalType": "string",
          "name": "itemName",
          "type": "string"
        }
      ],
      "name": "AuctionItemCreated",
      "type": "event"
    },
    {
      "anonymous": false,
      "inputs": [
        {
          "indexed": true,
          "internalType": "address",
          "name": "previousOwner",
          "type": "address"
        },
        {
          "indexed": true,
          "internalType": "address",
          "name": "newOwner",
          "type": "address"
        }
      ],
      "name": "OwnershipTransferred",
      "type": "event"
    },
    {
      "inputs": [
        {
          "internalType": "address",
          "name": "",
          "type": "address"
        }
      ],
      "name": "activeAuctionOwners",
      "outputs": [
        {
          "internalType": "uint256",
          "name": "stakedAmount",
          "type": "uint256"
        },
        {
          "internalType": "bool",
          "name": "isInitialized",
          "type": "bool"
        }
      ],
      "stateMutability": "view",
      "type": "function"
    },
    {
      "inputs": [
        {
          "internalType": "string",
          "name": "",
          "type": "string"
        }
      ],
      "name": "auctionItems",
      "outputs": [
        {
          "internalType": "string",
          "name": "itemId",
          "type": "string"
        },
        {
          "internalType": "string",
          "name": "itemName",
          "type": "string"
        },
        {
          "internalType": "string",
          "name": "itemDescription",
          "type": "string"
        },
        {
          "internalType": "string",
          "name": "hashOfImage",
          "type": "string"
        },
        {
          "internalType": "address payable",
          "name": "seller",
          "type": "address"
        },
        {
          "internalType": "uint256",
          "name": "reservePrice",
          "type": "uint256"
        },
        {
          "internalType": "uint256",
          "name": "highestBid",
          "type": "uint256"
        },
        {
          "internalType": "address payable",
          "name": "highestBidder",
          "type": "address"
        },
        {
          "internalType": "uint256",
          "name": "auctionEndTime",
          "type": "uint256"
        },
        {
          "internalType": "bool",
          "name": "ended",
          "type": "bool"
        },
        {
          "internalType": "string",
          "name": "deliveryAddress",
          "type": "string"
        },
        {
          "internalType": "enum Auction.EscrowState",
          "name": "escrowState",
          "type": "uint8"
        },
        {
          "internalType": "uint8",
          "name": "yesVotes",
          "type": "uint8"
        },
        {
          "internalType": "uint8",
          "name": "noVotes",
          "type": "uint8"
        }
      ],
      "stateMutability": "view",
      "type": "function"
    },
    {
      "inputs": [
        {
          "internalType": "string",
          "name": "a",
          "type": "string"
        },
        {
          "internalType": "string",
          "name": "b",
          "type": "string"
        }
      ],
      "name": "compareStrings",
      "outputs": [
        {
          "internalType": "bool",
          "name": "",
          "type": "bool"
        }
      ],
      "stateMutability": "pure",
      "type": "function"
    },
    {
      "inputs": [
        {
          "internalType": "string",
          "name": "itemId",
          "type": "string"
        },
        {
          "internalType": "string",
          "name": "itemName",
          "type": "string"
        },
        {
          "internalType": "string",
          "name": "itemDescription",
          "type": "string"
        },
        {
          "internalType": "string",
          "name": "hashOfImage",
          "type": "string"
        },
        {
          "internalType": "uint256",
          "name": "reservePrice",
          "type": "uint256"
        }
      ],
      "name": "createAuctionItem",
      "outputs": [],
      "stateMutability": "nonpayable",
      "type": "function"
    },
    {
      "inputs": [
        {
          "internalType": "string",
          "name": "itemId",
          "type": "string"
        }
      ],
      "name": "endAuction",
      "outputs": [],
      "stateMutability": "payable",
      "type": "function"
    },
    {
      "inputs": [
        {
          "internalType": "address",
          "name": "sender",
          "type": "address"
        }
      ],
      "name": "getActiveAuctioneer",
      "outputs": [
        {
          "internalType": "uint256",
          "name": "",
          "type": "uint256"
        },
        {
          "internalType": "string[]",
          "name": "",
          "type": "string[]"
        },
        {
          "internalType": "bool",
          "name": "",
          "type": "bool"
        }
      ],
      "stateMutability": "view",
      "type": "function"
    },
    {
      "inputs": [],
      "name": "getAllAuctions",
      "outputs": [
        {
          "components": [
            {
              "internalType": "string",
              "name": "itemId",
              "type": "string"
            },
            {
              "internalType": "string",
              "name": "itemName",
              "type": "string"
            },
            {
              "internalType": "string",
              "name": "itemDescription",
              "type": "string"
            },
            {
              "internalType": "string",
              "name": "hashOfImage",
              "type": "string"
            },
            {
              "internalType": "address payable",
              "name": "seller",
              "type": "address"
            },
            {
              "internalType": "uint256",
              "name": "reservePrice",
              "type": "uint256"
            },
            {
              "internalType": "uint256",
              "name": "highestBid",
              "type": "uint256"
            },
            {
              "internalType": "address payable",
              "name": "highestBidder",
              "type": "address"
            },
            {
              "internalType": "uint256",
              "name": "auctionEndTime",
              "type": "uint256"
            },
            {
              "internalType": "bool",
              "name": "ended",
              "type": "bool"
            },
            {
              "internalType": "string",
              "name": "deliveryAddress",
              "type": "string"
            },
            {
              "internalType": "string[]",
              "name": "privateChatLogs",
              "type": "string[]"
            },
            {
              "internalType": "string[]",
              "name": "committeeChatLogs",
              "type": "string[]"
            },
            {
              "internalType": "enum Auction.EscrowState",
              "name": "escrowState",
              "type": "uint8"
            },
            {
              "internalType": "uint8",
              "name": "yesVotes",
              "type": "uint8"
            },
            {
              "internalType": "uint8",
              "name": "noVotes",
              "type": "uint8"
            }
          ],
          "internalType": "struct Auction.AuctionItem[]",
          "name": "",
          "type": "tuple[]"
        }
      ],
      "stateMutability": "view",
      "type": "function"
    },
    {
      "inputs": [],
      "name": "getAllDisputeAuctions",
      "outputs": [
        {
          "components": [
            {
              "internalType": "string",
              "name": "itemId",
              "type": "string"
            },
            {
              "internalType": "string",
              "name": "itemName",
              "type": "string"
            },
            {
              "internalType": "string",
              "name": "itemDescription",
              "type": "string"
            },
            {
              "internalType": "string",
              "name": "hashOfImage",
              "type": "string"
            },
            {
              "internalType": "address payable",
              "name": "seller",
              "type": "address"
            },
            {
              "internalType": "uint256",
              "name": "reservePrice",
              "type": "uint256"
            },
            {
              "internalType": "uint256",
              "name": "highestBid",
              "type": "uint256"
            },
            {
              "internalType": "address payable",
              "name": "highestBidder",
              "type": "address"
            },
            {
              "internalType": "uint256",
              "name": "auctionEndTime",
              "type": "uint256"
            },
            {
              "internalType": "bool",
              "name": "ended",
              "type": "bool"
            },
            {
              "internalType": "string",
              "name": "deliveryAddress",
              "type": "string"
            },
            {
              "internalType": "string[]",
              "name": "privateChatLogs",
              "type": "string[]"
            },
            {
              "internalType": "string[]",
              "name": "committeeChatLogs",
              "type": "string[]"
            },
            {
              "internalType": "enum Auction.EscrowState",
              "name": "escrowState",
              "type": "uint8"
            },
            {
              "internalType": "uint8",
              "name": "yesVotes",
              "type": "uint8"
            },
            {
              "internalType": "uint8",
              "name": "noVotes",
              "type": "uint8"
            }
          ],
          "internalType": "struct Auction.AuctionItem[]",
          "name": "",
          "type": "tuple[]"
        }
      ],
      "stateMutability": "view",
      "type": "function"
    },
    {
      "inputs": [],
      "name": "getAuctionDuration",
      "outputs": [
        {
          "internalType": "uint256",
          "name": "",
          "type": "uint256"
        }
      ],
      "stateMutability": "view",
      "type": "function"
    },
    {
      "inputs": [
        {
          "internalType": "string",
          "name": "itemId",
          "type": "string"
        }
      ],
      "name": "getAuctionItem",
      "outputs": [
        {
          "internalType": "string",
          "name": "",
          "type": "string"
        },
        {
          "internalType": "string",
          "name": "",
          "type": "string"
        },
        {
          "internalType": "address payable",
          "name": "",
          "type": "address"
        },
        {
          "internalType": "uint256",
          "name": "",
          "type": "uint256"
        },
        {
          "internalType": "uint256",
          "name": "",
          "type": "uint256"
        },
        {
          "internalType": "address payable",
          "name": "",
          "type": "address"
        },
        {
          "internalType": "uint256",
          "name": "",
          "type": "uint256"
        },
        {
          "internalType": "bool",
          "name": "",
          "type": "bool"
        }
      ],
      "stateMutability": "view",
      "type": "function"
    },
    {
      "inputs": [
        {
          "internalType": "string",
          "name": "itemId",
          "type": "string"
        }
      ],
      "name": "getChatLogOfItem",
      "outputs": [
        {
          "internalType": "string[]",
          "name": "",
          "type": "string[]"
        }
      ],
      "stateMutability": "view",
      "type": "function"
    },
    {
      "inputs": [
        {
          "internalType": "string",
          "name": "itemId",
          "type": "string"
        }
      ],
      "name": "getCommitteeChatLogOfItem",
      "outputs": [
        {
          "internalType": "string[]",
          "name": "",
          "type": "string[]"
        }
      ],
      "stateMutability": "view",
      "type": "function"
    },
    {
      "inputs": [],
      "name": "getCommitteeMembers",
      "outputs": [
        {
          "internalType": "address[]",
          "name": "",
          "type": "address[]"
        }
      ],
      "stateMutability": "view",
      "type": "function"
    },
    {
      "inputs": [],
      "name": "getConcurrentAuctionsPerUser",
      "outputs": [
        {
          "internalType": "uint256",
          "name": "",
          "type": "uint256"
        }
      ],
      "stateMutability": "view",
      "type": "function"
    },
    {
      "inputs": [],
      "name": "getCurrentTimestamp",
      "outputs": [
        {
          "internalType": "uint256",
          "name": "",
          "type": "uint256"
        }
      ],
      "stateMutability": "view",
      "type": "function"
    },
    {
      "inputs": [
        {
          "internalType": "string",
          "name": "itemId",
          "type": "string"
        }
      ],
      "name": "getDeliveryAddress",
      "outputs": [
        {
          "internalType": "string",
          "name": "",
          "type": "string"
        }
      ],
      "stateMutability": "view",
      "type": "function"
    },
    {
      "inputs": [
        {
          "internalType": "address",
          "name": "sender",
          "type": "address"
        }
      ],
      "name": "getMyBidAuctions",
      "outputs": [
        {
          "components": [
            {
              "internalType": "string",
              "name": "itemId",
              "type": "string"
            },
            {
              "internalType": "string",
              "name": "itemName",
              "type": "string"
            },
            {
              "internalType": "string",
              "name": "itemDescription",
              "type": "string"
            },
            {
              "internalType": "string",
              "name": "hashOfImage",
              "type": "string"
            },
            {
              "internalType": "address payable",
              "name": "seller",
              "type": "address"
            },
            {
              "internalType": "uint256",
              "name": "reservePrice",
              "type": "uint256"
            },
            {
              "internalType": "uint256",
              "name": "highestBid",
              "type": "uint256"
            },
            {
              "internalType": "address payable",
              "name": "highestBidder",
              "type": "address"
            },
            {
              "internalType": "uint256",
              "name": "auctionEndTime",
              "type": "uint256"
            },
            {
              "internalType": "bool",
              "name": "ended",
              "type": "bool"
            },
            {
              "internalType": "string",
              "name": "deliveryAddress",
              "type": "string"
            },
            {
              "internalType": "string[]",
              "name": "privateChatLogs",
              "type": "string[]"
            },
            {
              "internalType": "string[]",
              "name": "committeeChatLogs",
              "type": "string[]"
            },
            {
              "internalType": "enum Auction.EscrowState",
              "name": "escrowState",
              "type": "uint8"
            },
            {
              "internalType": "uint8",
              "name": "yesVotes",
              "type": "uint8"
            },
            {
              "internalType": "uint8",
              "name": "noVotes",
              "type": "uint8"
            }
          ],
          "internalType": "struct Auction.AuctionItem[]",
          "name": "",
          "type": "tuple[]"
        }
      ],
      "stateMutability": "view",
      "type": "function"
    },
    {
      "inputs": [
        {
          "internalType": "address",
          "name": "sender",
          "type": "address"
        }
      ],
      "name": "getMyOwnerAuctions",
      "outputs": [
        {
          "components": [
            {
              "internalType": "string",
              "name": "itemId",
              "type": "string"
            },
            {
              "internalType": "string",
              "name": "itemName",
              "type": "string"
            },
            {
              "internalType": "string",
              "name": "itemDescription",
              "type": "string"
            },
            {
              "internalType": "string",
              "name": "hashOfImage",
              "type": "string"
            },
            {
              "internalType": "address payable",
              "name": "seller",
              "type": "address"
            },
            {
              "internalType": "uint256",
              "name": "reservePrice",
              "type": "uint256"
            },
            {
              "internalType": "uint256",
              "name": "highestBid",
              "type": "uint256"
            },
            {
              "internalType": "address payable",
              "name": "highestBidder",
              "type": "address"
            },
            {
              "internalType": "uint256",
              "name": "auctionEndTime",
              "type": "uint256"
            },
            {
              "internalType": "bool",
              "name": "ended",
              "type": "bool"
            },
            {
              "internalType": "string",
              "name": "deliveryAddress",
              "type": "string"
            },
            {
              "internalType": "string[]",
              "name": "privateChatLogs",
              "type": "string[]"
            },
            {
              "internalType": "string[]",
              "name": "committeeChatLogs",
              "type": "string[]"
            },
            {
              "internalType": "enum Auction.EscrowState",
              "name": "escrowState",
              "type": "uint8"
            },
            {
              "internalType": "uint8",
              "name": "yesVotes",
              "type": "uint8"
            },
            {
              "internalType": "uint8",
              "name": "noVotes",
              "type": "uint8"
            }
          ],
          "internalType": "struct Auction.AuctionItem[]",
          "name": "",
          "type": "tuple[]"
        }
      ],
      "stateMutability": "view",
      "type": "function"
    },
    {
      "inputs": [
        {
          "internalType": "address",
          "name": "adr",
          "type": "address"
        }
      ],
      "name": "getPubKey",
      "outputs": [
        {
          "internalType": "string",
          "name": "",
          "type": "string"
        }
      ],
      "stateMutability": "view",
      "type": "function"
    },
    {
      "inputs": [],
      "name": "getTokensToStake",
      "outputs": [
        {
          "internalType": "uint256",
          "name": "",
          "type": "uint256"
        }
      ],
      "stateMutability": "view",
      "type": "function"
    },
    {
      "inputs": [
        {
          "internalType": "address",
          "name": "",
          "type": "address"
        }
      ],
      "name": "isCommitteeMember",
      "outputs": [
        {
          "internalType": "bool",
          "name": "",
          "type": "bool"
        }
      ],
      "stateMutability": "view",
      "type": "function"
    },
    {
      "inputs": [],
      "name": "owner",
      "outputs": [
        {
          "internalType": "address",
          "name": "",
          "type": "address"
        }
      ],
      "stateMutability": "view",
      "type": "function"
    },
    {
      "inputs": [
        {
          "internalType": "address",
          "name": "",
          "type": "address"
        },
        {
          "internalType": "uint256",
          "name": "",
          "type": "uint256"
        }
      ],
      "name": "ownerAuctions",
      "outputs": [
        {
          "internalType": "string",
          "name": "",
          "type": "string"
        }
      ],
      "stateMutability": "view",
      "type": "function"
    },
    {
      "inputs": [
        {
          "internalType": "string",
          "name": "itemId",
          "type": "string"
        },
        {
          "internalType": "uint256",
          "name": "bidAmount",
          "type": "uint256"
        }
      ],
      "name": "placeBid",
      "outputs": [],
      "stateMutability": "payable",
      "type": "function"
    },
    {
      "inputs": [
        {
          "internalType": "address",
          "name": "",
          "type": "address"
        }
      ],
      "name": "pubKeys",
      "outputs": [
        {
          "internalType": "string",
          "name": "",
          "type": "string"
        }
      ],
      "stateMutability": "view",
      "type": "function"
    },
    {
      "inputs": [
        {
          "internalType": "string",
          "name": "itemId",
          "type": "string"
        }
      ],
      "name": "raiseDispute",
      "outputs": [],
      "stateMutability": "nonpayable",
      "type": "function"
    },
    {
      "inputs": [],
      "name": "relinquishTokensToOwner",
      "outputs": [],
      "stateMutability": "nonpayable",
      "type": "function"
    },
    {
      "inputs": [],
      "name": "renounceOwnership",
      "outputs": [],
      "stateMutability": "nonpayable",
      "type": "function"
    },
    {
      "inputs": [
        {
          "internalType": "string",
          "name": "itemId",
          "type": "string"
        }
      ],
      "name": "resolveDispute",
      "outputs": [],
      "stateMutability": "payable",
      "type": "function"
    },
    {
      "inputs": [
        {
          "internalType": "string",
          "name": "itemId",
          "type": "string"
        },
        {
          "internalType": "string",
          "name": "message",
          "type": "string"
        }
      ],
      "name": "sendChat",
      "outputs": [],
      "stateMutability": "nonpayable",
      "type": "function"
    },
    {
      "inputs": [
        {
          "internalType": "string",
          "name": "itemId",
          "type": "string"
        },
        {
          "internalType": "string",
          "name": "message",
          "type": "string"
        }
      ],
      "name": "sendCommitteeChat",
      "outputs": [],
      "stateMutability": "nonpayable",
      "type": "function"
    },
    {
      "inputs": [
        {
          "internalType": "uint64",
          "name": "duration",
          "type": "uint64"
        }
      ],
      "name": "setAuctionDuration",
      "outputs": [],
      "stateMutability": "nonpayable",
      "type": "function"
    },
    {
      "inputs": [
        {
          "internalType": "uint8",
          "name": "auctionCount",
          "type": "uint8"
        }
      ],
      "name": "setConcurrentAuctionsPerUser",
      "outputs": [],
      "stateMutability": "nonpayable",
      "type": "function"
    },
    {
      "inputs": [
        {
          "internalType": "string",
          "name": "itemId",
          "type": "string"
        },
        {
          "internalType": "string",
          "name": "deliveryAddress",
          "type": "string"
        }
      ],
      "name": "setDeliveryAddress",
      "outputs": [],
      "stateMutability": "nonpayable",
      "type": "function"
    },
    {
      "inputs": [
        {
          "internalType": "string",
          "name": "pubKey",
          "type": "string"
        }
      ],
      "name": "setPubKey",
      "outputs": [],
      "stateMutability": "nonpayable",
      "type": "function"
    },
    {
      "inputs": [
        {
          "internalType": "uint256",
          "name": "amount",
          "type": "uint256"
        }
      ],
      "name": "setTokensToStake",
      "outputs": [],
      "stateMutability": "nonpayable",
      "type": "function"
    },
    {
      "inputs": [
        {
          "internalType": "uint256",
          "name": "amount",
          "type": "uint256"
        }
      ],
      "name": "stakeTokens",
      "outputs": [],
      "stateMutability": "nonpayable",
      "type": "function"
    },
    {
      "inputs": [
        {
          "internalType": "address",
          "name": "newOwner",
          "type": "address"
        }
      ],
      "name": "transferOwnership",
      "outputs": [],
      "stateMutability": "nonpayable",
      "type": "function"
    },
    {
      "inputs": [
        {
          "internalType": "string",
          "name": "itemId",
          "type": "string"
        },
        {
          "internalType": "enum Auction.EscrowState",
          "name": "nextState",
          "type": "uint8"
        }
      ],
      "name": "transitionEscrowState",
      "outputs": [],
      "stateMutability": "nonpayable",
      "type": "function"
    },
    {
      "inputs": [
        {
          "internalType": "string",
          "name": "itemId",
          "type": "string"
        },
        {
          "internalType": "uint8",
          "name": "vote",
          "type": "uint8"
        }
      ],
      "name": "voteOnDispute",
      "outputs": [],
      "stateMutability": "nonpayable",
      "type": "function"
    }
  ],
  "bytecode": "0x6080346200024657601f620046c138819003918201601f19168301916001600160401b038311848410176200024b578084926020946040528339810103126200024657516001600160a01b0390818116908190036200024657600090815460018060a01b031993338583161784553391167f8be0079c531659141344cd1fd0a4f28419497f9722a3daafe3b4186f6b6457e08480a3681b1ae4d6e2ef500000600a5567400000000000000f60a31b9062ffffff60e81b600b54161717600b557390f79bf6eb2c4f870365e785982e1f101e93b90680825260049182602052604081209260019060ff199482868254161790557315d34aaf54267db7d7c367839aaf71a00a2c6a6591828452604084208187825416179055739965507d1a55bcc2695c58ba16fb37d819b0a4dc9586855281604086209182541617905560099283549568010000000000000000968781101562000233578381018087558110156200022057858752602087200190898254161790558354868110156200020d57828101808655811015620001fa5784865260208620019088825416179055825494851015620001e7578401808355841015620001d4575090602091815220019182541617905560405161445f9081620002628239f35b634e487b7160e01b835260329052602482fd5b634e487b7160e01b845260418252602484fd5b634e487b7160e01b865260328452602486fd5b634e487b7160e01b865260418452602486fd5b634e487b7160e01b875260328552602487fd5b634e487b7160e01b875260418552602487fd5b600080fd5b634e487b7160e01b600052604160045260246000fdfe608080604052600436101561001357600080fd5b60003560e01c908163016544aa1461318f5750806305f3b3f71461308957806307412e9c146130425780631b83f39114612e895780631f49c2911461228b5780633098662e146121ef5780634129027314612183578063676202fe146121155780636c9230db146120fa578063715018a6146120a1578063725a3b4b14611e605780637547c7a314611c0857806378cb51af14611bde5780637c812b3914611b855780637f38d86514611b4057806383c271501461198557806388624ab3146119615780638aaf2761146119405780638da5cb5b146119195780638f2238ba1461175b5780639211735b14611615578063955ab337146115195780639d6271a01461140c5780639f19360d146111f4578063a4bdc06e14611089578063a7eaa24114610c63578063b2a275f914610b9b578063bed34bba14610b41578063c1d733db14610a25578063cbd2bdfd146108a5578063ce2ba9bf14610836578063d1b8b4bf146101d7578063d31f371e146106bf578063d8bcd0c9146106a1578063e636d84b14610662578063ee54507b146104cb578063f1d273c31461033f578063f2fde38b14610276578063fb346ea01461022e5763fce9512a146101d757600080fd5b34610229576020366003190112610229576001600160a01b036101f8613672565b1660005260036020526102256102116040600020613717565b6040519182916020835260208301906135a7565b0390f35b600080fd5b34610229576020366003190112610229576001600160a01b0361024f613672565b16600052600260205260408060002060ff6002825492015416825191825215156020820152f35b346102295760203660031901126102295761028f613672565b6102976139c0565b6001600160a01b038091169081156102eb57600054826bffffffffffffffffffffffff60a01b821617600055167f8be0079c531659141344cd1fd0a4f28419497f9722a3daafe3b4186f6b6457e0600080a3005b60405162461bcd60e51b815260206004820152602660248201527f4f776e61626c653a206e6577206f776e657220697320746865207a65726f206160448201526564647265737360d01b6064820152608490fd5b3461022957602080600319360112610229576001600160a01b039081610363613672565b1660005260069081815261037a6040600020614154565b9161038583516141a9565b9360005b84518110156104bd57806103a96103a36104b8938861426c565b5161399a565b600d604051916103b8836136da565b6103c181613717565b83526103cf60018201613717565b888401526103df60028201613717565b60408401526103f060038201613717565b6060840152856004820154166080840152600581015460a08401528681015460c08401528560078201541660e08401526008908181015461010085015260ff92818460098194015416151561012087015261044d600a8201613717565b61014087015261045f600b8201614154565b610160870152610471600c8201614154565b6101808701520154809261048b8383166101a08801613b83565b1c166101c084015260101c166101e08201526104a7828961426c565b526104b2818861426c565b50613ce9565b610389565b6040518061022588826137ca565b346102295760003660031901126102295760088054906104ea826141a9565b916000916007918254935b84811061050a576040518061022588826137ca565b8181101561064c576106479083600052610545817ff3f7a9fe364faab93b216da50a3214154f22a0a2b415b23a84c8169e8b636ee301614280565b60405190610552826136da565b61055b81613717565b825261056960018201613717565b602083015261057a60028201613717565b604083015261058b60038201613717565b60608301526001600160a01b03806004830154166080840152600582015460a0840152600682015460c0840152878201541660e083015285810154610100830152600d60ff918260098201541615156101208501526105ec600a8201613717565b6101408501526105fe600b8201614154565b610160850152610610600c8201614154565b61018085015201546106288282166101a08501613b83565b8181881c166101c084015260101c166101e08201526104a7828961426c565b6104f5565b634e487b7160e01b600052603260045260246000fd5b34610229576020366003190112610229576001600160a01b03610683613672565b166000526004602052602060ff604060002054166040519015158152f35b34610229576000366003190112610229576020600a54604051908152f35b34610229576020366003190112610229576004356001600160401b038111610229576106ef90369060040161397c565b604051818180935160208193019161070692613584565b81016001815203602001902061071b81613717565b61072760018301613717565b9161073460028201613717565b9061074160038201613717565b6001600160a01b0390816004840154169160058401549060068501549060078601541690600886015492600987015460ff1694600a880161078190613717565b97600d0154986040519b8c9b8c6101c08091528d0161079f916135a7565b8c810360208e01526107b0916135a7565b8b810360408d01526107c1916135a7565b8a810360608c01526107d2916135a7565b9560808a015260a089015260c088015260e08701526101008601521515610120850152838103610140850152610807916135a7565b90610819610160840160ff83166137bd565b8060081c60ff1661018084015260101c60ff166101a08301520390f35b6020366003190112610229576004356001600160401b038111610229576108646108a3913690600401613557565b9061089e610899610888604051858582376020818781016001815203019020613717565b610893368686613936565b906143d4565b613c9a565b613dce565b005b3461022957600036600319011261022957600780546108c3816141a9565b9160005b8281106108dc576040518061022586826137ca565b610a20908260005261090f817fa66cc928b5edb82af9bd49922954155ab7b0942694bea4ce44661d9a8736c68801614280565b600d6040519161091e836136da565b61092781613717565b835261093560018201613717565b602084015261094660028201613717565b604084015261095760038201613717565b60608401526001600160a01b03806004830154166080850152600582015460a0850152600682015460c0850152868201541660e08401526008908181015461010085015260ff9281846009819401541615156101208701526109bb600a8201613717565b6101408701526109cd600b8201614154565b6101608701526109df600c8201614154565b610180870152015480926109f98383166101a08801613b83565b1c166101c084015260101c166101e0820152610a15828761426c565b526104b2818661426c565b6108c7565b34610229576020610a3536613628565b92610a66610899610a5b6040979497518685823785818881016001815203019020613717565b610893368786613936565b826040519384928337810160018152030190209160ff60098401541680610af9575b15610a9957600c6108a39301613c6a565b60405162461bcd60e51b815260206004820152603260248201527f596f7520646f206e6f7420686176652070726976696c6567657320746f206368604482015271617420696e2074686973206469737075746560701b6064820152608490fd5b5033600052600460205260ff6040600020541680610a8857506001600160a01b03338160078601541614908115610b31575b50610a88565b9050600484015416331484610b2b565b34610229576040366003190112610229576001600160401b0360043581811161022957610b7290369060040161397c565b9060243590811161022957602091610893610b9192369060040161397c565b6040519015158152f35b3461022957600036600319011261022957604051806009548083526020809301809160096000527f6e1540171b6c0c960b71a7020d9f60077f6af931a8bbf590da0223dacf75c7af9060005b86828210610c46578686610bfd828803836136f6565b604051928392818401908285525180915260408401929160005b828110610c2657505050500390f35b83516001600160a01b031685528695509381019392810192600101610c17565b83546001600160a01b031685529093019260019283019201610be7565b6040366003190112610229576004356001600160401b03811161022957610c8e903690600401613557565b90602490813592604051928183853781840194610cca610899610cbf876001998a81526020998a9103019020613717565b610893368789613936565b3360005260038552610ceb602c610ce56040600020546136a0565b14613af8565b60405183858237858185810189815203019020906001600160a01b039033826004850154161461103b578060058401541015610fe55760ff600984015416610fad5760088301928354421015610f735760068101908154831115610f1757600b546040516323b872dd60e01b81523360048201523060248201526044810185905291908a90839060649082906000908a165af1918215610eee57600792610efa575b500192888185541680610e78575b5050505580546001600160a01b031916331790555490601e610dbd4284613cdc565b1115610e25575b5050336000526006835260ff610de1856040600020018385613b6a565b541615610dea57005b6006610e189333600052818152610e0683856040600020613c6a565b33600052528360406000200191613b6a565b805460ff19169091179055005b610e2f4283613cdc565b601e0390601e8211610e64575090610e4691613ad5565b60086040518385823785818581018981520301902001558480610dc4565b634e487b7160e01b60009081526011600452fd5b600b54845460405163a9059cbb60e01b81526001600160a01b039390931660048401526024830152909283916044918391600091165af18015610eee57610ec1575b8881610d9b565b610ee090893d8b11610ee7575b610ed881836136f6565b810190613a18565b5089610eba565b503d610ece565b6040513d6000823e3d90fd5b610f10908b3d8d11610ee757610ed881836136f6565b508b610d8d565b60405162461bcd60e51b8152600481018a9052602f818801527f426964206d75737420626520686967686572207468616e20746865206375727260448201526e195b9d081a1a59da195cdd08189a59608a1b6064820152608490fd5b60405162461bcd60e51b81526004810189905260138187015272105d58dd1a5bdb881a185cc8195e1c1a5c9959606a1b6044820152606490fd5b60405162461bcd60e51b81526004810188905260118186015270105d58dd1a5bdb881a185cc8195b991959607a1b6044820152606490fd5b60405162461bcd60e51b8152600481018890526029818601527f426964206d75737420626520686967686572207468616e20746865207265736560448201526872766520707269636560b81b6064820152608490fd5b60405162461bcd60e51b8152600481018890526021818601527f4f776e65722063616e277420626964206f6e2074686569722061756374696f6e6044820152607360f81b6064820152608490fd5b34610229576000366003190112610229573360005260206002815260016040600020015461118a576001600160a01b0360008282600b54163383526002825260446040842054604051948593849263095ea7b360e01b845230600485015260248401525af18015610eee5760009284926111479261116d575b50600b54338086526002855260408087205490516323b872dd60e01b815230600482015260248101929092526044820152948593929091169183919082906064820190565b03925af18015610eee5761115757005b816108a392903d10610ee757610ed881836136f6565b61118390843d8611610ee757610ed881836136f6565b5085611102565b6084906040519062461bcd60e51b82526004820152603660248201527f596f752063616e27742072656465656d20746f6b656e73207768696c65206f6e60448201527f676f696e672061756374696f6e732070657273697374000000000000000000006064820152fd5b34610229576040366003190112610229576001600160401b0360043581811161022957611225903690600401613557565b916024358181116102295761123e90369060040161397c565b9260405190808483378082019361126961089961088885600198898152602097889103019020613717565b6001600160a01b0360076040518484823785818681018a8152030190200154163314806113ec575b15611381579082600a928260405193849283378101878152030190200193805192831161136b576112cc836112c687546136a0565b87613a90565b81601f841160011461130857509282939183926000946112fd575b50501b916000199060031b1c1916179055600080f35b0151925085806112e7565b919083601f1981168760005284600020946000905b888383106113515750505010611338575b505050811b019055005b015160001960f88460031b161c1916905583808061132e565b85870151885590960195948501948793509081019061131d565b634e487b7160e01b600052604160045260246000fd5b60405162461bcd60e51b815260048101849052603460248201527f596f7520686176656e277420776f6e207468652061756374696f6e206f72206960448201527f7473207374696c6c20696e2070726f67726573730000000000000000000000006064820152608490fd5b5060ff60096040518484823785818681018a815203019020015416611291565b3461022957602080600319360112610229576001600160a01b039081611430613672565b166000526005908181526114476040600020614154565b9161145283516141a9565b9360005b84518110156104bd57806114706103a3611514938861426c565b600d6040519161147f836136da565b61148881613717565b835261149660018201613717565b888401526114a660028201613717565b60408401526114b760038201613717565b60608401528560048201541660808401528681015460a0840152600681015460c08401528560078201541660e08401526008908181015461010085015260ff92818460098194015416151561012087015261044d600a8201613717565b611456565b34610229576020366003190112610229576004356001600160401b03811161022957602061154e6115e2923690600401613557565b9190611572610899610a5b6040518685823785818881016001815203019020613717565b826040519384928337810160018152030190206001600160a01b03806004830154169060058301549060068401549060078501541660088501549160ff600987015416936115f06115ce60016115c78a613717565b9901613717565b604051998a99610100808c528b01906135a7565b9089820360208b01526135a7565b9560408801526060870152608086015260a085015260c0840152151560e08301520390f35b34610229576040366003190112610229576004356001600160401b03811161022957611645903690600401613557565b906024359160ff831680930361022957611683610899611678604051848682376020818681016001815203019020613717565b610893368587613936565b33600052600460205261169d60ff6040600020541661430c565b60ff600d6040518385823760208185810160018152030190200154166007811015611745576001926116d360046020931461436b565b826040519384928337810184815203019020910361171757600d6108a3910161170260ff825460081c166143c3565b61ff0082549160081b169061ff001916179055565b600d6108a3910161172e60ff825460101c166143c3565b62ff000082549160101b169062ff00001916179055565b634e487b7160e01b600052602160045260246000fd5b602080600319360112610229576004356001600160401b03811161022957611787903690600401613557565b906117aa6108996108886040518585823786818781016001815203019020613717565b60ff600d6040518484823785818681016001815203019020015416906007821015611745576117dc600485931461436b565b33600052600482526117f560ff6040600020541661430c565b8260405193849283378101600181520301902090600d82019181835460ff808260101c169160081c1610156000146118a057600b5460048381015460069094015460405163a9059cbb60e01b81526001600160a01b039586169281019290925260248201529283916044918391600091165af18015610eee57611882575b5050805460ff19166005179055005b8161189892903d10610ee757610ed881836136f6565b508180611873565b600b54600783015460069093015460405163a9059cbb60e01b81526001600160a01b03948516600482015260248101919091529283916044918391600091165af18015610eee576118fb575b5050805460ff19166006179055005b8161191192903d10610ee757610ed881836136f6565b5081806118ec565b346102295760003660031901126102295760206001600160a01b0360005416604051908152f35b34610229576020366003190112610229576119596139c0565b600435600a55005b3461022957600036600319011261022957602060ff600b5460e01c16604051908152f35b3461022957602080600319360112610229576004356001600160401b038111610229576119b782913690600401613557565b91906119db610899610a5b6040518685823785818881016001815203019020613717565b82604051938492833781016001815203019020611b126040516119fd816136da565b611a0683613717565b8152611a1460018401613717565b84820152611a2460028401613717565b6040820152611a3560038401613717565b60608201526001600160a01b0390816004850154169160808201928352600585015460a0830152600685015460c0830152808060078701541660e08401908152600887015461010085015260ff6009880154169361012081019415158552611a9f600a8901613717565b6101408201526101e060ff600d611ab8600b8c01614154565b9a61016085019b8c52611acd600c8201614154565b6101808601520154611ae58282166101a08601613b83565b818160081c166101c085015260101c1691015251163314928315611b33575b505081611b28575b506140b9565b51906102256040519282849384528301906135cc565b905051151584611b0c565b5116331491508580611b04565b346102295760203660031901126102295760043560ff8116810361022957611b666139c0565b600b805460ff60e01b191660e09290921b60ff60e01b16919091179055005b34610229576020366003190112610229576004356001600160401b038116810361022957611bb16139c0565b600b805467ffffffffffffffff60a01b191660a09290921b67ffffffffffffffff60a01b16919091179055005b346102295760003660031901126102295760206001600160401b03600b5460a01c16604051908152f35b346102295760208060031936011261022957600b546040516323b872dd60e01b815233600480830191909152306024830152356044820181905292918290829060649082906000906001600160a01b03165af18015610eee57611e43575b50336000526002815260ff60026040600020015416600014611c9e576002903360005252611c9a6040600020918254613ad5565b9055005b60405190916001600160401b0390606083018281118482101761136b5760405282528282016060815260408301936001918286523360005260028252604060002094518555828501905191825192600160401b841161136b5781908354858555808610611e0c575b500191600052806000206000925b848410611d3e575050505050505060026108a39251151591019060ff801983541691151516179055565b805190815188811161136b57879181611d628793611d5c88546136a0565b88613a90565b8294601f8211600114611da65784958291600092611d9b575b5050600019600383901b1c191690841b1785555b01920193019290611d14565b015190508e80611d7b565b94601f1982169087600052846000209160005b818110611df55750908697848895949310611ddc575b505050811b018555611d8f565b015160001960f88460031b161c191690558e8080611dcf565b8289015184558d978b979401939283019201611db9565b8460005286868460002092830192015b828110611e2a575050611d06565b9091929350611e3881613a47565b019086849392611e1c565b611e5990823d8411610ee757610ed881836136f6565b5082611c66565b3461022957602080600319360112610229576004356001600160401b03811161022957611e91903690600401613557565b9091611ec0610899611eb56040518587823784818781016001815203019020613717565b610893368688613936565b604051828482378181848101600181520301902090600d82019182549160ff831660078110156117455760038114612051576000600582141580612043575b15611ff45761174557600414611fb1575090611f3d6004926001600160a01b0390816007820154163314918215611fa2575b5081611f9357506140b9565b60ff191617905560085491600160401b83101561136b57600183018060085583101561064c576108a39260086000527ff3f7a9fe364faab93b216da50a3214154f22a0a2b415b23a84c8169e8b636ee301613ba7565b60ff9150600901541687611b0c565b81860154163314915088611f31565b6064906040519062461bcd60e51b825280600483015260248201527f546865726520697320616c7265616479206120726973656e20646973707574656044820152fd5b60405162461bcd60e51b815260048101849052602160248201527f446973707574652068617320616c7265616479206265656e207265736f6c76656044820152601960fa1b6064820152608490fd5b505060006006821415611eff565b60405162461bcd60e51b815260048101839052602260248201527f41756374696f6e20686173206265656e20616c72656164792066696e616c697a604482015261195960f21b6064820152608490fd5b34610229576000366003190112610229576120ba6139c0565b600080546001600160a01b0319811682556001600160a01b03167f8be0079c531659141344cd1fd0a4f28419497f9722a3daafe3b4186f6b6457e08280a3005b34610229576000366003190112610229576020604051428152f35b34610229576020366003190112610229576001600160a01b03612136613672565b1660005260026020526040600020805461215a600160ff6002850154169301614154565b9161217760405193849384526060602085015260608401906135cc565b90151560408301520390f35b346102295760403660031901126102295761219c613672565b6001600160a01b03602435911660005260056020526040600020908154811015610229576121c991613688565b6121d95761021161022591613717565b634e487b7160e01b600052600060045260246000fd5b34610229576108a3600b602061220436613628565b949261222b610899610a5b6040979497518685823785818881016001815203019020613717565b826040519384928337810160018152030190206001600160a01b0380600783015416331490811561227b575b508061226d575b612267906140b9565b01613c6a565b50600981015460ff1661225e565b9050600482015416331486612257565b346102295760a0366003190112610229576004356001600160401b038111610229576122bb903690600401613557565b906024356001600160401b038111610229576122db903690600401613557565b90926044356001600160401b038111610229576122fc903690600401613557565b906064356001600160401b0381116102295761231c903690600401613557565b90336000526002602052604060002054600a5411612e2e5733600052600260205260016040600020015491600b549260ff8460e01c161115612dd957336000526003602052612374602c610ce56040600020546136a0565b6123a0604051878a8237602081898101600181520301902061089361239a368a8d613936565b91613717565b612d9e5760843515612d49576123fa6123c86001600160401b036124069560a01c1642613ad5565b94604051966123d6886136da565b6123e1368a8d613936565b88526123ee368b8e613936565b60208901523691613936565b60408601523691613936565b606083015233608083015260843560a0830152600060c0830152600060e083015261010082015260006101208201526040518060208101106001600160401b0360208301111761136b5760208101604052600081526101408201526060610160820152606061018082015260006101a082015260006101c082015260006101e082015260405182858237602081848101600181520301902081518051906001600160401b03821161136b5781906124c7826124c186546136a0565b86613a90565b602090601f8311600114612cdd57600092612cd2575b50508160011b916000199060031b1c19161781555b60208201518051906001600160401b03821161136b5781906125248261251b60018701546136a0565b60018701613a90565b602090601f8311600114612c6057600092612c55575b50508160011b916000199060031b1c19161760018201555b60408201518051906001600160401b03821161136b5781906125848261257b60028701546136a0565b60028701613a90565b602090601f8311600114612be357600092612bd8575b50508160011b916000199060031b1c19161760028201555b60608201518051906001600160401b03821161136b5781906125e4826125db60038701546136a0565b60038701613a90565b602090601f8311600114612b6657600092612b5b575b50508160011b916000199060031b1c19161760038201555b600481016001600160a01b039081608085015116906bffffffffffffffffffffffff60a01b918282541617905560a0840151600584015560c08401516006840155600783019160e0850151169082541617905561010082015160088201556126906101208301511515600983019060ff801983541691151516179055565b6101408201518051906001600160401b03821161136b5781906126c3826126ba600a8701546136a0565b600a8701613a90565b602090601f8311600114612ae957600092612ade575b50508160011b916000199060031b1c191617600a8201555b610160820151805190600160401b821161136b57600b83015482600b850155808310612aab575b5060200190600b83016000526020600020916000905b8282106129ce5750505050610180820151805190600160401b821161136b57600c83015482600c85015580831061299b575b5060200190600c83016000526020600020916000905b8282106128be5750505050600d016101a0820151916007831015611745576101e060ff916127a76127da9585613b8f565b6101c0810151845461ff00191690841660081b61ff00161784550151825462ff00001916911660101b62ff000016179055565b3360005260026020526127f581846001604060002001613c6a565b60075490600160401b82101561136b57600182018060075582101561064c578361286a827f580c79f80d4cb0e438a0d03f153c3dd27d464553dcc2fb869879bc42fd524c3b9660409560076000527fa66cc928b5edb82af9bd49922954155ab7b0942694bea4ce44661d9a8736c68801613ba7565b336000526005602052612881828285600020613c6a565b81835192839283378101600081520390209382825193849260208452816020850152848401376000828201840152601f01601f19168101030190a2005b80518051906001600160401b03821161136b576128df82611d5c88546136a0565b602090601f831160011461292b579282600194936020938695600092612920575b5050600019600383901b1c191690841b1787555b01940191019092612776565b015190508f80612900565b908660005260206000209160005b601f1985168110612983575083602093600196938796938794601f1981161061296a575b505050811b018755612914565b015160001960f88460031b161c191690558f808061295d565b91926020600181928685015181550194019201612939565b600c84016000526020600020908382015b81830181106129bc575050612760565b806129c8600192613a47565b016129ac565b80518051906001600160401b03821161136b576129ef82611d5c88546136a0565b602090601f8311600114612a3b579282600194936020938695600092612a30575b5050600019600383901b1c191690841b1787555b0194019101909261272e565b015190508f80612a10565b908660005260206000209160005b601f1985168110612a93575083602093600196938796938794601f19811610612a7a575b505050811b018755612a24565b015160001960f88460031b161c191690558f8080612a6d565b91926020600181928685015181550194019201612a49565b600b84016000526020600020908382015b8183018110612acc575050612718565b80612ad8600192613a47565b01612abc565b0151905088806126d9565b9250600a84016000526020600020906000935b601f1984168510612b40576001945083601f19811610612b27575b505050811b01600a8201556126f1565b015160001960f88460031b161c19169055888080612b17565b81810151835560209485019460019093019290910190612afc565b0151905088806125fa565b9250600384016000526020600020906000935b601f1984168510612bbd576001945083601f19811610612ba4575b505050811b016003820155612612565b015160001960f88460031b161c19169055888080612b94565b81810151835560209485019460019093019290910190612b79565b01519050888061259a565b9250600284016000526020600020906000935b601f1984168510612c3a576001945083601f19811610612c21575b505050811b0160028201556125b2565b015160001960f88460031b161c19169055888080612c11565b81810151835560209485019460019093019290910190612bf6565b01519050888061253a565b9250600184016000526020600020906000935b601f1984168510612cb7576001945083601f19811610612c9e575b505050811b016001820155612552565b015160001960f88460031b161c19169055888080612c8e565b81810151835560209485019460019093019290910190612c73565b0151905088806124dd565b9250836000526020600020906000935b601f1984168510612d2e576001945083601f19811610612d15575b505050811b0181556124f2565b015160001960f88460031b161c19169055888080612d08565b81810151835560209485019460019093019290910190612ced565b60405162461bcd60e51b815260206004820152602760248201527f52657365727665207072696365206d7573742062652067726561746572207468604482015266616e207a65726f60c81b6064820152608490fd5b60405162461bcd60e51b81526020600482015260136024820152724974656d20616c72656164792065786973747360681b6044820152606490fd5b60405162461bcd60e51b815260206004820152602760248201527f596f752063616e2774206861766520616e79206d6f7265206163746976652061604482015266756374696f6e7360c81b6064820152608490fd5b60405162461bcd60e51b815260206004820152602d60248201527f4e6f7420656e6f75676820746f6b656e73207374616b656420746f206372656160448201526c3a329030b71030bab1ba34b7b760991b6064820152608490fd5b3461022957602080600319360112610229576004356001600160401b03811161022957612ebb82913690600401613557565b9190612edf610899610a5b6040518685823785818881016001815203019020613717565b82604051938492833781016001815203019020611b12604051612f01816136da565b612f0a83613717565b8152612f1860018401613717565b84820152612f2860028401613717565b6040820152612f3960038401613717565b60608201526001600160a01b0390816004850154169160808201928352600585015460a0830152600685015460c0830152808060078701541660e08401908152600887015461010085015260ff6009880154169361012081019415158552612fa3600a8901613717565b610140820152612fb5600b8901614154565b6101608201526101e060ff600d612fce600c8c01614154565b9a61018085019b8c520154612fe98282166101a08601613b83565b818160081c166101c085015260101c1691015251163314928315613035575b5050811561301c575b81611b2857506140b9565b9050336000526004845260ff6040600020541690613011565b5116331491508580613008565b34610229576020366003190112610229576004356001600160401b038111610229576130756108a3913690600401613557565b903360005260036020526040600020613ba7565b3461022957602080600319360112610229576004356001600160401b038111610229576130ba903690600401613557565b906130dd6108996108886040518585823786818781016001815203019020613717565b6001600160a01b0360046040518484823785818681016001815203019020015416330361313a578183600a926131259460405193849283378101600181520301902001613717565b906102256040519282849384528301906135a7565b60405162461bcd60e51b815260048101849052602760248201527f4f6e6c792061756374696f6e206f776e65722063616e2063616c6c2074686973604482015266081b595d1a1bd960ca1b6064820152608490fd5b34610229576040366003190112610229576004356001600160401b038111610229576131bf903690600401613557565b9060249182359060078210159283610229578181873781860190600182526131f6610899610a5b896020809b819703019020613717565b826040519384928337810160018152030190209260ff6009850154161561351457600d84019260ff84541693600785101594856133d157600481146134aa576001600160a01b03958660078901541633149182918261349b575b83613479575b831561340d575b831561338f575b5050501561334b57613279600a8701546136a0565b156132fb578361328891613b8f565b6132e7575060031461329657005b600b5460048381015460069094015460405163a9059cbb60e01b81529484166001600160a01b03169185019190915260248401528391839116816000816044810103925af18015610eee5761115757005b634e487b7160e01b60009081526021600452fd5b60405162461bcd60e51b8152600481018890526023818501527f506c656173652073657420612064656c697665727920616464726573732066696044820152621c9cdd60ea1b6064820152608490fd5b60405162461bcd60e51b8152600481018890526018818501527f496e76616c6964207374617465207472616e736974696f6e00000000000000006044820152606490fd5b9091925084836133e6575b50826133ab575b5050888080613264565b9091506133d157600281149081156133c6575b5088806133a1565b6005915014886133be565b83634e487b7160e01b60005260216004526000fd5b9092506133f85760038614918461339a565b84634e487b7160e01b60005260216004526000fd5b9250848860048b01541633149081613469575b50838161342f575b509261325d565b905061345457600181148015613446575b83613428565b506000925060058114613440565b85634e487b7160e01b60005260216004526000fd5b9050613454576002871485613420565b50600092508015801561348d575b92613256565b506000925060058114613487565b60009550600188149350613250565b60405162461bcd60e51b8152600481018990526037818601527f43616e7420726573756d6520657363726f772070726f6365737365732077697460448201527f686f75742064697370757465207265736f6c7574696f6e0000000000000000006064820152608490fd5b8460196064926040519262461bcd60e51b845260048401528201527f41756374696f6e20686173206e6f7420656e64656420796574000000000000006044820152fd5b9181601f84011215610229578235916001600160401b038311610229576020838186019501011161022957565b60005b8381106135975750506000910152565b8181015183820152602001613587565b906020916135c081518092818552858086019101613584565b601f01601f1916010190565b908082519081815260208091019281808460051b8301019501936000915b8483106135fa5750505050505090565b9091929394958480613618600193601f198682030187528a516135a7565b98019301930191949392906135ea565b6040600319820112610229576001600160401b0391600435838111610229578261365491600401613557565b939093926024359182116102295761366e91600401613557565b9091565b600435906001600160a01b038216820361022957565b805482101561064c5760005260206000200190600090565b90600182811c921680156136d0575b60208310146136ba57565b634e487b7160e01b600052602260045260246000fd5b91607f16916136af565b61020081019081106001600160401b0382111761136b57604052565b90601f801991011681019081106001600160401b0382111761136b57604052565b906040519182600082549261372b846136a0565b90818452600194858116908160001461379a5750600114613757575b5050613755925003836136f6565b565b9093915060005260209081600020936000915b81831061378257505061375593508201013880613747565b8554888401850152948501948794509183019161376a565b91505061375594506020925060ff191682840152151560051b8201013880613747565b9060078210156117455752565b602080820190808352835180925260409283810182858560051b8401019601946000925b8584106137ff575050505050505090565b909192939495968580600192603f198582030187528a51906138f76138e36138cf61386f61385c61384c61383c8851610200808a528901906135a7565b898901518882038b8a01526135a7565b878d0151878203888f01526135a7565b60608088015190878303908801526135a7565b6001600160a01b0360808181890151169087015260a0808801519087015260c0808801519087015260e0908188015116908601526101008087015190860152610120808701511515908601526101408087015190868303908701526135a7565b6101608086015190858303908601526135cc565b6101808085015190848303908501526135cc565b9161390b6101a080830151908401906137bd565b60ff6101c0818184015116908401526101e080920151169101529901940194019295949391906137ee565b9291926001600160401b03821161136b576040519161395f601f8201601f1916602001846136f6565b829481845281830111610229578281602093846000960137010152565b9080601f830112156102295781602061399793359101613936565b90565b60206139b3918160405193828580945193849201613584565b8101600181520301902090565b6001600160a01b036000541633036139d457565b606460405162461bcd60e51b815260206004820152602060248201527f4f776e61626c653a2063616c6c6572206973206e6f7420746865206f776e65726044820152fd5b90816020910312610229575180151581036102295790565b818110613a3b575050565b60008155600101613a30565b613a5181546136a0565b9081613a5b575050565b81601f60009311600114613a6d575055565b908083918252613a8c601f60208420940160051c840160018501613a30565b5555565b9190601f8111613a9f57505050565b613755926000526020600020906020601f840160051c83019310613acb575b601f0160051c0190613a30565b9091508190613abe565b91908201809211613ae257565b634e487b7160e01b600052601160045260246000fd5b15613aff57565b60405162461bcd60e51b815260206004820152603c60248201527f506c65617365207375626d697420796f7572206574682077616c6c657420707560448201527f626b6579206265666f7265207573696e67207468652073797374656d000000006064820152608490fd5b6020919283604051948593843782019081520301902090565b60078210156117455752565b9060078110156117455760ff80198354169116179055565b9092916001600160401b03811161136b57613bcc81613bc684546136a0565b84613a90565b6000601f8211600114613c065781929394600092613bfb575b50508160011b916000199060031b1c1916179055565b013590503880613be5565b601f198216948382526020918281209281905b888210613c5257505083600195969710613c38575b505050811b019055565b0135600019600384901b60f8161c19169055388080613c2e565b80600184968294958701358155019501920190613c19565b9190918054600160401b81101561136b57613c8a91600182018155613688565b9290926121d95761375592613ba7565b15613ca157565b60405162461bcd60e51b8152602060048201526013602482015272125d195b48191bd95cc81b9bdd08195e1a5cdd606a1b6044820152606490fd5b91908203918211613ae257565b6000198114613ae25760010190565b90808214613dca57613d0a81546136a0565b906001600160401b03821161136b578190613d29826124c186546136a0565b600090601f8311600114613d5f57600092613d545750508160011b916000199060031b1c1916179055565b015490503880613be5565b81526020808220858352818320935090601f1985169083905b828210613db1575050908460019594939210613d9857505050811b019055565b015460001960f88460031b161c19169055388080613c2e565b8495819295850154815560018091019601940190613d78565b5050565b9160405192828185378284018460019182815260209687910301902091600983019485549660ff88166140755760088501544210614031576001600160a01b03966004978089880154163314908115614021575b5015613fb75784809960ff999798991916179055600091338352600282528460408420019383995b613e64575b50505050505050600691925001541561375557565b849897969854998a811015613fad57869798999a613e8f613e86368686613936565b6108938c613717565b613ea45750613e9d90613ce9565b9996613e4a565b939495965091505060001991828101908111613f9a57613ec7613ecf9187613688565b509186613688565b613f885790613edd91613cf8565b83548015613f75570193613ef18585613688565b919091613f63576006979850613f0782546136a0565b9081613f21575b5050505050558291388080808080613e4f565b8490601f808411600114613f4157505050509050555b3880808080613f0e565b8493958395613f5c94528520950160051c8501908501613a30565b5555613f37565b634e487b7160e01b8452838952602484fd5b634e487b7160e01b845260318952602484fd5b634e487b7160e01b8552848a52602485fd5b634e487b7160e01b855260118a52602485fd5b5086979850613e4f565b60405162461bcd60e51b8152808901839052603560248201527f4f6e6c79207468652073656c6c6572206f72206869676865737420626964646560448201527f722063616e20656e64207468652061756374696f6e00000000000000000000006064820152608490fd5b9050600787015416331438613e22565b6064906040519062461bcd60e51b82526004820152601960248201527f41756374696f6e20686173206e6f742079657420656e646564000000000000006044820152fd5b6064906040519062461bcd60e51b82526004820152601960248201527f41756374696f6e2068617320616c726561647920656e646564000000000000006044820152fd5b156140c057565b60405162461bcd60e51b815260206004820152604960248201527f41756374696f6e20686173206e6f7420656e646564207965742c206f7220796f60448201527f7520617265206e6f74207468652077696e6e6572206f72206f776e6572206f6660648201526820746865206974656d60b81b608482015260a490fd5b6001600160401b03811161136b5760051b60200190565b9081546141608161413d565b9261416e60405194856136f6565b818452600090815260208082208186015b84841061418d575050505050565b600183819261419b85613717565b81520192019301929061417f565b906141b38261413d565b6040906141c2825191826136f6565b83815280936141d3601f199161413d565b019160005b8381106141e55750505050565b60209082516141f3816136da565b6060808252839080828401528086840152808084015260006080840152600060a0840152600060c0840152600060e084015260006101008401526000610120840152806101408401528061016084015261018083015260006101a083015260006101c083015260006101e08301528286010152016141d8565b805182101561064c5760209160051b010190565b60405190816000825492614293846136a0565b9060019485811690816000146142f457506001146142ba575b505060209281520301902090565b60009081526020808220959350905b8281106142e05750506020935082019092386142ac565b8554878201529483019486945081016142c9565b60ff19168552505080151502820190506020386142ac565b1561431357565b60405162461bcd60e51b815260206004820152602a60248201527f596f7520617265206e6f7420616e20617574686f72697a656420636f6d6d69746044820152693a32b29036b2b6b132b960b11b6064820152608490fd5b1561437257565b60405162461bcd60e51b815260206004820152602360248201527f546869732061756374696f6e20646f65736e277420686176652061206469737060448201526275746560e81b6064820152608490fd5b60ff1660ff8114613ae25760010190565b90604051916020926144028482816143f58183019687815193849201613584565b81010380845201826136f6565b519020916144226040519182816143f58183019687815193849201613584565b519020149056fea2646970667358221220c6a9d63a5310fc6221f83c8ec42db73df259c47b6d5ad65e3baffa039b8c37b664736f6c63430008130033",
  "linkReferences": {},
  "deployedLinkReferences": {}
}