{
  "_format": "hh-sol-artifact-1",
  "contractName": "Auction",
  "sourceName": "contracts/Auction.sol",
  "abi": [
    {
      "inputs": [
        {
          "internalType": "contract ObscurityToken",
          "name": "_token",
          "type": "address"
        }
      ],
      "stateMutability": "nonpayable",
      "type": "constructor"
    },
    {
      "anonymous": false,
      "inputs": [
        {
          "indexed": true,
          "internalType": "string",
          "name": "itemId",
          "type": "string"
        },
        {
          "indexed": false,
          "internalType": "string",
          "name": "itemName",
          "type": "string"
        }
      ],
      "name": "AuctionItemCreated",
      "type": "event"
    },
    {
      "anonymous": false,
      "inputs": [
        {
          "indexed": true,
          "internalType": "address",
          "name": "previousOwner",
          "type": "address"
        },
        {
          "indexed": true,
          "internalType": "address",
          "name": "newOwner",
          "type": "address"
        }
      ],
      "name": "OwnershipTransferred",
      "type": "event"
    },
    {
      "inputs": [
        {
          "internalType": "address",
          "name": "",
          "type": "address"
        }
      ],
      "name": "activeAuctionOwners",
      "outputs": [
        {
          "internalType": "uint256",
          "name": "stakedAmount",
          "type": "uint256"
        },
        {
          "internalType": "bool",
          "name": "isInitialized",
          "type": "bool"
        }
      ],
      "stateMutability": "view",
      "type": "function"
    },
    {
      "inputs": [
        {
          "internalType": "string",
          "name": "",
          "type": "string"
        }
      ],
      "name": "auctionItems",
      "outputs": [
        {
          "internalType": "string",
          "name": "itemId",
          "type": "string"
        },
        {
          "internalType": "string",
          "name": "itemName",
          "type": "string"
        },
        {
          "internalType": "string",
          "name": "itemDescription",
          "type": "string"
        },
        {
          "internalType": "string",
          "name": "hashOfImage",
          "type": "string"
        },
        {
          "internalType": "address payable",
          "name": "seller",
          "type": "address"
        },
        {
          "internalType": "uint256",
          "name": "reservePrice",
          "type": "uint256"
        },
        {
          "internalType": "uint256",
          "name": "highestBid",
          "type": "uint256"
        },
        {
          "internalType": "address payable",
          "name": "highestBidder",
          "type": "address"
        },
        {
          "internalType": "uint256",
          "name": "auctionEndTime",
          "type": "uint256"
        },
        {
          "internalType": "bool",
          "name": "ended",
          "type": "bool"
        },
        {
          "internalType": "string",
          "name": "deliveryAddress",
          "type": "string"
        },
        {
          "internalType": "enum Auction.EscrowState",
          "name": "escrowState",
          "type": "uint8"
        },
        {
          "internalType": "uint8",
          "name": "yesVotes",
          "type": "uint8"
        },
        {
          "internalType": "uint8",
          "name": "noVotes",
          "type": "uint8"
        }
      ],
      "stateMutability": "view",
      "type": "function"
    },
    {
      "inputs": [
        {
          "internalType": "string",
          "name": "a",
          "type": "string"
        },
        {
          "internalType": "string",
          "name": "b",
          "type": "string"
        }
      ],
      "name": "compareStrings",
      "outputs": [
        {
          "internalType": "bool",
          "name": "",
          "type": "bool"
        }
      ],
      "stateMutability": "pure",
      "type": "function"
    },
    {
      "inputs": [
        {
          "internalType": "string",
          "name": "itemId",
          "type": "string"
        },
        {
          "internalType": "string",
          "name": "itemName",
          "type": "string"
        },
        {
          "internalType": "string",
          "name": "itemDescription",
          "type": "string"
        },
        {
          "internalType": "string",
          "name": "hashOfImage",
          "type": "string"
        },
        {
          "internalType": "uint256",
          "name": "reservePrice",
          "type": "uint256"
        }
      ],
      "name": "createAuctionItem",
      "outputs": [],
      "stateMutability": "nonpayable",
      "type": "function"
    },
    {
      "inputs": [
        {
          "internalType": "string",
          "name": "itemId",
          "type": "string"
        }
      ],
      "name": "endAuction",
      "outputs": [],
      "stateMutability": "payable",
      "type": "function"
    },
    {
      "inputs": [],
      "name": "getActiveAuctioneer",
      "outputs": [
        {
          "internalType": "uint256",
          "name": "",
          "type": "uint256"
        },
        {
          "internalType": "string[]",
          "name": "",
          "type": "string[]"
        },
        {
          "internalType": "bool",
          "name": "",
          "type": "bool"
        }
      ],
      "stateMutability": "view",
      "type": "function"
    },
    {
      "inputs": [],
      "name": "getAllAuctions",
      "outputs": [
        {
          "components": [
            {
              "internalType": "string",
              "name": "itemId",
              "type": "string"
            },
            {
              "internalType": "string",
              "name": "itemName",
              "type": "string"
            },
            {
              "internalType": "string",
              "name": "itemDescription",
              "type": "string"
            },
            {
              "internalType": "string",
              "name": "hashOfImage",
              "type": "string"
            },
            {
              "internalType": "address payable",
              "name": "seller",
              "type": "address"
            },
            {
              "internalType": "uint256",
              "name": "reservePrice",
              "type": "uint256"
            },
            {
              "internalType": "uint256",
              "name": "highestBid",
              "type": "uint256"
            },
            {
              "internalType": "address payable",
              "name": "highestBidder",
              "type": "address"
            },
            {
              "internalType": "uint256",
              "name": "auctionEndTime",
              "type": "uint256"
            },
            {
              "internalType": "bool",
              "name": "ended",
              "type": "bool"
            },
            {
              "internalType": "string",
              "name": "deliveryAddress",
              "type": "string"
            },
            {
              "internalType": "string[]",
              "name": "privateChatLogs",
              "type": "string[]"
            },
            {
              "internalType": "string[]",
              "name": "committeeChatLogs",
              "type": "string[]"
            },
            {
              "internalType": "enum Auction.EscrowState",
              "name": "escrowState",
              "type": "uint8"
            },
            {
              "internalType": "uint8",
              "name": "yesVotes",
              "type": "uint8"
            },
            {
              "internalType": "uint8",
              "name": "noVotes",
              "type": "uint8"
            }
          ],
          "internalType": "struct Auction.AuctionItem[]",
          "name": "",
          "type": "tuple[]"
        }
      ],
      "stateMutability": "view",
      "type": "function"
    },
    {
      "inputs": [],
      "name": "getAllDisputeAuctions",
      "outputs": [
        {
          "components": [
            {
              "internalType": "string",
              "name": "itemId",
              "type": "string"
            },
            {
              "internalType": "string",
              "name": "itemName",
              "type": "string"
            },
            {
              "internalType": "string",
              "name": "itemDescription",
              "type": "string"
            },
            {
              "internalType": "string",
              "name": "hashOfImage",
              "type": "string"
            },
            {
              "internalType": "address payable",
              "name": "seller",
              "type": "address"
            },
            {
              "internalType": "uint256",
              "name": "reservePrice",
              "type": "uint256"
            },
            {
              "internalType": "uint256",
              "name": "highestBid",
              "type": "uint256"
            },
            {
              "internalType": "address payable",
              "name": "highestBidder",
              "type": "address"
            },
            {
              "internalType": "uint256",
              "name": "auctionEndTime",
              "type": "uint256"
            },
            {
              "internalType": "bool",
              "name": "ended",
              "type": "bool"
            },
            {
              "internalType": "string",
              "name": "deliveryAddress",
              "type": "string"
            },
            {
              "internalType": "string[]",
              "name": "privateChatLogs",
              "type": "string[]"
            },
            {
              "internalType": "string[]",
              "name": "committeeChatLogs",
              "type": "string[]"
            },
            {
              "internalType": "enum Auction.EscrowState",
              "name": "escrowState",
              "type": "uint8"
            },
            {
              "internalType": "uint8",
              "name": "yesVotes",
              "type": "uint8"
            },
            {
              "internalType": "uint8",
              "name": "noVotes",
              "type": "uint8"
            }
          ],
          "internalType": "struct Auction.AuctionItem[]",
          "name": "",
          "type": "tuple[]"
        }
      ],
      "stateMutability": "view",
      "type": "function"
    },
    {
      "inputs": [],
      "name": "getAuctionDuration",
      "outputs": [
        {
          "internalType": "uint256",
          "name": "",
          "type": "uint256"
        }
      ],
      "stateMutability": "view",
      "type": "function"
    },
    {
      "inputs": [
        {
          "internalType": "string",
          "name": "itemId",
          "type": "string"
        }
      ],
      "name": "getAuctionItem",
      "outputs": [
        {
          "internalType": "string",
          "name": "",
          "type": "string"
        },
        {
          "internalType": "string",
          "name": "",
          "type": "string"
        },
        {
          "internalType": "address payable",
          "name": "",
          "type": "address"
        },
        {
          "internalType": "uint256",
          "name": "",
          "type": "uint256"
        },
        {
          "internalType": "uint256",
          "name": "",
          "type": "uint256"
        },
        {
          "internalType": "address payable",
          "name": "",
          "type": "address"
        },
        {
          "internalType": "uint256",
          "name": "",
          "type": "uint256"
        },
        {
          "internalType": "bool",
          "name": "",
          "type": "bool"
        }
      ],
      "stateMutability": "view",
      "type": "function"
    },
    {
      "inputs": [
        {
          "internalType": "string",
          "name": "itemId",
          "type": "string"
        }
      ],
      "name": "getChatLogOfItem",
      "outputs": [
        {
          "internalType": "string[]",
          "name": "",
          "type": "string[]"
        }
      ],
      "stateMutability": "view",
      "type": "function"
    },
    {
      "inputs": [],
      "name": "getConcurrentAuctionsPerUser",
      "outputs": [
        {
          "internalType": "uint256",
          "name": "",
          "type": "uint256"
        }
      ],
      "stateMutability": "view",
      "type": "function"
    },
    {
      "inputs": [],
      "name": "getCurrentTimestamp",
      "outputs": [
        {
          "internalType": "uint256",
          "name": "",
          "type": "uint256"
        }
      ],
      "stateMutability": "view",
      "type": "function"
    },
    {
      "inputs": [
        {
          "internalType": "string",
          "name": "itemId",
          "type": "string"
        }
      ],
      "name": "getDeliveryAddress",
      "outputs": [
        {
          "internalType": "string",
          "name": "",
          "type": "string"
        }
      ],
      "stateMutability": "view",
      "type": "function"
    },
    {
      "inputs": [
        {
          "internalType": "address",
          "name": "adr",
          "type": "address"
        }
      ],
      "name": "getPubKey",
      "outputs": [
        {
          "internalType": "string",
          "name": "",
          "type": "string"
        }
      ],
      "stateMutability": "view",
      "type": "function"
    },
    {
      "inputs": [],
      "name": "getTokensToStake",
      "outputs": [
        {
          "internalType": "uint256",
          "name": "",
          "type": "uint256"
        }
      ],
      "stateMutability": "view",
      "type": "function"
    },
    {
      "inputs": [
        {
          "internalType": "address",
          "name": "",
          "type": "address"
        }
      ],
      "name": "isCommitteeMember",
      "outputs": [
        {
          "internalType": "bool",
          "name": "",
          "type": "bool"
        }
      ],
      "stateMutability": "view",
      "type": "function"
    },
    {
      "inputs": [],
      "name": "owner",
      "outputs": [
        {
          "internalType": "address",
          "name": "",
          "type": "address"
        }
      ],
      "stateMutability": "view",
      "type": "function"
    },
    {
      "inputs": [
        {
          "internalType": "string",
          "name": "itemId",
          "type": "string"
        },
        {
          "internalType": "uint256",
          "name": "bidAmount",
          "type": "uint256"
        }
      ],
      "name": "placeBid",
      "outputs": [],
      "stateMutability": "payable",
      "type": "function"
    },
    {
      "inputs": [
        {
          "internalType": "address",
          "name": "",
          "type": "address"
        }
      ],
      "name": "pubKeys",
      "outputs": [
        {
          "internalType": "string",
          "name": "",
          "type": "string"
        }
      ],
      "stateMutability": "view",
      "type": "function"
    },
    {
      "inputs": [
        {
          "internalType": "string",
          "name": "itemId",
          "type": "string"
        }
      ],
      "name": "raiseDispute",
      "outputs": [],
      "stateMutability": "nonpayable",
      "type": "function"
    },
    {
      "inputs": [],
      "name": "relinquishTokensToOwner",
      "outputs": [],
      "stateMutability": "nonpayable",
      "type": "function"
    },
    {
      "inputs": [],
      "name": "renounceOwnership",
      "outputs": [],
      "stateMutability": "nonpayable",
      "type": "function"
    },
    {
      "inputs": [
        {
          "internalType": "string",
          "name": "itemId",
          "type": "string"
        }
      ],
      "name": "resolveDispute",
      "outputs": [],
      "stateMutability": "payable",
      "type": "function"
    },
    {
      "inputs": [
        {
          "internalType": "string",
          "name": "itemId",
          "type": "string"
        },
        {
          "internalType": "string",
          "name": "message",
          "type": "string"
        }
      ],
      "name": "sendChat",
      "outputs": [],
      "stateMutability": "nonpayable",
      "type": "function"
    },
    {
      "inputs": [
        {
          "internalType": "string",
          "name": "itemId",
          "type": "string"
        },
        {
          "internalType": "string",
          "name": "message",
          "type": "string"
        }
      ],
      "name": "sendCommitteeChat",
      "outputs": [],
      "stateMutability": "nonpayable",
      "type": "function"
    },
    {
      "inputs": [
        {
          "internalType": "uint64",
          "name": "duration",
          "type": "uint64"
        }
      ],
      "name": "setAuctionDuration",
      "outputs": [],
      "stateMutability": "nonpayable",
      "type": "function"
    },
    {
      "inputs": [
        {
          "internalType": "uint8",
          "name": "auctionCount",
          "type": "uint8"
        }
      ],
      "name": "setConcurrentAuctionsPerUser",
      "outputs": [],
      "stateMutability": "nonpayable",
      "type": "function"
    },
    {
      "inputs": [
        {
          "internalType": "string",
          "name": "itemId",
          "type": "string"
        },
        {
          "internalType": "string",
          "name": "deliveryAddress",
          "type": "string"
        }
      ],
      "name": "setDeliveryAddress",
      "outputs": [],
      "stateMutability": "nonpayable",
      "type": "function"
    },
    {
      "inputs": [
        {
          "internalType": "string",
          "name": "pubKey",
          "type": "string"
        }
      ],
      "name": "setPubKey",
      "outputs": [],
      "stateMutability": "nonpayable",
      "type": "function"
    },
    {
      "inputs": [
        {
          "internalType": "uint256",
          "name": "amount",
          "type": "uint256"
        }
      ],
      "name": "setTokensToStake",
      "outputs": [],
      "stateMutability": "nonpayable",
      "type": "function"
    },
    {
      "inputs": [
        {
          "internalType": "uint256",
          "name": "amount",
          "type": "uint256"
        }
      ],
      "name": "stakeTokens",
      "outputs": [],
      "stateMutability": "nonpayable",
      "type": "function"
    },
    {
      "inputs": [
        {
          "internalType": "address",
          "name": "newOwner",
          "type": "address"
        }
      ],
      "name": "transferOwnership",
      "outputs": [],
      "stateMutability": "nonpayable",
      "type": "function"
    },
    {
      "inputs": [
        {
          "internalType": "string",
          "name": "itemId",
          "type": "string"
        },
        {
          "internalType": "enum Auction.EscrowState",
          "name": "nextState",
          "type": "uint8"
        }
      ],
      "name": "transitionEscrowState",
      "outputs": [],
      "stateMutability": "nonpayable",
      "type": "function"
    },
    {
      "inputs": [
        {
          "internalType": "string",
          "name": "itemId",
          "type": "string"
        },
        {
          "internalType": "uint8",
          "name": "vote",
          "type": "uint8"
        }
      ],
      "name": "voteOnDispute",
      "outputs": [],
      "stateMutability": "nonpayable",
      "type": "function"
    }
  ],
  "bytecode": "0x6080346200013b57601f62003e7e38819003918201601f19168301916001600160401b0383118484101762000140578084926020946040528339810103126200013b57516001600160a01b0390818116908190036200013b5760008054336001600160a01b0319821681178355604051949293929091167f8be0079c531659141344cd1fd0a4f28419497f9722a3daafe3b4186f6b6457e08480a36101f46007556704000000000002a360a71b9062ffffff60e81b6008541617176008557390f79bf6eb2c4f870365e785982e1f101e93b90681526004602052600160408083209260ff199383858254161790557315d34aaf54267db7d7c367839aaf71a00a2c6a6581528181208385825416179055739965507d1a55bcc2695c58ba16fb37d819b0a4dc81522091825416179055613d279081620001578239f35b600080fd5b634e487b7160e01b600052604160045260246000fdfe608080604052600436101561001357600080fd5b60003560e01c908163016544aa14612a305750806305f3b3f71461292a57806307412e9c146128e35780631f49c29114611cfc5780633098662e14611c605780634f04e79c14611c025780636c9230db14611be7578063715018a614611b8e578063725a3b4b14611a825780637547c7a31461182a57806378cb51af146118005780637c812b39146117a75780637f38d8651461176257806383c27150146115a757806388624ab3146115835780638aaf2761146115625780638da5cb5b1461153b5780638f2238ba1461137d5780639211735b14611237578063955ab3371461113b5780639f19360d14610f23578063a4bdc06e14610db8578063a7eaa241146109f5578063bed34bba1461099b578063c1d733db1461087f578063cbd2bdfd146106ff578063ce2ba9bf14610690578063d1b8b4bf146101a0578063d31f371e14610519578063d8bcd0c9146104fb578063e636d84b146104b9578063ee54507b1461030f578063f2fde38b14610245578063fb346ea0146101fa5763fce9512a146101a057600080fd5b346101f55760203660031901126101f5576004356001600160a01b0381168091036101f55760005260036020526101f16101dd60406000206131cd565b604051918291602083526020830190612eae565b0390f35b600080fd5b346101f55760203660031901126101f5576004356001600160a01b0381168091036101f557600052600260205260408060002060ff6002825492015416825191825215156020820152f35b346101f55760203660031901126101f5576004356001600160a01b038082168092036101f557610273613273565b81156102bb57600054826bffffffffffffffffffffffff60a01b821617600055167f8be0079c531659141344cd1fd0a4f28419497f9722a3daafe3b4186f6b6457e0600080a3005b60405162461bcd60e51b815260206004820152602660248201527f4f776e61626c653a206e6577206f776e657220697320746865207a65726f206160448201526564647265737360d01b6064820152608490fd5b346101f55760003660031901126101f5576006805461032d81613a71565b916000916005908154935b84811061034d57604051806101f18882613027565b818110156104a35761049e9084600052610388817ff652222313e28459528d920b65115c16c04f3efc82aaedc97be59f3f377c0d3f01613b34565b600d6040519161039783612f79565b6103a0816131cd565b83526103ae600182016131cd565b60208401526103bf600282016131cd565b60408401526103d0600382016131cd565b60608401526001600160a01b038060048301541660808501528782015460a08501528882015460c085015260078201541660e08401526008908181015461010085015260ff928184600981940154161515610120870152610433600a82016131cd565b610140870152610445600b8201613a1c565b610160870152610457600c8201613a1c565b610180870152015480926104718383166101a0880161341d565b1c166101c084015260101c166101e082015261048d8289613bc0565b526104988188613bc0565b506135b1565b610338565b634e487b7160e01b600052603260045260246000fd5b346101f55760203660031901126101f5576004356001600160a01b0381168091036101f5576000526004602052602060ff604060002054166040519015158152f35b346101f55760003660031901126101f5576020600754604051908152f35b346101f55760203660031901126101f5576004356001600160401b0381116101f557610549903690600401612ffc565b604051818180935160208193019161056092612e8b565b810160018152036020019020610575816131cd565b610581600183016131cd565b9161058e600282016131cd565b9061059b600382016131cd565b6001600160a01b0390816004840154169160058401549060068501549060078601541690600886015492600987015460ff1694600a88016105db906131cd565b97600d0154986040519b8c9b8c6101c08091528d016105f991612eae565b8c810360208e015261060a91612eae565b8b810360408d015261061b91612eae565b8a810360608c015261062c91612eae565b9560808a015260a089015260c088015260e0870152610100860152151561012085015283810361014085015261066191612eae565b90610673610160840160ff831661301a565b8060081c60ff1661018084015260101c60ff166101a08301520390f35b60203660031901126101f5576004356001600160401b0381116101f5576106be6106fd913690600401612e5e565b906106f86106f36106e26040518585823760208187810160018152030190206131cd565b6106ed368686612fb6565b90613c9c565b613562565b613696565b005b346101f55760003660031901126101f5576005805461071d81613a71565b9160005b82811061073657604051806101f18682613027565b61087a9082600052610769817f036b6384b5eca791c62761152d0c79bb0604c104a5fb6f4eb0703f3154bb3db001613b34565b600d6040519161077883612f79565b610781816131cd565b835261078f600182016131cd565b60208401526107a0600282016131cd565b60408401526107b1600382016131cd565b60608401526001600160a01b038060048301541660808501528682015460a0850152600682015460c085015260078201541660e08401526008908181015461010085015260ff928184600981940154161515610120870152610815600a82016131cd565b610140870152610827600b8201613a1c565b610160870152610839600c8201613a1c565b610180870152015480926108538383166101a0880161341d565b1c166101c084015260101c166101e082015261086f8287613bc0565b526104988186613bc0565b610721565b346101f557602061088f36612ed3565b926108c06106f36108b560409794975186858237858188810160018152030190206131cd565b6106ed368786612fb6565b826040519384928337810160018152030190209160ff60098401541680610953575b156108f357600c6106fd930161351c565b60405162461bcd60e51b815260206004820152603260248201527f596f7520646f206e6f7420686176652070726976696c6567657320746f206368604482015271617420696e2074686973206469737075746560701b6064820152608490fd5b5033600052600460205260ff60406000205416806108e257506001600160a01b0333816007860154161490811561098b575b506108e2565b9050600484015416331484610985565b346101f55760403660031901126101f5576001600160401b036004358181116101f5576109cc903690600401612ffc565b906024359081116101f5576020916106ed6109eb923690600401612ffc565b6040519015158152f35b60403660031901126101f5576004356001600160401b0381116101f557610a20903690600401612e5e565b9060249182356040519082848337610a586106f3610a4d84868101600181526020968791030190206131cd565b6106ed368789612fb6565b3360005260038252610a79602c610a73604060002054613193565b146133ab565b6040518385823782818581016001815203019020906001600160a01b0390338260048501541614610d6a578060058401541015610d145760ff600984015416610cdc5760088301928354421015610ca25760068101908154831115610c46576008546040516323b872dd60e01b81523360048201523060248201526044810185905291908790839060649082906000908a165af1918215610c1d57600792610c29575b500192858185541680610ba7575b5050505580546001600160a01b0319163317905554936101f49081610b4f42886135a4565b1115610b5757005b610b6142876135a4565b8203918211610b93575060089394610b7891613388565b93826040519384928337810160018152030190200155600080f35b634e487b7160e01b60009081526011600452fd5b600854845460405163a9059cbb60e01b81526001600160a01b039390931660048401526024830152909283916044918391600091165af18015610c1d57610bf0575b8581610b2a565b610c0f90863d8811610c16575b610c078183612f95565b8101906132cb565b5088610be9565b503d610bfd565b6040513d6000823e3d90fd5b610c3f90883d8a11610c1657610c078183612f95565b508a610b1c565b60405162461bcd60e51b815260048101879052602f818b01527f426964206d75737420626520686967686572207468616e20746865206375727260448201526e195b9d081a1a59da195cdd08189a59608a1b6064820152608490fd5b60405162461bcd60e51b8152600481018690526013818a015272105d58dd1a5bdb881a185cc8195e1c1a5c9959606a1b6044820152606490fd5b60405162461bcd60e51b81526004810185905260118189015270105d58dd1a5bdb881a185cc8195b991959607a1b6044820152606490fd5b60405162461bcd60e51b8152600481018590526029818901527f426964206d75737420626520686967686572207468616e20746865207265736560448201526872766520707269636560b81b6064820152608490fd5b60405162461bcd60e51b8152600481018590526021818901527f4f776e65722063616e277420626964206f6e2074686569722061756374696f6e6044820152607360f81b6064820152608490fd5b346101f55760003660031901126101f55733600052602060028152600160406000200154610eb9576001600160a01b0360008282600854163383526002825260446040842054604051948593849263095ea7b360e01b845230600485015260248401525af18015610c1d576000928492610e7692610e9c575b50600854338086526002855260408087205490516323b872dd60e01b815230600482015260248101929092526044820152948593929091169183919082906064820190565b03925af18015610c1d57610e8657005b816106fd92903d10610c1657610c078183612f95565b610eb290843d8611610c1657610c078183612f95565b5085610e31565b6084906040519062461bcd60e51b82526004820152603660248201527f596f752063616e27742072656465656d20746f6b656e73207768696c65206f6e60448201527f676f696e672061756374696f6e732070657273697374000000000000000000006064820152fd5b346101f55760403660031901126101f5576001600160401b036004358181116101f557610f54903690600401612e5e565b916024358181116101f557610f6d903690600401612ffc565b92604051908084833780820193610f986106f36106e2856001988981526020978891030190206131cd565b6001600160a01b0360076040518484823785818681018a81520301902001541633148061111b575b156110b0579082600a928260405193849283378101878152030190200193805192831161109a57610ffb83610ff58754613193565b87613343565b81601f8411600114611037575092829391839260009461102c575b50501b916000199060031b1c1916179055600080f35b015192508580611016565b919083601f1981168760005284600020946000905b888383106110805750505010611067575b505050811b019055005b015160001960f88460031b161c1916905583808061105d565b85870151885590960195948501948793509081019061104c565b634e487b7160e01b600052604160045260246000fd5b60405162461bcd60e51b815260048101849052603460248201527f596f7520686176656e277420776f6e207468652061756374696f6e206f72206960448201527f7473207374696c6c20696e2070726f67726573730000000000000000000000006064820152608490fd5b5060ff60096040518484823785818681018a815203019020015416610fc0565b346101f55760203660031901126101f5576004356001600160401b0381116101f5576020611170611204923690600401612e5e565b91906111946106f36108b560405186858237858188810160018152030190206131cd565b826040519384928337810160018152030190206001600160a01b03806004830154169060058301549060068401549060078501541660088501549160ff600987015416936112126111f060016111e98a6131cd565b99016131cd565b604051998a99610100808c528b0190612eae565b9089820360208b0152612eae565b9560408801526060870152608086015260a085015260c0840152151560e08301520390f35b346101f55760403660031901126101f5576004356001600160401b0381116101f557611267903690600401612e5e565b906024359160ff83168093036101f5576112a56106f361129a6040518486823760208186810160018152030190206131cd565b6106ed368587612fb6565b3360005260046020526112bf60ff60406000205416613bd4565b60ff600d6040518385823760208185810160018152030190200154166007811015611367576001926112f5600460209314613c33565b826040519384928337810184815203019020910361133957600d6106fd910161132460ff825460081c16613c8b565b61ff0082549160081b169061ff001916179055565b600d6106fd910161135060ff825460101c16613c8b565b62ff000082549160101b169062ff00001916179055565b634e487b7160e01b600052602160045260246000fd5b6020806003193601126101f5576004356001600160401b0381116101f5576113a9903690600401612e5e565b906113cc6106f36106e260405185858237868187810160018152030190206131cd565b60ff600d6040518484823785818681016001815203019020015416906007821015611367576113fe6004859314613c33565b336000526004825261141760ff60406000205416613bd4565b8260405193849283378101600181520301902090600d82019181835460ff808260101c169160081c1610156000146114c25760085460048381015460069094015460405163a9059cbb60e01b81526001600160a01b039586169281019290925260248201529283916044918391600091165af18015610c1d576114a4575b5050805460ff19166005179055005b816114ba92903d10610c1657610c078183612f95565b508180611495565b600854600783015460069093015460405163a9059cbb60e01b81526001600160a01b03948516600482015260248101919091529283916044918391600091165af18015610c1d5761151d575b5050805460ff19166006179055005b8161153392903d10610c1657610c078183612f95565b50818061150e565b346101f55760003660031901126101f55760206001600160a01b0360005416604051908152f35b346101f55760203660031901126101f55761157b613273565b600435600755005b346101f55760003660031901126101f557602060ff60085460e01c16604051908152f35b346101f5576020806003193601126101f5576004356001600160401b0381116101f5576115d982913690600401612e5e565b91906115fd6106f36108b560405186858237858188810160018152030190206131cd565b8260405193849283378101600181520301902061173460405161161f81612f79565b611628836131cd565b8152611636600184016131cd565b84820152611646600284016131cd565b6040820152611657600384016131cd565b60608201526001600160a01b0390816004850154169160808201928352600585015460a0830152600685015460c0830152808060078701541660e08401908152600887015461010085015260ff60098801541693610120810194151585526116c1600a89016131cd565b6101408201526101e060ff600d6116da600b8c01613a1c565b9a61016085019b8c526116ef600c8201613a1c565b61018086015201546117078282166101a0860161341d565b818160081c166101c085015260101c1691015251163314928315611755575b50508161174a575b50613981565b51906101f1604051928284938452830190612f1d565b90505115158461172e565b5116331491508580611726565b346101f55760203660031901126101f55760043560ff811681036101f557611788613273565b6008805460ff60e01b191660e09290921b60ff60e01b16919091179055005b346101f55760203660031901126101f5576004356001600160401b03811681036101f5576117d3613273565b6008805467ffffffffffffffff60a01b191660a09290921b67ffffffffffffffff60a01b16919091179055005b346101f55760003660031901126101f55760206001600160401b0360085460a01c16604051908152f35b346101f5576020806003193601126101f5576008546040516323b872dd60e01b815233600480830191909152306024830152356044820181905292918290829060649082906000906001600160a01b03165af18015610c1d57611a65575b50336000526002815260ff600260406000200154166000146118c05760029033600052526118bc6040600020918254613388565b9055005b60405190916001600160401b0390606083018281118482101761109a5760405282528282016060815260408301936001918286523360005260028252604060002094518555828501905191825192600160401b841161109a5781908354858555808610611a2e575b500191600052806000206000925b848410611960575050505050505060026106fd9251151591019060ff801983541691151516179055565b805190815188811161109a57879181611984879361197e8854613193565b88613343565b8294601f82116001146119c857849582916000926119bd575b5050600019600383901b1c191690841b1785555b01920193019290611936565b015190508e8061199d565b94601f1982169087600052846000209160005b818110611a1757509086978488959493106119fe575b505050811b0185556119b1565b015160001960f88460031b161c191690558e80806119f1565b8289015184558d978b9794019392830192016119db565b8460005286868460002092830192015b828110611a4c575050611928565b9091929350611a5a816132fa565b019086849392611a3e565b611a7b90823d8411610c1657610c078183612f95565b5082611888565b346101f55760203660031901126101f5576004356001600160401b0381116101f557611ab2903690600401612e5e565b611ad56106f361129a6040518486823760208186810160018152030190206131cd565b600d6040518284823760208184810160018152030190206001600160a01b03806007830154163314908115611b7e575b5080611b70575b611b1590613981565b01805460ff1916600417905560065491600160401b83101561109a5760018301806006558310156104a3576106fd9260066000527ff652222313e28459528d920b65115c16c04f3efc82aaedc97be59f3f377c0d3f01613459565b50600981015460ff16611b0c565b9050600482015416331485611b05565b346101f55760003660031901126101f557611ba7613273565b600080546001600160a01b0319811682556001600160a01b03167f8be0079c531659141344cd1fd0a4f28419497f9722a3daafe3b4186f6b6457e08280a3005b346101f55760003660031901126101f5576020604051428152f35b346101f55760003660031901126101f55733600052600260205260406000208054611c37600160ff6002850154169301613a1c565b91611c546040519384938452606060208501526060840190612f1d565b90151560408301520390f35b346101f5576106fd600b6020611c7536612ed3565b9492611c9c6106f36108b560409794975186858237858188810160018152030190206131cd565b826040519384928337810160018152030190206001600160a01b03806007830154163314908115611cec575b5080611cde575b611cd890613981565b0161351c565b50600981015460ff16611ccf565b9050600482015416331486611cc8565b346101f55760a03660031901126101f5576004356001600160401b0381116101f557611d2c903690600401612e5e565b906024356001600160401b0381116101f557611d4c903690600401612e5e565b90926044356001600160401b0381116101f557611d6d903690600401612e5e565b906064356001600160401b0381116101f557611d8d903690600401612e5e565b903360005260026020526040600020546007541161288857336000526002602052600160406000200154916008549260ff8460e01c16111561283357336000526003602052611de5602c610a73604060002054613193565b611e11604051878a823760208189810160018152030190206106ed611e0b368a8d612fb6565b916131cd565b6127f857608435156127a357611e6b611e396001600160401b03611e779560a01c1642613388565b9460405196611e4788612f79565b611e52368a8d612fb6565b8852611e5f368b8e612fb6565b60208901523691612fb6565b60408601523691612fb6565b606083015233608083015260843560a0830152600060c0830152600060e083015261010082015260006101208201526040518060208101106001600160401b0360208301111761109a5760208101604052600081526101408201526060610160820152606061018082015260006101a082015260006101c082015260006101e082015260405182858237602081848101600181520301902081518051906001600160401b03821161109a578190611f3882611f328654613193565b86613343565b602090601f83116001146127375760009261272c575b50508160011b916000199060031b1c19161781555b60208201518051906001600160401b03821161109a578190611f9582611f8c6001870154613193565b60018701613343565b602090601f83116001146126ba576000926126af575b50508160011b916000199060031b1c19161760018201555b60408201518051906001600160401b03821161109a578190611ff582611fec6002870154613193565b60028701613343565b602090601f831160011461263d57600092612632575b50508160011b916000199060031b1c19161760028201555b60608201518051906001600160401b03821161109a5781906120558261204c6003870154613193565b60038701613343565b602090601f83116001146125c0576000926125b5575b50508160011b916000199060031b1c19161760038201555b600481016001600160a01b039081608085015116906bffffffffffffffffffffffff60a01b918282541617905560a0840151600584015560c08401516006840155600783019160e0850151169082541617905561010082015160088201556121016101208301511515600983019060ff801983541691151516179055565b6101408201518051906001600160401b03821161109a5781906121348261212b600a870154613193565b600a8701613343565b602090601f831160011461254357600092612538575b50508160011b916000199060031b1c191617600a8201555b610160820151805190600160401b821161109a57600b83015482600b850155808310612505575b5060200190600b83016000526020600020916000905b8282106124285750505050610180820151805190600160401b821161109a57600c83015482600c8501558083106123f5575b5060200190600c83016000526020600020916000905b8282106123185750505050600d016101a0820151916007831015611367576101e060ff9161221861224b9585613429565b6101c0810151845461ff00191690841660081b61ff00161784550151825462ff00001916911660101b62ff000016179055565b3360005260026020526122668184600160406000200161351c565b60055490600160401b82101561109a5760018201806005558210156104a357836122db827f580c79f80d4cb0e438a0d03f153c3dd27d464553dcc2fb869879bc42fd524c3b9660409560056000527f036b6384b5eca791c62761152d0c79bb0604c104a5fb6f4eb0703f3154bb3db001613459565b81835192839283378101600081520390209382825193849260208452816020850152848401376000828201840152601f01601f19168101030190a2005b80518051906001600160401b03821161109a576123398261197e8854613193565b602090601f831160011461238557928260019493602093869560009261237a575b5050600019600383901b1c191690841b1787555b019401910190926121e7565b015190508f8061235a565b908660005260206000209160005b601f19851681106123dd575083602093600196938796938794601f198116106123c4575b505050811b01875561236e565b015160001960f88460031b161c191690558f80806123b7565b91926020600181928685015181550194019201612393565b600c84016000526020600020908382015b81830181106124165750506121d1565b806124226001926132fa565b01612406565b80518051906001600160401b03821161109a576124498261197e8854613193565b602090601f831160011461249557928260019493602093869560009261248a575b5050600019600383901b1c191690841b1787555b0194019101909261219f565b015190508f8061246a565b908660005260206000209160005b601f19851681106124ed575083602093600196938796938794601f198116106124d4575b505050811b01875561247e565b015160001960f88460031b161c191690558f80806124c7565b919260206001819286850151815501940192016124a3565b600b84016000526020600020908382015b8183018110612526575050612189565b806125326001926132fa565b01612516565b01519050888061214a565b9250600a84016000526020600020906000935b601f198416851061259a576001945083601f19811610612581575b505050811b01600a820155612162565b015160001960f88460031b161c19169055888080612571565b81810151835560209485019460019093019290910190612556565b01519050888061206b565b9250600384016000526020600020906000935b601f1984168510612617576001945083601f198116106125fe575b505050811b016003820155612083565b015160001960f88460031b161c191690558880806125ee565b818101518355602094850194600190930192909101906125d3565b01519050888061200b565b9250600284016000526020600020906000935b601f1984168510612694576001945083601f1981161061267b575b505050811b016002820155612023565b015160001960f88460031b161c1916905588808061266b565b81810151835560209485019460019093019290910190612650565b015190508880611fab565b9250600184016000526020600020906000935b601f1984168510612711576001945083601f198116106126f8575b505050811b016001820155611fc3565b015160001960f88460031b161c191690558880806126e8565b818101518355602094850194600190930192909101906126cd565b015190508880611f4e565b9250836000526020600020906000935b601f1984168510612788576001945083601f1981161061276f575b505050811b018155611f63565b015160001960f88460031b161c19169055888080612762565b81810151835560209485019460019093019290910190612747565b60405162461bcd60e51b815260206004820152602760248201527f52657365727665207072696365206d7573742062652067726561746572207468604482015266616e207a65726f60c81b6064820152608490fd5b60405162461bcd60e51b81526020600482015260136024820152724974656d20616c72656164792065786973747360681b6044820152606490fd5b60405162461bcd60e51b815260206004820152602760248201527f596f752063616e2774206861766520616e79206d6f7265206163746976652061604482015266756374696f6e7360c81b6064820152608490fd5b60405162461bcd60e51b815260206004820152602d60248201527f4e6f7420656e6f75676820746f6b656e73207374616b656420746f206372656160448201526c3a329030b71030bab1ba34b7b760991b6064820152608490fd5b346101f55760203660031901126101f5576004356001600160401b0381116101f5576129166106fd913690600401612e5e565b903360005260036020526040600020613459565b346101f5576020806003193601126101f5576004356001600160401b0381116101f55761295b903690600401612e5e565b9061297e6106f36106e260405185858237868187810160018152030190206131cd565b6001600160a01b036004604051848482378581868101600181520301902001541633036129db578183600a926129c694604051938492833781016001815203019020016131cd565b906101f1604051928284938452830190612eae565b60405162461bcd60e51b815260048101849052602760248201527f4f6e6c792061756374696f6e206f776e65722063616e2063616c6c2074686973604482015266081b595d1a1bd960ca1b6064820152608490fd5b346101f55760403660031901126101f5576004356001600160401b0381116101f557612a60903690600401612e5e565b90602491823590600782101592836101f557818187378186019060018252612a976106f36108b5896020809b8197030190206131cd565b826040519384928337810160018152030190209060ff60098301541615612e1a57600d82019360ff8554169360078510159586612e055760048614612d9b5760048501966001600160a01b0396878954163314918280612d8c575b9085929184612d6b575b8415612d19575b508315612cc0575b8315612c39575b50505015612bf557612b27600a860154613193565b15612ba55783612b3691613429565b612b915750600314612b4457005b60085492546006919091015460405163a9059cbb60e01b81529183166001600160a01b031660048301526024820152918391839116816000816044810103925af18015610c1d57610e8657005b634e487b7160e01b60009081526021600452fd5b60405162461bcd60e51b8152600481018990526023818501527f506c656173652073657420612064656c697665727920616464726573732066696044820152621c9cdd60ea1b6064820152608490fd5b60405162461bcd60e51b8152600481018990526018818501527f496e76616c6964207374617465207472616e736974696f6e00000000000000006044820152606490fd5b909192508860078901541633149283612c99575b5082612c5e575b5050828a80612b12565b909150612c845760028114908115612c79575b508980612c54565b600591501489612c71565b83634e487b7160e01b60005260216004526000fd5b909250612cab57600386149184612c4d565b84634e487b7160e01b60005260216004526000fd5b925088600789015416331480612d08575b8381612cdf575b5092612b0b565b91925050612cab578060028592148015612cfa575b83612cd8565b506000925060058114612cf4565b5090612cab57839060038714612cd1565b90935080612d5a575b8381612d31575b50928c612b03565b91925050612cab578060018592148015612d4c575b83612d29565b506000925060058114612d46565b5090612cab57839060028714612d22565b935050600081158015612d7f575b93612afc565b5050600060058214612d79565b60009550600188149350612af2565b60405162461bcd60e51b8152600481018990526037818501527f43616e7420726573756d6520657363726f772070726f6365737365732077697460448201527f686f75742064697370757465207265736f6c7574696f6e0000000000000000006064820152608490fd5b82634e487b7160e01b60005260216004526000fd5b60405162461bcd60e51b8152600481018690526019818601527f41756374696f6e20686173206e6f7420656e64656420796574000000000000006044820152606490fd5b9181601f840112156101f5578235916001600160401b0383116101f557602083818601950101116101f557565b60005b838110612e9e5750506000910152565b8181015183820152602001612e8e565b90602091612ec781518092818552858086019101612e8b565b601f01601f1916010190565b60406003198201126101f5576001600160401b03916004358381116101f55782612eff91600401612e5e565b939093926024359182116101f557612f1991600401612e5e565b9091565b908082519081815260208091019281808460051b8301019501936000915b848310612f4b5750505050505090565b9091929394958480612f69600193601f198682030187528a51612eae565b9801930193019194939290612f3b565b61020081019081106001600160401b0382111761109a57604052565b90601f801991011681019081106001600160401b0382111761109a57604052565b9291926001600160401b03821161109a5760405191612fdf601f8201601f191660200184612f95565b8294818452818301116101f5578281602093846000960137010152565b9080601f830112156101f55781602061301793359101612fb6565b90565b9060078210156113675752565b602080820190808352835180925260409283810182858560051b8401019601946000925b85841061305c575050505050505090565b909192939495968580600192603f198582030187528a519061315461314061312c6130cc6130b96130a96130998851610200808a52890190612eae565b898901518882038b8a0152612eae565b878d0151878203888f0152612eae565b6060808801519087830390880152612eae565b6001600160a01b0360808181890151169087015260a0808801519087015260c0808801519087015260e090818801511690860152610100808701519086015261012080870151151590860152610140808701519086830390870152612eae565b610160808601519085830390860152612f1d565b610180808501519084830390850152612f1d565b916131686101a0808301519084019061301a565b60ff6101c0818184015116908401526101e0809201511691015299019401940192959493919061304b565b90600182811c921680156131c3575b60208310146131ad57565b634e487b7160e01b600052602260045260246000fd5b91607f16916131a2565b90604051918260008254926131e184613193565b908184526001948581169081600014613250575060011461320d575b505061320b92500383612f95565b565b9093915060005260209081600020936000915b81831061323857505061320b935082010138806131fd565b85548884018501529485019487945091830191613220565b91505061320b94506020925060ff191682840152151560051b82010138806131fd565b6001600160a01b0360005416330361328757565b606460405162461bcd60e51b815260206004820152602060248201527f4f776e61626c653a2063616c6c6572206973206e6f7420746865206f776e65726044820152fd5b908160209103126101f5575180151581036101f55790565b8181106132ee575050565b600081556001016132e3565b6133048154613193565b908161330e575050565b81601f60009311600114613320575055565b90808391825261333f601f60208420940160051c8401600185016132e3565b5555565b9190601f811161335257505050565b61320b926000526020600020906020601f840160051c8301931061337e575b601f0160051c01906132e3565b9091508190613371565b9190820180921161339557565b634e487b7160e01b600052601160045260246000fd5b156133b257565b60405162461bcd60e51b815260206004820152603c60248201527f506c65617365207375626d697420796f7572206574682077616c6c657420707560448201527f626b6579206265666f7265207573696e67207468652073797374656d000000006064820152608490fd5b60078210156113675752565b9060078110156113675760ff80198354169116179055565b80548210156104a35760005260206000200190600090565b9092916001600160401b03811161109a5761347e816134788454613193565b84613343565b6000601f82116001146134b857819293946000926134ad575b50508160011b916000199060031b1c1916179055565b013590503880613497565b601f198216948382526020918281209281905b888210613504575050836001959697106134ea575b505050811b019055565b0135600019600384901b60f8161c191690553880806134e0565b806001849682949587013581550195019201906134cb565b9190918054600160401b81101561109a5761353c91600182018155613441565b92909261354c5761320b92613459565b634e487b7160e01b600052600060045260246000fd5b1561356957565b60405162461bcd60e51b8152602060048201526013602482015272125d195b48191bd95cc81b9bdd08195e1a5cdd606a1b6044820152606490fd5b9190820391821161339557565b60001981146133955760010190565b90808214613692576135d28154613193565b906001600160401b03821161109a5781906135f182611f328654613193565b600090601f83116001146136275760009261361c5750508160011b916000199060031b1c1916179055565b015490503880613497565b81526020808220858352818320935090601f1985169083905b82821061367957505090846001959493921061366057505050811b019055565b015460001960f88460031b161c191690553880806134e0565b8495819295850154815560018091019601940190613640565b5050565b9160405192828185378284018460019182815260209687910301902091600983019485549660ff881661393d57600885015442106138f9576001600160a01b039660049780898801541633149081156138e9575b501561387f5784809960ff999798991916179055600091338352600282528460408420019383995b61372c575b50505050505050600691925001541561320b57565b849897969854998a81101561387557869798999a61375761374e368686612fb6565b6106ed8c6131cd565b61376c5750613765906135b1565b9996613712565b9394959650915050600019918281019081116138625761378f6137979187613441565b509186613441565b61385057906137a5916135c0565b8354801561383d5701936137b98585613441565b91909161382b5760069798506137cf8254613193565b90816137e9575b5050505050558291388080808080613717565b8490601f80841160011461380957505050509050555b38808080806137d6565b849395839561382494528520950160051c85019085016132e3565b55556137ff565b634e487b7160e01b8452838952602484fd5b634e487b7160e01b845260318952602484fd5b634e487b7160e01b8552848a52602485fd5b634e487b7160e01b855260118a52602485fd5b5086979850613717565b60405162461bcd60e51b8152808901839052603560248201527f4f6e6c79207468652073656c6c6572206f72206869676865737420626964646560448201527f722063616e20656e64207468652061756374696f6e00000000000000000000006064820152608490fd5b90506007870154163314386136ea565b6064906040519062461bcd60e51b82526004820152601960248201527f41756374696f6e20686173206e6f742079657420656e646564000000000000006044820152fd5b6064906040519062461bcd60e51b82526004820152601960248201527f41756374696f6e2068617320616c726561647920656e646564000000000000006044820152fd5b1561398857565b60405162461bcd60e51b815260206004820152604960248201527f41756374696f6e20686173206e6f7420656e646564207965742c206f7220796f60448201527f7520617265206e6f74207468652077696e6e6572206f72206f776e6572206f6660648201526820746865206974656d60b81b608482015260a490fd5b6001600160401b03811161109a5760051b60200190565b908154613a2881613a05565b92613a366040519485612f95565b818452600090815260208082208186015b848410613a55575050505050565b6001838192613a63856131cd565b815201920193019290613a47565b90613a7b82613a05565b604090613a8a82519182612f95565b8381528093613a9b601f1991613a05565b019160005b838110613aad5750505050565b6020908251613abb81612f79565b6060808252839080828401528086840152808084015260006080840152600060a0840152600060c0840152600060e084015260006101008401526000610120840152806101408401528061016084015261018083015260006101a083015260006101c083015260006101e0830152828601015201613aa0565b60405190816000825492613b4784613193565b906001948581169081600014613ba85750600114613b6e575b505060209281520301902090565b60009081526020808220959350905b828110613b94575050602093508201909238613b60565b855487820152948301948694508101613b7d565b60ff1916855250508015150282019050602038613b60565b80518210156104a35760209160051b010190565b15613bdb57565b60405162461bcd60e51b815260206004820152602a60248201527f596f7520617265206e6f7420616e20617574686f72697a656420636f6d6d69746044820152693a32b29036b2b6b132b960b11b6064820152608490fd5b15613c3a57565b60405162461bcd60e51b815260206004820152602360248201527f546869732061756374696f6e20646f65736e277420686176652061206469737060448201526275746560e81b6064820152608490fd5b60ff1660ff81146133955760010190565b9060405191602092613cca848281613cbd8183019687815193849201612e8b565b8101038084520182612f95565b51902091613cea604051918281613cbd8183019687815193849201612e8b565b519020149056fea264697066735822122037f485a38c0fab173494a74749c50cd9de3ab38d240d8bce728725d0206c618664736f6c63430008130033",
  "linkReferences": {},
  "deployedLinkReferences": {}
}