{
  "_format": "hh-sol-artifact-1",
  "contractName": "Auction",
  "sourceName": "contracts/Auction.sol",
  "abi": [
    {
      "inputs": [
        {
          "internalType": "contract ObscurityToken",
          "name": "_token",
          "type": "address"
        }
      ],
      "stateMutability": "nonpayable",
      "type": "constructor"
    },
    {
      "anonymous": false,
      "inputs": [
        {
          "indexed": true,
          "internalType": "string",
          "name": "itemId",
          "type": "string"
        },
        {
          "indexed": false,
          "internalType": "string",
          "name": "itemName",
          "type": "string"
        }
      ],
      "name": "AuctionItemCreated",
      "type": "event"
    },
    {
      "anonymous": false,
      "inputs": [
        {
          "indexed": true,
          "internalType": "address",
          "name": "previousOwner",
          "type": "address"
        },
        {
          "indexed": true,
          "internalType": "address",
          "name": "newOwner",
          "type": "address"
        }
      ],
      "name": "OwnershipTransferred",
      "type": "event"
    },
    {
      "inputs": [
        {
          "internalType": "address",
          "name": "",
          "type": "address"
        }
      ],
      "name": "activeAuctionOwners",
      "outputs": [
        {
          "internalType": "uint256",
          "name": "stakedAmount",
          "type": "uint256"
        },
        {
          "internalType": "bool",
          "name": "isInitialized",
          "type": "bool"
        }
      ],
      "stateMutability": "view",
      "type": "function"
    },
    {
      "inputs": [
        {
          "internalType": "string",
          "name": "",
          "type": "string"
        }
      ],
      "name": "auctionItems",
      "outputs": [
        {
          "internalType": "string",
          "name": "itemId",
          "type": "string"
        },
        {
          "internalType": "string",
          "name": "itemName",
          "type": "string"
        },
        {
          "internalType": "address payable",
          "name": "seller",
          "type": "address"
        },
        {
          "internalType": "uint256",
          "name": "reservePrice",
          "type": "uint256"
        },
        {
          "internalType": "uint256",
          "name": "highestBid",
          "type": "uint256"
        },
        {
          "internalType": "address payable",
          "name": "highestBidder",
          "type": "address"
        },
        {
          "internalType": "uint256",
          "name": "auctionEndTime",
          "type": "uint256"
        },
        {
          "internalType": "bool",
          "name": "ended",
          "type": "bool"
        },
        {
          "internalType": "string",
          "name": "deliveryAddress",
          "type": "string"
        },
        {
          "internalType": "enum Auction.EscrowState",
          "name": "escrowState",
          "type": "uint8"
        },
        {
          "internalType": "uint8",
          "name": "yesVotes",
          "type": "uint8"
        },
        {
          "internalType": "uint8",
          "name": "noVotes",
          "type": "uint8"
        }
      ],
      "stateMutability": "view",
      "type": "function"
    },
    {
      "inputs": [
        {
          "internalType": "string",
          "name": "a",
          "type": "string"
        },
        {
          "internalType": "string",
          "name": "b",
          "type": "string"
        }
      ],
      "name": "compareStrings",
      "outputs": [
        {
          "internalType": "bool",
          "name": "",
          "type": "bool"
        }
      ],
      "stateMutability": "pure",
      "type": "function"
    },
    {
      "inputs": [
        {
          "internalType": "string",
          "name": "itemId",
          "type": "string"
        },
        {
          "internalType": "string",
          "name": "itemName",
          "type": "string"
        },
        {
          "internalType": "uint256",
          "name": "reservePrice",
          "type": "uint256"
        }
      ],
      "name": "createAuctionItem",
      "outputs": [],
      "stateMutability": "nonpayable",
      "type": "function"
    },
    {
      "inputs": [
        {
          "internalType": "string",
          "name": "itemId",
          "type": "string"
        }
      ],
      "name": "endAuction",
      "outputs": [],
      "stateMutability": "payable",
      "type": "function"
    },
    {
      "inputs": [],
      "name": "getActiveAuctioneer",
      "outputs": [
        {
          "internalType": "uint256",
          "name": "",
          "type": "uint256"
        },
        {
          "internalType": "string[]",
          "name": "",
          "type": "string[]"
        },
        {
          "internalType": "bool",
          "name": "",
          "type": "bool"
        }
      ],
      "stateMutability": "view",
      "type": "function"
    },
    {
      "inputs": [],
      "name": "getAllAuctions",
      "outputs": [
        {
          "components": [
            {
              "internalType": "string",
              "name": "itemId",
              "type": "string"
            },
            {
              "internalType": "string",
              "name": "itemName",
              "type": "string"
            },
            {
              "internalType": "address payable",
              "name": "seller",
              "type": "address"
            },
            {
              "internalType": "uint256",
              "name": "reservePrice",
              "type": "uint256"
            },
            {
              "internalType": "uint256",
              "name": "highestBid",
              "type": "uint256"
            },
            {
              "internalType": "address payable",
              "name": "highestBidder",
              "type": "address"
            },
            {
              "internalType": "uint256",
              "name": "auctionEndTime",
              "type": "uint256"
            },
            {
              "internalType": "bool",
              "name": "ended",
              "type": "bool"
            },
            {
              "internalType": "string",
              "name": "deliveryAddress",
              "type": "string"
            },
            {
              "internalType": "string[]",
              "name": "privateChatLogs",
              "type": "string[]"
            },
            {
              "internalType": "string[]",
              "name": "committeeChatLogs",
              "type": "string[]"
            },
            {
              "internalType": "enum Auction.EscrowState",
              "name": "escrowState",
              "type": "uint8"
            },
            {
              "internalType": "uint8",
              "name": "yesVotes",
              "type": "uint8"
            },
            {
              "internalType": "uint8",
              "name": "noVotes",
              "type": "uint8"
            }
          ],
          "internalType": "struct Auction.AuctionItem[]",
          "name": "",
          "type": "tuple[]"
        }
      ],
      "stateMutability": "view",
      "type": "function"
    },
    {
      "inputs": [],
      "name": "getAllDisputeAuctions",
      "outputs": [
        {
          "components": [
            {
              "internalType": "string",
              "name": "itemId",
              "type": "string"
            },
            {
              "internalType": "string",
              "name": "itemName",
              "type": "string"
            },
            {
              "internalType": "address payable",
              "name": "seller",
              "type": "address"
            },
            {
              "internalType": "uint256",
              "name": "reservePrice",
              "type": "uint256"
            },
            {
              "internalType": "uint256",
              "name": "highestBid",
              "type": "uint256"
            },
            {
              "internalType": "address payable",
              "name": "highestBidder",
              "type": "address"
            },
            {
              "internalType": "uint256",
              "name": "auctionEndTime",
              "type": "uint256"
            },
            {
              "internalType": "bool",
              "name": "ended",
              "type": "bool"
            },
            {
              "internalType": "string",
              "name": "deliveryAddress",
              "type": "string"
            },
            {
              "internalType": "string[]",
              "name": "privateChatLogs",
              "type": "string[]"
            },
            {
              "internalType": "string[]",
              "name": "committeeChatLogs",
              "type": "string[]"
            },
            {
              "internalType": "enum Auction.EscrowState",
              "name": "escrowState",
              "type": "uint8"
            },
            {
              "internalType": "uint8",
              "name": "yesVotes",
              "type": "uint8"
            },
            {
              "internalType": "uint8",
              "name": "noVotes",
              "type": "uint8"
            }
          ],
          "internalType": "struct Auction.AuctionItem[]",
          "name": "",
          "type": "tuple[]"
        }
      ],
      "stateMutability": "view",
      "type": "function"
    },
    {
      "inputs": [],
      "name": "getAuctionDuration",
      "outputs": [
        {
          "internalType": "uint256",
          "name": "",
          "type": "uint256"
        }
      ],
      "stateMutability": "view",
      "type": "function"
    },
    {
      "inputs": [
        {
          "internalType": "string",
          "name": "itemId",
          "type": "string"
        }
      ],
      "name": "getAuctionItem",
      "outputs": [
        {
          "internalType": "string",
          "name": "",
          "type": "string"
        },
        {
          "internalType": "string",
          "name": "",
          "type": "string"
        },
        {
          "internalType": "address payable",
          "name": "",
          "type": "address"
        },
        {
          "internalType": "uint256",
          "name": "",
          "type": "uint256"
        },
        {
          "internalType": "uint256",
          "name": "",
          "type": "uint256"
        },
        {
          "internalType": "address payable",
          "name": "",
          "type": "address"
        },
        {
          "internalType": "uint256",
          "name": "",
          "type": "uint256"
        },
        {
          "internalType": "bool",
          "name": "",
          "type": "bool"
        }
      ],
      "stateMutability": "view",
      "type": "function"
    },
    {
      "inputs": [
        {
          "internalType": "string",
          "name": "itemId",
          "type": "string"
        }
      ],
      "name": "getChatLogOfItem",
      "outputs": [
        {
          "internalType": "string[]",
          "name": "",
          "type": "string[]"
        }
      ],
      "stateMutability": "view",
      "type": "function"
    },
    {
      "inputs": [],
      "name": "getConcurrentAuctionsPerUser",
      "outputs": [
        {
          "internalType": "uint256",
          "name": "",
          "type": "uint256"
        }
      ],
      "stateMutability": "view",
      "type": "function"
    },
    {
      "inputs": [],
      "name": "getCurrentTimestamp",
      "outputs": [
        {
          "internalType": "uint256",
          "name": "",
          "type": "uint256"
        }
      ],
      "stateMutability": "view",
      "type": "function"
    },
    {
      "inputs": [
        {
          "internalType": "string",
          "name": "itemId",
          "type": "string"
        }
      ],
      "name": "getDeliveryAddress",
      "outputs": [
        {
          "internalType": "string",
          "name": "",
          "type": "string"
        }
      ],
      "stateMutability": "view",
      "type": "function"
    },
    {
      "inputs": [
        {
          "internalType": "address",
          "name": "adr",
          "type": "address"
        }
      ],
      "name": "getPubKey",
      "outputs": [
        {
          "internalType": "string",
          "name": "",
          "type": "string"
        }
      ],
      "stateMutability": "view",
      "type": "function"
    },
    {
      "inputs": [],
      "name": "getTokensToStake",
      "outputs": [
        {
          "internalType": "uint256",
          "name": "",
          "type": "uint256"
        }
      ],
      "stateMutability": "view",
      "type": "function"
    },
    {
      "inputs": [
        {
          "internalType": "address",
          "name": "",
          "type": "address"
        }
      ],
      "name": "isCommitteeMember",
      "outputs": [
        {
          "internalType": "bool",
          "name": "",
          "type": "bool"
        }
      ],
      "stateMutability": "view",
      "type": "function"
    },
    {
      "inputs": [],
      "name": "owner",
      "outputs": [
        {
          "internalType": "address",
          "name": "",
          "type": "address"
        }
      ],
      "stateMutability": "view",
      "type": "function"
    },
    {
      "inputs": [
        {
          "internalType": "string",
          "name": "itemId",
          "type": "string"
        },
        {
          "internalType": "uint256",
          "name": "bidAmount",
          "type": "uint256"
        }
      ],
      "name": "placeBid",
      "outputs": [],
      "stateMutability": "payable",
      "type": "function"
    },
    {
      "inputs": [
        {
          "internalType": "address",
          "name": "",
          "type": "address"
        }
      ],
      "name": "pubKeys",
      "outputs": [
        {
          "internalType": "string",
          "name": "",
          "type": "string"
        }
      ],
      "stateMutability": "view",
      "type": "function"
    },
    {
      "inputs": [
        {
          "internalType": "string",
          "name": "itemId",
          "type": "string"
        }
      ],
      "name": "raiseDispute",
      "outputs": [],
      "stateMutability": "nonpayable",
      "type": "function"
    },
    {
      "inputs": [],
      "name": "relinquishTokensToOwner",
      "outputs": [],
      "stateMutability": "nonpayable",
      "type": "function"
    },
    {
      "inputs": [],
      "name": "renounceOwnership",
      "outputs": [],
      "stateMutability": "nonpayable",
      "type": "function"
    },
    {
      "inputs": [
        {
          "internalType": "string",
          "name": "itemId",
          "type": "string"
        }
      ],
      "name": "resolveDispute",
      "outputs": [],
      "stateMutability": "payable",
      "type": "function"
    },
    {
      "inputs": [
        {
          "internalType": "string",
          "name": "itemId",
          "type": "string"
        },
        {
          "internalType": "string",
          "name": "message",
          "type": "string"
        }
      ],
      "name": "sendChat",
      "outputs": [],
      "stateMutability": "nonpayable",
      "type": "function"
    },
    {
      "inputs": [
        {
          "internalType": "string",
          "name": "itemId",
          "type": "string"
        },
        {
          "internalType": "string",
          "name": "message",
          "type": "string"
        }
      ],
      "name": "sendCommitteeChat",
      "outputs": [],
      "stateMutability": "nonpayable",
      "type": "function"
    },
    {
      "inputs": [
        {
          "internalType": "uint64",
          "name": "duration",
          "type": "uint64"
        }
      ],
      "name": "setAuctionDuration",
      "outputs": [],
      "stateMutability": "nonpayable",
      "type": "function"
    },
    {
      "inputs": [
        {
          "internalType": "uint8",
          "name": "auctionCount",
          "type": "uint8"
        }
      ],
      "name": "setConcurrentAuctionsPerUser",
      "outputs": [],
      "stateMutability": "nonpayable",
      "type": "function"
    },
    {
      "inputs": [
        {
          "internalType": "string",
          "name": "itemId",
          "type": "string"
        },
        {
          "internalType": "string",
          "name": "deliveryAddress",
          "type": "string"
        }
      ],
      "name": "setDeliveryAddress",
      "outputs": [],
      "stateMutability": "nonpayable",
      "type": "function"
    },
    {
      "inputs": [
        {
          "internalType": "string",
          "name": "pubKey",
          "type": "string"
        }
      ],
      "name": "setPubKey",
      "outputs": [],
      "stateMutability": "nonpayable",
      "type": "function"
    },
    {
      "inputs": [
        {
          "internalType": "uint256",
          "name": "amount",
          "type": "uint256"
        }
      ],
      "name": "setTokensToStake",
      "outputs": [],
      "stateMutability": "nonpayable",
      "type": "function"
    },
    {
      "inputs": [
        {
          "internalType": "uint256",
          "name": "amount",
          "type": "uint256"
        }
      ],
      "name": "stakeTokens",
      "outputs": [],
      "stateMutability": "nonpayable",
      "type": "function"
    },
    {
      "inputs": [
        {
          "internalType": "address",
          "name": "newOwner",
          "type": "address"
        }
      ],
      "name": "transferOwnership",
      "outputs": [],
      "stateMutability": "nonpayable",
      "type": "function"
    },
    {
      "inputs": [
        {
          "internalType": "string",
          "name": "itemId",
          "type": "string"
        },
        {
          "internalType": "enum Auction.EscrowState",
          "name": "nextState",
          "type": "uint8"
        }
      ],
      "name": "transitionEscrowState",
      "outputs": [],
      "stateMutability": "nonpayable",
      "type": "function"
    },
    {
      "inputs": [
        {
          "internalType": "string",
          "name": "itemId",
          "type": "string"
        },
        {
          "internalType": "uint8",
          "name": "vote",
          "type": "uint8"
        }
      ],
      "name": "voteOnDispute",
      "outputs": [],
      "stateMutability": "nonpayable",
      "type": "function"
    }
  ],
  "bytecode": "0x60806040526101f460075560088054600160a01b600160e81b0319167c02000000000001518000000000000000000000000000000000000000001790553480156200004957600080fd5b5060405162004d7638038062004d768339810160408190526200006c916200018f565b62000077336200013f565b600880546001600160a01b0319166001600160a01b039290921691909117905560046020527fae4c90e9fd351ce202216afa0d4df96849f86d83d3477d77c2a6f6a37e0d6987805460ff1990811660019081179092557fb30fbb72271e8cca1e43377aef853c29714e0693327e34891849a09ae7576eda8054821683179055739965507d1a55bcc2695c58ba16fb37d819b0a4dc6000527f7f9af5af1d24633f5986258fb25fed895f753652fe53b8038bd0660a24092a6080549091169091179055620001c1565b600080546001600160a01b038381166001600160a01b0319831681178455604051919092169283917f8be0079c531659141344cd1fd0a4f28419497f9722a3daafe3b4186f6b6457e09190a35050565b600060208284031215620001a257600080fd5b81516001600160a01b0381168114620001ba57600080fd5b9392505050565b614ba580620001d16000396000f3fe6080604052600436106102045760003560e01c80639211735b11610118578063d02f25f7116100a0578063e636d84b1161006f578063e636d84b146105f1578063ee54507b14610621578063f2fde38b14610636578063fb346ea014610656578063fce9512a146106a257600080fd5b8063d02f25f714610564578063d1b8b4bf14610584578063d31f371e146105a4578063d8bcd0c9146105dc57600080fd5b8063a7eaa241116100e7578063a7eaa241146104cc578063bed34bba146104df578063c1d733db1461050f578063cbd2bdfd1461052f578063ce2ba9bf1461055157600080fd5b80639211735b14610443578063955ab337146104635780639f19360d14610497578063a4bdc06e146104b757600080fd5b80637547c7a31161019b57806383c271501161016a57806383c271501461039c57806388624ab3146103c95780638aaf2761146103e85780638da5cb5b146104085780638f2238ba1461043057600080fd5b80637547c7a31461031757806378cb51af146103375780637c812b391461035c5780637f38d8651461037c57600080fd5b80634f04e79c116101d75780634f04e79c146102a15780636c9230db146102c5578063715018a6146102e2578063725a3b4b146102f757600080fd5b8063016544aa1461020957806305f3b3f71461022b57806307412e9c146102615780633098662e14610281575b600080fd5b34801561021557600080fd5b50610229610224366004613d68565b6106c2565b005b34801561023757600080fd5b5061024b610246366004613dc2565b610c3a565b6040516102589190613e53565b60405180910390f35b34801561026d57600080fd5b5061022961027c366004613dc2565b610dbe565b34801561028d57600080fd5b5061022961029c366004613e6d565b610ddd565b3480156102ad57600080fd5b506102b6610eb5565b60405161025893929190613f30565b3480156102d157600080fd5b50425b604051908152602001610258565b3480156102ee57600080fd5b50610229610fb8565b34801561030357600080fd5b50610229610312366004613dc2565b610fcc565b34801561032357600080fd5b50610229610332366004613f5b565b6110c4565b34801561034357600080fd5b50600854600160a01b90046001600160401b03166102d4565b34801561036857600080fd5b50610229610377366004613f74565b6111f1565b34801561038857600080fd5b50610229610397366004613fb3565b611226565b3480156103a857600080fd5b506103bc6103b7366004613dc2565b61124e565b6040516102589190613fce565b3480156103d557600080fd5b50600854600160e01b900460ff166102d4565b3480156103f457600080fd5b50610229610403366004613f5b565b611728565b34801561041457600080fd5b506000546040516001600160a01b039091168152602001610258565b61022961043e366004613dc2565b611735565b34801561044f57600080fd5b5061022961045e366004613fe1565b611960565b34801561046f57600080fd5b5061048361047e366004613dc2565b611ac1565b604051610258989796959493929190614034565b3480156104a357600080fd5b506102296104b2366004614143565b611c99565b3480156104c357600080fd5b50610229611dd7565b6102296104da3660046141ab565b611f6a565b3480156104eb57600080fd5b506104ff6104fa3660046141f6565b612361565b6040519015158152602001610258565b34801561051b57600080fd5b5061022961052a366004613e6d565b6123bb565b34801561053b57600080fd5b506105446124ec565b60405161025891906142d6565b61022961055f366004613dc2565b6129e0565b34801561057057600080fd5b5061022961057f36600461443c565b612d1d565b34801561059057600080fd5b5061024b61059f3660046144ac565b613258565b3480156105b057600080fd5b506105c46105bf3660046144d5565b6132f2565b6040516102589c9b9a99989796959493929190614511565b3480156105e857600080fd5b506007546102d4565b3480156105fd57600080fd5b506104ff61060c3660046144ac565b60046020526000908152604090205460ff1681565b34801561062d57600080fd5b50610544613510565b34801561064257600080fd5b506102296106513660046144ac565b6139fe565b34801561066257600080fd5b5061068d6106713660046144ac565b6002602081905260009182526040909120805491015460ff1682565b60408051928352901515602083015201610258565b3480156106ae57600080fd5b5061024b6106bd3660046144ac565b613a74565b82826107ad600183836040516106d99291906145b7565b90815260405190819003602001902080546106f3906145c7565b80601f016020809104026020016040519081016040528092919081815260200182805461071f906145c7565b801561076c5780601f106107415761010080835404028352916020019161076c565b820191906000526020600020905b81548152906001019060200180831161074f57829003601f168201915b505050505083838080601f01602080910402602001604051908101604052809392919081815260200183838082843760009201919091525061236192505050565b6107d25760405162461bcd60e51b81526004016107c9906145fb565b60405180910390fd5b6000600186866040516107e69291906145b7565b908152604051908190036020019020600781015490915060ff1661084c5760405162461bcd60e51b815260206004820152601960248201527f41756374696f6e20686173206e6f7420656e646564207965740000000000000060448201526064016107c9565b6004600b82015460ff1660068111156108675761086761429e565b036108da5760405162461bcd60e51b815260206004820152603760248201527f43616e7420726573756d6520657363726f772070726f6365737365732077697460448201527f686f75742064697370757465207265736f6c7574696f6e00000000000000000060648201526084016107c9565b60028101546001600160a01b031633148015610907575060018460068111156109055761090561429e565b145b801561094d57506000600b82015460ff1660068111156109295761092961429e565b148061094d57506005600b82015460ff16600681111561094b5761094b61429e565b145b806109c6575060028101546001600160a01b0316331480156109805750600284600681111561097e5761097e61429e565b145b80156109c657506001600b82015460ff1660068111156109a2576109a261429e565b14806109c657506005600b82015460ff1660068111156109c4576109c461429e565b145b80610a3f575060058101546001600160a01b0316331480156109f9575060038460068111156109f7576109f761429e565b145b8015610a3f57506002600b82015460ff166006811115610a1b57610a1b61429e565b1480610a3f57506005600b82015460ff166006811115610a3d57610a3d61429e565b145b80610ab8575060058101546001600160a01b031633148015610a7257506003846006811115610a7057610a7061429e565b145b8015610ab857506002600b82015460ff166006811115610a9457610a9461429e565b1480610ab857506005600b82015460ff166006811115610ab657610ab661429e565b145b610b045760405162461bcd60e51b815260206004820152601860248201527f496e76616c6964207374617465207472616e736974696f6e000000000000000060448201526064016107c9565b6000816008018054610b15906145c7565b905011610b705760405162461bcd60e51b815260206004820152602360248201527f506c656173652073657420612064656c697665727920616464726573732066696044820152621c9cdd60ea1b60648201526084016107c9565b600b8101805485919060ff19166001836006811115610b9157610b9161429e565b02179055506003846006811115610baa57610baa61429e565b03610c3257600854600282015460048084015460405163a9059cbb60e01b81526001600160a01b0393841692810192909252602482015291169063a9059cbb906044016020604051808303816000875af1158015610c0c573d6000803e3d6000fd5b505050506040513d601f19601f82011682018060405250810190610c309190614628565b505b505050505050565b60608282610c53600183836040516106d99291906145b7565b610c6f5760405162461bcd60e51b81526004016107c9906145fb565b8484336001600160a01b031660018383604051610c8d9291906145b7565b908152604051908190036020019020600201546001600160a01b031614610d065760405162461bcd60e51b815260206004820152602760248201527f4f6e6c792061756374696f6e206f776e65722063616e2063616c6c2074686973604482015266081b595d1a1bd960ca1b60648201526084016107c9565b60018787604051610d189291906145b7565b90815260200160405180910390206008018054610d34906145c7565b80601f0160208091040260200160405190810160405280929190818152602001828054610d60906145c7565b8015610dad5780601f10610d8257610100808354040283529160200191610dad565b820191906000526020600020905b815481529060010190602001808311610d9057829003601f168201915b505050505094505050505092915050565b336000908152600360205260409020610dd88284836146a5565b505050565b8383610df4600183836040516106d99291906145b7565b610e105760405162461bcd60e51b81526004016107c9906145fb565b600060018787604051610e249291906145b7565b90815260405190819003602001902060058101549091506001600160a01b0316331480610e5d575060028101546001600160a01b031633145b8015610e6d5750600781015460ff165b610e895760405162461bcd60e51b81526004016107c99061475f565b6009810180546001810182556000918252602090912001610eab8587836146a5565b5050505050505050565b336000908152600260208181526040808420805493810154600182018054845181870281018701909552808552606096889694959094929360ff169290918491889084015b82821015610fa6578382906000526020600020018054610f19906145c7565b80601f0160208091040260200160405190810160405280929190818152602001828054610f45906145c7565b8015610f925780601f10610f6757610100808354040283529160200191610f92565b820191906000526020600020905b815481529060010190602001808311610f7557829003601f168201915b505050505081526020019060010190610efa565b50505050915093509350935050909192565b610fc0613b20565b610fca6000613b7a565b565b8181610fe3600183836040516106d99291906145b7565b610fff5760405162461bcd60e51b81526004016107c9906145fb565b6000600185856040516110139291906145b7565b90815260405190819003602001902060058101549091506001600160a01b031633148061104c575060028101546001600160a01b031633145b801561105c5750600781015460ff165b6110785760405162461bcd60e51b81526004016107c99061475f565b600b8101805460ff19166004179055600680546001810182556000919091527ff652222313e28459528d920b65115c16c04f3efc82aaedc97be59f3f377c0d3f01610c328587836146a5565b6008546040516323b872dd60e01b8152336004820152306024820152604481018390526001600160a01b03909116906323b872dd906064016020604051808303816000875af115801561111b573d6000803e3d6000fd5b505050506040513d601f19601f8201168201806040525081019061113f9190614628565b50336000908152600260208190526040909120015460ff161561118657336000908152600260205260408120805483929061117b9084906147e4565b909155506111ee9050565b60408051606081810183528382526020808301828152600184860181905233600090815260028452959095208451815590518051939591936111d093928501929190910190613bca565b50604091909101516002909101805460ff1916911515919091179055505b50565b6111f9613b20565b600880546001600160401b03909216600160a01b0267ffffffffffffffff60a01b19909216919091179055565b61122e613b20565b6008805460ff909216600160e01b0260ff60e01b19909216919091179055565b60608282611267600183836040516106d99291906145b7565b6112835760405162461bcd60e51b81526004016107c9906145fb565b6000600186866040516112979291906145b7565b9081526020016040518091039020604051806101c00160405290816000820180546112c1906145c7565b80601f01602080910402602001604051908101604052809291908181526020018280546112ed906145c7565b801561133a5780601f1061130f5761010080835404028352916020019161133a565b820191906000526020600020905b81548152906001019060200180831161131d57829003601f168201915b50505050508152602001600182018054611353906145c7565b80601f016020809104026020016040519081016040528092919081815260200182805461137f906145c7565b80156113cc5780601f106113a1576101008083540402835291602001916113cc565b820191906000526020600020905b8154815290600101906020018083116113af57829003601f168201915b505050918352505060028201546001600160a01b03908116602083015260038301546040830152600483015460608301526005830154166080820152600682015460a0820152600782015460ff16151560c082015260088201805460e090920191611436906145c7565b80601f0160208091040260200160405190810160405280929190818152602001828054611462906145c7565b80156114af5780601f10611484576101008083540402835291602001916114af565b820191906000526020600020905b81548152906001019060200180831161149257829003601f168201915b5050505050815260200160098201805480602002602001604051908101604052809291908181526020016000905b828210156115895783829060005260206000200180546114fc906145c7565b80601f0160208091040260200160405190810160405280929190818152602001828054611528906145c7565b80156115755780601f1061154a57610100808354040283529160200191611575565b820191906000526020600020905b81548152906001019060200180831161155857829003601f168201915b5050505050815260200190600101906114dd565b505050508152602001600a8201805480602002602001604051908101604052809291908181526020016000905b828210156116625783829060005260206000200180546115d5906145c7565b80601f0160208091040260200160405190810160405280929190818152602001828054611601906145c7565b801561164e5780601f106116235761010080835404028352916020019161164e565b820191906000526020600020905b81548152906001019060200180831161163157829003601f168201915b5050505050815260200190600101906115b6565b50505090825250600b82015460209091019060ff1660068111156116885761168861429e565b60068111156116995761169961429e565b8152600b919091015460ff610100820481166020840152620100009091041660409091015260a08101519091506001600160a01b03163314806116f1575080604001516001600160a01b0316336001600160a01b0316145b80156116fe57508060e001515b61171a5760405162461bcd60e51b81526004016107c99061475f565b610120015195945050505050565b611730613b20565b600755565b818161174c600183836040516106d99291906145b7565b6117685760405162461bcd60e51b81526004016107c9906145fb565b838360046001838360405161177e9291906145b7565b908152604051908190036020019020600b015460ff1660068111156117a5576117a561429e565b146117c25760405162461bcd60e51b81526004016107c9906147f7565b3360009081526004602052604090205460ff166117f15760405162461bcd60e51b81526004016107c99061483a565b6000600187876040516118059291906145b7565b908152604051908190036020019020600b81015490915060ff620100008204811661010090920416106118c857600854600282015460048084015460405163a9059cbb60e01b81526001600160a01b0393841692810192909252602482015291169063a9059cbb906044016020604051808303816000875af115801561188f573d6000803e3d6000fd5b505050506040513d601f19601f820116820180604052508101906118b39190614628565b50600b8101805460ff19166005179055610c30565b600854600582015460048084015460405163a9059cbb60e01b81526001600160a01b0393841692810192909252602482015291169063a9059cbb906044016020604051808303816000875af1158015611925573d6000803e3d6000fd5b505050506040513d601f19601f820116820180604052508101906119499190614628565b50600b01805460ff19166006179055505050505050565b8282611977600183836040516106d99291906145b7565b6119935760405162461bcd60e51b81526004016107c9906145fb565b3360009081526004602052604090205460ff166119c25760405162461bcd60e51b81526004016107c99061483a565b84846004600183836040516119d89291906145b7565b908152604051908190036020019020600b015460ff1660068111156119ff576119ff61429e565b14611a1c5760405162461bcd60e51b81526004016107c9906147f7565b600060018888604051611a309291906145b7565b908152602001604051809103902090508560ff16600103611a8357600b81018054610100900460ff16906001611a6583614884565b91906101000a81548160ff021916908360ff16021790555050610eab565b600b8101805462010000900460ff16906002611a9e83614884565b91906101000a81548160ff021916908360ff160217905550505050505050505050565b6060806000806000806000808989611ae4600183836040516106d99291906145b7565b611b005760405162461bcd60e51b81526004016107c9906145fb565b600060018d8d604051611b149291906145b7565b9081526040519081900360200190206002810154600382015460048301546005840154600685015460078601548654969750879660018801966001600160a01b0390811696959416929160ff16908890611b6d906145c7565b80601f0160208091040260200160405190810160405280929190818152602001828054611b99906145c7565b8015611be65780601f10611bbb57610100808354040283529160200191611be6565b820191906000526020600020905b815481529060010190602001808311611bc957829003601f168201915b50505050509750868054611bf9906145c7565b80601f0160208091040260200160405190810160405280929190818152602001828054611c25906145c7565b8015611c725780601f10611c4757610100808354040283529160200191611c72565b820191906000526020600020905b815481529060010190602001808311611c5557829003601f168201915b505050505096509a509a509a509a509a509a509a509a505050509295985092959890939650565b8282611cb0600183836040516106d99291906145b7565b611ccc5760405162461bcd60e51b81526004016107c9906145fb565b848460018282604051611ce09291906145b7565b90815260405190819003602001902060050154336001600160a01b03909116148015611d30575060018282604051611d199291906145b7565b9081526040519081900360200190206007015460ff165b611d995760405162461bcd60e51b815260206004820152603460248201527f596f7520686176656e277420776f6e207468652061756374696f6e206f7220696044820152737473207374696c6c20696e2070726f677265737360601b60648201526084016107c9565b600060018888604051611dad9291906145b7565b908152604051908190036020019020905060088101611dcc87826148a3565b505050505050505050565b3360009081526002602052604090206001015415611e565760405162461bcd60e51b815260206004820152603660248201527f596f752063616e27742072656465656d20746f6b656e73207768696c65206f6e60448201527519dbda5b99c8185d58dd1a5bdb9cc81c195c9cda5cdd60521b60648201526084016107c9565b600854336000908152600260205260409081902054905163095ea7b360e01b815230600482015260248101919091526001600160a01b039091169063095ea7b3906044016020604051808303816000875af1158015611eb9573d6000803e3d6000fd5b505050506040513d601f19601f82011682018060405250810190611edd9190614628565b5060085433600081815260026020526040908190205490516323b872dd60e01b8152306004820152602481019290925260448201526001600160a01b03909116906323b872dd906064016020604051808303816000875af1158015611f46573d6000803e3d6000fd5b505050506040513d601f19601f820116820180604052508101906111ee9190614628565b8282611f81600183836040516106d99291906145b7565b611f9d5760405162461bcd60e51b81526004016107c9906145fb565b3360009081526003602052604090208054611fb7906145c7565b9050602c14611fd85760405162461bcd60e51b81526004016107c99061495c565b600060018686604051611fec9291906145b7565b9081526040519081900360200190206002810154909150336001600160a01b0391909116036120675760405162461bcd60e51b815260206004820152602160248201527f4f776e65722063616e277420626964206f6e2074686569722061756374696f6e6044820152607360f81b60648201526084016107c9565b838160030154106120cc5760405162461bcd60e51b815260206004820152602960248201527f426964206d75737420626520686967686572207468616e20746865207265736560448201526872766520707269636560b81b60648201526084016107c9565b600781015460ff16156121155760405162461bcd60e51b8152602060048201526011602482015270105d58dd1a5bdb881a185cc8195b991959607a1b60448201526064016107c9565b8060060154421061215e5760405162461bcd60e51b8152602060048201526013602482015272105d58dd1a5bdb881a185cc8195e1c1a5c9959606a1b60448201526064016107c9565b806004015484116121c95760405162461bcd60e51b815260206004820152602f60248201527f426964206d75737420626520686967686572207468616e20746865206375727260448201526e195b9d081a1a59da195cdd08189a59608a1b60648201526084016107c9565b6008546040516323b872dd60e01b8152336004820152306024820152604481018690526001600160a01b03909116906323b872dd906064016020604051808303816000875af1158015612220573d6000803e3d6000fd5b505050506040513d601f19601f820116820180604052508101906122449190614628565b5060058101546001600160a01b0316156122db57600854600582015460048084015460405163a9059cbb60e01b81526001600160a01b0393841692810192909252602482015291169063a9059cbb906044016020604051808303816000875af11580156122b5573d6000803e3d6000fd5b505050506040513d601f19601f820116820180604052508101906122d99190614628565b505b600481018490556005810180546001600160a01b0319163317905560068101546101f49061230a9042906149b9565b11610c3257600681015461231e42826149b9565b61232a906101f46149b9565b61233491906147e4565b600187876040516123469291906145b7565b90815260405190819003602001902060060155505050505050565b60008160405160200161237491906149cc565b604051602081830303815290604052805190602001208360405160200161239b91906149cc565b604051602081830303815290604052805190602001201490505b92915050565b83836123d2600183836040516106d99291906145b7565b6123ee5760405162461bcd60e51b81526004016107c9906145fb565b6000600187876040516124029291906145b7565b908152604051908190036020019020600781015490915060ff16801561246357503360009081526004602052604090205460ff1680612463575060058101546001600160a01b0316331480612463575060028101546001600160a01b031633145b6124ca5760405162461bcd60e51b815260206004820152603260248201527f596f7520646f206e6f7420686176652070726976696c6567657320746f206368604482015271617420696e2074686973206469737075746560701b60648201526084016107c9565b600a810180546001810182556000918252602090912001610eab8587836146a5565b6005546060906000906001600160401b0381111561250c5761250c6140a1565b60405190808252806020026020018201604052801561254557816020015b612532613c20565b81526020019060019003908161252a5790505b50905060005b6005548110156129da5760016005828154811061256a5761256a6149e8565b9060005260206000200160405161258191906149fe565b9081526020016040518091039020604051806101c00160405290816000820180546125ab906145c7565b80601f01602080910402602001604051908101604052809291908181526020018280546125d7906145c7565b80156126245780601f106125f957610100808354040283529160200191612624565b820191906000526020600020905b81548152906001019060200180831161260757829003601f168201915b5050505050815260200160018201805461263d906145c7565b80601f0160208091040260200160405190810160405280929190818152602001828054612669906145c7565b80156126b65780601f1061268b576101008083540402835291602001916126b6565b820191906000526020600020905b81548152906001019060200180831161269957829003601f168201915b505050918352505060028201546001600160a01b03908116602083015260038301546040830152600483015460608301526005830154166080820152600682015460a0820152600782015460ff16151560c082015260088201805460e090920191612720906145c7565b80601f016020809104026020016040519081016040528092919081815260200182805461274c906145c7565b80156127995780601f1061276e57610100808354040283529160200191612799565b820191906000526020600020905b81548152906001019060200180831161277c57829003601f168201915b5050505050815260200160098201805480602002602001604051908101604052809291908181526020016000905b828210156128735783829060005260206000200180546127e6906145c7565b80601f0160208091040260200160405190810160405280929190818152602001828054612812906145c7565b801561285f5780601f106128345761010080835404028352916020019161285f565b820191906000526020600020905b81548152906001019060200180831161284257829003601f168201915b5050505050815260200190600101906127c7565b505050508152602001600a8201805480602002602001604051908101604052809291908181526020016000905b8282101561294c5783829060005260206000200180546128bf906145c7565b80601f01602080910402602001604051908101604052809291908181526020018280546128eb906145c7565b80156129385780601f1061290d57610100808354040283529160200191612938565b820191906000526020600020905b81548152906001019060200180831161291b57829003601f168201915b5050505050815260200190600101906128a0565b50505090825250600b82015460209091019060ff1660068111156129725761297261429e565b60068111156129835761298361429e565b8152600b919091015460ff610100820481166020840152620100009091041660409091015282518390839081106129bc576129bc6149e8565b602002602001018190525080806129d290614a74565b91505061254b565b50919050565b81816129f7600183836040516106d99291906145b7565b612a135760405162461bcd60e51b81526004016107c9906145fb565b600060018585604051612a279291906145b7565b908152604051908190036020019020600781015490915060ff1615612a8e5760405162461bcd60e51b815260206004820152601960248201527f41756374696f6e2068617320616c726561647920656e6465640000000000000060448201526064016107c9565b8060060154421015612ae25760405162461bcd60e51b815260206004820152601960248201527f41756374696f6e20686173206e6f742079657420656e6465640000000000000060448201526064016107c9565b60028101546001600160a01b0316331480612b09575060058101546001600160a01b031633145b612b735760405162461bcd60e51b815260206004820152603560248201527f4f6e6c79207468652073656c6c6572206f722068696768657374206269646465604482015274391031b0b71032b732103a34329030bab1ba34b7b760591b60648201526084016107c9565b60078101805460ff19166001908117909155336000908152600260205260408120909101905b8154811015612d0857612c6b87878080601f016020809104026020016040519081016040528093929190818152602001838380828437600092019190915250508654879250612be891506145c7565b80601f0160208091040260200160405190810160405280929190818152602001828054612c14906145c7565b8015612c615780601f10612c3657610100808354040283529160200191612c61565b820191906000526020600020905b815481529060010190602001808311612c4457829003601f168201915b5050505050612361565b15612cf65781548290612c80906001906149b9565b81548110612c9057612c906149e8565b90600052602060002001828281548110612cac57612cac6149e8565b906000526020600020019081612cc29190614a8d565b5081805480612cd357612cd3614b59565b600190038181906000526020600020016000612cef9190613cb4565b9055612d08565b80612d0081614a74565b915050612b99565b508160040154600003610c3257505050505050565b600754336000908152600260205260409020541015612d945760405162461bcd60e51b815260206004820152602d60248201527f4e6f7420656e6f75676820746f6b656e73207374616b656420746f206372656160448201526c3a329030b71030bab1ba34b7b760991b60648201526084016107c9565b60085433600090815260026020526040902060010154600160e01b90910460ff1611612e125760405162461bcd60e51b815260206004820152602760248201527f596f752063616e2774206861766520616e79206d6f7265206163746976652061604482015266756374696f6e7360c81b60648201526084016107c9565b3360009081526003602052604090208054612e2c906145c7565b9050602c14612e4d5760405162461bcd60e51b81526004016107c99061495c565b612eb384848080601f0160208091040260200160405190810160405280939291908181526020018383808284376000920191909152505060405160019250612e999150889088906145b7565b9081526040519081900360200190208054612be8906145c7565b15612ef65760405162461bcd60e51b81526020600482015260136024820152724974656d20616c72656164792065786973747360681b60448201526064016107c9565b60008111612f565760405162461bcd60e51b815260206004820152602760248201527f52657365727665207072696365206d7573742062652067726561746572207468604482015266616e207a65726f60c81b60648201526084016107c9565b600854600090612f7690600160a01b90046001600160401b0316426147e4565b90506060604051806101c0016040528087878080601f0160208091040260200160405190810160405280939291908181526020018383808284376000920182905250938552505050602080830188905233604080850191909152606084018890526080840183905260a0840183905260c0840187905260e0840183905280519182019052818152610100830152610120820184905261014082018490526101609091019081526000602082018190526040918201525160019061303c90899089906145b7565b9081526040519081900360200190208151819061305990826148a3565b506020820151600182019061306e90826148a3565b5060408201516002820180546001600160a01b039283166001600160a01b031991821617909155606084015160038401556080840151600484015560a084015160058401805491909316911617905560c0820151600682015560e082015160078201805491151560ff1990921691909117905561010082015160088201906130f690826148a3565b506101208201518051613113916009840191602090910190613bca565b50610140820151805161313091600a840191602090910190613bca565b50610160820151600b8201805460ff191660018360068111156131555761315561429e565b0217905550610180820151600b90910180546101a09093015160ff908116620100000262ff00001991909316610100021662ffff001990931692909217179055336000908152600260209081526040822060019081018054918201815583529120016131c28688836146a5565b50600580546001810182556000919091527f036b6384b5eca791c62761152d0c79bb0604c104a5fb6f4eb0703f3154bb3db0016132008688836146a5565b5085856040516132119291906145b7565b60405180910390207f580c79f80d4cb0e438a0d03f153c3dd27d464553dcc2fb869879bc42fd524c3b856040516132489190613e53565b60405180910390a2505050505050565b60036020526000908152604090208054613271906145c7565b80601f016020809104026020016040519081016040528092919081815260200182805461329d906145c7565b80156132ea5780601f106132bf576101008083540402835291602001916132ea565b820191906000526020600020905b8154815290600101906020018083116132cd57829003601f168201915b505050505081565b8051602081830181018051600182529282019190930120915280548190613318906145c7565b80601f0160208091040260200160405190810160405280929190818152602001828054613344906145c7565b80156133915780601f1061336657610100808354040283529160200191613391565b820191906000526020600020905b81548152906001019060200180831161337457829003601f168201915b5050505050908060010180546133a6906145c7565b80601f01602080910402602001604051908101604052809291908181526020018280546133d2906145c7565b801561341f5780601f106133f45761010080835404028352916020019161341f565b820191906000526020600020905b81548152906001019060200180831161340257829003601f168201915b5050505060028301546003840154600485015460058601546006870154600788015460088901805498996001600160a01b0397881699969850949690931694919360ff909116929091613471906145c7565b80601f016020809104026020016040519081016040528092919081815260200182805461349d906145c7565b80156134ea5780601f106134bf576101008083540402835291602001916134ea565b820191906000526020600020905b8154815290600101906020018083116134cd57829003601f168201915b505050600b909301549192505060ff80821691610100810482169162010000909104168c565b6006546060906000906001600160401b03811115613530576135306140a1565b60405190808252806020026020018201604052801561356957816020015b613556613c20565b81526020019060019003908161354e5790505b50905060005b6005548110156129da5760016006828154811061358e5761358e6149e8565b906000526020600020016040516135a591906149fe565b9081526020016040518091039020604051806101c00160405290816000820180546135cf906145c7565b80601f01602080910402602001604051908101604052809291908181526020018280546135fb906145c7565b80156136485780601f1061361d57610100808354040283529160200191613648565b820191906000526020600020905b81548152906001019060200180831161362b57829003601f168201915b50505050508152602001600182018054613661906145c7565b80601f016020809104026020016040519081016040528092919081815260200182805461368d906145c7565b80156136da5780601f106136af576101008083540402835291602001916136da565b820191906000526020600020905b8154815290600101906020018083116136bd57829003601f168201915b505050918352505060028201546001600160a01b03908116602083015260038301546040830152600483015460608301526005830154166080820152600682015460a0820152600782015460ff16151560c082015260088201805460e090920191613744906145c7565b80601f0160208091040260200160405190810160405280929190818152602001828054613770906145c7565b80156137bd5780601f10613792576101008083540402835291602001916137bd565b820191906000526020600020905b8154815290600101906020018083116137a057829003601f168201915b5050505050815260200160098201805480602002602001604051908101604052809291908181526020016000905b8282101561389757838290600052602060002001805461380a906145c7565b80601f0160208091040260200160405190810160405280929190818152602001828054613836906145c7565b80156138835780601f1061385857610100808354040283529160200191613883565b820191906000526020600020905b81548152906001019060200180831161386657829003601f168201915b5050505050815260200190600101906137eb565b505050508152602001600a8201805480602002602001604051908101604052809291908181526020016000905b828210156139705783829060005260206000200180546138e3906145c7565b80601f016020809104026020016040519081016040528092919081815260200182805461390f906145c7565b801561395c5780601f106139315761010080835404028352916020019161395c565b820191906000526020600020905b81548152906001019060200180831161393f57829003601f168201915b5050505050815260200190600101906138c4565b50505090825250600b82015460209091019060ff1660068111156139965761399661429e565b60068111156139a7576139a761429e565b8152600b919091015460ff610100820481166020840152620100009091041660409091015282518390839081106139e0576139e06149e8565b602002602001018190525080806139f690614a74565b91505061356f565b613a06613b20565b6001600160a01b038116613a6b5760405162461bcd60e51b815260206004820152602660248201527f4f776e61626c653a206e6577206f776e657220697320746865207a65726f206160448201526564647265737360d01b60648201526084016107c9565b6111ee81613b7a565b6001600160a01b0381166000908152600360205260409020805460609190613a9b906145c7565b80601f0160208091040260200160405190810160405280929190818152602001828054613ac7906145c7565b8015613b145780601f10613ae957610100808354040283529160200191613b14565b820191906000526020600020905b815481529060010190602001808311613af757829003601f168201915b50505050509050919050565b6000546001600160a01b03163314610fca5760405162461bcd60e51b815260206004820181905260248201527f4f776e61626c653a2063616c6c6572206973206e6f7420746865206f776e657260448201526064016107c9565b600080546001600160a01b038381166001600160a01b0319831681178455604051919092169283917f8be0079c531659141344cd1fd0a4f28419497f9722a3daafe3b4186f6b6457e09190a35050565b828054828255906000526020600020908101928215613c10579160200282015b82811115613c105782518290613c0090826148a3565b5091602001919060010190613bea565b50613c1c929150613cee565b5090565b604051806101c00160405280606081526020016060815260200160006001600160a01b03168152602001600081526020016000815260200160006001600160a01b031681526020016000815260200160001515815260200160608152602001606081526020016060815260200160006006811115613ca057613ca061429e565b815260006020820181905260409091015290565b508054613cc0906145c7565b6000825580601f10613cd0575050565b601f0160209004906000526020600020908101906111ee9190613d0b565b80821115613c1c576000613d028282613cb4565b50600101613cee565b5b80821115613c1c5760008155600101613d0c565b60008083601f840112613d3257600080fd5b5081356001600160401b03811115613d4957600080fd5b602083019150836020828501011115613d6157600080fd5b9250929050565b600080600060408486031215613d7d57600080fd5b83356001600160401b03811115613d9357600080fd5b613d9f86828701613d20565b909450925050602084013560078110613db757600080fd5b809150509250925092565b60008060208385031215613dd557600080fd5b82356001600160401b03811115613deb57600080fd5b613df785828601613d20565b90969095509350505050565b60005b83811015613e1e578181015183820152602001613e06565b50506000910152565b60008151808452613e3f816020860160208601613e03565b601f01601f19169290920160200192915050565b602081526000613e666020830184613e27565b9392505050565b60008060008060408587031215613e8357600080fd5b84356001600160401b0380821115613e9a57600080fd5b613ea688838901613d20565b90965094506020870135915080821115613ebf57600080fd5b50613ecc87828801613d20565b95989497509550505050565b600082825180855260208086019550808260051b84010181860160005b84811015613f2357601f19868403018952613f11838351613e27565b98840198925090830190600101613ef5565b5090979650505050505050565b838152606060208201526000613f496060830185613ed8565b90508215156040830152949350505050565b600060208284031215613f6d57600080fd5b5035919050565b600060208284031215613f8657600080fd5b81356001600160401b0381168114613e6657600080fd5b803560ff81168114613fae57600080fd5b919050565b600060208284031215613fc557600080fd5b613e6682613f9d565b602081526000613e666020830184613ed8565b600080600060408486031215613ff657600080fd5b83356001600160401b0381111561400c57600080fd5b61401886828701613d20565b909450925061402b905060208501613f9d565b90509250925092565b60006101008083526140488184018c613e27565b9050828103602084015261405c818b613e27565b6001600160a01b03998a1660408501526060840198909852505060808101949094529190941660a083015260c082019390935291151560e09092019190915292915050565b634e487b7160e01b600052604160045260246000fd5b600082601f8301126140c857600080fd5b81356001600160401b03808211156140e2576140e26140a1565b604051601f8301601f19908116603f0116810190828211818310171561410a5761410a6140a1565b8160405283815286602085880101111561412357600080fd5b836020870160208301376000602085830101528094505050505092915050565b60008060006040848603121561415857600080fd5b83356001600160401b038082111561416f57600080fd5b61417b87838801613d20565b9095509350602086013591508082111561419457600080fd5b506141a1868287016140b7565b9150509250925092565b6000806000604084860312156141c057600080fd5b83356001600160401b038111156141d657600080fd5b6141e286828701613d20565b909790965060209590950135949350505050565b6000806040838503121561420957600080fd5b82356001600160401b038082111561422057600080fd5b61422c868387016140b7565b9350602085013591508082111561424257600080fd5b5061424f858286016140b7565b9150509250929050565b6000815180845260208085019450848260051b860182860160005b85811015613f2357838303895261428c838351613e27565b98850198925090840190600101614274565b634e487b7160e01b600052602160045260246000fd5b600781106142d257634e487b7160e01b600052602160045260246000fd5b9052565b60006020808301818452808551808352604092508286019150828160051b87010184880160005b8381101561442e57603f1989840301855281516101c0815181865261432482870182613e27565b915050888201518582038a87015261433c8282613e27565b91505087820151614357898701826001600160a01b03169052565b50606082810151908601526080808301519086015260a0808301516001600160a01b03169086015260c0808301519086015260e08083015115159086015261010080830151868303828801526143ad8382613e27565b9250505061012080830151868303828801526143c98382614259565b9250505061014080830151868303828801526143e58382614259565b92505050610160808301516143fc828801826142b4565b50506101808281015160ff908116918701919091526101a09283015116919094015293860193908601906001016142fd565b509098975050505050505050565b6000806000806060858703121561445257600080fd5b84356001600160401b038082111561446957600080fd5b61447588838901613d20565b9096509450602087013591508082111561448e57600080fd5b5061449b878288016140b7565b949793965093946040013593505050565b6000602082840312156144be57600080fd5b81356001600160a01b0381168114613e6657600080fd5b6000602082840312156144e757600080fd5b81356001600160401b038111156144fd57600080fd5b614509848285016140b7565b949350505050565b6101808152600061452661018083018f613e27565b8281036020840152614538818f613e27565b6001600160a01b038e81166040860152606085018e9052608085018d90528b1660a085015260c084018a905288151560e085015283810361010085015290506145818188613e27565b9150506145926101208301866142b4565b60ff841661014083015260ff83166101608301529d9c50505050505050505050505050565b8183823760009101908152919050565b600181811c908216806145db57607f821691505b6020821081036129da57634e487b7160e01b600052602260045260246000fd5b602080825260139082015272125d195b48191bd95cc81b9bdd08195e1a5cdd606a1b604082015260600190565b60006020828403121561463a57600080fd5b81518015158114613e6657600080fd5b601f821115610dd857600081815260208120601f850160051c810160208610156146715750805b601f850160051c820191505b81811015610c325782815560010161467d565b600019600383901b1c191660019190911b1790565b6001600160401b038311156146bc576146bc6140a1565b6146d0836146ca83546145c7565b8361464a565b6000601f8411600181146146fe57600085156146ec5750838201355b6146f68682614690565b845550614758565b600083815260209020601f19861690835b8281101561472f578685013582556020948501946001909201910161470f565b508682101561474c5760001960f88860031b161c19848701351681555b505060018560011b0183555b5050505050565b60208082526049908201527f41756374696f6e20686173206e6f7420656e646564207965742c206f7220796f60408201527f7520617265206e6f74207468652077696e6e6572206f72206f776e6572206f6660608201526820746865206974656d60b81b608082015260a00190565b634e487b7160e01b600052601160045260246000fd5b808201808211156123b5576123b56147ce565b60208082526023908201527f546869732061756374696f6e20646f65736e277420686176652061206469737060408201526275746560e81b606082015260800190565b6020808252602a908201527f596f7520617265206e6f7420616e20617574686f72697a656420636f6d6d69746040820152693a32b29036b2b6b132b960b11b606082015260800190565b600060ff821660ff810361489a5761489a6147ce565b60010192915050565b81516001600160401b038111156148bc576148bc6140a1565b6148d0816148ca84546145c7565b8461464a565b602080601f8311600181146148ff57600084156148ed5750858301515b6148f78582614690565b865550610c32565b600085815260208120601f198616915b8281101561492e5788860151825594840194600190910190840161490f565b508582101561494c5787850151600019600388901b60f8161c191681555b5050505050600190811b01905550565b6020808252603c908201527f506c65617365207375626d697420796f7572206574682077616c6c657420707560408201527f626b6579206265666f7265207573696e67207468652073797374656d00000000606082015260800190565b818103818111156123b5576123b56147ce565b600082516149de818460208701613e03565b9190910192915050565b634e487b7160e01b600052603260045260246000fd5b6000808354614a0c816145c7565b60018281168015614a245760018114614a3957614a68565b60ff1984168752821515830287019450614a68565b8760005260208060002060005b85811015614a5f5781548a820152908401908201614a46565b50505082870194505b50929695505050505050565b600060018201614a8657614a866147ce565b5060010190565b818103614a98575050565b614aa282546145c7565b6001600160401b03811115614ab957614ab96140a1565b614ac7816148ca84546145c7565b6000601f821160018114614af55760008315614ae35750848201545b614aed8482614690565b855550614758565b600085815260209020601f19841690600086815260209020845b83811015614b2f5782860154825560019586019590910190602001614b0f565b508583101561494c5793015460001960f8600387901b161c19169092555050600190811b01905550565b634e487b7160e01b600052603160045260246000fdfea26469706673582212206b6e4ec1a427e2840ffc24da1a575882ddbef5d17b4919248d5bfd456edebd8a64736f6c63430008130033",
  "linkReferences": {},
  "deployedLinkReferences": {}
}