{
  "_format": "hh-sol-artifact-1",
  "contractName": "Auction",
  "sourceName": "contracts/Auction.sol",
  "abi": [
    {
      "inputs": [
        {
          "internalType": "contract ObscurityToken",
          "name": "_token",
          "type": "address"
        }
      ],
      "stateMutability": "nonpayable",
      "type": "constructor"
    },
    {
      "anonymous": false,
      "inputs": [
        {
          "indexed": true,
          "internalType": "uint256",
          "name": "itemId",
          "type": "uint256"
        },
        {
          "indexed": false,
          "internalType": "string",
          "name": "itemName",
          "type": "string"
        }
      ],
      "name": "AuctionItemCreated",
      "type": "event"
    },
    {
      "anonymous": false,
      "inputs": [
        {
          "indexed": true,
          "internalType": "address",
          "name": "previousOwner",
          "type": "address"
        },
        {
          "indexed": true,
          "internalType": "address",
          "name": "newOwner",
          "type": "address"
        }
      ],
      "name": "OwnershipTransferred",
      "type": "event"
    },
    {
      "inputs": [
        {
          "internalType": "address",
          "name": "",
          "type": "address"
        }
      ],
      "name": "activeAuctionOwners",
      "outputs": [
        {
          "internalType": "uint256",
          "name": "stakedAmount",
          "type": "uint256"
        },
        {
          "internalType": "bool",
          "name": "isInitialized",
          "type": "bool"
        }
      ],
      "stateMutability": "view",
      "type": "function"
    },
    {
      "inputs": [
        {
          "internalType": "uint256",
          "name": "",
          "type": "uint256"
        }
      ],
      "name": "auctionItems",
      "outputs": [
        {
          "internalType": "uint256",
          "name": "itemId",
          "type": "uint256"
        },
        {
          "internalType": "string",
          "name": "itemName",
          "type": "string"
        },
        {
          "internalType": "address payable",
          "name": "seller",
          "type": "address"
        },
        {
          "internalType": "uint256",
          "name": "reservePrice",
          "type": "uint256"
        },
        {
          "internalType": "uint256",
          "name": "highestBid",
          "type": "uint256"
        },
        {
          "internalType": "address payable",
          "name": "highestBidder",
          "type": "address"
        },
        {
          "internalType": "uint256",
          "name": "auctionEndTime",
          "type": "uint256"
        },
        {
          "internalType": "bool",
          "name": "ended",
          "type": "bool"
        }
      ],
      "stateMutability": "view",
      "type": "function"
    },
    {
      "inputs": [
        {
          "internalType": "uint256",
          "name": "itemId",
          "type": "uint256"
        },
        {
          "internalType": "string",
          "name": "itemName",
          "type": "string"
        },
        {
          "internalType": "uint256",
          "name": "reservePrice",
          "type": "uint256"
        }
      ],
      "name": "createAuctionItem",
      "outputs": [],
      "stateMutability": "nonpayable",
      "type": "function"
    },
    {
      "inputs": [
        {
          "internalType": "uint256",
          "name": "itemId",
          "type": "uint256"
        }
      ],
      "name": "endAuction",
      "outputs": [],
      "stateMutability": "payable",
      "type": "function"
    },
    {
      "inputs": [],
      "name": "getActiveAuctioneer",
      "outputs": [
        {
          "internalType": "uint256",
          "name": "",
          "type": "uint256"
        },
        {
          "internalType": "uint256[]",
          "name": "",
          "type": "uint256[]"
        },
        {
          "internalType": "bool",
          "name": "",
          "type": "bool"
        }
      ],
      "stateMutability": "view",
      "type": "function"
    },
    {
      "inputs": [],
      "name": "getAuctionDuration",
      "outputs": [
        {
          "internalType": "uint256",
          "name": "",
          "type": "uint256"
        }
      ],
      "stateMutability": "view",
      "type": "function"
    },
    {
      "inputs": [
        {
          "internalType": "uint256",
          "name": "itemId",
          "type": "uint256"
        }
      ],
      "name": "getAuctionItem",
      "outputs": [
        {
          "internalType": "uint256",
          "name": "",
          "type": "uint256"
        },
        {
          "internalType": "string",
          "name": "",
          "type": "string"
        },
        {
          "internalType": "address payable",
          "name": "",
          "type": "address"
        },
        {
          "internalType": "uint256",
          "name": "",
          "type": "uint256"
        },
        {
          "internalType": "uint256",
          "name": "",
          "type": "uint256"
        },
        {
          "internalType": "address payable",
          "name": "",
          "type": "address"
        },
        {
          "internalType": "uint256",
          "name": "",
          "type": "uint256"
        },
        {
          "internalType": "bool",
          "name": "",
          "type": "bool"
        }
      ],
      "stateMutability": "view",
      "type": "function"
    },
    {
      "inputs": [],
      "name": "getConcurrentAuctionsPerUser",
      "outputs": [
        {
          "internalType": "uint256",
          "name": "",
          "type": "uint256"
        }
      ],
      "stateMutability": "view",
      "type": "function"
    },
    {
      "inputs": [],
      "name": "getCurrentTimestamp",
      "outputs": [
        {
          "internalType": "uint256",
          "name": "",
          "type": "uint256"
        }
      ],
      "stateMutability": "view",
      "type": "function"
    },
    {
      "inputs": [],
      "name": "getTokensToStake",
      "outputs": [
        {
          "internalType": "uint256",
          "name": "",
          "type": "uint256"
        }
      ],
      "stateMutability": "view",
      "type": "function"
    },
    {
      "inputs": [],
      "name": "owner",
      "outputs": [
        {
          "internalType": "address",
          "name": "",
          "type": "address"
        }
      ],
      "stateMutability": "view",
      "type": "function"
    },
    {
      "inputs": [
        {
          "internalType": "uint256",
          "name": "itemId",
          "type": "uint256"
        },
        {
          "internalType": "uint256",
          "name": "bidAmount",
          "type": "uint256"
        }
      ],
      "name": "placeBid",
      "outputs": [],
      "stateMutability": "payable",
      "type": "function"
    },
    {
      "inputs": [],
      "name": "relinquishTokensToOwner",
      "outputs": [],
      "stateMutability": "nonpayable",
      "type": "function"
    },
    {
      "inputs": [],
      "name": "renounceOwnership",
      "outputs": [],
      "stateMutability": "nonpayable",
      "type": "function"
    },
    {
      "inputs": [
        {
          "internalType": "uint256",
          "name": "duration",
          "type": "uint256"
        }
      ],
      "name": "setAuctionDuration",
      "outputs": [],
      "stateMutability": "nonpayable",
      "type": "function"
    },
    {
      "inputs": [
        {
          "internalType": "uint256",
          "name": "auctionCount",
          "type": "uint256"
        }
      ],
      "name": "setConcurrentAuctionsPerUser",
      "outputs": [],
      "stateMutability": "nonpayable",
      "type": "function"
    },
    {
      "inputs": [
        {
          "internalType": "uint256",
          "name": "amount",
          "type": "uint256"
        }
      ],
      "name": "setTokensToStake",
      "outputs": [],
      "stateMutability": "nonpayable",
      "type": "function"
    },
    {
      "inputs": [
        {
          "internalType": "uint256",
          "name": "amount",
          "type": "uint256"
        }
      ],
      "name": "stakeTokens",
      "outputs": [],
      "stateMutability": "nonpayable",
      "type": "function"
    },
    {
      "inputs": [
        {
          "internalType": "address",
          "name": "newOwner",
          "type": "address"
        }
      ],
      "name": "transferOwnership",
      "outputs": [],
      "stateMutability": "nonpayable",
      "type": "function"
    }
  ],
  "bytecode": "0x60806040526101f460035562015180600555600260065534801561002257600080fd5b506040516119ed3803806119ed833981016040819052610041916100bf565b61004a3361006f565b600480546001600160a01b0319166001600160a01b03929092169190911790556100ef565b600080546001600160a01b038381166001600160a01b0319831681178455604051919092169283917f8be0079c531659141344cd1fd0a4f28419497f9722a3daafe3b4186f6b6457e09190a35050565b6000602082840312156100d157600080fd5b81516001600160a01b03811681146100e857600080fd5b9392505050565b6118ef806100fe6000396000f3fe6080604052600436106101145760003560e01c80638aaf2761116100a0578063b9a2de3a11610064578063b9a2de3a146102c8578063d2c069f0146102db578063d8bcd0c9146102fb578063f2fde38b14610310578063fb346ea01461033057600080fd5b80638aaf27611461022b5780638da5cb5b1461024b5780638e9b8d9014610273578063a497e67414610293578063a4bdc06e146102b357600080fd5b80636e2ec26c116100e75780636e2ec26c146101ac578063715018a6146101cc5780637547c7a3146101e157806378cb51af1461020157806388624ab31461021657600080fd5b80634f04e79c1461011957806357c90de51461014657806368bae9341461015b5780636c9230db1461018f575b600080fd5b34801561012557600080fd5b5061012e61037c565b60405161013d93929190611444565b60405180910390f35b61015961015436600461149d565b6103fe565b005b34801561016757600080fd5b5061017b6101763660046114bf565b610791565b60405161013d98979695949392919061151e565b34801561019b57600080fd5b50425b60405190815260200161013d565b3480156101b857600080fd5b506101596101c7366004611593565b6108cc565b3480156101d857600080fd5b50610159610bba565b3480156101ed57600080fd5b506101596101fc3660046114bf565b610bce565b34801561020d57600080fd5b5060055461019e565b34801561022257600080fd5b5060065461019e565b34801561023757600080fd5b506101596102463660046114bf565b610d02565b34801561025757600080fd5b506000546040516001600160a01b03909116815260200161013d565b34801561027f57600080fd5b5061015961028e3660046114bf565b610d0f565b34801561029f57600080fd5b506101596102ae3660046114bf565b610d1c565b3480156102bf57600080fd5b50610159610d29565b6101596102d63660046114bf565b610ebb565b3480156102e757600080fd5b5061017b6102f63660046114bf565b6111ac565b34801561030757600080fd5b5060035461019e565b34801561031c57600080fd5b5061015961032b366004611657565b611284565b34801561033c57600080fd5b5061036761034b366004611657565b6002602081905260009182526040909120805491015460ff1682565b6040805192835290151560208301520161013d565b336000908152600260208181526040808420805493810154600182018054845181870281018701909552808552606096889694959094929360ff1692909184918301828280156103eb57602002820191906000526020600020905b8154815260200190600101908083116103d7575b5050505050915093509350935050909192565b600082815260016020526040902054829081146104365760405162461bcd60e51b815260040161042d90611687565b60405180910390fd5b60008381526001602052604090206002810154336001600160a01b03909116036104ac5760405162461bcd60e51b815260206004820152602160248201527f4f776e65722063616e277420626964206f6e2074686569722061756374696f6e6044820152607360f81b606482015260840161042d565b828160030154106105115760405162461bcd60e51b815260206004820152602960248201527f426964206d75737420626520686967686572207468616e20746865207265736560448201526872766520707269636560b81b606482015260840161042d565b600781015460ff161561055a5760405162461bcd60e51b8152602060048201526011602482015270105d58dd1a5bdb881a185cc8195b991959607a1b604482015260640161042d565b806006015442106105a35760405162461bcd60e51b8152602060048201526013602482015272105d58dd1a5bdb881a185cc8195e1c1a5c9959606a1b604482015260640161042d565b8060040154831161060e5760405162461bcd60e51b815260206004820152602f60248201527f426964206d75737420626520686967686572207468616e20746865206375727260448201526e195b9d081a1a59da195cdd08189a59608a1b606482015260840161042d565b600480546040516323b872dd60e01b81523392810192909252306024830152604482018590526001600160a01b0316906323b872dd906064016020604051808303816000875af1158015610666573d6000803e3d6000fd5b505050506040513d601f19601f8201168201806040525081019061068a91906116b4565b5060058101546001600160a01b03161561071f576004805460058301548383015460405163a9059cbb60e01b81526001600160a01b03928316948101949094526024840152169063a9059cbb906044016020604051808303816000875af11580156106f9573d6000803e3d6000fd5b505050506040513d601f19601f8201168201806040525081019061071d91906116b4565b505b600481018390556005810180546001600160a01b0319163317905560068101546101f49061074e9042906116ec565b1161078b57600681015461076242826116ec565b61076e906101f46116ec565b6107789190611705565b6000858152600160205260409020600601555b50505050565b6000606060008060008060008088806001600083815260200190815260200160002060000154146107d45760405162461bcd60e51b815260040161042d90611687565b60008a8152600160208190526040909120805460028201546003830154600484015460058501546006860154600787015497870180549798969790966001600160a01b03968716969093169260ff1690879061082f90611718565b80601f016020809104026020016040519081016040528092919081815260200182805461085b90611718565b80156108a85780601f1061087d576101008083540402835291602001916108a8565b820191906000526020600020905b81548152906001019060200180831161088b57829003601f168201915b50505050509650995099509950995099509950995099505050919395975091939597565b6003543360009081526002602052604090205410156109435760405162461bcd60e51b815260206004820152602d60248201527f4e6f7420656e6f75676820746f6b656e73207374616b656420746f206372656160448201526c3a329030b71030bab1ba34b7b760991b606482015260840161042d565b60065433600090815260026020526040902060010154106109b65760405162461bcd60e51b815260206004820152602760248201527f596f752063616e2774206861766520616e79206d6f7265206163746976652061604482015266756374696f6e7360c81b606482015260840161042d565b60008381526001602052604090205415610a085760405162461bcd60e51b81526020600482015260136024820152724974656d20616c72656164792065786973747360681b604482015260640161042d565b60008111610a685760405162461bcd60e51b815260206004820152602760248201527f52657365727665207072696365206d7573742062652067726561746572207468604482015266616e207a65726f60c81b606482015260840161042d565b600060055442610a789190611705565b6040805161010081018252868152602080820187815233838501526060830187905260006080840181905260a0840181905260c0840186905260e0840181905289815260019283905293909320825181559251939450909290820190610ade90826117a1565b50604082810151600280840180546001600160a01b039384166001600160a01b031991821617909155606086015160038601556080860151600486015560a08601516005860180549190941691161790915560c0840151600684015560e0909301516007909201805492151560ff1990931692909217909155336000908152602092835281812060019081018054918201815582529290209091018590555184907f3fb6e393977782dbaf8affb32c163c4c606c4d37b991d95505e231efe806757290610bac908690611861565b60405180910390a250505050565b610bc26112fa565b610bcc6000611354565b565b600480546040516323b872dd60e01b81523392810192909252306024830152604482018390526001600160a01b0316906323b872dd906064016020604051808303816000875af1158015610c26573d6000803e3d6000fd5b505050506040513d601f19601f82011682018060405250810190610c4a91906116b4565b50336000908152600260208190526040909120015460ff1615610c91573360009081526002602052604081208054839290610c86908490611705565b90915550610cff9050565b60408051606081018252828152815160008082526020808301855280840192835260018486018190523383526002825294909120835181559151805193949293610ce29385019291909101906113a4565b50604091909101516002909101805460ff19169115159190911790555b50565b610d0a6112fa565b600355565b610d176112fa565b600655565b610d246112fa565b600555565b3360009081526002602052604090206001015415610da85760405162461bcd60e51b815260206004820152603660248201527f596f752063616e27742072656465656d20746f6b656e73207768696c65206f6e60448201527519dbda5b99c8185d58dd1a5bdb9cc81c195c9cda5cdd60521b606482015260840161042d565b60048054336000908152600260205260409081902054905163095ea7b360e01b8152309381019390935260248301526001600160a01b03169063095ea7b3906044016020604051808303816000875af1158015610e09573d6000803e3d6000fd5b505050506040513d601f19601f82011682018060405250810190610e2d91906116b4565b506004805433600081815260026020526040908190205490516323b872dd60e01b81523094810194909452602484019190915260448301526001600160a01b0316906323b872dd906064016020604051808303816000875af1158015610e97573d6000803e3d6000fd5b505050506040513d601f19601f82011682018060405250810190610cff91906116b4565b60008181526001602052604090205481908114610eea5760405162461bcd60e51b815260040161042d90611687565b6000828152600160205260409020600781015460ff1615610f4d5760405162461bcd60e51b815260206004820152601960248201527f41756374696f6e2068617320616c726561647920656e64656400000000000000604482015260640161042d565b8060060154421015610fa15760405162461bcd60e51b815260206004820152601960248201527f41756374696f6e20686173206e6f742079657420656e64656400000000000000604482015260640161042d565b60028101546001600160a01b0316331480610fc8575060058101546001600160a01b031633145b6110325760405162461bcd60e51b815260206004820152603560248201527f4f6e6c79207468652073656c6c6572206f722068696768657374206269646465604482015274391031b0b71032b732103a34329030bab1ba34b7b760591b606482015260840161042d565b60078101805460ff19166001908117909155336000908152600260205260408120909101905b815481101561111357846001036111015781548290611079906001906116ec565b8154811061108957611089611874565b90600052602060002001548282815481106110a6576110a6611874565b9060005260206000200181905550818054806110c4576110c461188a565b600082815260208082208301600019908101839055909201909255338252600290526040902082546110fb916001019084906113ef565b50611113565b8061110b816118a0565b915050611058565b5081600401546000036111265750505050565b6004805460028401548483015460405163a9059cbb60e01b81526001600160a01b03928316948101949094526024840152169063a9059cbb906044016020604051808303816000875af1158015611181573d6000803e3d6000fd5b505050506040513d601f19601f820116820180604052508101906111a591906116b4565b5050505050565b6001602081905260009182526040909120805491810180546111cd90611718565b80601f01602080910402602001604051908101604052809291908181526020018280546111f990611718565b80156112465780601f1061121b57610100808354040283529160200191611246565b820191906000526020600020905b81548152906001019060200180831161122957829003601f168201915b505050506002830154600384015460048501546005860154600687015460079097015495966001600160a01b03948516969395509193169160ff1688565b61128c6112fa565b6001600160a01b0381166112f15760405162461bcd60e51b815260206004820152602660248201527f4f776e61626c653a206e6577206f776e657220697320746865207a65726f206160448201526564647265737360d01b606482015260840161042d565b610cff81611354565b6000546001600160a01b03163314610bcc5760405162461bcd60e51b815260206004820181905260248201527f4f776e61626c653a2063616c6c6572206973206e6f7420746865206f776e6572604482015260640161042d565b600080546001600160a01b038381166001600160a01b0319831681178455604051919092169283917f8be0079c531659141344cd1fd0a4f28419497f9722a3daafe3b4186f6b6457e09190a35050565b8280548282559060005260206000209081019282156113df579160200282015b828111156113df5782518255916020019190600101906113c4565b506113eb92915061142f565b5090565b8280548282559060005260206000209081019282156113df5760005260206000209182015b828111156113df578254825591600101919060010190611414565b5b808211156113eb5760008155600101611430565b6000606082018583526020606081850152818651808452608086019150828801935060005b8181101561148557845183529383019391830191600101611469565b50508093505050508215156040830152949350505050565b600080604083850312156114b057600080fd5b50508035926020909101359150565b6000602082840312156114d157600080fd5b5035919050565b6000815180845260005b818110156114fe576020818501810151868301820152016114e2565b506000602082860101526020601f19601f83011685010191505092915050565b60006101008a83528060208401526115388184018b6114d8565b6001600160a01b03998a1660408501526060840198909852505060808101949094529190941660a083015260c082019390935291151560e09092019190915292915050565b634e487b7160e01b600052604160045260246000fd5b6000806000606084860312156115a857600080fd5b83359250602084013567ffffffffffffffff808211156115c757600080fd5b818601915086601f8301126115db57600080fd5b8135818111156115ed576115ed61157d565b604051601f8201601f19908116603f011681019083821181831017156116155761161561157d565b8160405282815289602084870101111561162e57600080fd5b826020860160208301376000602084830101528096505050505050604084013590509250925092565b60006020828403121561166957600080fd5b81356001600160a01b038116811461168057600080fd5b9392505050565b602080825260139082015272125d195b48191bd95cc81b9bdd08195e1a5cdd606a1b604082015260600190565b6000602082840312156116c657600080fd5b8151801515811461168057600080fd5b634e487b7160e01b600052601160045260246000fd5b818103818111156116ff576116ff6116d6565b92915050565b808201808211156116ff576116ff6116d6565b600181811c9082168061172c57607f821691505b60208210810361174c57634e487b7160e01b600052602260045260246000fd5b50919050565b601f82111561179c57600081815260208120601f850160051c810160208610156117795750805b601f850160051c820191505b8181101561179857828155600101611785565b5050505b505050565b815167ffffffffffffffff8111156117bb576117bb61157d565b6117cf816117c98454611718565b84611752565b602080601f83116001811461180457600084156117ec5750858301515b600019600386901b1c1916600185901b178555611798565b600085815260208120601f198616915b8281101561183357888601518255948401946001909101908401611814565b50858210156118515787850151600019600388901b60f8161c191681555b5050505050600190811b01905550565b60208152600061168060208301846114d8565b634e487b7160e01b600052603260045260246000fd5b634e487b7160e01b600052603160045260246000fd5b6000600182016118b2576118b26116d6565b506001019056fea2646970667358221220b57a018a64c8c9535c1bb2d7db27bd2dd1c68cb26dc686124b78cd00ad7a44c064736f6c63430008130033",
  "linkReferences": {},
  "deployedLinkReferences": {}
}