{
  "_format": "hh-sol-artifact-1",
  "contractName": "GovernorContract",
  "sourceName": "contracts/governance_standard/GovernorContract.sol",
  "abi": [
    {
      "inputs": [
        {
          "internalType": "contract ObscurityToken",
          "name": "_token",
          "type": "address"
        },
        {
          "internalType": "contract TimelockController",
          "name": "_timelock",
          "type": "address"
        },
        {
          "internalType": "uint256",
          "name": "_quorumPercentage",
          "type": "uint256"
        },
        {
          "internalType": "uint256",
          "name": "_votingPeriod",
          "type": "uint256"
        },
        {
          "internalType": "uint256",
          "name": "_votingDelay",
          "type": "uint256"
        }
      ],
      "stateMutability": "nonpayable",
      "type": "constructor"
    },
    {
      "inputs": [],
      "name": "Empty",
      "type": "error"
    },
    {
      "inputs": [],
      "name": "InvalidShortString",
      "type": "error"
    },
    {
      "inputs": [
        {
          "internalType": "string",
          "name": "str",
          "type": "string"
        }
      ],
      "name": "StringTooLong",
      "type": "error"
    },
    {
      "anonymous": false,
      "inputs": [],
      "name": "EIP712DomainChanged",
      "type": "event"
    },
    {
      "anonymous": false,
      "inputs": [
        {
          "indexed": false,
          "internalType": "uint256",
          "name": "proposalId",
          "type": "uint256"
        }
      ],
      "name": "ProposalCanceled",
      "type": "event"
    },
    {
      "anonymous": false,
      "inputs": [
        {
          "indexed": false,
          "internalType": "uint256",
          "name": "proposalId",
          "type": "uint256"
        },
        {
          "indexed": false,
          "internalType": "address",
          "name": "proposer",
          "type": "address"
        },
        {
          "indexed": false,
          "internalType": "address[]",
          "name": "targets",
          "type": "address[]"
        },
        {
          "indexed": false,
          "internalType": "uint256[]",
          "name": "values",
          "type": "uint256[]"
        },
        {
          "indexed": false,
          "internalType": "string[]",
          "name": "signatures",
          "type": "string[]"
        },
        {
          "indexed": false,
          "internalType": "bytes[]",
          "name": "calldatas",
          "type": "bytes[]"
        },
        {
          "indexed": false,
          "internalType": "uint256",
          "name": "voteStart",
          "type": "uint256"
        },
        {
          "indexed": false,
          "internalType": "uint256",
          "name": "voteEnd",
          "type": "uint256"
        },
        {
          "indexed": false,
          "internalType": "string",
          "name": "description",
          "type": "string"
        }
      ],
      "name": "ProposalCreated",
      "type": "event"
    },
    {
      "anonymous": false,
      "inputs": [
        {
          "indexed": false,
          "internalType": "uint256",
          "name": "proposalId",
          "type": "uint256"
        }
      ],
      "name": "ProposalExecuted",
      "type": "event"
    },
    {
      "anonymous": false,
      "inputs": [
        {
          "indexed": false,
          "internalType": "uint256",
          "name": "proposalId",
          "type": "uint256"
        },
        {
          "indexed": false,
          "internalType": "uint256",
          "name": "eta",
          "type": "uint256"
        }
      ],
      "name": "ProposalQueued",
      "type": "event"
    },
    {
      "anonymous": false,
      "inputs": [
        {
          "indexed": false,
          "internalType": "uint256",
          "name": "oldProposalThreshold",
          "type": "uint256"
        },
        {
          "indexed": false,
          "internalType": "uint256",
          "name": "newProposalThreshold",
          "type": "uint256"
        }
      ],
      "name": "ProposalThresholdSet",
      "type": "event"
    },
    {
      "anonymous": false,
      "inputs": [
        {
          "indexed": false,
          "internalType": "uint256",
          "name": "oldQuorumNumerator",
          "type": "uint256"
        },
        {
          "indexed": false,
          "internalType": "uint256",
          "name": "newQuorumNumerator",
          "type": "uint256"
        }
      ],
      "name": "QuorumNumeratorUpdated",
      "type": "event"
    },
    {
      "anonymous": false,
      "inputs": [
        {
          "indexed": false,
          "internalType": "address",
          "name": "oldTimelock",
          "type": "address"
        },
        {
          "indexed": false,
          "internalType": "address",
          "name": "newTimelock",
          "type": "address"
        }
      ],
      "name": "TimelockChange",
      "type": "event"
    },
    {
      "anonymous": false,
      "inputs": [
        {
          "indexed": true,
          "internalType": "address",
          "name": "voter",
          "type": "address"
        },
        {
          "indexed": false,
          "internalType": "uint256",
          "name": "proposalId",
          "type": "uint256"
        },
        {
          "indexed": false,
          "internalType": "uint8",
          "name": "support",
          "type": "uint8"
        },
        {
          "indexed": false,
          "internalType": "uint256",
          "name": "weight",
          "type": "uint256"
        },
        {
          "indexed": false,
          "internalType": "string",
          "name": "reason",
          "type": "string"
        }
      ],
      "name": "VoteCast",
      "type": "event"
    },
    {
      "anonymous": false,
      "inputs": [
        {
          "indexed": true,
          "internalType": "address",
          "name": "voter",
          "type": "address"
        },
        {
          "indexed": false,
          "internalType": "uint256",
          "name": "proposalId",
          "type": "uint256"
        },
        {
          "indexed": false,
          "internalType": "uint8",
          "name": "support",
          "type": "uint8"
        },
        {
          "indexed": false,
          "internalType": "uint256",
          "name": "weight",
          "type": "uint256"
        },
        {
          "indexed": false,
          "internalType": "string",
          "name": "reason",
          "type": "string"
        },
        {
          "indexed": false,
          "internalType": "bytes",
          "name": "params",
          "type": "bytes"
        }
      ],
      "name": "VoteCastWithParams",
      "type": "event"
    },
    {
      "anonymous": false,
      "inputs": [
        {
          "indexed": false,
          "internalType": "uint256",
          "name": "oldVotingDelay",
          "type": "uint256"
        },
        {
          "indexed": false,
          "internalType": "uint256",
          "name": "newVotingDelay",
          "type": "uint256"
        }
      ],
      "name": "VotingDelaySet",
      "type": "event"
    },
    {
      "anonymous": false,
      "inputs": [
        {
          "indexed": false,
          "internalType": "uint256",
          "name": "oldVotingPeriod",
          "type": "uint256"
        },
        {
          "indexed": false,
          "internalType": "uint256",
          "name": "newVotingPeriod",
          "type": "uint256"
        }
      ],
      "name": "VotingPeriodSet",
      "type": "event"
    },
    {
      "inputs": [],
      "name": "BALLOT_TYPEHASH",
      "outputs": [
        {
          "internalType": "bytes32",
          "name": "",
          "type": "bytes32"
        }
      ],
      "stateMutability": "view",
      "type": "function"
    },
    {
      "inputs": [],
      "name": "CLOCK_MODE",
      "outputs": [
        {
          "internalType": "string",
          "name": "",
          "type": "string"
        }
      ],
      "stateMutability": "view",
      "type": "function"
    },
    {
      "inputs": [],
      "name": "COUNTING_MODE",
      "outputs": [
        {
          "internalType": "string",
          "name": "",
          "type": "string"
        }
      ],
      "stateMutability": "pure",
      "type": "function"
    },
    {
      "inputs": [],
      "name": "EXTENDED_BALLOT_TYPEHASH",
      "outputs": [
        {
          "internalType": "bytes32",
          "name": "",
          "type": "bytes32"
        }
      ],
      "stateMutability": "view",
      "type": "function"
    },
    {
      "inputs": [
        {
          "internalType": "address[]",
          "name": "targets",
          "type": "address[]"
        },
        {
          "internalType": "uint256[]",
          "name": "values",
          "type": "uint256[]"
        },
        {
          "internalType": "bytes[]",
          "name": "calldatas",
          "type": "bytes[]"
        },
        {
          "internalType": "bytes32",
          "name": "descriptionHash",
          "type": "bytes32"
        }
      ],
      "name": "cancel",
      "outputs": [
        {
          "internalType": "uint256",
          "name": "",
          "type": "uint256"
        }
      ],
      "stateMutability": "nonpayable",
      "type": "function"
    },
    {
      "inputs": [
        {
          "internalType": "uint256",
          "name": "proposalId",
          "type": "uint256"
        },
        {
          "internalType": "uint8",
          "name": "support",
          "type": "uint8"
        }
      ],
      "name": "castVote",
      "outputs": [
        {
          "internalType": "uint256",
          "name": "",
          "type": "uint256"
        }
      ],
      "stateMutability": "nonpayable",
      "type": "function"
    },
    {
      "inputs": [
        {
          "internalType": "uint256",
          "name": "proposalId",
          "type": "uint256"
        },
        {
          "internalType": "uint8",
          "name": "support",
          "type": "uint8"
        },
        {
          "internalType": "uint8",
          "name": "v",
          "type": "uint8"
        },
        {
          "internalType": "bytes32",
          "name": "r",
          "type": "bytes32"
        },
        {
          "internalType": "bytes32",
          "name": "s",
          "type": "bytes32"
        }
      ],
      "name": "castVoteBySig",
      "outputs": [
        {
          "internalType": "uint256",
          "name": "",
          "type": "uint256"
        }
      ],
      "stateMutability": "nonpayable",
      "type": "function"
    },
    {
      "inputs": [
        {
          "internalType": "uint256",
          "name": "proposalId",
          "type": "uint256"
        },
        {
          "internalType": "uint8",
          "name": "support",
          "type": "uint8"
        },
        {
          "internalType": "string",
          "name": "reason",
          "type": "string"
        }
      ],
      "name": "castVoteWithReason",
      "outputs": [
        {
          "internalType": "uint256",
          "name": "",
          "type": "uint256"
        }
      ],
      "stateMutability": "nonpayable",
      "type": "function"
    },
    {
      "inputs": [
        {
          "internalType": "uint256",
          "name": "proposalId",
          "type": "uint256"
        },
        {
          "internalType": "uint8",
          "name": "support",
          "type": "uint8"
        },
        {
          "internalType": "string",
          "name": "reason",
          "type": "string"
        },
        {
          "internalType": "bytes",
          "name": "params",
          "type": "bytes"
        }
      ],
      "name": "castVoteWithReasonAndParams",
      "outputs": [
        {
          "internalType": "uint256",
          "name": "",
          "type": "uint256"
        }
      ],
      "stateMutability": "nonpayable",
      "type": "function"
    },
    {
      "inputs": [
        {
          "internalType": "uint256",
          "name": "proposalId",
          "type": "uint256"
        },
        {
          "internalType": "uint8",
          "name": "support",
          "type": "uint8"
        },
        {
          "internalType": "string",
          "name": "reason",
          "type": "string"
        },
        {
          "internalType": "bytes",
          "name": "params",
          "type": "bytes"
        },
        {
          "internalType": "uint8",
          "name": "v",
          "type": "uint8"
        },
        {
          "internalType": "bytes32",
          "name": "r",
          "type": "bytes32"
        },
        {
          "internalType": "bytes32",
          "name": "s",
          "type": "bytes32"
        }
      ],
      "name": "castVoteWithReasonAndParamsBySig",
      "outputs": [
        {
          "internalType": "uint256",
          "name": "",
          "type": "uint256"
        }
      ],
      "stateMutability": "nonpayable",
      "type": "function"
    },
    {
      "inputs": [],
      "name": "clock",
      "outputs": [
        {
          "internalType": "uint48",
          "name": "",
          "type": "uint48"
        }
      ],
      "stateMutability": "view",
      "type": "function"
    },
    {
      "inputs": [],
      "name": "eip712Domain",
      "outputs": [
        {
          "internalType": "bytes1",
          "name": "fields",
          "type": "bytes1"
        },
        {
          "internalType": "string",
          "name": "name",
          "type": "string"
        },
        {
          "internalType": "string",
          "name": "version",
          "type": "string"
        },
        {
          "internalType": "uint256",
          "name": "chainId",
          "type": "uint256"
        },
        {
          "internalType": "address",
          "name": "verifyingContract",
          "type": "address"
        },
        {
          "internalType": "bytes32",
          "name": "salt",
          "type": "bytes32"
        },
        {
          "internalType": "uint256[]",
          "name": "extensions",
          "type": "uint256[]"
        }
      ],
      "stateMutability": "view",
      "type": "function"
    },
    {
      "inputs": [
        {
          "internalType": "address[]",
          "name": "targets",
          "type": "address[]"
        },
        {
          "internalType": "uint256[]",
          "name": "values",
          "type": "uint256[]"
        },
        {
          "internalType": "bytes[]",
          "name": "calldatas",
          "type": "bytes[]"
        },
        {
          "internalType": "bytes32",
          "name": "descriptionHash",
          "type": "bytes32"
        }
      ],
      "name": "execute",
      "outputs": [
        {
          "internalType": "uint256",
          "name": "",
          "type": "uint256"
        }
      ],
      "stateMutability": "payable",
      "type": "function"
    },
    {
      "inputs": [
        {
          "internalType": "address",
          "name": "account",
          "type": "address"
        },
        {
          "internalType": "uint256",
          "name": "blockNumber",
          "type": "uint256"
        }
      ],
      "name": "getVotes",
      "outputs": [
        {
          "internalType": "uint256",
          "name": "",
          "type": "uint256"
        }
      ],
      "stateMutability": "view",
      "type": "function"
    },
    {
      "inputs": [
        {
          "internalType": "address",
          "name": "account",
          "type": "address"
        },
        {
          "internalType": "uint256",
          "name": "timepoint",
          "type": "uint256"
        },
        {
          "internalType": "bytes",
          "name": "params",
          "type": "bytes"
        }
      ],
      "name": "getVotesWithParams",
      "outputs": [
        {
          "internalType": "uint256",
          "name": "",
          "type": "uint256"
        }
      ],
      "stateMutability": "view",
      "type": "function"
    },
    {
      "inputs": [
        {
          "internalType": "uint256",
          "name": "proposalId",
          "type": "uint256"
        },
        {
          "internalType": "address",
          "name": "account",
          "type": "address"
        }
      ],
      "name": "hasVoted",
      "outputs": [
        {
          "internalType": "bool",
          "name": "",
          "type": "bool"
        }
      ],
      "stateMutability": "view",
      "type": "function"
    },
    {
      "inputs": [
        {
          "internalType": "address[]",
          "name": "targets",
          "type": "address[]"
        },
        {
          "internalType": "uint256[]",
          "name": "values",
          "type": "uint256[]"
        },
        {
          "internalType": "bytes[]",
          "name": "calldatas",
          "type": "bytes[]"
        },
        {
          "internalType": "bytes32",
          "name": "descriptionHash",
          "type": "bytes32"
        }
      ],
      "name": "hashProposal",
      "outputs": [
        {
          "internalType": "uint256",
          "name": "",
          "type": "uint256"
        }
      ],
      "stateMutability": "pure",
      "type": "function"
    },
    {
      "inputs": [],
      "name": "name",
      "outputs": [
        {
          "internalType": "string",
          "name": "",
          "type": "string"
        }
      ],
      "stateMutability": "view",
      "type": "function"
    },
    {
      "inputs": [
        {
          "internalType": "address",
          "name": "",
          "type": "address"
        },
        {
          "internalType": "address",
          "name": "",
          "type": "address"
        },
        {
          "internalType": "uint256[]",
          "name": "",
          "type": "uint256[]"
        },
        {
          "internalType": "uint256[]",
          "name": "",
          "type": "uint256[]"
        },
        {
          "internalType": "bytes",
          "name": "",
          "type": "bytes"
        }
      ],
      "name": "onERC1155BatchReceived",
      "outputs": [
        {
          "internalType": "bytes4",
          "name": "",
          "type": "bytes4"
        }
      ],
      "stateMutability": "nonpayable",
      "type": "function"
    },
    {
      "inputs": [
        {
          "internalType": "address",
          "name": "",
          "type": "address"
        },
        {
          "internalType": "address",
          "name": "",
          "type": "address"
        },
        {
          "internalType": "uint256",
          "name": "",
          "type": "uint256"
        },
        {
          "internalType": "uint256",
          "name": "",
          "type": "uint256"
        },
        {
          "internalType": "bytes",
          "name": "",
          "type": "bytes"
        }
      ],
      "name": "onERC1155Received",
      "outputs": [
        {
          "internalType": "bytes4",
          "name": "",
          "type": "bytes4"
        }
      ],
      "stateMutability": "nonpayable",
      "type": "function"
    },
    {
      "inputs": [
        {
          "internalType": "address",
          "name": "",
          "type": "address"
        },
        {
          "internalType": "address",
          "name": "",
          "type": "address"
        },
        {
          "internalType": "uint256",
          "name": "",
          "type": "uint256"
        },
        {
          "internalType": "bytes",
          "name": "",
          "type": "bytes"
        }
      ],
      "name": "onERC721Received",
      "outputs": [
        {
          "internalType": "bytes4",
          "name": "",
          "type": "bytes4"
        }
      ],
      "stateMutability": "nonpayable",
      "type": "function"
    },
    {
      "inputs": [
        {
          "internalType": "uint256",
          "name": "proposalId",
          "type": "uint256"
        }
      ],
      "name": "proposalDeadline",
      "outputs": [
        {
          "internalType": "uint256",
          "name": "",
          "type": "uint256"
        }
      ],
      "stateMutability": "view",
      "type": "function"
    },
    {
      "inputs": [
        {
          "internalType": "uint256",
          "name": "proposalId",
          "type": "uint256"
        }
      ],
      "name": "proposalEta",
      "outputs": [
        {
          "internalType": "uint256",
          "name": "",
          "type": "uint256"
        }
      ],
      "stateMutability": "view",
      "type": "function"
    },
    {
      "inputs": [
        {
          "internalType": "uint256",
          "name": "proposalId",
          "type": "uint256"
        }
      ],
      "name": "proposalProposer",
      "outputs": [
        {
          "internalType": "address",
          "name": "",
          "type": "address"
        }
      ],
      "stateMutability": "view",
      "type": "function"
    },
    {
      "inputs": [
        {
          "internalType": "uint256",
          "name": "proposalId",
          "type": "uint256"
        }
      ],
      "name": "proposalSnapshot",
      "outputs": [
        {
          "internalType": "uint256",
          "name": "",
          "type": "uint256"
        }
      ],
      "stateMutability": "view",
      "type": "function"
    },
    {
      "inputs": [],
      "name": "proposalThreshold",
      "outputs": [
        {
          "internalType": "uint256",
          "name": "",
          "type": "uint256"
        }
      ],
      "stateMutability": "view",
      "type": "function"
    },
    {
      "inputs": [
        {
          "internalType": "uint256",
          "name": "proposalId",
          "type": "uint256"
        }
      ],
      "name": "proposalVotes",
      "outputs": [
        {
          "internalType": "uint256",
          "name": "againstVotes",
          "type": "uint256"
        },
        {
          "internalType": "uint256",
          "name": "forVotes",
          "type": "uint256"
        },
        {
          "internalType": "uint256",
          "name": "abstainVotes",
          "type": "uint256"
        }
      ],
      "stateMutability": "view",
      "type": "function"
    },
    {
      "inputs": [
        {
          "internalType": "address[]",
          "name": "targets",
          "type": "address[]"
        },
        {
          "internalType": "uint256[]",
          "name": "values",
          "type": "uint256[]"
        },
        {
          "internalType": "bytes[]",
          "name": "calldatas",
          "type": "bytes[]"
        },
        {
          "internalType": "string",
          "name": "description",
          "type": "string"
        }
      ],
      "name": "propose",
      "outputs": [
        {
          "internalType": "uint256",
          "name": "",
          "type": "uint256"
        }
      ],
      "stateMutability": "nonpayable",
      "type": "function"
    },
    {
      "inputs": [
        {
          "internalType": "address[]",
          "name": "targets",
          "type": "address[]"
        },
        {
          "internalType": "uint256[]",
          "name": "values",
          "type": "uint256[]"
        },
        {
          "internalType": "bytes[]",
          "name": "calldatas",
          "type": "bytes[]"
        },
        {
          "internalType": "bytes32",
          "name": "descriptionHash",
          "type": "bytes32"
        }
      ],
      "name": "queue",
      "outputs": [
        {
          "internalType": "uint256",
          "name": "",
          "type": "uint256"
        }
      ],
      "stateMutability": "nonpayable",
      "type": "function"
    },
    {
      "inputs": [
        {
          "internalType": "uint256",
          "name": "blockNumber",
          "type": "uint256"
        }
      ],
      "name": "quorum",
      "outputs": [
        {
          "internalType": "uint256",
          "name": "",
          "type": "uint256"
        }
      ],
      "stateMutability": "view",
      "type": "function"
    },
    {
      "inputs": [],
      "name": "quorumDenominator",
      "outputs": [
        {
          "internalType": "uint256",
          "name": "",
          "type": "uint256"
        }
      ],
      "stateMutability": "view",
      "type": "function"
    },
    {
      "inputs": [
        {
          "internalType": "uint256",
          "name": "timepoint",
          "type": "uint256"
        }
      ],
      "name": "quorumNumerator",
      "outputs": [
        {
          "internalType": "uint256",
          "name": "",
          "type": "uint256"
        }
      ],
      "stateMutability": "view",
      "type": "function"
    },
    {
      "inputs": [],
      "name": "quorumNumerator",
      "outputs": [
        {
          "internalType": "uint256",
          "name": "",
          "type": "uint256"
        }
      ],
      "stateMutability": "view",
      "type": "function"
    },
    {
      "inputs": [
        {
          "internalType": "address",
          "name": "target",
          "type": "address"
        },
        {
          "internalType": "uint256",
          "name": "value",
          "type": "uint256"
        },
        {
          "internalType": "bytes",
          "name": "data",
          "type": "bytes"
        }
      ],
      "name": "relay",
      "outputs": [],
      "stateMutability": "payable",
      "type": "function"
    },
    {
      "inputs": [
        {
          "internalType": "uint256",
          "name": "newProposalThreshold",
          "type": "uint256"
        }
      ],
      "name": "setProposalThreshold",
      "outputs": [],
      "stateMutability": "nonpayable",
      "type": "function"
    },
    {
      "inputs": [
        {
          "internalType": "uint256",
          "name": "newVotingDelay",
          "type": "uint256"
        }
      ],
      "name": "setVotingDelay",
      "outputs": [],
      "stateMutability": "nonpayable",
      "type": "function"
    },
    {
      "inputs": [
        {
          "internalType": "uint256",
          "name": "newVotingPeriod",
          "type": "uint256"
        }
      ],
      "name": "setVotingPeriod",
      "outputs": [],
      "stateMutability": "nonpayable",
      "type": "function"
    },
    {
      "inputs": [
        {
          "internalType": "uint256",
          "name": "proposalId",
          "type": "uint256"
        }
      ],
      "name": "state",
      "outputs": [
        {
          "internalType": "enum IGovernor.ProposalState",
          "name": "",
          "type": "uint8"
        }
      ],
      "stateMutability": "view",
      "type": "function"
    },
    {
      "inputs": [
        {
          "internalType": "bytes4",
          "name": "interfaceId",
          "type": "bytes4"
        }
      ],
      "name": "supportsInterface",
      "outputs": [
        {
          "internalType": "bool",
          "name": "",
          "type": "bool"
        }
      ],
      "stateMutability": "view",
      "type": "function"
    },
    {
      "inputs": [],
      "name": "timelock",
      "outputs": [
        {
          "internalType": "address",
          "name": "",
          "type": "address"
        }
      ],
      "stateMutability": "view",
      "type": "function"
    },
    {
      "inputs": [],
      "name": "token",
      "outputs": [
        {
          "internalType": "contract IERC5805",
          "name": "",
          "type": "address"
        }
      ],
      "stateMutability": "view",
      "type": "function"
    },
    {
      "inputs": [
        {
          "internalType": "uint256",
          "name": "newQuorumNumerator",
          "type": "uint256"
        }
      ],
      "name": "updateQuorumNumerator",
      "outputs": [],
      "stateMutability": "nonpayable",
      "type": "function"
    },
    {
      "inputs": [
        {
          "internalType": "contract TimelockController",
          "name": "newTimelock",
          "type": "address"
        }
      ],
      "name": "updateTimelock",
      "outputs": [],
      "stateMutability": "nonpayable",
      "type": "function"
    },
    {
      "inputs": [],
      "name": "version",
      "outputs": [
        {
          "internalType": "string",
          "name": "",
          "type": "string"
        }
      ],
      "stateMutability": "view",
      "type": "function"
    },
    {
      "inputs": [],
      "name": "votingDelay",
      "outputs": [
        {
          "internalType": "uint256",
          "name": "",
          "type": "uint256"
        }
      ],
      "stateMutability": "view",
      "type": "function"
    },
    {
      "inputs": [],
      "name": "votingPeriod",
      "outputs": [
        {
          "internalType": "uint256",
          "name": "",
          "type": "uint256"
        }
      ],
      "stateMutability": "view",
      "type": "function"
    },
    {
      "stateMutability": "payable",
      "type": "receive"
    }
  ],
  "bytecode": "0x6101806040523480156200001257600080fd5b50604051620053c4380380620053c4833981016040819052620000359162000951565b838386838560006040518060400160405280601081526020016f11dbdd995c9b9bdc90dbdb9d1c9858dd60821b81525080620000766200019060201b60201c565b62000083826000620001ab565b6101205262000094816001620001ab565b61014052815160208084019190912060e052815190820120610100524660a0526200012260e05161010051604080517f8b73c3c69bb8fe3d512ecc4cf759cc79239f7b179b0ffacaa9a75d522b39400f60208201529081019290925260608201524660808201523060a082015260009060c00160405160208183030381529060405280519060200120905090565b60805250503060c052600262000139828262000a4e565b5062000147905083620001e4565b620001528262000225565b6200015d81620002cc565b5050506001600160a01b03166101605262000178816200030d565b5062000184816200048c565b50505050505062000bdb565b6040805180820190915260018152603160f81b602082015290565b6000602083511015620001cb57620001c383620004f5565b9050620001de565b81620001d8848262000a4e565b5060ff90505b92915050565b60065460408051918252602082018390527fc565b045403dc03c2eea82b81a0465edad9e2e7fc4d97e11421c209da93d7a93910160405180910390a1600655565b600081116200028b5760405162461bcd60e51b815260206004820152602760248201527f476f7665726e6f7253657474696e67733a20766f74696e6720706572696f6420604482015266746f6f206c6f7760c81b60648201526084015b60405180910390fd5b60075460408051918252602082018390527f7e3f7f0708a84de9203036abaa450dccc85ad5ff52f78c170f3edb55cf5e8828910160405180910390a1600755565b60085460408051918252602082018390527fccb45da8d5717e6c4544694297c4ba5cf151d455c9bb0ed4fc7a38411bc05461910160405180910390a1600855565b6064811115620003925760405162461bcd60e51b815260206004820152604360248201527f476f7665726e6f72566f74657351756f72756d4672616374696f6e3a2071756f60448201527f72756d4e756d657261746f72206f7665722071756f72756d44656e6f6d696e616064820152623a37b960e91b608482015260a40162000282565b60006200039e62000538565b90508015801590620003b05750600b54155b1562000418576040805180820190915260008152600b9060208101620003d68462000567565b6001600160e01b0390811690915282546001810184556000938452602093849020835194909301519091166401000000000263ffffffff909316929092179101555b6200044d620004386200042a620005d6565b65ffffffffffff166200064d565b620004438462000567565b600b9190620006b4565b505060408051828152602081018490527f0553476bf02ef2726e8ce5ced78d63e26e602e4a2257b1f559418e24b4633997910160405180910390a15050565b600c54604080516001600160a01b03928316815291831660208301527f08f74ea46ef7894f65eabfb5e6e695de773a000b47c529ab559178069b226401910160405180910390a1600c80546001600160a01b0319166001600160a01b0392909216919091179055565b600080829050601f8151111562000523578260405163305a27a960e01b815260040162000282919062000b1a565b8051620005308262000b6a565b179392505050565b600b54600090156200055e5762000550600b620006d1565b6001600160e01b0316905090565b600a545b905090565b60006001600160e01b03821115620005d25760405162461bcd60e51b815260206004820152602760248201527f53616665436173743a2076616c756520646f65736e27742066697420696e20326044820152663234206269747360c81b606482015260840162000282565b5090565b6000610160516001600160a01b03166391ddadf46040518163ffffffff1660e01b8152600401602060405180830381865afa92505050801562000638575060408051601f3d908101601f19168201909252620006359181019062000b8f565b60015b620006485762000562436200071f565b919050565b600063ffffffff821115620005d25760405162461bcd60e51b815260206004820152602660248201527f53616665436173743a2076616c756520646f65736e27742066697420696e203360448201526532206269747360d01b606482015260840162000282565b600080620006c485858562000788565b915091505b935093915050565b805460009080156200071557620006fd83620006ef60018462000bb9565b600091825260209091200190565b5464010000000090046001600160e01b031662000718565b60005b9392505050565b600065ffffffffffff821115620005d25760405162461bcd60e51b815260206004820152602660248201527f53616665436173743a2076616c756520646f65736e27742066697420696e203460448201526538206269747360d01b606482015260840162000282565b825460009081908015620008dd576000620007aa87620006ef60018562000bb9565b60408051808201909152905463ffffffff8082168084526401000000009092046001600160e01b0316602084015291925090871610156200082e5760405162461bcd60e51b815260206004820152601b60248201527f436865636b706f696e743a2064656372656173696e67206b6579730000000000604482015260640162000282565b805163ffffffff8088169116036200087c57846200085388620006ef60018662000bb9565b80546001600160e01b03929092166401000000000263ffffffff909216919091179055620008cc565b6040805180820190915263ffffffff80881682526001600160e01b0380881660208085019182528b54600181018d5560008d81529190912094519151909216640100000000029216919091179101555b602001519250839150620006c99050565b50506040805180820190915263ffffffff80851682526001600160e01b0380851660208085019182528854600181018a5560008a815291822095519251909316640100000000029190931617920191909155905081620006c9565b6001600160a01b03811681146200094e57600080fd5b50565b600080600080600060a086880312156200096a57600080fd5b8551620009778162000938565b60208701519095506200098a8162000938565b6040870151606088015160809098015196999198509695945092505050565b634e487b7160e01b600052604160045260246000fd5b600181811c90821680620009d457607f821691505b602082108103620009f557634e487b7160e01b600052602260045260246000fd5b50919050565b601f82111562000a4957600081815260208120601f850160051c8101602086101562000a245750805b601f850160051c820191505b8181101562000a455782815560010162000a30565b5050505b505050565b81516001600160401b0381111562000a6a5762000a6a620009a9565b62000a828162000a7b8454620009bf565b84620009fb565b602080601f83116001811462000aba576000841562000aa15750858301515b600019600386901b1c1916600185901b17855562000a45565b600085815260208120601f198616915b8281101562000aeb5788860151825594840194600190910190840162000aca565b508582101562000b0a5787850151600019600388901b60f8161c191681555b5050505050600190811b01905550565b600060208083528351808285015260005b8181101562000b495785810183015185820160400152820162000b2b565b506000604082860101526040601f19601f8301168501019250505092915050565b80516020808301519190811015620009f55760001960209190910360031b1b16919050565b60006020828403121562000ba257600080fd5b815165ffffffffffff811681146200071857600080fd5b81810381811115620001de57634e487b7160e01b600052601160045260246000fd5b60805160a05160c05160e0516101005161012051610140516101605161476762000c5d600039600081816109e1015281816110e0015281816114340152818161251a015261275f015260006113e0015260006113b60152600061295c015260006129340152600061288f015260006128b9015260006128e301526147676000f3fe6080604052600436106102815760003560e01c80637b3c71d31161014f578063c01f9e37116100c1578063ea0217cf1161007a578063ea0217cf14610923578063eb9019d414610943578063ece40cc114610963578063f23a6e6114610983578063f8ce560a146109af578063fc0c546a146109cf57600080fd5b8063c01f9e371461081f578063c28bc2fa14610858578063c59057e41461086b578063d33219b41461088b578063dd4e2ba5146108a9578063deaaa7cc146108ef57600080fd5b80639a802a6d116101135780639a802a6d14610769578063a7713a7014610789578063a890c9101461079e578063ab58fb8e146107be578063b58131b0146107de578063bc197c81146107f357600080fd5b80637b3c71d3146106c15780637d5e81e2146106e157806384b0196e1461070157806391ddadf41461072957806397c3d3341461075557600080fd5b80633932abb1116101f3578063544ffc9c116101ac578063544ffc9c146105c257806354fd4d501461061757806356781388146106415780635f398a141461066157806360c4247f1461068157806370b0f660146106a157600080fd5b80633932abb1146104e15780633bccf4fd146104f65780633e4f49e6146105165780634385963214610543578063452115d61461058d5780634bf5d7e9146105ad57600080fd5b8063143489d011610245578063143489d0146103ab578063150b7a0214610400578063160cbed7146104445780632656227d146104645780632d63f693146104775780632fe3e261146104ad57600080fd5b806301ffc9a7146102f157806302a251a314610326578063034201811461034957806306f3f9e61461036957806306fdde031461038957600080fd5b366102ec573061028f610a03565b6001600160a01b0316146102ea5760405162461bcd60e51b815260206004820152601f60248201527f476f7665726e6f723a206d7573742073656e6420746f206578656375746f720060448201526064015b60405180910390fd5b005b600080fd5b3480156102fd57600080fd5b5061031161030c3660046137d9565b610a1c565b60405190151581526020015b60405180910390f35b34801561033257600080fd5b5061033b610a2d565b60405190815260200161031d565b34801561035557600080fd5b5061033b610364366004613927565b610a38565b34801561037557600080fd5b506102ea6103843660046139cd565b610b30565b34801561039557600080fd5b5061039e610bba565b60405161031d9190613a36565b3480156103b757600080fd5b506103e86103c63660046139cd565b600090815260036020526040902054600160401b90046001600160a01b031690565b6040516001600160a01b03909116815260200161031d565b34801561040c57600080fd5b5061042b61041b366004613a5e565b630a85bd0160e11b949350505050565b6040516001600160e01b0319909116815260200161031d565b34801561045057600080fd5b5061033b61045f366004613c35565b610c4c565b61033b610472366004613c35565b610e4d565b34801561048357600080fd5b5061033b6104923660046139cd565b6000908152600360205260409020546001600160401b031690565b3480156104b957600080fd5b5061033b7fb3b3f3b703cd84ce352197dcff232b1b5d3cfb2025ce47cf04742d0651f1af8881565b3480156104ed57600080fd5b5061033b610f3f565b34801561050257600080fd5b5061033b610511366004613cc4565b610f4a565b34801561052257600080fd5b506105366105313660046139cd565b610fc0565b60405161031d9190613d28565b34801561054f57600080fd5b5061031161055e366004613d50565b60008281526009602090815260408083206001600160a01b038516845260030190915290205460ff1692915050565b34801561059957600080fd5b5061033b6105a8366004613c35565b610fcb565b3480156105b957600080fd5b5061039e6110dc565b3480156105ce57600080fd5b506105fc6105dd3660046139cd565b6000908152600960205260409020805460018201546002909201549092565b6040805193845260208401929092529082015260600161031d565b34801561062357600080fd5b506040805180820190915260018152603160f81b602082015261039e565b34801561064d57600080fd5b5061033b61065c366004613d80565b61119e565b34801561066d57600080fd5b5061033b61067c366004613dac565b6111c7565b34801561068d57600080fd5b5061033b61069c3660046139cd565b611211565b3480156106ad57600080fd5b506102ea6106bc3660046139cd565b6112c2565b3480156106cd57600080fd5b5061033b6106dc366004613e2f565b611349565b3480156106ed57600080fd5b5061033b6106fc366004613e88565b611391565b34801561070d57600080fd5b506107166113a8565b60405161031d9796959493929190613f77565b34801561073557600080fd5b5061073e611430565b60405165ffffffffffff909116815260200161031d565b34801561076157600080fd5b50606461033b565b34801561077557600080fd5b5061033b610784366004613fd9565b6114b9565b34801561079557600080fd5b5061033b6114d0565b3480156107aa57600080fd5b506102ea6107b9366004614031565b6114fa565b3480156107ca57600080fd5b5061033b6107d93660046139cd565b611581565b3480156107ea57600080fd5b5061033b61161b565b3480156107ff57600080fd5b5061042b61080e36600461404e565b63bc197c8160e01b95945050505050565b34801561082b57600080fd5b5061033b61083a3660046139cd565b6000908152600360205260409020600101546001600160401b031690565b6102ea6108663660046140e1565b611626565b34801561087757600080fd5b5061033b610886366004613c35565b611735565b34801561089757600080fd5b50600c546001600160a01b03166103e8565b3480156108b557600080fd5b506040805180820190915260208082527f737570706f72743d627261766f2671756f72756d3d666f722c6162737461696e9082015261039e565b3480156108fb57600080fd5b5061033b7f150214d74d59b7d1e90c73fc22ef3d991dd0a76b046543d4d80ab92d2a50328f81565b34801561092f57600080fd5b506102ea61093e3660046139cd565b61176f565b34801561094f57600080fd5b5061033b61095e366004614124565b6117f6565b34801561096f57600080fd5b506102ea61097e3660046139cd565b611802565b34801561098f57600080fd5b5061042b61099e366004614150565b63f23a6e6160e01b95945050505050565b3480156109bb57600080fd5b5061033b6109ca3660046139cd565b611889565b3480156109db57600080fd5b506103e87f000000000000000000000000000000000000000000000000000000000000000081565b6000610a17600c546001600160a01b031690565b905090565b6000610a2782611894565b92915050565b6000610a1760075490565b600080610adc610ad47fb3b3f3b703cd84ce352197dcff232b1b5d3cfb2025ce47cf04742d0651f1af888c8c8c8c604051610a749291906141b8565b60405180910390208b80519060200120604051602001610ab9959493929190948552602085019390935260ff9190911660408401526060830152608082015260a00190565b604051602081830303815290604052805190602001206118b9565b8686866118e6565b9050610b228a828b8b8b8080601f0160208091040260200160405190810160405280939291908181526020018383808284376000920191909152508d9250611904915050565b9a9950505050505050505050565b610b38610a03565b6001600160a01b0316336001600160a01b031614610b685760405162461bcd60e51b81526004016102e1906141c8565b30610b71610a03565b6001600160a01b031614610bae5760008036604051610b919291906141b8565b604051809103902090505b80610ba76004611a59565b03610b9c57505b610bb781611ad8565b50565b606060028054610bc9906141ff565b80601f0160208091040260200160405190810160405280929190818152602001828054610bf5906141ff565b8015610c425780601f10610c1757610100808354040283529160200191610c42565b820191906000526020600020905b815481529060010190602001808311610c2557829003601f168201915b5050505050905090565b600080610c5b86868686611735565b90506004610c6882610fc0565b6007811115610c7957610c79613d12565b14610c965760405162461bcd60e51b81526004016102e190614239565b600c546040805163793d064960e11b815290516000926001600160a01b03169163f27a0c929160048083019260209291908290030181865afa158015610ce0573d6000803e3d6000fd5b505050506040513d601f19601f82011682018060405250810190610d04919061427a565b600c5460405163b1c5f42760e01b81529192506001600160a01b03169063b1c5f42790610d3e908a908a908a906000908b90600401614321565b602060405180830381865afa158015610d5b573d6000803e3d6000fd5b505050506040513d601f19601f82011682018060405250810190610d7f919061427a565b6000838152600d602052604080822092909255600c5491516308f2a0bb60e41b81526001600160a01b0390921691638f2a0bb091610dca918b918b918b91908b90899060040161436f565b600060405180830381600087803b158015610de457600080fd5b505af1158015610df8573d6000803e3d6000fd5b505050507f9a2e42fd6722813d69113e7d0079d3d940171428df7373df9c7f7617cfda2892828242610e2a91906143dd565b604080519283526020830191909152015b60405180910390a15095945050505050565b600080610e5c86868686611735565b90506000610e6982610fc0565b90506004816007811115610e7f57610e7f613d12565b1480610e9c57506005816007811115610e9a57610e9a613d12565b145b610eb85760405162461bcd60e51b81526004016102e190614239565b60008281526003602052604090819020600201805460ff19166001179055517f712ae1383f79ac853f8d882153778e0260ef8f03b504e2866e0593e04d2b291f90610f069084815260200190565b60405180910390a1610f1b8288888888611c46565b610f288288888888611ce8565b610f358288888888611cf5565b5095945050505050565b6000610a1760065490565b604080517f150214d74d59b7d1e90c73fc22ef3d991dd0a76b046543d4d80ab92d2a50328f602082015290810186905260ff851660608201526000908190610f9890610ad490608001610ab9565b9050610fb587828860405180602001604052806000815250611d2e565b979650505050505050565b6000610a2782611d51565b600080610fda86868686611735565b90506000610fe782610fc0565b6007811115610ff857610ff8613d12565b146110455760405162461bcd60e51b815260206004820152601c60248201527f476f7665726e6f723a20746f6f206c61746520746f2063616e63656c0000000060448201526064016102e1565b600081815260036020526040902054600160401b90046001600160a01b0316336001600160a01b0316146110c65760405162461bcd60e51b815260206004820152602260248201527f476f7665726e6f723a206f6e6c792070726f706f7365722063616e2063616e63604482015261195b60f21b60648201526084016102e1565b6110d286868686611e9b565b9695505050505050565b60607f00000000000000000000000000000000000000000000000000000000000000006001600160a01b0316634bf5d7e96040518163ffffffff1660e01b8152600401600060405180830381865afa92505050801561115d57506040513d6000823e601f3d908101601f1916820160405261115a91908101906143f0565b60015b611199575060408051808201909152601d81527f6d6f64653d626c6f636b6e756d6265722666726f6d3d64656661756c74000000602082015290565b919050565b6000803390506111bf84828560405180602001604052806000815250611d2e565b949350505050565b600080339050610fb587828888888080601f0160208091040260200160405190810160405280939291908181526020018383808284376000920191909152508a9250611904915050565b600b54600090808203611228575050600a54919050565b6000600b61123760018461445d565b8154811061124757611247614470565b60009182526020918290206040805180820190915291015463ffffffff8116808352600160201b9091046001600160e01b0316928201929092529150841061129d57602001516001600160e01b03169392505050565b6112b16112a985611ea9565b600b90611f12565b6001600160e01b0316949350505050565b6112ca610a03565b6001600160a01b0316336001600160a01b0316146112fa5760405162461bcd60e51b81526004016102e1906141c8565b30611303610a03565b6001600160a01b03161461134057600080366040516113239291906141b8565b604051809103902090505b806113396004611a59565b0361132e57505b610bb781611fc5565b6000803390506110d286828787878080601f016020809104026020016040519081016040528093929190818152602001838380828437600092019190915250611d2e92505050565b600061139f85858585612006565b95945050505050565b6000606080828080836113db7f0000000000000000000000000000000000000000000000000000000000000000836123df565b6114067f000000000000000000000000000000000000000000000000000000000000000060016123df565b60408051600080825260208201909252600f60f81b9b939a50919850469750309650945092509050565b60007f00000000000000000000000000000000000000000000000000000000000000006001600160a01b03166391ddadf46040518163ffffffff1660e01b8152600401602060405180830381865afa9250505080156114ac575060408051601f3d908101601f191682019092526114a991810190614486565b60015b61119957610a174361248a565b60006114c68484846124f1565b90505b9392505050565b600b54600090156114f3576114e5600b612587565b6001600160e01b0316905090565b50600a5490565b611502610a03565b6001600160a01b0316336001600160a01b0316146115325760405162461bcd60e51b81526004016102e1906141c8565b3061153b610a03565b6001600160a01b031614611578576000803660405161155b9291906141b8565b604051809103902090505b806115716004611a59565b0361156657505b610bb7816125b7565b600c546000828152600d602052604080822054905163d45c443560e01b81526004810191909152909182916001600160a01b039091169063d45c443590602401602060405180830381865afa1580156115de573d6000803e3d6000fd5b505050506040513d601f19601f82011682018060405250810190611602919061427a565b90508060011461161257806114c9565b60009392505050565b6000610a1760085490565b61162e610a03565b6001600160a01b0316336001600160a01b03161461165e5760405162461bcd60e51b81526004016102e1906141c8565b30611667610a03565b6001600160a01b0316146116a457600080366040516116879291906141b8565b604051809103902090505b8061169d6004611a59565b0361169257505b600080856001600160a01b03168585856040516116c29291906141b8565b60006040518083038185875af1925050503d80600081146116ff576040519150601f19603f3d011682016040523d82523d6000602084013e611704565b606091505b509150915061172c828260405180606001604052806028815260200161470a60289139612620565b50505050505050565b60008484848460405160200161174e94939291906144ae565b60408051601f19818403018152919052805160209091012095945050505050565b611777610a03565b6001600160a01b0316336001600160a01b0316146117a75760405162461bcd60e51b81526004016102e1906141c8565b306117b0610a03565b6001600160a01b0316146117ed57600080366040516117d09291906141b8565b604051809103902090505b806117e66004611a59565b036117db57505b610bb781612639565b60006114c983836126da565b61180a610a03565b6001600160a01b0316336001600160a01b03161461183a5760405162461bcd60e51b81526004016102e1906141c8565b30611843610a03565b6001600160a01b03161461188057600080366040516118639291906141b8565b604051809103902090505b806118796004611a59565b0361186e57505b610bb7816126fb565b6000610a278261273c565b60006001600160e01b03198216636e665ced60e01b1480610a275750610a27826127e6565b6000610a276118c6612882565b8360405161190160f01b8152600281019290925260228201526042902090565b60008060006118f7878787876129ad565b91509150610f3581612a71565b6000858152600360205260408120600161191d88610fc0565b600781111561192e5761192e613d12565b146119875760405162461bcd60e51b815260206004820152602360248201527f476f7665726e6f723a20766f7465206e6f742063757272656e746c792061637460448201526269766560e81b60648201526084016102e1565b80546000906119a19088906001600160401b0316866124f1565b90506119b08888888488612bbb565b8351600003611a0557866001600160a01b03167fb8e138887d0aa13bab447e82de9d5c1777041ecd21ca36ba824ff1e6c07ddda4898884896040516119f894939291906144f9565b60405180910390a2610fb5565b866001600160a01b03167fe2babfbac5889a709b63bb7f598b324e08bc5a4fb9ec647fb3cbc9ec07eb87128988848989604051611a46959493929190614521565b60405180910390a2979650505050505050565b6000611a748254600f81810b600160801b909204900b131590565b15611a9257604051631ed9509560e11b815260040160405180910390fd5b508054600f0b6000818152600180840160205260408220805492905583546fffffffffffffffffffffffffffffffff191692016001600160801b03169190911790915590565b6064811115611b5b5760405162461bcd60e51b815260206004820152604360248201527f476f7665726e6f72566f74657351756f72756d4672616374696f6e3a2071756f60448201527f72756d4e756d657261746f72206f7665722071756f72756d44656e6f6d696e616064820152623a37b960e91b608482015260a4016102e1565b6000611b656114d0565b90508015801590611b765750600b54155b15611bda576040805180820190915260008152600b9060208101611b9984612d35565b6001600160e01b039081169091528254600181018455600093845260209384902083519490930151909116600160201b0263ffffffff909316929092179101555b611c07611bf5611be8611430565b65ffffffffffff16611ea9565b611bfe84612d35565b600b9190612d9e565b505060408051828152602081018490527f0553476bf02ef2726e8ce5ced78d63e26e602e4a2257b1f559418e24b4633997910160405180910390a15050565b30611c4f610a03565b6001600160a01b031614611ce15760005b8451811015611cdf57306001600160a01b0316858281518110611c8557611c85614470565b60200260200101516001600160a01b031603611ccf57611ccf838281518110611cb057611cb0614470565b6020026020010151805190602001206004612db990919063ffffffff16565b611cd881614567565b9050611c60565b505b5050505050565b611ce18585858585612df5565b30611cfe610a03565b6001600160a01b031614611ce157600454600f81810b600160801b909204900b1315611ce1576000600455611ce1565b600061139f85858585611d4c60408051602081019091526000815290565b611904565b600080611d5d83612e69565b90506004816007811115611d7357611d73613d12565b14611d7e5792915050565b6000838152600d602052604090205480611d99575092915050565b600c54604051632ab0f52960e01b8152600481018390526001600160a01b0390911690632ab0f52990602401602060405180830381865afa158015611de2573d6000803e3d6000fd5b505050506040513d601f19601f82011682018060405250810190611e069190614580565b15611e15575060079392505050565b600c54604051632c258a9f60e11b8152600481018390526001600160a01b039091169063584b153e90602401602060405180830381865afa158015611e5e573d6000803e3d6000fd5b505050506040513d601f19601f82011682018060405250810190611e829190614580565b15611e91575060059392505050565b5060029392505050565b600061139f85858585612fa9565b600063ffffffff821115611f0e5760405162461bcd60e51b815260206004820152602660248201527f53616665436173743a2076616c756520646f65736e27742066697420696e203360448201526532206269747360d01b60648201526084016102e1565b5090565b815460009081816005811115611f6f576000611f2d8461305b565b611f37908561445d565b60008881526020902090915081015463ffffffff9081169087161015611f5f57809150611f6d565b611f6a8160016143dd565b92505b505b6000611f7d87878585613143565b90508015611fb857611fa287611f9460018461445d565b600091825260209091200190565b54600160201b90046001600160e01b0316610fb5565b6000979650505050505050565b60065460408051918252602082018390527fc565b045403dc03c2eea82b81a0465edad9e2e7fc4d97e11421c209da93d7a93910160405180910390a1600655565b60003361201381846131a1565b61205f5760405162461bcd60e51b815260206004820152601d60248201527f476f7665726e6f723a2070726f706f736572207265737472696374656400000060448201526064016102e1565b6000612069611430565b65ffffffffffff16905061207b61161b565b61208a8361095e60018561445d565b10156120f25760405162461bcd60e51b815260206004820152603160248201527f476f7665726e6f723a2070726f706f73657220766f7465732062656c6f7720706044820152701c9bdc1bdcd85b081d1a1c995cda1bdb19607a1b60648201526084016102e1565b60006121078888888880519060200120611735565b9050865188511461212a5760405162461bcd60e51b81526004016102e1906145a2565b855188511461214b5760405162461bcd60e51b81526004016102e1906145a2565b600088511161219c5760405162461bcd60e51b815260206004820152601860248201527f476f7665726e6f723a20656d7074792070726f706f73616c000000000000000060448201526064016102e1565b6000818152600360205260409020546001600160401b03161561220b5760405162461bcd60e51b815260206004820152602160248201527f476f7665726e6f723a2070726f706f73616c20616c72656164792065786973746044820152607360f81b60648201526084016102e1565b6000612215610f3f565b61221f90846143dd565b9050600061222b610a2d565b61223590836143dd565b90506040518060e0016040528061224b84613292565b6001600160401b031681526001600160a01b03871660208201526000604082015260600161227883613292565b6001600160401b039081168252600060208084018290526040808501839052606094850183905288835260038252918290208551815492870151878501519186166001600160e01b031990941693909317600160401b6001600160a01b039094168402176001600160e01b0316600160e01b60e09290921c91909102178155938501516080860151908416921c0217600183015560a08301516002909201805460c09094015161ffff1990941692151561ff00191692909217610100931515939093029290921790558a517f7d84a6263ae0d98d3329bd7b46bb4e8d6f98cd35a7adb45c274c8b7fd5ebd5e091859188918e918e9181111561237c5761237c61385c565b6040519080825280602002602001820160405280156123af57816020015b606081526020019060019003908161239a5790505b508d88888f6040516123c9999897969594939291906145e3565b60405180910390a1509098975050505050505050565b606060ff83146123f9576123f2836132fa565b9050610a27565b818054612405906141ff565b80601f0160208091040260200160405190810160405280929190818152602001828054612431906141ff565b801561247e5780601f106124535761010080835404028352916020019161247e565b820191906000526020600020905b81548152906001019060200180831161246157829003601f168201915b50505050509050610a27565b600065ffffffffffff821115611f0e5760405162461bcd60e51b815260206004820152602660248201527f53616665436173743a2076616c756520646f65736e27742066697420696e203460448201526538206269747360d01b60648201526084016102e1565b604051630748d63560e31b81526001600160a01b038481166004830152602482018490526000917f000000000000000000000000000000000000000000000000000000000000000090911690633a46b1a890604401602060405180830381865afa158015612563573d6000803e3d6000fd5b505050506040513d601f19601f820116820180604052508101906114c6919061427a565b80546000908015611612576125a183611f9460018461445d565b54600160201b90046001600160e01b03166114c9565b600c54604080516001600160a01b03928316815291831660208301527f08f74ea46ef7894f65eabfb5e6e695de773a000b47c529ab559178069b226401910160405180910390a1600c80546001600160a01b0319166001600160a01b0392909216919091179055565b6060831561262f5750816114c9565b6114c98383613339565b600081116126995760405162461bcd60e51b815260206004820152602760248201527f476f7665726e6f7253657474696e67733a20766f74696e6720706572696f6420604482015266746f6f206c6f7760c81b60648201526084016102e1565b60075460408051918252602082018390527f7e3f7f0708a84de9203036abaa450dccc85ad5ff52f78c170f3edb55cf5e8828910160405180910390a1600755565b60006114c983836126f660408051602081019091526000815290565b6124f1565b60085460408051918252602082018390527fccb45da8d5717e6c4544694297c4ba5cf151d455c9bb0ed4fc7a38411bc05461910160405180910390a1600855565b6000606461274983611211565b604051632394e7a360e21b8152600481018590527f00000000000000000000000000000000000000000000000000000000000000006001600160a01b031690638e539e8c90602401602060405180830381865afa1580156127ae573d6000803e3d6000fd5b505050506040513d601f19601f820116820180604052508101906127d2919061427a565b6127dc91906146ba565b610a2791906146e7565b600063288ace0360e11b6318df743f60e31b63bf26d89760e01b6379dd796f60e01b6001600160e01b0319861682148061282c57506001600160e01b0319868116908216145b8061284357506001600160e01b0319868116908516145b8061285e57506001600160e01b03198616630271189760e51b145b806110d257506301ffc9a760e01b6001600160e01b03198716149695505050505050565b6000306001600160a01b037f0000000000000000000000000000000000000000000000000000000000000000161480156128db57507f000000000000000000000000000000000000000000000000000000000000000046145b1561290557507f000000000000000000000000000000000000000000000000000000000000000090565b610a17604080517f8b73c3c69bb8fe3d512ecc4cf759cc79239f7b179b0ffacaa9a75d522b39400f60208201527f0000000000000000000000000000000000000000000000000000000000000000918101919091527f000000000000000000000000000000000000000000000000000000000000000060608201524660808201523060a082015260009060c00160405160208183030381529060405280519060200120905090565b6000807f7fffffffffffffffffffffffffffffff5d576e7357a4501ddfe92f46681b20a08311156129e45750600090506003612a68565b6040805160008082526020820180845289905260ff881692820192909252606081018690526080810185905260019060a0016020604051602081039080840390855afa158015612a38573d6000803e3d6000fd5b5050604051601f1901519150506001600160a01b038116612a6157600060019250925050612a68565b9150600090505b94509492505050565b6000816004811115612a8557612a85613d12565b03612a8d5750565b6001816004811115612aa157612aa1613d12565b03612aee5760405162461bcd60e51b815260206004820152601860248201527f45434453413a20696e76616c6964207369676e6174757265000000000000000060448201526064016102e1565b6002816004811115612b0257612b02613d12565b03612b4f5760405162461bcd60e51b815260206004820152601f60248201527f45434453413a20696e76616c6964207369676e6174757265206c656e6774680060448201526064016102e1565b6003816004811115612b6357612b63613d12565b03610bb75760405162461bcd60e51b815260206004820152602260248201527f45434453413a20696e76616c6964207369676e6174757265202773272076616c604482015261756560f01b60648201526084016102e1565b60008581526009602090815260408083206001600160a01b0388168452600381019092529091205460ff1615612c435760405162461bcd60e51b815260206004820152602760248201527f476f7665726e6f72566f74696e6753696d706c653a20766f746520616c726561604482015266191e4818d85cdd60ca1b60648201526084016102e1565b6001600160a01b03851660009081526003820160205260409020805460ff1916600117905560ff8416612c8f5782816000016000828254612c8491906143dd565b90915550611cdf9050565b60001960ff851601612caf5782816001016000828254612c8491906143dd565b60011960ff851601612ccf5782816002016000828254612c8491906143dd565b60405162461bcd60e51b815260206004820152603560248201527f476f7665726e6f72566f74696e6753696d706c653a20696e76616c69642076616044820152746c756520666f7220656e756d20566f74655479706560581b60648201526084016102e1565b60006001600160e01b03821115611f0e5760405162461bcd60e51b815260206004820152602760248201527f53616665436173743a2076616c756520646f65736e27742066697420696e20326044820152663234206269747360c81b60648201526084016102e1565b600080612dac858585613363565b915091505b935093915050565b8154600160801b90819004600f0b6000818152600180860160205260409091209390935583546001600160801b03908116939091011602179055565b600c5460405163e38335e560e01b81526001600160a01b039091169063e38335e5903490612e30908890889088906000908990600401614321565b6000604051808303818588803b158015612e4957600080fd5b505af1158015612e5d573d6000803e3d6000fd5b50505050505050505050565b6000818152600360205260408120600281015460ff1615612e8d5750600792915050565b6002810154610100900460ff1615612ea85750600292915050565b6000838152600360205260408120546001600160401b031690819003612f105760405162461bcd60e51b815260206004820152601d60248201527f476f7665726e6f723a20756e6b6e6f776e2070726f706f73616c20696400000060448201526064016102e1565b6000612f1a611430565b65ffffffffffff169050808210612f3657506000949350505050565b6000858152600360205260409020600101546001600160401b0316818110612f645750600195945050505050565b612f6d86613502565b8015612f8c575060008681526009602052604090208054600190910154115b15612f9d5750600495945050505050565b50600395945050505050565b600080612fb88686868661354e565b6000818152600d60205260409020549091501561139f57600c546000828152600d60205260409081902054905163c4d252f560e01b81526001600160a01b039092169163c4d252f5916130119160040190815260200190565b600060405180830381600087803b15801561302b57600080fd5b505af115801561303f573d6000803e3d6000fd5b5050506000828152600d60205260408120555095945050505050565b60008160000361306d57506000919050565b6000600161307a8461365a565b901c6001901b90506001818481613093576130936146d1565b048201901c905060018184816130ab576130ab6146d1565b048201901c905060018184816130c3576130c36146d1565b048201901c905060018184816130db576130db6146d1565b048201901c905060018184816130f3576130f36146d1565b048201901c9050600181848161310b5761310b6146d1565b048201901c90506001818481613123576131236146d1565b048201901c90506114c98182858161313d5761313d6146d1565b046136ee565b60005b8183101561319957600061315a8484613704565b60008781526020902090915063ffffffff86169082015463ffffffff16111561318557809250613193565b6131908160016143dd565b93505b50613146565b509392505050565b805160009060348110156131b9576001915050610a27565b82810160131901516001600160a01b031981166b046e0e4dee0dee6cae47a60f60a31b146131ec57600192505050610a27565b6000806131fa60288561445d565b90505b838110156132715760008061323188848151811061321d5761321d614470565b01602001516001600160f81b03191661371f565b91509150816132495760019650505050505050610a27565b8060ff166004856001600160a01b0316901b17935050508061326a90614567565b90506131fd565b50856001600160a01b0316816001600160a01b031614935050505092915050565b60006001600160401b03821115611f0e5760405162461bcd60e51b815260206004820152602660248201527f53616665436173743a2076616c756520646f65736e27742066697420696e203660448201526534206269747360d01b60648201526084016102e1565b60606000613307836137b1565b604080516020808252818301909252919250600091906020820181803683375050509182525060208101929092525090565b8151156133495781518083602001fd5b8060405162461bcd60e51b81526004016102e19190613a36565b8254600090819080156134a957600061338187611f9460018561445d565b60408051808201909152905463ffffffff808216808452600160201b9092046001600160e01b0316602084015291925090871610156134025760405162461bcd60e51b815260206004820152601b60248201527f436865636b706f696e743a2064656372656173696e67206b657973000000000060448201526064016102e1565b805163ffffffff80881691160361344a578461342388611f9460018661445d565b80546001600160e01b0392909216600160201b0263ffffffff909216919091179055613499565b6040805180820190915263ffffffff80881682526001600160e01b0380881660208085019182528b54600181018d5560008d81529190912094519151909216600160201b029216919091179101555b602001519250839150612db19050565b50506040805180820190915263ffffffff80851682526001600160e01b0380851660208085019182528854600181018a5560008a815291822095519251909316600160201b029190931617920191909155905081612db1565b60008181526009602052604081206002810154600182015461352491906143dd565b600084815260036020526040902054613545906001600160401b0316611889565b11159392505050565b60008061355d86868686611735565b9050600061356a82610fc0565b9050600281600781111561358057613580613d12565b141580156135a05750600681600781111561359d5761359d613d12565b14155b80156135be575060078160078111156135bb576135bb613d12565b14155b61360a5760405162461bcd60e51b815260206004820152601d60248201527f476f7665726e6f723a2070726f706f73616c206e6f742061637469766500000060448201526064016102e1565b60008281526003602052604090819020600201805461ff001916610100179055517f789cf55be980739dad1d0699b93b58e806b51c9d96619bfa8fe0a28abaa7b30c90610e3b9084815260200190565b600080608083901c1561366f57608092831c92015b604083901c1561368157604092831c92015b602083901c1561369357602092831c92015b601083901c156136a557601092831c92015b600883901c156136b757600892831c92015b600483901c156136c957600492831c92015b600283901c156136db57600292831c92015b600183901c15610a275760010192915050565b60008183106136fd57816114c9565b5090919050565b600061371360028484186146e7565b6114c9908484166143dd565b60008060f883901c602f8111801561373a5750603a8160ff16105b1561374f57600194602f199091019350915050565b8060ff166040108015613765575060478160ff16105b1561377a576001946036199091019350915050565b8060ff166060108015613790575060678160ff16105b156137a5576001946056199091019350915050565b50600093849350915050565b600060ff8216601f811115610a2757604051632cd44ac360e21b815260040160405180910390fd5b6000602082840312156137eb57600080fd5b81356001600160e01b0319811681146114c957600080fd5b803560ff8116811461119957600080fd5b60008083601f84011261382657600080fd5b5081356001600160401b0381111561383d57600080fd5b60208301915083602082850101111561385557600080fd5b9250929050565b634e487b7160e01b600052604160045260246000fd5b604051601f8201601f191681016001600160401b038111828210171561389a5761389a61385c565b604052919050565b60006001600160401b038211156138bb576138bb61385c565b50601f01601f191660200190565b60006138dc6138d7846138a2565b613872565b90508281528383830111156138f057600080fd5b828260208301376000602084830101529392505050565b600082601f83011261391857600080fd5b6114c9838335602085016138c9565b60008060008060008060008060e0898b03121561394357600080fd5b8835975061395360208a01613803565b965060408901356001600160401b038082111561396f57600080fd5b61397b8c838d01613814565b909850965060608b013591508082111561399457600080fd5b506139a18b828c01613907565b9450506139b060808a01613803565b925060a0890135915060c089013590509295985092959890939650565b6000602082840312156139df57600080fd5b5035919050565b60005b83811015613a015781810151838201526020016139e9565b50506000910152565b60008151808452613a228160208601602086016139e6565b601f01601f19169290920160200192915050565b6020815260006114c96020830184613a0a565b6001600160a01b0381168114610bb757600080fd5b60008060008060808587031215613a7457600080fd5b8435613a7f81613a49565b93506020850135613a8f81613a49565b92506040850135915060608501356001600160401b03811115613ab157600080fd5b613abd87828801613907565b91505092959194509250565b60006001600160401b03821115613ae257613ae261385c565b5060051b60200190565b600082601f830112613afd57600080fd5b81356020613b0d6138d783613ac9565b82815260059290921b84018101918181019086841115613b2c57600080fd5b8286015b84811015613b50578035613b4381613a49565b8352918301918301613b30565b509695505050505050565b600082601f830112613b6c57600080fd5b81356020613b7c6138d783613ac9565b82815260059290921b84018101918181019086841115613b9b57600080fd5b8286015b84811015613b505780358352918301918301613b9f565b600082601f830112613bc757600080fd5b81356020613bd76138d783613ac9565b82815260059290921b84018101918181019086841115613bf657600080fd5b8286015b84811015613b505780356001600160401b03811115613c195760008081fd5b613c278986838b0101613907565b845250918301918301613bfa565b60008060008060808587031215613c4b57600080fd5b84356001600160401b0380821115613c6257600080fd5b613c6e88838901613aec565b95506020870135915080821115613c8457600080fd5b613c9088838901613b5b565b94506040870135915080821115613ca657600080fd5b50613cb387828801613bb6565b949793965093946060013593505050565b600080600080600060a08688031215613cdc57600080fd5b85359450613cec60208701613803565b9350613cfa60408701613803565b94979396509394606081013594506080013592915050565b634e487b7160e01b600052602160045260246000fd5b6020810160088310613d4a57634e487b7160e01b600052602160045260246000fd5b91905290565b60008060408385031215613d6357600080fd5b823591506020830135613d7581613a49565b809150509250929050565b60008060408385031215613d9357600080fd5b82359150613da360208401613803565b90509250929050565b600080600080600060808688031215613dc457600080fd5b85359450613dd460208701613803565b935060408601356001600160401b0380821115613df057600080fd5b613dfc89838a01613814565b90955093506060880135915080821115613e1557600080fd5b50613e2288828901613907565b9150509295509295909350565b60008060008060608587031215613e4557600080fd5b84359350613e5560208601613803565b925060408501356001600160401b03811115613e7057600080fd5b613e7c87828801613814565b95989497509550505050565b60008060008060808587031215613e9e57600080fd5b84356001600160401b0380821115613eb557600080fd5b613ec188838901613aec565b95506020870135915080821115613ed757600080fd5b613ee388838901613b5b565b94506040870135915080821115613ef957600080fd5b613f0588838901613bb6565b93506060870135915080821115613f1b57600080fd5b508501601f81018713613f2d57600080fd5b613abd878235602084016138c9565b600081518084526020808501945080840160005b83811015613f6c57815187529582019590820190600101613f50565b509495945050505050565b60ff60f81b8816815260e060208201526000613f9660e0830189613a0a565b8281036040840152613fa88189613a0a565b606084018890526001600160a01b038716608085015260a0840186905283810360c08501529050610b228185613f3c565b600080600060608486031215613fee57600080fd5b8335613ff981613a49565b92506020840135915060408401356001600160401b0381111561401b57600080fd5b61402786828701613907565b9150509250925092565b60006020828403121561404357600080fd5b81356114c981613a49565b600080600080600060a0868803121561406657600080fd5b853561407181613a49565b9450602086013561408181613a49565b935060408601356001600160401b038082111561409d57600080fd5b6140a989838a01613b5b565b945060608801359150808211156140bf57600080fd5b6140cb89838a01613b5b565b93506080880135915080821115613e1557600080fd5b600080600080606085870312156140f757600080fd5b843561410281613a49565b93506020850135925060408501356001600160401b03811115613e7057600080fd5b6000806040838503121561413757600080fd5b823561414281613a49565b946020939093013593505050565b600080600080600060a0868803121561416857600080fd5b853561417381613a49565b9450602086013561418381613a49565b9350604086013592506060860135915060808601356001600160401b038111156141ac57600080fd5b613e2288828901613907565b8183823760009101908152919050565b60208082526018908201527f476f7665726e6f723a206f6e6c79476f7665726e616e63650000000000000000604082015260600190565b600181811c9082168061421357607f821691505b60208210810361423357634e487b7160e01b600052602260045260246000fd5b50919050565b60208082526021908201527f476f7665726e6f723a2070726f706f73616c206e6f74207375636365737366756040820152601b60fa1b606082015260800190565b60006020828403121561428c57600080fd5b5051919050565b600081518084526020808501945080840160005b83811015613f6c5781516001600160a01b0316875295820195908201906001016142a7565b600081518084526020808501808196508360051b8101915082860160005b85811015614314578284038952614302848351613a0a565b988501989350908401906001016142ea565b5091979650505050505050565b60a08152600061433460a0830188614293565b82810360208401526143468188613f3c565b9050828103604084015261435a81876142cc565b60608401959095525050608001529392505050565b60c08152600061438260c0830189614293565b82810360208401526143948189613f3c565b905082810360408401526143a881886142cc565b60608401969096525050608081019290925260a0909101529392505050565b634e487b7160e01b600052601160045260246000fd5b80820180821115610a2757610a276143c7565b60006020828403121561440257600080fd5b81516001600160401b0381111561441857600080fd5b8201601f8101841361442957600080fd5b80516144376138d7826138a2565b81815285602083850101111561444c57600080fd5b61139f8260208301602086016139e6565b81810381811115610a2757610a276143c7565b634e487b7160e01b600052603260045260246000fd5b60006020828403121561449857600080fd5b815165ffffffffffff811681146114c957600080fd5b6080815260006144c16080830187614293565b82810360208401526144d38187613f3c565b905082810360408401526144e781866142cc565b91505082606083015295945050505050565b84815260ff841660208201528260408201526080606082015260006110d26080830184613a0a565b85815260ff8516602082015283604082015260a06060820152600061454960a0830185613a0a565b828103608084015261455b8185613a0a565b98975050505050505050565b600060018201614579576145796143c7565b5060010190565b60006020828403121561459257600080fd5b815180151581146114c957600080fd5b60208082526021908201527f476f7665726e6f723a20696e76616c69642070726f706f73616c206c656e67746040820152600d60fb1b606082015260800190565b60006101208b8352602060018060a01b038c168185015281604085015261460c8285018c614293565b91508382036060850152614620828b613f3c565b915083820360808501528189518084528284019150828160051b850101838c0160005b8381101561467157601f1987840301855261465f838351613a0a565b94860194925090850190600101614643565b505086810360a0880152614685818c6142cc565b9450505050508560c08401528460e08401528281036101008401526146aa8185613a0a565b9c9b505050505050505050505050565b8082028115828204841417610a2757610a276143c7565b634e487b7160e01b600052601260045260246000fd5b60008261470457634e487b7160e01b600052601260045260246000fd5b50049056fe476f7665726e6f723a2072656c617920726576657274656420776974686f7574206d657373616765a2646970667358221220d858091011e955e7783b00e69d954934fe625f7d8433bde391f39187ffef8d3464736f6c63430008130033",
  "linkReferences": {},
  "deployedLinkReferences": {}
}